:100000000C94E3030C941B040C941B040C941B042D
:100010000C941B040C941B040C941B040C941B04E4
:100020000C941B040C941B040C94A8280C946428B6
:100030000C94A4290C941B040C941B040C941B0416
:100040000C941B040C941B040C941B040C941B04B4
:100050000C941B040C9480290C941B040C941B041A
:100060000C941B040C941B040C941B040C941B0494
:100070000C941B040C941B040C941B040C941B0484
:100080000C941B040C941B040C941B040C941B0474
:100090000C941B040C941B040C941B040C941B0464
:1000A0000C941B040C941B040C941B040501090202
:1000B000A10185020901A100050919012905150001
:1000C00025019505750181029501750381010501E1
:1000D000093009311581257F950275088106093897
:1000E0001581257F950175088106050C0A380215D2
:1000F00081257F950175088106C0C005010980A191
:1001000001850319012AB700150126B7009501756D
:10011000108100C0050C0901A101850419012AA064
:1001200002150126A002950175108100C005010984
:1001300006A1018506050719E029E71500250195A7
:1001400008750181020507190029EF1500250195A1
:10015000F0750181020508190129059505750191C0
:1001600002950175039101C00660FF0961A10109B3
:1001700062150026FF0095207508810209631500AD
:1001800026FF00952075089102C005010906A1010E
:10019000050719E029E71500250195087501810279
:1001A0009501750881010507190029FF150026FF33
:1001B0000095067508810005081901290595057542
:1001C000019102950175039101C00000000000003B
:1001D000000000000000000000000000000000001F
:1001E00000000000000000000000000000007E0F82
:1001F00000D4FFFFFFC700000078000000000000EF
:1002000000002A2B28000000000000000000000071
:10021000000000000029000000002C1E34202122D4
:1002200024342627252E362D3738271E1F2021223D
:10023000232425263333362E37381F0405060708B6
:10024000090A0B0C0D0E0F101112131415161718A6
:10025000191A1B1C1D2F3130232D350405060708E4
:10026000090A0B0C0D0E0F10111213141516171886
:10027000191A1B1C1D2F3130354C69646F62616F78
:100280002F696434323A7669616C2028766234379B
:100290006664662900FD377A585A000004E6D6B431
:1002A000460200210116000000742FE5A3E004358A
:1002B00001125D003D888986D3DC0AE842C324929E
:1002C00058425AFA4B42162C5F542BA3173CFDCBD5
:1002D00016BB2FDD1F12C91B7C595B52FDCF8A6EE6
:1002E000CDD5C4CCE9FCB10EB00701CDB20ADB1507
:1002F0007F2D2D1F8DD5CC0155BBD79F14534C8A14
:10030000313AA443F40C328E972700F561B8F2FF1E
:10031000E3BD54507DB31D46B255A7017F7807AAAF
:10032000100B0854C794D27B29A0C6968C75007117
:100330003AD5F233C77ABACC1C2F89B519C0CC197B
:10034000778DDA6BE4689F6D37F16F6E16DDC20E44
:10035000FEF6BDF9794BA76F7E02CD439202039260
:100360008472C8E299B92284A8406F5F31FAE455DB
:10037000FF585123FB8EECFB6602677B751C4F7C9C
:10038000385F318ECA4E947F0FD6B54C8D36C9EB8F
:10039000E6B289399A5E3C202F6DBDB72FC619C6CB
:1003A000AE57BC2B821A2E6EF7827975A352F34E8C
:1003B00056B679DB3420300D3FCA863B671DE372A9
:1003C000B02A7BE49DA80000002D2016C1130FDB8E
:1003D000420001AE02B6080000DDB789ACB1C467C7
:1003E000FB020000000004595A0000000001002830
:1003F00000020001000300020004000300050004E5
:1004000000060005000700060008000700090008B4
:10041000000A0009000B000A000C000B000D000C84
:10042000000E000D000F000E0010000F0011001054
:100430000012001100130012001400130015001424
:1004400000160015001700160018001700190018F4
:10045000001A0019001B001A001C001B001F001CC2
:100460000020001D0021001E0022001F002300208C
:10047000002400210025002200260023002700245C
:100480000028002500290026002A0027000001017D
:100490000101010101010102020202020202020243
:1004A0000303030303030303040404040404040513
:1004B00005050505060606060607070707070808D7
:1004C0000808090909090A0A0A0B0B0B0C0C0C0D88
:1004D0000D0D0E0E0E0F0F0F101011111112121321
:1004E000131414151516161717181819191A1A1B9C
:1004F0001B1C1D1D1E1E1F202021222223242425FB
:100500002626272829292A2B2C2D2D2E2F30313233
:1005100032333435363738393A3B3C3D3E3F404143
:1005200042434445464748494A4C4D4E4F5051532B
:1005300054555658595A5B5D5E5F616264656668E2
:10054000696B6C6D6F7072737577787A7B7D7E8066
:1005500082838587888A8C8E8F91939596989A9CB2
:100560009EA0A2A3A5A7A9ABADAFB1B3B5B7BABCC6
:10057000BEC0C2C4C6C9CBCDCFD1D4D6D8DBDDDF97
:10058000E2E4E7E9EBEEF0F3F5F8FAFDFF165C14B0
:10059000001A000800150017001C0018000C0012BB
:1005A0000013002A002B0004001600070009000AAF
:1005B000000B000D000E000F0000002800E1001DE0
:1005C000001B0006001900050011001000E50000E6
:1005D0000052004C00E000E300E2002C420000006A
:1005E00000105F00000000500051004F0035001E59
:1005F000001F0020002100220023002400250026E7
:100600000027000100010000000000000000002D94
:10061000002E002F0030003100000001000100001A
:1006200000000033003400360037003800010000BD
:10063000004B0049000100010001000351000000CF
:10064000000100000000004A004E004D0029003A61
:10065000003B003C003D003E003F004000410042A6
:100660000043000100010000000000000000004401
:10067000004500460047004800000001000100005E
:100680000000000000000000000000000065000005
:1006900000A900A800E400E700E600010000000057
:1006A00000010000000000AD00AA00AE0001000043
:1006B0000000000000005C000000000000000000DE
:1006C00000000001000100C25CC35CC65CC55CC8E0
:1006D0005CC75C000000000000000001000100C4D5
:1006E0005C00000000895F0000145C000000000056
:1006F00000C95C00000100010001000100000000D1
:1007000000010000000000CC5CCA5CCB5C09025B0D
:1007100000030100A0FA090400000103010100091F
:100720002111010001224000070581030800020990
:10073000040100020300000009211101000122222E
:1007400000070582032000010705030320000109BB
:10075000040200010300000009211101000122BC74
:1007600000070584032000021201000200000008B7
:10077000646942000001010203011C037600690064
:1007800061006C003A0066003600340063003200FD
:100790006200330063000000180341006200610042
:1007A00063007500730020004900440034003200EB
:1007B00000000E03490044004F00420041004F007A
:1007C00000000403090411241FBECFEFDAE0DEBFEE
:1007D000CDBF04B603FE18C0809196049091970493
:1007E000A0919804B09199048730904BA740B04BEA
:1007F00059F4109296041092970410929804109253
:100800009904E0E0F8E3099524E0AAE2B2E001C02F
:100810001D92A639B207E1F712E0A0E0B1E0E4EFE3
:10082000F7E602C005900D92AA32B107D9F70E94EF
:10083000CB290C946A330C940000E8EDF0E0808141
:100840008E7F80831092E2001092DA001092E10015
:10085000A0EEB0E08C9181608C9380818F77808353
:1008600019BCA7EDB0E08C918E7F8C9380818F7E38
:1008700080831092300408952091E4003091E500C7
:1008800095E6A9012091EC00822F817020FF06C01F
:100890008091E80080FF06C080E008952091E80084
:1008A00022FD1AC080915E04882389F0853089F08A
:1008B0008091EB0085FD0FC02091E4003091E500B0
:1008C00042175307F9F29150E1F684E0089582E06F
:1008D000089583E0089581E00895EF92FF920F93C9
:1008E0001F93CF937C018B010E943C04C82F811180
:1008F00017C08091E80085FD0BC08091E8008E77DD
:100900008093E8000E943C04882399F3C82F08C014
:10091000F70181917F018093F1000150110949F79E
:100920008C2FCF911F910F91FF90EF900895CF934F
:1009300020915E042430F9F4C091E900CF70309129
:10094000EC00232F217030FD20E8C22B22E0209301
:10095000E9002091E80020FF0BC050E040E060E299
:1009600070E00E946D048091E8008E778093E8002B
:10097000CF70C093E900CF9108958091560487FF0E
:1009800013C08091E80082FF06C08091E8008B7759
:100990008093E80004C080915E048111F2CF089535
:1009A00080915E048823D9F38091E80080FFF8CF1E
:1009B0008091E8008E77ECCF982F9093E900242F58
:1009C000762F50E0891731F07091EC002091ED0006
:1009D0005091F00021FD07C09F5F973071F7809321
:1009E000E90081E008953091EB003E7F3093EB0009
:1009F0003091ED003D7F3093ED003091EB003160A0
:100A00003093EB007093EC002093ED005093F000D6
:100A10002091EE0027FDE0CF80E00895B0E0A0E057
:100A2000E4E1F5E00C94EA31C8EDD0E088818F7EF6
:100A30008883E7EDF0E080818160808384E082BF7D
:100A400081E08093300488818E7F888302EE10E0FD
:100A5000F80110821092DA0081EEC82ED12CF60136
:100A6000108288818F7788838881806888838881D5
:100A70008F7D888319BC10925E04109255041092E9
:100A800054041092530490EEE92EF12CF70180816A
:100A90008B7F808388818160888342E060E080E092
:100AA0000E94DC04F60180818E7F8083F8018081C2
:100AB00081608083808188608083F70180818E7F60
:100AC0008083888180618883CDB7DEB7E8E00C94AD
:100AD0000632FC01CB0120915C0430915D042617A5
:100AE000370790F0009729F42091E8002E772093A3
:100AF000E80040E0009751F4411108C08091E800FF
:100B000082FF31C080E00895C901F3CF20915E04D7
:100B10002223A9F12530A9F12091E80023FD2DC061
:100B20002091E80022FDEACF2091E80020FFE2CFEB
:100B30003091F3002091F200009719F02830310530
:100B400058F041E02830310509F040E02091E800FC
:100B50002E772093E800CECF41914093F10001978A
:100B60002F5F3F4FE9CF80915E04882341F08530AD
:100B700041F08091E80083FFC1CF81E0089582E0D9
:100B8000089583E0089508958091320408959C01AA
:100B90004FB7F8948091270490912804A0912904DC
:100BA000B0912A044FBF821B930B08952FB7F8947E
:100BB0008091270490912804A0912904B0912A04DF
:100BC0002FBF08959C01809113018823C9F0809163
:100BD0002B0487FF15C0E62FE695E695E695603F66
:100BE000E0F4E20FF32FF11D677081E090E001C0A7
:100BF000880F6A95EAF78095928189238283089508
:100C0000F9013296285F3F4F8191681303C0DF01DD
:100C100011971C92E217F307B9F708959C01809190
:100C200013018823C1F080912B0487FF14C0E62FA5
:100C3000E695E695E695603FF8F4E20FF32FF11D97
:100C4000677021E030E001C0220F6A95EAF78281E7
:100C5000822B82830895F90132968FEF90E04191C3
:100C6000641751F08F3F19F4411101C0892F9F5F24
:100C70009630A9F78F3F09F40895280F311D87FD9D
:100C80003A95F90162830895209124043091250456
:100C90002817390771F09093250480932404E0917C
:100CA0002204F0912304309721F00084F185E02D97
:100CB00009950895209120043091210428173907BF
:100CC00071F09093210480932004E0912204F0912C
:100CD0002304309721F00680F781E02D09950895CF
:100CE000E0912204F0912304309729F00190F081E3
:100CF000E02D0995089580E00895FA01882311F008
:100D000009950895FB01FCCFECE9F3E08183608352
:100D10004283339694E0EA31F907C1F70895FC0164
:100D2000EE0FFF1FE80FF91FE456FC4F618340836D
:100D300022830895E3E6F4E0248130E1231B08F4E4
:100D400020E0248380919B03816080939B0308951E
:100D5000E3E6F4E0248130E1230F08F42FEF24834D
:100D600080919B03816080939B030895922F209133
:100D70006304237071F08093640460936504453BC1
:100D800008F044EB4093660420919B03292B2093A9
:100D90009B030895E3E6F4E0438120E1421B08F45D
:100DA00040E0818121E0628190E00E94B6060895D2
:100DB000E3E6F4E0438120E1420F08F44FEF818144
:100DC00021E0628190E00E94B6060895E3E6F4E037
:100DD000628120E1621B08F460E0818121E04381AF
:100DE00090E00E94B6060895E3E6F4E0628120E117
:100DF000620F08F46FEF818121E0438190E00E944F
:100E0000B6060895E3E6F4E0818121E04381628142
:100E10008850990B0E94B6060895E3E6F4E08181BC
:100E200090E021E04381628108960E94B606089511
:100E3000262F90916304937061F081110BC0946030
:100E4000909363041092120160919B03622B609354
:100E50009B030895893210F0906AF2CF880F880FB3
:100E6000982BEECF90916304969596958FEF890F0E
:100E7000913009F488E261E00E941807089580919A
:100E80006304869586958F5F893208F081E061E082
:100E90000E941807089580916304837011F01092E6
:100EA0001201809163048C7F809363040895809184
:100EB0006304837011F410921201809163048C7F9B
:100EC0008160809363040895EF92FF920F93282F1F
:100ED000C701801B91098F3F910519F010F08FEF2A
:100EE00090E08095382F230F08F42FEF822F0F9179
:100EF000FF90EF900895EF92FF920F93282FC70174
:100F0000801B91098F3F910519F010F08FEF90E051
:100F1000382F3095230F08F42FEF680F822F0F9191
:100F2000FF90EF900895EF92FF920F93972FFA01A1
:100F3000B9019701093430F4201B31092F3F3105E5
:100F400019F010F02FEF30E03896719740F0AB01B8
:100F5000485F5F4F4131510510F02FEF30E0209591
:100F6000382F320F08F43FEF77FF02C06D5F7F4FDD
:100F7000759567957595679580916404680F792FCD
:100F8000832F0F91FF90EF900895EF92FF920F93B0
:100F90001F93E00EF11C890137FF03C011950195E5
:100FA000110924E0000F111F2A95E1F70F3F1105E9
:100FB00019F014F00FEF10E09A0157FF03C03195BC
:100FC0002195310994E0220F331F9A95E1F72017FC
:100FD00031070CF489010E0D1F1D0F3F110519F08B
:100FE00010F00FEF10E00095282F200F08F42FEFDE
:100FF000822F1F910F91FF90EF900895EF92FF9233
:101000000F93282FC70135E0039F800D911D1124F8
:101010008F3F910519F010F08FEF90E08095382FF9
:10102000230F08F42FEF822F0F91FF90EF90089578
:1010300022E8241B08F420E0620F08954095282F31
:10104000429F412D1124842F0895E42FF0E0EE0FEC
:10105000FF1FE455FE4F9081921B97FD9195292F1C
:1010600038E1239F212D1124620F08950F931F93C0
:10107000522F10E0F801EE0FFF1FE455FE4F908154
:10108000905797FD9195000F111FF801E458FE4FFE
:1010900001A90052110B50039001519F300D1124F2
:1010A00008E310E0091B110997FD13954003F001B7
:1010B000419FF00D1124E20FF31F9F01220F331FF8
:1010C0002E0F3F1F37FF02C021583F4F220F232F03
:1010D000221F330B620F1F910F9108950F931F93DF
:1010E000522F10E0F801EE0FFF1FE458FE4FA1A9A8
:1010F000A052BB0B9D015203F001539FF00D112430
:10110000000F111FD801A455BE4F0C910057110BB1
:1011100040039001419F300D11242E0F3F1F37FFD8
:1011200002C0215C3F4F96E0359527959A95E1F7EF
:10113000620F1F910F9108950F931F93522F10E08C
:10114000F801EE0FFF1FE458FE4FA1A9A052BB0B00
:101150009D015203F001539FF00D1124000F111F48
:10116000D801A455BE4F0C910057110B40039001BC
:10117000419F300D11242E0F3F1F37FF02C0215811
:101180003F4F220F232F221F330B620F1F910F910E
:101190000895EF920F93972F23E0029FB00111243F
:1011A000759567956E0D792F0F91EF900895322FF9
:1011B00050E0FA01EE0FFF1FE458FE4F91A9905244
:1011C00097FD9195440F551FFA01E455FE4F20817C
:1011D000231B330B290F311D97FD3A95620F08959C
:1011E000E42FF0E0EE0FFF1FE458FE4F61A9621BF1
:1011F0000895E42FF0E0EE0FFF1FE455FE4F6081ED
:10120000621B0895622F0895582FA22FE42FF0E05B
:10121000EE0FFF1FE455FE4F208134EE239F212D5A
:10122000112490E030E0245E3F4F2A1B310937FF44
:1012300003C031952195310943E0220F331F4A95B0
:10124000E1F7821B930B97FD80E0282F259F212D2E
:101250001124822F08951F93172F922FE42FF0E06F
:10126000EE0FFF1FE455FE4F208134EE239F212D0A
:101270001124472F50E030E0245E3F4F291B3109F5
:1012800037FF03C031952195310993E0220F331FB9
:101290009A95E1F7421B530B57FD40E0742F719F65
:1012A000712D11241F9108950E94840608950E94B3
:1012B0008F060895FC019B01009729F480E077FFD9
:1012C0002BC080E80895AC0197FF04C04427552740
:1012D000481B590BB901640F751F37FD10C0241B43
:1012E000350BC901A5E0880F991FAA95E1F70E9467
:1012F000BF3180E2861BF7FF0FC081950895CB01B7
:1013000065E0880F991F6A95E1F7BA01621B730BBC
:101310000E94BF3180E6EECF0895EF920F93CF93F6
:10132000DF93D72FC82FBA01C9010E190E945A099D
:10133000602F681B7D2F8C2FDF91CF910F91EF9045
:1013400008950F93CF93DF93D72FC82FBA01C90108
:101350000E945A09682F600F7D2F8C2FDF91CF914B
:101360000F910895EF920F931F93CF93DF93D62F92
:10137000C72F182FBA01C9010E19010F0E945A096F
:10138000081B019F012D11246D2F7C2F802FDF91D1
:10139000CF911F910F91EF900895EF920F931F93AC
:1013A000CF93DF93D62F172FC82FBA01C9010E197B
:1013B000010F0E945A09702F781B719F712D112403
:1013C0006D2F8C2FDF91CF911F910F91EF9008958A
:1013D0000F931F93CF93DF93D62FC72F182FBA01E8
:1013E000C901212F201B022F0E945A09982F990F03
:1013F000990F282F291B200F219F212D11246D2F9C
:101400007C2F822FDF91CF911F910F9108950F9321
:101410001F93CF93DF93D62F172FC82FBA01C9017F
:10142000212F201B022F0E945A09982F990F990FE4
:10143000782F791B700F719F712D11246D2F8C2FB8
:10144000DF91CF911F910F910895982FE82F96FD6E
:10145000E0952E2F2F7096FD2F5FE695E695E69589
:10146000E670F0E0EB59FE4F8181829F802D212DA7
:10147000112482958F702295207F822B2081820FEC
:1014800097FD8195805808950F931F93CF93DF9315
:101490008B01D82FC42F822F0E94250AEC2FF0E059
:1014A000EE0FFF1FE455FE4F90819058980F97FD67
:1014B0009195990F692F2CE0629F612D1124600F87
:1014C000712F8D2FDF91CF911F910F9108959C0166
:1014D0008230910508F408959FEF213E8EE1380790
:1014E00040F4C90145E0969587954A95E1F798E063
:1014F000980F61E0E62FE90FFF27FF1FAF01559519
:101500004795842F449FF001459FF00DF00D112465
:101510002E173F0738F49FEF940F961758F78FEF69
:10152000860F08954F3FE9F361E0640FF6CF0F9304
:10153000CF93DF93D72FC82FF90147FD419528E3BB
:1015400030E0241B310947FD3395229FA001239FE2
:10155000500D500D1124EE9FC001EF9F900D900D86
:101560001124840F951F0E94670A982F990F692FE5
:10157000680F600F7D2F8C2FDF91CF910F91089511
:101580009C0190E080E0269F812D369F800D911D6B
:1015900011240895B0E0A0E0E0EDFAE00C94E83109
:1015A000262F472FE82FF0E0E357FB4F711109C0BA
:1015B0006491862FE62F7E2FCDB7DEB7EAE00C943C
:1015C0000432E72EF12CE49186E0689F800111241B
:1015D000CFEFD0E0C801BE010E94AB31DB0130E0AB
:1015E000220F331F55E5569FC001579F900D1124C0
:1015F000281B390B622F660F260FCE018E199F090B
:10160000E89F6001E99FD00C11246D2D429FA0013D
:101610001124452F5527CE01841B950BE89FA0016F
:10162000E99F500D1124852F5E01A21AB108AE9CCE
:101630009001AF9C300DBE9C300D1124232F332719
:10164000C21BD30BEC9F9001ED9F300D1124A330F2
:10165000B105B1F00C3F93E0190760F4A130B1057A
:1016600099F01297A9F00F3F110508F0A4CF8D2D26
:10167000632FA1CFA430B10571F01697C1F39BCFB2
:10168000652F8E2FED2D97CF6E2FE52F8D2D93CFBC
:10169000832F6E2FF7CF8E2FE32F8DCFA9E0B0E0F1
:1016A000E4E5FBE00C94E031282E6A837B832091F3
:1016B000140189E0289F802D11248E83875F898300
:1016C0008C838B3210F03AE23C83809169048D83E5
:1016D000FE81EF2FF0E0F987E887CF01880F991F8F
:1016E0009C0124583E4F6901822D90E0FC01319607
:1016F000FF83EE838C819885981748F081E0E9811B
:10170000EA3208F080E02996E2E10C94FC31E885A9
:10171000F985E050FE4F8081909115018923F1F009
:1017200040906404509065042E813F8127593B4FBF
:101730003901322C10E0FD813F16D0F02091660473
:10174000129F112D1124B201812F0E94CA0A462F27
:10175000672F282F888599850E9457092885398504
:101760002F5F3F4F3987288732E0C30ED11CC2CF8D
:10177000F30181913F01F601A0A8A81ABB0881A836
:10178000F3018781881A9908AA9C9001AB9C300DBF
:10179000300D1124889CC001899C900D900D11245E
:1017A000820F931F0E94670A082F6091670421E04F
:1017B000620F08F46FEFF301EE0FFF1FE956F440DC
:1017C000858996890E94C00A7C019401A501B20115
:1017D000812FEA81FB8109952B01182F3394ABCF20
:1017E000B0E0A0E0E6EFFBE00C94EA318C01C091A0
:1017F000140189E0C89FC02D112429E0D22EDC0EEF
:10180000CD2C2AE22D1510F49AE2C92E20916704FE
:1018100031E0230F08F42FEF30E050E040E06FEFAD
:101820007FEF80E090E00E9407337901D0E02C2F19
:10183000CC1550F081E0F9E2FD1508F480E0CDB759
:10184000DEB7E8E00C940632FE01E050FE4F8081E6
:1018500090911501892311F1409169044150042EA2
:10186000000C550B47FF1CC0C7016091670421E0C5
:10187000620F08F46FEF0E94C00AAC01609164042B
:101880007091650480916604F80109950E94CA0A66
:10189000462F672F282FCE010E9457092196C7CFC8
:1018A000FA01E759FB4F818982130AC0FA01EE0F52
:1018B000FF1FE759FB4F818D928D8E159F05A8F272
:1018C00041505109CFCFB0E0A0E0E9E6FCE00C9434
:1018D000EB317C01C091140189E0C89FC02D112417
:1018E00019E01C0FD12E1B3210F08AE2D82E609125
:1018F00067046695669521E0620F08F46FEF8091AA
:101900005F04909160040E94C00A082FD0E0CD15BA
:1019100048F081E01A3208F080E0CDB7DEB7E7E0AA
:101920000C940732FE01E050FE4F8081909115012A
:10193000892391F06091640470916504809166043C
:10194000202F4C2FF70109950E94CA0A462F672FB6
:10195000282FCE010E9457092196D9CFA5E0B0E0EB
:10196000E4EBFCE00C94E9316C0180911401898373
:1019700089E09981989F802D11248B8399E0F92E1D
:10198000F80EBF2CEAE2EF1510F48AE2B82E60914F
:1019900067046695669580915F04909160040E944B
:1019A000C00A182F80E4810F0E94250A805889837D
:1019B000812F0E94250A80588A839B81892F90E07D
:1019C0009D838C839C819B1548F081E0E9E2EF15B3
:1019D00008F480E02596E9E00C940532EC81FD8165
:1019E000E050FE4F8081909115018923A9F060910C
:1019F00064047091650480916604E12E0C812A8153
:101A00004981F60109950E94CA0A462F672F282F9F
:101A10008C819D810E9457098C819D810196D0CF38
:101A2000B0E0A0E0E6E1FDE00C94E3314C01C091B0
:101A3000140189E0C89FC02D112419E01C0F512EFC
:101A40001B3210F03AE2532E609167046695809144
:101A50005F04909160040E94C00AF82ED0E0CE018D
:101A6000880F991F9C0124583E4F6901C51548F005
:101A700081E01A3208F080E0CDB7DEB7EFE00C94D9
:101A8000FF31FE01E050FE4F8081909115018923C6
:101A900079F1F60180A9282F2057330B590181A92C
:101AA000E82FE052FF0B3F01AA9C9001AB9C300D48
:101AB000300D1124EE9FC001EF9F900D900D112469
:101AC000820F931F0E94670A082F6091640470912F
:101AD000650480916604EF2C9301A501F40109953A
:101AE0000E94CA0A462F672F282FCE010E9457094D
:101AF000F2E0CF0ED11C2196B9CFB0E0A0E0E3E830
:101B0000FDE00C94E8315C01C091140189E0C89FAC
:101B1000C02D112419E01C0FC12E1B3210F03AE227
:101B2000C32E60916704669580915F049091600474
:101B30000E94C00AD82ED0E0CE01880F991F9C01C8
:101B400024583E4F7901CC1548F081E01A3208F054
:101B500080E0CDB7DEB7EAE00C940432FE01E0503D
:101B6000FE4F8081909115018923C1F0F70121A9D1
:101B70002052330B40A94057550B6091640470917B
:101B80006504809166040D2DF50109950E94CA0A2D
:101B9000462F672F282FCE010E945709F2E0EF0E43
:101BA000F11C2196D0CF0E94D6052091EB023091F6
:101BB000EC02232B21F08093E7029093E80220911E
:101BC000ED023091EE02232B21F08093E5029093F9
:101BD000E602E0912204F0912304309749F082E07C
:101BE0008093E9020480F581E02D89EE92E0099569
:101BF00008959091EB02803F59F48091EC0287FFA9
:101C00000DC01092EC0291110BC01092E30208C0BB
:101C1000813F81F48091EC0218169CF3992381F0A6
:101C20008091ED029091EE02892B09F064C0109230
:101C3000E2020895823F49F497FFF0CF1092EB0241
:101C40008091EC028111ECCFE0CF833F19F419169B
:101C5000ACF3E4CF2091ED02893F29F41216F4F69B
:101C60001092ED02DBCF8A3F19F427FFD7CFF8CFD0
:101C70002091EE028B3F29F427FFD0CF1092EE0285
:101C8000CDCF8C3F19F41216CCF3C8CF843F31F47A
:101C90008091EA028E7F8093EA02C0CF853F21F4D3
:101CA0008091EA028D7FF7CF863F21F48091EA028E
:101CB0008B7FF1CF873F21F48091EA02877FEBCFC2
:101CC000883F21F48091EA028F7EE5CF8D3F31F489
:101CD0008091E4028E7F8093E402A0CF8E3F21F4B6
:101CE0008091E4028D7FF7CF8F3F09F097CF8091ED
:101CF000E4028B7FF0CF08958091E40280FD16C04E
:101D000081FD16C082FD16C08091E2028823A1F0F9
:101D1000883280F428E0829FC001112468E270E0DC
:101D20000E94BF31862F672B39F0089582E0089515
:101D300084E0089588E0089581E008958091E402A8
:101D400080FD14C081FD14C082FD16C08091E302A5
:101D5000882381F08E3180F420E5829FC001112418
:101D60006EE170E00E94BF31862F089584E10895EE
:101D700088E2089588E0089580E50895803F31F471
:101D80000E949E0E81958093EC020895813F19F484
:101D90000E949E0EF8CF823F31F40E949E0E8195E4
:101DA0008093EB020895833F19F40E949E0EF8CFB2
:101DB000893F29F40E947C0E8093ED0208958A3FAA
:101DC00021F40E947C0E8195F7CF8B3F31F40E9465
:101DD0007C0E81958093EE0208958C3F19F40E9449
:101DE0007C0EF8CF843F31F48091EA0281608093C9
:101DF000EA020895853F21F48091EA028260F7CFDC
:101E0000863F21F48091EA028460F1CF873F21F47C
:101E10008091EA028860EBCF883F21F48091EA024A
:101E20008061E5CF8D3F31F48091E4028160809341
:101E3000E40208958E3F21F48091E4028260F7CF9E
:101E40008F3FB9F78091E4028460F1CF80E008957C
:101E5000F894E82FE295EF70F0E041A18F7021E057
:101E600030E0B90102C0660F771F8A95E2F7CB0117
:101E7000962F9095942391A392A1892B82A3789475
:101E8000089590912B0492FF06C0282F28712830C6
:101E9000F9F4877F846093FF06C0282F28712831CA
:101EA000F1F4877E846120912C0420FF06C0382F36
:101EB00038713830D9F4877F816021FF06C0282F20
:101EC00028712831D1F4877E816194FD877E089541
:101ED000282F24712430F9F68B7F8860DCCF282FDF
:101EE0002471243101F78B7E8861DDCF382F317169
:101EF000313019F78E7F8860E0CF282F2171213192
:101F000021F78E7E8861E1CFCF93DF93EC01803E95
:101F1000910509F460C050F58133910509F4A6C01C
:101F200090F48932910509F49AC08A9709F4A5C002
:101F3000C130D10509F462C0CE010497813A910500
:101F400008F055C05BC089339105F1F182389105E5
:101F5000D9F1C59709F47CC0C83AD10508F094C0FE
:101F6000C53AD10528F3A497D06448C0843E9105B2
:101F700009F453C068F4823E9105E1F1833E910576
:101F800009F440C0CE01805E9109089780F536C003
:101F9000863E910509F44CC0873E910509F44DC079
:101FA000811522E5920708F0AAC0811531E5930753
:101FB00008F0FAC08F3F910511F008F074C0803F1F
:101FC000910550F2D0651AC080912B048370B1F056
:101FD000C0EED0E013C080912B0480FD12C190911F
:101FE0002C0490FF0BC0C3EED0E084FF07C0D0E00C
:101FF000C0E004C080912B0482FDF5CFCE01DF91BB
:10200000CF91089580912B0482FDFEC090912C0405
:1020100090FDDECF84FFF2CFEACF80912C0481FFC8
:10202000EDCF80912B04C7EED0E084FDE0CFE6CF6A
:1020300080912B0483FDF7CFE1CF80912B0483FDAA
:10204000E6C090912C0491FFE5CFC4EED0E0D6CF4E
:1020500080912B0485FFD2CFC9E2D0E0CFCF809111
:102060002B0485FFCBCFC5E3D0E0C8CF80912B04F4
:1020700086FFC4CFCAE2D0E0C1CF80912B0486FF97
:10208000BDCFC1E3D0E0BACFCF3BD10508F07ACFC6
:10209000C85AD0E0CC0FDD1FC95DDE4F0990D88152
:1020A000C02DD464ABCF811540E5940760F4C11511
:1020B00080E4D80708F075C0CE019A9581159F413C
:1020C00008F49CCF94CFF4E096958795FA95E1F7C4
:1020D00083702C2F26952695237040E2249F900133
:1020E0001124382B8C2F8370C1E0D0E002C0CC0FBC
:1020F000DD1F8A95E2F7C22BD32BDC687FCFC11599
:1021000086E5D80730F5C11595E5D90708F060C018
:10211000C11524E5D207C0F49C2F969596959E0193
:1021200023703327C115D34508F043C0C1E0D0E088
:1021300002C0CC0FDD1F2A95E2F720E2929FC0017A
:102140001124C82BD92BD9CFDC2FCC27C46FD06A50
:1021500055CFC1153AE5D30788F4C11549E5D40731
:1021600008F041C0CE0198558F3F910511F008F05D
:102170003ECFDC2FCC27C06FD06A40CFCE01905627
:102180008115904208F033CF8D2F8F710E94410F3F
:1021900090E0982F882788279F719C012C2BE901BC
:1021A00020C0DF70D06A2ACFD82FCC27C16FD06A69
:1021B00025CFC1E0D0E002C0CC0FDD1F2A95E2F7A9
:1021C00030E2939FC0011124C82BD92BDA6816CFB7
:1021D0008C2F0E94410FC82FD0E0DC2FCC27CC27BA
:1021E000DF71D0620BCF8C2F8F700E94410F34E0D3
:1021F000D695C7953A95E1F7CF70DC2FC82FD069F7
:10220000FDCEC9E3D0E0FACEC2EED0E0F7CEC6EE06
:10221000D0E0F4CE8091BF02882331F01092BF024B
:102220001092BE021092BD020895982F9095809151
:10223000BC0289238093BC02089510929A021092E6
:1022400099021092980208958091970290916602E7
:10225000981301C008958F5F8770FACF292F9430AB
:1022600078F58C3068F590E03CE0239F800D911D5F
:102270001124682F677023E0969587952A95E1F7DA
:10228000FC01EE0FFF1FE80FF91FE25BFD4F50E06E
:1022900040E080E0219130E0062E02C0369527957F
:1022A0000A94E2F721703327042E01C0220F0A940A
:1022B000EAF7822B4F5F5F4F4330510559F708957E
:1022C00080E00895292F943090F58C3080F590E0CF
:1022D0003CE0239F800D911D1124282F277041E0A1
:1022E00001C0440F2A95EAF723E0969587952A9531
:1022F000E1F7FC01EE0FFF1FE80FF91FE25BFD4F56
:1023000090E080E070E05191DF0111979B01082E71
:1023100002C0369527950A94E2F72170219525276A
:10232000242325272C9301968330910561F7089586
:102330009C019A9581159F4150F5D901AA27B1704A
:10234000F901EE27F270B90166277470A9014427DC
:10235000587034FF0EC080E1AB2B09F480E0EF2B06
:1023600009F08062672B09F08064452B89F0806852
:10237000089581E0AB2B09F480E0EF2B09F0826037
:10238000672B09F08460452B19F08860089580E080
:10239000089580932D0470932F0460932E048091F0
:1023A0005E048430F9F48093E9008FEF9091E800A7
:1023B000815095FD06C095ED9A95F1F700008111C9
:1023C000F5CF8091E80085FF0DC050E040E063E06C
:1023D00070E08DE294E00E946D048091E8008E77B9
:1023E0008093E8000895BC0184E00E94C91108951B
:1023F000BC0183E00E94C911089524E02093E90004
:102400002FEF3091E800215035FD06C035ED3A95AB
:10241000F1F700002111F5CF2091E80025FF0BC056
:1024200050E040E066E070E00E946D048091E800BA
:102430008E778093E8000895CF93DF93D82FC92F2C
:10244000809113018823C1F180912B0487FF34C050
:1024500060E284E08093E9008FEF9091E800815082
:1024600095FD06C095ED9A95F1F700008111F5CF25
:102470008091E80085FF1DC08091130170E050E05D
:1024800040E0811104C050E040E068E070E08D2F32
:102490009C2F0E946D048091E8008E778093E80065
:1024A00080E2ED2FFC2FA3E3B4E001900D928A951A
:1024B000E1F7DF91CF91089568E081E0CBCF81E033
:1024C0008093E00080E28093D8001092C9008FE1F1
:1024D0009EE40197F1F700C0000087E090EBDC017B
:1024E0008093960490939704A0939804B0939904D2
:1024F00088E19CE00FB6F894A895809360000FBE29
:1025000090936000FFCF239A35B1377F25B12860C3
:102510004FB7F8948CE993E0FC010196508168E094
:1025200025B9000000C057FF35B9550F000000C0A5
:1025300000C000C035B900C06A9591F754E08A31F7
:10254000950751F74FBF8FE594E00197F1F700C071
:1025500000000895CF93DF93C7EAD1E060E0CE0199
:102560000E94E3322196C11584E0D807B9F7DF91C4
:10257000CF9108951F93CF93DF93962F122F632F40
:102580008430D8F49430C8F44C30B8F4C42FD0E080
:10259000CC0FDD1F28E1929FC00DD11D112490E6C4
:1025A000899FC00DD11D1124CE0187960E94E33270
:1025B000612FCE0188960E94E332DF91CF911F9167
:1025C00008958F929F92AF92BF92CF92DF92FF9227
:1025D0000F931F93CF93DF9380901A0490901B0466
:1025E00081E090E090931B0480931A04B12CA12CFD
:1025F00000E0650110E013C0FE01259134914F2DDC
:10260000612F802F0E94BA122296F3948CE0F81268
:10261000F3CF8CE0C80ED11C1F5F143039F0E601F7
:10262000CC0FDD1FC357DA4FF12CE6CF0F5F80E3ED
:10263000A80EB11C0430E9F690921B0480921A0493
:10264000DF91CF911F910F91FF90DF90CF90BF90BE
:10265000AF909F908F900895CF93C82F6FEF811107
:1026600069EB83E290E00E94E3326FEFC11169E50C
:1026700084E290E00E94E3326FEFC11164EF85E2E3
:1026800090E00E94E332CF91089580E00E942C13E5
:1026900060E086E290E00E94E3320E94E1120E9434
:1026A000AA1281E00E942C130895CF93682FC92F9E
:1026B00084E090E00E94E3326C2F82E290E00E947E
:1026C000E332CF9108950F931F93CF93DF9384301C
:1026D00030F5643020F54C3010F5C42FD0E0CC0F2D
:1026E000DD1F28E1629FC00DD11D112430E6839FBC
:1026F000C00DD11D1124CE0187960E94C532082F2E
:1027000010E0102F0027CE0188960E94C532980154
:10271000282BC901DF91CF911F910F91089590E06F
:1027200080E0F8CF462F672F20911E0430911F04C0
:10273000232B91F4703F39F4403F71F480911C04D5
:1027400090911D040895843038F4743028F44C308E
:1027500018F40E946313089580E090E00895B0E0BB
:10276000A0E0E5EBF3E10C94EB317C0100919504E2
:102770008091C002082BC7E0D0E010E0DC2EC80139
:102780000C2E02C0959587950A94E2F780FD09C04A
:102790002197A0F7D12C8D2DCDB7DEB7E7E00C94B3
:1027A0000732B7018C2F0E9492130E94840F019769
:1027B00079F3F1CFCF93DF93D82FC92F0E94AF13B6
:1027C0006D2F7C2F0E9492130E94840FDF91CF9176
:1027D0000895FC01808191810E94DA13282F92953F
:1027E0009F70963091F060F4925F9F70923030F459
:1027F00081E0203F81F030F4283E30F080E0089501
:102800009A5FF3CF243FD1F7089581E0283EE0F3AB
:10281000213FA1F7F9CF089583E290E00E94C532ED
:10282000893B89F484E290E00E94C532893559F4ED
:1028300085E290E00E94C53291E0843F09F090E08B
:10284000892F8170089580E0FCCFCF9384E090E0E1
:102850000E94C532C82F82E290E00E94C532982FB4
:102860008C2FCF9108951F93CF93DF93EC01FC0140
:10287000E050FE4F80816823B1F00E947F32182F14
:102880000E947F32782F7F7720E8720F08F47FEF65
:10289000612F809166040E94CA0A462F672F282F55
:1028A000CE010E945709DF91CF911F910895B0E0AA
:1028B000A0E0EDE5F4E10C94EB31EC01FC01E0501B
:1028C000FE4F8081682349F1D09065040091660431
:1028D00010916404E12EF12C0E947F32282FC70151
:1028E0008C549F4F68E671E00E94BF318E199F099A
:1028F00097FD039695958795959587952370612FFC
:10290000289F600D11247D2D802F0E94CA0A462F1A
:10291000672F282FCE010E945709CDB7DEB7E7E019
:102920000C940732B0E0A0E0E8E9F4E10C94E73160
:10293000182F80911101811323C09091630493702B
:102940002091100130E081E09217130609F480E035
:1029500081708093160180916804909115019817F9
:1029600039F08093150140E060E080E00E94540956
:10297000193260F4E12FF0E0E459FC4C0C94D331AF
:1029800081E0E6CF80911601811102C0C0E098C1BC
:1029900040E060E080E00E945409F8CFC09114014B
:1029A00089E0C89FC02D112409E00C0FC02E0B3206
:1029B00010F09AE2C92E60916404709165048091D0
:1029C00066040E94CA0AF62EE72ED82ED0E0CC1557
:1029D00028F0C1E00A3208F473C1D8CFFE01E050FC
:1029E000FE4F808190911501892331F02D2D4F2DBF
:1029F0006E2DCE010E9457092196E9CFC091140196
:102A000089E0C89FC02D112409E00C0F902E0B32D5
:102A100010F08AE2982EB0906504C0906604D091C0
:102A200064046D2F7B2D8C2D0E94CA0AF62EE72E92
:102A3000D82E609167046D0F7B2D8C2D0E94CA0AE1
:102A4000C62EB72EA82ED0E0C91518F6FE01E0500C
:102A5000FE4F908180911501892359F02A2D4C2D2C
:102A60006B2D90FD03C02D2D4F2D6E2DCE010E949C
:102A700057092196E9CFC091140189E0C89FC02D64
:102A8000112409E00C0FE02E0B3210F0DAE2ED2EEB
:102A9000D0906504C090660420916704B0E4FB2EDA
:102AA0003F2D329F312D1124F32ED0E0CE1508F0AA
:102AB00090CFFE01E050FE4F808190911501892357
:102AC000B9F0FE01EE0FFF1FE458FE4F81A9829579
:102AD0008F70609164048F9D600D11247D2D8C2D6D
:102AE0000E94CA0A462F672F282FCE010E9457093D
:102AF0002196DCCFC091140189E0C89FC02D11241C
:102B000009E00C0FE02E0B3210F07AE2E72ED090A5
:102B10006504C09066042091670460E4F62E3F2DA2
:102B2000329F312D1124F32ED0E0CE1508F051CF75
:102B3000FE01E050FE4F8081909115018923D9F06C
:102B4000FE01EE0FFF1FE458FE4F60A9F69EB00194
:102B5000112455E0759567955A95E1F780916404C5
:102B6000680F7D2D8C2D0E94CA0A462F672F282FB3
:102B7000CE010E9457092196D8CFC091140189E057
:102B8000C89FC02D112409E00C0FC02E0B3210F08D
:102B90003AE2C32EF0906404D0916504E09066049C
:102BA0006091670466956695669580915F04909143
:102BB00060040E94C00A0E94250A90E8980F97FDC1
:102BC0009195990F292F3E2D239F212D11246F2D93
:102BD0007D2F822F0E94CA0AF62EE72ED82ED0E033
:102BE000CC1508F0F6CEFE01E050FE4F80819091AA
:102BF0001501892331F02D2D4F2D6E2DCE010E9410
:102C000057092196EDCF8BE299E00E94630C07C033
:102C100084E099E0FACF87E09AE00E947D0DC82F0A
:102C20004FC088EE99E0F9CF8DEC99E00E94100D2D
:102C3000F6CF82EB99E0FACF82E099E0E6CF89EF18
:102C400098E0E3CF80EF98E0E0CF87ED98E0DDCF2C
:102C500089EC98E0EBCF87E99AE0DFCF81EA99E051
:102C6000DCCF8DE899E0E2CF8CE998E00E94AE0CD1
:102C7000D6CF8EE698E0FACF86E398E0F7CFC09102
:102C80001601C11135C06091670420E1620F08F49C
:102C90006FEF80915F04909160040E94C00A6AE027
:102CA00070E00E94AB31892B09F070CE0E947F3218
:102CB0006AE270E00E94BF31609115010E945714D2
:102CC000809114018F5F80931401C1110CC082E0C8
:102CD0008093120180911601811105C0111103C06A
:102CE00083E080931201CDB7DEB7EBE00C940332A2
:102CF000C091140189E0C89FC02D112409E00C0F78
:102D0000802F0B3208F08AE2D0E0E82EF12CCE15AD
:102D1000DF050CF05ECE60911501CE010E945714C4
:102D20002196F5CFC0911601C1111EC060916704B4
:102D300020E1620F08F46FEF80915F0490916004CE
:102D40000E94C00A65E070E00E94AB31892B09F057
:102D50001DCE0E947F326AE270E00E94BF31609116
:102D600015010E943314ACCFC091140189E0C89FB3
:102D7000C02D112409E00C0F802F0B3208F08AE2DD
:102D8000D0E0E82EF12CCE15DF050CF022CE6091BC
:102D90001501CE010E9433142196F5CFC091140184
:102DA00089E0C89FC02D1124D9E0DC0FDD2EDB3275
:102DB00010F02AE2D22EE0906504F09066040091B3
:102DC00064046091670466956695669580915F04DA
:102DD000909160040E94C00A0E94250A90E8980F12
:102DE00097FD9195990F692F2CE0629F612D112419
:102DF000600F7E2D8F2D0E94CA0A062FF72EE82E17
:102E0000AC2EB12CAD1428F0C1E0DA3208F458CF62
:102E1000BDCDF501E050FE4F8081909115018923D1
:102E200031F02E2D402F6F2DC5010E9457093FEF25
:102E3000A31AB30AE7CF84E49AE0E7CE85E298E0EC
:102E4000E4CE8EE198E00E94F00BE9CE88E198E0B4
:102E5000FACF2091690431E0231B08F420E06EEFE3
:102E600077E0822F03C06EEF77E080E00E944E0B88
:102E7000D6CE2091690431E0231B08F420E065ECF4
:102E800077E0EFCF65EC77E0F0CF2091690431E097
:102E9000231B08F420E063E977E0E3CF63E977E000
:102EA000E4CF2091690431E0231B08F420E06BE7B4
:102EB00077E0D7CF6BE777E0D8CF2091690431E096
:102EC000231B08F420E064E677E0CBCF64E677E0EC
:102ED000CCCFC091140189E0C89FC02D112409E016
:102EE0000C0FF02E0B3210F09AE2F92ED0E0CF1535
:102EF00008F06FCDFE01EE0FFF1FEC0FFD1FE1513B
:102F0000FD4F6081718182810E94CA0A462F672F1E
:102F1000282FCE010E9457092196E9CF46E050E0C4
:102F20006CE170E083E694E00E94D33210929B0340
:102F300008958F929F92AF92BF92CF92DF92EF92BD
:102F4000FF921F93CF93DF93809196039091970305
:102F5000A0919803B09199032FB7F894809027041B
:102F600090902804A0902904B0902A042FBF7501E6
:102F70006401C81AD90AEA0AFB0A2FB7F8944091EB
:102F80002704509128046091290470912A042FBFCE
:102F9000409396035093970360939803709399031B
:102FA00010916D03EDE6F3E0C12FD0E00197AF4F34
:102FB000BF4F88199909AA09BB091D132DC0C093D9
:102FC0006D0380919A0381113AC090916304892F17
:102FD000837019F0892F8695869590911201923011
:102FE00009F440C070F591113AC010921401409359
:102FF0005F0450936004609361047093620489E2FB
:10300000EDE6F3E0A9E6B4E001900D928A95E1F7D0
:1030100081E08093120117C0218D328D4901B12CBE
:10302000A12C88159905AA05BB0520F4C150DF5FC6
:103030003296C3CF2C0D3D1D328F218FF8CF80E00B
:10304000CCCF9330D1F0DF91CF911F91FF90EF90D3
:10305000DF90CF90BF90AF909F908F9008950E9487
:103060009214F1CF80931101809163048370809357
:1030700010010E94831283E0CCCF80919B038111C9
:103080000E948E1740915F0450916004609161042A
:10309000709162042FB7F8948091270490912804CE
:1030A000A0912904B0912A042FBF841B950BA60B75
:1030B000B70B4097A105B10530F210921201C3CFB2
:1030C000E3E6F4E085E38083809117019091180195
:1030D000A091190181839283A3838FE784838FEF6B
:1030E00085830E948E170895A8E0B0E0EAE7F8E132
:1030F0000C94E4318E010F5F1F4F88E0F8011192AC
:103100008A95E9F795E5E92E91E0F92E680129E520
:10311000622E21E0722E88248394912CF7018191F4
:103120007F018F3F09F446C0F894E82FE295EF70D5
:10313000F0E021A18F70A40102C0440F551F8A95B1
:10314000E2F7CA01922F982B91A392A1809589232F
:1031500082A3789400C0E9E5F1E021E030E0B12CF1
:10316000A12C41914F3F09F478C0A42FA295AF70D4
:10317000B0E090968C9190E04F7002C09595879545
:103180004A95E2F780FD69C0C901A82AB92A220F31
:10319000331F51E0E536F50721F7F70131978081BC
:1031A0008F3F11F00E94280F80EA8A95F1F7F6010F
:1031B000B182A082F2E0CF0ED11C6E147F0409F020
:1031C000ADCF48E050E0B80184EC92E00E94983224
:1031D0009C01FF24F394892B09F4F12C232B09F48F
:1031E0003FC088E0F801A4ECB2E001900D928A950E
:1031F000E1F781E08093C3020E94D6059093C2025A
:103200008093C1028091C1029091C2020E94C705C1
:10321000059750F18091C4029091C5029093DB0212
:103220008093DA028091C6029091C7029093DD02EA
:103230008093DC028091C8029091C9029093DF02D2
:103240008093DE028091CA029091CB029093E102BA
:103250008093E0021092C30207C090E080E095CF17
:103260008091C3028111CECF8F2D2896EEE00C9471
:1032700000328091BC029091BB02892B80932C027A
:103280008091BF02882329F10E94D6052091BD02BA
:103290003091BE02821B930B8838934110F00E943C
:1032A0000A1180912C029091BF02892B80932C02ED
:1032B000809113018823E1F180912B0487FF38C0AE
:1032C0008EE1EEE2F2E090E08150A0F591110E94D3
:1032D0000A1140E250E06BE972E08CE292E00E9459
:1032E0009832892B21F180E2ECE2F2E0ABE9B2E026
:1032F00001900D928A95E1F7E0912204F091230468
:103300003097A9F080911301882359F080912B0404
:1033100087FF07C080912C0280932D0286E0809366
:103320002C020280F381E02D8CE292E00995089551
:1033300086E0C7CF2191222339F29F5FC5CF90E06D
:1033400080E00E945A0690E080E00E9444061092BD
:10335000BB020E94391986E0E9EEF2E0DF011D921E
:103360008A95E9F71092E3021092E2021092E402C9
:103370000E94D30D0895809395040E949F1908958B
:1033800080919504982F9670963021F488600E9461
:10339000BB190895877FFBCF21E030E001C0220FE9
:1033A0008A95EAF720958091950482230E94BB19A3
:1033B000089590919A028095892380939A02282FEC
:1033C000277091F4282F082E000C330B9217130648
:1033D00059F090912C0492FF07C0859585958595AD
:1033E0000E94CC190E941D11089590912C0492FB0B
:1033F000222720F9281769F080FB92F990932C047A
:1034000080912B0490912C040E94551382E00E941D
:10341000D919089521E030E001C0220F8A95EAF71A
:1034200080919504822B0E94BB19089590912C04E1
:1034300092FF10C098E0899F90011124622B609345
:103440009A020E940A1A0E94D605909399028093CC
:10345000980208950E940A1A08958093C0020E945B
:103460009F1908951092BC0280911301EEE2F2E0E0
:10347000882361F080912B0487FF08C08EE1DF0173
:103480001D928A95E9F70E949F19089586E0F7CF6B
:10349000AAE2B0E0EEE4FAE10C94EF3186E594E0C4
:1034A000FC0101962091F100208324E08E359207E3
:1034B000B9F780915704893009F456C0C8F48230B6
:1034C00009F4B3C0833009F482C0813071F1809176
:1034D000E80083FF92C280915604909157049A307D
:1034E00008F08BC2E92FF0E0EB56FC4C0C94D33182
:1034F0008A3009F489C08B3051F7809156048132AB
:1035000031F780915A0490915B04892B01F78091E7
:10351000E800877F8093E8000E94BD0480915804F2
:10352000809313010E94321AD2CF80915604813ABF
:1035300071F68091E800877F8093E80080915A04BB
:1035400090915B04892B61F460E283E394E070E086
:103550000E9469058091E8008B778093E800B7CFDF
:1035600060E090E080E0F3CF80915604813209F072
:10357000AECF80915A0490915B048D7F892B09F026
:10358000A6CF8091E800877F8093E8008091E800D3
:1035900082FF18C09091F3008091F200029731F4FD
:1035A0008091F100813011F0863021F48091F1009A
:1035B000809332048091E8008B778093E8000E942A
:1035C000BD0485CF80915E048111E0CF80CF8091D2
:1035D0005604813A09F07BCF80915A0490915B04A4
:1035E000892B09F074CF8091E800877F8093E800F1
:1035F0008091E80080FFFCCF809113018093F1005F
:103600008091E8008E77D9CF80915604813209F0FD
:103610005ECF8091E800877F8093E8000E94BD0420
:10362000809159048093310452CF80915604813A9D
:1036300009F04DCF8091E800877F8093E80080916A
:10364000E80080FFFCCF80913104D8CF803899F01A
:10365000823809F0D2C180915A048F70873008F007
:10366000CCC18093E9008091EB0085FB882780F92D
:103670001092E90006C08091530490915404911176
:1036800082609091E800977F9093E8008093F1002A
:103690001092F1008091E8008E77ABC1882309F485
:1036A00099C1823009F0A9C18091580481119CC14F
:1036B00080915A048F702FEF280F263008F09DC19B
:1036C0008093E9002091EB0020FF8EC1933031F40C
:1036D0008091EB0080628093EB0086C19091EB00BB
:1036E00090619093EB0021E030E001C0220F8A95B9
:1036F000EAF72093EA001092EA008091EB008860DC
:10370000EACF81117AC1109158041F778091E300AC
:103710008078812B8093E3008091E800877F8093FD
:10372000E8000E94BD048091E80080FFFCCF8091FA
:10373000E30080688093E30082E0111183E08093CE
:103740005E045BC18058823008F057C14091580434
:10375000509159044C3D83E05807A1F583E08A83DA
:103760008AE289834FB7F894DE01139620E03EE0A9
:1037700051E2E32FF0E050935700E49120FF03C0A3
:10378000E295EF703F5FEF708E2F90E0EA30C0F06F
:10379000C7968D939D932F5F243159F74FBF80912A
:1037A000E800877F8093E8006AE270E0CE0101962E
:1037B0000E9469058091E8008B778093E8001DC125
:1037C000C096E7CF80915A0490915B04252F332750
:1037D0002330310509F44AC078F52130310509F468
:1037E00086C08BE590E0EDE0F7E02230310509F08E
:1037F00004C12091E800277F2093E80020915C0419
:1038000030915D048217930708F49C0140E0211574
:10381000310509F071C041116FC08091E80082FD4F
:10382000C9CF80915E04882329F2853019F28091F6
:10383000E80083FFF2CFBECF2132310509F448C042
:103840002232310509F0D9C08330910508F0D5C086
:10385000FC01EE0FFF1FE059FE4F0190F081E02DBB
:1038600083599E4FDC018C9190E026C0CA019927B4
:10387000423031F18330910568F40097B1F001973F
:1038800009F0BBC0E2EBF7E0E4918E2F90E0E2EBB1
:10389000F7E012C0039709F0B0C0EAE7F7E0E4915F
:1038A0008E2F90E0EAE7F7E007C0E2ECF7E0E49162
:1038B0008E2F90E0E2ECF7E0009709F49EC099CFDC
:1038C000E8E9F7E0E4918E2F90E0E8E9F7E0F4CF43
:1038D0008330910508F091C0880F991FFC01EA58C8
:1038E000FE4F0190F081E02D89E090E082CF82E1EF
:1038F00090E0E8E6F7E07DCF80915E04882309F44C
:1039000059CF853009F456CF8091E80083FD52CF1E
:103910008091E80082FD81CF8091E80080FF77CF21
:103920009091F3008091F2002115310519F0883053
:10393000910550F041E0089709F040E08091E800DF
:103940008E778093E80063CF44914093F1003196E5
:10395000215031090196E8CF803809F04EC080919E
:10396000E800877F8093E800809155048093F10000
:1039700091CE811142C0109158041230F0F580911F
:10398000E800877F8093E800109355040E94BD04EF
:10399000112311F084E005C08091E30087FDFACF88
:1039A00081E080935E0442E061EC81E00E94DC04EF
:1039B00042E261EC84E00E94DC0442E261EC82E0DD
:1039C0000E94DC0442E260EC83E00E94DC0480910F
:1039D0005E0413C080915804813079F481E0933003
:1039E00009F080E0809354041092E9008091E8008F
:1039F000877F8093E8000E94BD048091E80083FFE8
:103A00000AC08091E800877F8093E8008091EB00F6
:103A100080628093EB00AA96E3E00C940B320E9444
:103A2000321A2FEF84E39CE0215080409040E1F770
:103A300000C0000088E19CE00FB6F894A895809340
:103A400060000FBE90936000FFCF882341F0809507
:103A50009091BB0289238093BB020E94391908957B
:103A6000882339F09091BB02892B8093BB020E947E
:103A700039190895882321F00E9415110E943919DF
:103A80000895882339F09091BC02892B8093BC0261
:103A90000E9439190895882391F19CEF980F913A6B
:103AA00040F4682F8CE292E00E94E2050E943919EE
:103AB000089590E2980F983050F4877091E001C01B
:103AC000990F8A95EAF7892F0E941511EFCF9BE590
:103AD000980F933028F490E080E00E945A060895F1
:103AE00098E5980F973128F490E080E00E94440612
:103AF0000895803F20F00E94F90D0E94D30D089593
:103B0000CF93C82F8823D1F18CEF8C0F813AC0F569
:103B100080911301882311F180912B0487FF1EC02F
:103B2000EC2FE695E695E695F0E0E45DFD4F8281A9
:103B300090E04C2F477021E030E002C0220F331F8D
:103B40004A95E2F782239323892B89F06C2F8CE22C
:103B500092E00E94E2050E94391909C0EEE2F2E00B
:103B60008191C81799F322E0E433F207C9F76C2F6B
:103B70008CE292E00E940E060E943919CF910895BE
:103B800080E28C0F883068F4C77021E030E001C01B
:103B9000220FCA95EAF78091BC02822B8093BC0267
:103BA000EBCF8BE58C0F833038F42C2F2452330B62
:103BB000C9010E945A06E2CFE8E5EC0FE73150F464
:103BC000F0E0EE0FFF1FE95DFE4F808191810E94C2
:103BD0004406D4CFC03F90F28C2F0E94BE0E0E94AC
:103BE000D30DCCCF0F931F93CF93C82F10E000E0DD
:103BF000893311F400E510E08C2F0E94801D01151F
:103C0000110539F48C2F0E944B1DCF911F910F91FC
:103C100008958FE99FE00197F1F700C0000001507F
:103C20001109EDCFFF920F931F93CF93DF93C62F10
:103C3000D42F122FFC0182818823A9F06093940471
:103C40000E94D6059093930480939204C77081E0FC
:103C500001C0880FCA95EAF70E94411DCDB7DEB7B3
:103C6000E5E00C94093280919404681330C080918F
:103C70009204909193040E94C705883C910538F501
:103C800000E20D0FCD17A9F0C770FF24F3948F2D1C
:103C900001C0880FCA95EAF70E943A1D083048F41F
:103CA0008D2F877001C0FF0C8A95EAF78F2D0E9437
:103CB000411D812F0E94F21D083080F6D77081E0EF
:103CC00001C0880FDA95EAF70E943A1DC7CFC77086
:103CD00081E001C0880FCA95EAF7F6CFB0E0A0E016
:103CE000E4E7FEE10C94EB31E82FF0E0E650FE4F04
:103CF000D490282F26952695269530E0F901E65197
:103D0000FE4F0491877010E0082E02C015950795AC
:103D10000A94E2F701701127F901E652FE4FE49090
:103D2000F12C082E02C0F594E7940A94E2F791E092
:103D3000E922FF24F901E653FE4FC491D0E002C00E
:103D4000D595C7958A95E2F7C170DD270115110554
:103D500019F081EE0E94801DE114F10419F086EE45
:103D60000E94801D8D2D0E94F21DE114F10419F0B6
:103D700086EE0E944B1D0115110519F081EE0E947F
:103D80004B1DCD2B19F08CE20E94F21DCDB7DEB792
:103D9000E7E00C9407321F93CF93DF93EC011AE016
:103DA0008881882309F43EC08130C9F599818A81D0
:103DB000913029F422960E94F21D2196F1CF923083
:103DC00021F422960E94801DF8CF933021F4229690
:103DD0000E944B1DF2CF943011F02196EECF229627
:103DE00030E020E0AE014F5F5F4F8053990B8A3087
:103DF000910550F02150310900F38FE99FE00197C0
:103E0000F1F700C00000F6CF129FB001139F700DB4
:103E100011249C01260F371F8981EA01E3CF0E94FC
:103E20006E1ECBCFDF91CF911F91089590E080E07F
:103E30000E94CD32883E9E4F19F40E940C140895C2
:103E400080E0089568EE7EEF90E080E00E9401330C
:103E500060E082E090E00E94E33260E083E090E086
:103E60000E94E3321092C00260E084E090E00E9481
:103E7000E33264E082E290E00E94E33260E085E0B9
:103E800090E00E94E33260E086E090E00E94E3323E
:103E90006FEF87E090E00E94E33240E050E0BA012B
:103EA00088E090E00E94F53260E08DE090E00E94B2
:103EB000E33240E050E0BA0188E190E00E94F53240
:103EC00060E087E190E00E94E33240E050E0BA0118
:103ED0008CE190E00E94F53270E060E080E290E0DA
:103EE0000E94013340E050E0BA0188E190E00E9476
:103EF000F53280E00E942C130E94451340E050E010
:103F0000BA018FE090E00E94F53240E050E0BA0143
:103F100083E190E00E94F5320895A5E0B0E0E3E986
:103F2000FFE10C94E5317C01FC0183819481892BB4
:103F300031F08081918189238F3F09F08CC52596CE
:103F4000EDE00C9401320E94AF13182F682F898185
:103F50009A810E94621169817A81812F0E94921355
:103F60008C01F7018281882309F443C5980122510D
:103F70003F452031310508F0F6C48FEF93E00E94F1
:103F8000C5328111B3C0025157EAA52EBB24B394A8
:103F900001113DC080911A0190911B01A0911C015B
:103FA000B0911D0189839A83AB83BC830FEF4501D8
:103FB0003FEF831A930AC5010E94C53289831A8292
:103FC000882309F493C0813009F081C0650182E043
:103FD000C80ED11CC4010E94C532182F8A838823C1
:103FE00009F484C0C6010E94C532982E8FEF810F5C
:103FF0008330E0F4650193E0C90ED11C9B829920C7
:1040000021F0CE0101960E94CB1E5601D0CFA11403
:10401000F4E0BF0609F46AC0C5010E94C5328111EF
:1040200001C001502FEFA21AB20AB2CF8BEF810F5D
:10403000833038F5C50103969B826C01992029F3E2
:104040006501E4E0CE0ED11C0E94C5328C8388232A
:10405000E1F2AB80BC80F1E0AF16FFEFBF0610F0DD
:10406000BA2CAA24163049F0173019F0C5010E9465
:104070002B28C5010E94F327C8CFC5010E942B2819
:10408000C4CF143011F6650124E0C20ED11CC50165
:1040900003960E94C532282F992041F1882331F1DF
:1040A0002150330B029FA001039F500D1124E92DD5
:1040B000E150FF0BCF01840F951F019708F4A5CFA6
:1040C000EFE9FFE03197F1F700C00000F6CFCE0135
:1040D00001960E94CB1E640198CF81E00E940A1ACB
:1040E00003C081E00E94CC190E94C01980919A02FD
:1040F000877009F424CFF7018281882309F41FCF48
:1041000080912C0482FF1BCF82E00E94D91917CF27
:1041100082E0E4CF82E0E6CF9091BC029111E6CF3D
:104120008111E4CF0AE712E03AE0B32EF80184915E
:104130008823E1F2813009F04FC06801FFEFCF1A08
:10414000DF0AF6018491813061F46801F2E0CF0E5C
:10415000D11CF60184910E94F21D86010F5F1F4F52
:10416000E5CF823049F46801F2E0CF0ED11CF601B0
:1041700084910E94801DF1CF833049F46801F2E000
:10418000CF0ED11CF60184910E944B1DE6CF8430E6
:1041900021F76801F2E0CF0ED11CF601249190E0E6
:1041A00080E0F60131962053330B2A30310548F078
:1041B000019798F2EFE9FFE03197F1F700C00000B6
:1041C000F7CFB89EA001B99E500D1124C901840FEC
:1041D000951F24916F01E5CF0E946E1E6801BDCF2F
:1041E000053FFCE51F07A9F0063F2CE51207A9F0E3
:1041F00027E245EE64EE043F3CE5130709F427C4CB
:10420000C8C327E245EE65EE22C426E241EE60EE29
:104210001EC426E241EE62EE1AC427E245EE66EEC7
:1042200016C4C8018A5F9C45099708F4C9C30631C2
:104230002CE51207B9F48091BC028A7A91E009F466
:1042400090E090934C0269E2811165E38CE292E088
:104250000E940E060E94391949CF053A9DE51907BB
:1042600009F4AEC30B35FDE51F0709F024C180E05A
:1042700053C1F801E350FC4580912B048160E33188
:10428000F10538F5E156FC4C0C94D33103302DE5A3
:10429000120778F40A3F3CE5130708F4A1C3F801BC
:1042A000EB5FFC45E830F10518F5EE54FC4C0C943E
:1042B000D33101368DE5180709F497C090912B048E
:1042C000892F8E7F90FF8160053A9DE5190709F0DF
:1042D00087C380932B0484C380912B048260F9CF21
:1042E00080912B048460F5CF80912B048860F1CFFE
:1042F00080912C04816080932C0472C380912C04E3
:104300008260F9CF80912B048061E3CF80912B04F0
:104310008062DFCF80912B048064DBCF0E94321A51
:1043200080912B048068D5CF80912B048C60D1CFF5
:1043300080912C048360DFCF80912B048E7FC9CFC6
:1043400080912B048D7FC5CF80912B048B7FC1CFB3
:1043500080912B04877FBDCF80912C048E7FCBCFA3
:1043600080912C048D7FC7CF80912B048F7EB1CF9D
:1043700080912B048F7DADCF80912B048F7BA9CFB3
:104380000E94321A80912B048F77A3CF80912B0447
:10439000837F9FCF80912C048C7FADCF80912B04A5
:1043A00082FB992790F921E0922790FB82F990FBFC
:1043B00083F98FCF80912C04982F909591708E7FE8
:1043C000892B90FB81F997CF0E94321A90912B0490
:1043D000892F97FB87F980587CCF61E08EE090E0D1
:1043E0000E94E332FDC260E0F9CF90912B04892F47
:1043F0008F7E94FF80616DCF023CECE51E0708F4D0
:1044000055C3F801E35CFC45E331F10520F4E654C3
:10441000FC4C0C94D3318091630491E08927809304
:1044200063041092120180919B03816080939B032F
:104430005DCE42E357E06FE377E00E947D0656CE03
:104440004FE357E062E377E0F8CF42E057E06DE0FA
:1044500077E0F3CF4DE057E062E077E0EECF46EE55
:1044600056E064EF76E0E9CF44EF56E066EE76E0A2
:10447000E4CF4AEC56E068ED76E0DFCF48ED56E059
:104480006AEC76E0DACF4AE956E068EA76E0D5CF22
:1044900048EA56E06AE976E0D0CF61E081E00E9428
:1044A000180724CE61E085E0FACF61E08DE0F7CF18
:1044B00061E082E1F4CF0C352DE51207C8F40E3D22
:1044C0003CE51307F9F00A358DE5180741F10115B0
:1044D0001C4509F0EBC20E94321A2FEF34E38CE046
:1044E000215030408040E1F700C000000E945F1280
:1044F0000C35EDE51E0749F0073A1D4509F0D6C217
:104500000E940F1D0E94221FFBCF80912C0482FB72
:10451000882780F991E089270E94F519C7C281E0B8
:10452000FBCFC6010E942E11182FCFC2F12FFF70B2
:10453000AF2E107F19F0A29490EFA922802F99201E
:10454000B9F0AA2069F090E2900F983010F00111B4
:1045500009C08091BC02A82AA092BC020E9439190D
:10456000802F49C08091BB02A82AA092BB02F6CF3F
:104570000E944B1DAA2009F440C0005E083010F0D4
:10458000711004C08A2D0E94151106C0A09480915C
:10459000BB02A822A092BB020E9439192EC0212F73
:1045A0002F70A22E107F103219F0A29480EFA82253
:1045B000772089F031E0731609F492C0992009F44C
:1045C0009BC0882009F468C0F701858180FFC8CFAF
:1045D0008F70858361C080912C0482FD36C0992044
:1045E00071F1AA2039F08091BC028A298093BC0223
:1045F0000E94391980E00E94801D98E0C91AD108F4
:10460000E4E0CE16D10410F40E947006BB2009F439
:1046100096CC80919A0280FD92CCF701128285950A
:10462000859585950E940A1AC7010E948D1F809169
:104630009A028595859585950E94CC1980CC80E05D
:104640000E944B1DAA20C9F29DCF992049F18110EB
:1046500004C08091BF028A2920C091E0891210C055
:1046600082FFCBCF8091BF02A82AA81631F20E9408
:10467000D6059093BE028093BD02A092BF02BDCF2B
:10468000E5E08E12E6CF0E940A1190914D028A2D2C
:10469000892B891380934D028A2D0E94411DADCF35
:1046A000811003C00E940A1112C0F1E08F1213C0E2
:1046B0008091BC028A2109F4A0CF0E940A11909136
:1046C0004D028A2D80958923891380934D028A2D6E
:1046D0000E943A1D92CF25E0821609F48ECFE2CFD8
:1046E000992029F035E0381508F487CFD5CF84E03C
:1046F000881508F482CFEBCF882049F3093349F4B9
:10470000FFEF27EE33E0F15020403040E1F700C0EA
:104710000000802F0E944B1D70CF812F86958695BB
:10472000837061F0813009F068CFC80193709110F7
:1047300002C090E080E00E9444065FCFC801937001
:10474000911002C090E080E00E945A0656CF802F60
:10475000992029F00E94BE0E0E94D30D4ECF0E94D8
:10476000F90DFACF812F837091F5911046CF402F2C
:10477000429546954770440F440F802F8F70042E4A
:1047800001C0880F0A94EAF7202F207104FF07C0A8
:104790002FE030E001C0220F4A95EAF720951695E8
:1047A00016951370123071F0133051F03091C00231
:1047B000113029F0822B83230E942D1A1ECF832BC8
:1047C000822BFACF282B8091C0028227F5CF8695C5
:1047D000992011F0812F8170882309F40ECF402F8A
:1047E000429546954770440F440F802F8F70042EDA
:1047F00001C0880F0A94EAF7202F207104FF07C038
:104800002FE030E001C0220F4A95EAF72095169577
:1048100016951370123071F0133051F030919504E9
:10482000113029F0822B83230E94BB19E6CE832B03
:10483000822BFACF282B809195048227F5CF1F7009
:10484000992029F0812F0E940A1A802F26CF802FCD
:104850000E943A1D812F0E94CC19CFCE802F92EF5B
:104860007916B1F1971570F0E0EF7E16D1F0F1EF07
:104870007F1691F0992009F466C0811071CE812FC6
:104880008F712AC023EF721651F134EF7312F2CFF9
:1048900080912C0482FD2FC0812F8F719920D9F235
:1048A0001BC0992081F084E0881508F4A6CE1F7102
:1048B00081E090E0012E01C0880F0A94EAF7909100
:1048C00095048927B1CF95E0981508F496CEEFCFDF
:1048D000812F8F719110BFCF0E940A1A8ECE80E077
:1048E000992009F4A1CF1F7181E0012E01C0880F2A
:1048F0000A94EAF799CF9920C9F080919A028770BB
:10490000843041F40E941D11812F8F710E94CC19B7
:10491000B12C73CEE4E0E815D8F31F71812F0E940B
:104920000A1A63E0812F0E94161AF2CFF4E0F815FC
:1049300030F40E941D1164E0812F8F71F4CF81E06B
:104940000E94D919E5CF882059F0893309F0E1CECA
:104950002FEF37EE83E0215030408040E1F7D7CE93
:10496000812F8F7178CF0031FFE51F0709F4B5CB98
:1049700001312FE5120709F4CBCB01159CE519078E
:1049800009F045C040E060E084EB0E9454090E94B9
:104990008312F7018281882309F46EC01092940477
:1049A0000136FDE51F0761F008F057CC06313CE504
:1049B000130708F036CC02308CE5180708F452CC07
:1049C0000E94251490932C0480932B040631ECE56F
:1049D0001E0708F05BCC0230FCE51F0708F049CC4D
:1049E00080912B0490912C040E9455130E94321A3E
:1049F0007DCB00313FE5130709F473CB01319FE50F
:104A0000190709F487CB01152CE5120711F20938B3
:104A10003FE5130709F480CB033F2CE5120709F4A7
:104A2000F4CB08F0DDCB083D8CE5180709F4E9CBA1
:104A300028E241E0093D9CE5190709F4E4CB26E2B0
:104A400041EE61EE073DECE51E0709F0A2CFC7017C
:104A50000E94121E4BCB85E0DE01119601900D9253
:104A60008A95E1F7F701228189819A8121116BCA28
:104A70000E942E11182F6FCA06313CE5130751F41E
:104A800080914C0269E2811165E38CE292E00E9420
:104A9000E205E0CB8091BC028272063DECE51E0788
:104AA00008F4AACC0D35100709F420CBF701828158
:104AB000C080D180882309F434CDC6010E94AF1391
:104AC000182F682FC6010E946211B601812F0E9423
:104AD00092130E94840F8C01782EF70192808580BA
:104AE00082942FE0822280919A028770C1F0B92CC3
:104AF0009920B1F0812F807F803421F080E2800FF7
:104B0000883068F080912C0482FF09C082E00E9406
:104B1000D91980919A028770BB24B3948111B12C6A
:104B2000812F82958F70C82ED12C8C3008F065CDE6
:104B3000F601E353FC4C0C94D3311F93CF93DF93D6
:104B400080916502807F09F049C0809162028823CC
:104B500009F444C080919702D0916602609160028E
:104B600070916102A0916302B0916402C62FC723C5
:104B700016E0D81799F190E0109711F0CF3F19F493
:104B800001968770F6CF189F9001199F300D112460
:104B9000F901E959FD4F41814713F2CF4081461396
:104BA000EFCF42814111ECCF438154814A1B5B0B13
:104BB000483C510528F7809165028F708061809391
:104BC0006502F901E459FD4F80818F708061808317
:104BD00080E692E00E948D1F0E942411DF91CF9108
:104BE0001F910895ABE0B0E0E8EFF5E20C94E831F6
:104BF0008C0185E0F801DE01179601900D928A95EF
:104C0000E1F7F801E28080E6A82E82E0B82E6091FC
:104C10006302709164026115710509F40EC19091EF
:104C2000600240916102842F89238F3F09F405C1FE
:104C300020813181C380D480F0906202F601E61BAE
:104C4000F70BFF2009F4C4C080916502582F507FF4
:104C5000E83CF10508F09FC051116BC0FE2C4313D6
:104C600014C0921312C0E11010C08F708061809345
:104C70006502C5010E948D1F80916502F801858340
:104C80008F2D2B96EAE00C940432C114D10429F044
:104C9000822F83238F3F09F0EBC080E0F82FF17063
:104CA000DF2EE09197024091660256E080FD1CC025
:104CB000EE2031F380916502816080936502F12CD2
:104CC000DFCF8E2F90E05E9FF0011124E959FD4F58
:104CD0006181361306C06081261303C06281E6122B
:104CE000E7CFFC013196E770E413EBCF2F833887D1
:104CF0008F8198850E94DA13292F22952F70903288
:104D000060F0225F2F70223078F49F7051F0F8012C
:104D10009581907F31F4D12C0AC09F7011F08823C7
:104D2000D1F3805E8830B8F3C8010E948D1FFD2C3E
:104D3000A7CF431306C0921304C0F801EE2009F474
:104D400061C0C8010E94E913882309F1EE20F9F03F
:104D500080916502803270F0209160023091610292
:104D60003A8329831B82DD82CC828E83CE01019619
:104D70000E948D1F86E0F801A0E6B2E001900D923E
:104D80008A95E1F70E949D25FF24F39479CFC8010D
:104D90000E948D1FF9CF51110AC080E692E00E9457
:104DA0008D1F86E0F50111928A95E9F788CF4313AC
:104DB000C8CF9213C6CFE110C4CFF8018583C801D4
:104DC0000E948D1F86E0F50111928A95E9F758CF70
:104DD000E83CF105B8F7FE2CEE20C9F243131FC0E2
:104DE00092131DC08091650280FD10C0982F907FA6
:104DF00069F0F8018583903F31F0982F907F905FA4
:104E00008F70892B8583C8010E948D1F86E0F80171
:104E1000A0E6B2E001900D928A95E1F731CFC8018A
:104E20000E94E9138111A6CF809165028160809371
:104E30006502C8010E948D1F23CFEE2009F4A7CF81
:104E4000C8010E94E913F82E882309F4A0CF86E058
:104E5000F801A0E6B2E001900D928A95E1F7809109
:104E60006002909161020E94DA130E949D2508CF92
:104E700081E08E2513CFA7E1B0E0E1E4F7E20C94E6
:104E8000EB314B8B5C8B162F6D8B7E8B8F8B611177
:104E90001092BB021A8A85E0FE017396DE011D9610
:104EA00001900D928A95E1F70B89DC88EE88FF88E6
:104EB00080912C0482FF1CC00E94D605209198028C
:104EC00030919902821B930B8838934120F0809196
:104ED0009A0282FF84C00E94D6052091BD023091C3
:104EE000BE02821B930B8838934110F00E940A1176
:104EF0000D87DE861F87F98AE88A86E0FE013D96E7
:104F0000DE01179601900D928A95E1F7CE01079682
:104F10000E94F225882359F016E080919702909123
:104F20006602891349C06796E7E00C94073286E071
:104F3000FE013796DE01119601900D928A95E1F7F8
:104F40004A855B854115510539F37F816885862F38
:104F500087238F3F09F32091660230E0C901019653
:104F600087709927E0919702E817190671F40E945B
:104F7000321A109266021092970286E0E0E6F2E0A2
:104F8000DF011D928A95E9F7C7CF79836A835D8334
:104F90004C8396E0929FD001939FB00D1124A959A4
:104FA000BD4FFE01319601900D929A95E1F78093E5
:104FB00066020E942411B0CF819FC001112489593B
:104FC0009D4F0E94F225882309F4ADCF809197026E
:104FD00090E0019687709927809397029ECF82E098
:104FE0000E94D91978CFA5E0B0E0E9EFF7E20C9480
:104FF000EE318C0190931D0480931C04011580E216
:105000001807C0F4802F0E944B1DC8010E94981100
:105010009801205E31092830310518F0011511057D
:1050200031F40E943A1D2596E4E00C940A320E9465
:10503000251DF9CF80EF89838A831B820E94D605C4
:105040008160782F9D838C8349815A816B818D810A
:105050000E943B27E8CFA5E0B0E0E1E3F8E20C9442
:10506000EE318C0190931D0480931C04011580E2A5
:105070001807C0F4C8010E9498119801205E3109F8
:105080002830310518F00115110549F40E94411D21
:10509000802F0E94801D2596E4E00C940A320E9425
:1050A000301DF6CF80EF89838A8381E08B830E9455
:1050B000D6058160782F9D838C8349815A816B81CD
:1050C0008D810E943B27E7CF1F920F920FB60F9260
:1050D00011242F933F934F935F936F937F938F93FD
:1050E0009F93AF93BF93CF93DF93EF93FF93D091B1
:1050F000E900DF708091EC00C82FC17080FDC0E82E
:105100001092E9008091F000877F8093F0007894FE
:105110000E94481A1092E9008091F0008860809304
:10512000F000CD2BCF70C093E900FF91EF91DF919C
:10513000CF91BF91AF919F918F917F916F915F912F
:105140004F913F912F910F900FBE0F901F90189588
:105150001F920F920FB60F9211242F933F934F93EC
:105160005F936F937F938F939F93AF93BF93EF93CF
:10517000FF938091E10082FF09C08091E20082FFED
:1051800005C08091E1008B7F8093E1008091DA007F
:1051900080FF24C08091D80080FF20C08091DA0079
:1051A0008E7F8093DA008091D90080FF9BC080E1E0
:1051B00089BD82E189BD09B400FEFDCF81E0809305
:1051C0005E0480913004811109C00E941D040E9478
:1051D0000E058091E20084608093E2008091E100FE
:1051E00080FF17C08091E20080FF13C08091E20031
:1051F0008E7F8093E2008091E20080618093E200E4
:105200008091D80080628093D80019BC85E080939B
:105210005E048091E10084FF29C08091E20084FF58
:1052200025C080E189BD82E189BD09B400FEFDCFC2
:105230008091D8008F7D8093D8008091E1008F7E8F
:105240008093E1008091E2008F7E8093E200809164
:10525000E20081608093E20080915504882309F484
:1052600047C084E080935E0480915E048091E100F9
:1052700083FF27C08091E20083FF23C08091E1007B
:10528000877F8093E10082E080935E041092550452
:105290008091E1008E7F8093E1008091E2008E7F1B
:1052A0008093E2008091E20080618093E20042E01E
:1052B00060E080E00E94DC048091F00088608093D0
:1052C000F000FF91EF91BF91AF919F918F917F91EE
:1052D0006F915F914F913F912F910F900FBE0F9063
:1052E0001F90189519BC10925E041092300476CF6E
:1052F0008091E30087FD02C081E0B4CF83E0B2CFAC
:1053000078941F921FB61F9211248F939F93AF938F
:10531000BF938091270490912804A0912904B09113
:105320002A040196A11DB11D80932704909328049F
:10533000A0932904B0932A04BF91AF919F918F91BC
:105340001F901FBE1F9018951F921FB61F92112409
:105350008F939F93AF93BF9380912604811113C0C5
:105360008091270490912804A0912904B0912A04E7
:105370004196A11DB11D8093270490932804A0930A
:105380002904B0932A04BF91AF919F918F911F90F0
:105390001FBE1F901895CDB7DEB7E5970FB6F894EE
:1053A000DEBF0FBECDBF85B7806885BF85B780687B
:1053B00085BF84B7877F84BF0FB6F894A895809186
:1053C0006000886180936000109260000FBE80E8EA
:1053D00090E00FB6F89480936100909361000FBE47
:1053E00086E29FE090932B0280932A020E941D0484
:1053F0000E940E058091E20084608093E200789420
:1054000080915E048823A1F01091E9001F709091B3
:10541000EC00892F817090FD80E8182B1092E90034
:105420008091E80083FD0E94481A1F701093E900E4
:1054300082E084BD93E095BD9AEF97BD80936E00A6
:105440000E940C14811102C00E94451385E90E943C
:10545000280F86E60E94280F86E30E94280F86EC1C
:105460000E94280F09E511E025E6E22E21E0F22E48
:10547000D8018D918D018F3F11F00E94280FE01609
:10548000F106B1F788E0EAEDF2E0DF01282F1D9286
:105490002A95E9F7E4ECF2E0DF011D928A95E9F73D
:1054A0000E94161F811102C00E94221F82E090E01C
:1054B0000E94C5328093CC020E94251490932C0444
:1054C00080932B040E947418EFE3FCE93197F1F705
:1054D00000C000000E9474188091DA0280FF08C0AA
:1054E0006FEF7FEF90E080E00E9401330E945F1237
:1054F00083E090E00E94C5320E942D1A1092690448
:105500008FEF9FEF909383048093820490938504A0
:1055100080938404909387048093860490938904F5
:105520008093880490938B0480938A0490938D04D5
:1055300080938C0490938F0480938E0490939104B5
:105540008093900410926D03909387038093860359
:10555000909389038093880390938B0380938A03AD
:1055600090938D0380938C0390938F0380938E038D
:10557000909391038093900390939303809392036D
:1055800090939503809394030E94161F811104C089
:105590000E94221F0E94601846E050E06CE170E01B
:1055A00083E694E00E94B53210929B0380916304DD
:1055B0008C7F11F40E94601880912B048068809386
:1055C0002B0480912B0490912C040E94551384E0AD
:1055D00091E09093230480932204332433948091A8
:1055E0005E04853089F480E4F82E93E0E92E00E132
:1055F00012E180915E04853009F400C20E94321AE3
:105600000E94700610929A030E947418882359F021
:105610008FB7F89440912704509128046091290491
:1056200070912A048FBF4AED52E059AB48AB8DEC24
:1056300092E09EA78DA70CE7402E01E0502E5AA6BF
:1056400049A6712C612CE8A9F9A981909190F9AB38
:10565000E8ABADA5BEA58D919D91BEA7ADA7881560
:10566000990509F49AC0FC01E825F925FDABECABDE
:10567000F12CE12CCC24C394D12C1297BBABAAAB58
:105680008CA99DA98C219D21892B09F47CC0E982DC
:105690006A8284010C211D2181E00115110509F4A4
:1056A00080E08B830E94D6058160782F9D838C8358
:1056B00049815A816B818D810E943B27AAA9BBA990
:1056C0008D919C9111978C259D258D939C93012BF9
:1056D00041F0E9A5FAA5EE0DFF1D80818F3F09F08D
:1056E000DEC1212C022D10E080916D03800F912FDF
:1056F000911D09976CF1E8E0AE2EB12CA01AB10A09
:10570000B80162597C4FA5018EE693E00E94A53254
:10571000B8016A587C4FA50186E793E00E94A53244
:10572000A501440F551FB801660F771F6A577C4FBC
:1057300086E893E00E94A532B80162587C4FA5012B
:105740008EE793E00E94A53288E0821980936D0372
:1057500080916D0390E0EFA5AE2FB0E09D01220F88
:10576000331F24553E4FAA0FBB1FBD0163557E4F0B
:1057700041E0480F921508F496C180936D0373942D
:10578000EBE0E71530F1CC0CDD1CFFEFEF1AFF0A60
:105790002CE0E216F10409F073CF639449A55AA5F1
:1057A000445F5F4F5AA749A754E065124CCF711070
:1057B00010C08FEF89838A831B820E94D605816087
:1057C000782F9D838C8349815A816B818D810E94C2
:1057D0003B270E94991786E0E9EEF2E0DE01119680
:1057E00001900D928A95E1F71092EB021092EC0273
:1057F0001092ED021092EE028B819C81892B09F4AC
:105800004AC08091E7029091E8020E94C7059C017E
:105810008091E302882309F499C525313105D8F137
:105820008F3F19F08F5F8093E3021B81112359F0A2
:105830000E949E0E9FEF11160CF491E0899F802D1F
:1058400011248093EB021C81112359F00E949E0EBB
:105850009FEF11160CF491E0899F802D1124809305
:10586000EC023091EB023323B1F02091EC022223C1
:1058700091F045EB3403C0011124992309F429C1A7
:105880009093EB0255EB250390011124332309F487
:1058900023C13093EC028D819E81892B09F44AC08B
:1058A0008091E5029091E6020E94C7059C018091DB
:1058B000E202882309F445C521353105D8F18F3F2F
:1058C00019F08F5F8093E2021D81112359F00E942D
:1058D0007C0E9FEF11160CF491E0899F802D11240E
:1058E0008093ED021E81112359F00E947C0E9FEFE0
:1058F00011160CF491E0899F802D11248093EE0203
:105900003091ED023323B1F02091EE02222391F089
:1059100045EB3403C0011124992309F4E0C09093AE
:10592000ED0255EB250390011124332309F4DAC06D
:105930003093EE0246E050E0BE016F5F7F4F89EE8C
:1059400092E00E949832892B61F48091EB02909151
:10595000EC02892B9091ED02892B9091EE02892B1C
:1059600011F00E94D30D86E0FE013196A9EEB2E05F
:1059700001900D928A95E1F70E9470069091D502F0
:1059800089138093D50280915E04843009F027CE7C
:1059900083E08093E9008091E80082FF20CE80912F
:1059A000E80090E085FF06C00E943C04882309F4CB
:1059B0009CC091E08091E8008B778093E800992368
:1059C00009F40DCE00911E0410911F04E981011508
:1059D000110509F4A6C0EE3F09F0DAC08A818330D0
:1059E00020F08550833008F0D3C0EA81EE3008F013
:1059F000CFC0F0E0E752FC4C0C94D33180915E04B0
:105A0000843009F439C00E94991780919A0381115A
:105A10000DC00E9492141092110180916304837052
:105A2000809310010E948312E0921201F1E0F09342
:105A30009A031092260428E130E00FB6F894A89556
:105A4000209360000FBEF092600083B7817F846076
:105A500083BF83B7816083BF7894889583B78E7F37
:105A600083BF0FB6F894A8958091600088618093F9
:105A70006000109260000FBE80915404882309F4E6
:105A8000B8CD0E947418EAEDF2E081919191892BD2
:105A900009F039C432E0E23EF307B9F7AACD8FA787
:105AA000222423941FCE90E0FC01E359FC4FD9013E
:105AB0005C915183DB015C915187BFA5B18B880F4D
:105AC000991FFC01E359FC4F128E118E842F91E037
:105AD0004FCE3092EB02D6CE3092EC02DCCE30923A
