:100000000C94AD030C94E5030C94E5030C94E50308
:100010000C94E5030C94E5030C94E5030C94E503C0
:100020000C94E5030C94E5030C9459270C941527C4
:100030000C9455280C94E5030C94E5030C94E5030B
:100040000C94E5030C94E5030C94E5030C94E50390
:100050000C94E5030C9431280C94E5030C94E5030F
:100060000C94E5030C94E5030C94E5030C94E50370
:100070000C94E5030C94E5030C94E5030C94E50360
:100080000C94E5030C94E5030C94E5030C94E50350
:100090000C94E5030C94E5030C94E5030C94E50340
:1000A0000C94E5030C94E5030C94E50305010902A7
:1000B000A10185020901A1000509190129081500FE
:1000C0002501950875018102050109300931158165
:1000D000257F95027508810609381581257F9501D0
:1000E00075088106050C0A38021581257F95017572
:1000F000088106C0C005010980A101850319012AF4
:10010000B700150126B700950175108100C0050CD8
:100110000901A101850419012AA002150126A002E6
:10012000950175108100C005010906A1018506052C
:100130000719E029E71500250195087501810205D9
:1001400007190029EF1500250195F07501810205B9
:10015000081901290595057501910295017503910D
:1001600001C00660FF0961A1010962150026FF00B8
:100170009520750881020963150026FF00952075FA
:10018000089102C005010906A101050719E029E748
:1001900015002501950875018102950175088101F9
:1001A0000507190029FF150026FF0095067508812F
:1001B000000508190129059505750191029501753C
:1001C000039101C069646F62616F2F696438302FD9
:1001D00076332F616E73693A69646F62616F2028AC
:1001E00076302E31382E342D342D67356439333244
:1001F0006529000001010101010101010102020262
:1002000002020202020203030303030303030404C2
:10021000040404040405050505050606060606078C
:100220000707070708080808090909090A0A0A0B45
:100230000B0B0C0C0C0D0D0D0E0E0E0F0F0F1010E6
:10024000111111121213131414151516161717186D
:100250001819191A1A1B1B1C1D1D1E1E1F202021D8
:100260002222232424252626272829292A2B2C2D1F
:100270002D2E2F30313232333435363738393A3B40
:100280003C3D3E3F404142434445464748494A4C35
:100290004D4E4F50515354555658595A5B5D5E5F01
:1002A000616264656668696B6C6D6F707273757797
:1002B000787A7B7D7E8082838587888A8C8E8F91F9
:1002C000939596989A9C9EA0A2A3A5A7A9ABADAF23
:1002D000B1B3B5B7BABCBEC0C2C4C6C9CBCDCFD10D
:1002E000D4D6D8DBDDDFE2E4E7E9EBEEF0F3F5F8B6
:1002F000FAFDFF0000000000000000000000000008
:1003000000000000000000000000000000000000ED
:10031000000000000000007E0F00D4FFFFFFC700B8
:1003200000007800000000000000002A2B280000D8
:100330000000000000000000000000000000290094
:100340000000002C1E3420212224342627252E369E
:100350002D3738271E1F202122232425263333360C
:100360002E37381F0405060708090A0B0C0D0E0F5F
:10037000101112131415161718191A1B1C1D2F31E2
:1003800030232D350405060708090A0B0C0D0E0F46
:10039000101112131415161718191A1B1C1D2F31C2
:1003A00030354CE000E10039002B00350029000019
:1003B000000000000000000000E300000004001442
:1003C000001E003A0000000000000000000000E2F3
:1003D000001D0016001A001F003B00000000004C2A
:1003E000004A0049004F001B000700080020003CA5
:1003F00000520000003100000045005100060009D5
:1004000000150021003D00E500280030002E0044CA
:1004100000500019000A00170022003E0038003486
:10042000002F002D0043002C0005000B001C0023B2
:10043000003F000000000000002A000151E400110C
:10044000000D00180024004000370033001300277F
:10045000004200E60010000E000C002500410036AE
:10046000000F001200260000000100010001000141
:10047000000100005C00000000000000000000011E
:100480000000000100C25C0100010000000000004B
:100490000000000000010001000100010001000156
:1004A0000000000000AA00A900A8004D0001000102
:1004B00000C35C010001004B000000010000004887
:1004C000004E00C45C0100C55C0100010001000198
:1004D000000100010047004A00895F0100C65C017D
:1004E00000010001000100CC5C0100460001000198
:1004F000000100C75C0100010000000000000001D5
:100500000001000100145C0100C85C010001000151
:10051000000100CB5C01000100010001000100C9E5
:100520005C0100010001000100CA5C010000000143
:1005300000010001000100010001000000000000B6
:1005400000000000000100000001000100010001A6
:100550000000000000000000000000010001000198
:100560000001000100010000000000010001000185
:100570000001000100010001000100010001000074
:100580000001000000010001000100010001000164
:100590000001000100010001000100010001000153
:1005A0000001000100010001000100010001000143
:1005B0000001000100010001000100010001000034
:1005C0000000000000010001000100010001000125
:1005D0000001000100010001000100010001000113
:1005E0000001000100010001000100010001000103
:1005F00000010000000100010001000100010001F4
:1006000000000000000000000000000100000001E8
:1006100000010001000100000000000000000000D7
:1006200000010001000100010001000100000000C4
:1006300000010001000100010001000100010001B2
:1006400000010001000000010000000100010001A4
:100650000001000100010001000100010001000192
:100660000001000100010001000100010001000182
:100670000001000100010001000100010001000172
:100680000001000100000000000000010001000165
:100690000001000100010001000100010001000152
:1006A0000001000100010001000100010001000142
:1006B000000100010001000100000009025B0003CD
:1006C0000100A0FA09040000010301010009211141
:1006D000010001224000070581030800010904010F
:1006E000000203000000092111010001222200077D
:1006F000058203200001070503032000010904020D
:1007000000010300000009211101000122B60007C9
:100710000584032000011201000200000008646942
:1007200080030003010200011C03490044004F0044
:10073000420041004F0020004900440038003000D2
:100740007600330000000E03490044004F004200D1
:1007500041004F0000000403090411241FBECFEF25
:10076000DAE0DEBFCDBF04B603FE18C08091AE054F
:100770009091AF05A091B005B091B1058730904B35
:10078000A740B04B59F41092AE051092AF051092ED
:10079000B0051092B105E0E0F8E3099525E0AAEF75
:1007A000B2E001C01D92AE3AB207E1F712E0A0E05C
:1007B000B1E0E4E6F0E602C005900D92AA3FB10771
:1007C000D9F70E947C280C94B12F0C940000E8ED1E
:1007D000F0E080818E7F80831092E2001092DA0038
:1007E0001092E100A0EEB0E08C9181608C9380814A
:1007F0008F77808319BCA7EDB0E08C918E7F8C93AE
:1008000080818F7E80831092480508952091E400B6
:100810003091E50095E6A9012091EC00822F8170CE
:1008200020FF06C08091E80080FF06C080E00895A8
:100830002091E80022FD1AC080916D05882389F07F
:10084000853089F08091EB0085FD0FC02091E40098
:100850003091E50042175307F9F29150E1F684E038
:10086000089582E0089583E0089581E00895EF926D
:10087000FF920F931F93CF937C018B010E9406047C
:10088000C82F811117C08091E80085FD0BC08091B1
:10089000E8008E778093E8000E940604882399F38D
:1008A000C82F08C0F70181917F018093F1000150AA
:1008B000110949F78C2FCF911F910F91FF90EF9065
:1008C000089580916F0587FF13C08091E80082FF33
:1008D00006C08091E8008B778093E80004C0809187
:1008E0006D058111F2CF089580916D058823D9F3AC
:1008F0008091E80080FFF8CF8091E8008E77ECCF00
:10090000982F9093E900242F762F50E0891731F02B
:100910007091EC002091ED005091F00021FD07C096
:100920009F5F973071F78093E90081E008953091DF
:10093000EB003E7F3093EB003091ED003D7F309334
:10094000ED003091EB0031603093EB007093EC00E0
:100950002093ED005093F0002091EE0027FDE0CFB2
:1009600080E00895B0E0A0E0E8EBF4E00C943B2ECA
:10097000C8EDD0E088818F7E8883E7EDF0E080814C
:100980008160808384E082BF81E080934805888114
:100990008E7F888302EE10E0F80110821092DA0058
:1009A00081EEC82ED12CF601108288818F77888342
:1009B00088818068888388818F7D888319BC1092A4
:1009C0006D0510926E0510926C0510926B0590EEFD
:1009D000E92EF12CF70180818B7F808388818160F3
:1009E000888342E060E080E00E948004F60180811C
:1009F0008E7F8083F8018081816080838081886020
:100A00008083F70180818E7F8083888180618883E5
:100A1000CDB7DEB7E8E00C94572EFC01CB01209156
:100A20007505309176052617370790F0009729F461
:100A30002091E8002E772093E80040E0009751F4E1
:100A4000411108C08091E80082FF31C080E0089524
:100A5000C901F3CF20916D052223A9F12530A9F119
:100A60002091E80023FD2DC02091E80022FDEACF6F
:100A70002091E80020FFE2CF3091F3002091F200B6
:100A8000009719F02830310558F041E02830310541
:100A900009F040E02091E8002E772093E800CECFC7
:100AA00041914093F10001972F5F3F4FE9CF809133
:100AB0006D05882341F0853041F08091E80083FF87
:100AC000C1CF81E0089582E0089583E008950895FC
:100AD00080914A0508959C014FB7F89480913F0595
:100AE00090914005A0914105B09142054FBF821BF6
:100AF000930B0895A4E0B0E0E0E8F5E00C94412EFB
:100B00008FB7F89420913F05309140054091410501
:100B10005091420529833A834B835C838FBF69815F
:100B20007A818B819C812496E2E00C945D2E2FB714
:100B3000F89480913F0590914005A0914105B091B6
:100B400042052FBF08959C01809115018823C9F0AB
:100B50008091430587FF15C0E62FE695E695E6955B
:100B6000603FE0F4E20FF32FF11D677081E090E049
:100B700001C0880F6A95EAF7809592818923828364
:100B80000895F9013296285F3F4F8191681303C0A1
:100B9000DF0111971C92E217F307B9F708959C0142
:100BA000809115018823C1F08091430587FF14C00F
:100BB000E62FE695E695E695603FF8F4E20FF32F11
:100BC000F11D677021E030E001C0220F6A95EAF75D
:100BD0008281822B82830895F90132968FEF90E013
:100BE0004191641751F08F3F19F4411101C0892FD1
:100BF0009F5F9630A9F78F3F09F40895280F311DA4
:100C000087FD3A95F9016283089520913C05309162
:100C10003D052817390771F090933D0580933C05F9
:100C2000E0913A05F0913B05309721F00084F18581
:100C3000E02D099508952091380530913905281740
:100C4000390771F09093390580933805E0913A05A2
:100C5000F0913B05309721F00680F781E02D099552
:100C60000895E0913A05F0913B05309729F0019005
:100C7000F081E02D0995089580E00895FA01882318
:100C800011F009950895FB01FCCFEEE1F4E08183BA
:100C900060834283339695E0E833F907C1F70895FE
:100CA000FC01EE0FFF1FE80FF91FE25EFB4F6183AF
:100CB000408322830895EBE7F5E0248130E1231B94
:100CC00008F420E0248380911D04816080931D043A
:100CD0000895EBE7F5E0248130E1230F08F42FEFCE
:100CE000248380911D04816080931D040895922FB8
:100CF00020917B05237071F080937C0560937D05C6
:100D0000453B08F044EB40937E0520911D04292BC0
:100D100020931D040895EBE7F5E0438120E1421B99
:100D200008F440E0818121E0628190E00E94770632
:100D30000895EBE7F5E0438120E1420F08F44FEF1F
:100D4000818121E0628190E00E9477060895EBE7BF
:100D5000F5E0628120E1621B08F460E0818121E01E
:100D6000438190E00E9477060895EBE7F5E0628109
:100D700020E1620F08F46FEF818121E0438190E070
:100D80000E9477060895EBE7F5E0818121E0438139
:100D900062818850990B0E9477060895EBE7F5E091
:100DA000818190E021E04381628108960E9477066C
:100DB0000895262F90917B05937061F081110BC0EF
:100DC000946090937B051092120160911D04622B38
:100DD00060931D040895883210F09C69F2CF880F4B
:100DE000880F982BEECF90917B05969596958FEF77
:100DF000890F913009F487E261E00E94D9060895D5
:100E000080917B05869586958F5F883208F081E01A
:100E100061E00E94D906089580917B05837011F4EA
:100E20001092120180917B058C7F816080937B05FD
:100E30000895EF92FF920F93282FC701801B91090D
:100E40008F3F910519F010F08FEF90E08095382FCB
:100E5000230F08F42FEF822F0F91FF90EF9008954A
:100E6000EF92FF920F93282FC701801B91098F3FAC
:100E7000910519F010F08FEF90E0382F3095230F87
:100E800008F42FEF680F822F0F91FF90EF900895D5
:100E9000EF92FF920F93972FFA01B901970109344E
:100EA00030F4201B31092F3F310519F010F02FEFDE
:100EB00030E03896719740F0AB01485F5F4F4131A9
:100EC000510510F02FEF30E02095382F320F08F445
:100ED0003FEF77FF02C06D5F7F4F75956795759502
:100EE000679580917C05680F792F832F0F91FF9074
:100EF000EF900895EF92FF920F931F93E00EF11C75
:100F0000890137FF03C011950195110924E0000FF5
:100F1000111F2A95E1F70F3F110519F014F00FEF9B
:100F200010E09A0157FF03C031952195310994E0F3
:100F3000220F331F9A95E1F7201731070CF489012E
:100F40000E0D1F1D0F3F110519F010F00FEF10E0EF
:100F50000095282F200F08F42FEF822F1F910F915B
:100F6000FF90EF900895EF92FF920F93282FC70103
:100F700035E0039F800D911D11248F3F910519F0DD
:100F800010F08FEF90E08095382F230F08F42FEFAB
:100F9000822F0F91FF90EF90089522E8241B08F410
:100FA00020E0620F08954095282F429F412D112483
:100FB000842F0895E42FF0E0EE0FFF1FE052FE4F64
:100FC0009081921B97FD9195292F38E1239F212D28
:100FD0001124620F08950F931F93522F10E0F80110
:100FE000EE0FFF1FE052FE4F9081905797FD9195B5
:100FF000000F111FF801EF51FE4F00810052110B3D
:1010000050039001519F300D112408E310E0091B9B
:10101000110997FD13954003F001419FF00D112434
:10102000E20FF31F9F01220F331F2E0F3F1F37FFC9
:1010300002C021583F4F220F232F221F330B620F74
:101040001F910F9108950F931F93522F10E0F801F5
:10105000EE0FFF1FEF51FE4FA081A052BB0B9D0171
:101060005203F001539FF00D1124000F111FD801FE
:10107000A052BE4F0C910057110B40039001419FAD
:10108000300D11242E0F3F1F37FF02C0215C3F4F50
:1010900096E0359527959A95E1F7620F1F910F918C
:1010A00008950F931F93522F10E0F801EE0FFF1FCA
:1010B000EF51FE4FA081A052BB0B9D015203F001E6
:1010C000539FF00D1124000F111FD801A052BE4FE5
:1010D0000C910057110B40039001419F300D1124DA
:1010E0002E0F3F1F37FF02C021583F4F220F232FE3
:1010F000221F330B620F1F910F910895EF920F93F0
:10110000972F23E0029FB0011124759567956E0D0E
:10111000792F0F91EF900895322F50E0FA01EE0FE2
:10112000FF1FEF51FE4F9081905297FD9195440F14
:10113000551FFA01E052FE4F2081231B330B290F6C
:10114000311D97FD3A95620F0895E42FF0E0EE0F00
:10115000FF1FEF51FE4F6081621B0895E42FF0E006
:10116000EE0FFF1FE052FE4F6081621B0895622F59
:101170000895582FA22FE42FF0E0EE0FFF1FE0524A
:10118000FE4F208134EE239F212D112490E030E08A
:10119000245E3F4F2A1B310937FF03C0319521954B
:1011A000310943E0220F331F4A95E1F7821B930B6D
:1011B00097FD80E0282F259F212D1124822F08954F
:1011C0001F93172F922FE42FF0E0EE0FFF1FE05236
:1011D000FE4F208134EE239F212D1124472F50E014
:1011E00030E0245E3F4F291B310937FF03C03195A2
:1011F0002195310993E0220F331F9A95E1F7421BA5
:10120000530B57FD40E0742F719F712D11241F91D6
:1012100008950E94450608950E9450060895FC0115
:101220009B01009729F480E077FF2BC080E80895A8
:10123000AC0197FF04C044275527481B590BB9013F
:10124000640F751F37FD10C0241B350BC901A5E0C5
:10125000880F991FAA95E1F70E94102E80E2861B45
:10126000F7FF0FC081950895CB0165E0880F991FA6
:101270006A95E1F7BA01621B730B0E94102E80E69B
:10128000EECF0895EF920F93CF93DF93D72FC82F10
:10129000BA01C9010E190E940F09602F681B7D2F2A
:1012A0008C2FDF91CF910F91EF9008950F93CF93F3
:1012B000DF93D72FC82FBA01C9010E940F09682FE9
:1012C000600F7D2F8C2FDF91CF910F910895EF92BA
:1012D0000F931F93CF93DF93D62FC72F182FBA01E9
:1012E000C9010E19010F0E940F09081B019F012D52
:1012F00011246D2F7C2F802FDF91CF911F910F91A3
:10130000EF900895EF920F931F93CF93DF93D62F13
:10131000172FC82FBA01C9010E19010F0E940F091A
:10132000702F781B719F712D11246D2F8C2FDF91E1
:10133000CF911F910F91EF9008950F931F93CF932B
:10134000DF93D62FC72F182FBA01C901212F201BD9
:10135000022F0E940F09982F990F990F282F291BF0
:10136000200F219F212D11246D2F7C2F822FDF91A3
:10137000CF911F910F9108950F931F93CF93DF93F8
:10138000D62F172FC82FBA01C901212F201B022FDA
:101390000E940F09982F990F990F782F791B700FC2
:1013A000719F712D11246D2F8C2FDF91CF911F9183
:1013B0000F910895982FE82F96FDE0952E2F2F700E
:1013C00096FD2F5FE695E695E695E670F0E0EA5922
:1013D000FE4F8181829F802D212D112482958F7057
:1013E0002295207F822B2081820F97FD8195805846
:1013F00008950F931F93CF93DF938B01D82FC42FA2
:10140000822F0E94DA09EC2FF0E0EE0FFF1FE0526E
:10141000FE4F90819058980F97FD9195990F692FE5
:101420002CE0629F612D1124600F712F8D2FDF91B1
:10143000CF911F910F9108959C018230910508F47E
:1014400008959FEF213E8EE1380740F4C90145E041
:10145000969587954A95E1F798E0980F61E0E62F19
:10146000E90FFF27FF1FAF0155954795842F449F34
:10147000F001459FF00DF00D11242E173F0738F4B1
:101480009FEF940F961758F78FEF860F08954F3FF1
:10149000E9F361E0640FF6CF0F93CF93DF93D72F7B
:1014A000C82FF90147FD419528E330E0241B31099D
:1014B00047FD3395229FA001239F500D500D11240D
:1014C000EE9FC001EF9F900D900D1124840F951F8A
:1014D0000E941C0A982F990F692F680F600F7D2FAB
:1014E0008C2FDF91CF910F9108959C0190E080E0C7
:1014F000269F812D369F800D911D11240895B0E007
:10150000A0E0E5E8FAE00C94392E262F472FE82FCB
:10151000F0E0ED50FE4F711109C06491862FE62F67
:101520007E2FCDB7DEB7EAE00C94552EE72EF12CD6
:10153000E49186E0689F80011124CFEFD0E0C801DC
:10154000BE010E94FC2DDB0130E0220F331F55E568
:10155000569FC001579F900D1124281B390B622FF5
:10156000660F260FCE018E199F09E89F6001E99F43
:10157000D00C11246D2D429FA0011124452F552719
:10158000CE01841B950BE89FA001E99F500D11240B
:10159000852F5E01A21AB108AE9C9001AF9C300D60
:1015A000BE9C300D1124232F3327C21BD30BEC9F7D
:1015B0009001ED9F300D1124A330B105B1F00C3F27
:1015C00093E0190760F4A130B10599F01297A9F0E2
:1015D0000F3F110508F0A4CF8D2D632FA1CFA430AC
:1015E000B10571F01697C1F39BCF652F8E2FED2DAE
:1015F00097CF6E2FE52F8D2D93CF832F6E2FF7CFA3
:101600008E2FE32F8DCF0F931F93CF93DF93EC019A
:10161000FC01E456FD4F80816823D1F100917D05E6
:1016200010917E0540917C05E42FF0E0609113015C
:101630007091140185E098E0689F9001699F300DDA
:10164000789F300D1124275E394C3093140120937C
:101650001301CF018C549F4F68E671E00E94102E59
:101660008E1B9F0B97FD039695958795959587956E
:10167000230F2370642F289F600D1124702F812F5A
:101680000E947F0A462F672F282FCE010E940C0947
:10169000DF91CF911F910F910895A9E0B0E0E3E5AC
:1016A000FBE00C94312E282E6A837B832091160157
:1016B00083E1289F802D11248E838D5E89838C8306
:1016C0008F3510F03EE53C83809181058D83FE814E
:1016D000EF2FF0E0F987E887CF01880F991F9C0171
:1016E00020523E4F6901822D90E0FC013196FF832C
:1016F000EE838C819885981748F081E0E981EE357A
:1017000008F080E02996E2E10C944D2EE885F985F9
:10171000E456FD4F8081909117018923F1F04090AC
:101720007C0550907D052E813F812F573A4F39011E
:10173000322C10E0FD813F16D0F020917E05129FE3
:10174000112D1124B201812F0E947F0A462F672F8D
:10175000282F888599850E940C09288539852F5F57
:101760003F4F3987288732E0C30ED11CC2CFF30127
:1017700081913F01F601A080A81ABB088180F30186
:101780008781881A9908AA9C9001AB9C300D300D76
:101790001124889CC001899C900D900D1124820F0A
:1017A000931F0E941C0A082F60917F0521E0620FA1
:1017B00008F46FEFF301EE0FFF1FE158F540858944
:1017C00096890E94750A7C019401A501B201812FBE
:1017D000EA81FB8109952B01182F3394ABCFB0E040
:1017E000A0E0E5EFFBE00C943B2E8C01C0911601CC
:1017F00083E1C89FC02D112423E1D22EDC0ECD2C15
:101800002EE52D1510F49EE5C92E20917F0531E0BF
:10181000230F08F42FEF30E050E040E06FEF7FEF50
:1018200080E090E00E944E2F7901D0E02C2FCC1563
:1018300050F081E0FDE5FD1508F480E0CDB7DEB79E
:10184000E8E00C94572EFE01E456FD4F8081909104
:101850001701892311F1409181054150042E000C9C
:10186000550B47FF1CC0C70160917F0521E0620F47
:1018700008F46FEF0E94750AAC0160917C057091CD
:101880007D0580917E05F80109950E947F0A462F0B
:10189000672F282FCE010E940C092196C7CFFA018D
:1018A000EF57FA4F818982130AC0FA01EE0FFF1F2A
:1018B000EF57FA4F818D928D8E159F05A8F24150FA
:1018C0005109CFCFB0E0A0E0E8E6FCE00C943C2E5C
:1018D0007C01C091160183E1C89FC02D112413E142
:1018E0001C0FD12E1F3510F08EE5D82E60917F058C
:1018F0006695669521E0620F08F46FEF8091770599
:10190000909178050E94750A082FD0E0CD1548F017
:1019100081E01E3508F080E0CDB7DEB7E7E00C943B
:10192000582EFE01E456FD4F8081909117018923C6
:1019300091F060917C0570917D0580917E05202F4E
:101940004C2FF70109950E947F0A462F672F282FF9
:10195000CE010E940C092196D9CFA5E0B0E0E3EBBF
:10196000FCE00C943A2E6C0180911601898383E18E
:101970009981989F802D11248B8393E1F92EF80E85
:10198000BF2CEEE5EF1510F48EE5B82E60917F05C3
:101990006695669580917705909178050E94750A05
:1019A000182F80E4810F0E94DA0980588983812FE3
:1019B0000E94DA0980588A839B81892F90E09D8359
:1019C0008C839C819B1548F081E0EDE5EF1508F4D0
:1019D00080E02596E9E00C94562EEC81FD81E456DA
:1019E000FD4F8081909117018923A9F060917C05BA
:1019F00070917D0580917E05E12E0C812A814981BF
:101A0000F60109950E947F0A462F672F282F8C81A7
:101A10009D810E940C098C819D810196D0CFB0E000
:101A2000A0E0E5E1FDE00C94362E4C01C0911601DA
:101A300083E1C89FC02D112413E11C0F712E1F35A7
:101A400010F09EE5792E60917F056695809177056F
:101A5000909178050E94750AF82ED0E0C71548F0DD
:101A600081E01E3508F080E0CDB7DEB7EDE00C94E4
:101A7000522EFE01E456FD4F80819091170189237B
:101A8000B9F19E01220F331FF901E052FE4F808110
:101A9000482F4057550B6A012F513E4FF901808165
:101AA000282F2052330B5901449F9001459F300D40
:101AB000300D1124AA9CC001AB9C900D900D1124F7
:101AC000820F931F0E941C0A082F60917C05709161
:101AD0007D0580917E05EF2C9501A601F401099505
:101AE0000E947F0A462F672F282FCE010E940C09E3
:101AF0002196B4CFB0E0A0E0E0E8FDE00C943B2EEE
:101B00007C01C091160183E1C89FC02D112413E10F
:101B10001C0FC12E1F3510F09EE5C92E60917F0568
:101B2000669580917705909178050E94750AD82E68
:101B3000D0E0CC1548F081E01E3508F080E0CDB74C
:101B4000DEB7E8E00C94572EFE01E456FD4F80818D
:101B500090911701892301F1AE01440F551FFA013D
:101B6000EF51FE4F20812052330B40525E4FFA015D
:101B700040814057550B60917C0570917D058091A7
:101B80007E050D2DF70109950E947F0A462F672FCC
:101B9000282FCE010E940C092196CBCF0E949705D9
:101BA0002091E7033091E803232B21F08093E30396
:101BB0009093E4032091E9033091EA03232B21F071
:101BC0008093E1039093E203E0913A05F0913B05A5
:101BD000309749F082E08093E5030480F581E02DA1
:101BE00085EE93E0099508954091E703803F59F40D
:101BF0008091E80387FF0DC01092E80341110BC0EC
:101C00001092DF0308C0813F81F48091E803181629
:101C10009CF3442381F08091E9039091EA03892B9E
:101C200009F05AC01092DE030895823F49F447FF3D
:101C3000F0CF1092E7038091E8038111ECCFE0CF61
:101C4000833F19F41416ACF3E4CF9091E903893F74
:101C500029F41916F4F61092E903DBCF8A3F19F440
:101C600097FFD7CFF8CF9091EA038B3F29F497FFE6
:101C7000D0CF1092EA03CDCF8C3F19F41916CCF3D4
:101C8000C8CF9CE0980F953090F4845F990B21E0C9
:101C900030E0B90102C0660F771F8A95E2F7CB01E9
:101CA00080959091E60389238093E603B2CF8D3F20
:101CB00031F48091E0038E7F8093E003AACF8E3FC2
:101CC00021F48091E0038D7FF7CF8F3F09F0A1CF02
:101CD0008091E0038B7FF0CF08958091E00380FD39
:101CE00016C081FD16C082FD16C08091DE038823D8
:101CF000A1F0883280F428E0829FC001112468E2BC
:101D000070E00E94102E862F672B39F0089582E034
:101D1000089584E0089588E0089581E00895809111
:101D2000E00380FD14C081FD14C082FD16C08091C7
:101D3000DF03882381F08E3180F420E5829FC0018B
:101D400011246EE170E00E94102E862F089584E128
:101D5000089588E2089588E0089580E50895803F19
:101D600031F40E948F0E81958093E8030895813F9E
:101D700019F40E948F0EF8CF823F31F40E948F0E2B
:101D800081958093E7030895833F19F40E948F0E95
:101D9000F8CF893F29F40E946D0E8093E9030895DE
:101DA0008A3F21F40E946D0E8195F7CF8B3F31F46D
:101DB0000E946D0E81958093EA0308958C3F19F47B
:101DC0000E946D0EF8CF9CE0980F953070F4845F00
:101DD000990B21E030E001C0220F8A95EAF780914B
:101DE000E603822B8093E60308958D3F31F48091C2
:101DF000E00381608093E00308958E3F21F4809199
:101E0000E0038260F7CF8F3FB9F78091E0038460F1
:101E1000F1CF80E00895F894E82FE295EF70F0E0BC
:101E200041A18F7021E030E0B90102C0660F771F39
:101E30008A95E2F7CB01962F9095942391A392A1D6
:101E4000892B82A3789408959091430592FF06C050
:101E5000282F28712830F9F4877F846093FF06C00B
:101E6000282F28712831F1F4877E84612091440560
:101E700020FF06C0382F38713830D9F4877F816051
:101E800021FF06C0282F28712831D1F4877E816177
:101E900094FD877E0895282F24712430F9F68B7FD6
:101EA0008860DCCF282F2471243101F78B7E886174
:101EB000DDCF382F3171313019F78E7F8860E0CF58
:101EC000282F2171213121F78E7E8861E1CFCF93B8
:101ED000DF93EC01803E910509F467C058F581332A
:101EE000910509F4AFC090F48932910509F49FC0BF
:101EF0008A9709F4AEC0C130D10509F469C0CE019A
:101F00000497813A910508F05CC062C0893391055D
:101F100009F43FC082389105E1F1C59709F482C008
:101F2000C83AD10508F09CC0C53AD10520F3A49762
:101F3000D0644EC0843E910509F459C070F4823ECD
:101F4000910509F441C0833E910509F445C0CE01D5
:101F5000805E91090897A8F53BC0863E910509F47B
:101F600051C0873E910509F452C0811522E59207C0
:101F700008F0A8C0811531E5930708F0F9C08F3F3C
:101F8000910511F008F07BC0803F910548F2D065C3
:101F90001FC080914305837009F01AC180914405E8
:101FA00083FF16C0C9E2D0E013C08091430580FDD5
:101FB00046C09091440590FF0BC0C3EED0E084FF73
:101FC00007C0D0E0C0E004C08091430582FDF5CF9A
:101FD000CE01DF91CF9108958091430582FDF5C038
:101FE0009091440590FDF4C084FFF2CFEACF809138
:101FF000440581FFEDCF80914305C7EED0E084FD1D
:10200000E0CFE6CF8091430583FDF7CFE1CF80910C
:10201000430583FDE0C09091440591FFE5CFC4EEF8
:10202000D0E0D6CF8091430585FFD2CFBBCF809142
:10203000430585FDD3C08091440583FFC9CFC9E323
:10204000D0E0C6CF8091430586FFC2CFCAE2D0E080
:10205000BFCF8091430586FFBBCFC1E3D0E0B8CFAF
:10206000CF3BD10508F073CFC85AD0E0CC0FDD1FAD
:10207000C05EDE4F0990D881C02DD464A9CF8115F0
:1020800040E5940760F4C11580E4D80708F06DC0FE
:10209000CE019A9581159F4108F49ACF92CF837013
:1020A000992721E030E002C0220F331F8A95E2F722
:1020B000C695C69540E2C49FE0011124C22BD32BE4
:1020C000DD6886CFC11586E5D80738F5C11525E549
:1020D000D20708F061C0C11534E5D307C8F49E01EA
:1020E000237033279C2F96959695C115D34508F0FC
:1020F00044C0C1E0D0E002C0CC0FDD1F2A95E2F75A
:1021000020E2929FC0011124C82BD92BDC6860CF3C
:10211000DC2FCC27C46FD06A5BCFC1153AE5D3075B
:1021200088F4C11549E5D40708F041C0CE0198559F
:102130008F3F910511F008F044CFDC2FCC27C06F02
:10214000D06A46CFCE0190568115904208F039CF23
:102150008D2F8F710E94240F90E0982F8827882759
:102160009F719C012C2BE90120C0DF70D06A30CF19
:10217000D82FCC27C16FD06A2BCFC1E0D0E002C0EE
:10218000CC0FDD1F2A95E2F730E2939FC0011124A6
:10219000C82BD92BDA681CCF8C2F0E94240FC82F94
:1021A000D0E0DC2FCC27CC27DF71D06211CF8C2F71
:1021B0008F700E94240F34E0D695C7953A95E1F7C9
:1021C000CF70DC2FC82FD06903CFC2EED0E000CF94
:1021D000C0EED0E0FDCEC6EED0E0FACEC5E3D0E052
:1021E000F7CE80919F03811110929F030895982F3D
:1021F000909580919E03892380939E0308958091FA
:102200007B0390914A03981301C008958F5F8770F4
:10221000FACF292F993078F58B3068F590E03BE0C4
:10222000239F800D911D1124682F677023E09695E0
:1022300087952A95E1F7FC01EE0FFF1FE80FF91FC4
:10224000E35EFC4F50E040E080E0219130E0062E5C
:1022500002C0369527950A94E2F721703327042EA1
:1022600001C0220F0A94EAF7822B4F5F5F4F433081
:10227000510559F7089580E00895292F993090F578
:102280008B3080F590E03BE0239F800D911D112461
:10229000282F277041E001C0440F2A95EAF723E078
:1022A000969587952A95E1F7FC01EE0FFF1FE80F41
:1022B000F91FE35EFC4F90E080E070E05191DF0198
:1022C00011979B01082E02C0369527950A94E2F7D4
:1022D000217021952527242325272C9301968330CF
:1022E000910561F7089580934505709347056093C4
:1022F000460580916D058430F9F48093E9008FEFF5
:102300009091E800815095FD06C095ED9A95F1F702
:1023100000008111F5CF8091E80085FF0DC050E0ED
:1023200040E063E070E085E495E00E94370480912E
:10233000E8008E778093E8000895BC0184E00E9455
:1023400073110895BC0183E00E947311089524E085
:102350002093E9002FEF3091E800215035FD06C0B1
:1023600035ED3A95F1F700002111F5CF2091E80005
:1023700025FF0BC050E040E066E070E00E943704AB
:102380008091E8008E778093E8000895CF93DF93E3
:10239000D82FC92F809115018823C1F18091430561
:1023A00087FF34C060E284E08093E9008FEF909172
:1023B000E800815095FD06C095ED9A95F1F7000073
:1023C0008111F5CF8091E80085FF1DC08091150136
:1023D00070E050E040E0811104C050E040E068E06F
:1023E00070E08D2F9C2F0E9437048091E8008E773B
:1023F0008093E80080E2ED2FFC2FABE4B5E0019084
:102400000D928A95E1F7DF91CF91089568E081E020
:10241000CBCF81E08093E00080E28093D8001092DF
:10242000C9008FE19EE40197F1F700C0000087E04A
:1024300090EBDC018093AE059093AF05A093B005BF
:10244000B093B10588E19CE00FB6F894A89580930D
:1024500060000FBE90936000FFCF6A9A3EB13B7F51
:102460002EB124604FB7F8948EE194E0FC01019600
:10247000508168E02EB9000000C057FF3EB9550FEB
:10248000000000C000C000C03EB900C06A9591F7CE
:1024900055E08833950751F74FBF8FE594E00197DA
:1024A000F1F700C000000895CF93DF93CFE3D3E0AE
:1024B00060E0CE010E942A2F2196C11584E0D80742
:1024C000B9F7DF91CF9108951F93CF93DF93962FA4
:1024D000122F632F8430D8F49930C8F44B30B8F4FD
:1024E000C42FD0E0CC0FDD1F26E1929FC00DD11D7F
:1024F000112496EC899FC00DD11D1124CE01879621
:102500000E942A2F612FCE0188960E942A2FDF91E8
:10251000CF911F910895AF92BF92CF92DF92FF9219
:102520000F931F93CF93DF93B12CA12C00E0650193
:1025300010E013C0FE01259134914F2D612F802FA3
:102540000E9464122296F3948BE0F812F3CF8BE092
:10255000C80ED11C1F5F193039F0E601CC0FDD1F0A
:10256000CD55DC4FF12CE6CF0F5F83E6A80EB11CF2
:102570000430E9F6DF91CF911F910F91FF90DF902A
:10258000CF90BF90AF900895CF93C82F6FEF811178
:1025900062E283E290E00E942A2F6FEFC11169E0AE
:1025A00084E290E00E942A2F6FEFC11163E085E280
:1025B00090E00E942A2FCF91089580E00E94C412DB
:1025C00060E086E290E00E942A2F0E948B120E9417
:1025D000541281E00E94C41208950F931F93CF9369
:1025E000DF93843030F5693020F54B3010F5C42F7F
:1025F000D0E0CC0FDD1F26E1629FC00DD11D11245C
:1026000036EC839FC00DD11D1124CE0187960E9408
:10261000062F082F10E0102F0027CE0188960E9469
:10262000062F9801282BC901DF91CF911F910F919F
:10263000089590E080E0F8CF462F672F843038F47B
:10264000793028F44B3018F40E94ED12089580E0A0
:1026500090E00895B0E0A0E0E0E3F3E10C943C2EBC
:102660007C010091AD058091A003082BC7E0D0E06C
:1026700010E0DC2EC8010C2E02C0959587950A94B7
:10268000E2F780FD09C02197A0F7D12C8D2DCDB7A1
:10269000DEB7E7E00C94582EB7018C2F0E941C1374
:1026A0000E94670F019779F3F1CFCF93DF93D82F73
:1026B000C92F0E942A136D2F7C2F0E941C130E9489
:1026C000670FDF91CF910895FC0183819481892B5D
:1026D00029F08081918189238F3F69F480E00895FA
:1026E000243FE1F71CC081E0283E20F0213FB1F7F4
:1026F00016C008950895808191810E945513282F56
:1027000092959F70963079F358F4925F9F70923053
:1027100028F781E0203F69F318F7283EF8F608957E
:102720009A5FF4CF83E290E00E94062F823289F410
:1027300084E290E00E94062F893059F485E290E00F
:102740000E94062F91E0833009F090E0892F81707C
:10275000089580E0FCCFCF9384E090E00E94062FA4
:10276000C82F82E290E00E94062F982F8C2FCF91E5
:1027700008951F93CF93DF93EC01FC01E456FD4FC6
:1027800080816823B1F00E94D02E182F0E94D02E95
:10279000782F7F7720E8720F08F47FEF612F809108
:1027A0007E050E947F0A462F672F282FCE010E94A8
:1027B0000C09DF91CF911F910895B0E0A0E0E3EE06
:1027C000F3E10C94382E182F80911101811323C04E
:1027D00090917B0593702091100130E081E0921779
:1027E000130609F480E081708093180180918005C0
:1027F00090911701981739F08093170140E060E03D
:1028000080E00E940909183260F4E12FF0E0ED54F5
:10281000F04D0C94242E81E0E6CF809118018111B7
:1028200002C0C0E0E7C140E060E080E00E9409092A
:10283000F8CFC091160183E1C89FC02D112403E198
:102840000C0FC02E0F3510F0AEE5CA2E60917C053E
:1028500070917D0580917E050E947F0AF62EE72EFD
:10286000D82ED0E0CC1528F0C1E00E3508F4C2C156
:10287000D8CFFE01E456FD4F808190911701892346
:1028800031F02D2D4F2D6E2DCE010E940C09219679
:10289000E9CFC091160183E1C89FC02D112403E147
:1028A0000C0F902E0F3510F0FEE59F2EB0907D0599
:1028B000C0907E05D0917C056D2F7B2D8C2D0E94C4
:1028C0007F0AF62EE72ED82E60917F056D0F7B2DA7
:1028D0008C2D0E947F0AC62EB72EA82ED0E0C915D7
:1028E00018F6FE01E456FD4F90818091170189236F
:1028F00059F02A2D4C2D6B2D90FD03C02D2D4F2D01
:102900006E2DCE010E940C092196E9CFC0911601CF
:1029100083E1C89FC02D112403E10C0FE02E0F3579
:1029200010F0EEE5EE2ED0907D05C0907E05209152
:102930007F0570E4F72E3F2D329F312D1124F32EA9
:10294000D0E0CE1508F090CFFE01E456FD4F808117
:10295000909117018923B9F0FE01EE0FFF1FEF518F
:10296000FE4F808182958F7060917C058F9D600DF8
:1029700011247D2D8C2D0E947F0A462F672F282F32
:10298000CE010E940C092196DCCFC091160183E193
:10299000C89FC02D112403E10C0FE02E0F3510F05D
:1029A0005EE5E52ED0907D05C0907E0520917F05E7
:1029B00040E4F42E3F2D329F312D1124F32ED0E030
:1029C000CE1508F051CFFE01E456FD4F8081909165
:1029D00017018923D9F0FE01EE0FFF1FE052FE4FD1
:1029E0006081F69EB001112435E0759567953A95A2
:1029F000E1F780917C05680F7D2D8C2D0E947F0A68
:102A0000462F672F282FCE010E940C092196D8CF80
:102A1000C091160183E1C89FC02D112403E10C0F62
:102A2000C02E0F3510F09EE5C92EF0907C05D09198
:102A30007D05E0907E0560917F05669566956695BB
:102A400080917705909178050E94750A0E94DA09B5
:102A500090E8980F97FD9195990F292F3E2D239F70
:102A6000212D11246F2D7D2F822F0E947F0AF62E9B
:102A7000E72ED82ED0E0CC1508F0F6CEFE01E456B5
:102A8000FD4F808190911701892331F02D2D4F2D1D
:102A90006E2DCE010E940C092196EDCF80EE98E0BC
:102AA0000E94620C07C089EB98E0FACF8CEB99E0AA
:102AB0000E947A0DC82F9EC08DE999E0F9CF82E877
:102AC00099E00E940F0DF6CF87E699E0FACF87EBE9
:102AD00098E0E6CF8EEA98E0E3CF85EA98E0E0CF91
:102AE0008CE898E0DDCF8EE798E0EBCF8CE49AE0BD
:102AF000DFCF86E599E0DCCF82E499E0E2CF81E5A3
:102B000098E00E94AD0CD6CF83E298E0FACF8BEE2E
:102B100097E0F7CFC091160183E1C89FC02D112423
:102B200003E10C0F80911801811131C060917F0584
:102B300020E1620F08F46FEF80917705909178059E
:102B40000E94750A6AE070E00E94FC2D892B09F052
:102B50008BCE409113015091140125E038E0429F43
:102B6000C001439F900D529F900D1124875E994C98
:102B70009093140180931301890F6EE50E94F02D4C
:102B800060911701892F90E00E94030B6DCE802F7A
:102B90000F3508F08EE5D0E0E82EF12CCE15DF05DC
:102BA0000CF062CE60911701CE010E94030B2196BA
:102BB000F5CFC0911801C11135C060917F0520E1AA
:102BC000620F08F46FEF80917705909178050E946D
:102BD000750A65E070E00E94FC2D892B09F021CE7A
:102BE0000E94D02E6EE570E00E94102E60911701B9
:102BF0000E94B913809116018F5F80931601C11155
:102C00000CC082E08093120180911801811105C0EF
:102C1000111103C083E080931201CDB7DEB7EBE062
:102C20000C94542EC091160183E1C89FC02D11242D
:102C300003E10C0F802F0F3508F08EE5D0E0E82E71
:102C4000F12CCE15DF050CF00FCE60911701CE01EF
:102C50000E94B9132196F5CFC091160183E1C89F58
:102C6000C02D1124D3E1DC0FDD2EDF3510F08EE511
:102C7000D82EE0907D05F0907E0500917C05609156
:102C80007F056695669566958091770590917805A4
:102C90000E94750A0E94DA0990E8980F97FD9195B5
:102CA000990F692F2CE0629F612D1124600F7E2DFA
:102CB0008F2D0E947F0AF62EE72E082FAC2EB12C06
:102CC000AD1428F0C1E0DE3508F494CFAACDF501AB
:102CD000E456FD4F808190911701892331F0202F18
:102CE0004F2D6E2DC5010E940C093FEFA31AB30AA8
:102CF000E7CF89EF99E0D4CE8AED97E0D1CE83ED8E
:102D000097E00E94EF0BD6CE8DEC97E0FACF2091A2
:102D1000810531E0231B08F420E063EB77E0822F8C
:102D20000E944D0BC7CE63EB77E080E0F9CF209196
:102D3000810531E0231B08F420E06AE777E0EFCF5C
:102D40006AE777E0F2CF2091810531E0231B08F498
:102D500020E068E477E0E3CF68E477E0E6CF209115
:102D6000810531E0231B08F420E060E377E0D7CF52
:102D700060E377E0DACF2091810531E0231B08F48E
:102D800020E069E177E0CBCF69E177E0CECF46E0A4
:102D900050E06CE170E08BE795E00E941A2F1092F2
:102DA0001D0408954F925F926F927F928F929F922F
:102DB000AF92BF92CF92DF92EF92FF92CF93C090EB
:102DC0001404D0901504E0901604F09017048FB707
:102DD000F89440903F0550904005609041057090F8
:102DE00042058FBF530142018C189D08AE08BF08F1
:102DF0000E947A056093140470931504809316045E
:102E000090931704A091EB03EBEEF3E04A2F50E010
:102E10002FEFC20ED21EE11CF11CC418D508E60823
:102E2000F708A5132EC04093EB0320911C04C0E0CB
:102E3000211108C020917B05C22FC37019F0C22F49
:102E4000C695C69520911201223009F464C060F540
:102E500021113BC01092160160937705709378059D
:102E60008093790590937A0589E2EBEEF3E0A1E88F
:102E7000B5E001900D928A95E1F781E0809312010F
:102E800016C0218D328D2901712C612CC414D504FA
:102E9000E604F70420F441505F5F3296C2CF280D5C
:102EA000391D328F218FF8CF233009F43FC0CF91E5
:102EB000FF90EF90DF90CF90BF90AF909F908F905A
:102EC0007F906F905F904F9008958C2F0E94DD133C
:102ED000CC2369F30E94310681FF15C060917E0505
:102EE000683068F06C3A68F48091180480FF685F7D
:102EF000262F462F82E290E00E940C09D8CF68E08E
:102F0000F7CF64EBF5CF8091180480FFD0CF20E09D
:102F100040E060E0EFCFC093110180917B058370AA
:102F2000809310010E942D1283E0A8CF80911D0490
:102F300081110E94C71640917705509178056091E4
:102F4000790570917A052FB7F89480913F0590919B
:102F50004005A0914105B09142052FBF841B950B00
:102F6000A60BB70B4097A105B10508F4A0CF1092AE
:102F700012019DCFEBE7F5E085E380838091190195
:102F800090911A01A0911B0181839283A3838FE703
:102F900084838FEF85830E94C716089580919E03D6
:102FA00090919D03892B8093FC0290919F0399231C
:102FB000A1F0892B8093FC02809115018823E1F117
:102FC0008091430587FF38C08EE1EEEFF2E090E09C
:102FD0008150A0F591110E94F11040E250E06DE7A0
:102FE00073E08CEF92E00E94E02E892B21F180E2C9
:102FF000ECEFF2E0ADE7B3E001900D928A95E1F7D6
:10300000E0913A05F0913B053097A9F080911501C8
:10301000882359F08091430587FF07C08091FC0207
:103020008093FD0286E08093FC020280F381E02D14
:103030008CEF92E00995089586E0C7CF2191222375
:1030400039F29F5FC5CF90E080E00E941B0690E0C0
:1030500080E00E94050610929D030E94CE1786E034
:10306000E5EEF3E0DF011D928A95E9F71092DF03A8
:103070001092DE031092E0030E94CE0D089580931B
:10308000AD050E94231808958091AD05982F967084
:10309000963021F488600E943F180895877FFBCF07
:1030A00021E030E001C0220F8A95EAF72095809157
:1030B000AD0582230E943F18089590917C0380956E
:1030C000892380937C03282F277091F4282F082EC2
:1030D000000C330B9217130659F09091440592FFA0
:1030E00007C08595859585950E94501810927C03A0
:1030F0000895CF93C0914405C2FB992790F9981782
:1031000091F080FBC2F9C09344056091430584E0CF
:1031100090E00E942A2F6C2F82E290E00E942A2FDA
:1031200082E00E945D18CF91089521E030E001C057
:10313000220F8A95EAF78091AD05822B0E943F18F5
:1031400008958093A0030E9423180895882321F0F6
:103150000E94F7100E94CE170895882339F09091AD
:103160009E03892B80939E030E94CE170895882387
:1031700091F19CEF980F913A40F4682F8CEF92E018
:103180000E94A3050E94CE17089590E2980F9830F0
:1031900050F4877091E001C0990F8A95EAF7892F62
:1031A0000E94F710EFCF9BE5980F933028F490E042
:1031B00080E00E941B06089598E5980F973128F447
:1031C00090E080E00E9405060895803F20F00E9474
:1031D000F40D0E94CE0D0895CF93C82F8823D1F10E
:1031E0008CEF8C0F813AC0F580911501882311F185
:1031F0008091430587FF1EC0EC2FE695E695E69586
:10320000F0E0E450FD4F828190E04C2F477021E0C8
:1032100030E002C0220F331F4A95E2F78223932346
:10322000892B89F06C2F8CEF92E00E94A3050E94FD
:10323000CE1709C0EEEFF2E08191C81799F323E0B1
:10324000E430F207C9F76C2F8CEF92E00E94CF05B3
:103250000E94CE17CF91089580E28C0F883068F4D9
:10326000C77021E030E001C0220FCA95EAF78091D3
:103270009E03822B80939E03EBCF8BE58C0F8330D4
:1032800038F42C2F2452330BC9010E941B06E2CFC5
:10329000E8E5EC0FE73150F4F0E0EE0FFF1FE05EE1
:1032A000FE4F808191810E940506D4CFC03F90F2ED
:1032B0008C2F0E94AF0E0E94CE0DCCCF0F931F9388
:1032C000CF93C82F10E000E0893311F400E510E03F
:1032D0008C2F0E94EC180115110539F48C2F0E94D7
:1032E000B718CF911F910F9108958FE99FE0019733
:1032F000F1F700C0000001501109EDCFFF920F93CC
:103300001F93CF93DF93C62FD42F122FFC018281FE
:103310008823A9F06093AC050E9497059093AB05B4
:103320008093AA05C77081E001C0880FCA95EAF7AB
:103330000E94AD18CDB7DEB7E5E00C945A2E80910F
:10334000AC05681330C08091AA059091AB050E942E
:103350006B05883C910538F500E20D0FCD17A9F0FB
:10336000C770FF24F3948F2D01C0880FCA95EAF728
:103370000E94A618083048F48D2F877001C0FF0CFA
:103380008A95EAF78F2D0E94AD18812F0E945E1951
:10339000083080F6D77081E001C0880FDA95EAF72F
:1033A0000E94A618C7CFC77081E001C0880FCA95D8
:1033B000EAF7F6CFB0E0A0E0E0EEF9E10C943C2EA5
:1033C000E82FF0E0ED5DFC4FD490282F2695269550
:1033D000269530E0F901ED5EFC4F0491877010E016
:1033E000082E02C0159507950A94E2F7017011277F
:1033F000F901ED5FFC4FE490F12C082E02C0F5942A
:10340000E7940A94E2F791E0E922FF24F901ED50F4
:10341000FD4FC491D0E002C0D595C7958A95E2F7DB
:10342000C170DD270115110519F081EE0E94EC181D
:10343000E114F10419F086EE0E94EC188D2D0E9423
:103440005E19E114F10419F086EE0E94B718011517
:10345000110519F081EE0E94B718CD2B19F08CE2FE
:103460000E945E19CDB7DEB7E7E00C94582EA2E1BA
:10347000B0E0EDE3FAE10C94352E8E010F5F1F4FA3
:1034800082E1F80111928A95E9F79EE4E92E91E034
:10349000F92E680127E5622E21E0722E882483949C
:1034A000912CF70181917F018F3F09F446C0F89478
:1034B000E82FE295EF70F0E021A18F70A40102C027
:1034C000440F551F8A95E2F7CA01922F982B91A3BA
:1034D00092A18095892382A3789400C0E7E5F1E06A
:1034E00021E030E0B12CA12C41914F3F09F465C09F
:1034F000A42FA295AF70B0E090968C9190E04F70A1
:1035000002C0959587954A95E2F780FD56C0C9019E
:10351000A82AB92A220F331F51E0E236F50721F716
:10352000F701319780818F3F11F00E940B0F80EAE5
:103530008A95F1F7F601B182A082F2E0CF0ED11C9C
:103540006E147F0409F0ADCF42E150E0B80184EA87
:1035500093E00E94E02E892B99F182E1F801A4EA20
:10356000B3E001900D928A95E1F781E08093A30387
:103570000E9497059093A2038093A1038091A103D9
:103580009091A2030E946B050597F0F042E150E094
:1035900064EA73E08CEC93E00E94E02E892BC9F082
:1035A00082E1E4EAF3E0ACECB3E001900D928A959D
:1035B000E1F781E01092A30308C090E080E0A8CF7B
:1035C0008091A3038111DACF80E06296EEE00C9443
:1035D000512E80E0EFCF10929E0380911501EEEF07
:1035E000F2E0882361F08091430587FF08C08EE1F7
:1035F000DF011D928A95E9F70E942318089586E05D
:10360000F7CFAAE2B0E0E7E0FBE10C94402E8FE6B2
:1036100095E0FC0101962091F100208325E0873799
:103620009207B9F780917005893009F456C0C8F443
:10363000823009F4B3C0833009F482C0813071F163
:103640008091E80083FF85C280916F05909170059D
:103650009A3008F07EC2E92FF0E0E552F04D0C946C
:10366000242E8A3009F489C08B3051F780916F0580
:10367000813231F78091730590917405892B01F7A0
:103680008091E800877F8093E8000E946104809128
:103690007105809315010E94EB1AD2CF80916F05BE
:1036A000813A71F68091E800877F8093E8008091ED
:1036B000730590917405892B61F460E28BE495E0C9
:1036C00070E00E940D058091E8008B778093E80000
:1036D000B7CF60E090E080E0F3CF80916F0581325A
:1036E00009F0AECF80917305909174058D7F892B81
:1036F00009F0A6CF8091E800877F8093E800809151
:10370000E80082FF18C09091F3008091F2000297C8
:1037100031F48091F100813011F0863021F48091F4
:10372000F10080934A058091E8008B778093E80050
:103730000E94610485CF80916D058111E0CF80CF1B
:1037400080916F05813A09F07BCF8091730590914C
:103750007405892B09F074CF8091E800877F8093EE
:10376000E8008091E80080FFFCCF809115018093F4
:10377000F1008091E8008E77D9CF80916F0581327A
:1037800009F05ECF8091E800877F8093E8000E9477
:103790006104809172058093490552CF80916F0535
:1037A000813A09F04DCF8091E800877F8093E8004F
:1037B0008091E80080FFFCCF80914905D8CF803808
:1037C00099F0823809F0C5C1809173058F708730F8
:1037D00008F0BFC18093E9008091EB0085FB88274A
:1037E00080F91092E90006C080916B0590916C05FC
:1037F000911182609091E800977F9093E800809308
:10380000F1001092F1008091E8008E779EC188232C
:1038100009F48CC1823009F09CC18091710581113D
:103820008FC1809173058F702FEF280F263008F01D
:1038300090C18093E9002091EB0020FF81C193307B
:1038400031F48091EB0080628093EB0079C190911C
:10385000EB0090619093EB0021E030E001C0220F7B
:103860008A95EAF72093EA001092EA008091EB0033
:103870008860EACF81116DC1109171051F77809129
:10388000E3008078812B8093E3008091E800877FBC
:103890008093E8000E9461048091E80080FFFCCFE3
:1038A0008091E30080688093E30082E0111183E05F
:1038B00080936D054EC18058823008F04AC1409116
:1038C0007105509172054C3D83E05807A1F583E0E6
:1038D0008A838AE289834FB7F894DE01139620E049
:1038E0003EE051E2E32FF0E050935700E49120FFD7
:1038F00003C0E295EF703F5FEF708E2F90E0EA30EB
:10390000C0F0C7968D939D932F5F243159F74FBF19
:103910008091E800877F8093E8006AE270E0CE0142
:1039200001960E940D058091E8008B778093E80056
:1039300010C1C096E7CF8091730590917405252F33
:1039400033272330310509F44AC078F52130310599
:1039500009F479C08BE590E0EBEBF6E0223031051D
:1039600009F0F7C02091E800277F2093E80020911C
:103970007505309176058217930708F49C0140E0A5
:103980002115310509F064C0411162C08091E80041
:1039900082FDC9CF80916D05882329F2853019F207
:1039A0008091E80083FFF2CFBECF2132310509F4C8
:1039B0003BC02232310509F0CCC08330910508F0BC
:1039C000C8C0FC01EE0FFF1FEF58FE4F0190F081C1
:1039D000E02D82599E4FDC018C9190E011C0CA010C
:1039E0009927413089F082309105B1F0892B09F097
:1039F000B0C0E6E5F7E0E4918E2F90E0E6E5F7E071
:103A0000009709F4A6C0AECFE6E4F7E0E4918E2F6C
:103A100090E0E6E4F7E0F4CFE8E2F7E0E4918E2FFF
:103A200090E0E8E2F7E0ECCF8330910508F091C038
:103A3000880F991FFC01E958FE4F0190F081E02D9D
:103A400089E090E08FCF82E190E0E6E1F7E08ACF75
:103A500080916D05882309F466CF853009F463CF22
:103A60008091E80083FD5FCF8091E80082FD8ECFDA
:103A70008091E80080FF84CF9091F3008091F20064
:103A80002115310519F08830910550F041E0089773
:103A900009F040E08091E8008E778093E80070CFD5
:103AA00044914093F1003196215031090196E8CFBD
:103AB000803809F04EC08091E800877F8093E8004D
:103AC00080916E058093F1009ECE811142C01091CD
:103AD00071051230F0F58091E800877F8093E8004F
:103AE00010936E050E946104112311F084E005C05B
:103AF0008091E30087FDFACF81E080936D0542E07D
:103B000061EC81E00E94800442E261EC84E00E946A
:103B1000800442E261EC82E00E94800442E260ECB8
:103B200083E00E94800480916D0513C0809171052F
:103B3000813079F481E0933009F080E080936C0566
:103B40001092E9008091E800877F8093E8000E944E
:103B500061048091E80083FF0AC08091E800877FBC
:103B60008093E8008091EB0080628093EB00AA963E
:103B7000E3E00C945C2E0E94EB1A2FEF84E39CE0B0
:103B8000215080409040E1F700C0000088E19CE0B7
:103B90000FB6F894A895809360000FBE90936000D4
:103BA000FFCF90E080E00E94142F883E9E4F19F4D2
:103BB0000E949213089580E0089520911804809146
:103BC0001D048160922F9370933061F09FEF20FD70
:103BD00092EF21FD1DC09093800580931D040E94EB
:103BE0000C0709C01092800580931D0440E060E03E
:103BF00080E00E94090940911804509119046091D5
:103C00001A0470911B048FE090E00E943C2F0895ED
:103C10009DEFE1CF68EE7EEF90E080E00E94482FBC
:103C200060E082E090E00E942A2F60E083E090E074
:103C30000E942A2F1092A00360E084E090E00E948E
:103C40002A2F64E082E290E00E942A2F60E085E063
:103C500090E00E942A2F60E086E090E00E942A2FE8
:103C60006FEF87E090E00E942A2F40E050E0BA0119
:103C700088E090E00E943C2F60E08DE090E00E94A0
:103C80002A2F40E050E0BA0188E190E00E943C2FEA
:103C900060E087E190E00E942A2F40E050E0BA0106
:103CA0008CE190E00E943C2F70E060E080E290E0C8
:103CB0000E94482F40E050E0BA0188E190E00E9465
:103CC0003C2F80E00E94C4120E94DD1240E050E0D0
:103CD000BA018FE090E00E943C2F109218041092DD
:103CE000190410921A0410921B040E94DD1D0895FD
:103CF0008FE090E00E940E2F6093180470931904D7
:103D000080931A0490931B040E94DD1D0895A5E082
:103D1000B0E0EDE8FEE10C94362E7C01FC018381DD
:103D20009481892B31F08081918189238F3F09F023
:103D300034C62596EDE00C94522E0E942A13182FBB
:103D4000682F89819A810E943D1169817A81812F32
:103D50000E941C138C01F7018281882309F40BC691
:103D6000980122513F452031310508F0F2C58FEF0F
:103D700093E00E94062F811130C05EEED52ED00E4A
:103D80000FE313E0D1103BC080911C0190911D0105
:103D9000A0911E01B0911F0189839A83AB83BC83DC
:103DA000BB24B3944AE0A42E68012FEFC21AD20AB2
:103DB000C8010E94062F89831A82882371F09FEF21
:103DC000980F933048F58A83B9820E5F1F4FC60162
:103DD0000E94062F8B83811120C080917C03877005
:103DE00009F4A7CFF7018281882309F4A2CF80913B
:103DF000440582FF9ECF82E00E945D189ACF011594
:103E0000F4E01F0751F3C8010E94062F811101C081
:103E1000DA940F5F1F4FB6CF8601CE0101966C0179
:103E2000F6018081882309F4BFCF813009F047C0B3
:103E300091818281913049F4F2E0CF0ED11C0E9431
:103E40005E19EFEFCE1ADE0AEBCF923031F422E0AA
:103E5000C20ED11C0E94EC18F4CF933031F432E042
:103E6000C30ED11C0E94B718ECCF943021F08FEF15
:103E7000C81AD80AE6CF92E0C90ED11C30E020E083
:103E8000B6016F5F7F4FF60141818053990B8A30F5
:103E9000910550F021503109A0F28FE99FE0019780
:103EA000F1F700C00000F6CFA29EF001A39EF00D36
:103EB00011249C012E0F3F1F842F6B01E1CF0E9424
:103EC000DA19BFCF81E00E9495180E94441885CF6F
:103ED00081E00E945018F9CF82E0F5CF82E0F9CF5F
:103EE0000238FFE51F0708F044C00E3D2CE512071D
:103EF00009F4C7C008F501159CE5190709F47FC04E
:103F0000023CECE51E0709F484C0083D8CE5180767
:103F100009F429C128E241E0093D9CE5190709F4AB
:103F200024C126E241EE61EE073DECE51E0781F576
:103F3000C7010E947E1951CF0038FFE51F0709F421
:103F40000AC1033F2CE5120709F411C1F0F2053F45
:103F5000FCE51F0709F40FC1063F2CE5120709F421
:103F60000EC127E245EE64EE043F3CE5130701F382
:103F70000FC003382FE5120709F479C009383FE56F
:103F8000130709F483C002389FE5190709F465C0D7
:103F9000F7018281882309F411C51092AC0501361E
:103FA000FDE51F0761F008F00AC106313CE5130783
:103FB00008F0E9C002308CE5180708F40BC10E9434
:103FC000AB1390934405809343050631ECE51E073F
:103FD00008F030C10230FCE51F0708F01EC16091F7
:103FE00043051091440584E090E00E942A2F612F40
:103FF00082E290E00E942A2F0E94EB1AEECE8823E4
:1040000039F240E060E084EB0E9409090E942D1221
:10401000BFCF882309F4E1CE80911804982F9170C6
:1040200080FD0AC081FD08C08091180481608093E2
:1040300018040E94DD1DD1CE8091180480FF05C0B8
:1040400081FD03C08C7F8260F2CF911102C081FD9F
:10405000EBCF809118048C7FEACF882309F4BDCE82
:1040600090911804892F8E7F90FF8160E0CF882384
:1040700009F4B3CE90911804892F8D7F91FF82604F
:10408000D6CF811185CF0E94781E82CF90919E035A
:104090009111A3CE8111A1CE04EC11E03AE0B32E30
:1040A000F8018491882309F498CE813009F04FC03B
:1040B0006801FFEFCF1ADF0AF6018491813061F4C5
:1040C0006801F2E0CF0ED11CF60184910E945E19C6
:1040D00086010F5F1F4FE4CF823049F46801F2E0A0
:1040E000CF0ED11CF60184910E94EC18F1CF8330E1
:1040F00049F46801F2E0CF0ED11CF60184910E94D0
:10410000B718E6CF843021F76801F2E0CF0ED11C5A
:10411000F601249190E080E0F60131962053330BB4
:104120002A30310548F0019798F2EFE9FFE0319726
:10413000F1F700C00000F7CFB89EA001B99E500D66
:104140001124C901840F951F24916F01E5CF0E94AE
:10415000DA196801BDCF882309F41CC48FE992E005
:104160000E9405063ACE27E245EE65EEE1CE26E254
:1041700041EE60EEDDCE26E241EE62EED9CE27E2E0
:1041800045EE66EED5CEC8018A5F9C45099708F4D6
:1041900016CF0631FCE51F07E9F480919E038A7A69
:1041A00091E009F490E090931C0369E2811165E3CA
:1041B0008CEF92E00E94CF050E94CE170ECE053AFA
:1041C0009DE5190709F4FBCEC8018D5A9D4503975B
:1041D00008F4F5CE0B352DE5120709F4C8C108F037
:1041E000AFC10E3D8CE5180709F4B4C181E00A3572
:1041F0009DE5190709F4B8C101151C4509F009C16D
:104200000E94EB1A3FEF84E39CE0315080409040E5
:10421000E1F700C000000E940912F801E350FC45DC
:10422000809143058160E331F10568F5EB51F04D74
:104230000C94242E03302DE5120780F40A3F3CE550
:10424000130708F4CCCEF801EB5FFC45E830F1052C
:1042500008F03FC0E850F04D0C94242E0D3A8DE547
:10426000180729F198F40136EDE51E0709F4B0C0EE
:1042700090914305892F8E7F90FF8160053AFDE57F
:104280001F0709F0ACCE80934305A9CE0E3A2DE569
:10429000120709F444C00F3A3DE5130709F09FCE19
:1042A00090914405892F877F93FF886003C0809198
:1042B000440588608093440592CE809143058260D6
:1042C000E2CF809143058460DECF80914305886012
:1042D000DACF809144058160EDCF80914405826002
:1042E000E9CF809143058061CECF80914305806204
:1042F000CACF809143058064C6CF0E94EB1A80919B
:1043000043058068C0CF809143058C60BCCF80910D
:1043100044058360CFCF809143058E7FB4CF8091D9
:104320004405877FC7CF809143058D7FACCF8091B7
:1043300043058B7FA8CF80914305877FA4CF8091D1
:1043400044058E7FB7CF809144058D7FB3CF809198
:1043500043058F7E98CF809143058F7D94CF8091C8
:1043600043058F7B90CF0E94EB1A809143058F7796
:104370008ACF80914305837F86CF809144058C7FCF
:1043800099CF8091430582FB992790F921E09227EC
:1043900090FB82F990FB83F976CF80914405982FAA
:1043A000909591708E7F892B90FB81F983CF0E942D
:1043B000EB1A90914305892F97FB87F9805863CFBB
:1043C00061E08EE090E00E942A2F09CE60E0F9CFF4
:1043D00090914305892F8F7E94FF806154CF809107
:1043E0009E038272063D9CE5190778F4023CECE5D9
:1043F0001E0778F0F801E35CFC45E331F10508F0B5
:104400004FC0E050F04D0C94242E0D35100709F4E8
:10441000E4CCF7018281C080D180882309F4A9C04F
:10442000C6010E942A13182F682FC6010E943D1151
:10443000B601812F0E941C130E94670F8C01782EF9
:10444000F7019280858082942FE0822280917C0304
:104450008770C1F0B92C9920B1F0812F807F803412
:1044600021F080E2800F883068F08091440582FF5F
:1044700009C082E00E945D1880917C038770BB2494
:10448000B3948111B12C812F82958F70C82ED12CBD
:104490008C3008F0DAC0F601ED5EFF4C0C94242E4F
:1044A00080917B0591E0892780937B051092120112
:1044B00080911D04816080931D048FCC43EF56E0F2
:1044C00060E077E00E943E0688CC40E057E063EF72
:1044D00076E0F8CF43EC56E06EEC76E0F3CF4EECAE
:1044E00056E063EC76E0EECF47EA56E065EB76E027
:1044F000E9CF45EB56E067EA76E0E4CF4BE856E0DB
:1045000069E976E0DFCF49E956E06BE876E0DACF9B
:104510004BE556E069E676E0D5CF49E656E06BE537
:1045200076E0D0CF61E081E00E94D90656CC61E010
:1045300085E0FACF61E08DE0F7CF61E082E1F4CF72
:104540000C35FDE51F0749F0073A1D4509F061CF1D
:104550000E94BB1D0E940A1EFBCF8091440582FB76
:10456000882780F991E089270E94791852CF80E04E
:10457000FBCFC6010E940911182F5ACFF12FFF70EF
:10458000AF2E107F19F0A29490EFA922802F9920CE
:10459000B9F0AA2069F090E2900F983010F0011164
:1045A00009C080919E03A82AA0929E030E94CE1764
:1045B000802F49C080919D03A82AA0929D03F6CF29
:1045C0000E94B718AA2009F440C0005E083010F01D
:1045D000711004C08A2D0E94F71006C0A09480912B
:1045E0009D03A822A0929D030E94CE172EC0212FCA
:1045F0002F70A22E107F103219F0A29480EFA82203
:10460000772089F031E0731609F469C0992009F424
:1046100073C0882009F469C0F701958190FFC8CF65
:104620009F70958362C02091440522FD36C0992079
:1046300071F1AA2039F080919E038A2980939E030C
:104640000E94CE1780E00E94EC1898E0C91AD108A9
:10465000E4E0CE16D10410F40E943106BB2009F428
:1046600068CB80917C0380FD64CBF7011282859535
:10467000859585950E949518C7010E94871E809197
:104680007C038595859585950E94501852CB80E0D6
:104690000E94B718AA20C9F29DCF992099F0909155
:1046A0009F03892F8A29811003C00E94AD18CDCFA6
:1046B000E1E08E12FACF22FFC8CF981731F2809333
:1046C0009F03C3CF811006C00E94F1108A2D0E9463
:1046D000A618BBCFF1E08F1609F4B7CFF5CF99201C
:1046E00031F025E0281508F4B0CF8A2DDECF34E074
:1046F000381508F4AACFEACF882041F3093349F4EA
:10470000FFEF27EE33E0F15020403040E1F700C0EA
:104710000000802F0E94B71898CF812F869586952C
:10472000837061F0813009F090CFC80193709110CF
:1047300002C090E080E00E94050687CFC801937018
:10474000911002C090E080E00E941B067ECF802F77
:10475000992029F00E94AF0E0E94CE0D76CF0E94C4
:10476000F40DFACF812F837091F591106ECF402F09
:10477000429546954770440F440F802F8F70042E4A
:1047800001C0880F0A94EAF7202F207104FF07C0A8
:104790002FE030E001C0220F4A95EAF720951695E8
:1047A00016951370123071F0133051F03091A00350
:1047B000113029F0822B83230E94A11846CF832B2E
:1047C000822BFACF282B8091A0038227F5CF8695E4
:1047D000992011F0812F8170882309F436CF402F62
:1047E000429546954770440F440F802F8F70042EDA
:1047F00001C0880F0A94EAF7202F207104FF07C038
:104800002FE030E001C0220F4A95EAF72095169577
:1048100016951370123071F0133051F03091AD05D0
:10482000113029F0822B83230E943F180ECF832B57
:10483000822BFACF282B8091AD058227F5CF1F70F0
:10484000992029F0812F0E949518802F2ECF802F3C
:104850000E94A618812F0E945018F7CE802F92EF49
:104860007916B1F1971570F0E0EF7E16D1F0F1EF07
:104870007F1691F0992009F45CC0811099CE812FA8
:104880008F712AC023EF721651F134EF7312F2CFF9
:104890008091440582FD2FC0812F8F719920D9F21C
:1048A0001BC0992081F084E0881508F4CECE1F71DA
:1048B00081E090E0012E01C0880F0A94EAF7909100
:1048C000AD058927B1CF95E0981508F4BECEEFCF9E
:1048D000812F8F719110BFCF0E949518B6CE80E0C6
:1048E000992009F4A1CF1F7181E0012E01C0880F2A
:1048F0000A94EAF799CF992089F01F71812F0E94BD
:1049000095188091440582FF07C0E8E01E9FC00112
:104910001124836080937C03812FDECF81E00E948D
:104920005D18F1E0F81508F090CE82E00E945D1865
:104930008CCE882059F0893309F0EBCE2FEF37EE7B
:1049400083E0215030408040E1F7E1CE812F8F712C
:1049500082CF0031FFE51F0709F4B4CA01312FE50A
:10496000120709F4B9CA01389FE5190709F0B8CA56
:1049700080EA92E0F5CB00313FE5130709F4A8CABD
:1049800001319FE5190709F4A9CA01383FE513076A
:1049900009F0A6CA90E080E0E3CB85E0DE01119645
:1049A00001900D928A95E1F7F701228189819A8120
:1049B0002111C3C90E940911182FC7C906312CE55E
:1049C000120709F00CCD80911C0369E2811165E3A7
:1049D0008CEF92E00E94A305EFCB1F93CF93DF9360
:1049E00080914903807F09F049C080914603882364
:1049F00009F444C080917B03D0914A036091440341
:104A000070914503A0914703B0914803C62FC72377
:104A100016E0D81799F190E0109711F0CF3F19F4F4
:104A200001968770F6CF189F9001199F300D1124C1
:104A3000F901E55BFC4F41814713F2CF40814613FA
:104A4000EFCF42814111ECCF438154814A1B5B0B74
:104A5000483C510528F7809149038F70806180930D
:104A60004903F901E05BFC4F80818F708061808396
:104A700084E493E00E94871E0E94FF10DF91CF9193
:104A80001F910895ABE0B0E0E8E4F5E20C94392E14
:104A90008C0185E0F801DE01179601900D928A9550
:104AA000E1F7F801E28084E4A82E83E0B82E60915B
:104AB0004703709148036115710509F40EC1909187
:104AC000440340914503842F89238F3F09F405C196
:104AD00020813181C380D480F0904603F601E61B2B
:104AE000F70BFF2009F4C4C080914903582F507F71
:104AF000E83CF10508F09FC051116BC0FE2C431338
:104B000014C0921312C0E11010C08F7080618093A6
:104B10004903C5010E94871E80914903F8018583DE
:104B20008F2D2B96EAE00C94552EC114D10429F058
:104B3000822F83238F3F09F0EBC080E0F82FF170C4
:104B4000DF2EE0917B0340914A0356E080FD1CC0BC
:104B5000EE2031F380914903816080934903F12C69
:104B6000DFCF8E2F90E05E9FF0011124E55BFC4FBC
:104B70006181361306C06081261303C06281E6128C
:104B8000E7CFFC013196E770E413EBCF2F83388732
:104B90008F8198850E945513292F22952F7090326E
:104BA00060F0225F2F70223078F49F7051F0F8018E
:104BB0009581907F31F4D12C0AC09F7011F0882329
:104BC000D1F3805E8830B8F3C8010E94871EFD2CA7
:104BD000A7CF431306C0921304C0F801EE2009F4D6
:104BE00061C0C8010E946413882309F1EE20F9F026
:104BF00080914903803270F0209144033091450345
:104C00003A8329831B82DD82CC828E83CE0101967A
:104C10000E94871E86E0F801A4E4B3E001900D92A3
:104C20008A95E1F70E94ED24FF24F39479CFC8011F
:104C30000E94871EF9CF51110AC084E493E00E94BC
:104C4000871E86E0F50111928A95E9F788CF431314
:104C5000C8CF9213C6CFE110C4CFF8018583C80135
:104C60000E94871E86E0F50111928A95E9F758CFD8
:104C7000E83CF105B8F7FE2CEE20C9F243131FC043
:104C800092131DC08091490380FD10C0982F907F22
:104C900069F0F8018583903F31F0982F907F905F05
:104CA0008F70892B8583C8010E94871E86E0F801DA
:104CB000A4E4B3E001900D928A95E1F731CFC801E9
:104CC0000E9464138111A6CF809149038160809373
:104CD0004903C8010E94871E23CFEE2009F4A7CF05
:104CE000C8010E946413F82E882309F4A0CF86E03F
:104CF000F801A4E4B3E001900D928A95E1F7809168
:104D00004403909145030E9455130E94ED2408CF5F
:104D100081E08E2513CFA7E1B0E0E1E9F6E20C9443
:104D2000402E4B8B5C8B6D8B7E8B8F8B6111109229
:104D30009D031A8A2C898E899F893B893D872E87FE
:104D40006F87998B888B86E0FE013D96DE01179672
:104D500001900D928A95E1F7CE0107960E944225B7
:104D6000882359F016E080917B0390914A038913C0
:104D700049C06796E3E00C945C2E86E0FE0137960E
:104D8000DE01119601900D928A95E1F74A855B85C7
:104D90004115510539F37F816885862F87238F3F21
:104DA00009F320914A0330E0C901019687709927E1
:104DB000E0917B03E817190671F40E94EB1A109238
:104DC0004A0310927B0386E0E4E4F3E0DF011D92E6
:104DD0008A95E9F7C7CF79836A835D834C8396E030
:104DE000929FD001939FB00D1124A55BBC4FFE0193
:104DF000319601900D929A95E1F780934A030E94B3
:104E0000FF10B0CF819FC0011124855B9C4F0E9491
:104E10004225882309F4ADCF80917B0390E0019671
:104E20008770992780937B039ECF1F920F920FB6B6
:104E30000F9211242F933F934F935F936F937F9320
:104E40008F939F93AF93BF93CF93DF93EF93FF9392
:104E5000D091E900DF708091EC00C82FC17080FD17
:104E6000C0E81092E9008091F000877F8093F00005
:104E700078940E94011B1092E9008091F0008860F4
:104E80008093F000CD2BCF70C093E900FF91EF919C
:104E9000DF91CF91BF91AF919F918F917F916F9152
:104EA0005F914F913F912F910F900FBE0F901F90E8
:104EB00018951F920F920FB60F9211242F933F93C4
:104EC0004F935F936F937F938F939F93AF93BF9312
:104ED000EF93FF938091E10082FF09C08091E2008F
:104EE00082FF05C08091E1008B7F8093E10080917B
:104EF000DA0080FF24C08091D80080FF20C080911C
:104F0000DA008E7F8093DA008091D90080FF9BC009
:104F100080E189BD82E189BD09B400FEFDCF81E059
:104F200080936D0580914805811109C00E94E703B7
:104F30000E94B2048091E20084608093E20080913C
:104F4000E10080FF17C08091E20080FF13C08091D4
:104F5000E2008E7F8093E2008091E2008061809386
:104F6000E2008091D80080628093D80019BC85E06F
:104F700080936D058091E10084FF29C08091E2005B
:104F800084FF25C080E189BD82E189BD09B400FEAE
:104F9000FDCF8091D8008F7D8093D8008091E10073
:104FA0008F7E8093E1008091E2008F7E8093E2000B
:104FB0008091E20081608093E20080916E058823F9
:104FC00009F447C084E080936D0580916D05809160
:104FD000E10083FF27C08091E20083FF23C080911E
:104FE000E100877F8093E10082E080936D0510925D
:104FF0006E058091E1008E7F8093E1008091E20058
:105000008E7F8093E2008091E20080618093E200D5
:1050100042E060E080E00E9480048091F0008860BF
:105020008093F000FF91EF91BF91AF919F918F918D
:105030007F916F915F914F913F912F910F900FBE94
:105040000F901F90189519BC10926D05109248058D
:1050500076CF8091E30087FD02C081E0B4CF83E08A
:10506000B2CF78941F921FB61F9211248F939F93F3
:10507000AF93BF9380913F0590914005A09141056A
:10508000B09142050196A11DB11D80933F059093FB
:105090004005A0934105B0934205BF91AF919F9108
:1050A0008F911F901FBE1F9018951F921FB61F92C1
:1050B00011248F939F93AF93BF9380913E058111ED
:1050C00013C080913F0590914005A0914105B0919A
:1050D00042054196A11DB11D80933F059093400567
:1050E000A0934105B0934205BF91AF919F918F91DD
:1050F0001F901FBE1F901895CDB7DEB7AB970FB6A8
:10510000F894DEBF0FBECDBF85B7806885BF85B779
:10511000806885BF84B7877F84BF0FB6F894A89551
:1051200080916000886180936000109260000FBEE3
:1051300080E890E00FB6F89480936100909361004E
:105140000FBE89E09FE09093FB028093FA020E94D9
:10515000E7030E94B2048091E20084608093E20041
:10516000789480916D058823A1F01091E9001F705B
:105170009091EC00892F817090FD80E8182B10929F
:10518000E9008091E80083FD0E94011B1F701093CD
:10519000E90082E084BD93E095BD9AEF97BD8093CE
:1051A0006E000E949213811102C00E94DD120EE473
:1051B00011E037E5E32E31E0F32ED8018D918D011A
:1051C0008F3F11F00E940B0FE016F106B1F707E5D3
:1051D00011E022E6E22E21E0F22EF80181918F010A
:1051E0008F3F11F00E940B0FE016F106B1F782E13C
:1051F000ECECF3E0DF01282F1D922A95E9F7E4EAB1
:10520000F3E0DF011D928A95E9F70E94D11D81111B
:1052100002C00E940A1E82E090E00E94062F809346
:10522000B8030E94AB1390934405809343050E94FA
:10523000371ABFEFE6E7F1E0B150E040F040E1F7A8
:1052400000C000000E94371A8091CC0385FF08C07F
:105250006FEF7FEF90E080E00E94482F0E940912DC
:1052600083E090E00E94062F0E94A1181092810511
:105270008FEF9FEF90939B0580939A0590939D05E8
:1052800080939C0590939F0580939E059093A10524
:105290008093A0059093A3058093A2059093A50504
:1052A0008093A4059093A7058093A6059093A905E4
:1052B0008093A8051092EB03909305048093040457
:1052C0009093070480930604909309048093080444
:1052D00090930B0480930A0490930D0480930C0424
:1052E00090930F0480930E04909311048093100404
:1052F00090931304809312040E94D11D811104C065
:105300000E940A1E0E94BA1746E050E06CE170E06D
:105310008BE795E00E94F62E10921D0480917B058C
:105320008C7F11F40E94BA170E94781E84E091E0ED
:1053300090933B0580933A057724739480916D0593
:10534000853089F480E4F82E93E0E92E00E112E143
:1053500080916D05853009F4D1C00E94EB1A0E943E
:10536000310610921C040E94371A89EB93E09AA32D
:1053700089A30CECE02E03E0F02ED701FC01219173
:1053800031918D919D914BEC53E04E175F0709F4DD
:1053900006C12817390799F31DE7212E11E0312E98
:1053A0008CEC93E098A78FA3612CAFA1B8A5CD900A
:1053B000DD90B8A7AFA3E9A1FAA181919191FAA3D9
:1053C000E9A38C159D0509F48FC09C012C253D2572
:1053D0003BA72AA73EA22DA2512CAA24A394B12C0C
:1053E0008AA59BA58A219B21892B09F46DC0860182
:1053F0000A211B2159826A8281E00115110509F4F5
:1054000080E08B830E9497058160782F9D838C8339
:1054100049815A816B818D810E948B26012B31F04D
:10542000ADA1BEA18C918F3F09F0E0C1412C042DAC
:1054300010E08091EB03800F912F911D09976CF183
:10544000E8E08E2E912C801A910AB80164517C4FAD
:10545000A4018CEE93E00E94ED2EB8016C507C4FBD
:10546000A40184EF93E00E94ED2EA401440F551F88
:10547000B801660F771F6C5F7B4F84E094E00E9459
:10548000ED2EB80164507C4FA4018CEF93E00E9494
:10549000ED2E88E084198093EB038091EB0390E07C
:1054A000E9A5AE2FB0E09D01220F331F20523E4FE1
:1054B000AA0FBB1FBD016F517E4F41E0480F9415ED
:1054C00008F498C18093EB035394AA0CBB1CEDA184
:1054D000FEA13196FEA3EDA3FBE05F1281CFE9A10F
:1054E000FAA13297D182C08263942BE0220E311C44
:1054F00039E063125ACF0E947A0573C080916D051E
:10550000843009F439C00E94D21680911C048111A4
:105510000DC00E94DD131092110180917B058370F4
:10552000809310010E942D12E092120121E020933D
:105530001C0410923E0548E150E00FB6F894A8957F
:10554000409360000FBEF092600083B7817F84605B
:1055500083BF83B7816083BF7894889583B78E7F3C
:1055600083BF0FB6F894A8958091600088618093FE
:105570006000109260000FBE80916C05882309F4D2
:10558000E7CE0E94371AECECF3E081919191892BE0
:1055900009F0FDC253E0EE3DF507B9F7D9CE281763
:1055A000390709F0F9CE0E9497058C018091B60366
:1055B0009091B70308171907A1F08FEF89838A83A9
:1055C0001B820E9497058160782F9D838C8349817F
:1055D0005A816B818D810E948B261093B7030093B3
:1055E000B6030E94D21686E0E5EEF3E0DE011196E6
:1055F00001900D928A95E1F71092E7031092E8036B
:105600001092E9031092EA038B819C81892B09F4A3
:105610004AC08091E3039091E4030E946B059C01D2
:105620008091DF03882309F4D6C225313105D8F1F2
:105630008F3F19F08F5F8093DF031B81112359F097
:105640000E948F0E9FEF11160CF491E0899F802D20
:1056500011248093E7031C81112359F00E948F0EBF
:105660009FEF11160CF491E0899F802D11248093F7
:10567000E8033091E7033323B1F02091E8032223BC
:1056800091F045EB3403C0011124992309F4C8C0FB
:105690009093E70355EB250390011124332309F47C
:1056A000C2C03093E8038D819E81892B09F44AC0E2
:1056B0008091E1039091E2030E946B059C0180912F
:1056C000DE03882309F482C221353105D8F18F3FEA
:1056D00019F08F5F8093DE031D81112359F00E9422
:1056E0006D0E9FEF11160CF491E0899F802D11240F
:1056F0008093E9031E81112359F00E946D0E9FEFE4
:1057000011160CF491E0899F802D11248093EA03F7
:105710003091E9033323B1F02091EA03222391F081
:1057200045EB3403C0011124992309F47FC0909301
:10573000E90355EB250390011124332309F479C0C3
:105740003093EA0346E050E0BE016F5F7F4F85EE85
:1057500093E00E94E02E892B61F48091E703909101
:10576000E803892B9091E903892B9091EA03892B17
:1057700011F00E94CE0D86E0FE013196A5EEB3E059
:1057800001900D928A95E1F70E9431069091CB032A
:10579000891721F08093CB030E947A0580916D05D3
:1057A000843009F0CBCD83E08093E9008091E8005C
:1057B00082FFC4CD8091E80090E085FF05C00E9483
:1057C00006048823C9F191E08091E8008B778093EB
:1057D000E800992309F4B2CDE981E150E33108F002
:1057E000A9C0F0E0E15EFF4C0C94242E89A744246C
:1057F00043941DCE90E0FC01E551FC4FD9015C9132
:105800005183DB015C915187B9A5B18B880F991F3A
:10581000FC01E551FC4F128E118E842F91E04DCE8C
:105820007092E70337CF7092E8033DCF7092E9039F
:1058300080CF7092EA0386CF00E210E0CE0101969D
:105840006C018091E80085FD0AC08091E8008B77AB
:105850008093E8000E940604882399F3B4CF8091D6
:10586000F100D6018D936D010150110951F7ABCFB5
:105870001A828AE08B8311C08A81823009F49DC12B
:10588000833091F1813009F055C00E947A050E9461
:105890002A2E6B837C838D839E8380916D0584305B
:1058A00009F04CCD1091E9001F709091EC00892F08
:1058B000817090FD80E8182B82E08093E900809150
:1058C000E80080FF0DC050E040E060E270E0CE01F3
:1058D00001960E9437048091E8008E778093E8005B
:1058E0001F701093E9002ACDFE013196D7018C91EB
:1058F00011969C91B2E0EB0EF11C92838383329659
:105900002EEDE21623E0F20689F7C7CF8A818230B6
:1059100089F48B819C81AD81BE8189A39AA3ABA3BD
:10592000BCA3BC01CD010E942A2E86E290E00E9419
:105930002A2FB3CF8FEF8983B0CF4C816B818A81BF
:105940000E94ED129827892798279E838D83A5CFE3
:105950002D813E813227232732274C816B818A811A
:105960000E9464129ACF0E948B1297CF8A8182384C
:1059700099F1C0F48038F9F0813809F08ECF60E0F9
:105980008B810E94D9068B81811123C080917B0578
:10599000837011F01092120180917B058C7F8093AF
:1059A0007B057BCF833809F078CF8B8120E0409155
:1059B0007E056C810AC04B8124EB429F412D11244E
:1059C00080917C0520E060917D0590E00E94770643
:1059D00064CF0E940C0761CFEB818FE7E43020F4A5
:1059E000F0E0EE59FE4F808180937F0556CF8A818B
:1059F000823809F150F4803891F0813809F04DCFA8
:105A000080917B058695869535CF833809F045CF03
:105A100080917C058B8380917D058C833ECF809126
:105A20007E05AFEF8A9FC001112464EB70E00E94F5
:105A3000FC2D6B8332CF80917F05873230F08F351C
:105A400030F08E3930F083E015CF80E013CF81E065
:105A500011CF82E00FCF0E94C7161FCF80E18A834B
:105A60001CCF1A8281EC06CF0A811B8110270127E7
:105A70001027FE0131967F01CC809F012C0D311D36
:105A80006901C801815C9C4FCE14DF0409F405CF85
:105A9000013C110558F40E94062FD70114968C93EF
:105AA0000F5F1F4FFFEFEF1AFF0AEBCFF7011482D2
:105AB000F7CF0A811B811027012710279E012F5F36
:105AC0003F4F6901EC80E00EF12EF11CC801815CB2
:105AD0009C4F0E151F0509F4E0CE013C110528F47A
