:100000000C945C040C9494040C9494040C94940448
:100010000C9494040C9494040C9494040C94940400
:100020000C9494040C9494040C94D1210C948D2180
:100030000C94CD220C9494040C9494040C94940489
:100040000C9494040C9494040C9494040C949404D0
:100050000C94F4220C94A9220C9494040C9494040F
:100060000C9494040C9494040C9494040C949404B0
:100070000C9494040C9494040C9494040C949404A0
:100080000C9494040C9494040C9494040C94940490
:100090000C9494040C9494040C9494040C94940480
:1000A0000C9494040C9494040C9494040501090297
:1000B000A10185020901A1000509190129081500FE
:1000C0002501950875018102050109300931158165
:1000D000257F95027508810609381581257F9501D0
:1000E00075088106050C0A38021581257F95017572
:1000F000088106C0C005010980A101850319012AF4
:10010000B700150126B700950175108100C0050CD8
:100110000901A101850419012AA002150126A002E6
:10012000950175108100C005010906A1018506052C
:100130000719E029E71500250195087501810205D9
:1001400007190029EF1500250195F07501810205B9
:10015000081901290595057501910295017503910D
:1001600001C00660FF0961A1010962150026FF00B8
:100170009520750881020963150026FF00952075FA
:10018000089102C005010906A101050719E029E748
:1001900015002501950875018102950175088101F9
:1001A0000507190029FF150026FF0095067508812F
:1001B000000508190129059505750191029501753C
:1001C000039101C0000000000000000000000000DA
:1001D000000000000000000000000000000000001F
:1001E00000000000000000007E0F00D4FFFFFFC7EA
:1001F0000000007800000000000000002A2B28000A
:1002000000000000000000000000000000000029C5
:10021000000000002C1E3420212224342627252E05
:10022000362D3738271E1F2021222324252633333D
:10023000362E37381F0405060708090A0B0C0D0E69
:100240000F101112131415161718191A1B1C1D2F35
:100250003130232D350405060708090A0B0C0D0E55
:100260000F101112131415161718191A1B1C1D2F15
:100270003130354C00047F3F1F64321464321478EF
:100280003C1E1E140A0500010101010101010101CA
:100290000202020202020202020303030303030337
:1002A0000304040404040404050505050506060604
:1002B0000606070707070708080808090909090AC1
:1002C0000A0A0B0B0B0C0C0C0D0D0D0E0E0E0F0F66
:1002D0000F101011111112121313141415151616F4
:1002E0001717181819191A1A1B1B1C1D1D1E1E1F63
:1002F0002020212222232424252626272829292AB2
:100300002B2C2D2D2E2F30313232333435363738D9
:10031000393A3B3C3D3E3F404142434445464748D5
:10032000494A4C4D4E4F50515354555658595A5BAB
:100330005D5E5F616264656668696B6C6D6F70724B
:10034000737577787A7B7D7E8082838587888A8CB7
:100350008E8F91939596989A9C9EA0A2A3A5A7A9EB
:10036000ABADAFB1B3B5B7BABCBEC0C2C4C6C9CBE2
:10037000CDCFD1D4D6D8DBDDDFE2E4E7E9EBEEF098
:10038000F3F5F8FAFDFFFFAA7F5540222325262822
:10039000292A2C2D2F3032333536383A3B3D3E401A
:1003A00042434547494A4C4E5051535557595A5C60
:1003B0005E6062646668696B6D6F71737577797B77
:1003C0007D7F81838587898A8C8E90929496989A76
:1003D0009C9E9FA1A3A5A7A8AAACAEAFB1B3B4B68B
:1003E000B8B9BBBCBEBFC1C2C3C5C6C7C9CACBCCE6
:1003F000CDCED0D1D2D2D3D4D5D6D7D7D8D9D9DAB9
:10040000DADBDBDBDCDCDCDCDCDDDDDDDDDCDCDC2D
:10041000DCDCDBDBDBDADAD9D9D8D7D7D6D5D4D355
:10042000D2D2D1D0CECDCCCBCAC9C7C6C5C3C2C12A
:10043000BFBEBCBBB9B8B6B4B3B1AFAEACAAA8A787
:10044000A5A3A19F9E9C9A98969492908E8C8A893F
:10045000878583817F7D7B79777573716F6D6B691C
:1004600068666462605E5C5A5957555351504E4CF1
:100470004A4947454342403E3D3B3A3836353332A0
:10048000302F2D2C2A2928262523220000000000A9
:1004900000000000000001010203040506080A0C28
:1004A0000F1114181C2024292E33393F464C535B5E
:1004B000626A7179818A929AA2AAB2B9C1C8CFD56B
:1004C000DCE1E7EBF0F4F7FAFCFDFEFFFEFDFCFAE1
:1004D000F7F4F0EBE7E1DCD5CFC8C1B9B2AAA29A34
:1004E000928A8179716A625B534C463F39332E2977
:1004F00024201C1814110F0C0A080605040302011D
:100500000100000000000000000000E000E10039F0
:10051000002B003500290000000000000000000052
:1005200000E3006400040014001E003A0000000014
:1005300000000000000000E2001D0016001A001F6D
:10054000003B00000000004C004A0049004F001B27
:10055000000700080020003C0052000000280000B6
:10056000004500510006000900150021003D00E58E
:1005700000320030002E004400500019000A00171D
:100580000022003E00380034002F002D0043002CD4
:100590000005000B001C0023003F000000000000CD
:1005A000002A000151E40011000D00180024004051
:1005B0000037003300130027004200E60010000E51
:1005C000000C002500410036000F0012002600003C
:1005D0000001000100010001000100005C000000BA
:1005E00000000000000000010001000100C25C01E9
:1005F00000010000000000000000000000010001F8
:1006000000010001000100010000000000010001E4
:1006100000A800C05C01000100C35C01000100BE35
:100620005C0000010000000100BD5CBD5C0100C574
:100630005C0100010001000100010001000100BF98
:100640005CBF5C0100C65C0100010001000100010B
:1006500000010001000100BE5C0100C75C01000157
:1006600000000000000000010001000100145C0116
:1006700000C85C010001000100010001000100014F
:1006800000010001000100C95C010001000100013E
:1006900000CA5C010000000100010001000100012E
:1006A0000001000000000000000000000001000147
:1006B0000001000100010001000000000000000036
:1006C0000000000100010001000100010001000024
:1006D0000000000100010001000100010001000113
:1006E0000001000100010000000100000001000104
:1006F00000010001000100010001000100010001F2
:1007000000010001000100010001000100010001E1
:1007100000010001000100010001000100010001D1
:1007200000010001000100000000000000010001C4
:1007300000010001000100010001000100010001B1
:1007400000010001000100010001000100010001A1
:100750000001000100010001000100000001000192
:100760000001000100010001000000000000000085
:100770000000000100010001000100010001000073
:100780000000000000000000000100010001000165
:100790000001000100000000000100010001000153
:1007A0000001000100010001000100010000000142
:1007B0000000000100010001000100010001000132
:1007C0000001000100010001000100010001000121
:1007D0000001000100010001000100010001000111
:1007E0000001000100010001000100010000000003
:1007F00000000001000100010001000100010001F2
:1008000000010001000100010001000100010001E0
:1008100000010001000100010001000100010001D0
:1008200000000009025B00030100A0FA09040000B7
:100830000103010100092111010001224000070507
:1008400081030800010904010002030000000921DE
:100850001101000122220007058203200001070583
:100860000303200001090402000103000000092124
:100870001101000122B600070584032000011201C6
:10088000000200000008646981000100010200010B
:100890001203490044003800300020004900530092
:1008A0004F0000000E03490044004F004200410089
:1008B0004F0000000403090411241FBECFEFDAE04B
:1008C000DEBFCDBF04B603FE18C080911D0390911A
:1008D0001E03A0911F03B09120038730904BA740C7
:1008E000B04B59F410921D0310921E0310921F0377
:1008F00010922003E0E0F8E3099511E0A0E0B1E0F8
:10090000E8E4F6E502C005900D92A639B107D9F7E3
:1009100023E0A6E9B1E001C01D92AD31B207E1F7D5
:100920000E9478230C94C42A0C940000E8EDF0E0B7
:1009300080818E7F80831092E2001092DA00109204
:10094000E100A0EEB0E08C9181608C9380818F7784
:10095000808319BCA7EDB0E08C918E7F8C93808151
:100960008F7E80831092EA0208952091E4003091F6
:10097000E50095E6A9012091EC00822F817020FF0F
:1009800006C08091E80080FF06C080E008952091B5
:10099000E80022FD1AC080910F03882389F085307A
:1009A00089F08091EB0085FD0FC02091E40030912B
:1009B000E50042175307F9F29150E1F684E00895FB
:1009C00082E0089583E0089581E00895EF92FF9218
:1009D0000F931F93CF937C018B010E94B504C82F06
:1009E000811117C08091E80085FD0BC08091E8005F
:1009F0008E778093E8000E94B504882399F3C82F6E
:100A000008C0F70181917F018093F1000150110925
:100A100049F78C2FCF911F910F91FF90EF90089580
:100A20008091110387FF13C08091E80082FF06C008
:100A30008091E8008B778093E80004C080910F03D9
:100A40008111F2CF089580910F038823D9F380910B
:100A5000E80080FFF8CF8091E8008E77ECCF982FE8
:100A60009093E900242F762F50E0891731F0709190
:100A7000EC002091ED005091F00021FD07C09F5F38
:100A8000973071F78093E90081E008953091EB0091
:100A90003E7F3093EB003091ED003D7F3093ED00D1
:100AA0003091EB0031603093EB007093EC002093B9
:100AB000ED005093F0002091EE0027FDE0CF80E0A4
:100AC0000895B0E0A0E0E7E6F5E00C94292AC8ED2F
:100AD000D0E088818F7E8883E7EDF0E080818160BF
:100AE000808384E082BF81E08093EA0288818E7FE8
:100AF000888302EE10E0F80110821092DA0081EE95
:100B0000C82ED12CF601108288818F778883888146
:100B10008068888388818F7D888319BC10920F0339
:100B20001092100310920E0310920D0390EEE92E16
:100B3000F12CF70180818B7F80838881816088839D
:100B400042E060E080E00E942F05F60180818E7F08
:100B50008083F801808181608083808188608083C8
:100B6000F70180818E7F8083888180618883CDB703
:100B7000DEB7E8E00C94452AFC01CB012091170375
:100B8000309118032617370790F0009729F4209129
:100B9000E8002E772093E80040E0009751F44111DF
:100BA00008C08091E80082FF31C080E00895C9014B
:100BB000F3CF20910F032223A9F12530A9F1209131
:100BC000E80023FD2DC02091E80022FDEACF20910E
:100BD000E80020FFE2CF3091F3002091F20000976F
:100BE00019F02830310558F041E02830310509F07E
:100BF00040E02091E8002E772093E800CECF41918D
:100C00004093F10001972F5F3F4FE9CF80910F0391
:100C1000882341F0853041F08091E80083FFC1CF07
:100C200081E0089582E0089583E008950895809119
:100C3000EC0208959C014FB7F8948091E1029091E5
:100C4000E202A091E302B091E4024FBF821B930B3A
:100C500008952FB7F8948091E1029091E202A0915B
:100C6000E302B091E4022FBF08959C0180911B0123
:100C70008823C9F08091E50287FF15C0E62FE6952D
:100C8000E695E695603FE0F4E20FF32FF11D677003
:100C900081E090E001C0880F6A95EAF78095928123
:100CA000892382830895F9013296285F3F4F81910D
:100CB000681303C0DF0111971C92E217F307B9F71D
:100CC00008959C0180911B018823C1F08091E50269
:100CD00087FF14C0E62FE695E695E695603FF8F4A9
:100CE000E20FF32FF11D677021E030E001C0220F09
:100CF0006A95EAF78281822B82830895F901329600
:100D00008FEF90E04191641751F08F3F19F441113A
:100D100001C0892F9F5F9630A9F78F3F09F408958E
:100D2000280F311D87FD3A95F901628308952091BE
:100D3000DE023091DF022817390771F09093DF024D
:100D40008093DE02E091DC02F091DD02309721F029
:100D50000084F185E02D099508952091DA02309103
:100D6000DB022817390771F09093DB028093DA02D7
:100D7000E091DC02F091DD02309721F00680F781EE
:100D8000E02D09950895E091DC02F091DD023097A5
:100D900029F00190F081E02D0995089580E00895F3
:100DA000A8E0B0E0E6EDF6E00C942D2A8C018091ED
:100DB0008600909187006CE070E00E949729601790
:100DC000710750F0C80169E070E00E949729CB01DB
:100DD0002896E4E00C94492A80918600909187003F
:100DE00020918600309187003E832D8320918600DC
:100DF00030918700E6E0F0E0BF010E949729C8012A
:100E0000B0E0A0E0860F971FA11DB11DAC01BD0190
:100E100085E0440F551F661F771F8A95D1F74983D8
:100E20005A836B837C838D819E81BF010E949729A9
:100E300050E040E0260F371F411D511D69817A8126
:100E40008B819C810E94BF2929833A834B835C83D9
:100E5000E0918600F0918700CA01B9010E947929CA
:100E6000DF019B01AC010E940C2A6D837E838F837E
:100E700098879B01AC0169817A818B819C810E945A
:100E8000792969837A838B839C83DC01CB012FE0F2
:100E9000B695A795979587952A95D1F740918600A5
:100EA0005091870070E060E0481759076A077B0798
:100EB00008F08ECF809186009091870089CFA4E0C2
:100EC000B0E0E5E6F7E00C942F2A843008F58111B4
:100ED00020C0909180009F7D909380002E98A091DB
:100EE0008600B0918700282F30E00E94F62923E089
:100EF00030E040E050E00E94BF29C9010E94D006C6
:100F000090938B0080938A002496E2E00C944B2A05
:100F100083E090918000906290938000E0CF282F32
:100F2000220F220F220F9091D6029770922B90934E
:100F3000D602987F21E009F420E09091D60220FBB0
:100F400090F99093D6020E945F070895FA018823D2
:100F500011F009950895FB01FCCF08958091D1020D
:100F6000982F9E7F61F4817082608093D10280917E
:100F7000D402853B18F084EB8093D40208958A3420
:100F8000B0F381708864F1CFB0E0A0E0EAECF7E064
:100F90000C94252AD82EC62EE901E42FF0E0EA575A
:100FA000FD4F61110BC04491942FE42FE9834883D6
:100FB0009A83CDB7DEB7ECE00C94412A062F10E0FF
:100FC000E49186E0D89E700111242FEF30E0C70134
:100FD000B9010E9497298D2D90E0880F991FF5E5A2
:100FE000F69FA001F79F500D1124841B950B982F9D
:100FF000990F890FA901401B510BE49FD001E59F78
:10100000B00D11244B2FC89E60011124CD2CDD247E
:101010005901AC18BD08EA9D6001EB9DD00C11246C
:101020009D2D4901881A9108809E5001819EB00C27
:10103000909EB00C1124AB2CBB242A193B09E29FD3
:101040008001E39F100D112463307105D1F08CEF06
:10105000E81683E0F80670F461307105B1F0623093
:101060007105B9F08FEFE816F10408F09FCF9B2FC0
:10107000412F9CCF6430710579F066307105B9F36A
:1010800095CF4D2D9E2FEB2F91CF4E2FED2D9B2FDA
:101090008DCF912F4E2FF7CF9E2FE12F87CF0E941C
:1010A00029062091860230918702232B21F080931C
:1010B0008202909383022091880230918902232B2F
:1010C00021F08093800290938102E091DC02F09104
:1010D000DD02309749F082E0809384020480F5813C
:1010E000E02D84E892E00995089540918602803FC2
:1010F00059F48091870287FF0DC010928702411139
:101100000BC010927E0208C0813F81F4809187025B
:1011100018169CF3442381F08091880290918902F3
:10112000892B09F05AC010927D020895823F49F43C
:1011300047FFF0CF10928602809187028111ECCF99
:10114000E0CF833F19F41416ACF3E4CF90918802FA
:10115000893F29F41916F4F610928802DBCF8A3FF2
:1011600019F497FFD7CFF8CF909189028B3F29F4DC
:1011700097FFD0CF10928902CDCF8C3F19F419166A
:10118000CCF3C8CF9CE0980F953090F4845F990B16
:1011900021E030E0B90102C0660F771F8A95E2F7BF
:1011A000CB01809590918502892380938502B2CFEF
:1011B0008D3F31F480917F028E7F80937F02AACF92
:1011C0008E3F21F480917F028D7FF7CF8F3F09F012
:1011D000A1CF80917F028B7FF0CF089580917F0215
:1011E00080FD16C081FD16C082FD16C080917D0273
:1011F0008823A1F0883280F428E0829FC001112466
:1012000068E270E00E94AB29862F672B39F00895C1
:1012100082E0089584E0089588E0089581E00895CB
:1012200080917F0280FD14C081FD14C082FD16C034
:1012300080917E02882381F08E3180F420E5829FA8
:10124000C00111246EE170E00E94AB29862F089541
:1012500084E1089588E2089588E0089580E508957E
:10126000803F31F40E941009819580938702089590
:10127000813F19F40E941009F8CF823F31F40E9497
:1012800010098195809386020895833F19F40E9486
:101290001009F8CF893F29F40E94EE088093880254
:1012A00008958A3F21F40E94EE088195F7CF8B3F85
:1012B00031F40E94EE0881958093890208958C3F55
:1012C00019F40E94EE08F8CF9CE0980F953070F466
:1012D000845F990B21E030E001C0220F8A95EAF784
:1012E00080918502822B8093850208958D3F31F491
:1012F00080917F02816080937F0208958E3F21F468
:1013000080917F028260F7CF8F3FB9F780917F0293
:101310008460F1CF80E00895F894E82FE295EF70B3
:10132000F0E041A18F7021E030E0B90102C0660F0A
:10133000771F8A95E2F7CB01962F9095942391A37E
:1013400092A1892B82A3789408959091E50292FF4F
:1013500006C0282F28712830F9F4877F846093FF16
:1013600006C0282F28712831F1F4877E84612091EE
:10137000E60220FF06C0382F38713830D9F4877F55
:10138000816021FF06C0282F28712831D1F4877E83
:10139000816194FD877E0895282F24712430F9F609
:1013A0008B7F8860DCCF282F2471243101F78B7E5E
:1013B0008861DDCF382F3171313019F78E7F886029
:1013C000E0CF282F2171213121F78E7E8861E1CF76
:1013D000CF93DF93EC01803E910509F467C058F587
:1013E0008133910509F4AFC090F48932910509F475
:1013F0009FC08A9709F4AEC0C130D10509F469C015
:10140000CE010497813A910508F05CC062C089332F
:10141000910509F43FC082389105E1F1C59709F4BF
:1014200082C0C83AD10508F09CC0C53AD10520F366
:10143000A497D0644EC0843E910509F459C070F45D
:10144000823E910509F441C0833E910509F445C0EF
:10145000CE01805E91090897A8F53BC0863E9105B4
:1014600009F451C0873E910509F452C0811522E567
:10147000920708F0A8C0811531E5930708F0F9C07C
:101480008F3F910511F008F07BC0803F910548F235
:10149000D0651FC08091E502837009F01AC1809168
:1014A000E60283FF16C0C9E2D0E013C08091E502D6
:1014B00080FD46C09091E60290FF0BC0C3EED0E0E5
:1014C00084FF07C0D0E0C0E004C08091E50282FD47
:1014D000F5CFCE01DF91CF9108958091E50282FD95
:1014E000F5C09091E60290FDF4C084FFF2CFEACF00
:1014F0008091E60281FFEDCF8091E502C7EED0E05A
:1015000084FDE0CFE6CF8091E50283FDF7CFE1CF08
:101510008091E50283FDE0C09091E60291FFE5CF66
:10152000C4EED0E0D6CF8091E50285FFD2CFBBCF0D
:101530008091E50285FDD3C08091E60283FFC9CF8B
:10154000C9E3D0E0C6CF8091E50286FFC2CFCAE2F0
:10155000D0E0BFCF8091E50286FFBBCFC1E3D0E0F2
:10156000B8CFCF3BD10508F073CFC85AD0E0CC0F2D
:10157000DD1FC05EDE4F0990D881C02DD464A9CF95
:10158000811540E5940760F4C11580E4D80708F0A0
:101590006DC0CE019A9581159F4108F49ACF92CFE4
:1015A0008370992721E030E002C0220F331F8A9513
:1015B000E2F7C695C69540E2C49FE0011124C22B14
:1015C000D32BDD6886CFC11586E5D80738F5C11560
:1015D00025E5D20708F061C0C11534E5D307C8F48A
:1015E0009E01237033279C2F96959695C115D34560
:1015F00008F044C0C1E0D0E002C0CC0FDD1F2A9546
:10160000E2F720E2929FC0011124C82BD92BDC689D
:1016100060CFDC2FCC27C46FD06A5BCFC1153AE511
:10162000D30788F4C11549E5D40708F041C0CE01BD
:1016300098558F3F910511F008F044CFDC2FCC274F
:10164000C06FD06A46CFCE0190568115904208F007
:1016500039CF8D2F8F710E94A50990E0982F882790
:1016600088279F719C012C2BE90120C0DF70D06A74
:1016700030CFD82FCC27C16FD06A2BCFC1E0D0E0BC
:1016800002C0CC0FDD1F2A95E2F730E2939FC00124
:101690001124C82BD92BDA681CCF8C2F0E94A509E6
:1016A000C82FD0E0DC2FCC27CC27DF71D06211CF40
:1016B0008C2F8F700E94A50934E0D695C7953A9576
:1016C000E1F7CF70DC2FC82FD06903CFC2EED0E096
:1016D00000CFC0EED0E0FDCEC6EED0E0FACEC5E33E
:1016E000D0E0F7CE80913B02811110923B02089529
:1016F000982F909580913A02892380933A02089519
:10170000809117029091E601981301C008958F5FB0
:101710008770FACF292F993078F58B3068F590E0F3
:101720003BE0239F800D911D1124682F677023E0FB
:10173000969587952A95E1F7FC01EE0FFF1FE80FBC
:10174000F91FE754FE4F50E040E080E0219130E087
:10175000062E02C0369527950A94E2F721703327AA
:10176000042E01C0220F0A94EAF7822B4F5F5F4FCD
:101770004330510559F7089580E00895292F993095
:1017800090F58B3080F590E03BE0239F800D911D1C
:101790001124282F277041E001C0440F2A95EAF751
:1017A00023E0969587952A95E1F7FC01EE0FFF1F40
:1017B000E80FF91FE754FE4F90E080E070E0519190
:1017C000DF0111979B01082E02C0369527950A94D8
:1017D000E2F7217021952527242325272C930196B4
:1017E0008330910561F7089581FD02C0479A0895FD
:1017F000479808958093E7027093E9026093E802A6
:1018000080910F038430F9F48093E9008FEF909179
:10181000E800815095FD06C095ED9A95F1F700001E
:101820008111F5CF8091E80085FF0DC050E040E0C8
:1018300063E070E087EE92E00E94E6048091E800A9
:101840008E778093E8000895BC0184E00E94FA0B33
:101850000895BC0183E00E94FA0B089524E02093D0
:10186000E9002FEF3091E800215035FD06C035ED3D
:101870003A95F1F700002111F5CF2091E80025FFFE
:101880000BC050E040E066E070E00E94E60480910A
:10189000E8008E778093E8000895CF93DF93D82FE8
:1018A000C92F80911B018823C1F18091E50287FF38
:1018B00034C060E284E08093E9008FEF9091E8000B
:1018C000815095FD06C095ED9A95F1F700008111C4
:1018D000F5CF8091E80085FF1DC080911B0170E06D
:1018E00050E040E0811104C050E040E068E070E06A
:1018F0008D2F9C2F0E94E6048091E8008E778093C4
:10190000E80080E2ED2FFC2FADEEB2E001900D92E9
:101910008A95E1F7DF91CF91089568E081E0CBCF20
:1019200081E08093E00080E28093D8001092C900AB
:101930008FE19EE40197F1F700C0000087E090EB93
:10194000DC0180931D0390931E03A0931F03B093AB
:10195000200388E19CE00FB6F894A895809360007E
:101960000FBE90936000FFCF8091D10280FD0AC02E
:10197000E5E9F2E0118210821282339652E0E13DF5
:10198000F507C1F76A9A3EB13B7F2EB124604FB78D
:10199000F89485E992E0FC010196508168E02EB947
:1019A000000000C057FF3EB9550F000000C000C046
:1019B00000C03EB900C06A9591F752E0813D95079D
:1019C00051F74FBF8FE594E00197F1F700C0000099
:1019D0000895EF92FF920F931F93CF93DF93EC0143
:1019E00005E912E0F12CE12C6091D3028091D20242
:1019F0009C812AE0E216F10404F5992301F140915B
:101A0000D402453B08F044EB98010E94C4078FEFD5
:101A1000E81AF80A0D5F1F4F24E1E216F10421F7DE
:101A20000E94B40C8C8190E00196817099278C8380
:101A3000CDB7DEB7E6E00C94472A992301F398016D
:101A400040E0E3CFAEE0B0E0E8E2FDE00C94292A0C
:101A50008D879E87AD85BE8514961C91212F30E021
:101A6000D9010E94F6299B01AC010E940C2A6983CE
:101A70007A838B839C83E0E2F0E0E11BF109A5E52A
:101A8000B0E09B01AC010E940C2A69877A878B87A2
:101A90009C879F01DF010E94EE299B01AC010E94FF
:101AA000172A6D837E838F8398879B01AC01898180
:101AB0009A81AB81BC81280F391F4A1F5B1F698542
:101AC0007A858B859C850E94BF29F22E822F90E01B
:101AD000A9E2A217D0F1B3E02B9F90011124359514
:101AE0002795122F109595E9C92E92E0D92E00E086
:101AF00085E5E82EEF188E2D01FD8F2D412F153B2A
:101B000008F044EB96016091D3020E94C4070F5F76
:101B1000F3E0CF0ED11C043171F70E94B40CAD85F7
:101B2000BE8514969C9181E0992319F0903219F4A6
:101B30008FEF8093190180911901890FED85FE8542
:101B400084832E96E8E00C94452A25E530E0F901DF
:101B5000E81BF90B9F01220F331F2E0F3F1F37FF8A
:101B6000BECF2F5F3F4FBBCF0F931F93CF93DF931A
:101B7000C5E9D2E0FE01118210821282339682E022
:101B8000E13DF807C1F710E000E080919302082ED4
:101B9000000C990B08171907A4F180911801082E61
:101BA000000C990B8017910764F14091D402453BDA
:101BB00008F044EB9E016091D3028091D2020E9412
:101BC000C4070F5F1F4F239604311105F1F60E94E1
:101BD000B40C8091170190919302980F9093930207
:101BE00020911801280F20931801121614F4933134
:101BF0001CF0819580931701DF91CF911F910F9178
:101C00000895198218821A82DCCFB0E0A0E0EBE0E0
:101C1000FEE00C94292AFC018281DD24DA9480FD07
:101C200002C0DD24D39405E912E0D0E0C0E0F80161
:101C300011821082128294E0E92EF12CC12C809145
:101C400092028C0D8531DCF164E10E948929892F93
:101C5000082E000C990B8C179D07A9F48091D402D3
:101C60008E9DA0018F9D500D11245595479555953A
:101C70004795453B08F044EB98016091D302809171
:101C8000D2020E94C407CD0CF1E0EF1AF108B9F6B8
:101C900021960D5F1F4FC431D10549F60E94B40C47
:101CA0008091920291E0D91210C081110CC083E1A1
:101CB00080939202CDB7DEB7E8E00C94452A87FF07
:101CC000C7CF8C5EC5CF8150F3CF90E00196BE01A7
:101CD0000E94AB29EDCFEF92FF921F93CF93DF933A
:101CE000EC0185E9E82E82E0F82E10E04091D40264
:101CF000453B08F044EB8C8197016091D302810F42
:101D00000E94C407145F83E0E80EF11C103F71F7D6
:101D10000E94B40C9A818C8190FF08C08F5F8C83E5
:101D2000DF91CF911F91FF90EF9008958150F7CFF1
:101D30009091D10290FF0CC0E5E9F2E081836083CD
:101D40004283339692E0E13DF907C1F70E94B40C5B
:101D50000895A3E0B0E0EFEAFEE00C942D2A8C0198
:101D60008091940281110AC09E012F5F3F4F44EB86
:101D70006FEF0E94C4078A8180939402F801648106
:101D8000613049F06230D1F08091940240E06623E6
:101D900031F040E015C06091940240E080E00E9484
:101DA000980EF801848190E0019663E070E00E9453
:101DB000AB2984832396E4E00C94492A4091940251
:101DC00080E060E0ECCFA3E0B0E0E9EEFEE00C9450
:101DD0002F2A9091D10290FF0DC0453B08F044EBB3
:101DE0009E012F5F3F4F0E94C4074B8169818A810A
:101DF0000E94980E2396E2E00C944B2ACF93DF9337
:101E0000EC01E1EDF2E0438162818C810E94E30EFE
:101E10008C818F5F8C83DF91CF910895CF93DF9377
:101E2000EC01EC81F0E0E557FC4F4491E1EDF2E08C
:101E3000628181810E94E30E8C818F5F8C83DF91B0
:101E4000CF910895CF93DF93CFE3D3E060E0CE014D
:101E50000E94762A2196C11584E0D807B9F7DF9150
:101E6000CF9108951F93CF93DF93962F122F632F57
:101E70008430D8F49930C8F44B30B8F4C42FD0E093
:101E8000CC0FDD1F26E1929FC00DD11D112496ECD1
:101E9000899FC00DD11D1124CE0187960E94762AFC
:101EA000612FCE0188960E94762ADF91CF911F91F3
:101EB0000895AF92BF92CF92DF92FF920F931F933C
:101EC000CF93DF93B12CA12C00E0650110E013C08B
:101ED000FE01259134914F2D612F802F0E94320FEA
:101EE0002296F3948BE0F812F3CF8BE0C80ED11C4E
:101EF0001F5F193039F0E601CC0FDD1FC55FDA4FE7
:101F0000F12CE6CF0F5F83E6A80EB11C0430E9F692
:101F1000DF91CF911F910F91FF90DF90CF90BF90F5
:101F2000AF900895CF93C82F6FEF811162E283E2E3
:101F300090E00E94762A6FEFC11169E084E290E0A0
:101F40000E94762A6FEFC11163E085E290E00E9463
:101F5000762ACF91089580E00E94920F60E086E299
:101F600090E00E94762A0E94590F0E94220F81E081
:101F70000E94920F0895682F86E090E00E94762AD2
:101F800008958091D60281FF11C08D7F8093D60283
:101F90000E94BB0F80916F008E7F80936F008091B5
:101FA000D6028695869586950E945F070895809152
:101FB000D60281FD10C082608093D6020E94BB0FC2
:101FC0001092D9021092D8021092D70280916F001D
:101FD000816080936F0008950F931F93CF93DF93D9
:101FE000843030F5693020F54B3010F5C42FD0E047
:101FF000CC0FDD1F26E1629FC00DD11D112436ECF0
:10200000839FC00DD11D1124CE0187960E94622AA4
:10201000082F10E0102F0027CE0188960E94622A18
:102020009801282BC901DF91CF911F910F9108953D
:1020300090E080E0F8CF462F672F843038F4793075
:1020400028F44B3018F40E94EC0F089580E090E0E3
:102050000895B0E0A0E0EFE2F0E10C942A2A7C01C0
:1020600000911C0380913C02082BC7E0D0E010E0F7
:10207000DC2EC8010C2E02C0959587950A94E2F7D4
:1020800080FD09C02197A0F7D12C8D2DCDB7DEB7EB
:10209000E7E00C94462AB7018C2F0E941B100E9487
:1020A000E809019779F3F1CFCF93DF93D82FC92FA8
:1020B0000E9429106D2F7C2F0E941B100E94E8099E
:1020C000DF91CF910895FC0183819481892B29F0C0
:1020D0008081918189238F3F69F480E00895243FB6
:1020E000E1F71CC081E0283E20F0213FB1F716C087
:1020F00008950895808191810E945410282F92950F
:102100009F70963079F358F4925F9F70923028F761
:1021100081E0203F69F318F7283EF8F608959A5FAA
:10212000F4CF83E290E00E94622A823289F484E252
:1021300090E00E94622A893059F485E290E00E9482
:10214000622A91E0833009F090E0892F8170089530
:1021500080E0FCCFCF9384E090E00E94622AC82FF9
:1021600082E290E00E94622A982F8C2FCF910895EE
:102170006091D102669570E04BE050E08CE091E018
:102180000E94AA2A892B19F481E0809391020E946F
:10219000290690938B0280938A0208950F931F93D0
:1021A000CF93DF938B01D82FC92F0E94AE07A801D0
:1021B0006D2F7C2F88E090E00E94882ADF91CF91DC
:1021C0001F910F910895A7E0B0E0E9EEF0E10C94C3
:1021D000222AE82E762EF42E622E9091D10290FFC4
:1021E00030C0E92FE695AE2FB0E0AE59BE4F8C91CE
:1021F000809390029E7F923041F584EB841708F41F
:1022000044EB9E012F5F3F4F672D8E2D0E94C40728
:102210004B8169818A810E94980EE092D20270926D
:10222000D302F092D402662061F08091D1029091A5
:10223000D202A091D302B091D402BC01CD010E9480
:10224000CE102796EFE00C943E2A823019F4F090DD
:10225000D402E3CF863019F4E090D202DECF893089
:10226000D9F38931D1F6E9519E2F9170592EE69517
:10227000F0E0EA57FC4FE4910E2F10E085E9C82EFC
:1022800082E0D82EB12CA12C94E1892E912CC5018D
:10229000B4010E9497298E2D511017C0860F4F2D23
:1022A000A4EBAF1508F444EB9601672D0E94C40718
:1022B000A00EB11EB3E0CB0ED11C81EDC81682E09A
:1022C000D80629F70E94B40CA8CF861BE8CFE1ED11
:1022D000F2E0438128E0421B08F440E021E0628103
:1022E00081810E94E3100895E1EDF2E0438128E04E
:1022F000420F08F44FEF21E0628181810E94E310D8
:102300000895E1EDF2E0628128E0621B08F460E0EC
:1023100021E0438181810E94E3100895E1EDF2E024
:10232000628128E0620F08F46FEF21E04381818130
:102330000E94E3100895E1EDF2E0818121E0438104
:10234000628188500E94E3100895E1EDF2E08181FE
:1023500021E043816281885F0E94E3100895A4E038
:10236000B0E0E5EBF1E10C942F2A8091D5028823AF
:1023700019F081508093D5028091D1029091D202C0
:10238000A091D302B091D402BC01CD010E94CE1025
:102390002496E2E00C944B2AA4E0B0E0E2EDF1E1F7
:1023A0000C942F2A8091D502833018F48F5F80938C
:1023B000D5028091D1029091D202A091D302B09126
:1023C000D402BC01CD010E94CE102496E2E00C9410
:1023D0004B2AA4E0B0E0EFEEF1E10C942F2A9091AB
:1023E000D10290FF2EC0917081112FC09260909306
:1023F000D102662361F08091D1029091D202A09126
:10240000D302B091D402BC01CD010E94CE106091E4
:10241000D102669570E04BE050E08CE091E00E94C4
:10242000AA2A892BC9F01092910281E080938D0233
:1024300020E04091D4026091D3028091D2020E94A8
:10244000E3102496E2E00C944B2A853210F0986455
:10245000CECF880F982BCBCF0E94B810E6CF9091AB
:10246000D10296958FEF890F913009F484E261E0F3
:102470000E94E91108958091D10286958F5F85327F
:1024800008F081E061E00E94E91108959091D10285
:1024900090FF08C09695981728F0961718F40E9498
:1024A0003B12089561E00E94E9110895A4E0B0E0B4
:1024B000ECE5F2E10C942F2AE1EDF2E083E0808379
:1024C00011828FEF828384EB8383148280819181D8
:1024D000A281B381BC01CD010E94CE102496E2E01E
:1024E0000C944B2A80913A0290913902892B809367
:1024F000980190913B029923A1F0892B8093980138
:1025000080911B018823E1F18091E50287FF38C0AB
:102510008EE1EAE9F1E090E08150A0F591110E948E
:10252000720B40E250E069E172E088E991E00E94BC
:10253000B72A892B21F180E2E8E9F1E0A9E1B2E0D4
:1025400001900D928A95E1F7E091DC02F091DD02B5
:102550003097A9F080911B01882359F08091E50202
:1025600087FF07C0809198018093990186E080934E
:1025700098010280F381E02D88E991E009950895A2
:1025800086E0C7CF2191222339F29F5FC5CF90E02B
:1025900080E00E94AD0690E080E00E9497061092D5
:1025A00039020E94721286E0E4E8F2E0DF011D9237
:1025B0008A95E9F710927E0210927D0210927F02B6
:1025C0000E944F08089580931C030E94C71208952B
:1025D00080911C03982F9670963021F488600E9499
:1025E000E3120895877FFBCF21E030E001C0220F86
:1025F0008A95EAF7209580911C0382230E94E312BA
:102600000895909118028095892380931802282FAD
:10261000277091F4282F082E000C330B9217130605
:1026200059F09091E60292FF07C0859585958595B2
:102630000E94F412109218020895CF93C091E602FE
:10264000C2FB992790F9981791F080FBC2F9C093CB
:10265000E6026091E50284E090E00E94762A6C2F09
:1026600082E290E00E94762A82E00E940113CF91DC
:10267000089521E030E001C0220F8A95EAF78091A9
:102680001C03822B0E94E312089580933C020E9457
:10269000C7120895882321F00E94780B0E947212BD
:1026A0000895882339F090913A02892B80933A0259
:1026B0000E9472120895882391F19CEF980F913A2D
:1026C00040F4682F88E991E00E9435060E9472125A
:1026D000089590E2980F983050F4877091E001C00F
:1026E000990F8A95EAF7892F0E94780BEFCF9BE527
:1026F000980F933028F490E080E00E94AD06089592
:1027000098E5980F973128F490E080E00E949706B2
:102710000895803F20F00E9475080E944F08089598
:10272000CF93C82F8823D1F18CEF8C0F813AC0F55D
:1027300080911B01882311F18091E50287FF1EC063
:10274000EC2FE695E695E695F0E0E856FE4F82819F
:1027500090E04C2F477021E030E002C0220F331F81
:102760004A95E2F782239323892B89F06C2F88E91D
:1027700091E00E9435060E94721209C0EAE9F1E078
:102780008191C81799F321E0E03AF207C9F76C2F5D
:1027900088E991E00E9461060E947212CF9108952B
:1027A00080E28C0F883068F4C77021E030E001C00F
:1027B000220FCA95EAF780913A02822B80933A025F
:1027C000EBCF8BE58C0F833038F42C2F2452330B56
:1027D000C9010E94AD06E2CFE8E5EC0FE73150F405
:1027E000F0E0EE0FFF1FE05EFE4F808191810E94BE
:1027F0009706D4CFC03F90F28C2F0E9430090E94E0
:102800004F08CCCF0F931F93CF93C82F10E000E059
:10281000893311F400E510E08C2F0E94901301150C
:10282000110539F48C2F0E945B13CF911F910F91EA
:1028300008958FE99FE00197F1F700C00000015073
:102840001109EDCFFF920F931F93CF93DF93C62F04
:10285000D42F122FFC0182818823A9F060931B03DF
:102860000E94290690931A0380931903C77081E090
:1028700001C0880FCA95EAF70E945113CDB7DEB7A1
:10288000E5E00C94482A80911B03681330C08091C6
:10289000190390911A030E941A06883C910538F595
:1028A00000E20D0FCD17A9F0C770FF24F3948F2D10
:1028B00001C0880FCA95EAF70E944A13083048F40D
:1028C0008D2F877001C0FF0C8A95EAF78F2D0E942B
:1028D0005113812F0E940214083080F6D77081E0D6
:1028E00001C0880FDA95EAF70E944A13C7CFC77074
:1028F00081E001C0880FCA95EAF7F6CF68EE7EEF57
:1029000090E080E00E94942A60E082E090E00E94E3
:10291000762A60E083E090E00E94762A10923C02E2
:1029200060E084E090E00E94762A64E082E290E039
:102930000E94762A60E085E090E00E94762A60E0BE
:1029400086E090E00E94762A6FEF87E090E00E9498
:10295000762A40E050E0BA0188E090E00E94882AA0
:1029600060E08DE090E00E94762A40E050E0BA01FD
:1029700088E190E00E94882A60E087E190E00E9470
:10298000762A40E050E0BA018CE190E00E94882A6B
:1029900070E060E080E290E00E94942A40E050E025
:1029A000BA0188E190E00E94882A80E00E94920F9C
:1029B0000E94AB0F40E050E0BA018FE090E00E942F
:1029C000882A40E050E0BA0183E190E00E94882A22
:1029D000089510923A0280911B01EAE9F1E0882300
:1029E00061F08091E50287FF08C08EE1DF011D9252
:1029F0008A95E9F70E94C712089586E0F7CFAAE208
:102A0000B0E0E5E0F5E10C942E2A81E193E0FC01D1
:102A100001962091F100208323E089319207B9F7D4
:102A200080911203893009F456C0C8F4823009F449
:102A3000B3C0833009F482C0813071F18091E80025
:102A400083FF85C280911103909112039A3008F0A0
:102A50007EC2E92FF0E0EA53F54D0C94E1298A306B
:102A600009F489C08B3051F780911103813231F71D
:102A70008091150390911603892B01F78091E8004E
:102A8000877F8093E8000E94100580911303809354
:102A90001B010E94E914D2CF80911103813A71F693
:102AA0008091E800877F8093E800809115039091E2
:102AB0001603892B61F460E28DEE92E070E00E94D3
:102AC000BC058091E8008B778093E800B7CF60E089
:102AD00090E080E0F3CF80911103813209F0AECF16
:102AE00080911503909116038D7F892B09F0A6CF55
:102AF0008091E800877F8093E8008091E80082FF62
:102B000018C09091F3008091F200029731F4809107
:102B1000F100813011F0863021F48091F100809332
:102B2000EC028091E8008B778093E8000E9410050A
:102B300085CF80910F038111E0CF80CF8091110369
:102B4000813A09F07BCF8091150390911603892B70
:102B500009F074CF8091E800877F8093E80080912E
:102B6000E80080FFFCCF80911B018093F1008091F1
:102B7000E8008E77D9CF80911103813209F05ECFC2
:102B80008091E800877F8093E8000E941005809183
:102B900014038093EB0252CF80911103813A09F024
:102BA0004DCF8091E800877F8093E8008091E80016
:102BB00080FFFCCF8091EB02D8CF803899F082382B
:102BC00009F0C5C1809115038F70873008F0BFC12F
:102BD0008093E9008091EB0085FB882780F91092B3
:102BE000E90006C080910D0390910E03911182605F
:102BF0009091E800977F9093E8008093F100109205
:102C0000F1008091E8008E779EC1882309F48CC181
:102C1000823009F09CC18091130381118FC1809192
:102C200015038F702FEF280F263008F090C1809386
:102C3000E9002091EB0020FF81C1933031F48091B5
:102C4000EB0080628093EB0079C19091EB00906182
:102C50009093EB0021E030E001C0220F8A95EAF763
:102C60002093EA001092EA008091EB008860EACF9E
:102C700081116DC1109113031F778091E30080785B
:102C8000812B8093E3008091E800877F8093E800A8
:102C90000E9410058091E80080FFFCCF8091E30046
:102CA00080688093E30082E0111183E080930F033A
:102CB0004EC18058823008F04AC1409113035091B0
:102CC00014034C3D83E05807A1F583E08A838AE230
:102CD00089834FB7F894DE01139620E03EE051E27D
:102CE000E32FF0E050935700E49120FF03C0E295FA
:102CF000EF703F5FEF708E2F90E0EA30C0F0C79624
:102D00008D939D932F5F243159F74FBF8091E80039
:102D1000877F8093E8006AE270E0CE0101960E940E
:102D2000BC058091E8008B778093E80010C1C096C5
:102D3000E7CF8091150390911603252F3327233079
:102D4000310509F44AC078F52130310509F479C01C
:102D50008BE590E0E3E2F8E02230310509F0F7C0BE
:102D60002091E800277F2093E800209117033091FD
:102D700018038217930708F49C0140E021153105E0
:102D800009F064C0411162C08091E80082FDC9CFA2
:102D900080910F03882329F2853019F28091E80091
:102DA00083FFF2CFBECF2132310509F43BC022327E
:102DB000310509F0CCC08330910508F0C8C0FC0192
:102DC000EE0FFF1FE657FE4F0190F081E02D89576F
:102DD0009E4FDC018C9190E011C0CA0199274130CF
:102DE00089F082309105B1F0892B09F0B0C0E4EB95
:102DF000F8E0E4918E2F90E0E4EBF8E0009709F41E
:102E0000A6C0AECFE4EAF8E0E4918E2F90E0E4EAC9
:102E1000F8E0F4CFE0E9F8E0E4918E2F90E0E0E90B
:102E2000F8E0ECCF8330910508F091C0880F991F2E
:102E3000FC01E057FE4F0190F081E02D89E090E029
:102E40008FCF82E190E0EEE7F8E08ACF80910F0328
:102E5000882309F466CF853009F463CF8091E800B8
:102E600083FD5FCF8091E80082FD8ECF8091E800E6
:102E700080FF84CF9091F3008091F20021153105FD
:102E800019F08830910550F041E0089709F040E0D2
:102E90008091E8008E778093E80070CF4491409352
:102EA000F1003196215031090196E8CF803809F0C0
:102EB0004EC08091E800877F8093E80080911003E6
:102EC0008093F1009ECE811142C010911303123005
:102ED000F0F58091E800877F8093E800109310035D
:102EE0000E941005112311F084E005C08091E300D9
:102EF00087FDFACF81E080930F0342E061EC81E02F
:102F00000E942F0542E261EC84E00E942F0542E21C
:102F100061EC82E00E942F0542E260EC83E00E94B7
:102F20002F0580910F0313C080911303813079F432
:102F300081E0933009F080E080930E031092E90065
:102F40008091E800877F8093E8000E9410058091BF
:102F5000E80083FF0AC08091E800877F8093E80043
:102F60008091EB0080628093EB00AA96E3E00C94E2
:102F70004A2A0E94E9142FEF84E39CE0215080400C
:102F80009040E1F700C0000088E19CE00FB6F894A3
:102F9000A895809360000FBE90936000FFCFA9E0DA
:102FA000B0E0E5EDF7E10C94202A8C01DC011396EA
:102FB0008D919C911497892B39F08C9111969C914D
:102FC00089238F3F09F029C62996E1E10C943C2A18
:102FD0000E942910F82E682F89819A810E94BE0BC9
:102FE00069817A818F2D0E941B107C01F8018281FA
:102FF000882309F4ADC5970122513F4520313105A1
:1030000008F090C58FEF93E00E94622A811132C0D0
:10301000FEEEEF0E4FE3842E43E0942EE1103DC010
:1030200080911C0190911D01A0911E01B0911F0182
:1030300089839A83AB83BC83442443943AE0332E40
:1030400074018FEFE81AF80AC4010E94622A89838A
:103050001A82882379F09FEF980F933060F58A8366
:10306000498292E0890E911CC7010E94622A8B83DB
:10307000811122C080911802877009F4A5CFD80170
:1030800012968C91882309F49FCF8091E60282FFEB
:103090009BCF82E00E94011397CF811424E0920617
:1030A00049F3C4010E94622A811101C0EA943FEFF2
:1030B000831A930AB3CF4701DE0111967D01F70110
:1030C0002081222309F4BCCF213009F048C091812E
:1030D0008281913031F4F2E0EF0EF11C0E94021473
:1030E00007C0923049F422E0E20EF11C0E949013D6
:1030F000EFEFEE1AFE0AE3CF933031F432E0E30E45
:10310000F11C0E945B13F4CF943021F08FEFE81A8A
:10311000F80AEECF92E0E90EF11C30E020E0B701B2
:103120006F5F7F4FD70111964C918053990B8A3076
:10313000910550F021503109D8F2EFE9FFE03197C5
:10314000F1F700C00000F6CF329EF001339EF00D83
:1031500011249C012E0F3F1F842F7B01E0CFE22F13
:10316000F0E0EC50FE4F5490822F86958695869520
:1031700090E0FC01EC51FE4F64902770712C022E00
:1031800002C0759467940A94E2F731E063227724D1
:10319000FC01EC52FE4FA490B12C022E02C0B5945B
:1031A000A7940A94E2F7A1E0AA22BB24FC01EC5305
:1031B000FE4FC490D12C02C0D594C7942A95E2F753
:1031C000B1E0CB22DD246114710419F081EE0E947C
:1031D0009013A114B10419F086EE0E949013852D6E
:1031E0000E940214A114B10419F086EE0E945B1330
:1031F0006114710419F081EE0E945B13C114D104B3
:1032000009F476CF8CE26ACF81E00E94391303C0C3
:1032100081E00E94F4120E94E8122CCF82E0F5CFE8
:1032200082E0F7CF83E00E948F078091D6020E9450
:10323000BB0F20CF80E0F7CF8091D602982F987FE8
:1032400079F088508093D602887F91E009F490E06D
:103250008091D60290FB80F98093D6020E94BB0F2A
:103260008091D6028695869586950E945F0702CF4B
:103270008091D602982F969596959695883140F430
:103280009F5F990F990F990F8770892B8093D602B2
:103290008091D6028160E0CF8091D60280FF07C086
:1032A0008E7F8093D6020E94BB0F80E0DECF8160CC
:1032B0008093D602813019F489E08093D602809100
:1032C000D602CCCF9091D602892F86958695869589
:1032D0008F5F8F719770843048F4880F880F880F44
:1032E000892B8093D6028091D602AECF9093D602DE
:1032F000FACF8091D60281FF03C00E94C10FBACEDF
:103300000E94D70FB7CEB5EFEB16BCE5FB06E9F090
:1033100027E245EE66EEE6EFEE16ECE5FE0649F036
:1033200027E245EE64EEF4EFEF16FCE5FF0609F048
:103330003AC4C8010E9422149DCE27E245EE65EEF4
:10334000F8CF26E241EE60EEF4CF26E241EE62EEE7
:10335000F0CFC7018A5F9C45099708F43CC4E6E1B9
:10336000EE16ECE5FE06F1F480913A028A7A91E0DD
:1033700009F490E09093B80169E2811165E388E96E
:1033800091E00E9461060E94721274CEA5EAEA16CC
:10339000ADE5FA0609F41FC4C7018D5A9D45039790
:1033A00008F419C4BBE5EB16BDE5FB0609F083C1C3
:1033B00080E0BAC1F701E350FC458091E5028160ED
:1033C000E331F10590F5E053F54D0C94E129F3E07C
:1033D000EF16FDE5FF0688F42AEFE2162CE5F2066B
:1033E00008F40BC4F701EB5FFC45E830F10508F089
:1033F00044C0ED51F54D0C94E1293DEAE3163DE55D
:10340000F30649F1A8F491E6E9169DE5F90609F4F9
:10341000B3C09091E502892F8E7F90FF8160A5EA6D
:10342000EA16ADE5FA0609F0E8C38093E502E5C3C4
:10343000BEEAEB16BDE5FB0609F445C0EFEAEE1661
:10344000EDE5FE0609F0D9C39091E602892F877F4A
:1034500093FF886003C08091E60288608093E60253
:10346000CCC38091E5028260E0CF8091E502846068
:10347000DCCF8091E5028860D8CF8091E602816040
:10348000EDCF8091E6028260E9CF8091E502806114
:10349000CCCF8091E5028062C8CF8091E502806444
:1034A000C4CF0E94E9148091E5028068BECF80916C
:1034B000E5028C60BACF8091E6028360CFCF809125
:1034C000E5028E7FB2CF8091E602877FC7CF8091E1
:1034D000E5028D7FAACF8091E5028B7FA6CF8091F8
:1034E000E502877FA2CF8091E6028E7FB7CF8091E1
:1034F000E6028D7FB3CF8091E5028F7E96CF8091DB
:10350000E5028F7D92CF8091E5028F7B8ECF0E9466
:10351000E9148091E5028F7788CF8091E502837F5F
:1035200084CF8091E6028C7F99CF8091E50282FB67
:10353000992790F921E0922790FB82F990FB83F97B
:1035400074CF8091E602982F909591708E7F892B91
:1035500090FB81F983CF0E94E9149091E502892FB5
:1035600097FB87F9805861CF61E08EE090E00E9480
:10357000762A43C360E0F9CF9091E502892F8F7ED0
:1035800094FF806152CF8091B80169E2811165E3B7
:1035900088E991E00E943506F6CEF2ECEF16FCE5E4
:1035A000FF0608F461C3F701E35CFC45E331F10574
:1035B00020F4E551F54D0C94E1298091D10280FF72
:1035C00021C08E7F8093D1028091D1029091D2024E
:1035D000A091D302B091D4028E839F83A887B9872C
:1035E000BC01CD010E94CE10109291029FEFA0E786
:1035F000B2E09150A040B040E1F700C000000E944E
:10360000B40C38CD81608093D10261E086950E9430
:10361000E91130CD4FE252E16BE372E10E94A6075F
:1036200029CD4BE352E16FE272E1F8CF4BE951E172
:1036300065EA71E1F3CF45EA51E16BE971E1EECF63
:1036400041E851E16EE871E1E9CF4EE851E161E80E
:1036500071E1E4CF47E651E164E771E1DFCF44E790
:1036600051E167E671E1DACF4FEA51E16CEC71E1CB
:10367000D5CF4CEC51E16FEA71E1D0CF61E081E050
:10368000C6CF65E082E00E944612F4CC68E086E096
:10369000FACF6EE089E0F7CF64E18FE0F4CF67E125
:1036A00085E1F1CF61E088E1B2CF62E289E1EBCF61
:1036B00061E083E2ACCFECE5EE16EDE5FE06E8F462
:1036C000FEEDEF16FCE5FF0629F181E02AE5E216A2
:1036D0002DE5F20649F1E1143CE5F30609F0C4C218
:1036E0000E94E914AFEFB4E3ECE0A150B040E04039
:1036F000E1F700C000000E94900C8CE5E8168DE513
:10370000F80659F097EAE9169DE5F90609F0ACC20A
:103710000E94B9170E947E14FBCF8091E60282FBC3
:10372000882780F991E089270E941D139DC2C60158
:103730000E948A0BF82EA7C2BF2DBF70AB2E8F2D13
:10374000807F19F0A29490EFA9228E2D9920B9F0D4
:10375000AA2069F090E29E0D983010F0E11009C0A7
:1037600080913A02A82AA0923A020E9472128E2DEB
:103770004CC080913902A82AA0923902F6CF0E944B
:103780005B13AA2009F443C080E28E0D883010F04C
:10379000711004C08A2D0E94780B06C0A0948091FD
:1037A0003902A822A09239020E94721230C0EF2D75
:1037B000EF70AE2E8F2D807F803219F0A29480EFB3
:1037C000A8228E2D772089F0F1E07F1609F46CC0D5
:1037D000992009F476C0882009F46CC0F80195811D
:1037E00090FFC5CF9F70958365C02091E60222FDB2
:1037F00039C0992089F1AA2039F080913A028A29AA
:1038000080933A020E94721280E00E94901338E086
:10381000C31AD10884E0C816D10420F40E94C3065C
:103820000E94F40BBB2009F4CFCB8091180280FDDD
:10383000CBCBD80112961C928595859585950E94D3
:103840003913C8010E94CF1780911802859585957C
:1038500085950E94F412B8CB80E00E945B13AA20E9
:10386000B1F298CF992099F090913B028A2D892B43
:10387000811003C00E945113CACF31E08312FACFE6
:1038800022FFC5CF981719F280933B02C0CF811059
:1038900006C00E94720B8A2D0E944A13B8CF81E0A5
:1038A000881609F4B4CFF5CF992031F095E098153A
:1038B00008F4ADCF8A2DDECFA4E0A81508F4A7CF79
:1038C000EACF882041F3893349F4FFEF27EE33E054
:1038D000F15020403040E1F700C000008E2D0E94E2
:1038E0005B1395CF8F2D86958695837061F081301F
:1038F00009F08DCFC7019370911002C090E080E075
:103900000E94970684CFC7019370911002C090E087
:1039100080E00E94AD067BCF8E2D992029F00E9479
:1039200030090E944F0873CF0E947508FACF8F2D7F
:10393000837099F591106BCF4E2D42954695477047
:10394000440F440F8E2D8F70042E01C0880F0A94EF
:10395000EAF72E2D2071E4FE07C02FE030E001C011
:10396000220F4A95EAF720953F2D3695369533700C
:10397000323071F0333051F040913C02313029F057
:10398000822B84230E94451342CF842B822BFACFB3
:10399000282B80913C028227F5CF8695992011F043
:1039A0008F2D8170882309F432CF4E2D4295469594
:1039B0004770440F440F8E2D8F70042E01C0880F66
:1039C0000A94EAF72E2D2071E4FE07C02FE030E0C4
:1039D00001C0220F4A95EAF720953F2D369536957E
:1039E0003370323071F0333051F040911C0331307C
:1039F00029F0822B84230E94E31209CF842B822B8F
:103A0000FACF282B80911C038227F5CF8F2D8F7042
:103A1000F82E992021F00E9439138E2D2BCF8E2D58
:103A20000E944A138F2D0E94F412F1CE8E2D92EF38
:103A30007916B1F1971570F0A0EF7A16D1F0B1EFC9
:103A40007B1691F0992009F45DC0811090CE8F2DE6
:103A50008F712AC0E3EF7E1651F1F4EF7F12F2CF9F
:103A60008091E60282FD2FC08F2D8F719920D9F2AF
:103A70001BC0992081F024E0281508F4C8CE2F2D12
:103A80002F7181E090E001C0880F2A95EAF79091AC
:103A90001C038927B0CF35E0381508F4B8CEEFCF36
:103AA0008F2D8F719110BFCF0E943913B0CE80E05F
:103AB000992009F4A0CF9F2D9F7181E001C0880F4C
:103AC0009A95EAF798CF992091F08F2D8F71F82E63
:103AD0000E9439138091E60282FF07C0A8E0FA9E97
:103AE000C00111248360809318028F2DDDCF81E007
:103AF0000E940113B1E0B81508F089CE82E00E945F
:103B0000011385CE882059F0893309F0E7CEEFEF15
:103B1000F7EE23E0E150F0402040E1F7DDCE8F2DBD
:103B20008F7181CFB0E1EB16BFE5FB0609F46CCBDA
:103B3000E1E1EE16EFE5FE0609F470CBF701EB5B71
:103B4000FC45E730F10580F4E250F54D0C94E12995
:103B5000F0E1EF16FFE5FF0609F45ACB21E1E2168A
:103B60002FE5F20609F45CCBF3EFEF16FCE5FF0658
:103B700009F4E7CB08F0C7CB38EDE3163CE5F306D4
:103B800009F4DBCB28E241E099EDE9169CE5F90662
:103B900009F4D5CB26E241EE61EEA7EDEA16ACE5DD
:103BA000FA0609F4C6CB882309F44AC010921B0315
:103BB00021E6E2162DE5F20671F008F0E7CB86E18A
:103BC000E8168CE5F80608F0C4CB92E0E9169CE50F
:103BD000F90608F4E7CB0E94AA109093E6028093BE
:103BE000E502B6E1EB16BCE5FB0608F0F0CBE2E03F
:103BF000EE16ECE5FE0608F0DDCB6091E502F090F4
:103C0000E60284E090E00E94762A6F2D82E290E046
:103C10000E94762A0E94E9142DCA85E0F801DE018F
:103C2000119601900D928A95E1F7D80112962C9188
:103C300089819A812111CCC90E948A0BF82ED0C9A2
:103C4000F6E1EF16FCE5FF0609F49DCC80913A02FF
:103C5000827226EDE2162CE5F20608F49ECC2DE5E4
:103C6000E216F20609F406CAF8018281C080D1800A
:103C7000882309F45CCDC6010E942910F82E682F14
:103C8000C6010E94BE0BB6018F2D0E941B100E9420
:103C9000E8097C01782ED80112969C90129715960F
:103CA0008C9082942FE08222809118028770C1F05C
:103CB000B92C9920B1F08F2D807F803421F080E2E3
:103CC0008E0D883068F08091E60282FF09C082E0A4
:103CD0000E940113809118028770BB24B394811154
:103CE000B12C8F2D82958F70C82ED12C8C3008F07E
:103CF0008ECDF601EB5FF44D0C94E1291F93CF9329
:103D0000DF938091E501807F09F049C08091E20155
:103D1000882309F444C080911702D091E601609194
:103D2000E0017091E101A091E301B091E401C62F9F
:103D3000C72316E0D81799F190E0109711F0CF3F04
:103D400019F401968770F6CF189F9001199F300DD6
:103D50001124F901E951FE4F41814713F2CF40810F
:103D60004613EFCF42814111ECCF438154814A1B6E
:103D70005B0B483C510528F78091E5018F7080610D
:103D80008093E501F901E451FE4F80818F708061DD
:103D9000808380EE91E00E94CF170E94800BDF911C
:103DA000CF911F910895ABE0B0E0E9EDFEE10C94F6
:103DB000272A8C0185E0F801DE01179601900D920B
:103DC0008A95E1F7F801E28080EEA82E81E0B82E16
:103DD0006091E3017091E4016115710509F40EC170
:103DE0009091E0014091E101842F89238F3F09F4F4
:103DF00005C120813181C380D480F090E201F601B9
:103E0000E61BF70BFF2009F4C4C08091E501582F91
:103E1000507FE83CF10508F09FC051116BC0FE2CAB
:103E2000431314C0921312C0E11010C08F70806150
:103E30008093E501C5010E94CF178091E501F8014B
:103E400085838F2D2B96EAE00C94432AC114D1046C
:103E500029F0822F83238F3F09F0EBC080E0F82FF9
:103E6000F170DF2EE09117024091E60156E080FDEF
:103E70001CC0EE2031F38091E50181608093E50163
:103E8000F12CDFCF8E2F90E05E9FF0011124E951DD
:103E9000FE4F6181361306C06081261303C0628124
:103EA000E612E7CFFC013196E770E413EBCF2F83E6
:103EB00038878F8198850E945410292F22952F7062
:103EC000903260F0225F2F70223078F49F7051F0B2
:103ED000F8019581907F31F4D12C0AC09F7011F0C8
:103EE0008823D1F3805E8830B8F3C8010E94CF17D1
:103EF000FD2CA7CF431306C0921304C0F801EE2097
:103F000009F461C0C8010E946310882309F1EE2002
:103F1000F9F08091E501803270F02091E00130915C
:103F2000E1013A8329831B82DD82CC828E83CE011C
:103F300001960E94CF1786E0F801A0EEB1E0019053
:103F40000D928A95E1F70E947E1EFF24F39479CFAB
:103F5000C8010E94CF17F9CF51110AC080EE91E03D
:103F60000E94CF1786E0F50111928A95E9F788CF74
:103F70004313C8CF9213C6CFE110C4CFF801858395
:103F8000C8010E94CF1786E0F50111928A95E9F7E2
:103F900058CFE83CF105B8F7FE2CEE20C9F24313E8
:103FA0001FC092131DC08091E50180FD10C0982FA5
:103FB000907F69F0F8018583903F31F0982F907FD2
:103FC000905F8F70892B8583C8010E94CF1786E090
:103FD000F801A0EEB1E001900D928A95E1F731CFA2
:103FE000C8010E9463108111A6CF8091E501816014
:103FF0008093E501C8010E94CF1723CFEE2009F47A
:10400000A7CFC8010E946310F82E882309F4A0CF1F
:1040100086E0F801A0EEB1E001900D928A95E1F7FB
:104020008091E0019091E1010E9454100E947E1E57
:1040300008CF81E08E2513CFA7E1B0E0E2E2F0E205
:104040000C942E2A4B8B5C8B6D8B7E8B8F8B61112E
:10405000109239021A8A2C898E899F893B893D8763
:104060002E876F87998B888B86E0FE013D96DE0157
:10407000179601900D928A95E1F7CE0107960E945E
:10408000D31E882359F016E0809117029091E60123
:10409000891349C06796E3E00C944A2A86E0FE0142
:1040A0003796DE01119601900D928A95E1F74A85C7
:1040B0005B854115510539F37F816885862F8723FC
:1040C0008F3F09F32091E60130E0C9010196877026
:1040D0009927E0911702E817190671F40E94E91474
:1040E0001092E6011092170286E0E0EEF1E0DF01A7
:1040F0001D928A95E9F7C7CF79836A835D834C83E4
:1041000096E0929FD001939FB00D1124A951BE4F0C
:10411000FE01319601900D929A95E1F78093E601A8
:104120000E94800BB0CF819FC001112489519E4F06
:104130000E94D31E882309F4ADCF8091170290E02E
:10414000019687709927809317029ECFA2E1B0E075
:10415000ECEAF0E20C94232A8E010F5F1F4F82E1FC
:10416000F80111928A95E9F79EE4E92E91E0F92E83
:10417000680127E5622E21E0722E88248394912C19
:10418000F70181917F018F3F09F446C0F894E82F31
:10419000E295EF70F0E021A18F70A40102C0440FFE
:1041A000551F8A95E2F7CA01922F982B91A392A1ED
:1041B0008095892382A3789400C0E7E5F1E021E0AF
:1041C00030E0B12CA12C41914F3F09F465C0A42FE0
:1041D000A295AF70B0E090968C9190E04F7002C0C5
:1041E000959587954A95E2F780FD56C0C901A82AA2
:1041F000B92A220F331F51E0E236F50721F7F70104
:10420000319780818F3F11F00E948C0980EA8A9556
:10421000F1F7F601B182A082F2E0CF0ED11C6E144C
:104220007F0409F0ADCF42E150E0B80180E492E0B4
:104230000E94B72A892B99F182E1F801A0E4B2E04B
:1042400001900D928A95E1F781E080933F020E94F0
:10425000290690933E0280933D0280913D02909109
:104260003E020E941A060597F0F042E150E060E439
:1042700072E08BE692E00E94B72A892BC9F082E1B6
:10428000E0E4F2E0ABE6B2E001900D928A95E1F74E
:1042900081E010923F0208C090E080E0A8CF8091BA
:1042A0003F028111DACF80E06296EEE00C943F2A63
:1042B00080E0EFCF90E080E00E94702A883E9E4F21
:1042C00019F40E949110089580E008950E945A21E7
:1042D00081110AC00E947E148091D6028470896187
:1042E0008093D6020E94BB0F86E090E00E94622A73
:1042F0008093D602803220F0877088618093D60246
:104300009091D602892F817090FF04C0892F8695E5
:10431000869586950E945F0708951F920F920FB6AB
:104320000F9211242F933F934F935F936F937F933B
:104330008F939F93AF93BF93CF93DF93EF93FF93AD
:10434000D091E900DF708091EC00C82FC17080FD32
:10435000C0E81092E9008091F000877F8093F00020
:1043600078940E94FF141092E9008091F000886018
:104370008093F000CD2BCF70C093E900FF91EF91B7
:10438000DF91CF91BF91AF919F918F917F916F916D
:104390005F914F913F912F910F900FBE0F901F9003
:1043A00018951F920F920FB60F9211242F933F93DF
:1043B0004F935F936F937F938F939F93AF93BF932D
:1043C000EF93FF938091E10082FF09C08091E200AA
:1043D00082FF05C08091E1008B7F8093E100809196
:1043E000DA0080FF24C08091D80080FF20C0809137
:1043F000DA008E7F8093DA008091D90080FF9BC025
:1044000080E189BD82E189BD09B400FEFDCF81E074
:1044100080930F038091EA02811109C00E949604E3
:104420000E9461058091E20084608093E2008091A7
:10443000E10080FF17C08091E20080FF13C08091EF
:10444000E2008E7F8093E2008091E20080618093A1
:10445000E2008091D80080628093D80019BC85E08A
:1044600080930F038091E10084FF29C08091E200D6
:1044700084FF25C080E189BD82E189BD09B400FEC9
:10448000FDCF8091D8008F7D8093D8008091E1008E
:104490008F7E8093E1008091E2008F7E8093E20026
:1044A0008091E20081608093E20080911003882374
:1044B00009F447C084E080930F0380910F0380913B
:1044C000E10083FF27C08091E20083FF23C0809139
:1044D000E100877F8093E10082E080930F031092D8
:1044E00010038091E1008E7F8093E1008091E200D3
:1044F0008E7F8093E2008091E20080618093E200F1
:1045000042E060E080E00E942F058091F00088602A
:104510008093F000FF91EF91BF91AF919F918F91A8
:104520007F916F915F914F913F912F910F900FBEAF
:104530000F901F90189519BC10920F031092EA0269
:1045400076CF8091E30087FD02C081E0B4CF83E0A5
:10455000B2CF78941F921FB61F9211248F939F930E
:10456000AF93BF938091E1029091E202A091E302A8
:10457000B091E4020196A11DB11D8093E1029093D8
:10458000E202A093E302B093E402BF91AF919F9146
:104590008F911F901FBE1F9018951F921FB61F92DC
:1045A00011248F939F93AF93BF938091E002811169
:1045B00013C08091E1029091E202A091E302B091D8
:1045C000E4024196A11DB11D8093E1029093E202A5
:1045D000A093E302B093E402BF91AF919F918F91BA
:1045E0001F901FBE1F9018951F920F920FB60F922B
:1045F00011242F933F934F935F936F937F938F93E8
:104600009F93AF93BF93EF93FF93CF93DF9300D02C
:1046100000D0CDB7DEB780911A018230D1F08F5F24
:1046200080931A010F900F900F900F90DF91CF9110
:10463000FF91EF91BF91AF919F918F917F916F917A
:104640005F914F913F912F910F900FBE0F901F9050
:10465000189581E080931A018091D8029091D90237
:10466000019660ED72E00E9497299093D9028093A1
:10467000D80265E070E00E94972967FD6FE780919E
:10468000D702823041F4603451F480916F008E7F04
:1046900080936F0004C0813011F46F37B1F3E62FBF
:1046A000F0E0E557FB4F2491A0918600B091870080
:1046B00030E00E94F6292FEF30E040E050E00E9409
:1046C000BF29C90163E070E00E9497298091D6025A
:1046D000869586958695282F269FC001279F900D49
:1046E00011240E94D00690938B0080938A009ACF69
:1046F000CDB7DEB7A4970FB6F894DEBF0FBECDBF1F
:1047000085B7806885BF85B7806885BF84B7877F98
:1047100084BF0FB6F894A89580916000886180935B
:104720006000109260000FBE80E890E00FB6F89431
:1047300080936100909361000FBE8AE899E09093A6
:104740009701809396010E9496040E9461058091D2
:10475000E20084608093E200789480910F038823C4
:10476000A1F01091E9001F709091EC00892F8170E9
:1047700090FD80E8182B1092E9008091E80083FDFD
:104780000E94FF141F701093E90082E084BD93E043
:1047900095BD9AEF97BD80936E000E949110811194
:1047A00002C00E94AB0F0EE411E057E5E52E51E088
:1047B000F52ED8018D918D018F3F11F00E948C094B
:1047C000E016F106B1F707E511E0F80181918F01DC
:1047D0008F3F11F00E948C09F1E002361F07A9F704
:1047E00082E1EBE6F2E0DF01282F1D922A95E9F73E
:1047F000E0E4F2E0DF011D928A95E9F70E945A2178
:10480000811102C00E947E1482E090E00E94622A20
:10481000809357020E94AA109093E6028093E502CB
:104820000E94A620BFEFE6E7F1E0B150E040F04083
:10483000E1F700C000000E94A62080916B0285FF76
:1048400008C06FEF7FEF90E080E00E94942A0E9402
:10485000900C83E090E00E94622A0E9445133F9AE8
:10486000479A269A2E9882E28093800089E180936D
:1048700081008FEF9FEF90938700809386000E94C6
:1048800066218091D60281FF0BC01092D90210924E
:10489000D8021092D70280916F00816080936F00E0
:1048A0000E94662180915202811133C00E945A21D8
:1048B000811104C00E947E140E94561288E090E08C
:1048C0000E946A2A6093D1027093D2028093D3022D
:1048D0009093D4026E7F71F40E94561288E090E0AB
:1048E0000E946A2A6093D1027093D2028093D3020D
:1048F0009093D4020E94AE07109291028091D1024F
:1049000080FF04C060E086950E94E91181E08093F9
:10491000520280E091E09093DD028093DC02442417
:1049200043942224239480910F0300E112E1853007
:1049300009F4BDC00E94A62048E5A42E42E0B42E92
:104940000BE612E0D801F501219131918D919D91F5
:1049500042E0EA36F40709F4C9C028173907A1F381
:104960003BE6832E32E0932E512CD401ED90FD9046
:104970004D01F501619071905F016E147F0459F152
:104980006E247F24312CCC24C394D12CC3018C21E0
:104990009D21892BB1F039825A8221E0C7018C21F7
:1049A0009D21892B09F420E02B830E942906816038
:1049B000782F9D838C8349815A816B818D810E94E0
:1049C0001C203394CC0CDD1CFBE03F12DFCFF50143
:1049D0003297F182E082539429E05212C6CF8FB70A
:1049E000F8944091E1025091E2026091E3027091EB
:1049F000E4028FBF9DC080910F03843009F446C04C
:104A000080E00E945F0780E00E94F40B1092910208
:104A100080915402811116C0209254028091D102DB
:104A2000982F9170909353028E7F8093D1022FEF35
:104A300030E742E0215030404040E1F700C0000044
:104A40000E94B40C1092E00288E190E0A0E40FB65E
:104A5000F894A895809360000FBEA093600083B780
:104A6000817F846083BF83B7816083BF789488959A
:104A700083B78E7F83BF0FB6F894A89580916000AE
:104A8000886180936000109260000FBE80910E03D9
:104A9000882369F00E94A620EBE6F2E081919191D3
:104AA000892B09F0FDC3B2E0ED37FB07B9F7809120
:104AB0000F03853009F49FCF0E94E9140E946621FC
:104AC0000E94C3060E94F40B10925402809153027C
:104AD000882349F08091D10281608093D10260E007
:104AE00086950E94E9110E94B81024CF2817390733
:104AF00009F036CF0E9429067C01809155029091E1
:104B00005602E816F906A1F08FEF89838A831B828B
:104B10000E9429068160782F9D838C8349815A8168
:104B20006B818D810E941C20F0925602E09255020A
:104B3000809191028823D1F180919002E091D1027D
:104B4000E695E81BE0938C02823009F03EC1F0E06C
:104B5000EE57FD4FE491EE2EF12C8EE0C82E8FE043
:104B6000D82E80918D02882361F010928D020E94D0
:104B7000290690938B0280938A0210928F021092E2
:104B80008E020E942906E0918A02F0918B028E1B10
:104B90009F0B8F3F9F4750F4EE0DFF1DF0938B024C
:104BA000E0938A028AE892E0F601099586E0E4E85B
:104BB000F2E0DE01119601900D928A95E1F71092D4
:104BC00086021092870210928802109289028B81CD
:104BD0009C81892B09F44AC08091820290918302C2
:104BE0000E941A069C0180917E02882309F47CC3EE
:104BF00025313105D8F18F3F19F08F5F80937E0208
:104C0000FB80FF2059F00E9410099FEF1F140CF445
:104C100091E0899F802D112480938602FC80FF20E3
:104C200059F00E9410099FEF1F140CF491E0899F26
:104C3000802D112480938702309186023323B1F0B6
:104C400020918702222391F045EB3403C001112407
:104C5000992309F419C19093860255EB250390011D
:104C60001124332309F413C1309387028D819E816F
:104C7000892B09F44AC080918002909181020E94A0
:104C80001A069C0180917D02882309F428C32135EE
:104C90003105D8F18F3F19F08F5F80937D02FD8041
:104CA000FF2059F00E94EE089FEF1F140CF491E0D2
:104CB000899F802D112480938802FE80FF2059F067
:104CC0000E94EE089FEF1F140CF491E0899F802D45
:104CD000112480938902309188023323B1F020910E
:104CE0008902222391F045EB3403C001112499235A
:104CF00009F4D0C09093880255EB2503900111244C
:104D0000332309F4CAC03093890246E050E0BE0163
:104D10006F5F7F4F84E892E00E94B72A892B61F48D
:104D20008091860290918702892B90918802892B2D
:104D300090918902892B11F00E944F0886E0FE01B4
:104D40003196A4E8B2E001900D928A95E1F70E94B5
:104D5000C30690916A02891779F080936A029FB71F
:104D6000F8944091E1025091E2026091E302709167
:104D7000E4029FBF0E94F40B80910F03843009F07E
:104D8000D2CD83E08093E9008091E80082FFCBCD13
:104D90008091E80090E085FF06C00E94B50488235A
:104DA00009F47EC091E08091E8008B778093E80061
:104DB000992309F4B8CDE981E150E33108F000C14D
:104DC000F0E0EF5EF44D0C94E129863059F4F0E008
:104DD000E158FD4FE491EE2EF12CBEEFCB2EBEE05C
:104DE000DB2EBFCE893061F4E695F0E0E458FD4F4C
:104DF000E491EE2EF12CABE6CA2EAEE0DA2EB1CE67
:104E00008F3061F4E695F0E0E758FD4FE491EE2E27
:104E1000F12CF5E0CF2EFEE0DF2EA3CE853159F444
:104E2000F0E0EA58FD4FE491EE2EF12CE4EBCE2EAB
:104E3000EDE0DE2E96CE38E2E32EF12C42E2C42ED7
:104E40004DE0D42E883109F48CCE833249F4E4E766
:104E5000F2E0E590F49079EAC72E7EE0D72E81CE7D
:104E600054EFE52EFF24F39469EEC62E6CE0D62EA7
:104E7000843209F476CE90EDE92E97E0F92E2DEAF2
:104E8000C22E27E0D22E6DCE40928602E6CE409210
:104E90008702ECCE409288022FCF4092890235CF14
:104EA00080E2E82EF12CCE0101966C018091E800A1
:104EB00085FD0AC08091E8008B778093E8000E940E
:104EC000B504882399F36ECF8091F100D6018D93BC
:104ED0006D01B1E0EB1AF10849F764CF1A828AE05C
:104EE0008B8323C08A81823009F4F0C1833009F4B6
:104EF00043C0813009F064C08FB7F8942091E1027B
:104F00003091E2024091E3025091E40229A33AA3D6
:104F10004BA35CA38FBF69A17AA18BA19CA10E9426
:104F2000E7296B837C838D839E8380910F0384307C
:104F300009F0F9CC1091E9001F709091EC00892FD5
:104F4000817090FD80E8182B82E08093E9008091C9
:104F5000E80080FF0DC050E040E060E270E0CE016C
:104F600001960E94E6048091E8008E778093E80025
:104F70001F701093E900D7CCFE013196D8018C91B7
:104F800011969C910E5F1F4F928383833296B2E0FD
:104F90000D371B0799F7C9CF8A81823089F42B819D
:104FA0003C814D815E8129A33AA34BA35CA3CA0136
:104FB000B9010E94E72986E290E00E94762AB5CFE7
:104FC0008FEF8983B2CF4C816B818A810E94EC0F75
:104FD0009827892798279E838D83A7CF2D813E818F
:104FE0003227232732274C816B818A810E94320F1E
:104FF0009CCF0E94590F99CF8A81893031F18A3034
:1050000089F18A81823809F459C0A8F58038E1F124
:10501000813809F08ACF60E08B810E94E9119B8181
:105020008091D102911142C08E7F8093D102109263
:1050300091025FEF80E792E0515080409040E1F7AD
:1050400000C000000E94B40C70CF8B8133E0839FBE
:10505000C00111246FEF70E00E949729862F0E94F3
:105060008F07CFCF8B81811103C00E94C10FC9CFA1
:105070000E94D70FC6CF833809F057CF20E0409168
:10508000D4026C818B810FC08B8144EB849FC00163
:1050900011246FEF70E00E949729462F20E0609165
:1050A000D3028091D2020E94E3103FCF81608093AF
:1050B000D10260E086950E94E91137CF8B81809301
:1050C000D50233CF8A81893089F08A30F1F0813876
:1050D00069F100F5803809F028CF8091D402BFEF44
:1050E0008B9FC001112464EB70E00BC08091D6024D
:1050F000869586958695AFEF8A9FC001112463E05F
:1051000070E00E9497296B8310CF8091D60286951C
:105110008170E6CE823891F0833809F006CF809115
:10512000D2028B838091D3028C83FFCE8091D102F7
:1051300080FF02C08695D4CE80E0D2CE8091D50289
:10514000CFCE8091D6020E94BB0F2091D102309128
:10515000D2024091D3025091D40229A33AA34BA387
:105160005CA3CA01B9010E94CE10DFCE80E18A8320
:10517000DCCE1A8281ECB4CE0A811B811027012774
:105180001027AE014F5F5F4F7A01CC80CA018C0DB2
:10519000911D6C01C801815C9C4FEC14FD0409F465
:1051A000C4CE013C110558F40E94622AD70114961E
:1051B0008C930F5F1F4FFFEFEF1AFF0AEBCFF70142
:1051C0001482F7CF0A811B811027012710279E0127
:1051D0002F5F3F4F6901EC80E00EF12EF11CC801FA
:1051E000815C9C4F0E151F0509F49FCE013C1105F3
:1051F00028F4D60114966C910E94762ABFEFCB1A40
:10520000DB0A0F5F1F4FEBCF0E94220F8ECE84E090
:10521000AECF0A811B81102701271027FE0131968E
:105220007F01CC809F012C0D311D6901C80187963B
:10523000CE14DF0409F479CE083133E0130758F4B3
:105240000E94622AD70114968C930F5F1F4FFFEFC5
:10525000EF1AFF0AEBCFF7011482F7CF0A811B8107
:105260001027012710279E012F5F3F4F6901EC8017
:10527000E00EF12EF11CC8018796E016F10609F444
:1052800054CE083133E0130728F4D60114966C91FC
:105290000E94762ABFEFCB1ADB0A0F5F1F4FEBCFBE
:1052A00009BD19BD09B400FEFDCF8091D8008F7DE6
:1052B0008093D8008091E00082608093E00080912C
:1052C000E00081FDFCCF0E94E914F1CB86E290E082
:1052D0000E94622A1B821C821D828E8326CE2B3066
:1052E000310508F0D9CC11CD2B30310508F085CC33
:1052F000BDCCDB018F939F930E940C2ABF91AF918D
:10530000A29F800D911DA39F900DB29F900D11241F
:10531000089587FB082E062687FD819567FD619518
:105320000E94562A0EF4919507FC81950895AA1BB8
:10533000BB1B51E107C0AA1FBB1FA617B70710F080
:10534000A61BB70B881F991F5A95A9F780959095B2
:10535000BC01CD01089597FB072E16F4009407D0E9
:1053600077FD09D00E94972907FC05D03EF490955F
:1053700081959F4F0895709561957F4F0895A1E2A3
:105380001A2EAA1BBB1BFD010DC0AA1FBB1FEE1FBF
:10539000FF1FA217B307E407F50720F0A21BB30B0A
:1053A000E40BF50B661F771F881F991F1A9469F786
:1053B00060957095809590959B01AC01BD01CF01E2
:1053C0000895EE0FFF1F0590F491E02D09946927D1
:1053D0009627692778278727782708950E94F62936
:1053E000332312F48A1B9B0B0C94072AA29FB00153
:1053F000B39FC001A39F700D811D1124911DB29F09
:10540000700D811D1124911D08950E94F629B7FF8A
:105410000895821B930B08950E94F629A59F900D75
:10542000B49F900DA49F800D911D11240895B7FF86
:105430000C940C2A0E940C2A821B930B08952F9225
:105440003F924F925F926F927F928F929F92AF9214
:10545000BF92CF92DF92EF92FF920F931F93CF9361
:10546000DF93CDB7DEB7CA1BDB0B0FB6F894DEBFF8
:105470000FBECDBF09942A88398848885F846E841E
:105480007D848C849B84AA84B984C884DF80EE8068
:10549000FD800C811B81AA81B981CE0FD11D0FB671
:1054A000F894DEBF0FBECDBFED010895991B79E0E2
:1054B00004C0991F961708F0961B881F7A95C9F7A4
:1054C00080950895F999FECF92BD81BDF89A9927EC
:1054D00080B50895A6E1B0E044E050E00C949C2A29
:1054E000A8E1B0E042E050E00C949C2A262FF99904
:1054F000FECF92BD81BDF89A019700B4021639F033
:105500001FBA20BD0FB6F894FA9AF99A0FBE089503
:105510000396272F0E94772A0E94762A252F0E9421
:10552000772A242F0C94772A0196272F0E94772A16
:105530000C94762ADC01CB01FC01F999FECF06C060
:10554000F2BDE1BDF89A319600B40D924150504041
:10555000B8F70895FC014150504030F00190061614
:10556000D1F73197CF010895882799270895FB0136
:10557000DC0104C08D910190801921F4415050400C
:10558000C8F7881B990B0895F894FFCFDD15051611
:10559000A7170516A71738165916A7175617631712
:1055A000311A351A391A451A491A4D1A511A571A09
:1055B0005F1A671A6B1A6F1A7B1A7F1A831A871A77
:1055C0008D1AAB1A951A411A731A771A5B1A911A27
:1055D000A11AB41ABA1A0A1B111B161B1B1B201B7B
:1055E000251B2A1B2F1B341B391B3E1B411B461B33
:1055F000491B4C1B4F1B521B551B581B12191A19C8
:105600001C1938194C19621979199C1B9C1BD71B42
:10561000D71B721C8C1C071C071C971C061D161D13
:10562000161D6E277227CC27E327EE27F927FC27C4
:105630006228A128E027E027B628B928BC28E2285C
:085640000429072909292E297C
:1056480017064D0C2E0C290C240C160601191A1BD2
:105658001C1D1E1F20212201020101010000000063
:10566800E200E900EA00B500B600B700CD0083010A
:10567800CC008A019201940121022302240225020E
:10568800260227022A02B300B4006F00700090912E
:10569800929395949697343733323130C6F1F4F5B6
:1056A800F6F70001020202020606060909090909BD
:1056B800090F0F0F0F0F0F151515181919191919AB
:1056C800191919191923244022B684016201AC0062
:0656D80035084E086E08C3
:00000001FF
