:100000000C942D030C9465030C9465030C94650308
:100010000C9465030C9465030C9465030C946503C0
:100020000C9465030C9465030C94E5270C94A127AC
:100030000C94E2280C9465030C9465030C946503FE
:100040000C9465030C9465030C9465030C94650390
:100050000C9465030C94BE280C9465030C94650302
:100060000C9465030C9465030C9465030C94650370
:100070000C9465030C9465030C9465030C94650360
:100080000C9465030C9465030C9465030C94650350
:100090000C9465030C9465030C9465030C94650340
:1000A0000C9465030C9465030C9465030501090227
:1000B000A10185020901A1000509190129081500FE
:1000C0002501950875018102050109300931158165
:1000D000257F95027508810609381581257F9501D0
:1000E00075088106050C0A38021581257F95017572
:1000F000088106C0C005010980A101850319012AF4
:10010000B700150126B700950175108100C0050CD8
:100110000901A101850419012AA002150126A002E6
:10012000950175108100C005010906A1018506052C
:100130000719E029E71500250195087501810205D9
:1001400007190029EF1500250195F07501810205B9
:10015000081901290595057501910295017503910D
:1001600001C00660FF0961A1010962150026FF00B8
:100170009520750881020963150026FF00952075FA
:10018000089102C005010906A101050719E029E748
:1001900015002501950875018102950175088101F9
:1001A0000507190029FF150026FF0095067508812F
:1001B000000508190129059505750191029501753C
:1001C000039101C0000000000000000000000000DA
:1001D000000000000000000000000000000000001F
:1001E00000000000000000007E0F00D4FFFFFFC7EA
:1001F0000000007800000000000000002A2B28000A
:1002000000000000000000000000000000000029C5
:10021000000000002C1E3420212224342627252E05
:10022000362D3738271E1F2021222324252633333D
:10023000362E37381F0405060708090A0B0C0D0E69
:100240000F101112131415161718191A1B1C1D2F35
:100250003130232D350405060708090A0B0C0D0E55
:100260000F101112131415161718191A1B1C1D2F15
:100270003130354C69646F62616F2F696436313A91
:1002800069646F62616F202876302E31372E302DF1
:1002900037322D673138613563382900000101019B
:1002A0000101010101010202020202020202020333
:1002B0000303030303030304040404040404050503
:1002C00005050506060606060707070707080808C6
:1002D00008090909090A0A0A0B0B0B0C0C0C0D0D75
:1002E0000D0E0E0E0F0F0F1010111111121213130D
:1002F0001414151516161717181819191A1A1B1B86
:100300001C1D1D1E1E1F20202122222324242526E1
:1003100026272829292A2B2C2D2D2E2F3031323219
:10032000333435363738393A3B3C3D3E3F40414225
:10033000434445464748494A4C4D4E4F505153540B
:10034000555658595A5B5D5E5F61626465666869BF
:100350006B6C6D6F7072737577787A7B7D7E80823F
:10036000838587888A8C8E8F91939596989A9C9E88
:10037000A0A2A3A5A7A9ABADAFB1B3B5B7BABCBE98
:10038000C0C2C4C6C9CBCDCFD1D4D6D8DBDDDFE265
:10039000E4E7E9EBEEF0F3F5F8FAFDFF165C1E007A
:1003A0001F00200021002200230024002500260039
:1003B00027002D002E002A002B0014001A00080030
:1003C000150017001C0018000C00120013002F006D
:1003D00030003100394104001600070009000A000E
:1003E0000B000D000E000F00330034002800000049
:1003F000E10000001D001B000600190005001100AF
:100400001000360037003800835F0000E000E30092
:10041000E2000000000000002C00000000000000CE
:100420000151845F855F885F35003A003B003C00E6
:100430003D003E003F0040004100420043004400B8
:1004400045004C00825F0100520001000100C25CC7
:10045000C55CC75CC95CCB5C46004A004D004900E6
:100460000100500051004F000100C35CC65CC85C35
:10047000CA5CCC5C01004B000100000001000000E0
:10048000010001000100895F005C145C01000100B3
:1004900001004E0001000000010001000100000009
:1004A0000000000001000000000000000100010049
:1004B0000100010001000100010001000100010034
:1004C0000100010001000100010001000100010024
:1004D0000100010001000100010001000100010014
:1004E0000100010001000100010001000100010004
:1004F00001000100010001000100010001000100F4
:1005000001000100010000000100000001000100E5
:1005100001000100010001000100010001000100D3
:1005200001000000010001000100000000000000C7
:1005300001000000000000000100010001000100B6
:1005400001000100010001000100010001000100A3
:100550000100010001000100010001000100010093
:100560000100010001000100010001000100010083
:100570000100010001000100010001000100010073
:100580000100010001000100010001000100010063
:100590000100000001000000010001000100010055
:1005A0000100010001000100010001000100000044
:1005B0000100010001000000000000000100000037
:1005C00000000000010001000100010009025B00C1
:1005D000030100A0FA090400000103010100092140
:1005E00011010001224000070581030800010904F0
:1005F0000100020300000009211101000122220074
:1006000007058203200001070503032000010904F8
:100610000200010300000009211101000122B600BF
:100620000705840320000112010002000000086495
:100630006961000001010200010A0349004400361B
:1006400000310000000E03490044004F0042004109
:10065000004F000000040309040011241FBECFEF67
:10066000DAE0DEBFCDBF04B603FE18C08091E90416
:100670009091EA04A091EB04B091EC048730904B88
:10068000A740B04B59F41092E9041092EA0410927A
:10069000EB041092EC04E0E0F8E3099524E0A4E90F
:1006A000B2E001C01D92A93EB207E1F712E0A0E05E
:1006B000B1E0E6E8F0E602C005900D92A439B1077A
:1006C000D9F70E9409290C94F02F0C940000E8ED52
:1006D000F0E080818E7F80831092E2001092DA0039
:1006E0001092E100A0EEB0E08C9181608C9380814B
:1006F0008F77808319BCA7EDB0E08C918E7F8C93AF
:1007000080818F7E80831092830408952091E4007D
:100710003091E50095E6A9012091EC00822F8170CF
:1007200020FF06C08091E80080FF06C080E00895A9
:100730002091E80022FD1AC08091A804882389F046
:10074000853089F08091EB0085FD0FC02091E40099
:100750003091E50042175307F9F29150E1F684E039
:10076000089582E0089583E0089581E00895EF926E
:10077000FF920F931F93CF937C018B010E948603FE
:10078000C82F811117C08091E80085FD0BC08091B2
:10079000E8008E778093E8000E948603882399F30F
:1007A000C82F08C0F70181917F018093F1000150AB
:1007B000110949F78C2FCF911F910F91FF90EF9066
:1007C00008958091AA0487FF13C08091E80082FFFA
:1007D00006C08091E8008B778093E80004C0809188
:1007E000A8048111F2CF08958091A8048823D9F339
:1007F0008091E80080FFF8CF8091E8008E77ECCF01
:10080000982F9093E900242F762F50E0891731F02C
:100810007091EC002091ED005091F00021FD07C097
:100820009F5F973071F78093E90081E008953091E0
:10083000EB003E7F3093EB003091ED003D7F309335
:10084000ED003091EB0031603093EB007093EC00E1
:100850002093ED005093F0002091EE0027FDE0CFB3
:1008600080E00895B0E0A0E0E8E3F4E00C94962E78
:10087000C8EDD0E088818F7E8883E7EDF0E080814D
:100880008160808384E082BF81E0809383048881DB
:100890008E7F888302EE10E0F80110821092DA0059
:1008A00081EEC82ED12CF601108288818F77888343
:1008B00088818068888388818F7D888319BC1092A5
:1008C000A8041092A9041092A7041092A60490EE16
:1008D000E92EF12CF70180818B7F808388818160F4
:1008E000888342E060E080E00E940004F60180819D
:1008F0008E7F8083F8018081816080838081886021
:100900008083F70180818E7F8083888180618883E6
:10091000CDB7DEB7E8E00C94B22EFC018091B004B4
:100920009091B10486179707A0F06115710529F41D
:100930009091E8009E779093E80090E06115710532
:1009400051F4911108C08091E80082FF34C080E02A
:100950000895BC01F2CF8091A8048823C1F18530AD
:10096000C1F18091E80083FD30C08091E80082FDF4
:10097000EACF8091E80080FFE1CF8091F3002091E1
:10098000F200382F6115710519F02830310558F043
:1009900091E02830310509F090E02091E8002E77B1
:1009A0002093E800CBCF81918093F10061507109D1
:1009B0002F5F3F4FE7CF8091A804882341F0853017
:1009C00041F08091E80083FFBECF81E0089582E08E
:1009D000089583E0089508958091850408959C0109
:1009E0004FB7F89480917A0490917B04A0917C0495
:1009F000B0917D044FBF821B930B08952FB7F894DD
:100A000080917A0490917B04A0917C04B0917D0444
:100A10002FBF0895209113012223C9F020917E0455
:100A200027FF15C0E62FE695E695E695EE31D8F45A
:100A3000E80FF92FF11D677021E030E001C0220FAF
:100A40006A95EAF720958281282322830895FC0184
:100A5000329608962191621303C0DF0111971C9210
:100A6000E817F907B9F70895209113012223C1F07F
:100A700020917E0427FF14C0E62FE695E695E695C3
:100A8000EE31F8F4E80FF92FF11D677021E030E046
:100A900001C0220F6A95EAF78281822B8283089532
:100AA000FC0132962FEF30E04191641751F02F3F57
:100AB00019F4411101C0232F3F5F3630A9F72F3FB2
:100AC00009F40895820F911D27FD9A95FC01628318
:100AD000089520917704309178042817390771F030
:100AE0009093780480937704E0917504F0917604F4
:100AF000309721F00084F185E02D0995089520912B
:100B00007304309174042817390771F090937404BA
:100B100080937304E0917504F0917604309721F08E
:100B20000680F781E02D09950895E0917504F09114
:100B30007604309729F00190F081E02D0995089511
:100B400080E00895FA01811101C0FB010995089523
:100B5000EEE9F3E0818360834283339694E0E337E8
:100B6000F907C1F70895FC01EE0FFF1FE80FF91F09
:100B7000E256FC4F6183408322830895E6EBF4E064
:100B8000248130E1231B08F420E0248380919D031D
:100B9000816080939D030895E6EBF4E0248130E1C9
:100BA000230F08F42FEF248380919D0381608093AD
:100BB0009D0308959091B604937071F08093B704EB
:100BC0006093B804453B08F044EB4093B90480912E
:100BD0009D03822B80939D030895E6EBF4E043810F
:100BE00020E1421B08F440E0818121E0628190E035
:100BF0000E94DA050895E6EBF4E0438120E1420F1C
:100C000008F44FEF818121E0628190E00E94DA05D3
:100C10000895E6EBF4E0628120E1621B08F460E0F5
:100C2000818121E0438190E00E94DA050895E6EB9E
:100C3000F4E0628120E1620F08F46FEF818121E02E
:100C4000438190E00E94DA050895E6EBF4E08181AB
:100C500021E0438162818850990B0E94DA05089552
:100C6000E6EBF4E0818190E021E043816281089627
:100C70000E94DA0508959091B604937061F0811195
:100C80000BC094609093B6041092120180919D0362
:100C9000862B80939D030895883210F09C69F2CFD3
:100CA000880F880F982BEECF8091B6048695869595
:100CB000815009F487E261E00E943B06089580912B
:100CC000B604869586958F5F883208F081E061E0F2
:100CD0000E943B0608958091B604837011F410922F
:100CE00012018091B6048C7F81608093B6040895D0
:100CF000EF92FF920F939701201B31092F3F31058F
:100D000019F010F02FEF30E02095382F320F08F453
:100D10003FEF832F0F91FF90EF900895EF92FF9296
:100D20000F939701201B31092F3F310519F010F067
:100D30002FEF30E0322F3095482F430F08F44FEF5C
:100D4000842F620F0F91FF90EF900895EF92FF9222
:100D50000F93972F093438F4B701601B71096F3F67
:100D6000710519F010F06FEF70E0485F5F4F41318F
:100D7000510540F0A901485F5F4F4131510510F026
:100D80006FEF70E06095482F460F08F44FEF842F07
:100D900037FF02C02D5F3F4F359527953595279535
:100DA0006091B704620F792F0F91FF90EF90089533
:100DB000EF92FF920F931F930E0D1F2D111DF9013E
:100DC00037FF03C0F195E195F10924E0EE0FFF1F15
:100DD0002A95E1F7EF3FF10519F014F0EFEFF0E09D
:100DE0009A0157FF03C031952195310994E0220FF4
:100DF000331F9A95E1F72E173F070CF4F901E00F26
:100E0000F11FEF3FF10519F010F0EFEFF0E0E09582
:100E1000282F3E2F230F08F42FEF822F1F910F91C1
:100E2000FF90EF900895EF92FF920F93970195E056
:100E3000099F200D311D11242F3F310519F010F0AD
:100E40002FEF30E02095382F320F08F43FEF832F3B
:100E50000F91FF90EF90089522E8241B08F420E002
:100E6000620F08954095282F429F412D1124842F11
:100E70000895E42FF0E0EE0FFF1FE154FE4F908144
:100E8000921B97FD9195292F38E1239F212D112445
:100E9000620F08950F931F9310E0F801EE0FFF1FEC
:100EA000E154FE4F9081905797FD9195000F111FCF
:100EB000F801E054FE4F00810052110B2003F001B5
:100EC000219FF00D112408E310E0091B110997FD83
:100ED000139540039001419F300D1124E20FF31F41
:100EE0009F01220F331F2E0F3F1F37FF02C02158D3
:100EF0003F4F220F232F221F330B620F1F910F91A1
:100F000008950F931F93522F10E0F801EE0FFF1F6B
:100F1000E054FE4FA081A052BB0B9D015203F00193
:100F2000539FF00D1124000F111FD801A154BE4F83
:100F30000C910057110B40039001419F300D11247B
:100F40002E0F3F1F37FF02C0215C3F4F96E03595C3
:100F500027959A95E1F7620F1F910F9108950F93CE
:100F60001F93522F10E0F801EE0FFF1FE054FE4FC9
:100F7000A081A052BB0B9D015203F001539FF00DC5
:100F80001124000F111FD801A154BE4F0C9100571E
:100F9000110B40039001419F300D11242E0F3F1F74
:100FA00037FF02C021583F4F220F232F221F330B40
:100FB000620F1F910F910895EF920F93972F23E0E7
:100FC000029FB0011124759567956E0D792F0F91D1
:100FD000EF900895322F50E0FA01EE0FFF1FE0541A
:100FE000FE4F9081905297FD9195440F551FFA0145
:100FF000E154FE4F2081231B330B290F311D97FD38
:101000003A95620F0895E42FF0E0EE0FFF1FE054D1
:10101000FE4F6081621B0895E42FF0E0EE0FFF1F8A
:10102000E154FE4F6081621B0895622F0895E42F02
:10103000F0E0EE0FFF1FE154FE4F408134EE439F7E
:10104000412D1124E82FF0E050E0445E5F4FDA01BB
:10105000A21BB1099D01B7FF03C03195219531094C
:1010600093E0220F331F9A95E1F7AF01421B530B18
:101070009A0157FD20E0582F259F212D1124822F02
:101080000895E42FF0E0EE0FFF1FE154FE4F408182
:1010900034EE439F412D1124E72FF0E050E0445EF1
:1010A0005F4FDA01A21BB1099D01B7FF03C0319563
:1010B0002195310993E0220F331F9A95E1F7AF0193
:1010C000421B530B9A0157FD20E0279F212D11242D
:1010D000722F08950E94A80508950E94B3050895EF
:1010E000FC019B01009729F480E077FF2BC080E88A
:1010F0000895AC0197FF04C044275527481B590B9E
:10110000B901640F751F37FD10C0241B350BC901D1
:10111000A5E0880F991FAA95E1F70E946B2E80E247
:10112000861BF7FF0FC081950895CB0165E0880FFE
:10113000991F6A95E1F7BA01621B730B0E946B2E2F
:1011400080E6EECF0895EF920F93CF93DF93D72FE2
:10115000C82FC9010E19BA010E947008602F681BC0
:101160007D2F8C2FDF91CF910F91EF9008950F93EA
:10117000CF93DF93D72FC82FC901BA010E947008FF
:10118000682F600F7D2F8C2FDF91CF910F910895E5
:10119000EF920F931F93CF93DF93D62FC72F182F64
:1011A000C9010E19010FBA010E947008081B202FF7
:1011B000219F212D1124822F6D2F7C2FDF91CF9124
:1011C0001F910F91EF900895EF920F931F93CF937C
:1011D000DF93D62F172FC82FC9010E19070FBA0199
:1011E0000E947008702F781B719F712D11246D2F34
:1011F0008C2FDF91CF911F910F91EF9008950F9356
:101200001F93CF93DF93D62FC72F182FC901212FFC
:10121000201B022FBA010E947008982F990F990F76
:10122000891B800F282F219F212D1124822F6D2FA4
:101230007C2FDF91CF911F910F9108950F931F93F2
:10124000CF93DF93D62F172FC82FC901272F201B2D
:10125000022FBA010E947008982F990F990F782FCA
:10126000791B700F719F712D11246D2F8C2FDF91C1
:10127000CF911F910F910895E82F86FDE0952E2FB5
:101280002F7086FD2F5FE695E695E695E670F0E017
:10129000EE59FE4F9181929F902D212D1124929510
:1012A0009F702295207F922B2081920F87FD919530
:1012B00080E8890F08950F931F93CF93DF938B01DD
:1012C000D82FC42F822F0E943C09EC2FF0E0EE0FA4
:1012D000FF1FE154FE4F90819058890F87FD819543
:1012E000880F682F2CE0629F612D1124600F712FF1
:1012F0008D2FDF91CF911F910F910895AC01823016
:10130000910508F408959FEF413E8EE1580740F49F
:101310009A0195E0369527959A95E1F798E0920F16
:1013200061E0E62FE90FFF27FF1F9F013595279505
:10133000822F229FF001239FF00DF00D11244E17F4
:101340005F0738F49FEF920F961758F78FEF860FCD
:1013500008952F3FE9F361E0620FF6CF0F93CF932B
:10136000DF93D72FC82F47FD419588E390E0841B7A
:10137000910947FD9395889FB001899F700D700D6D
:101380001124229FC001239F900D900D1124860FE0
:10139000971F0E947E09982F990F890F682F600F61
:1013A0007D2F8C2FDF91CF910F91089530E020E0B9
:1013B000869F212D969F200D311D1124C90108956E
:1013C000AF92BF92CF92DF92FF920F931F93CF9372
:1013D000DF93362F472FE82FF0E0E456FD4F7111D1
:1013E0000FC0E4918E2F2E2F6E2F722FDF91CF9191
:1013F0001F910F91FF90DF90CF90BF90AF90089515
:10140000C72FD0E02491F22E022F10E056E0659F06
:10141000C0011124EFEFF0E0BF010E94572E832F8F
:1014200090E0880F991F35E5369FD001379FB00DAA
:1014300011248A1B9B0B982F990F980F6F01CC1AC0
:10144000DD0AC09ED001C19EB00DD09EB00D11240A
:101450008B2F499FA0011124452F55276F01C41AD6
:10146000D50AC09EA001C19E500DD09E500D1124E2
:101470005F01A91AB108AC9E6001AD9ED00CBC9E64
:10148000D00C1124CD2CDD24EC19FD09E09FE001E6
:10149000E19FD00DF09FD00D1124ED2F623071052A
:1014A000A1F050F46115710509F49ECF613071050A
:1014B00081F0EB2F852F98CF6430710569F080F0B3
:1014C0006630710509F490CFF4CFE22F2B2F8D2FCA
:1014D0008BCFE22F252F88CFEB2F822F2D2F84CF7C
:1014E0002B2F8F2DE52F80CF2F923F925F926F92FF
:1014F0007F928F929F92AF92BF92CF92DF92EF92A4
:10150000FF920F931F93CF93DF93CDB7DEB72A9748
:101510000FB6F894DEBF0FBECDBF8B837E836D8385
:10152000209114018FE0289F802D11248F83815FEB
:1015300089838A83883410F037E43A838091BC042D
:101540008C83FF81EF2FF0E0FA87E987CF01880FC6
:10155000991F9C0121543E4F69013B81832F90E0EC
:10156000FC013196F887EF838A8199859817E8F016
:1015700081E0E981E73408F080E02A960FB6F8941C
:10158000DEBF0FBECDBFDF91CF911F910F91FF90B6
:10159000EF90DF90CF90BF90AF909F908F907F9013
:1015A0006F905F903F902F900895E985FA85E35BF7
:1015B000FD4F8081909115018923F1F02090B704AF
:1015C0003090B8042F81388524543B4F39015B801B
:1015D00010E0FC815F16D0F02091B904129F112D0C
:1015E0001124B101812F0E94E009462F282F672F77
:1015F00089859A850E946D0829853A852F5F3F4F1E
:101600003A87298732E0C30ED11CAECFF301819116
:101610003F01F601A080A81ABB088180F3018781F1
:10162000881A9908AA9C9001AB9C300D300D1124AA
:10163000889CC001899C900D900D1124820F931FEE
:101640000E947E09082F6091BA0421E0620F08F41D
:101650006FEFF301EE0FFF1FEC5BF4408589968975
:101660000E94D6097C019401A501B101812FED8171
:10167000FE8109951B015394182FABCFB0E0A0E079
:10168000E4E4FBE00C94962E8C01C09114018FE0F1
:10169000C89FC02D11242FE0D22EDC0ECD2C27E4C4
:1016A0002D1510F497E4C92E2091BA0431E0230FD0
:1016B00008F42FEF30E050E040E06FEF7FEF80E084
:1016C00090E00E948D2F7901D0E02C2FCC1550F0A6
:1016D00081E0F6E4FD1508F480E0CDB7DEB7E8E080
:1016E0000C94B22EFE01E35BFD4F808190911501B9
:1016F000892311F14091BC044150042E000C550B7C
:1017000047FF1CC0C7016091BA0421E0620F08F4D2
:101710006FEF0E94D609AC016091B7047091B804D4
:101720008091B904F80109950E94E009462F282FFD
:10173000672FCE010E946D082196C7CFFA01E454AD
:10174000FB4F818982130AC0FA01EE0FFF1FE45498
:10175000FB4F818D928D8E159F05A8F24150510946
:10176000CFCFB0E0A0E0E7EBFBE00C94972E7C013C
:10177000C09114018FE0C89FC02D11241FE01C0FE1
:10178000012F183408F007E46091BA046695669555
:1017900021E0620F08F46FEF8091B2049091B304DE
:1017A0000E94D609D82ED0E0C01748F081E0173447
:1017B00008F080E0CDB7DEB7E7E00C94B32EFE0171
:1017C000E35BFD4F808190911501892391F0609139
:1017D000B7047091B8048091B9042D2D4C2FF701F6
:1017E00009950E94E009462F282F672FCE010E94FD
:1017F0006D082196D9CFB0E0A0E0E1E0FCE00C94C8
:10180000932E6C01C09114018FE0C89FC02D11244C
:101810001FE01C0FB12E183410F037E4B32E609186
:10182000BA04669566958091B2049091B3040E94C3
:10183000D609F82E80E48F0D0E943C0990E8A92E6D
:10184000A80E8F2D0E943C0920E8922E980ED0E021
:10185000CB1548F081E0173408F080E0CDB7DEB753
:10186000EBE00C94AF2EFE01E35BFD4F8081909185
:1018700015018923A1F06091B7047091B80480919B
:10188000B904EF2C0C2F292D4A2DF60109950E9441
:10189000E009462F282F672FCE010E946D08219660
:1018A000D7CFB0E0A0E0E7E5FCE00C94912E5C011E
:1018B000C09114018FE0C89FC02D11241FE01C0FA0
:1018C000F12E183410F037E4F32E6091BA046695C7
:1018D0008091B2049091B3040E94D609782ED0E092
:1018E000CF1548F081E0173408F080E0CDB7DEB7BF
:1018F000EDE00C94AD2EFE01E35BFD4F80819091F5
:1019000015018923C9F1CE01880F991F87589E4F71
:10191000FC01EA5BFF4F2081422F4057550B6A01C3
:10192000895B9F4FFC018081282F2052330B490196
:10193000449F9001459F300D300D1124889CC001BB
:10194000899C900D900D1124820F931F0E947E0997
:10195000082F6091B7047091B8048091B904E72C06
:101960009401A601F50109950E94E009462F282F50
:10197000672FCE010E946D082196B2CFB0E0A0E0A3
:10198000E4ECFCE00C94962E7C01C09114018FE0F5
:10199000C89FC02D11241FE01C0FD12E183410F049
:1019A00037E4D32E6091BA0466958091B204909189
:1019B000B3040E94D609C82ED0E0CD1548F081E0CE
:1019C000173408F080E0CDB7DEB7E8E00C94B22E13
:1019D000FE01E35BFD4F808190911501892311F198
:1019E000CE01880F991F87589E4FFC01E95BFF4F7E
:1019F00020812052330B8A5B9F4FFC01408140576E
:101A0000550B6091B7047091B8048091B9040C2D06
:101A1000F70109950E94E009462F282F672FCE0174
:101A20000E946D082196C9CF0E94FE049C019091EE
:101A3000670380916803982B21F03093640320930F
:101A400063039091690380916A03982B21F030938E
:101A5000620320936103E0917504F091760430975E
:101A600049F082E0809365030480F581E02D85E6EE
:101A700093E00995089540916703803F59F4809160
:101A8000680387FF0DC01092680341110BC01092CC
:101A90005F0308C0813F81F48091680318169CF3AE
:101AA000442381F08091690390916A03892B09F0A6
:101AB0005AC010925E030895823F49F447FFF0CF69
:101AC00010926703809168038111ECCFE0CF833FD0
:101AD00019F41416ACF3E4CF90916903893F29F40B
:101AE0001916F4F610926903DBCF8A3F19F497FFB9
:101AF000D7CFF8CF90916A038B3F29F497FFD0CFCF
:101B000010926A03CDCF8C3F19F41916CCF3C8CFCD
:101B10009CE0980F953090F4845F990B21E030E0C1
:101B2000B90102C0660F771F8A95E2F7CB01809555
:101B300090916603892380936603B2CF8D3F31F481
:101B4000809160038E7F80936003AACF8E3F21F443
:101B5000809160038D7FF7CF8F3F09F0A1CF8091F7
:101B600060038B7FF0CF08958091600380FD16C0E5
:101B700081FD16C082FD16C080915E038823A1F00E
:101B8000883280F428E0829FC001112468E270E06E
:101B90000E946B2E862F672B39F0089582E00895FE
:101BA00084E0089588E0089581E0089580916003BD
:101BB00080FD14C081FD14C082FD16C080915F03BA
:101BC000882381F08E3180F420E5829FC0011124AA
:101BD0006EE170E00E946B2E862F089584E10895D7
:101BE00088E2089588E0089580E50895803F31F403
:101BF0000E94D60D8195809368030895813F19F462
:101C00000E94D60DF8CF823F31F40E94D60D819507
:101C1000809367030895833F19F40E94D60DF8CF8F
:101C2000893F29F40E94B40D8093690308958A3F87
:101C300021F40E94B40D8195F7CF8B3F31F40E94BF
:101C4000B40D819580936A0308958C3F19F40E9426
:101C5000B40DF8CF9CE0980F953070F4845F990B29
:101C600021E030E001C0220F8A95EAF780916603F7
:101C7000822B8093660308958D3F31F48091600339
:101C800081608093600308958E3F21F4809160030A
:101C90008260F7CF8F3FB9F7809160038460F1CF06
:101CA00080E00895F894E82FE295EF70F0E031A11C
:101CB000282F2F7081E090E001C0880F2A95EAF765
:101CC000982F9095932391A392A1892B82A3789426
:101CD000089590917E0492FF06C0282F2871283025
:101CE000F9F4877F846093FF06C0282F287128317C
:101CF000F1F4877E846120917F0420FF06C0382F95
:101D000038713830D9F4877F816021FF06C0282FD1
:101D100028712831D1F4877E816194FD877E0895F2
:101D2000282F24712430F9F68B7F8860DCCF282F90
:101D30002471243101F78B7E8861DDCF382F31711A
:101D4000313019F78E7F8860E0CF282F2171213143
:101D500021F78E7E8861E1CFCF93DF93EC0182384B
:101D60009105A9F1D8F58133910509F496C048F59C
:101D70008932910509F48AC08A9709F495C0C11582
:101D800021E5D20708F0BCC0C11530E5D30708F043
:101D900014C1C83ED10508F09CC0C13ED10560F514
:101DA000C83AD10508F087C0C53AD10508F0FDC092
:101DB000C130D10509F12097F9F0C430D105E0F424
:101DC00040C08533910509F45AC0C997C1F6809186
:101DD0007E04837089F0C0EED0E00EC0833E910592
:101DE00099F170F4803E910501F1823E910539F63A
:101DF00080917E0482FD21C0CE01DF91CF910895B4
:101E0000863E910561F1873E910571F1843E910511
:101E100009F0B5CF80917F0481FFEECF80917E04E1
:101E2000C7EED0E084FD0DC0E7CF80917E0480FD39
:101E300012C190917F0490FFDFCFC3EED0E084FF0A
:101E4000DBCFD0E0C0E0D8CF80917E0482FD06C118
:101E500090917F0490FDBFCF84FFCECFF2CF8091D1
:101E60007E0483FDDDCFC8CF80917E0483FDF9C061
:101E700090917F0491FFF0CFC4EED0E0BDCF809170
:101E80007E0485FFB9CFC9E2D0E0B6CF80917E0451
:101E900085FFB2CFC5E3D0E0AFCF80917E0486FF4F
:101EA000ABCFCAE2D0E0A8CF80917E0486FFA4CF5A
:101EB000C1E3D0E0A1CFCF3BD10518F6C85AD0E09E
:101EC000CC0FDD1FC35EDE4F0990D881C02DD464D6
:101ED00093CFC11540E2D40758F4C11581E0D8076B
:101EE00008F08ACFC03FD10508F4ABCFD06584CFCE
:101EF000C11590E4D90708F4A4CFDF70D06A7CCF75
:101F0000C11525E5D20700F5C11534E5D30708F062
:101F10008AC0C11543E5D40708F071C0C11582E538
:101F2000D80708F467C0CE018370992721E030E01C
:101F300002C0220F331F8A95E2F7C695C69580E24C
:101F4000C89FE001112452C0C11599E5D907A8F432
:101F5000C11528E5D20708F06BC0C11536E5D307D7
:101F600008F06FCF8C2F0E94690EC82FD0E0DC2FB5
:101F7000CC27CC27DF71D0623FCFC1154AE5D4070B
:101F800008F45BC0CE0190568115904208F059CFFD
:101F90008D2F8F710E94690E90E0982F88278827D7
:101FA0009F719C012C2BE901E6CFC55AD0E0C65E9B
:101FB000DE4FC881D0E0D0641FCFCE01E4E096951B
:101FC0008795EA95E1F783702C2F26952695237047
:101FD00040E2249F90011124382B8C2F8370C1E0A4
:101FE000D0E002C0CC0FDD1F8A95E2F7C22BD32BC5
:101FF000DC6802CFDC2FCC27C16FD06AFDCECE01CA
:102000008370992721E030E002C0220F331F8A95A8
:10201000E2F7C695C69590E2C99FE0011124C22B54
:10202000D32BDA68E9CEDC2FCC27C46FD06AE4CE9C
:10203000DC2FCC27C06FD06ADFCE8C2F8F700E9430
:10204000690E34E0D695C7953A95E1F7CF709C2F8D
:10205000EC01D069D1CEC9E3D0E0CECEC2EED0E063
:10206000CBCEC6EED0E0C8CE80913903811110925C
:1020700039030895809590913803982390933803FD
:102080000895809115039091E402981301C008957A
:102090008F5F8770FACF292F953078F58E3068F5ED
:1020A00090E03EE0239F800D911D1124682F677002
:1020B00023E0969587952A95E1F7FC01EE0FFF1F27
:1020C000E80FF91FED53FD4F50E040E080E0219113
:1020D00030E0062E02C0369527950A94E2F721706B
:1020E0003327042E01C0220F0A94EAF7822B4F5F98
:1020F0005F4F4330510559F7089580E00895292F27
:10210000953098F58E3088F590E03EE0239F800D65
:10211000911D1124282F277041E001C0440F2A95FA
:10212000EAF723E0969587952A95E1F7FC01EE0FF3
:10213000FF1FE80FF91FED53FD4F30E020E070E086
:102140005191DF011197CB01022E02C09695879520
:102150000A94E2F7817081958527842385278C93E3
:102160002F5F3F4F2330310559F70895982F9295EF
:102170009F7011F0892F94E0282F2695269511F055
:102180009E5F822F869509F09F5F892F0895809327
:10219000800470938204609381048091A804843049
:1021A000F9F48093E9008FEF9091E800815095FD5C
:1021B00006C095ED9A95F1F700008111F5CF809159
:1021C000E80085FF0DC050E040E063E070E080E88B
:1021D00094E00E94B7038091E8008E778093E80036
:1021E0000895BC0184E00E94C7100895BC0183E0FB
:1021F0000E94C71008959C0184E08093E9009FEF3E
:102200008091E800915085FD06C085ED8A95F1F733
:1022100000009111F5CF8091E80085FF0CC050E0DF
:1022200040E066E070E0C9010E94B7038091E800D9
:102230008E778093E8000895CF93DF93EC0180912F
:1022400013018823B1F180917E0487FF32C060E2E0
:1022500084E08093E9008FEF9091E800815095FD34
:1022600006C095ED9A95F1F700008111F5CF8091A8
:10227000E80085FF1BC08091130170E050E040E052
:10228000811104C050E040E068E070E0CE010E949F
:10229000B7038091E8008E778093E80080E2FE012A
:1022A000A6E8B4E001900D928A95E1F7DF91CF9115
:1022B000089568E081E0CDCF81E08093E00080E286
:1022C0008093D8001092C9008FE19EE40197F1F746
:1022D00000C0000087E090EBDC018093E90490935C
:1022E000EA04A093EB04B093EC0488E19CE00FB601
:1022F000F894A895809360000FBE90936000FFCF84
:10230000809A31B33E7F21B321604FB7F8948EE9B4
:1023100093E0FC015191CF0168E021BB000000C0B7
:1023200057FF31BB550F000000C000C000C031BBDB
:1023300000C06A9591F7F4E083379F0751F74FBFCC
:102340008FE594E00197F1F700C000000895CF9366
:10235000DF93C7E5D2E060E0CE010E94692F2196AD
:10236000C11584E0D807B9F7DF91CF9108951F9385
:10237000CF93DF93122F8430E0F46530D0F44E30E9
:10238000C0F4C42FD0E0CC0FDD1F9CE1699FC00DCD
:10239000D11D11249CE8899FC00DD11D1124632FEC
:1023A000CE0187960E94692F612FCE0188960E94E8
:1023B000692FDF91CF911F910895AF92BF92CF9275
:1023C000DF92EF92FF921F93CF93DF938CE9C82E99
:1023D00083E0D82ED0E07601C0E014C0F50125914D
:1023E0003491412F6C2F8D2F0E94B71182E0A80EDF
:1023F000B11C1F5F1E3091F78CE1E80EF11CCF5F1E
:10240000C53019F0570110E0E9CFDF5F8CE8C80E46
:10241000D11CD43001F7DF91CF911F91FF90EF9045
:10242000DF90CF90BF90AF900895CF93C82F6FEFFC
:10243000811162E283E290E00E94692F6FEFC11187
:1024400066E084E290E00E94692F6FEFC11162E1C3
:1024500085E290E00E94692FCF91089580E00E946C
:10246000151260E086E290E00E94692F0E94DD1163
:102470000E94A71181E00E94151208950F931F93E7
:10248000CF93DF93843030F5653020F54E3010F572
:10249000C42FD0E0CC0FDD1F2CE1629FC00DD11DF9
:1024A00011243CE8839FC00DD11D1124CE018796D5
:1024B0000E94452F082F10E0102F0027CE0188968C
:1024C0000E94452F9801282BC901DF91CF911F91C0
:1024D0000F91089590E080E0F8CF462F843040F4CB
:1024E000753030F46E3020F4672F0E943E1208954C
:1024F00090E080E00895CF92DF92FF920F931F93B8
:10250000CF93DF936C010091E80480913A03082B8C
:10251000C7E0D0E010E0FC2EC8010C2E02C095955B
:1025200087950A94E2F780FD0CC02197A0F7F12C63
:102530008F2DDF91CF911F910F91FF90DF90CF9062
:102540000895B6018C2F0E946D120E94AC0E019767
:1025500061F3EECFCF93DF93EC010E947B12BE01BB
:102560000E946D120E94AC0EDF91CF910895FC0184
:10257000808191810E94AA1292959F70963091F06D
:1025800058F4925F9F70923058F4803F19F030F405
:10259000883E30F481E008959A5FF4CF843FD1F310
:1025A00080E00895883EB0F3813FD1F7F3CF83E216
:1025B00090E00E94452F823289F484E290E00E94EC
:1025C000452F863059F485E290E00E94452F91E036
:1025D000823109F090E0892F8170089580E0FCCF6E
:1025E000CF9384E090E00E94452FC82F82E290E0D4
:1025F0000E94452F982F8C2FCF9108951F93CF9332
:10260000DF93EC01FC01E35BFD4F80816823B1F0B7
:102610000E940F2F182F0E940F2F8F77782F20E8FE
:10262000720F08F47FEF612F8091B9040E94E009D6
:10263000462F282F672FCE010E946D08DF91CF9182
:102640001F910895B0E0A0E0E8E2F3E10C94972E2A
:102650008C01FC01E35BFD4F8081682349F1D09040
:10266000B804D091B904C091B704EC2EF12C0E94AB
:102670000F2F282FC7018C549F4F68E671E00E94EE
:102680006B2E8E199F0997FD0396959587959595C5
:10269000879523706C2F289F600D11247D2D8D2F21
:1026A0000E94E009462F282F672FC8010E946D085D
:1026B000CDB7DEB7E7E00C94B32EB0E0A0E0E3E6E0
:1026C000F3E10C94932E182F80911101811323C0F4
:1026D0009091B60493702091100130E081E0921740
:1026E000130609F480E08170809316018091BB0489
:1026F00090911501981739F08093150140E060E042
:1027000080E00E946A08183260F4E12FF0E0EE5099
:10271000F04D0C947F2E81E0E6CF8091160181115F
:1027200002C0C0E097C140E060E080E00E946A081B
:10273000F8CFC09114018FE0C89FC02D11240FE085
:102740000C0FF02E083410F0A7E4FA2E6091B704B5
:102750007091B8048091B9040E94E009E62ED72E4A
:10276000C82ED0E0CF1528F0C1E0073408F472C1BC
:10277000D8CFFE01E35BFD4F808190911501892345
:1027800031F02C2D4E2D6D2DCE010E946D0821961D
:10279000E9CFC09114018FE0C89FC02D11240FE034
:1027A0000C0FF02E083410F0F7E4FF2ED090B80490
:1027B000E090B904D091B7046D2F7D2D8E2D0E942D
:1027C000E009C62EB72EA82E6091BA046D0F7D2D9C
:1027D0008E2D0E94E009E62ED72E982ED0E0CF1540
:1027E00018F6FE01E35BFD4F90818091150189236E
:1027F00059F0292D4E2D6D2D90FD03C02A2D4C2D05
:102800006B2DCE010E946D082196E9CFC091140175
:102810008FE0C89FC02D11240FE00C0FE02E08346C
:1028200010F0E7E4EE2ED090B804C090B9042091E7
:10283000BA0470E4F72E3F2D329F312D1124F32E70
:10284000D0E0CE1508F090CFFE01E35BFD4F808114
:10285000909115018923B9F0FE01EE0FFF1FE0549E
:10286000FE4F808182958F706091B7048F9D600DBF
:1028700011247D2D8C2D0E94E009462F282F672FD3
:10288000CE010E946D082196DCCFC09114018FE02B
:10289000C89FC02D11240FE00C0FE02E083410F05B
:1028A00057E4E52ED090B804C090B9042091BA0442
:1028B00040E4F42E3F2D329F312D1124F32ED0E031
:1028C000CE1508F051CFFE01E35BFD4F8081909162
:1028D00015018923D9F0FE01EE0FFF1FE154FE4FD1
:1028E0006081F69EB001112435E0759567953A95A3
:1028F000E1F78091B704680F7D2D8C2D0E94E009CF
:10290000462F282F672FCE010E946D082196D8CF21
:10291000C09114018FE0C89FC02D11240FE00C0F4F
:10292000F02E083410F097E4F92EE090B704D0911F
:10293000B804D090B9046091BA046695669566951E
:102940008091B2049091B3040E94D6090E943C0980
:10295000805887FD8195880F282F3D2D239F212D9D
:102960001124822F6E2D7D2F0E94E009E62ED72E96
:10297000C82ED0E0CF1508F0F7CEFE01E35BFD4F87
:10298000808190911501892331F02C2D4E2D6D2DD4
:10299000CE010E946D082196EDCF81E498E00E945F
:1029A000B10B07C087E198E0FACF8EE199E00E9471
:1029B000BE0CC82F4FC08FEF98E0F9CF84EE98E09F
:1029C0000E94510CF6CF88EC98E0FACF85E198E0B0
:1029D000E6CF8CE098E0E3CF83E098E0E0CF8AEEAA
:1029E00097E0DDCF8CED97E0EBCF8EEA99E0DFCF7B
:1029F00087EB98E0DCCF83EA98E0E2CF8FEA97E0BC
:102A00000E94FB0BD6CF81E897E0FACF8AE497E0EB
:102A1000F7CFC0911601C11135C06091BA0420E111
:102A2000620F08F46FEF8091B2049091B3040E949A
:102A3000D6096AE070E00E94572E892B09F071CE0A
:102A40000E940F2F67E470E00E946B2E60911501C9
:102A50000E942213809114018F5F80931401C11191
:102A60000CC082E08093120180911601811105C093
:102A7000111103C083E080931201CDB7DEB7EBE004
:102A80000C94AF2EC09114018FE0C89FC02D11246B
:102A90000FE00C0F802F083408F087E4D0E0E82E18
:102AA000F12CCE15DF050CF05FCE60911501CE0143
:102AB0000E9422132196F5CFC0911601C1111EC0AC
:102AC0006091BA0420E1620F08F46FEF8091B204C4
:102AD0009091B3040E94D60965E070E00E94572EE1
:102AE000892B09F01ECE0E940F2F67E470E00E9430
:102AF0006B2E609115010E94FE12ACCFC0911401A3
:102B00008FE0C89FC02D11240FE00C0F802F0834D8
:102B100008F087E4D0E0E82EF12CCE15DF050CF0AC
:102B200023CE60911501CE010E94FE122196F5CFB1
:102B3000C09114018FE0C89FC02D11240FE00C0F2D
:102B4000F02E083410F087E4F82ED090B804E0900E
:102B5000B904D091B7046091BA04669566956695FC
:102B60008091B2049091B3040E94D6090E943C095E
:102B7000805887FD8195880F682F2CE0629F612D1A
:102B800011246D0F7D2D8E2D0E94E009E62ED72E8B
:102B9000C82ED0E0CF1508F0E7CDFE01E35BFD4F76
:102BA000808190911501892331F02C2D4E2D6D2DB2
:102BB000CE010E946D082196EDCF8BE599E0EFCE16
:102BC00089E397E0ECCE82E397E00E943E0BF1CEE2
:102BD0008CE297E0FACF8091BC0421E0382F321BC1
:102BE00008F430E0832F63E177E00E94740AE1CEBD
:102BF00063E177E080E0F9CF8091BC0421E0382FD9
:102C0000321B08F430E0832F68ED76E0EECF68EDFC
:102C100076E0F0CF8091BC0421E0382F321B08F41D
:102C200030E0832F66EA76E0E0CF66EA76E0E2CF36
:102C30008091BC0421E0382F321B08F430E0832F50
:102C40006EE876E0D2CF6EE876E0D4CF8091BC0417
:102C500021E0382F321B08F430E0832F68E776E05C
:102C6000C4CF68E776E0C6CF46E050E06CE170E0A4
:102C700086EB94E00E94592F10929D0308958F9245
:102C80009F92AF92BF92CF92DF92EF92FF921F93EB
:102C9000CF93DF938091940390919503A091960335
:102CA000B09197032FB7F89480907A0490907B04AA
:102CB000A0907C04B0907D042FBF75016401C81AF8
:102CC000D90AEA0AFB0A2FB7F89440917A04509186
:102CD0007B0460917C0470917D042FBF409394032A
:102CE00050939503609396037093970310916B0331
:102CF000EBE6F3E0C12FD0E00197AF4FBF4F88194B
:102D00009909AA09BB091D1327C0C0936B038091C1
:102D10009C03C0E0811108C08091B604C82FC37025
:102D200019F0C82FC695C695809112018130F1F136
:102D3000882329F1823009F45FC0833009F467C029
:102D4000DF91CF911F91FF90EF90DF90CF90BF90D8
:102D5000AF909F908F900895218D328D4901B12CB5
:102D6000A12C88159905AA05BB0520F4C150DF5F89
:102D70003296C9CF2C0D3D1D328F218FF8CF109286
:102D800014014093B2045093B3046093B40470935D
:102D9000B50489E2EBE6F3E0ACEBB4E001900D9210
:102DA0008A95E1F781E080931201CACF8C2F0E94AF
:102DB0005D13CC2329F20E94950581FF15C0609117
:102DC000B904683068F06C3A68F48091980381FF28
:102DD000685F262F462F80E290E00E946D08B0CFFA
:102DE00068E0F7CF64EBF5CF8091980381FFA8CF1F
:102DF00020E040E060E0EFCFC09311018091B60485
:102E00008370809310010E94801183E0CCCF809169
:102E10009D0381110E9434164091B2045091B30475
:102E20006091B4047091B5042FB7F89480917A043E
:102E300090917B04A0917C04B0917D042FBF841BF2
:102E4000950BA60BB70B4097A105B10508F478CFF9
:102E50001092120175CFE6EBF4E085E38083809158
:102E6000170190911801A091190181839283A38386
:102E70008FE784838FEF85830E9434160895AAE03C
:102E8000B0E0E5E4F7E10C948E2E8E010F5F1F4F4A
:102E90008AE0F80111928A95E9F79BE4E92E91E026
:102EA000F92E680120E5422E21E0522E662463941B
:102EB000712C4EE5842E41E0942EF70181917F0123
:102EC0008F3F09F445C0F894E82FE295EF70F0E0E9
:102ED00021A18F70A30102C0440F551F8A95E2F70C
:102EE000CA01922F982B91A392A18095892382A346
:102EF000789400C0E0E5F1E021E030E0B12CA12CB5
:102F000041914F3F09F47EC0A42FA295AF70B0E06D
:102F100090968C9190E04F7002C0959587954A9558
:102F2000E2F780FD6FC0C901A82AB92A220F331F1A
:102F30008E169F0629F7F701319780818F3F11F098
:102F40000E94520E50EA5A95F1F7F601B182A08222
:102F5000F2E0CF0ED11C4E145F0409F0AECF4AE070
:102F600050E0B8018EE393E00E941F2FFF24F394FA
:102F7000009709F4F12C892B09F447C08AE0F80185
:102F8000AEE3B3E001900D928A95E1F781E0809382
:102F90003D030E94FE0490933C0380933B03809189
:102FA0003B0390913C030E94EF04059790F18091C0
:102FB0003E0390913F039093550380935403809177
:102FC000400390914103909357038093560380915F
:102FD0004203909143039093590380935803809147
:102FE00044039091450390935B0380935A0380912F
:102FF00046039091470390935D0380935C03109286
:103000003D0307C090E080E08FCF80913D038111A8
:10301000C6CF8F2D2A96E0E10C94AA2E809138031A
:1030200090913703892B80939602909139039923CD
:10303000A1F0892B80939602809113018823E1F1FE
:1030400080917E0487FF38C08EE1E8E9F2E090E0ED
:103050008150A0F591110E94341040E250E067E1E8
:1030600073E086E992E00E941F2F892B21F180E214
:10307000E6E9F2E0A7E1B3E001900D928A95E1F76D
:10308000E0917504F09176043097A9F080911301D6
:10309000882359F080917E0487FF07C080919602B3
:1030A0008093970286E0809396020280F381E02D60
:1030B00086E992E00995089586E0C7CF2191222301
:1030C00039F29F5FC5CF90E080E00E947F0590E0DD
:1030D00080E00E946905109237030E940E1886E076
:1030E000E5E6F3E0DF011D928A95E9F710925F03B0
:1030F00010925E03109260030E94140D0895809355
:10310000E8040E94631808958091E804982F96704F
:10311000963021F488600E947F180895877FFBCF46
:1031200021E030E001C0220F8A95EAF720958091D6
:10313000E80482230E947F180895909116038095D9
:10314000892380931603282F277091F4282F082EA7
:10315000000C330B9217130659F090917F0492FFE5
:1031600007C08595859585950E9490181092160345
:103170000895CF93C0917F04C2FB992790F99817C7
:1031800091F080FBC2F9C0937F0460917E0484E0DB
:1031900090E00E94692F6C2F82E290E00E94692FDC
:1031A00082E00E949D18CF91089521E030E001C097
:1031B000220F8A95EAF78091E804822B0E947F18FB
:1031C000089580933A030E9463180895882321F09C
:1031D0000E943A100E940E180895882339F09091A9
:1031E0003803982B909338030E940E180895882373
:1031F00091F19CEF980F913A40F4682F86E992E0A4
:103200000E940A050E940E18089590E2980F9830C7
:1032100050F4877091E001C0990F8A95EAF7892FE1
:103220000E943A10EFCF9BE5980F933028F490E07E
:1032300080E00E947F05089598E5980F973128F463
:1032400090E080E00E9469050895803F20F00E9490
:103250003B0D0E94140D0895CF93C82F8823D9F1F8
:103260008CEF8C0F813AC8F580911301882311F1FE
:1032700080917E0487FF1EC0EC2FE695E695E695CB
:10328000F0E0EA56FD4F828190E04C2F477021E03C
:1032900030E002C0220F331F4A95E2F782239323C6
:1032A000892B91F06C2F86E992E00E940A050E941A
:1032B0000E180AC0E8E9F2E08EE992E02191C21707
:1032C00089F38E179F07D1F76C2F86E992E00E9451
:1032D00034050E940E18CF91089580E28C0F88303B
:1032E00068F4C77021E030E001C0220FCA95EAF708
:1032F00080913803822B80933803EBCFEBE5EC0F02
:10330000E33040F4F0E0E65EFE4F808190E00E9402
:103310007F05E1CFE8E5EC0FE73150F4F0E0EE0F88
:10332000FF1FE35EFE4F808191810E946905D3CF2C
:10333000C03F88F28C2F0E94F60D0E94140DCBCF57
:103340001F93CF93DF93182FD0E0C0E0893311F49F
:10335000C0E5D0E0812F0E942C19209739F4812FED
:103360000E94F718DF91CF911F9108958FE99FE098
:103370000197F1F700C000002197EFCF0F931F9343
:10338000CF93DF93C62FD42F022FFC018281882395
:10339000A9F06093E7040E94FE049093E6048093F2
:1033A000E504C77081E001C0880FCA95EAF70E9462
:1033B000ED18DF91CF911F910F9108958091E7044F
:1033C000681332C08091E5049091E6040E94EF04F6
:1033D000883C910548F510E21D0FCD17B9F080E249
:1033E0008C0F883040F4C77081E001C0880FCA9507
:1033F000EAF70E94E618183048F481E09D2F977094
:1034000001C0880F9A95EAF70E94ED18802F0E945C
:10341000A019183070F6D77081E001C0880FDA95D6
:10342000EAF70E94E618C5CFC77081E001C0880F97
:10343000CA95EAF7F6CFB0E0A0E0E1E2FAE10C9439
:10344000972EE82FF0E0EC50FE4FD490282F2695D1
:103450002695269530E0F901EC51FE4F04918770D6
:1034600010E0082E02C0159507950A94E2F7017046
:103470001127F901EC52FE4FE490F12C082E02C006
:10348000F594E7940A94E2F791E0E922FF24F90128
:10349000EC53FE4FC491D0E002C0D595C7958A95F4
:1034A000E2F7C170DD270115110519F081EE0E94C8
:1034B0002C19E114F10419F086EE0E942C198D2DBF
:1034C0000E94A019E114F10419F086EE0E94F71889
:1034D0000115110519F081EE0E94F718CD2B19F096
:1034E0008CE20E94A019CDB7DEB7E7E00C94B32EB2
:1034F000EF92FF920F931F93CF93DF93D42F122F4E
:10350000C0919803C170FB0122818A5C9C457C01BB
:103510002223F9F09091E80480913A03892B0E94CC
:10352000B61091E0811101C090E0F70190838823EB
:1035300061F0802FC11101C0812F0E942C1980E001
:10354000CDB7DEB7E6E00C94B42EC111F5CF8D2FC8
:10355000F4CFFC018081882339F0802FC11101C094
:10356000812F0E94F718EBCFC111FACF842FF9CF2A
:103570001092380380911301E8E9F2E0882361F0AA
:1035800080917E0487FF08C08EE1DF011D928A953D
:10359000E9F70E946318089586E0F7CFAAE2B0E049
:1035A000E4EDFAE10C949B2E8AEA94E02091F1007C
:1035B000DC012D93CD01B4E0823B9B07B9F78091EC
:1035C000AB04833009F472C0B8F4813009F449C007
:1035D000823009F4B3C08091E80083FF8BC28091F0
:1035E000AA049091AB049A3008F084C2E92FF0E06D
:1035F000E65EFF4C0C947F2E8A3009F48EC08B302F
:1036000009F471C0893039F78091AA04813219F721
:103610008091AE049091AF04009711F00297D9F613
:103620008091E800877F8093E8008091E80082FF26
:1036300038C09091F3008091F200029731F48091AC
:10364000F100813011F0863021F48091F1008093F7
:1036500085048091E8008B778093E8000E94E10365
:10366000BACF8091AA04813A09F0B5CF8091E800E1
:10367000877F8093E8008091AE049091AF04892BFE
:1036800061F460E286E894E070E00E948D0480912D
:10369000E8008B778093E8009ECF60E090E080E0C8
:1036A000F3CF8091A8048111C0CF95CF8091AA0457
:1036B000813A09F090CF8091AE049091AF04892BAC
:1036C00009F089CF8091E800877F8093E80080919E
:1036D000E80080FFFCCF809113018093F10080917E
:1036E000E8008E77B9CF8091AA04813209F073CFB8
:1036F0008091AE049091AF04892B09F06CCF80913A
:10370000E800877F8093E8000E94E1038091AC0489
:10371000809313010E94B81A5ECF8091AA0481326F
:1037200009F059CF8091E800877F8093E8000E94DC
:10373000E1038091AD04809384044DCF8091AA046D
:10374000813A09F048CF8091E800877F8093E800B4
:103750008091E80080FFFCCF80918404BECF803848
:1037600099F0823809F0C6C18091AE048F7087301D
:1037700008F0C0C18093E9008091EB0085FB8827A9
:1037800080F91092E90006C08091A6049091A704E8
:10379000911182609091E800977F9093E800809368
:1037A000F1001092F1008091E8008E779FC188238C
:1037B00009F48DC1823009F09DC18091AC04811162
:1037C00090C18091AE048F702FEF280F263008F043
:1037D00091C18093E9002091EB0020FF82C19330DA
:1037E00031F48091EB0080628093EB007AC190917C
:1037F000EB0090619093EB0021E030E001C0220FDC
:103800008A95EAF72093EA001092EA008091EB0093
:103810008860EACF81116EC11091AC041F7780914E
:10382000E3008078812B8093E3008091E800877F1C
:103830008093E8000E94E1038091E80080FFFCCFC4
:103840008091E30080688093E30082E0111183E0BF
:103850008093A8044FC18058823008F04BC120915A
:10386000AC043091AD042C3DE3E03E07A1F583E0CC
:103870008A838AE289834FB7F894DE01139620E0A9
:103880003EE051E2E32FF0E050935700E49120FF37
:1038900003C0E295EF703F5FEF708E2F90E0EA304B
:1038A000C0F0C7968D939D932F5F243159F74FBF7A
:1038B0008091E800877F8093E8006AE270E0CE01A3
:1038C00001960E948D048091E8008B778093E80038
:1038D00011C1C096E7CF8091AE049091AF04432F01
:1038E00055274330510509F44AC078F54130510558
:1038F00009F47AC08BE590E0ECECF5E0423051053C
:1039000009F0F8C02091E800277F2093E80020917B
:10391000B0043091B1048217930708F49C0140E091
:103920002115310509F065C0411163C08091E8009F
:1039300082FDC9CF8091A804882329F2853019F22D
:103940008091E80083FFF2CFBECF4132510509F4E8
:103950003CC04232510509F0CDC08330910508F0DA
:10396000C9C0FC01EE0FFF1FE359FE4F0190F0812B
:10397000E02D86599E4FDC018C9190E01AC03327D0
:1039800021303105D1F02115310561F022303105AA
:1039900009F0B0C0E9E3F6E0E4918E2F90E0E9E3AE
:1039A000F6E007C0E5E5F6E0E4918E2F90E0E5E56E
:1039B000F6E0009709F49EC0A5CFE5E4F6E0E491B7
:1039C0008E2F90E0E5E4F6E0F4CF8330910508F027
:1039D00091C0880F991FFC01ED58FE4F0190F081B6
:1039E000E02D89E090E08ECF82E190E0E7E2F6E022
:1039F00089CF8091A804882309F465CF853009F424
:103A000062CF8091E80083FD5ECF8091E80082FD67
:103A10008DCF8091E80080FF83CF9091F30080915B
:103A2000F2002115310519F08830910550F041E080
:103A3000089709F040E08091E8008E778093E800D5
:103A40006FCF44914093F100319621503109019696
:103A5000E8CF803809F04EC08091E800877F8093DE
:103A6000E8008091A9048093F1009DCE811142C0AD
:103A70001091AC041230F0F58091E800877F8093BC
:103A8000E8001093A9040E94E103112311F084E0DF
:103A900005C08091E30087FDFACF81E08093A80400
:103AA00042E061EC81E00E94000442E261EC84E0CB
:103AB0000E94000442E261EC82E00E94000442E2C3
:103AC00060EC83E00E9400048091A80413C0809100
:103AD000AC04813079F481E0933009F080E0809388
:103AE000A7041092E9008091E800877F8093E800A6
:103AF0000E94E1038091E80083FF0AC08091E80002
:103B0000877F8093E8008091EB0080628093EB00D8
:103B1000AA96E3E00C94B72E0E94B81A2FEF84E324
:103B20009CE0215080409040E1F700C0000088E117
:103B30009CE00FB6F894A895809360000FBE909318
:103B40006000FFCF90E080E00E94532F883E9E4FA0
:103B500019F40E94D712089580E008958091980387
:103B600081FF14C01092BB0440E060E080E00E943E
:103B70006A08409198035091990360919A0370915B
:103B80009B038FE090E00E947B2F08958FEF80933E
:103B9000BB040E946B06EDCF68EE7EEF90E080E004
:103BA0000E94872F60E082E090E00E94692F60E031
:103BB00083E090E00E94692F10923A0360E084E075
:103BC00090E00E94692F64E082E290E00E94692FF9
:103BD00060E085E090E00E94692F60E086E090E080
:103BE0000E94692F6FEF87E090E00E94692F40E00C
:103BF00050E0BA0188E090E00E947B2F60E08DE009
:103C000090E00E94692F40E050E0BA0188E190E026
:103C10000E947B2F60E087E190E00E94692F40E0E6
:103C200050E0BA018CE190E00E947B2F70E060E0F0
:103C300080E290E00E94872F40E050E0BA0188E1E6
:103C400090E00E947B2F80E00E9415120E942E12AD
:103C500040E050E0BA018FE090E00E947B2F10928C
:103C600098031092990310929A0310929B030E945A
:103C7000AE1D08958FE090E00E944D2F6093980351
:103C80007093990380939A0390939B030E94AE1DB7
:103C90000895A5E0B0E0EFE4FEE10C94922E6C01F3
:103CA000FC0183819481892B31F08081918189236A
:103CB0008F3F09F04FC62596ECE00C94AE2E0E9483
:103CC0007B12182F682F89819A810E947F10698149
:103CD0007A81812F0E946D127C01F60182818823F6
:103CE00009F42AC6970122513F452031310508F0D9
:103CF000DBC58FEF93E00E94452F811127C01EEE98
:103D00001E0D77E5A72E72E0B72E111131C01C826F
:103D10001B82FF24F3946AE0E62E85010F5F1F4F9C
:103D2000C5010E94452F89831A82882379F09FEF6D
:103D3000980F933058F58A83F98232E0A30EB11CB4
:103D4000C8010E94452F8B83811121C080911603E9
:103D5000877009F4B0CFF6018281882309F4ABCFD4
:103D600080917F0482FFA7CF82E00E949D18A3CF9D
:103D7000A114F4E0BF0651F3C5010E94452F811143
:103D800001C011502FEFA21AB20ABFCF58018E0105
:103D90000F5F1F4FF8018081882309F4BECF813067
:103DA00009F041C091818281913039F40E5F1F4F3B
:103DB0000E94A0190F5F1F4FEDCF923029F40E5FC4
:103DC0001F4F0E942C19F6CF933029F40E5F1F4F1E
:103DD0000E94F718EFCF943019F00F5F1F4FEACF12
:103DE0000E5F1F4F30E020E0B8016F5F7F4FF8019A
:103DF00041818053990B8A30910550F0215031094F
:103E0000C8F28FE99FE00197F1F700C00000F6CFFC
:103E1000E29EF001E39EF00D11249C012E0F3F1F46
:103E2000842F8B01E1CF0E941B1AC4CF81E00E9436
:103E3000D5180E9484188ACF81E00E949018F9CF8B
:103E400082E0F5CF20E8E2162FE5F20609F437C14B
:103E500008F03FC19EEDE9169CE5F90609F04EC554
:103E6000811155C00E943A1E52C0E6E8EE16EFE5F9
:103E7000FE0609F4D1C078F424E8E2162FE5F20634
:103E800009F4C3C008F4B5C00EE421E545E6B60167
:103E900085E89FE5B4C0E8E8EE16EFE5FE0609F414
:103EA000C9C008F4C0C029E8E2162FE5F20609F0FF
:103EB00025C591114BCF811149CF44E7E42E42E053
:103EC000F42E5AE0B52EF7018491882309F43ECFF1
:103ED000813009F0F0C087010F5F1F4FF801849116
:103EE000813009F0AEC00F5F1F4FF80184910E942E
:103EF000A01978012FEFE21AF20AE5CF882339F0F2
:103F000040E060E084EB0E946A080E948011F601A4
:103F10008281882309F42FC51092E704F3E0EF169D
:103F2000FDE5FF0608F01EC12AEFE2162CE5F206B9
:103F300030F4C70182509C45449708F01FC10E948D
:103F4000F01290937F0480937E0491E1E9169CE542
:103F5000F90609F400C208F072C1F9E0EF16FCE5B9
:103F6000FF0609F4E2C108F037C135E0E3163CE58D
:103F7000F30609F4D2C108F019C193E0E9169CE5F3
:103F8000F90609F4C0C108F0C4C180917E048160C3
:103F9000F2E0EF16FCE5FF0609F4B8C160917E047B
:103FA00010917F0484E090E00E94692F612F82E2EB
:103FB00090E00E94692F0E94B81AC8CE882309F4A5
:103FC000C5CE8091980381FD06C0826080939803DE
:103FD0000E94AE1DBBCE8D7FF9CF882309F4B6CEEB
:103FE00090919803892F8E7F90FF81608093980332
:103FF000ADCE0BE422E545EEB60183E89FE50E94D5
:10400000781A882309F4A2CE82CF0AE420E546EE8E
:10401000B60184E89FE5F3CF0AE420E547EEB60158
:1040200086E89FE5ECCF0EE421E546EEB60187E891
:104030009FE5E5CF0DE42FE444EEB60188E89FE567
:10404000DECF823041F487010E5F1F4FF80184916B
:104050000E942C194ECF833041F487010E5F1F4F11
:10406000F80184910E94F71844CF843009F041CFC1
:1040700087010E5F1F4FF801249190E080E0F80166
:1040800031962053330B2A30310550F0019708F454
:1040900030CFEFE9FFE03197F1F700C00000F6CF35
:1040A000B89EA001B99E500D1124C901840F951F1F
:1040B00024918F01E4CF0E941B1A87011ACF882315
:1040C00029F08FE992E00E94690540CE90E080E0FF
:1040D000FACF8823D9F380EA92E0F5CF882389F0DC
:1040E000927209F414CF82E20E943A108CE40E948A
:1040F0002C1981E08093C0028091C1028093380323
:1041000025CE8091C002882309F401CF8CE40E945F
:10411000F7181092C0021ACE25EFE2162CE5F2062F
:10412000D1F0A8F027E245EE66EE86EFE8168CE5C2
:10413000F80609F0ECCEC6010E94BE1907CE27E2B0
:1041400045EE65EEF8CF26E241EE60EEF4CF27E2D1
:1041500045EE64EEF0CF26E241EE62EEECCF28E2CF
:1041600041E0EFCF31E6E3163DE5F30609F4E7CE93
:1041700085EAE8168DE5F80609F4E1CE26E1E216B7
:104180002CE5F20609F006C4809138038A7A91E0A2
:1041900009F490E09093C20269E2811165E386E937
:1041A00092E00E9434050E940E18D0CD80917E04CA
:1041B000806227E0E2162CE5F20609F4A7C08091A0
:1041C0007E04806138E0E3163CE5F30608F49EC007
:1041D00080917E0480649AC08DE0E8168CE5F80634
:1041E00009F4ADC0B0F480917E048E7FEBE0EE1652
:1041F000ECE5FE0609F48AC080917E048C60FCE048
:10420000EF16FCE5FF0608F481C080917E048D7FE7
:104210007DC080917E048F7E2FE0E2162CE5F206B1
:1042200009F474C080917E04877F30E1E3163CE599
:10423000F30608F46BC080917E048F7D67C08DEF1C
:10424000E8168CE5F80609F482C078F5E5E1EE168B
:10425000ECE5FE0609F489C0A0F480917E04837F1A
:1042600023E1E2162CE5F20609F450C008F477C009
:104270000E94B81A90917E04892F97FB87F9805885
:1042800045C08BEFE8168CE5F80609F44AC008F043
:104290005AC080917F048160EAEFEE16ECE5FE06DD
:1042A00009F07CCE80937F0479CEF1E0EF16FDE536
:1042B000FF0609F466C098F480917F048C7F3FEF7D
:1042C000E3163CE5F30671F3B0F180917F04982F7B
:1042D000909591708E7F892B90FB81F9E3CF91E6C9
:1042E000E9169DE5F90609F452C0E5EAEE16EDE59A
:1042F000FE0609F453C0F2E0EF16FDE5FF0609F0F3
:104300004DCE60E03FC080917E04826080937E0449
:1043100045CE80917E048460F9CF80917E048860D0
:10432000F5CF80917F048260BDCF0E94B81A809142
:104330007E048068EBCF80917F048360B3CF80914F
:104340007E048B7FE3CF80917F048E7FABCF809103
:104350007F048D7FA7CF80917E048F7BD7CF0E9473
:10436000B81A80917E048F77D1CF80917E0482FB32
:10437000992790F921E0922790FB82F990FB83F92D
:10438000C5CF61E08EE090E00E94692F07CE90914A
:104390007E04892F8F7E94FF8061B8CF90917E0438
:1043A000892F8E7F90FF8160B1CF44E556E06FE5A5
:1043B00076E00E94A205CACC4FE556E064E576E0BF
:1043C000F8CF45E256E060E376E0F3CF40E356E015
:1043D00065E276E0EECF49E056E067E176E0E9CFCE
:1043E00047E156E069E076E0E4CF4BEF55E06DEE53
:1043F00075E0DFCF4EEB55E06CEC75E0DACF4CECBE
:1044000055E06EEB75E0D5CF61E081E00E943B06A0
:104410009DCC61E08DE0FACF0E94B81A3FEF84E3B3
:104420009CE0315080409040E1F700C000000E94C5
:104430005C1180917F0482FB882780F991E08927B5
:104440000E94B918F601828100811181882309F444
:1044500045C0C8010E947B12F82E682FC8010E9437
:104460007F10B8018F2D0E946D120E94AC0E8C013E
:10447000882EF601F280B580B2943FE0B32280919D
:1044800016038770C1F0AF2CFF20B1F0812F807F21
:10449000803421F080E2800F883068F080917F04C2
:1044A00082FF09C082E00E949D18809116038770E8
:1044B000AA24A3948111A12C912E92942FE09222F0
:1044C000FBE0F91508F476C0E92DF0E0EC5DFF4C57
:1044D0000C947F2E81E0B4CF80E0B2CFC8010E945F
:1044E0004B10F82EBECF212F2F70E22E107F19F027
:1044F000E29490EFE922FF20B9F0EE2069F080E22B
:10450000800F883010F0811009C080913803E82AAC
:10451000E09238030E940E18802F4AC08091370322
:10452000E82AE0923703F6CF802F0E94F718EE209A
:1045300009F440C0005E083010F0811004C08E2DD8
:104540000E943A1006C0E09480913703E822E0927E
:1045500037030E940E182EC0312F3F70E32E107FBC
:10456000103219F0E29480EFE822882089F081E08F
:10457000881609F467C0FF2009F471C0BB2009F454
:1045800067C0F601858180FFC7CF8F70858360C0CB
:1045900020917F0422FD34C0FF2061F1EE2039F02C
:1045A00080913803E82AE09238030E940E1880E0D8
:1045B0000E942C19E92DE850FF0B349710F40E944B
:1045C0009505AA2009F477CB8091160380FD73CB63
:1045D000F60112828595859585950E94D518C601AC
:1045E0000E94491E809116038595859585950E94A8
:1045F000901861CB80E00E94F718EE20D9F29FCF8F
:10460000FF2099F0909139038E2D892BB11003C0B2
:104610000E94ED18CFCFE1E0BE12FACF22FFCACF41
:10462000981741F280933903C5CFB11006C00E949C
:1046300034108E2D0E94E618BDCFF1E0BF1609F4AC
:10464000B9CFF5CFFF2031F025E02B1508F4B2CF1C
:104650008E2DDECF34E03B1508F4ACCFEACFBB2083
:1046600041F3F9E38F1219C12FEF37EE83E02150A8
:1046700030408040E1F700C000000FC1812F8695D7
:104680008695837061F0813009F094CFC8019370F2
:10469000F11002C090E080E00E9469058BCFC80154
:1046A0009370F11002C090E080E00E947F0582CFFD
:1046B000802FFF2029F00E94F60D0E94140D7ACF62
:1046C0000E943B0DFACF812F837089F5F11072CFD4
:1046D000402F429546954770440F440F802F8F70AE
:1046E000042E01C0880F0A94EAF7202F207104FFDE
:1046F00007C02FE030E001C0220F4A95EAF720956D
:10470000169516951370123069F050F430913A03F3
:10471000113029F0822B83230E94E1184BCF832B89
:10472000822BFACF282B80913A038227F5CF8695EA
:10473000FF2011F0812F8170882309F43BCF402F97
:10474000429546954770440F440F802F8F70042E7A
:1047500001C0880F0A94EAF7202F207104FF07C0D8
:104760002FE030E001C0220F4A95EAF72095169518
:1047700016951370123069F050F43091E80411303E
:1047800029F0822B83230E947F1814CF832B822B46
:10479000FACF282B8091E8048227F5CF1F70FF20E5
:1047A00029F0812F0E94D518802F32CF802F0E94B0
:1047B000E618812F0E949018FDCE802F92EF891667
:1047C000B1F1981570F0E0EF8E16D1F0F1EF8F1681
:1047D00091F0FF2009F45CC0B1109ECE812F8F7143
:1047E0002AC023EF821651F134EF8312F2CF809169
:1047F0007F0482FD2FC0812F8F71FF20D9F21BC053
:10480000FF2081F084E08B1508F4D4CE1F7181E085
:1048100090E0012E01C0880F0A94EAF79091E80415
:104820008927B1CF95E09B1508F4C4CEEFCF812F37
:104830008F71F110BFCF0E94D518BCCE80E0FF2051
:1048400009F4A1CF1F7181E0012E01C0880F0A94E5
:10485000EAF799CFFF2089F01F71812F0E94D518A8
:1048600080917F0482FF07C0E8E01E9FC0011124F1
:10487000836080931603812FDECF81E00E949D1814
:10488000F1E0FB1508F096CE82E00E949D1892CED2
:10489000BB2039F0893309F4E7CE802F0E94F71846
:1048A00089CE812F8F7186CFF0E1EF16FFE5FF06ED
:1048B00009F4BCCA21E1E2162FE5F20609F4C0CAE8
:1048C000909138039093C102E2E8EE16EFE5FE0600
:1048D00009F483CB08F0C9CA22ECE2162CE5F206F3
:1048E00009F46CCB08F0AECAEAE2EE16F10409F462
:1048F000F5CBE114FCE5FF0609F400CB33EFE3163A
:104900003CE5F30609F41FCC08F006CC98EDE91657
:104910009CE5F90609F413CCE9EDEE16ECE5FE068C
:1049200009F41DCCF7EDEF16FCE5FF0609F0EFCA20
:1049300026E241EE61EEFFCB30E1E3163FE5F30600
:1049400009F47ACA91E1E9169FE5F90609F0B8CFB2
:1049500082E073CA85E0DE01119601900D928A957E
:10496000E1F7F601228189819A812111A8C90E946B
:104970004B10182FACC9F6E1EF16FCE5FF0671F5F8
:104980008091C20269E2811165E386E992E00E94AA
:104990000A0509CC2AE5E2162DE5F20609F49ACDBE
:1049A00078F4E1148CE5F80609F436CD9EEDE916AD
:1049B0009CE5F90609F046CD0E94CC1D0E948C1D95
:1049C000ECE5EE16EDE5FE0609F433CD08F484CDF2
:1049D00027EAE2162DE5F20689F334CD80913803FB
:1049E00082723AECE3163CE5F30609F4FECCE0F5FE
:1049F000E5ECEE16ECE5FE0609F4E3CCE0F423EC7E
:104A0000E2162CE5F20609F4D0CC08F0D5CC82EC05
:104A1000E8168CE5F80609F015CD8091B60491E012
:104A200089278093B6041092120180919D038160C2
:104A300080939D038BC997ECE9169CE5F90609F470
:104A4000CACC08F4C3CCF8ECEF16FCE5FF0609F479
:104A5000C7CC4DEE55E06BEF75E029ECE2162CE586
:104A6000F20609F4A6CCEECC3FECE3163CE5F306E7
:104A700009F4CFCCB8F4ECECEE16ECE5FE0609F444
:104A8000BECC08F4B7CC2DECE2162CE5F20609F406
:104A9000BBCC61E085E03EECE3163CE5F30609F4AF
:104AA000B5CCD0CC86EDE8168CE5F80648F461E08C
:104AB00082E191EDE9169CE5F90608F4A7CC46C918
:104AC000EDE5EE16FE0609F441C9BCCC1F93CF9369
:104AD000DF938091E302807F09F049C08091E0027A
:104AE000882309F444C080911503D091E4026091B9
:104AF000DE027091DF02A091E102B091E202C62FC6
:104B0000C72316E0D81799F190E0109711F0CF3F26
:104B100019F401968770F6CF189F9001199F300DF8
:104B20001124F901EB51FD4F41814713F2CF408130
:104B30004613EFCF42814111ECCF438154814A1B90
:104B40005B0B483C510528F78091E3028F70806130
:104B50008093E302F901E651FD4F80818F708061FF
:104B600080838EED92E00E94491E0E944110DF91E9
:104B7000CF911F910895A1E1B0E0E1ECF5E20C9432
:104B8000942E8C0185E0F801DE011D9601900D92B6
:104B90008A95E1F7F801E2808EEDA82E82E0B82E2A
:104BA0006091E1027091E2026115710509F426C17C
:104BB0009091DE024091DF02892F84238F3F09F418
:104BC0001DC120813181C380D480F090E002F601C4
:104BD000E61BF70BFF2009F4DCC08091E302582F9D
:104BE000507FE83CF10508F09FC051116BC0FE2CCE
:104BF000431314C0921312C0E11010C08F70806173
:104C00008093E302C5010E94491E8091E302F801EE
:104C100085838F2D6196EAE00C94B02EC114D104E7
:104C200029F0822F83238F3F09F003C180E0F82F02
:104C3000F170DF2E80FF3CC0809115034091E402AB
:104C400056E0841315C02D873E878D859E850E9472
:104C5000AA12292F22952F702230F0F0243018F557
:104C60009F70F1F0F8019581907FD1F4D12C1EC096
:104C700090E0589FF001599FF00D1124EB51FD4F2A
:104C80006181361306C06081261303C06281E6127B
:104C90000FC001968770D5CF9F7011F0882331F334
:104CA000805E883018F3C8010E94491EFD2CB1CFE8
:104CB000EE2009F4AECF8091E30281608093E3029D
:104CC000F12CA7CF431306C0921304C0F801EE20C5
:104CD00009F479C0C8010E94B712882309F1EE20B7
:104CE000F9F08091E302803270F02091DE02309181
:104CF000DF0238872F831986DB86CA868C87CE0130
:104D000007960E94491E86E0F801AEEDB2E00190E0
:104D10000D928A95E1F70E946625FF24F39479CFDE
:104D2000C8010E94491EF9CF51110AC08EED92E0D0
:104D30000E94491E86E0F50111928A95E9F7C0CFDD
:104D400043130FC092130DC0E1100BC0F80185830F
:104D5000C8010E94491E86E0F50111928A95E9F783
:104D600058CFC8010E94B7128823D1F2EE20C1F2B9
:104D70008091E302803238F22091DE023091DF022E
:104D80003A8329831B82DD82CC828E83CE010196F9
:104D9000B8CFE83CF105F8F6FE2CEE2009F24313FB
:104DA0001FC092131DC08091E30280FD10C0982F98
:104DB000907F69F0F8018583903F31F0982F907FC4
:104DC000905F8F70892B8583C8010E94491E86E001
:104DD000F801AEEDB2E001900D928A95E1F719CF9E
:104DE000C8010E94B71281118ECF8091E3028160C9
:104DF0008093E302C8010E94491E0BCFEE2009F404
:104E00008FCFC8010E94B712F82E882309F488CFEB
:104E100086E0F801AEEDB2E001900D928A95E1F7DF
:104E20008091DE029091DF020E94AA120E94662504
:104E3000F0CE81E08E25FBCEA7E1B0E0E2E2F7E222
:104E40000C949B2E4B8B5C8B6D8B7E8B8F8B6111AF
:104E5000109237031A8A198A85E0FE017396DE01E3
:104E60001D9601900D928A95E1F786E0FE013D9630
:104E7000DE01179601900D928A95E1F7CE01079613
:104E80000E94BB25882359F016E08091150390916C
:104E9000E402891343C06796E3E00C94B72E86E0E2
:104EA000FE013796DE01119601900D928A95E1F789
:104EB0008A859B85892B41F38F81988589238F3F34
:104EC00019F32091E40230E0C90101968770992717
:104ED000409115034817190671F40E94B81A1092F0
:104EE000E4021092150386E0EEEDF2E0DF011D9280
:104EF0008A95E9F7C9CF96E0929FD001939FB00DB4
:104F00001124AB51BD4FFE01319601900D929A953F
:104F1000E1F78093E4020E944110B6CF819FC00167
:104F200011248B519D4F0E94BB25882309F4B3CFD8
:104F30008091150390E0019687709927809315035F
:104F4000A4CF1F920F920FB60F9211242F933F936D
:104F50004F935F936F937F938F939F93AF93BF9381
:104F6000CF93DF93EF93FF93D091E900DF708091AF
:104F7000EC00C82FC17080FDC0E81092E90080915C
:104F8000F000877F8093F00078940E94CE1A1092F0
:104F9000E9008091F00088608093F000CD2BCF7005
:104FA000C093E900FF91EF91DF91CF91BF91AF9155
:104FB0009F918F917F916F915F914F913F912F9131
:104FC0000F900FBE0F901F9018951F920F920FB663
:104FD0000F9211242F933F934F935F936F937F937F
:104FE0008F939F93AF93BF93EF93FF938091E100D3
:104FF00082FF09C08091E20082FF05C08091E1003C
:105000008B7F8093E1008091DA0080FF24C0809143
:10501000D80080FF20C08091DA008E7F8093DA0074
:105020008091D90080FF9DC080E189BD82E189BD6A
:1050300009B400FEFDCF81E08093A8048091830431
:10504000811109C00E9467030E9432048091E2002E
:1050500084608093E2008091E10080FF17C080911E
:10506000E20080FF13C08091E2008E7F8093E20017
:105070008091E20080618093E2008091D80080629C
:105080008093D80019BC85E08093A8048091E1004A
:1050900084FF2BC08091E20084FF27C080E189BD9E
:1050A00082E189BD89B5982F917080FFFBCF8091F7
:1050B000D8008F7D8093D8008091E1008F7E80930F
:1050C000E1008091E2008F7E8093E2008091E20017
:1050D00081608093E2008091A904882309F447C08D
:1050E00084E08093A8048091A8048091E10083FF6C
:1050F00027C08091E20083FF23C08091E100877F79
:105100008093E10082E08093A8041092A90480912A
:10511000E1008E7F8093E1008091E2008E7F80939A
:10512000E2008091E20080618093E20042E060E072
:1051300080E00E9400048091F00088608093F0007D
:10514000FF91EF91BF91AF919F918F917F916F915F
:105150005F914F913F912F910F900FBE0F901F9035
:10516000189519BC1092A8041092830474CF8091F2
:10517000E30087FD93E09093A804B5CF78941F9245
:105180001FB61F9211248F939F93AF93BF9380916B
:105190007A0490917B04A0917C04B0917D040196E7
:1051A000A11DB11D80937A0490937B04A0937C048D
:1051B000B0937D04BF91AF919F918F911F901FBEBF
:1051C0001F9018951F921FB61F9211248F939F93C3
:1051D000AF93BF9380917904811113C080917A04B9
:1051E00090917B04A0917C04B0917D044196A11D17
:1051F000B11D80937A0490937B04A0937C04B093B8
:105200007D04BF91AF919F918F911F901FBE1F9002
:105210001895CDB7DEB7AA970FB6F894DEBF0FBECC
:10522000CDBF85B7806885BF85B7806885BF84B7E7
:10523000877F84BF0FB6F894A8958091600088613D
:1052400080936000109260000FBE80E890E00FB67F
:10525000F89480936100909361000FBE80E59EE01A
:1052600090939502809394020E9467030E943204F7
:105270008091E20084608093E20078948091A80499
:105280008823A1F01091E9001F709091EC00892F04
:10529000817090FD80E8182B1092E9008091E80061
:1052A00083FD0E94CE1A1F701093E90082E084BD36
:1052B00093E095BD9AEF97BD80936E000E94D71240
:1052C000811102C00E942E120BE411E0D8018D91D1
:1052D0008D018F3F11F00E94520EB1E000351B0787
:1052E000A9F700E511E0F80181918F018F3F11F0DE
:1052F0000E94520EF1E00E351F07A9F78AE0E4E59F
:10530000F3E0DF01282F1D922A95E9F7EEE3F3E0A1
:10531000DF011D928A95E9F70E94A21D811102C04A
:105320000E94CC1D82E090E00E94452F80934803AC
:105330000E94F01290937F0480937E040E943F1796
:10534000EFE3FCE93197F1F700C000000E943F173E
:105350008091540380FF08C06FEF7FEF90E080E002
:105360000E94872F0E945C1183E090E00E94452FED
:105370000E94E1181092BC048FEF9FEF9093D60427
:105380008093D5049093D8048093D7049093DA0443
:105390008093D9049093DC048093DB049093DE0423
:1053A0008093DD049093E0048093DF049093E20403
:1053B0008093E1049093E4048093E30410926B03E0
:1053C000909385038093840390938703809386034F
:1053D000909389038093880390938B0380938A032F
:1053E00090938D0380938C0390938F0380938E030F
:1053F00090939103809390039093930380939203EF
:105400000E94A21D811104C00E94CC1D0E942B1776
:1054100046E050E06CE170E086EB94E00E94352FAE
:1054200010929D038091B6048C7F11F40E942B177B
:105430000E943A1E84E091E0909376048093750474
:1054400038E1432E512CDD24D3944EE5642E43E005
:10545000742E2224239458E0852E912C8091A80448
:10546000853089F490E4F92E23E0E22E00E112E188
:105470008091A804853009F4A3C10E94B81A0E9443
:10548000950510929C030E943F17882359F08FB70F
:10549000F89440917A0450917B0460917C0470915F
:1054A0007D048FBFA4E5B3E0E9E4F3E010E000E0A1
:1054B000602FED90FD90219131912E153F0509F45B
:1054C000EBC12E253F25C12CAA24A394B12CA50104
:1054D00042235323452B09F4D9C1C9A26AA3EA2068
:1054E000FB2081E0E114F10409F480E08BA30E9429
:1054F000FE048160782F9DA38CA349A15AA16BA1C2
:105500008DA10E941C27F801EE0FFF1FE75BFC4FE7
:1055100080819181A826B926B182A082EF2871F0FE
:105520008EE0809FF001819FF00D1124E758FE4F1F
:10553000EC0DF11D80818F3F09F08FC1C12C0C2D26
:1055400010E080916B03800F912F911D09975CF102
:105550007401E01AF10AB80164597C4FA7018CE686
:1055600093E00E942C2FB8016C587C4FA70184E770
:1055700093E00E942C2FA701440F551FB801660F1E
:10558000771F6C577C4F84E893E00E942C2FB80162
:1055900064587C4FA7018CE793E00E942C2F88E091
:1055A0008C1980936B0380916B0390E0A32DB0E086
:1055B0009D01220F331F21543E4FAA0FBB1FBD0177
:1055C00060547E4F41E0480F9C1508F44AC1809317
:1055D0006B030E943F1686E0E5E6F3E0DE011196DC
:1055E00001900D928A95E1F710926703109268037B
:1055F0001092690310926A038B819C81892B09F4B4
:105600004AC080916303909164030E94EF049C015F
:1056100090915F03992309F445C325313105D8F1F1
:105620009F3F19F09F5F90935F031B81112359F0F7
:105630000E94D60D9FEF11160CF491E0899F802DEA
:105640001124809367031C81112359F00E94D60D09
:105650009FEF11160CF491E0899F802D1124809307
:105660006803309167033323B1F02091680322234C
:1056700091F045EB3403C0011124992309F423C1AF
:105680009093670345EB240390011124332309F41D
:105690001DC1309368038D819E81892B09F44AC016
:1056A00080916103909162030E94EF049C019091AC
:1056B0005E03992309F4F1C221353105D8F19F3FEA
:1056C00019F09F5F90935E031D81112359F00E9492
:1056D000B40D9FEF11160CF491E0899F802D1124D9
:1056E000809369031E81112359F00E94B40D9FEF2E
:1056F00011160CF491E0899F802D112480936A0388
:10570000309169033323B1F020916A03222391F091
:1057100045EB3403C0011124992309F4DAC09093B6
:10572000690345EB240390011124332309F4D4C009
:1057300030936A0346E050E0BE016F5F7F4F85E61D
:1057400093E00E941F2F892B11F00E94140D86E018
:10575000FE013196A5E6B3E001900D928A95E1F73E
:105760000E94950590915303891380935303809170
:10577000A804843009F072CE83E08093E900809120
:10578000E80082FF6BCE8091E80090E085FF06C0C4
:105790000E948603882309F4A2C091E08091E8006A
:1057A0008B778093E800992309F458CEE981E15082
:1057B000E33108F033C1F0E0E05DFF4C0C947F2E44
:1057C0008091A804843009F436C00E943F1680916D
:1057D0009C0381110DC00E945D13109211018091F4
:1057E000B6048370809310010E948011E092120130
:1057F00020929C03109279040FB6F894A8954092D9
:1058000060000FBEF092600083B7817F846083BF29
:1058100083B7816083BF7894889583B78E7F83BF79
:105820000FB6F894A895809160008861809360001D
:10583000109260000FBE8091A704882309F418CE4F
:105840000E943F17E4E5F3E081919191892B09F0E3
:1058500005C26E167F06C1F70BCE382ECC24C3943A
:105860006ECE90E0FC01E559FC4FD9015C9151836B
:10587000DB015C915187318A880F991FFC01E55942
:10588000FC4F128E118E91E0842F9CCEC394AA0CF3
:10589000BB1C4EE0C4121BCE0F5F1F4F053011051D
:1058A00009F006CE8FEF8EA38FA318A60E94FE04E8
:1058B0008160782F9AA789A74EA15FA168A58AA5C4
:1058C0000E941C2786CED0926703DCCED09268035C
:1058D000E2CED092690325CFD0926A032BCF80E22B
:1058E000E82EF12C8E010F5F1F4F8091E80085FD9F
:1058F0000AC08091E8008B778093E8000E948603BD
:10590000882399F34ACF8091F100D8018D938D01BE
:10591000B1E0EB1AF10849F740CF1A8289E08B8396
:105920001AC08A81823009F4AFC18330D9F1813045
:1059300009F074C02FB7F89460917A0470917B04D9
:1059400080917C0490917D042FBF0E94852E6B83F3
:105950007C838D839E838091A804843009F07ECD62
:105960001091E9001F709091EC00892F817090FDDB
:1059700080E8182B82E08093E9008091E80080FFA6
:105980000DC050E040E060E270E0CE0101960E9460
:10599000B7038091E8008E778093E8001F70109322
:1059A000E9005CCD80915403909155039827892795
:1059B00098279C838B838091560390915703982757
:1059C000892798279E838D8380915803909159034E
:1059D00098278927982798878F8380915A039091D9
:1059E0005B039827892798279A87898780915C038A
:1059F00090915D039827892798279C878B87ABCF49
:105A00008A81823059F46B817C818D819E810E94D4
:105A1000852E86E290E00E94692F9DCF8FEF8983CB
:105A20009ACF4C816B818A810E943E1298278927E8
:105A300098279E838D838FCF2D813E813227232708
:105A400032274C816B818A810E94B71184CF0E94DA
:105A5000DD1181CF8A818138C9F068F4803809F07E
:105A60007ACF8091B70420E04B816091B80490E038
:105A70000E94DA0570CF8238F9F0833809F06BCFD5
:105A80008B8120E04091B9046C81F1CF60E08B8183
:105A90000E943B068B8181110CC08091B6048370FB
:105AA00011F0109212018091B6048C7F8093B6049D
:105AB00052CF0E946B064FCFEB818FE7E43020F48A
:105AC000F0E0E25AFE4F80818093BA0444CF8A818D
:105AD000813899F030F4803809F03DCF8091B904D5
