:100000000C942C030C9464030C9464030C9464030C
:100010000C9464030C9464030C9464030C946403C4
:100020000C9464030C9464030C94CC260C948826E2
:100030000C94C8270C9464030C9464030C9464031C
:100040000C9464030C9464030C9464030C94640394
:100050000C9464030C94A4270C9464030C94640320
:100060000C9464030C9464030C9464030C94640374
:100070000C9464030C9464030C9464030C94640364
:100080000C9464030C9464030C9464030C94640354
:100090000C9464030C9464030C9464030C94640344
:1000A0000C9464030C9464030C946403050109022A
:1000B000A10185020901A1000509190129081500FE
:1000C0002501950875018102050109300931158165
:1000D000257F95027508810609381581257F9501D0
:1000E00075088106050C0A38021581257F95017572
:1000F000088106C0C005010980A101850319012AF4
:10010000B700150126B700950175108100C0050CD8
:100110000901A101850419012AA002150126A002E6
:10012000950175108100C005010906A1018506052C
:100130000719E029E71500250195087501810205D9
:1001400007190029EF1500250195F07501810205B9
:10015000081901290595057501910295017503910D
:1001600001C00660FF0961A1010962150026FF00B8
:100170009520750881020963150026FF00952075FA
:10018000089102C005010906A101050719E029E748
:1001900015002501950875018102950175088101F9
:1001A0000507190029FF150026FF0095067508812F
:1001B000000508190129059505750191029501753C
:1001C000039101C069646F62616F2F696436333ACD
:1001D00069646F62616F202876302E31382E342D9D
:1001E000342D67356439333265290000010101017E
:1001F00001010101010202020202020202020303E2
:1002000003030303030304040404040404050505B1
:100210000505060606060607070707070808080873
:10022000090909090A0A0A0B0B0B0C0C0C0D0D0D20
:100230000E0E0E0F0F0F10101111111212131314B6
:1002400014151516161717181819191A1A1B1B1C2E
:100250001D1D1E1E1F202021222223242425262688
:10026000272829292A2B2C2D2D2E2F3031323233BD
:100270003435363738393A3B3C3D3E3F40414243C6
:100280004445464748494A4C4D4E4F5051535455AA
:100290005658595A5B5D5E5F616264656668696B5A
:1002A0006C6D6F7072737577787A7B7D7E808283D8
:1002B0008587888A8C8E8F91939596989A9C9EA01C
:1002C000A2A3A5A7A9ABADAFB1B3B5B7BABCBEC029
:1002D000C2C4C6C9CBCDCFD1D4D6D8DBDDDFE2E4F2
:1002E000E7E9EBEEF0F3F5F8FAFDFF00000000009F
:1002F00000000000000000000000000000000000FE
:100300000000000000000000000000000000007E6F
:100310000F00D4FFFFFFC7000000780000000000BE
:100320000000002A2B280000000000000000000050
:1003300000000000000029000000002C1E342021D5
:100340002224342627252E362D3738271E1F20211C
:1003500022232425263333362E37381F040506077B
:1003600008090A0B0C0D0E0F101112131415161795
:1003700018191A1B1C1D2F3130232D3504050607B3
:1003800008090A0B0C0D0E0F101112131415161775
:1003900018191A1B1C1D2F3130354C165C1E001FFE
:1003A0000020002100220023002400250026002731
:1003B000002D002E002A002B0014001A0008001542
:1003C0000017001C0018000C00120013002F003052
:1003D000003100394104001600070009000A000B33
:1003E000000D000E000F003300340000002800E173
:1003F0000000001D001B0006001900050011001080
:100400000036003700E50052003800E000E300004D
:1004100000E200000000002C0000000000105F65FA
:1004200042500051004F0035003A003B003C003D77
:10043000003E003F004000410042004300440045B0
:10044000004C0001000100520001000100C25CC527
:100450005CC75CC95CCB5C460047004800490001B2
:1004600000500051004F000100C35CC65CC85CCA6C
:100470005CCC5C01000100000001000100000001F3
:100480000001000100895F005C145C0100010001B3
:100490000001004B0001000100010000000100000C
:1004A000000000010000000000010003514A004E5E
:1004B000004D002900BE00BD00805F815FCA5CC99D
:1004C0005CAC00AE00AB00A800AA00A90066000169
:1004D0000001000100010001000100010001000114
:1004E0000001000100010001000100010001000104
:1004F00000010001000100010001000100010001F4
:1005000000010000000100010000000100010001E5
:1005100000010001000100010001000100010001D3
:1005200000010001000100000001000000000001C6
:100530000000000000035101000100010001000162
:1005400000010001000100010001000100010001A3
:100550000001000100010001000100010001000193
:100560000001000100010001000100010001000183
:100570000001000100010001000100010001000173
:100580000001000100010001000100010001000064
:100590000001000100000001000100010001000154
:1005A0000001000100010001000100010001000143
:1005B0000001000000010000000000010000000038
:1005C000000100010001000100010009025B0003BD
:1005D0000100A0FA09040000010301010009211132
:1005E0000100012240000705810308000109040100
:1005F000000203000000092111010001222200076E
:1006000005820320000107050303200001090402FD
:1006100000010300000009211101000122B60007BA
:100620000584032000011201000200000008646933
:1006300063000001010200010A0349004400360082
:10064000330000000E03490044004F004200410007
:100650004F0000000403090411241FBECFEFDAE0AD
:10066000DEBFCDBF04B603FE18C08091FD0490919B
:10067000FE04A091FF04B09100058730904BA74085
:10068000B04B59F41092FD041092FE041092FF0436
:1006900010920005E0E0F8E3099524E0A4EAB2E056
:1006A00001C01D92AD3FB207E1F712E0A0E0B1E05A
:1006B000EAE6FFE502C005900D92A43AB107D9F72A
:1006C0000E94EF270C94342F0C940000E8EDF0E02A
:1006D00080818E7F80831092E2001092DA00109267
:1006E000E100A0EEB0E08C9181608C9380818F77E7
:1006F000808319BCA7EDB0E08C918E7F8C938081B4
:100700008F7E80831092970408952091E4003091A9
:10071000E50095E6A9012091EC00822F817020FF71
:1007200006C08091E80080FF06C080E00895209117
:10073000E80022FD1AC08091BC04882389F085302E
:1007400089F08091EB0085FD0FC02091E40030918D
:10075000E50042175307F9F29150E1F684E008955D
:1007600082E0089583E0089581E00895EF92FF927A
:100770000F931F93CF937C018B010E948503C82F99
:10078000811117C08091E80085FD0BC08091E800C1
:100790008E778093E8000E948503882399F3C82F01
:1007A00008C0F70181917F018093F1000150110988
:1007B00049F78C2FCF911F910F91FF90EF900895E3
:1007C0008091BE0487FF13C08091E80082FF06C0BD
:1007D0008091E8008B778093E80004C08091BC048E
:1007E0008111F2CF08958091BC048823D9F38091C0
:1007F000E80080FFF8CF8091E8008E77ECCF982F4B
:100800009093E900242F762F50E0891731F07091F2
:10081000EC002091ED005091F00021FD07C09F5F9A
:10082000973071F78093E90081E008953091EB00F3
:100830003E7F3093EB003091ED003D7F3093ED0033
:100840003091EB0031603093EB007093EC0020931B
:10085000ED005093F0002091EE0027FDE0CF80E006
:100860000895B0E0A0E0E7E3F4E00C94BE2DC8EDFD
:10087000D0E088818F7E8883E7EDF0E08081816021
:10088000808384E082BF81E08093970488818E7F9B
:10089000888302EE10E0F80110821092DA0081EEF7
:1008A000C82ED12CF601108288818F7788838881A9
:1008B0008068888388818F7D888319BC1092BC04EE
:1008C0001092BD041092BB041092BA0490EEE92E6F
:1008D000F12CF70180818B7F808388818160888300
:1008E00042E060E080E00E94FF03F60180818E7F9D
:1008F0008083F8018081816080838081886080832B
:10090000F70180818E7F8083888180618883CDB765
:10091000DEB7E8E00C94DA2DFC01CB012091C40491
:100920003091C5042617370790F0009729F42091DD
:10093000E8002E772093E80040E0009751F4411141
:1009400008C08091E80082FF31C080E00895C901AD
:10095000F3CF2091BC042223A9F12530A9F12091E5
:10096000E80023FD2DC02091E80022FDEACF209170
:10097000E80020FFE2CF3091F3002091F2000097D1
:1009800019F02830310558F041E02830310509F0E0
:1009900040E02091E8002E772093E800CECF4191EF
:1009A0004093F10001972F5F3F4FE9CF8091BC0446
:1009B000882341F0853041F08091E80083FFC1CF6A
:1009C00081E0089582E0089583E00895089580917C
:1009D000990408959C014FB7F89480918E049091EA
:1009E0008F04A0919004B09191044FBF821B930B90
:1009F0000895A4E0B0E0EFEFF4E00C94C42D8FB7BD
:100A0000F89420918E0430918F044091900450917D
:100A1000910429833A834B835C838FBF69817A81F8
:100A20008B819C812496E2E00C94E02D2FB7F89402
:100A300080918E0490918F04A0919004B0919104C4
:100A40002FBF08959C01809115018823C9F08091E2
:100A5000920487FF15C0E62FE695E695E695603F80
:100A6000E0F4E20FF32FF11D677081E090E001C028
:100A7000880F6A95EAF78095928189238283089589
:100A8000F9013296285F3F4F8191681303C0DF015F
:100A900011971C92E217F307B9F708959C01809112
:100AA00015018823C1F08091920487FF14C0E62FBE
:100AB000E695E695E695603FF8F4E20FF32FF11D19
:100AC000677021E030E001C0220F6A95EAF7828169
:100AD000822B82830895F90132968FEF90E0419145
:100AE000641751F08F3F19F4411101C0892F9F5FA6
:100AF0009630A9F78F3F09F40895280F311D87FD1F
:100B00003A95F9016283089520918B0430918C0409
:100B10002817390771F090938C0480938B04E0912F
:100B20008904F0918A04309721F00084F185E02D4A
:100B30000995089520918704309188042817390772
:100B400071F09093880480938704E0918904F09178
:100B50008A04309721F00680F781E02D09950895E9
:100B6000E0918904F0918A04309729F00190F08196
:100B7000E02D0995089580E00895FA01882311F089
:100B800009950895FB01FCCFE6EAF3E081836083D9
:100B90004283339694E0E738F907C1F70895FC01E2
:100BA000EE0FFF1FE80FF91FEA55FC4F61834083EA
:100BB00022830895EAECF4E0248130E1231B08F459
:100BC00020E024838091A50381608093A50308958C
:100BD000EAECF4E0248130E1230F08F42FEF2483C2
:100BE0008091A50381608093A5030895922F2091A1
:100BF000CA04237071F08093CB046093CC04453B0E
:100C000008F044EB4093CD042091A503292B2093B9
:100C1000A5030895EAECF4E0438120E1421B08F4C7
:100C200040E0818121E0628190E00E94F605089514
:100C3000EAECF4E0438120E1420F08F44FEF8181B8
:100C400021E0628190E00E94F6050895EAECF4E06C
:100C5000628120E1621B08F460E0818121E0438130
:100C600090E00E94F6050895EAECF4E0628120E14C
:100C7000620F08F46FEF818121E0438190E00E94D0
:100C8000F6050895EAECF4E0818121E04381628178
:100C90008850990B0E94F6050895EAECF4E08181F2
:100CA00090E021E04381628108960E94F605089554
:100CB000262F9091CA04937061F081110BC094604B
:100CC0009093CA04109212016091A503622B609365
:100CD000A5030895883210F09C69F2CF880F880F21
:100CE000982BEECF9091CA04969596958FEF890F29
:100CF000913009F487E261E00E94580608958091DE
:100D0000CA04869586958F5F883208F081E061E09D
:100D10000E94580608958091CA04837011F41092BD
:100D200012018091CA048C7F81608093CA04089567
:100D3000EF92FF920F93282FC701801B91098F3FDD
:100D4000910519F010F08FEF90E08095382F230F68
:100D500008F42FEF822F0F91FF90EF900895EF92FC
:100D6000FF920F93282FC701801B91098F3F910598
:100D700019F010F08FEF90E0382F3095230F08F422
:100D80002FEF680F822F0F91FF90EF900895EF9251
:100D9000FF920F93972FFA01B9019701093430F4AC
:100DA000201B31092F3F310519F010F02FEF30E0F3
:100DB0003896719740F0AB01485F5F4F4131510564
:100DC00010F02FEF30E02095382F320F08F43FEF6E
:100DD00077FF02C06D5F7F4F759567957595679535
:100DE0008091CB04680F792F832F0F91FF90EF90A4
:100DF0000895EF92FF920F931F93E00EF11C89016B
:100E000037FF03C011950195110924E0000F111F50
:100E10002A95E1F70F3F110519F014F00FEF10E0DC
:100E20009A0157FF03C031952195310994E0220FB3
:100E3000331F9A95E1F7201731070CF489010E0D45
:100E40001F1D0F3F110519F010F00FEF10E0009576
:100E5000282F200F08F42FEF822F1F910F91FF9062
:100E6000EF900895EF92FF920F93282FC70135E07E
:100E7000039F800D911D11248F3F910519F010F0F3
:100E80008FEF90E08095382F230F08F42FEF822FFB
:100E90000F91FF90EF90089522E8241B08F420E0C2
:100EA000620F08954095282F429F412D1124842FD1
:100EB0000895E42FF0E0EE0FFF1FEE53FE4F9081F8
:100EC000921B97FD9195292F38E1239F212D112405
:100ED000620F08950F931F93522F10E0F801EE0F49
:100EE000FF1FEE53FE4F9081905797FD9195000F95
:100EF000111FF801ED53FE4F00810052110B5003FA
:100F00009001519F300D112408E310E0091B1109D5
:100F100097FD13954003F001419FF00D1124E20F5E
:100F2000F31F9F01220F331F2E0F3F1F37FF02C0F9
:100F300021583F4F220F232F221F330B620F1F9187
:100F40000F9108950F931F93522F10E0F801EE0FA9
:100F5000FF1FED53FE4FA081A052BB0B9D0152031A
:100F6000F001539FF00D1124000F111FD801AE5353
:100F7000BE4F0C910057110B40039001419F300D63
:100F800011242E0F3F1F37FF02C0215C3F4F96E018
:100F9000359527959A95E1F7620F1F910F91089566
:100FA0000F931F93522F10E0F801EE0FFF1FED5328
:100FB000FE4FA081A052BB0B9D015203F001539F35
:100FC000F00D1124000F111FD801AE53BE4F0C912C
:100FD0000057110B40039001419F300D11242E0F3B
:100FE0003F1F37FF02C021583F4F220F232F221FE0
:100FF000330B620F1F910F910895EF920F93972F6C
:1010000023E0029FB0011124759567956E0D792F2D
:101010000F91EF900895322F50E0FA01EE0FFF1F6D
:10102000ED53FE4F9081905297FD9195440F551FBF
:10103000FA01EE53FE4F2081231B330B290F311D84
:1010400097FD3A95620F0895E42FF0E0EE0FFF1F31
:10105000ED53FE4F6081621B0895E42FF0E0EE0F28
:10106000FF1FEE53FE4F6081621B0895622F0895AB
:10107000582FA22FE42FF0E0EE0FFF1FEE53FE4F8C
:10108000208134EE239F212D112490E030E0245E56
:101090003F4F2A1B310937FF03C031952195310994
:1010A00043E0220F331F4A95E1F7821B930B97FD14
:1010B00080E0282F259F212D1124822F08951F9332
:1010C000172F922FE42FF0E0EE0FFF1FEE53FE4F8D
:1010D000208134EE239F212D1124472F50E030E052
:1010E000245E3F4F291B310937FF03C031952195FD
:1010F000310993E0220F331F9A95E1F7421B530BFE
:1011000057FD40E0742F719F712D11241F91089598
:101110000E94C40508950E94CF050895FC019B011B
:10112000009729F480E077FF2BC080E80895AC0198
:1011300097FF04C044275527481B590BB901640F7A
:10114000751F37FD10C0241B350BC901A5E0880FA2
:10115000991FAA95E1F70E94932D80E2861BF7FF65
:101160000FC081950895CB0165E0880F991F6A959E
:10117000E1F7BA01621B730B0E94932D80E6EECF5C
:101180000895EF920F93CF93DF93D72FC82FBA0113
:10119000C9010E190E948E08602F681B7D2F8C2FAD
:1011A000DF91CF910F91EF9008950F93CF93DF933D
:1011B000D72FC82FBA01C9010E948E08682F600F6F
:1011C0007D2F8C2FDF91CF910F910895EF920F9388
:1011D0001F93CF93DF93D62FC72F182FBA01C901C2
:1011E0000E19010F0E948E08081B019F012D11246A
:1011F0006D2F7C2F802FDF91CF911F910F91EF905A
:101200000895EF920F931F93CF93DF93D62F172F4D
:10121000C82FBA01C9010E19010F0E948E08702F44
:10122000781B719F712D11246D2F8C2FDF91CF9121
:101230001F910F91EF9008950F931F93CF93DF931A
:10124000D62FC72F182FBA01C901212F201B022F1B
:101250000E948E08982F990F990F282F291B200F75
:10126000219F212D11246D2F7C2F822FDF91CF9173
:101270001F910F9108950F931F93CF93DF93D62F54
:10128000172FC82FBA01C901212F201B022F0E943E
:101290008E08982F990F990F782F791B700F719FD7
:1012A000712D11246D2F8C2FDF91CF911F910F91F4
:1012B0000895982FE82F96FDE0952E2F2F7096FD1C
:1012C0002F5FE695E695E695E670F0E0EB59FE4F68
:1012D0008181829F802D212D112482958F702295EE
:1012E000207F822B2081820F97FD81958058089561
:1012F0000F931F93CF93DF938B01D82FC42F822F8F
:101300000E945909EC2FF0E0EE0FFF1FEE53FE4F45
:1013100090819058980F97FD9195990F692F2CE027
:10132000629F612D1124600F712F8D2FDF91CF915E
:101330001F910F9108959C018230910508F4089542
:101340009FEF213E8EE1380740F4C90145E09695B4
:1013500087954A95E1F798E0980F61E0E62FE90F4D
:10136000FF27FF1FAF0155954795842F449FF0013C
:10137000459FF00DF00D11242E173F0738F49FEF15
:10138000940F961758F78FEF860F08954F3FE9F3A4
:1013900061E0640FF6CF0F93CF93DF93D72FC82F61
:1013A000F90147FD419528E330E0241B310947FD51
:1013B0003395229FA001239F500D500D1124EE9FC5
:1013C000C001EF9F900D900D1124840F951F0E9476
:1013D0009B09982F990F692F680F600F7D2F8C2F15
:1013E000DF91CF910F9108959C0190E080E0269FBE
:1013F000812D369F800D911D11240895B0E0A0E04D
:10140000E4E0FAE00C94BC2D262F472FE82FF0E003
:10141000E551FE4F711109C06491862FE62F7E2F92
:10142000CDB7DEB7EAE00C94D82DE72EF12CE4918D
:1014300086E0689F80011124CFEFD0E0C801BE0193
:101440000E947F2DDB0130E0220F331F55E5569FB0
:10145000C001579F900D1124281B390B622F660F76
:10146000260FCE018E199F09E89F6001E99FD00CDD
:1014700011246D2D429FA0011124452F5527CE0127
:10148000841B950BE89FA001E99F500D1124852F27
:101490005E01A21AB108AE9C9001AF9C300DBE9CBB
:1014A000300D1124232F3327C21BD30BEC9F900147
:1014B000ED9F300D1124A330B105B1F00C3F93E046
:1014C000190760F4A130B10599F01297A9F00F3F08
:1014D000110508F0A4CF8D2D632FA1CFA430B10545
:1014E00071F01697C1F39BCF652F8E2FED2D97CFFF
:1014F0006E2FE52F8D2D93CF832F6E2FF7CF8E2F4D
:10150000E32F8DCF0F931F93CF93DF93EC01FC015B
:10151000E85AFD4F80816823D1F10091CC041091ED
:10152000CD044091CB04E42FF0E060911301709161
:10153000140185E098E0689F9001699F300D789FC5
:10154000300D1124275E394C309314012093130180
:10155000CF018C549F4F68E671E00E94932D8E1B43
:101560009F0B97FD03969595879595958795230FE6
:101570002370642F289F600D1124702F812F0E94EB
:10158000FE09462F672F282FCE010E948B08DF917E
:10159000CF911F910F910895A9E0B0E0E2EDFAE03C
:1015A0000C94B42D282E6A837B83209116018FE042
:1015B000289F802D11248E83815F89838C838C34B6
:1015C00010F03BE43C838091D0048D83FE81EF2FAB
:1015D000F0E0F987E887CF01880F991F9C012E530F
:1015E0003E4F6901822D90E0FC013196FF83EE832E
:1015F0008C819885981748F081E0E981EB3408F0F8
:1016000080E02996E2E10C94D02DE885F985E85A2E
:10161000FD4F8081909117018923F1F04090CB0418
:101620005090CC042E813F8120533B4F3901322C06
:1016300010E0FD813F16D0F02091CD04129F112DB6
:101640001124B201812F0E94FE09462F672F282FF7
:10165000888599850E948B08288539852F5F3F4FA3
:101660003987288732E0C30ED11CC2CFF3018191A4
:101670003F01F601A080A81ABB088180F301878191
:10168000881A9908AA9C9001AB9C300D300D11244A
:10169000889CC001899C900D900D1124820F931F8E
:1016A0000E949B09082F6091CE0421E0620F08F48C
:1016B0006FEFF301EE0FFF1FE05DF440858996891F
:1016C0000E94F4097C019401A501B201812FEA81F5
:1016D000FB8109952B01182F3394ABCFB0E0A0E02C
:1016E000E4E7FBE00C94BE2D8C01C09116018FE065
:1016F000C89FC02D11242FE0D22EDC0ECD2C2BE460
:101700002D1510F49BE4C92E2091CE0431E0230F57
:1017100008F42FEF30E050E040E06FEF7FEF80E023
:1017200090E00E94D12E7901D0E02C2FCC1550F002
:1017300081E0FAE4FD1508F480E0CDB7DEB7E8E01B
:101740000C94DA2DFE01E85AFD4F8081909117012B
:10175000892311F14091D0044150042E000C550B07
:1017600047FF1CC0C7016091CE0421E0620F08F45E
:101770006FEF0E94F409AC016091CB047091CC042E
:101780008091CD04F80109950E94FE09462F672F2C
:10179000282FCE010E948B082196C7CFFA01E05373
:1017A000FB4F818982130AC0FA01EE0FFF1FE0533D
:1017B000FB4F818D928D8E159F05A8F241505109E6
:1017C000CFCFB0E0A0E0E7EEFBE00C94BF2D7C01B2
:1017D000C09116018FE0C89FC02D11241FE01C0F7F
:1017E000D12E1C3410F08BE4D82E6091CE04669577
:1017F000669521E0620F08F46FEF8091C604909126
:10180000C7040E94F409082FD0E0CD1548F081E00C
:101810001B3408F080E0CDB7DEB7E7E00C94DB2D99
:10182000FE01E85AFD4F808190911701892391F0C4
:101830006091CB047091CC048091CD04202F4C2F6B
:10184000F70109950E94FE09462F672F282FCE0128
:101850000E948B082196D9CFA5E0B0E0E2E3FCE03E
:101860000C94BD2D6C018091160189838FE09981C4
:10187000989F802D11248B839FE0F92EF80EBF2CAA
:10188000EBE4EF1510F48BE4B82E6091CE0466956E
:1018900066958091C6049091C7040E94F409182FA0
:1018A00080E4810F0E94590980588983812F0E940A
:1018B000590980588A839B81892F90E09D838C836E
:1018C0009C819B1548F081E0EAE4EF1508F480E084
:1018D0002596E9E00C94D92DEC81FD81E85AFD4F65
:1018E0008081909117018923A9F06091CB047091B8
:1018F000CC048091CD04E12E0C812A814981F6012E
:1019000009950E94FE09462F672F282F8C819D8103
:101910000E948B088C819D810196D0CFB0E0A0E021
:10192000E4E9FCE00C94B92D4C01C09116018FE064
:10193000C89FC02D11241FE01C0F712E1C3410F005
:101940009BE4792E6091CE0466958091C6049091B7
:10195000C7040E94F409F82ED0E0C71548F081E0D2
:101960001B3408F080E0CDB7DEB7EDE00C94D52D48
:10197000FE01E85AFD4F8081909117018923B9F14A
:101980009E01220F331FF901EE53FE4F8081482F35
:101990004057550B6A012D533E4FF9018081282F86
:1019A0002052330B5901449F9001459F300D300D5B
:1019B0001124AA9CC001AB9C900D900D1124820FA4
:1019C000931F0E949B09082F6091CB047091CC0457
:1019D0008091CD04EF2C9501A601F40109950E9498
:1019E000FE09462F672F282FCE010E948B082196D3
:1019F000B4CFB0E0A0E0EFEFFCE00C94BE2D7C0192
:101A0000C09116018FE0C89FC02D11241FE01C0F4C
:101A1000C12E1C3410F09BE4C92E6091CE04669553
:101A20008091C6049091C7040E94F409D82ED0E09A
:101A3000CC1548F081E01B3408F080E0CDB7DEB76C
:101A4000E8E00C94DA2DFE01E85AFD4F8081909178
:101A50001701892301F1AE01440F551FFA01ED531F
:101A6000FE4F20812052330B4E535E4FFA014081CE
:101A70004057550B6091CB047091CC048091CD04FC
:101A80000D2DF70109950E94FE09462F672F282F7B
:101A9000CE010E948B082196CBCF0E941605209183
:101AA0006F0330917003232B21F080936B0390938D
:101AB0006C032091710330917203232B21F08093EA
:101AC000690390936A03E0918904F0918A04309746
:101AD00049F082E080936D030480F581E02D8DE66E
:101AE00093E00995089540916F03803F59F48091E8
:101AF000700387FF0DC01092700341110BC010924C
:101B0000670308C0813F81F48091700318169CF32D
:101B1000442381F08091710390917203892B09F025
:101B20005AC0109266030895823F49F447FFF0CFF0
:101B300010926F03809170038111ECCFE0CF833F4F
:101B400019F41416ACF3E4CF90917103893F29F492
:101B50001916F4F610927103DBCF8A3F19F497FF40
:101B6000D7CFF8CF909172038B3F29F497FFD0CF56
:101B700010927203CDCF8C3F19F41916CCF3C8CF55
:101B80009CE0980F953090F4845F990B21E030E051
:101B9000B90102C0660F771F8A95E2F7CB018095E5
:101BA00090916E03892380936E03B2CF8D3F31F401
:101BB000809168038E7F80936803AACF8E3F21F4C3
:101BC000809168038D7FF7CF8F3F09F0A1CF80917F
:101BD00068038B7FF0CF08958091680380FD16C065
:101BE00081FD16C082FD16C0809166038823A1F096
:101BF000883280F428E0829FC001112468E270E0FE
:101C00000E94932D862F672B39F0089582E0089566
:101C100084E0089588E0089581E008958091680344
:101C200080FD14C081FD14C082FD16C08091670341
:101C3000882381F08E3180F420E5829FC001112439
:101C40006EE170E00E94932D862F089584E108953F
:101C500088E2089588E0089580E50895803F31F492
:101C60000E940E0E8195809370030895813F19F4B0
:101C70000E940E0EF8CF823F31F40E940E0E819525
:101C800080936F030895833F19F40E940E0EF8CFDE
:101C9000893F29F40E94EC0D8093710308958A3FD7
:101CA00021F40E94EC0D8195F7CF8B3F31F40E9417
:101CB000EC0D81958093720308958C3F19F40E9476
:101CC000EC0DF8CF9CE0980F953070F4845F990B81
:101CD00021E030E001C0220F8A95EAF780916E037F
:101CE000822B80936E0308958D3F31F480916803B9
:101CF00081608093680308958E3F21F4809168038A
:101D00008260F7CF8F3FB9F7809168038460F1CF8D
:101D100080E00895F894E82FE295EF70F0E041A19B
:101D20008F7021E030E0B90102C0660F771F8A95FD
:101D3000E2F7CB01962F9095942391A392A1892B42
:101D400082A3789408959091920492FF06C0282F60
:101D500028712830F9F4877F846093FF06C0282F0C
:101D600028712831F1F4877E84612091930420FF4B
:101D700006C0382F38713830D9F4877F816021FF51
:101D800006C0282F28712831D1F4877E816194FD07
:101D9000877E0895282F24712430F9F68B7F886080
:101DA000DCCF282F2471243101F78B7E8861DDCFB1
:101DB000382F3171313019F78E7F8860E0CF282FAE
:101DC0002171213121F78E7E8861E1CFCF93DF939E
:101DD000EC01803E910509F467C058F58133910507
:101DE00009F4AFC090F48932910509F49FC08A9735
:101DF00009F4AEC0C130D10509F469C0CE01049721
:101E0000813A910508F05CC062C08933910509F4FC
:101E10003FC082389105E1F1C59709F482C0C83A04
:101E2000D10508F09CC0C53AD10520F3A497D06431
:101E30004EC0843E910509F459C070F4823E91056C
:101E400009F441C0833E910509F445C0CE01805E8E
:101E500091090897A8F53BC0863E910509F451C049
:101E6000873E910509F452C0811522E5920708F0DA
:101E7000A8C0811531E5930708F0F9C08F3F91059F
:101E800011F008F07BC0803F910548F2D0651FC07B
:101E900080919204837009F01AC18091930483FFAA
:101EA00016C0C9E2D0E013C08091920480FD46C004
:101EB0009091930490FF0BC0C3EED0E084FF07C065
:101EC000D0E0C0E004C08091920482FDF5CFCE0145
:101ED000DF91CF9108958091920482FDF5C0909199
:101EE000930490FDF4C084FFF2CFEACF8091930475
:101EF00081FFEDCF80919204C7EED0E084FDE0CF6A
:101F0000E6CF8091920483FDF7CFE1CF80919204D8
:101F100083FDE0C09091930491FFE5CFC4EED0E043
:101F2000D6CF8091920485FFD2CFBBCF809192040F
:101F300085FDD3C08091930483FFC9CFC9E3D0E06E
:101F4000C6CF8091920486FFC2CFCAE2D0E0BFCF55
:101F50008091920486FFBBCFC1E3D0E0B8CFCF3BE6
:101F6000D10508F073CFC85AD0E0CC0FDD1FC05E9A
:101F7000DE4F0990D881C02DD464A9CF811540E5EA
:101F8000940760F4C11580E4D80708F06DC0CE0155
:101F90009A9581159F4108F49ACF92CF8370992723
:101FA00021E030E002C0220F331F8A95E2F7C69588
:101FB000C69540E2C49FE0011124C22BD32BDD68FB
:101FC00086CFC11586E5D80738F5C11525E5D207B6
:101FD00008F061C0C11534E5D307C8F49E01237031
:101FE00033279C2F96959695C115D34508F044C08C
:101FF000C1E0D0E002C0CC0FDD1F2A95E2F720E25D
:10200000929FC0011124C82BD92BDC6860CFDC2F34
:10201000CC27C46FD06A5BCFC1153AE5D30788F4EB
:10202000C11549E5D40708F041C0CE0198558F3F4E
:10203000910511F008F044CFDC2FCC27C06FD06A97
:1020400046CFCE0190568115904208F039CF8D2FA2
:102050008F710E94A30E90E0982F882788279F7188
:102060009C012C2BE90120C0DF70D06A30CFD82F23
:10207000CC27C16FD06A2BCFC1E0D0E002C0CC0F1B
:10208000DD1F2A95E2F730E2939FC0011124C82B8F
:10209000D92BDA681CCF8C2F0E94A30EC82FD0E05A
:1020A000DC2FCC27CC27DF71D06211CF8C2F8F7023
:1020B0000E94A30E34E0D695C7953A95E1F7CF700C
:1020C000DC2FC82FD06903CFC2EED0E000CFC0EE26
:1020D000D0E0FDCEC6EED0E0FACEC5E3D0E0F7CE3C
:1020E00080913F03811110923F030895982F90959E
:1020F00080913E03892380933E03089580911B03C2
:102100009091EA02981301C008958F5F8770FACF0B
:10211000292F953078F58E3068F590E03EE0239FCA
:10212000800D911D1124682F677023E09695879587
:102130002A95E1F7FC01EE0FFF1FE80FF91FE753A7
:10214000FD4F50E040E080E0219130E0062E02C0DB
:10215000369527950A94E2F721703327042E01C0A3
:10216000220F0A94EAF7822B4F5F5F4F43305105ED
:1021700059F7089580E00895292F953090F58E3015
:1021800080F590E03EE0239F800D911D1124282FC3
:10219000277041E001C0440F2A95EAF723E09695A5
:1021A00087952A95E1F7FC01EE0FFF1FE80FF91F55
:1021B000E753FD4F90E080E070E05191DF0111970F
:1021C0009B01082E02C0369527950A94E2F72170EC
:1021D00021952527242325272C93019683309105CB
:1021E00061F7089580939404709396046093950426
:1021F0008091BC048430F9F48093E9008FEF9091D2
:10220000E800815095FD06C095ED9A95F1F7000024
:102210008111F5CF8091E80085FF0DC050E040E0CE
:1022200063E070E084E994E00E94B6038091E800E6
:102230008E778093E8000895BC0184E00E94F2103C
:102240000895BC0183E00E94F210089524E02093D9
:10225000E9002FEF3091E800215035FD06C035ED43
:102260003A95F1F700002111F5CF2091E80025FF04
:102270000BC050E040E066E070E00E94B603809141
:10228000E8008E778093E8000895CF93DF93D82FEE
:10229000C92F809115018823C1F18091920487FF95
:1022A00034C060E284E08093E9008FEF9091E80011
:1022B000815095FD06C095ED9A95F1F700008111CA
:1022C000F5CF8091E80085FF1DC08091150170E079
:1022D00050E040E0811104C050E040E068E070E070
:1022E0008D2F9C2F0E94B6038091E8008E778093FB
:1022F000E80080E2ED2FFC2FAAE9B4E001900D92F6
:102300008A95E1F7DF91CF91089568E081E0CBCF26
:1023100081E08093E00080E28093D8001092C900B1
:102320008FE19EE40197F1F700C0000087E090EB99
:10233000DC018093FD049093FE04A093FF04B0930E
:10234000000588E19CE00FB6F894A89580936000A2
:102350000FBE90936000FFCF279A35B13F7725B12C
:1023600020684FB7F89486EA93E0FC01019650810B
:1023700068E025B9000000C057FF35B9550F0000CF
:1023800000C000C000C035B900C06A9591F754E0A4
:102390008738950751F74FBF8FE594E00197F1F724
:1023A00000C000000895CF93DF93C7E5D2E060E05E
:1023B000CE010E94AD2E2196C11584E0D807B9F751
:1023C000DF91CF9108951F93CF93DF93962F122F14
:1023D000632F8430D8F49530C8F44E30B8F4C42F4D
:1023E000D0E0CC0FDD1F2CE1929FC00DD11D112438
:1023F0009CE8899FC00DD11D1124CE0187960E94B3
:10240000AD2E612FCE0188960E94AD2EDF91CF9127
:102410001F910895AF92BF92CF92DF92FF920F93D8
:102420001F93CF93DF93B12CA12C00E0650110E046
:1024300013C0FE01259134914F2D612F802F0E94F2
:10244000E3112296F3948EE0F812F3CF8EE0C80EDB
:10245000D11C1F5F153039F0E601CC0FDD1FC556CA
:10246000DC4FF12CE6CF0F5F86E4A80EB11C0430E0
:10247000E9F6DF91CF911F910F91FF90DF90CF9000
:10248000BF90AF900895CF93C82F6FEF811162E294
:1024900083E290E00E94AD2E6FEFC11169E084E20B
:1024A00090E00E94AD2E6FEFC11163E085E290E0F5
:1024B0000E94AD2ECF91089580E00E94431260E00B
:1024C00086E290E00E94AD2E0E940A120E94D31173
:1024D00081E00E94431208950F931F93CF93DF93DF
:1024E000843030F5653020F54E3010F5C42FD0E043
:1024F000CC0FDD1F2CE1629FC00DD11D11243CE8E3
:10250000839FC00DD11D1124CE0187960E94892E74
:10251000082F10E0102F0027CE0188960E94892EE8
:102520009801282BC901DF91CF911F910F91089538
:1025300090E080E0F8CF462F672F843038F4753074
:1025400028F44E3018F40E946C12089580E090E058
:102550000895B0E0A0E0EFEAF2E10C94BF2D7C0119
:102560000091FC0480914003082BC7E0D0E010E00C
:10257000DC2EC8010C2E02C0959587950A94E2F7CF
:1025800080FD09C02197A0F7D12C8D2DCDB7DEB7E6
:10259000E7E00C94DB2DB7018C2F0E949B120E9468
:1025A000E60E019779F3F1CFCF93DF93D82FC92FA0
:1025B0000E94A9126D2F7C2F0E949B120E94E60E92
:1025C000DF91CF910895FC0183819481892B29F0BB
:1025D0008081918189238F3F69F480E00895243FB1
:1025E000E1F71CC081E0283E20F0213FB1F716C082
:1025F00008950895808191810E94D412282F929588
:102600009F70963079F358F4925F9F70923028F75C
:1026100081E0203F69F318F7283EF8F608959A5FA5
:10262000F4CF83E290E00E94892E823289F484E222
:1026300090E00E94892E893059F485E290E00E9452
:10264000892E91E0833009F090E0892F8170089500
:1026500080E0FCCFCF9384E090E00E94892EC82FC9
:1026600082E290E00E94892E982F8C2FCF910895BE
:102670001F93CF93DF93EC01FC01E85AFD4F80815B
:102680006823B1F00E94532E182F0E94532E782FEA
:102690007F7720E8720F08F47FEF612F8091CD04DF
:1026A0000E94FE09462F672F282FCE010E948B081B
:1026B000DF91CF911F910895B0E0A0E0E2E6F3E151
:1026C0000C94BB2D182F80911101811323C0909180
:1026D000CA0493702091100130E081E09217130634
:1026E00009F480E08170809318018091CF0490916B
:1026F0001701981739F08093170140E060E080E0FF
:102700000E948808183260F4E12FF0E0EA5CF04D96
:102710000C94A72D81E0E6CF80911801811102C0B1
:10272000C0E0E7C140E060E080E00E948808F8CFA8
:10273000C09116018FE0C89FC02D11240FE00C0F2F
:10274000C02E0C3410F0ABE4CA2E6091CB04709113
:10275000CC048091CD040E94FE09F62EE72ED82EDF
:10276000D0E0CC1528F0C1E00B3408F4C2C1D8CFBA
:10277000FE01E85AFD4F808190911701892331F0C5
:102780002D2D4F2D6E2DCE010E948B082196E9CF65
:10279000C09116018FE0C89FC02D11240FE00C0FCF
:1027A000902E0C3410F0FBE49F2EB090CC04C0901F
:1027B000CD04D091CB046D2F7B2D8C2D0E94FE0972
:1027C000F62EE72ED82E6091CE046D0F7B2D8C2D2A
:1027D0000E94FE09C62EB72EA82ED0E0C91518F605
:1027E000FE01E85AFD4F908180911701892359F02D
:1027F0002A2D4C2D6B2D90FD03C02D2D4F2D6E2DB0
:10280000CE010E948B082196E9CFC09116018FE07E
:10281000C89FC02D11240FE00C0FE02E0C3410F0D7
:10282000EBE4EE2ED090CC04C090CD042091CE04E9
:1028300070E4F72E3F2D329F312D1124F32ED0E07E
:10284000CE1508F090CFFE01E85AFD4F808190919F
:1028500017018923B9F0FE01EE0FFF1FED53FE4F64
:10286000808182958F706091CB048F9D600D1124C3
:102870007D2D8C2D0E94FE09462F672F282FCE011B
:102880000E948B082196DCCFC09116018FE0C89F73
:10289000C02D11240FE00C0FE02E0C3410F05BE47F
:1028A000E52ED090CC04C090CD042091CE0440E41D
:1028B000F42E3F2D329F312D1124F32ED0E0CE1572
:1028C00008F051CFFE01E85AFD4F80819091170129
:1028D0008923D9F0FE01EE0FFF1FEE53FE4F6081FA
:1028E000F69EB001112435E0759567953A95E1F7AC
:1028F0008091CB04680F7D2D8C2D0E94FE09462F00
:10290000672F282FCE010E948B082196D8CFC09127
:1029100016018FE0C89FC02D11240FE00C0FC02EB0
:102920000C3410F09BE4C92EF090CB04D091CC0471
:10293000E090CD046091CE04669566956695809191
:10294000C6049091C7040E94F4090E94590990E8B6
:10295000980F97FD9195990F292F3E2D239F212D9B
:1029600011246F2D7D2F822F0E94FE09F62EE72E57
:10297000D82ED0E0CC1508F0F6CEFE01E85AFD4F77
:10298000808190911701892331F02D2D4F2D6E2DCF
:10299000CE010E948B082196EDCF8FE598E00E9432
:1029A000E10B07C088E398E0FACF8BE399E00E943F
:1029B000F90CC82F9EC08CE199E0F9CF81E099E035
:1029C0000E948E0CF6CF86EE98E0FACF86E398E070
:1029D000E6CF8DE298E0E3CF84E298E0E0CF8BE0B1
:1029E00098E0DDCF8DEF97E0EBCF8BEC99E0DFCF78
:1029F00085ED98E0DCCF81EC98E0E2CF80ED97E0C8
:102A00000E942C0CD6CF82EA97E0FACF8AE697E0B4
:102A1000F7CFC09116018FE0C89FC02D11240FE0A1
:102A20000C0F80911801811131C06091CE0420E11A
:102A3000620F08F46FEF8091C6049091C7040E9462
:102A4000F4096AE070E00E947F2D892B09F08BCE9B
:102A5000409113015091140125E038E0429FC001DC
:102A6000439F900D529F900D1124875E994C909337
:102A7000140180931301890F6BE40E94732D609100
:102A80001701892F90E00E94820A6DCE802F0C34AE
:102A900008F08BE4D0E0E82EF12CCE15DF050CF029
:102AA00062CE60911701CE010E94820A2196F5CF75
:102AB000C0911801C11135C06091CE0420E1620FB0
:102AC00008F46FEF8091C6049091C7040E94F40946
:102AD00065E070E00E947F2D892B09F021CE0E94D5
:102AE000532E6BE470E00E94932D609117010E94B9
:102AF0003813809116018F5F80931601C1110CC0AD
:102B000082E08093120180911801811105C011119A
:102B100003C083E080931201CDB7DEB7EBE00C94E5
:102B2000D72DC09116018FE0C89FC02D11240FE052
:102B30000C0F802F0C3408F08BE4D0E0E82EF12C41
:102B4000CE15DF050CF00FCE60911701CE010E946B
:102B500038132196F5CFC09116018FE0C89FC02D84
:102B60001124DFE0DC0FDD2EDC3410F08BE4D82EF6
:102B7000E090CC04F090CD040091CB046091CE04A1
:102B80006695669566958091C6049091C7040E94EB
:102B9000F4090E94590990E8980F97FD9195990FB3
:102BA000692F2CE0629F612D1124600F7E2D8F2DE7
:102BB0000E94FE09F62EE72E082FAC2EB12CAD1484
:102BC00028F0C1E0DB3408F494CFAACDF501E85A2F
:102BD000FD4F808190911701892331F0202F4F2DD7
:102BE0006E2DC5010E948B083FEFA31AB30AE7CFF1
:102BF00088E799E0D4CE89E597E0D1CE82E597E0E9
:102C00000E946E0BD6CE8CE497E0FACF2091D004D0
:102C100031E0231B08F420E062E377E0822F0E947A
:102C2000CC0AC7CE62E377E080E0F9CF2091D004F0
:102C300031E0231B08F420E069EF76E0EFCF69EF85
:102C400076E0F2CF2091D00431E0231B08F420E09D
:102C500067EC76E0E3CF67EC76E0E6CF2091D00436
:102C600031E0231B08F420E06FEA76E0D7CF6FEA6B
:102C700076E0DACF2091D00431E0231B08F420E085
:102C800068E976E0CBCF68E976E0CECF46E050E069
:102C90006CE170E08AEC94E00E949D2E1092A503F6
:102CA00008954F925F926F927F928F929F92AF9210
:102CB000BF92CF92DF92EF92FF92CF93C0909C038E
:102CC000D0909D03E0909E03F0909F038FB7F894FF
:102CD00040908E0450908F04609090047090910406
:102CE0008FBF530142018C189D08AE08BF080E9497
:102CF000F90460939C0370939D0380939E039093CB
:102D00009F03A0917303E3E7F3E04A2F50E02FEF16
:102D1000C20ED21EE11CF11CC418D508E608F70843
:102D2000A5132EC0409373032091A403C0E021118A
:102D300008C02091CA04C22FC37019F0C22FC695D3
:102D4000C69520911201223009F464C060F521116A
:102D50003BC0109216016093C6047093C704809321
:102D6000C8049093C90489E2E3E7F3E0A0EDB4E07E
:102D700001900D928A95E1F781E08093120116C0CF
:102D8000218D328D2901712C612CC414D504E604E7
:102D9000F70420F441505F5F3296C2CF280D391DF1
:102DA000328F218FF8CF233009F43FC0CF91FF90AD
:102DB000EF90DF90CF90BF90AF909F908F907F90DB
:102DC0006F905F904F9008958C2F0E945C13CC23DE
:102DD00069F30E94B00581FF15C06091CD04683091
:102DE00068F06C3A68F48091A00380FF685F262F3A
:102DF000462F82E290E00E948B08D8CF68E0F7CFA0
:102E000064EBF5CF8091A00380FFD0CF20E040E0BD
:102E100060E0EFCFC09311018091CA04837080936A
:102E200010010E94AC1183E0A8CF8091A50381110D
:102E30000E9446164091C6045091C7046091C80490
:102E40007091C9042FB7F89480918E0490918F04EB
:102E5000A0919004B09191042FBF841B950BA60BF9
:102E6000B70B4097A105B10508F4A0CF109212014D
:102E70009DCFEAECF4E085E3808380911901909185
:102E80001A01A0911B0181839283A3838FE784831E
:102E90008FEF85830E944616089580913E0390919E
:102EA0003D03892B8093A60290913F039923A1F0C3
:102EB000892B8093A602809115018823E1F18091EE
:102EC000920487FF38C08EE1E8EAF2E090E081509A
:102ED000A0F591110E94701040E250E06DE173E0A6
:102EE00086EA92E00E94632E892B21F180E2E6EAD5
:102EF000F2E0ADE1B3E001900D928A95E1F7E09147
:102F00008904F0918A043097A9F0809115018823F3
:102F100059F08091920487FF07C08091A6028093A8
:102F2000A70286E08093A6020280F381E02D86EA64
:102F300092E00995089586E0C7CF2191222339F2C6
:102F40009F5FC5CF90E080E00E949A0590E080E00E
:102F50000E94840510923D030E944D1786E0EDE625
:102F6000F3E0DF011D928A95E9F710926703109252
:102F70006603109268030E944D0D08958093FC042F
:102F80000E94A21708958091FC04982F96709630A5
:102F900021F488600E94BE170895877FFBCF21E04F
:102FA00030E001C0220F8A95EAF720958091FC0459
:102FB00082230E94BE17089590911C038095892357
:102FC00080931C03282F277091F4282F082E000CC3
:102FD000330B9217130659F09091930492FF07C098
:102FE0008595859585950E94CF1710921C030895AD
:102FF000CF93C0919304C2FB992790F9981791F051
:1030000080FBC2F9C09393046091920484E090E045
:103010000E94AD2E6C2F82E290E00E94AD2E82E0E5
:103020000E94DC17CF91089521E030E001C0220F0B
:103030008A95EAF78091FC04822B0E94BE170895BE
:10304000809340030E94A2170895882321F00E94D4
:1030500076100E944D170895882339F090913E0311
:10306000892B80933E030E944D170895882391F188
:103070009CEF980F913A40F4682F86EA92E00E9404
:1030800022050E944D17089590E2980F983050F451
:10309000877091E001C0990F8A95EAF7892F0E9405
:1030A0007610EFCF9BE5980F933028F490E080E006
:1030B0000E949A05089598E5980F973128F490E0BA
:1030C00080E00E9484050895803F20F00E94730DE7
:1030D0000E944D0D0895CF93C82F8823D1F18CEF16
:1030E0008C0F813AC0F580911501882311F18091F0
:1030F000920487FF1EC0EC2FE695E695E695F0E07A
:10310000EA55FD4F828190E04C2F477021E030E07E
:1031100002C0220F331F4A95E2F782239323892BA3
:1031200089F06C2F86EA92E00E9422050E944D17DA
:1031300009C0E8EAF2E08191C81799F322E0EE3A7B
:10314000F207C9F76C2F86EA92E00E944E050E94B2
:103150004D17CF91089580E28C0F883068F4C770C6
:1031600021E030E001C0220FCA95EAF780913E03CA
:10317000822B80933E03EBCF8BE58C0F833038F4AA
:103180002C2F2452330BC9010E949A05E2CFE8E5A7
:10319000EC0FE73150F4F0E0EE0FFF1FE05EFE4F62
:1031A000808191810E948405D4CFC03F90F28C2F02
:1031B0000E942E0E0E944D0DCCCF0F931F93CF93E4
:1031C000C82F10E000E0893311F400E510E08C2FE7
:1031D0000E946B180115110539F48C2F0E943618C6
:1031E000CF911F910F9108958FE99FE00197F1F71B
:1031F00000C0000001501109EDCFFF920F931F9303
:10320000CF93DF93C62FD42F122FFC018281882306
:10321000A9F06093FB040E9416059093FA04809332
:10322000F904C77081E001C0880FCA95EAF70E94CF
:103230002C18CDB7DEB7E5E00C94DD2D8091FB04B2
:10324000681330C08091F9049091FA040E94EA0456
:10325000883C910538F500E20D0FCD17A9F0C77035
:10326000FF24F3948F2D01C0880FCA95EAF70E94BE
:103270002518083048F48D2F877001C0FF0C8A95FF
:10328000EAF78F2D0E942C18812F0E94DD1808303C
:1032900080F6D77081E001C0880FDA95EAF70E94C6
:1032A0002518C7CFC77081E001C0880FCA95EAF71B
:1032B000F6CFB0E0A0E0EFE5F9E10C94BF2DE82FE8
:1032C000F0E0E55EFC4FD490282F269526952695B4
:1032D00030E0F901E55FFC4F0491877010E0082EA3
:1032E00002C0159507950A94E2F701701127F901BC
:1032F000E550FD4FE490F12C082E02C0F594E794C0
:103300000A94E2F791E0E922FF24F901E551FD4F2B
:10331000C491D0E002C0D595C7958A95E2F7C170F7
:10332000DD270115110519F081EE0E946B18E114DB
:10333000F10419F086EE0E946B188D2D0E94DD18A5
:10334000E114F10419F086EE0E94361801151105FA
:1033500019F081EE0E943618CD2B19F08CE20E94F4
:10336000DD18CDB7DEB7E7E00C94DB2DAAE0B0E0C6
:10337000ECEBF9E10C94B82D8E010F5F1F4F8AE042
:10338000F80111928A95E9F79EE4E92E91E0F92E71
:10339000680123E5622E21E0722E88248394912C0B
:1033A000F70181917F018F3F09F446C0F894E82F1F
:1033B000E295EF70F0E021A18F70A40102C0440FEC
:1033C000551F8A95E2F7CA01922F982B91A392A1DB
:1033D0008095892382A3789400C0E3E5F1E021E0A1
:1033E00030E0B12CA12C41914F3F09F465C0A42FCE
:1033F000A295AF70B0E090968C9190E04F7002C0B3
:10340000959587954A95E2F780FD56C0C901A82A8F
:10341000B92A220F331F51E0E136F50721F7F701F2
:10342000319780818F3F11F00E948A0E80EA8A9541
:10343000F1F7F601B182A082F2E0CF0ED11C6E143A
:103440007F0409F0ADCF4AE050E0B80184E493E096
:103450000E94632E892B99F18AE0F801A4E4B3E07D
:1034600001900D928A95E1F781E0809343030E94D9
:1034700016059093420380934103809141039091FC
:1034800042030E94EA040597F0F04AE050E064E449
:1034900073E08CE593E00E94632E892BC9F08AE0EB
:1034A000E4E4F3E0ACE5B3E001900D928A95E1F736
:1034B00081E01092430308C090E080E0A8CF8091A3
:1034C00043038111DACF80E02A96EEE00C94D42DEC
:1034D00080E0EFCF10923E0380911501E8EAF2E020
:1034E000882361F08091920487FF08C08EE1DF019C
:1034F0001D928A95E9F70E94A217089586E0F7CFFA
:10350000AAE2B0E0E6E8FAE10C94C32D8EEB94E079
:10351000FC0101962091F100208324E0863C920773
:10352000B9F78091BF04893009F456C0C8F48230DD
:1035300009F4B3C0833009F482C0813071F1809105
:10354000E80083FF85C28091BE049091BF049A3049
:1035500008F07EC2E92FF0E0E25AF04D0C94A72D5E
:103560008A3009F489C08B3051F78091BE048132D2
:1035700031F78091C2049091C304892B01F78091A7
:10358000E800877F8093E8000E94E0038091C004F8
:10359000809315010E946A1AD2CF8091BE04813AAD
:1035A00071F68091E800877F8093E8008091C204E3
:1035B0009091C304892B61F460E28AE994E070E0A1
:1035C0000E948C048091E8008B778093E800B7CF4D
:1035D00060E090E080E0F3CF8091BE04813209F09A
:1035E000AECF8091C2049091C3048D7F892B09F0E6
:1035F000A6CF8091E800877F8093E8008091E80063
:1036000082FF18C09091F3008091F200029731F48C
:103610008091F100813011F0863021F48091F10029
:10362000809399048091E8008B778093E8000E9452
:10363000E00385CF8091BC048111E0CF80CF8091E1
:10364000BE04813A09F07BCF8091C2049091C304FB
:10365000892B09F074CF8091E800877F8093E80080
:103660008091E80080FFFCCF809115018093F100EC
:103670008091E8008E77D9CF8091BE04813209F025
:103680005ECF8091E800877F8093E8000E94E0038E
:103690008091C1048093980452CF8091BE04813AF6
:1036A00009F04DCF8091E800877F8093E8008091FA
:1036B000E80080FFFCCF80919804D8CF803899F043
:1036C000823809F0C5C18091C2048F70873008F03C
:1036D000BFC18093E9008091EB0085FB882780F9CA
:1036E0001092E90006C08091BA049091BB04911138
:1036F00082609091E800977F9093E8008093F100BA
:103700001092F1008091E8008E779EC1882309F421
:103710008CC1823009F09CC18091C00481118FC19D
:103720008091C2048F702FEF280F263008F090C1CF
:103730008093E9002091EB0020FF81C1933031F4A8
:103740008091EB0080628093EB0079C19091EB0057
:1037500090619093EB0021E030E001C0220F8A9548
:10376000EAF72093EA001092EA008091EB0088606B
:10377000EACF81116DC11091C0041F778091E300E1
:103780008078812B8093E3008091E800877F80938D
:10379000E8000E94E0038091E80080FFFCCF809168
:1037A000E30080688093E30082E0111183E080935E
:1037B000BC044EC18058823008F04AC14091C00418
:1037C0005091C1044C3D83E05807A1F583E08A8302
:1037D0008AE289834FB7F894DE01139620E03EE039
:1037E00051E2E32FF0E050935700E49120FF03C033
:1037F000E295EF703F5FEF708E2F90E0EA30C0F0FF
:10380000C7968D939D932F5F243159F74FBF8091B9
:10381000E800877F8093E8006AE270E0CE010196BD
:103820000E948C048091E8008B778093E80010C19F
:10383000C096E7CF8091C2049091C304252F33270F
:103840002330310509F44AC078F52130310509F4F7
:1038500079C08BE590E0EBECF5E02230310509F022
:10386000F7C02091E800277F2093E8002091C4044E
:103870003091C5048217930708F49C0140E021159C
:10388000310509F064C0411162C08091E80082FDF9
:10389000C9CF8091BC04882329F2853019F2809128
:1038A000E80083FFF2CFBECF2132310509F43BC0DF
:1038B0002232310509F0CCC08330910508F0C8C030
:1038C000FC01EE0FFF1FE059FE4F0190F081E02D4B
:1038D00083599E4FDC018C9190E011C0CA01992759
:1038E000413089F082309105B1F0892B09F0B0C0E8
:1038F000E4E5F6E0E4918E2F90E0E4E5F6E0009751
:1039000009F4A6C0AECFE4E4F6E0E4918E2F90E097
:10391000E4E4F6E0F4CFE8E3F6E0E4918E2F90E003
:10392000E8E3F6E0ECCF8330910508F091C0880F12
:10393000991FFC01EA58FE4F0190F081E02D89E0CB
:1039400090E08FCF82E190E0E6E2F6E08ACF8091CE
:10395000BC04882309F466CF853009F463CF8091D5
:10396000E80083FD5FCF8091E80082FD8ECF8091DB
:10397000E80080FF84CF9091F3008091F200211540
:10398000310519F08830910550F041E0089709F0B1
:1039900040E08091E8008E778093E80070CF4491FA
:1039A0004093F1003196215031090196E8CF8038DB
:1039B00009F04EC08091E800877F8093E8008091F5
:1039C000BD048093F1009ECE811142C01091C004CD
:1039D0001230F0F58091E800877F8093E800109323
:1039E000BD040E94E003112311F084E005C0809122
:1039F000E30087FDFACF81E08093BC0442E061ECF4
:103A000081E00E94FF0342E261EC84E00E94FF0338
:103A100042E261EC82E00E94FF0342E260EC83E05C
:103A20000E94FF038091BC0413C08091C0048130C8
:103A300079F481E0933009F080E08093BB04109228
:103A4000E9008091E800877F8093E8000E94E0030E
:103A50008091E80083FF0AC08091E800877F80930F
:103A6000E8008091EB0080628093EB00AA96E3E08F
:103A70000C94DF2D0E946A1A2FEF84E39CE0215002
:103A800080409040E1F700C0000088E19CE00FB664
:103A9000F894A895809360000FBE90936000FFCFCC
:103AA00090E080E00E94972E883E9E4F19F40E947D
:103AB0001113089580E008958091A503816090918D
:103AC000A00390FF16C01092CF048093A50340E09E
:103AD00060E080E00E9488084091A0035091A1031B
:103AE0006091A2037091A3038FE090E00E94BF2E2B
:103AF00008959FEF9093CF048093A5030E948B06B7
:103B0000EBCF68EE7EEF90E080E00E94CB2E60E08D
:103B100082E090E00E94AD2E60E083E090E00E94A1
:103B2000AD2E1092400360E084E090E00E94AD2E44
:103B300064E082E290E00E94AD2E60E085E090E0DB
:103B40000E94AD2E60E086E090E00E94AD2E6FEF07
:103B500087E090E00E94AD2E40E050E0BA0188E09E
:103B600090E00E94BF2E60E08DE090E00E94AD2EBC
:103B700040E050E0BA0188E190E00E94BF2E60E092
:103B800087E190E00E94AD2E40E050E0BA018CE168
:103B900090E00E94BF2E70E060E080E290E00E9422
:103BA000CB2E40E050E0BA0188E190E00E94BF2EA9
:103BB00080E00E9443120E945C1240E050E0BA0193
:103BC0008FE090E00E94BF2E1092A0031092A103FC
:103BD0001092A2031092A3030E945C1D08958FE02F
:103BE00090E00E94912E6093A0037093A1038093B4
:103BF000A2039093A3030E945C1D0895A5E0B0E08A
:103C0000E4E0FEE10C94B92D7C01FC0183819481F8
:103C1000892B31F08081918189238F3F09F0E7C59D
:103C20002596EDE00C94D52D0E94A912182F682F2F
:103C300089819A810E94BC1069817A81812F0E94BA
:103C40009B128C01F7018281882309F4C4C5980175
:103C500022513F452031310508F061C58FEF93E0D7
:103C60000E94892E811130C05EEED52ED00E07E560
:103C700012E0D1103BC080911C0190911D01A091D8
:103C80001E01B0911F0189839A83AB83BC83BB243F
:103C9000B3944AE0A42E68012FEFC21AD20AC801D9
:103CA0000E94892E89831A82882371F09FEF980FD2
:103CB000933048F58A83B9820E5F1F4FC6010E9478
:103CC000892E8B83811120C080911C03877009F499
:103CD000A7CFF7018281882309F4A2CF80919304B2
:103CE00082FF9ECF82E00E94DC179ACF0115F4E09C
:103CF0001F0751F3C8010E94892E811101C0DA9477
:103D00000F5F1F4FB6CF8601CE0101966C01F60101
:103D10008081882309F4BFCF813009F047C09181A9
:103D20008281913049F4F2E0CF0ED11C0E94DD185F
:103D3000EFEFCE1ADE0AEBCF923031F422E0C20E62
:103D4000D11C0E946B18F4CF933031F432E0C30ED3
:103D5000D11C0E943618ECCF943021F08FEFC81A96
:103D6000D80AE6CF92E0C90ED11C30E020E0B601BF
:103D70006F5F7F4FF60141818053990B8A30910527
:103D800050F021503109A0F28FE99FE00197F1F73F
:103D900000C00000F6CFA29EF001A39EF00D1124FA
:103DA0009C012E0F3F1F842F6B01E1CF0E945919F8
:103DB000BFCF81E00E9414180E94C31785CF81E015
:103DC0000E94CF17F9CF82E0F5CF0E3D2CE5120708
:103DD00009F456C0033F2CE5120709F4F6C008F0B9
:103DE000DFC0083D8CE5180709F4EBC028E241E08C
:103DF000093D9CE5190709F4E6C026E241EE61EEB3
:103E0000073DECE51E0709F0AFC4C7010E94FD188D
:103E10005BCF02383FE5130749F10938EFE51E078C
:103E2000A1F10138FFE51F0709F09EC4882309F4BA
:103E300096C080EA92E090C0882309F495C440E0DF
:103E400060E084EB0E9488080E94AC118DC4882336
:103E500009F43ACF8091A00380FD06C08160809371
:103E6000A0030E945C1D30CF8E7FF9CF882309F418
:103E70002BCF9091A003892F8E7F90FF8160EFCF91
:103E8000811172C40E94EF1D6FC491111DCF811169
:103E90001BCF04EC11E03AE0B32EF80184918823A3
:103EA00009F412CF813009F04FC06801FFEFCF1A3B
:103EB000DF0AF6018491813061F46801F2E0CF0EEF
:103EC000D11CF60184910E94DD1886010F5F1F4FFF
:103ED000E4CF823049F46801F2E0CF0ED11CF60144
:103EE00084910E946B18F1CF833049F46801F2E0AD
:103EF000CF0ED11CF60184910E943618E6CF843093
:103F000021F76801F2E0CF0ED11CF601249190E078
:103F100080E0F60131962053330B2A30310548F00A
:103F2000019798F2EFE9FFE03197F1F700C0000048
:103F3000F7CFB89EA001B99E500D1124C901840F7E
:103F4000951F24916F01E5CF0E9459196801BDCFDB
:103F5000882329F08FE992E00E948405B5CE90E095
:103F600080E0FACF882389F0927209F4FDC382E2DF
:103F70000E9476108CE40E946B1881E08093C60248
:103F80008091C70280933E039FCE8091C602882312
:103F900009F4EAC38CE40E9436181092C60294CE4B
:103FA000053FFCE51F07A9F0063F2CE51207A9F025
:103FB00027E245EE64EE043F3CE5130709F425CF04
:103FC000D3C327E245EE65EE20CF26E241EE60EE58
:103FD0001CCF26E241EE62EE18CF27E245EE66EEF8
:103FE00014CFC8018A5F9C45099708F4D4C30631F1
:103FF0002CE51207E9F480913E038A7A91E009F4F6
:1040000090E09093C80269E2811165E386EA92E04C
:104010000E944E050E944D1757CE053A9DE519079F
:1040200009F4B9C3C8018D5A9D45039708F4B3C379
:104030000B35FDE51F0709F04DC180E07DC1F8019A
:10404000E350FC45809192048160E331F10568F50D
:10405000E859F04D0C94A72D03302DE5120780F49C
:104060000A3F3CE5130708F4A6C3F801EB5FFC45E3
:10407000E830F10508F03FC0E558F04D0C94A72D4D
:104080000D3A8DE5180729F198F40136EDE51E0784
:1040900009F4B0C090919204892F8E7F90FF8160C7
:1040A000053AFDE51F0709F086C38093920483C398
:1040B0000E3A2DE5120709F444C00F3A3DE5130707
:1040C00009F079C390919304892F877F93FF8860CB
:1040D00003C0809193048860809393046CC38091A3
:1040E00092048260E2CF809192048460DECF80915E
:1040F00092048860DACF809193048160EDCF809143
:1041000093048260E9CF809192048061CECF809148
:1041100092048062CACF809192048064C6CF0E94CC
:104120006A1A809192048068C0CF809192048C605A
:10413000BCCF809193048360CFCF809192048E7F17
:10414000B4CF80919304877FC7CF809192048D7FF5
:10415000ACCF809192048B7FA8CF80919204877F0F
:10416000A4CF809193048E7FB7CF809193048D7FED
:10417000B3CF809192048F7E98CF809192048F7DEF
:1041800094CF809192048F7B90CF0E946A1A809185
:1041900092048F778ACF80919204837F86CF80911B
:1041A00093048C7F99CF8091920482FB992790F998
:1041B00021E0922790FB82F990FB83F976CF8091E2
:1041C0009304982F909591708E7F892B90FB81F9A5
:1041D00083CF0E946A1A90919204892F97FB87F9E6
:1041E000805863CF61E08EE090E00E94AD2EE3C284
:1041F00060E0F9CF90919204892F8F7E94FF8061C7
:1042000054CF8091C80269E2811165E386EA92E0A9
:104210000E942205FFCE023C9CE5190708F409C361
:10422000F801E35CFC45E331F10520F4ED57F04D76
:104230000C94A72D8091CA0491E089278093CA0429
:10424000109212018091A50381608093A5033CCD5B
:1042500042E756E06FE776E00E94BD0535CD4FE7B7
:1042600056E062E776E0F8CF42E456E06DE476E0AF
:10427000F3CF4DE456E062E476E0EECF46E256E05E
:1042800064E376E0E9CF44E356E066E276E0E4CF2B
:104290004AE056E068E176E0DFCF48E156E06AE0C8
:1042A00076E0DACF4AED55E068EE75E0D5CF48EE1E
:1042B00055E06AED75E0D0CF61E081E00E945806DC
:1042C00003CD61E085E0FACF61E08DE0F7CF61E0FA
:1042D00082E1F4CF0C35FDE51F07D0F40E3D2CE54F
:1042E000120701F181E00A353DE5130729F10115B7
:1042F0001C4509F09EC20E946A1AFFEF24E33CE0CD
:10430000F15020403040E1F700C000000E948811C9
:104310000C359DE5190749F0073A1D4509F089C29A
:104320000E943A1D0E94811DFBCF8091930482FB65
:10433000882780F991E089270E94F8177AC2C60180
:104340000E948810182F84C2F12FFF70AF2E107FAB
:1043500019F0A29490EFA922802F9920B9F0AA20F9
:1043600069F090E2900F983010F0011109C080912F
:104370003E03A82AA0923E030E944D17802F49C0F9
:1043800080913D03A82AA0923D03F6CF0E943618E3
:10439000AA2009F440C0005E083010F0711004C07B
:1043A0008A2D0E94761006C0A09480913D03A82219
:1043B000A0923D030E944D172EC0212F2F70A22ED8
:1043C000107F103219F0A29480EFA822772089F094
:1043D00031E0731609F469C0992009F473C088208C
:1043E00009F469C0F701958190FFC8CF9F7095834C
:1043F00062C02091930422FD36C0992071F1AA2059
:1044000039F080913E038A2980933E030E944D1724
:1044100080E00E946B1898E0C91AD108E4E0CE163B
:10442000D10410F40E94B005BB2009F4F9CB8091AF
:104430001C0380FDF5CBF701128285958595859546
:104440000E941418C7010E94FE1D80911C038595CF
:10445000859585950E94CF17E3CB80E00E943618A2
:10446000AA20C9F29DCF992099F090913F03892FFE
:104470008A29811003C00E942C18CDCFE1E08E1252
:10448000FACF22FFC8CF981731F280933F03C3CFF2
:10449000811006C00E9470108A2D0E942518BBCF83
:1044A000F1E08F1609F4B7CFF5CF992031F025E070
:1044B000281508F4B0CF8A2DDECF34E0381508F483
:1044C000AACFEACF882041F3093349F4FFEF27EE62
:1044D00033E0F15020403040E1F700C00000802F71
:1044E0000E94361898CF812F86958695837061F04B
:1044F000813009F090CFC8019370911002C090E014
:1045000080E00E94840587CFC8019370911002C09B
:1045100090E080E00E949A057ECF802F992029F0BC
:104520000E942E0E0E944D0D76CF0E94730DFACF81
:10453000812F837091F591106ECF402F4295469553
:104540004770440F440F802F8F70042E01C0880FD6
:104550000A94EAF7202F207104FF07C02FE030E013
:1045600001C0220F4A95EAF720951695169513700B
:10457000123071F0133051F030914003113029F0B6
:10458000822B83230E94201846CF832B822BFACFC5
:10459000282B809140038227F5CF8695992011F032
:1045A000812F8170882309F436CF402F429546959C
:1045B0004770440F440F802F8F70042E01C0880F66
:1045C0000A94EAF7202F207104FF07C02FE030E0A3
:1045D00001C0220F4A95EAF720951695169513709B
:1045E000123071F0133051F03091FC04113029F089
:1045F000822B83230E94BE170ECF832B822BFACFF0
:10460000282B8091FC048227F5CF1F70992029F078
:10461000812F0E941418802F2ECF802F0E942518E2
:10462000812F0E94CF17F7CE802F92EF7916B1F12C
:10463000971570F0E0EF7E16D1F0F1EF7F1691F054
:10464000992009F45CC0811099CE812F8F712AC006
:1046500023EF721651F134EF7312F2CF809193046D
:1046600082FD2FC0812F8F719920D9F21BC0992014
:1046700081F084E0881508F4CECE1F7181E090E0CF
:10468000012E01C0880F0A94EAF79091FC04892753
:10469000B1CF95E0981508F4BECEEFCF812F8F7182
:1046A0009110BFCF0E941418B6CE80E0992009F473
:1046B000A1CF1F7181E0012E01C0880F0A94EAF793
:1046C00099CF992089F01F71812F0E941418809131
:1046D000930482FF07C0E8E01E9FC001112483609D
:1046E00080931C03812FDECF81E00E94DC17F1E074
:1046F000F81508F090CE82E00E94DC178CCE88205E
:1047000059F0893309F0EBCE2FEF37EE83E02150DB
:1047100030408040E1F7E1CE812F8F7182CF0031B0
:10472000FFE51F0709F445CB01312FE5120709F416
:104730004ACB90913E039093C7020038FFE51F07D4
:1047400009F406CC08F065CB023C3CE5130709F4FC
:104750007ECB08F03ACB0A32110509F403CC0115DF
:10476000FCE51F0709F468CBF7018281882309F46F
:104770004FC01092FB040136FDE51F0761F008F001
:104780004CCC06313CE5130708F02BCC02308CE50D
:10479000180708F44DCC0E942A1390939304809339
:1047A00092040631ECE51E0708F056CC0230FCE519
:1047B0001F0708F044CC609192041091930484E0A8
:1047C00090E00E94AD2E612F82E290E00E94AD2E1B
:1047D0000E946A1A79CA00313FE5130709F4EFCA4B
:1047E00001319FE5190709F0A4CF82E0E9CA85E00D
:1047F000DE01119601900D928A95E1F7F701228171
:1048000089819A81211110CA0E948810182F14CA18
:1048100006313CE5130709F4F4CC80913E03827223
:10482000063D9CE5190708F4F6CC0D35100709F490
:104830004BCAF7018281C080D180882309F47FCDE3
:10484000C6010E94A912182F682FC6010E94BC1031
:10485000B601812F0E949B120E94E60E8C01782ED9
:10486000F7019280858082942FE0822280911C0340
:104870008770C1F0B92C9920B1F0812F807F8034EE
:1048800021F080E2800F883068F08091930482FFED
:1048900009C082E00E94DC1780911C038770BB2452
:1048A000B3948111B12C812F82958F70C82ED12C99
:1048B0008C3008F0B0CDF601EA56F04D0C94A72DDF
:1048C0001F93CF93DF938091E902807F09F049C065
:1048D0008091E602882309F444C080911B03D091A3
:1048E000EA026091E4027091E502A091E702B091C2
:1048F000E802C62FC72316E0D81799F190E0109769
:1049000011F0CF3F19F401968770F6CF189F9001F0
:10491000199F300D1124F901E551FD4F41814713D5
:10492000F2CF40814613EFCF42814111ECCF43815A
:1049300054814A1B5B0B483C510528F78091E902E2
:104940008F7080618093E902F901E051FD4F808111
:104950008F708061808384EE92E00E94FE1D0E9431
:104960007E10DF91CF911F910895ABE0B0E0EBEBAB
:10497000F4E20C94BC2D8C0185E0F801DE01179661
:1049800001900D928A95E1F7F801E28084EEA82E5D
:1049900082E0B82E6091E7027091E802611571051E
:1049A00009F40EC19091E4024091E502842F89231D
:1049B0008F3F09F405C120813181C380D480F090FC
:1049C000E602F601E61BF70BFF2009F4C4C0809154
:1049D000E902582F507FE83CF10508F09FC05111C3
:1049E0006BC0FE2C431314C0921312C0E11010C010
:1049F0008F7080618093E902C5010E94FE1D809145
:104A0000E902F80185838F2D2B96EAE00C94D82DCE
:104A1000C114D10429F0822F83238F3F09F0EBC00A
:104A200080E0F82FF170DF2EE0911B034091EA0245
:104A300056E080FD1CC0EE2031F38091E9028160D8
:104A40008093E902F12CDFCF8E2F90E05E9FF00182
:104A50001124E551FD4F6181361306C06081261394
:104A600003C06281E612E7CFFC013196E770E413E0
:104A7000EBCF2F8338878F8198850E94D412292FFE
:104A800022952F70903260F0225F2F70223078F4E0
:104A90009F7051F0F8019581907F31F4D12C0AC0BC
:104AA0009F7011F08823D1F3805E8830B8F3C8017D
:104AB0000E94FE1DFD2CA7CF431306C0921304C015
:104AC000F801EE2009F461C0C8010E94E3128823B6
:104AD00009F1EE20F9F08091E902803270F0209126
:104AE000E4023091E5023A8329831B82DD82CC8285
:104AF0008E83CE0101960E94FE1D86E0F801A4EE91
:104B0000B2E001900D928A95E1F70E946024FF24A3
:104B1000F39479CFC8010E94FE1DF9CF51110AC04C
:104B200084EE92E00E94FE1D86E0F50111928A95C6
:104B3000E9F788CF4313C8CF9213C6CFE110C4CF93
:104B4000F8018583C8010E94FE1D86E0F5011192DF
:104B50008A95E9F758CFE83CF105B8F7FE2CEE202E
:104B6000C9F243131FC092131DC08091E90280FD5A
:104B700010C0982F907F69F0F8018583903F31F045
:104B8000982F907F905F8F70892B8583C8010E943A
:104B9000FE1D86E0F801A4EEB2E001900D928A9528
:104BA000E1F731CFC8010E94E3128111A6CF8091B5
:104BB000E90281608093E902C8010E94FE1D23CFB3
:104BC000EE2009F4A7CFC8010E94E312F82E882333
:104BD00009F4A0CF86E0F801A4EEB2E001900D92B6
:104BE0008A95E1F78091E4029091E5020E94D41247
:104BF0000E94602408CF81E08E2513CFA7E1B0E0AA
:104C0000E4E0F6E20C94C32D4B8B5C8B6D8B7E8BBA
:104C10008F8B611110923D031A8A2C898E899F898E
:104C20003B893D872E876F87998B888B86E0FE01B5
:104C30003D96DE01179601900D928A95E1F7CE011F
:104C400007960E94B524882359F016E080911B0333
:104C50009091EA02891349C06796E3E00C94DF2D36
:104C600086E0FE013796DE01119601900D928A953D
:104C7000E1F74A855B854115510539F37F816885E8
:104C8000862F87238F3F09F32091EA0230E0C90184
:104C9000019687709927E0911B03E817190671F4B4
:104CA0000E946A1A1092EA0210921B0386E0E4EE58
:104CB000F2E0DF011D928A95E9F7C7CF79836A8315
:104CC0005D834C8396E0929FD001939FB00D112499
:104CD000A551BD4FFE01319601900D929A95E1F7D5
:104CE0008093EA020E947E10B0CF819FC001112400
:104CF00085519D4F0E94B524882309F4ADCF809142
:104D00001B0390E001968770992780931B039ECF29
:104D10001F920F920FB60F9211242F933F934F9330
:104D20005F936F937F938F939F93AF93BF93CF9333
:104D3000DF93EF93FF93D091E900DF708091EC0057
:104D4000C82FC17080FDC0E81092E9008091F0008A
:104D5000877F8093F00078940E94801A1092E90077
:104D60008091F00088608093F000CD2BCF70C093CD
:104D7000E900FF91EF91DF91CF91BF91AF919F91AA
:104D80008F917F916F915F914F913F912F910F90F4
:104D90000FBE0F901F9018951F920F920FB60F9293
:104DA00011242F933F934F935F936F937F938F9330
:104DB0009F93AF93BF93EF93FF938091E10082FFA6
:104DC00009C08091E20082FF05C08091E1008B7FE5
:104DD0008093E1008091DA0080FF24C08091D800A8
:104DE00080FF20C08091DA008E7F8093DA0080916E
:104DF000D90080FF9BC080E189BD82E189BD09B4F3
:104E000000FEFDCF81E08093BC0480919704811166
:104E100009C00E9466030E9431048091E200846010
:104E20008093E2008091E10080FF17C08091E20052
:104E300080FF13C08091E2008E7F8093E20080911A
:104E4000E20080618093E2008091D80080628093CC
:104E5000D80019BC85E08093BC048091E10084FFF8
:104E600029C08091E20084FF25C080E189BD82E1F4
:104E700089BD09B400FEFDCF8091D8008F7D80935D
:104E8000D8008091E1008F7E8093E1008091E20064
:104E90008F7E8093E2008091E20081608093E20047
:104EA0008091BD04882309F447C084E08093BC044A
:104EB0008091BC048091E10083FF27C08091E200D3
:104EC00083FF23C08091E100877F8093E10082E02F
:104ED0008093BC041092BD048091E1008E7F80938A
:104EE000E1008091E2008E7F8093E2008091E200F9
:104EF00080618093E20042E060E080E00E94FF0376
:104F00008091F00088608093F000FF91EF91BF9155
:104F1000AF919F918F917F916F915F914F913F9151
:104F20002F910F900FBE0F901F90189519BC1092E3
:104F3000BC041092970476CF8091E30087FD02C0F5
:104F400081E0B4CF83E0B2CF78941F921FB61F9256
:104F500011248F939F93AF93BF9380918E04909170
:104F60008F04A0919004B09191040196A11DB11DF0
:104F700080938E0490938F04A0939004B093910437
:104F8000BF91AF919F918F911F901FBE1F90189559
:104F90001F921FB61F9211248F939F93AF93BF93BD
:104FA00080918D04811113C080918E0490918F04A3
:104FB000A0919004B09191044196A11DB11D8093E0
:104FC0008E0490938F04A0939004B0939104BF91AA
:104FD000AF919F918F911F901FBE1F901895CDB7D5
:104FE000DEB7A9970FB6F894DEBF0FBECDBF85B769
:104FF000806885BF85B7806885BF84B7877F84BF99
:105000000FB6F894A8958091600088618093600045
:10501000109260000FBE80E890E00FB6F894809385
:105020006100909361000FBE88E89EE09093A50216
:105030008093A4020E9466030E9431048091E200E2
:1050400084608093E20078948091BC048823A1F06E
:105050001091E9001F709091EC00892F817090FDF4
:1050600080E8182B1092E9008091E80083FD0E94EF
:10507000801A1F701093E90082E084BD93E095BD13
:105080009AEF97BD80936E000E941113811102C0A8
:105090000E945C120EE411E0D8018D918D018F3FCA
:1050A00011F00E948A0EB1E003351B07A9F703E552
:1050B00011E091E6E92E91E0F92EF80181918F013E
:1050C0008F3F11F00E948A0EE016F106B1F78AE0D8
:1050D000ECE5F3E0DF01282F1D922A95E9F7E4E4DF
:1050E000F3E0DF011D928A95E9F70E94501D8111BE
:1050F00002C00E94811D82E090E00E94892E809370
:1051000050030E942A1390939304809392040E9468
:10511000B619EFE3FCE93197F1F700C000000E94F7
:10512000B61980915C0380FF08C06FEF7FEF90E0BD
:1051300080E00E94CB2E0E94881183E090E00E94C4
:10514000892E0E9420181092D0048FEF9FEF909329
:10515000EA048093E9049093EC048093EB04909329
:10516000EE048093ED049093F0048093EF04909309
:10517000F2048093F1049093F4048093F3049093E9
:10518000F6048093F5049093F8048093F70410924A
:10519000730390938D0380938C0390938F0380937C
:1051A0008E03909391038093900390939303809345
:1051B0009203909395038093940390939703809325
:1051C0009603909399038093980390939B03809305
:1051D0009A030E94501D811104C00E94811D0E94EB
:1051E000391746E050E06CE170E08AEC94E00E94F0
:1051F000792E1092A5038091CA048C7F11F40E942D
:1052000039170E94EF1D84E091E090938A04809307
:105210008904772473948091BC04853089F400E478
:10522000F02E83E0E82E00E112E18091BC0485308D
:1052300009F4C8C00E946A1A0E94B0051092A40323
:105240000E94B61981E593E09AA389A3ACE5B3E087
:10525000BFA3AEA34BE553E0FC01219131918D91A9
:105260009D914E175F0709F4FFC028173907A9F36E
:105270001CE7812E11E0912E612CEEA1FFA1E1909F
:10528000F190FFA3EEA3A9A1BAA18D919D91BAA31C
:10529000A9A38E159F0509F48BC0FC01EE25FF25FF
:1052A000F9A7E8A71401512CCC24C394D12C88A5CC
:1052B00099A58C219D21892B09F46CC087010C21B3
:1052C0001D2159826A8281E00115110509F480E0EF
:1052D0008B830E9416058160782F9D838C83498182
:1052E0005A816B818D810E94FE25012B29F0D1010D
:1052F0008C918F3F09F0DFC1412C042D10E080918B
:105300007303800F912F911D09976CF1E8E0AE2E89
:10531000B12CA01AB10AB8016C587C4FA50184E7E2
:1053200093E00E94702EB80164587C4FA5018CE771
:1053300093E00E94702EA501440F551FB801660F1F
:10534000771F64577C4F8CE893E00E94702EB80161
:105350006C577C4FA50184E893E00E94702E88E092
:105360008419809373038091730390E0EDA1AE2FB5
:10537000B0E09D01220F331F2E533E4FAA0FBB1FDB
:10538000BD016D537E4F41E0480F941508F497C15D
:10539000809373035394CC0CDD1CEFEF2E1A3E0A5E
:1053A000FEE05F1284CFE9A1FAA13297F182E08298
:1053B00063942EE0820E911C35E063125ECF0E9452
:1053C000F90474C08091BC04843009F439C00E948F
:1053D00051168091A40381110DC00E945C1310929C
:1053E00011018091CA048370809310010E94AC1156
:1053F000E0921201F1E0F093A40310928D0428E1F1
:1054000030E00FB6F894A895209360000FBEF0929C
:10541000600083B7817F846083BF83B7816083BF6F
:105420007894889583B78E7F83BF0FB6F894A8953C
:1054300080916000886180936000109260000FBED0
:105440008091BB04882309F4F0CE0E94B619ECE5E4
:10545000F3E081919191892B09F01CC346E653E05A
:105460004E175F07B1F7E1CE2817390709F000CFD3
:105470000E9416058C0180914E0390914F030817EE
:105480001907A1F08FEF89838A831B820E9416057A
:105490008160782F9D838C8349815A816B818D81B6
:1054A0000E94FE2510934F0300934E030E94511655
:1054B00086E0EDE6F3E0DE01119601900D928A950B
:1054C000E1F710926F031092700310927103109223
:1054D00072038B819C81892B09F44AC080916B03F4
:1054E00090916C030E94EA049C01809167038823D9
:1054F00009F4F4C225313105D8F18F3F19F08F5FDF
:10550000809367031B81112359F00E940E0E9FEFB9
:1055100011160CF491E0899F802D112480936F0364
:105520001C81112359F00E940E0E9FEF11160CF4EE
:1055300091E0899F802D11248093700330916F0337
:105540003323B1F020917003222391F045EB340313
:10555000C0011124992309F4C8C090936F0355EB3F
:10556000250390011124332309F4C2C03093700342
:105570008D819E81892B09F44AC0809169039091A5
:105580006A030E94EA049C0180916603882309F45F
:10559000A0C221353105D8F18F3F19F08F5F80937C
:1055A00066031D81112359F00E94EC0D9FEF111627
:1055B0000CF491E0899F802D1124809371031E814A
:1055C000112359F00E94EC0D9FEF11160CF491E09D
:1055D000899F802D112480937203309171033323AE
:1055E000B1F020917203222391F045EB3403C00106
:1055F0001124992309F47FC09093710355EB25037F
:1056000090011124332309F479C03093720346E0EA
:1056100050E0BE016F5F7F4F8DE693E00E94632EE6
:10562000892B61F480916F0390917003892B909185
:105630007103892B90917203892B11F00E944D0DFB
:1056400086E0FE013196ADE6B3E001900D928A95B9
:10565000E1F70E94B00590915B03891721F08093D8
:105660005B030E94F9048091BC04843009F0D3CD1F
:1056700083E08093E9008091E80082FFCCCD8091A7
:10568000E80090E085FF05C00E9485038823C9F1EA
:1056900091E08091E8008B778093E800992309F4EA
:1056A000BACDE981E150E33108F0C5C0F0E0EE5534
:1056B000F04D0C94A72D8DA3442443941ECE90E06E
:1056C000FC01ED58FC4FD9015C915183DB015C91E9
:1056D0005187BDA1B18B880F991FFC01ED58FC4F7C
:1056E000128E118E842F91E04ECE70926F0337CFC1
:1056F000709270033DCF7092710380CF70927203ED
:1057000086CF00E210E0CE0101967C018091E80096
:1057100085FD0AC08091E8008B778093E8000E94A5
:105720008503882399F3B4CF8091F100D7018D933D
:105730007D010150110951F7ABCF1A828AE08B83AA
:1057400011C08A81823009F4BBC1833091F181306C
:1057500009F071C00E94F9040E94AD2D6B837C8317
:105760008D839E838091BC04843009F054CD1091C8
:10577000E9001F709091EC00892F817090FD80E806
:10578000182B82E08093E9008091E80080FF0DC033
:1057900050E040E060E270E0CE0101960E94B60366
:1057A0008091E8008E778093E8001F701093E900E5
:1057B00032CD80915C0390915D03982789279827CB
:1057C0009C838B8380915E0390915F039827892748
:1057D00098279E838D838091600390916103982721
:1057E0008927982798878F8380916203909163031C
:1057F0009827892798279A878987809164039091B1
:1058000065039827892798279C878B87ABCF8A8148
:10581000823089F42B813C814D815E8129A33AA39A
:105820004BA35CA3CA01B9010E94AD2D86E290E0B2
:105830000E94AD2E97CF8FEF898394CF4C816B81DF
:105840008A810E946C129827892798279E838D83CE
:1058500089CF2D813E813227232732274C816B81CE
:105860008A810E94E3117ECF0E940A127BCF8A8137
:10587000823899F1C0F48038F9F0813809F072CF9C
:1058800060E08B810E9458068B81811123C080913A
:10589000CA04837011F0109212018091CA048C7FA7
:1058A0008093CA045FCF833809F05CCF8B8120E0FE
:1058B0004091CD046C810AC04B8124EB429F412D65
:1058C00011248091CB0420E06091CC0490E00E94F0
:1058D000F60548CF0E948B0645CFEB818FE7E43079
:1058E00020F4F0E0EF59FE4F80818093CE043ACF50
:1058F0008A81823809F150F4803891F0813809F0BA
:1059000031CF8091CA048695869519CF833809F0E6
:1059100029CF8091CB048B838091CC048C8322CFC0
:105920008091CD043FEF839FC001112464EB70E0B0
:105930000E947F2D6B8316CF8091CE04873230F08A
:105940008F3530F08E3930F083E0F9CE80E0F7CE3D
:1059500081E0F5CE82E0F3CE0E94461603CF80E1CF
:105960008A8300CF7A8289EAEACE0A811B811027D6
:1059700001271027AE014F5F5F4F7A01CC80CA012B
:105980008C0D911D6C01C801895A9D4FEC14FD04CA
:1059900009F4E8CE093AA1E01A0750F40E94892ED2
:1059A000F70184830F5F1F4FBFEFEB1AFB0AEBCFAA
:1059B000D70114961C92F6CF0A811B81102701276C
:1059C0001027FE0131966F01EC80E00EF12EF11CE4
:1059D000C801895A9D4FE016F10609F4C3CE093A71
:1059E000F1E01F0728F4D60114966C910E94AD2EA9
:1059F000BFEFCB1ADB0A0F5F1F4FEACF0E94D31114
:105A0000B1CE84E0ADCF0A811B811027012710277A
:105A1000FE0131967F01CC809F012C0D311D690163
:105A2000C8018796EC14FD0409F49CCE003332E0E3
:105A3000130758F40E94892ED70114968C930F5F98
:105A40001F4FFFEFEF1AFF0AEBCFF7011482F7CFDA
:105A50000A811B811027012710279E012F5F3F4FCE
:105A60006901EC80E00EF12EF11CC80187960E153D
:105A70001F0509F477CE003332E0130728F4D6016E
:105A800014966C910E94AD2EBFEFCB1ADB0A0F5F0C
:105A90001F4FEBCF09BD19BD09B400FEFDCF8091AA
:105AA000D8008F7D8093D8008091E0008260809341
:105AB000E0008091E00081FDFCCF0E946A1AB5CB26
:105AC00086E290E00E94892E1B821C821D828E83BA
:105AD00049CE2B30310508F061CD99CD2B30310501
