:100000000C9441030C9479030C9479030C947903B8
:100010000C9479030C9479030C9479030C94790370
:100020000C9479030C9479030C9431270C94ED26ED
:100030000C942D280C9479030C9479030C94790377
:100040000C9479030C9479030C9479030C94790340
:100050000C9479030C9409280C9479030C9479037B
:100060000C9479030C9479030C9479030C94790320
:100070000C9479030C9479030C9479030C94790310
:100080000C9479030C9479030C9479030C94790300
:100090000C9479030C9479030C9479030C947903F0
:1000A0000C9479030C9479030C94790305010902EB
:1000B000A10185020901A1000509190129081500FE
:1000C0002501950875018102050109300931158165
:1000D000257F95027508810609381581257F9501D0
:1000E00075088106050C0A38021581257F95017572
:1000F000088106C0C005010980A101850319012AF4
:10010000B700150126B700950175108100C0050CD8
:100110000901A101850419012AA002150126A002E6
:10012000950175108100C005010906A1018506052C
:100130000719E029E71500250195087501810205D9
:1001400007190029EF1500250195F07501810205B9
:10015000081901290595057501910295017503910D
:1001600001C00660FF0961A1010962150026FF00B8
:100170009520750881020963150026FF00952075FA
:10018000089102C005010906A101050719E029E748
:1001900015002501950875018102950175088101F9
:1001A0000507190029FF150026FF0095067508812F
:1001B000000508190129059505750191029501753C
:1001C000039101C0000000000000000000000000DA
:1001D000000000000000000000000000000000001F
:1001E00000000000000000007E0F00D4FFFFFFC7EA
:1001F0000000007800000000000000002A2B28000A
:1002000000000000000000000000000000000029C5
:10021000000000002C1E3420212224342627252E05
:10022000362D3738271E1F2021222324252633333D
:10023000362E37381F0405060708090A0B0C0D0E69
:100240000F101112131415161718191A1B1C1D2F35
:100250003130232D350405060708090A0B0C0D0E55
:100260000F101112131415161718191A1B1C1D2F15
:100270003130354C69646F62616F2F696436373A8B
:1002800069646F62616F202876302E31362E392DE9
:100290003134312D67653365373230290000010173
:1002A0000101010101010102020202020202020235
:1002B0000303030303030303040404040404040505
:1002C00005050505060606060607070707070808C9
:1002D0000808090909090A0A0A0B0B0B0C0C0C0D7A
:1002E0000D0D0E0E0E0F0F0F101011111112121313
:1002F000131414151516161717181819191A1A1B8E
:100300001B1C1D1D1E1E1F202021222223242425EC
:100310002626272829292A2B2C2D2D2E2F30313225
:1003200032333435363738393A3B3C3D3E3F404135
:1003300042434445464748494A4C4D4E4F5051531D
:1003400054555658595A5B5D5E5F616264656668D4
:10035000696B6C6D6F7072737577787A7B7D7E8058
:1003600082838587888A8C8E8F91939596989A9CA4
:100370009EA0A2A3A5A7A9ABADAFB1B3B5B7BABCB8
:10038000BEC0C2C4C6C9CBCDCFD1D4D6D8DBDDDF89
:10039000E2E4E7E9EBEEF0F3F5F8FAFDFF29001EE1
:1003A000001F002000210022002300240025002639
:1003B0000027002D002E002A0035022B0014001A01
:1003C000000800150017001C0018000C0012001394
:1003D000002F00300031004C0039410400160007A6
:1003E0000009000A000B000D000E000F003300345E
:1003F00000000028004B00E10000001D001B00066B
:10040000001900050011001000360037003800E523
:100410000052004E00E000E3000000E20000000097
:10042000002C0000000000000001517642500051F5
:10043000004F0035003A003B003C003D003E003FCD
:10044000004000410042004300440045000100011B
:10045000000100C25C5200C35CC55CC65CC75CC8DE
:100460005CC95CCA5C0100835F825F0100010039E6
:1004700000500051004F0001000100010001000187
:100480000049004A004B000000010001000100008B
:1004900000005CCB5CCC5C895FAA00A800A9004C82
:1004A000004D004E000100010001000100010000AC
:1004B0000001000000000001000000000000000139
:1004C0000001000100010001000100010001000124
:1004D0000001000100010001000100010001000114
:1004E0000001000100010001000100010001000104
:1004F00000010001000100010001000100010001F4
:1005000000010001000100010001000100010001E3
:1005100000010001000100010001000100000001D4
:1005200000010001000000010001000100010001C4
:1005300000010001000100010001000100010001B3
:1005400000010001000000010000000000010000A7
:100550000000000000010001000100010001000195
:100560000001000100010001000100010001000183
:100570000001000100010001000100010001000173
:100580000001000100010001000100010001000163
:100590000001000100010001000100010001000153
:1005A0000001000100010001000100010001000143
:1005B0000001000000010001000100000001000135
:1005C0000001000100010001000100010001000123
:1005D0000001000100010001000100000001000015
:1005E0000000000100000000000000010001000107
:1005F000000100010009025B00030100A0FA0904E8
:100600000000010301010009211101000122400045
:10061000070581030800010904010002030000002E
:100620000921110100012222000705820320000197
:100630000705030320000109040200010300000074
:1006400009211101000122B60007058403200001E1
:100650001201000200000008646967020002010242
:1006600000010A03490044003600370000000E0371
:10067000490044004F00420041004F0000000403C5
:10068000090411241FBECFEFDAE0DEBFCDBF04B6F0
:1006900003FE18C08091080590910905A0910A05F4
:1006A000B0910B058730904BA740B04B59F4109296
:1006B00008051092090510920A0510920B05E0E05A
:1006C000F8E3099525E0AAEAB2E001C01D92A8303E
:1006D000B207E1F712E0A0E0B1E0E6E7FFE502C013
:1006E00005900D92AA3AB107D9F70E9454280C94AC
:1006F0003A2F0C940000E8EDF0E080818E7F80833B
:100700001092E2001092DA001092E100A0EEB0E048
:100710008C9181608C9380818F77808319BCA7ED49
:10072000B0E08C918E7F8C9380818F7E808310923D
:10073000A20408952091E4003091E50095E6A90116
:100740002091EC00822F817020FF06C08091E8008C
:1007500080FF06C080E008952091E80022FD1AC0C5
:100760008091C704882389F0853089F08091EB005F
:1007700085FD0FC02091E4003091E500421753073A
:10078000F9F29150E1F684E0089582E0089583E063
:10079000089581E00895EF92FF920F931F93CF93F6
:1007A0007C018B010E949A03C82F811117C0809190
:1007B000E80085FD0BC08091E8008E778093E8000B
:1007C0000E949A03882399F3C82F08C0F7018191EA
:1007D0007F018093F1000150110949F78C2FCF91CF
:1007E0001F910F91FF90EF9008958091C90487FFAA
:1007F00013C08091E80082FF06C08091E8008B77EB
:100800008093E80004C08091C7048111F2CF08955D
:100810008091C7048823D9F38091E80080FFF8CF46
:100820008091E8008E77ECCF982F9093E900242FE9
:10083000762F50E0891731F07091EC002091ED0097
:100840005091F00021FD07C09F5F973071F78093B2
:10085000E90081E008953091EB003E7F3093EB009A
:100860003091ED003D7F3093ED003091EB00316031
:100870003093EB007093EC002093ED005093F00068
:100880002091EE0027FDE0CF80E00895CF92DF9227
:10089000EF92FF920F931F93CF93DF93C8EDD0E0B9
:1008A00088818F7E8883E7EDF0E08081816080839E
:1008B00084E082BF81E08093A20488818E7F888358
:1008C00002EE10E0F80110821092DA0081EEC82EDC
:1008D000D12CF601108288818F7788838881806887
:1008E000888388818F7D888319BC1092C7041092F9
:1008F000C8041092C6041092C50490EEE92EF12CA3
:10090000F70180818B7F808388818160888342E0CA
:1009100060E080E00E941404F60180818E7F808375
:10092000F801808181608083808188608083F70105
:1009300080818E7F8083888180618883DF91CF91E1
:100940001F910F91FF90EF90DF90CF900895FC01E1
:10095000CB012091CF043091D0042617370790F0B7
:10096000009729F42091E8002E772093E80040E0DA
:10097000009751F4411108C08091E80082FF31C016
:1009800080E00895C901F3CF2091C7042223A9F183
:100990002530A9F12091E80023FD2DC02091E80029
:1009A00022FDEACF2091E80020FFE2CF3091F30052
:1009B0002091F200009719F02830310558F041E0FD
:1009C0002830310509F040E02091E8002E7720938F
:1009D000E800CECF41914093F10001972F5F3F4F48
:1009E000E9CF8091C704882341F0853041F08091A0
:1009F000E80083FFC1CF81E0089582E0089583E09D
:100A0000089508958091A40408959C014FB7F89427
:100A10008091990490919A04A0919B04B0919C04B8
:100A20004FBF821B930B08952FB7F89480919904C0
:100A300090919A04A0919B04B0919C042FBF0895BB
:100A40009C01809113018823C9F080919D0487FF48
:100A500015C0E62FE695E695E695603FE0F4E20FD7
:100A6000F32FF11D677081E090E001C0880F6A9557
:100A7000EAF780959281892382830895F90132965D
:100A8000285F3F4F8191681303C0DF0111971C92CB
:100A9000E217F307B9F708959C01809113018823A9
:100AA000C1F080919D0487FF14C0E62FE695E6957E
:100AB000E695603FF8F4E20FF32FF11D677021E037
:100AC00030E001C0220F6A95EAF78281822B82838F
:100AD0000895F90132968FEF90E04191641751F03B
:100AE0008F3F19F4411101C0892F9F5F9630A9F7FC
:100AF0008F3F09F40895280F311D87FD3A95F901BC
:100B0000628308952091960430919704281739073D
:100B100071F09093970480939604E0919404F0917F
:100B20009504309721F00084F185E02D0994089513
:100B300020919204309193042817390771F0909313
:100B4000930480939204E0919404F091950430977B
:100B500021F00680F781E02D09940895E091940436
:100B6000F0919504309721F00190F081E02D0994E7
:100B700080E00895FA0181110994FB01FDCFEBEAB1
:100B8000F3E0818360834283339694E0E239F9078E
:100B9000C1F70895FC01EE0FFF1FE80FF91FE5559F
:100BA000FC4F6183408322830895E5EDF4E02481C6
:100BB00030E1231B08F420E024838091AA038160A4
:100BC0008093AA030895E5EDF4E0248130E1230F3A
:100BD00008F42FEF24838091AA0381608093AA03F5
:100BE0000895922F2091D504237071F08093D6043C
:100BF0006093D704453B08F044EB4093D804209120
:100C0000AA03292B2093AA030895E5EDF4E043817C
:100C100020E1421B08F440E0818121E0628190E004
:100C20000C94F105E5EDF4E0438120E1420F08F476
:100C30004FEF818121E0628190E00C94F105E5EDB8
:100C4000F4E0628120E1621B08F460E0818121E030
:100C5000438190E00C94F105E5EDF4E0628120E140
:100C6000620F08F46FEF818121E0438190E00C94E2
:100C7000F105E5EDF4E0818121E043816281885056
:100C8000990B0C94F105E5EDF4E0818190E021E011
:100C90004381628108960C94F105262F9091D5042A
:100CA000937061F081110BC094609093D504109201
:100CB00012016091AA03622B6093AA0308958832FF
:100CC00010F09C69F2CF880F880F982BEECF90918F
:100CD000D504969596958FEF890F913009F487E2A8
:100CE00061E00C944D068091D504869586958F5FC2
:100CF000883208F081E061E00C944D068091D504C3
:100D0000837011F4109212018091D5048C7F816060
:100D10008093D5040895EF92FF920F93282FC70177
:100D2000801B91098F3F910519F010F08FEF90E033
:100D30008095382F230F08F42FEF822F0F91FF900B
:100D4000EF900895EF92FF920F93282FC701801B19
:100D500091098F3F910519F010F08FEF90E0382F37
:100D60003095230F08F42FEF680F822F0F91FF901B
:100D7000EF900895EF92FF920F93972FFA01B90128
:100D80009701093430F4201B31092F3F310519F048
:100D900010F02FEF30E03896719740F0AB01485FCC
:100DA0005F4F4131510510F02FEF30E02095382F83
:100DB000320F08F43FEF77FF02C06D5F7F4F7595EC
:100DC0006795759567958091D604680F792F832F65
:100DD0000F91FF90EF900895EF92FF920F931F9362
:100DE000E00EF11C890137FF03C01195019511092F
:100DF00024E0000F111F2A95E1F70F3F110519F0AC
:100E000014F00FEF10E09A0157FF03C031952195C0
:100E1000310994E0220F331F9A95E1F7201731072B
:100E20000CF489010E0D1F1D0F3F110519F010F074
:100E30000FEF10E00095282F200F08F42FEF822FDE
:100E40001F910F91FF90EF900895EF92FF920F93F3
:100E5000282FC70135E0039F800D911D11248F3F7E
:100E6000910519F010F08FEF90E08095382F230F47
:100E700008F42FEF822F0F91FF90EF90089522E852
:100E8000241B08F420E0620F08954095282F429F0C
:100E9000412D1124842F0895E42FF0E0EE0FFF1F61
:100EA000EE53FE4F9081921B97FD9195292F38E1CB
:100EB000239F212D1124620F08950F931F93522F0A
:100EC00010E0F801EE0FFF1FEE53FE4F9081905798
:100ED00097FD9195000F111FF801ED53FE4F008112
:100EE0000052110B50039001519F300D112408E363
:100EF00010E0091B110997FD13954003F001419F74
:100F0000F00D1124E20FF31F9F01220F331F2E0F4C
:100F10003F1F37FF02C021583F4F220F232F221FB0
:100F2000330B620F1F910F9108950F931F93522F50
:100F300010E0F801EE0FFF1FED53FE4FA081A0520D
:100F4000BB0B9D015203F001539FF00D1124000FC4
:100F5000111FD801AE53BE4F0C910057110B400327
:100F60009001419F300D11242E0F3F1F37FF02C00B
:100F7000215C3F4F96E0359527959A95E1F7620FF2
:100F80001F910F9108950F931F93522F10E0F801B6
:100F9000EE0FFF1FED53FE4FA081A052BB0B9D0132
:100FA0005203F001539FF00D1124000F111FD801BF
:100FB000AE53BE4F0C910057110B40039001419F5F
:100FC000300D11242E0F3F1F37FF02C021583F4F15
:100FD000220F232F221F330B620F1F910F910895B1
:100FE000EF920F93972F23E0029FB0011124759584
:100FF00067956E0D792F0F91EF900895322F50E085
:10100000FA01EE0FFF1FED53FE4F9081905297FDB6
:101010009195440F551FFA01EE53FE4F2081231B7B
:10102000330B290F311D97FD3A95620F0895E42F78
:10103000F0E0EE0FFF1FED53FE4F6081621B08953D
:10104000E42FF0E0EE0FFF1FEE53FE4F6081621BB6
:101050000895622F0895582FA22FE42FF0E0EE0F8D
:10106000FF1FEE53FE4F208134EE239F212D1124CC
:1010700090E030E0245E3F4F2A1B310937FF03C068
:1010800031952195310943E0220F331F4A95E1F74D
:10109000821B930B97FD80E0282F259F212D112483
:1010A000822F08951F93172F922FE42FF0E0EE0F59
:1010B000FF1FEE53FE4F208134EE239F212D11247C
:1010C000472F50E030E0245E3F4F291B310937FFA6
:1010D00003C031952195310993E0220F331F9A9572
:1010E000E1F7421B530B57FD40E0742F719F712DA8
:1010F00011241F9108950C94BF050C94CA05FC019E
:101100009B01009729F480E077FF2BC080E80895C9
:10111000AC0197FF04C044275527481B590BB90160
:10112000640F751F37FD10C0241B350BC901A5E0E6
:10113000880F991FAA95E1F70E94D02D80E2861BA7
:10114000F7FF0FC081950895CB0165E0880F991FC7
:101150006A95E1F7BA01621B730B0E94D02D80E6FD
:10116000EECF0895EF920F93CF93DF93D72FC82F31
:10117000BA01C9010E190E947F08602F681B7D2FDC
:101180008C2FDF91CF910F91EF9008950F93CF9314
:10119000DF93D72FC82FBA01C9010E947F08682F9B
:1011A000600F7D2F8C2FDF91CF910F910895EF92DB
:1011B0000F931F93CF93DF93D62FC72F182FBA010A
:1011C000C9010E19010F0E947F08081B019F012D04
:1011D00011246D2F7C2F802FDF91CF911F910F91C4
:1011E000EF900895EF920F931F93CF93DF93D62F35
:1011F000172FC82FBA01C9010E19010F0E947F08CD
:10120000702F781B719F712D11246D2F8C2FDF9102
:10121000CF911F910F91EF9008950F931F93CF934C
:10122000DF93D62FC72F182FBA01C901212F201BFA
:10123000022F0E947F08982F990F990F282F291BA2
:10124000200F219F212D11246D2F7C2F822FDF91C4
:10125000CF911F910F9108950F931F93CF93DF9319
:10126000D62F172FC82FBA01C901212F201B022FFB
:101270000E947F08982F990F990F782F791B700F74
:10128000719F712D11246D2F8C2FDF91CF911F91A4
:101290000F910895982FE82F96FDE0952E2F2F702F
:1012A00096FD2F5FE695E695E695E670F0E0E05A4C
:1012B000FE4F8181829F802D212D112482958F7078
:1012C0002295207F822B2081820F97FD8195805867
:1012D00008950F931F93CF93DF938B01D82FC42FC3
:1012E000822F0E944A09EC2FF0E0EE0FFF1FEE5311
:1012F000FE4F90819058980F97FD9195990F692F07
:101300002CE0629F612D1124600F712F8D2FDF91D2
:10131000CF911F910F9108959C018230910508F49F
:1013200008959FEF213E8EE1380740F4C90145E062
:10133000969587954A95E1F798E0980F61E0E62F3A
:10134000E90FFF27FF1FAF0155954795842F449F55
:10135000F001459FF00DF00D11242E173F0738F4D2
:101360009FEF940F961758F78FEF860F08954F3F12
:10137000E9F361E0640FF6CF0F93CF93DF93D72F9C
:10138000C82FF90147FD419528E330E0241B3109BE
:1013900047FD3395229FA001239F500D500D11242E
:1013A000EE9FC001EF9F900D900D1124840F951FAB
:1013B0000E948C09982F990F692F680F600F7D2F5D
:1013C0008C2FDF91CF910F9108959C0190E080E0E8
:1013D000269F812D369F800D911D11240895AF9277
:1013E000BF92CF92DF92EF92FF920F931F93CF9312
:1013F000DF93262F472FE82FF0E0E356FD4F7111C2
:101400000FC06491862FE62F7E2FDF91CF911F9121
:101410000F91FF90EF90DF90CF90BF90AF90089525
:10142000E72EF12CE49186E0689F80011124CFEF34
:10143000D0E0C801BE010E94BC2DDB0130E0220FCC
:10144000331F55E5569FC001579F900D1124281B4F
:10145000390B622F660F260FCE018E199F09E89F68
:101460006001E99FD00C11246D2D429FA001112431
:10147000452F5527CE01841B950BE89FA001E99FBE
:10148000500D1124852F5E01A21AB108AE9C900167
:10149000AF9C300DBE9C300D1124232F3327C21B6F
:1014A000D30BEC9F9001ED9F300D1124A330B105BB
:1014B000B1F00C3F93E0190760F4A130B10599F049
:1014C0001297A9F00F3F110508F09ECF8D2D632FC5
:1014D0009BCFA430B10571F01697C1F395CF652F5E
:1014E0008E2FED2D91CF6E2FE52F8D2D8DCF832F4C
:1014F0006E2FF7CF8E2FE32F87CF2F923F924F92F1
:101500005F926F927F928F929F92AF92BF92CF9293
:10151000DF92EF92FF920F931F93CF93DF93CDB79C
:10152000DEB729970FB6F894DEBF0FBECDBF282EC9
:101530006A837B83209114012295207F2E83205F74
:1015400029832C832E3410F03DE43C838091DB040E
:101550008D83FE81EF2FF0E0F987E887CF01880FB8
:10156000991F9C012E533E4F6901822D90E0FC0192
:101570003196FF83EE838C8198859817F0F081E097
:10158000E981ED3408F080E029960FB6F894DEBFCB
:101590000FBECDBFDF91CF911F910F91FF90EF90C4
:1015A000DF90CF90BF90AF909F908F907F906F9083
:1015B0005F904F903F902F900895E885F985E45A09
:1015C000FD4F8081909115018923F1F04090D60460
:1015D0005090D7042E813F8125523B4F3901322C48
:1015E00010E0FD813F16D0F02091D804129F112DFC
:1015F0001124B201812F0E94EF09462F672F282F57
:10160000888599850E947D08288539852F5F3F4F01
:101610003987288732E0C30ED11CADCFF301819109
:101620003F01F601A080A81ABB088180F3018781E1
:10163000881A9908AA9C9001AB9C300D300D11249A
:10164000889CC001899C900D900D1124820F931FDE
:101650000E948C09082F6091D90421E0620F08F4E0
:101660006FEFF301EE0FFF1FEB5DF4408589968964
:101670000E94E5097C019401A501B201812FEA8154
:10168000FB8109952B01182F3394ABCFCF92DF92BA
:10169000EF92FF920F931F93CF93DF938C01C09132
:1016A0001401C295C07F20E1D22EDC0ECD2C2DE49A
:1016B0002D1510F49DE4C92E2091D90431E0230F9B
:1016C00008F42FEF30E050E040E06FEF7FEF80E074
:1016D00090E00E94D72E7901D0E02C2FCC1570F02D
:1016E00081E0FCE4FD1508F480E0DF91CF911F91CB
:1016F0000F91FF90EF90DF90CF900895FE01E45A94
:10170000FD4F808190911501892311F14091DB04F7
:101710004150042E000C550B47FF1CC0C7016091BF
:10172000D90421E0620F08F46FEF0E94E509AC01D3
:101730006091D6047091D7048091D804F80109957E
:101740000E94EF09462F672F282FCE010E947D08A7
:101750002196C3CFFA01E552FB4F818982130AC05B
:10176000FA01EE0FFF1FE552FB4F818D928D8E1512
:101770009F05A8F241505109CFCFDF92EF92FF921F
:101780000F931F93CF93DF937C01C0911401C295F7
:10179000C07F10E11C0FD12E1E3410F08DE4D82E26
:1017A0006091D9046695669521E0620F08F46FEFA9
:1017B0008091D1049091D2040E94E509082FD0E0D5
:1017C000CD1560F081E01D3408F080E0DF91CF910D
:1017D0001F910F91FF90EF90DF900895FE01E45A62
:1017E000FD4F808190911501892391F06091D6047D
:1017F0007091D7048091D804202F4C2FF7010995C0
:101800000E94EF09462F672F282FCE010E947D08E6
:101810002196D6CFBF92CF92DF92EF92FF920F9395
:101820001F93CF93DF9300D000D00F92CDB7DEB7D8
:101830006C01809114018295807F8B8390E1F92E59
:10184000F80EBF2C9DE49F1510F48DE4B82E609126
:10185000D904669566958091D1049091D2040E9436
:10186000E509182F80E4810F0E944A098058898376
:10187000812F0E944A0980588A83FB81EF2FF0E074
:10188000FD83EC839C819B15A0F081E0ECE4EF15D7
:1018900008F480E00F900F900F900F900F90DF9161
:1018A000CF911F910F91FF90EF90DF90CF90BF905D
:1018B0000895EC81FD81E45AFD4F808190911501DE
:1018C0008923A9F06091D6047091D7048091D8043F
:1018D000E12E0C812A814981F60109950E94EF09C8
:1018E000462F672F282F8C819D810E947D088C8137
:1018F0009D8101969D838C83C5CF7F928F929F920D
:10190000AF92BF92CF92DF92EF92FF920F931F930D
:10191000CF93DF934C01C0911401C295C07F10E1B9
:101920001C0F712E1E3410F09DE4792E6091D904A5
:1019300066958091D1049091D2040E94E509F82E19
:10194000D0E0C71590F081E01D3408F080E0DF9111
:10195000CF911F910F91FF90EF90DF90CF90BF90AC
:10196000AF909F908F907F900895FE01E45AFD4FB5
:101970008081909115018923B9F19E01220F331FB7
:10198000F901EE53FE4F8081482F4057550B6A01F5
:101990002D533E4FF9018081282F2052330B5901DE
:1019A000449F9001459F300D300D1124AA9CC00129
:1019B000AB9C900D900D1124820F931F0E948C09F7
:1019C000082F6091D6047091D7048091D804EF2C31
:1019D0009501A601F40109950E94EF09462F672F92
:1019E000282FCE010E947D082196ABCFCF92DF92A7
:1019F000EF92FF920F931F93CF93DF937C01C091DF
:101A00001401C295C07F10E11C0FC12E1E3410F0CE
:101A10009DE4C92E6091D90466958091D10490917E
:101A2000D2040E94E509D82ED0E0CC1568F081E000
:101A30001D3408F080E0DF91CF911F910F91FF904E
:101A4000EF90DF90CF900895FE01E45AFD4F808122
:101A500090911501892301F1AE01440F551FFA0140
:101A6000ED53FE4F20812052330B4E535E4FFA014F
:101A700040814057550B6091D6047091D7048091F6
:101A8000D8040D2DF70109950E94EF09462F672F05
:101A9000282FCE010E947D082196C7CF0E941405F1
:101AA0002091740330917503232B21F080937003F0
:101AB000909371032091760330917703232B21F0CB
:101AC00080936E0390936F03E0919404F0919504DA
:101AD000309749F082E0809372030480F581E02D15
:101AE00082E793E00994089540917403803F59F48C
:101AF0008091750387FF0DC01092750341110BC0D3
:101B000010926C0308C0813F81F480917503181610
:101B10009CF3442381F08091760390917703892B85
:101B200009F05AC010926B030895823F49F447FFB1
:101B3000F0CF10927403809175038111ECCFE0CF48
:101B4000833F19F41416ACF3E4CF90917603893FE8
:101B500029F41916F4F610927603DBCF8A3F19F4B4
:101B600097FFD7CFF8CF909177038B3F29F497FF5A
:101B7000D0CF10927703CDCF8C3F19F41916CCF348
:101B8000C8CF9CE0980F953090F4845F990B21E0CA
:101B900030E0B90102C0660F771F8A95E2F7CB01EA
:101BA000809590917303892380937303B2CF8D3F07
:101BB00031F480916D038E7F80936D03AACF8E3FA9
:101BC00021F480916D038D7FF7CF8F3F09F0A1CF76
:101BD00080916D038B7FF0CF089580916D0380FD20
:101BE00016C081FD16C082FD16C080916B0388234C
:101BF000A1F0883280F428E0829FC001112468E2BD
:101C000070E00E94D02D862F672B39F0089582E076
:101C1000089584E0089588E0089581E00895809112
:101C20006D0380FD14C081FD14C082FD16C080913B
:101C30006C03882381F08E3180F420E5829FC001FF
:101C400011246EE170E00E94D02D862F089584E16A
:101C5000089588E2089588E0089580E50895803F1A
:101C600031F40E940F0E8195809375030895813F92
:101C700019F40E940F0EF8CF823F31F40E940F0E2C
:101C80008195809374030895833F19F40E940F0E89
:101C9000F8CF893F29F40E94ED0D809376030895D3
:101CA0008A3F21F40E94ED0D8195F7CF8B3F31F4EF
:101CB0000E94ED0D81958093770308958C3F19F470
:101CC0000E94ED0DF8CF9CE0980F953070F4845F82
:101CD000990B21E030E001C0220F8A95EAF780914C
:101CE0007303822B8093730308958D3F31F48091A9
:101CF0006D03816080936D0308958E3F21F4809180
:101D00006D038260F7CF8F3FB9F780916D038460D8
:101D1000F1CF80E00895F894E82FE295EF70F0E0BD
:101D200041A18F7021E030E0B90102C0660F771F3A
:101D30008A95E2F7CB01962F9095942391A392A1D7
:101D4000892B82A37894089590919D0492FF06C0F8
:101D5000282F28712830F9F4877F846093FF06C00C
:101D6000282F28712831F1F4877E846120919E0408
:101D700020FF06C0382F38713830D9F4877F816052
:101D800021FF06C0282F28712831D1F4877E816178
:101D900094FD877E0895282F24712430F9F68B7FD7
:101DA0008860DCCF282F2471243101F78B7E886175
:101DB000DDCF382F3171313019F78E7F8860E0CF59
:101DC000282F2171213121F78E7E8861E1CFCF93B9
:101DD000DF93EC01803E910509F460C050F581333A
:101DE000910509F4A6C090F48932910509F49AC0CE
:101DF0008A9709F4A5C0C130D10509F462C0CE01AB
:101E00000497813A910508F055C05BC0893391056C
:101E1000F1F182389105D9F1C59709F47CC0C83A2F
:101E2000D10508F094C0C53AD10528F3A497D06431
:101E300048C0843E910509F453C068F4823E910580
:101E4000E1F1833E910509F440C0CE01805E910925
:101E5000089780F536C0863E910509F44CC0873E50
:101E6000910509F44DC0811522E5920708F0AAC03A
:101E7000811531E5930708F0FAC08F3F910511F005
:101E800008F074C0803F910550F2D0651AC080916F
:101E90009D048370B1F0C0EED0E013C080919D042A
:101EA00080FD12C190919E0490FF0BC0C3EED0E064
:101EB00084FF07C0D0E0C0E004C080919D0482FD93
:101EC000F5CFCE01DF91CF91089580919D0482FDE1
:101ED000FEC090919E0490FDDECF84FFF2CFEACF4A
:101EE00080919E0481FFEDCF80919D04C7EED0E0EC
:101EF00084FDE0CFE6CF80919D0483FDF7CFE1CF55
:101F000080919D0483FDE6C090919E0491FFE5CFF2
:101F1000C4EED0E0D6CF80919D0485FFD2CFC9E238
:101F2000D0E0CFCF80919D0485FFCBCFC5E3D0E03B
:101F3000C8CF80919D0486FFC4CFCAE2D0E0C1CF54
:101F400080919D0486FFBDCFC1E3D0E0BACFCF3BE7
:101F5000D10508F07ACFC85AD0E0CC0FDD1FC25EA1
:101F6000DE4F0990D881C02DD464ABCF811540E5F8
:101F7000940760F4C11580E4D80708F075C0CE015D
:101F80009A9581159F4108F49CCF94CFF4E09695E3
:101F90008795FA95E1F783702C2F26952695237067
:101FA00040E2249F90011124382B8C2F8370C1E0D4
:101FB000D0E002C0CC0FDD1F8A95E2F7C22BD32BF5
:101FC000DC687FCFC11586E5D80730F5C11595E5EA
:101FD000D90708F060C0C11524E5D207C0F49C2FD2
:101FE000969596959E0123703327C115D34508F029
:101FF00043C0C1E0D0E002C0CC0FDD1F2A95E2F75C
:1020000020E2929FC0011124C82BD92BD9CFDC2FFD
:10201000CC27C46FD06A55CFC1153AE5D30788F4F1
:10202000C11549E5D40708F041C0CE0198558F3F4E
:10203000910511F008F03ECFDC2FCC27C06FD06A9D
:1020400040CFCE0190568115904208F033CF8D2FAE
:102050008F710E94A40E90E0982F882788279F7187
:102060009C012C2BE90120C0DF70D06A2ACFD82F29
:10207000CC27C16FD06A25CFC1E0D0E002C0CC0F21
:10208000DD1F2A95E2F730E2939FC0011124C82B8F
:10209000D92BDA6816CF8C2F0E94A40EC82FD0E05F
:1020A000DC2FCC27CC27DF71D0620BCF8C2F8F7029
:1020B0000E94A40E34E0D695C7953A95E1F7CF700B
:1020C000DC2FC82FD069FDCEC9E3D0E0FACEC2EE36
:1020D000D0E0F7CEC6EED0E0F4CE80914603811179
:1020E000109246030895982F909580914503892377
:1020F000809345030895809122039091F1029813F3
:1021000001C008958F5F8770FACFE82F2FE0929F6C
:10211000E00D11249E2F9770E695E695E69583E0F5
:10212000E89FF0011124E353FD4F50E040E080E0D0
:10213000219130E0092E02C0369527950A94E2F7E6
:1021400021703327042E01C0220F0A94EAF7822B54
:102150004F5F5F4F4330510559F70895E82F2FE047
:10216000929FE00D11248E2F877041E001C0440F33
:102170008A95EAF7E695E695E69583E0E89FF00113
:102180001124E353FD4F30E020E070E05191DF0176
:102190001197CB01022E02C0969587950A94E2F71B
:1021A000817081958527842385278C932F5F3F4FEE
:1021B0002330310559F7089580939F047093A1044B
:1021C0006093A0048091C7048430F9F48093E900FF
:1021D0008FEF9091E800815095FD06C095ED9A959E
:1021E000F1F700008111F5CF8091E80085FF0DC067
:1021F00050E040E063E070E08FE994E00E94CB03A0
:102200008091E8008E778093E8000895BC0184E017
:102210000C94DC10BC0183E00C94DC1024E02093CF
:10222000E9002FEF3091E800215035FD06C035ED73
:102230003A95F1F700002111F5CF2091E80025FF34
:102240000BC050E040E066E070E00E94CB0380915C
:10225000E8008E778093E8000895CF93DF93D82F1E
:10226000C92F809113018823C1F180919D0487FFBC
:1022700034C060E284E08093E9008FEF9091E80041
:10228000815095FD06C095ED9A95F1F700008111FA
:10229000F5CF8091E80085FF1DC08091130170E0AB
:1022A00050E040E0811104C050E040E068E070E0A0
:1022B0008D2F9C2F0E94CB038091E8008E77809316
:1022C000E80080E2ED2FFC2FA5EAB4E001900D922A
:1022D0008A95E1F7DF91CF91089568E081E0CBCF57
:1022E00081E08093E00080E28093D8001092C900E2
:1022F0008FE19EE40197F1F700C0000087E090EBCA
:10230000DC018093080590930905A0930A05B0931A
:102310000B0588E19CE00FB6F894A89580936000C7
:102320000FBE90936000FFCF809A31B33E7F21B300
:1023300021604FB7F8948BEA93E0FC01019650813D
:1023400068E021BB000000C057FF31BB550F000003
:1023500000C000C000C031BB00C06A9591F754E0D6
:102360008239950751F74FBF8FE594E00197F1F758
:1023700000C000000895CF93DF93CFE7D2E060E084
:10238000CE010E94B32E2196C11584E0D807B9F77B
:10239000DF91CF9108956F927F928F929F92AF922B
:1023A000BF92CF92DF92EF92FF920F931F93CF9342
:1023B000DF93D12CC12C3BEDA32EB12CE501C659E6
:1023C000D10936011BC0F70185909490692DC80191
:1023D0000E94B32E682DC80101960E94B32E22E000
:1023E000E20EF11C0E5F1F4FC017D10761F73FE0EF
:1023F000630E711C6E96CA15DB0559F0C301880F78
:10240000991F9C0123563C4F79018E010E511109F1
:10241000DACFCE018A569F4F5C019BE4C90ED11CD6
:10242000CD39D24059F6DF91CF911F910F91FF9096
:10243000EF90DF90CF90BF90AF909F908F907F9064
:102440006F900895CF93C82F6FEF811162E283E2FE
:1024500090E00E94B32E6FEFC11165E084E290E03E
:102460000E94B32E6FEFC11165E185E290E0CF913C
:102470000C94B32E80E00E94221260E086E290E08D
:102480000E94B32E0E94CB110E94BB1181E00C94DC
:1024900022120F931F93CF93DF93C42FD0E0CC0F62
:1024A000DD1F2EE1629FC00DD11D112436E9839FEF
:1024B000C00DD11D1124CE0187960E948F2E082FAA
:1024C00010E0102F0027CE0188960E948F2E9801D1
:1024D000282BC901DF91CF911F910F910895462FAD
:1024E000672F843030F4753020F44F3010F40C94A2
:1024F000491290E080E00895DF92EF92FF920F93EF
:102500001F93CF93DF937C010091070580914703D0
:10251000082BC7E0D0E010E0DC2EC8010C2E02C072
:10252000959587950A94E2F780FD0CC02197A0F756
:10253000D12C8D2DDF91CF911F910F91FF90EF90B6
:10254000DF900895B7018C2F0E946F120E94E70E52
:10255000019761F3EECFCF93DF93D82FC92F0E945D
:102560007C126D2F7C2F0E946F12DF91CF910C9403
:10257000E70EFC01808191810E94AB12282F929579
:102580009F70963091F060F4925F9F70923030F4BB
:1025900081E0203F81F030F4283E30F080E0089563
:1025A0009A5FF3CF243FD1F7089581E0283EE0F30E
:1025B000213FA1F7F9CF089583E290E00E948F2E8A
:1025C000823289F484E290E00E948F2E853059F4A3
:1025D00085E290E00E948F2E91E0853109F090E035
:1025E000892F8170089580E0FCCFCF9384E090E044
:1025F0000E948F2EC82F82E290E00E948F2E982F8B
:102600008C2FCF9108951F93CF93DF93EC01FC01A2
:10261000E45AFD4F80816823C9F00E94592E182F7B
:102620000E94592E782F7F7720E8720F08F47FEFF1
:10263000612F8091D8040E94EF09462F672F282F21
:10264000CE01DF91CF911F910C947D08DF91CF9146
:102650001F910895DF92EF92FF920F931F93CF93F4
:10266000DF93EC01FC01E45AFD4F8081682381F186
:10267000D090D7040091D8041091D604E12EF12C0B
:102680000E94592E282FC7018C549F4F68E671E095
:102690000E94D02D8E199F0997FD039695958795D9
:1026A000959587952370612F289F600D11247D2DAE
:1026B000802F0E94EF09462F672F282FCE01DF9130
:1026C000CF911F910F91FF90EF90DF900C947D08B8
:1026D000DF91CF911F910F91FF90EF90DF900895C0
:1026E0009F92AF92BF92CF92DF92EF92FF920F93A1
:1026F0001F93CF93DF93182F80911101811323C073
:102700009091D50493702091100130E081E09217F0
:10271000130609F480E08170809316018091DA0439
:1027200090911501981739F08093150140E060E011
:1027300080E00E947B08183260F4E12FF0E0E45C56
:10274000F04D0C94E42D81E0E6CF809116018111CB
:1027500002C0C0E08EC140E060E080E00E947B08E3
:10276000F8CFC0911401C295C07F00E10C0FC02EBC
:102770000E3410F0ADE4CA2E6091D6047091D704E7
:102780008091D8040E94EF09F62EE72ED82ED0E0D3
:10279000CC1528F0C1E00D3408F46BC1DACFFE018E
:1027A000E45AFD4F808190911501892331F02D2D40
:1027B0004F2D6E2DCE010E947D082196E9CFC0914C
:1027C0001401C295C07F00E10C0F902E0E3410F062
:1027D000FDE49F2EB090D704C090D804D091D604C9
:1027E0006D2F7B2D8C2D0E94EF09F62EE72ED82E13
:1027F0006091D9046D0F7B2D8C2D0E94EF09C62EA0
:10280000B72EA82ED0E0C91528F6FE01E45AFD4FD8
:10281000908180911501892359F02A2D4C2D6B2D23
:1028200090FD03C02D2D4F2D6E2DCE010E947D08F1
:102830002196E9CFC0911401C295C07F00E10C0F31
:10284000E02E0E3410F0EDE4EE2ED090D704C090C0
:10285000D8042091D90470E4F72E3F2D329F312DFA
:102860001124F32ED0E0CE1508F094CFFE01E45AE7
:10287000FD4F8081909115018923B9F0FE01EE0F83
:10288000FF1FED53FE4F808182958F706091D604BB
:102890008F9D600D11247D2D8C2D0E94EF09462FF8
:1028A000672F282FCE010E947D082196DCCFC09192
:1028B0001401C295C07F00E10C0FE02E0E3410F021
:1028C0005DE4E52ED090D704C090D8042091D904BF
:1028D00040E4F42E3F2D329F312D1124F32ED0E011
:1028E000CE1508F057CFFE01E45AFD4F808190913C
:1028F00015018923D9F0FE01EE0FFF1FEE53FE4FA5
:102900006081F69EB001112435E0759567953A9582
:10291000E1F78091D604680F7D2D8C2D0E94EF0980
:10292000462F672F282FCE010E947D082196D8CFF1
:10293000C0911401C295C07F00E10C0FC02E0E346F
:1029400010F09DE4C92EF090D604D091D704E09009
:10295000D8046091D9046695669566958091D104F6
:102960009091D2040E94E5090E944A0990E8980FCC
:1029700097FD9195990F292F3E2D239F212D1124ED
:102980006F2D7D2F822F0E94EF09F62EE72ED82E75
:10299000D0E0CC1508F0FECEFE01E45AFD4F808158
:1029A00090911501892331F02D2D4F2D6E2DCE01E3
:1029B0000E947D082196EDCF82E598E00E94BD0B34
:1029C00007C08BE298E0FACF8CE299E00E94F60C07
:1029D000C82F4FC08DE099E0F9CF82EF98E00E94B8
:1029E0007D0CF6CF87ED98E0FACF89E298E0E6CF4C
:1029F00080E298E0E3CF87E198E0E0CF8EEF97E0C8
:102A0000DDCF80EF97E0EBCF8CEB99E0DFCF86EC6A
:102A100098E0DCCF82EB98E0E2CF83EC97E00E9475
:102A20000A0CD6CF85E997E0FACF8DE597E0F7CF8E
:102A3000C0911601C1113CC06091D90420E1620F20
:102A400008F46FEF8091D1049091D2040E94E509BF
:102A50006AE070E00E94BC2D892B09F07ACE0E94BA
:102A6000592E6DE470E00E94D02D609115010E94F6
:102A70002A13809114018F5F80931401C1110CC03F
:102A800082E08093120180911601811105C011111D
:102A900003C083E080931201DF91CF911F910F91CA
:102AA000FF90EF90DF90CF90BF90AF909F900895F0
:102AB000C0911401C295C07F00E10C0F802F0E342D
:102AC00008F08DE4D0E0E82EF12CCE15DF050CF0F7
:102AD00061CE60911501CE010E942A132196F5CF97
:102AE000C0911601C1111EC06091D90420E1620F8E
:102AF00008F46FEF8091D1049091D2040E94E5090F
:102B000065E070E00E94BC2D892B09F022CE0E9466
:102B1000592E6DE470E00E94D02D609115010E9445
:102B20000313A7CFC0911401C295C07F00E10C0F21
:102B3000802F0E3408F08DE4D0E0E82EF12CCE1575
:102B4000DF050CF027CE60911501CE010E94031322
:102B50002196F5CFC0911401C295C07FD0E1DC0F62
:102B6000DD2EDE3410F08DE4D82EE090D704F09006
:102B7000D8040091D6046091D9046695669566954F
:102B80008091D1049091D2040E94E5090E944A09E3
:102B900090E8980F97FD9195990F692F2CE0629F0F
:102BA000612D1124600F7E2D8F2D0E94EF09F62ECE
:102BB000E72E082FAC2EB12CAD1428F0C1E0DD3487
:102BC00008F457CFC6CDF501E45AFD4F80819091AE
:102BD0001501892331F0202F4F2D6E2DC5010E9444
:102BE0007D083FEFA31AB30AE7CF89E699E0E6CE66
:102BF0008CE497E0E3CE85E497E00E94460BE8CEB4
:102C00008FE397E0FACF2091DB0431E0231B08F437
:102C100020E065E277E0822F0E947D0AD9CE65E24E
:102C200077E080E0F9CF2091DB0431E0231B08F44A
:102C300020E06CEE76E0EFCF6CEE76E0F2CF209104
:102C4000DB0431E0231B08F420E06AEB76E0E3CFFD
:102C50006AEB76E0E6CF2091DB0431E0231B08F439
:102C600020E062EA76E0D7CF62EA76E0DACF209120
:102C7000DB0431E0231B08F420E06BE876E0CBCFE7
:102C80006BE876E0CECF46E050E06CE170E085ED99
:102C900094E00E94A32E1092AA0308958F929F920F
:102CA000AF92BF92CF92DF92EF92FF921F93CF939A
:102CB000DF938091A1039091A203A091A303B0910F
:102CC000A4032FB7F8948090990490909A04A09050
:102CD0009B04B0909C042FBF75016401C81AD90AE7
:102CE000EA0AFB0A2FB7F8944091990450919A048C
:102CF00060919B0470919C042FBF4093A10350935B
:102D0000A2036093A3037093A40310917803E8E7F0
:102D1000F3E0C12FD0E00197AF4FBF4F8819990959
:102D2000AA09BB091D132EC0C09378038091A90383
:102D3000C0E0811108C08091D504C82FC37019F07C
:102D4000C82FC695C69580911201823009F46CC0D7
:102D500060F5811139C0109214014093D104509351
:102D6000D2046093D3047093D40489E2E8E7F3E0DB
:102D7000ABEDB4E001900D928A95E1F781E080938C
:102D8000120116C0218D328D4901B12CA12C88155C
:102D90009905AA05BB0520F4C150DF5F3296C2CF6A
:102DA0002C0D3D1D328F218FF8CF833009F447C0A1
:102DB000DF91CF911F91FF90EF90DF90CF90BF9068
:102DC000AF909F908F9008958C2F0E947013CC230A
:102DD00079F30E94AE0581FF1FC06091D80468306E
:102DE000B8F06C3AB8F48091A50380FF685F262F95
:102DF000462F84E290E0DF91CF911F91FF90EF90FA
:102E0000DF90CF90BF90AF909F908F900C947D08F3
:102E100068E0EDCF64EBEBCF8091A50380FFC8CFD6
:102E200020E040E060E0E5CFC09311018091D5043F
:102E30008370809310010E94941183E0A0CF809151
:102E4000AA0381110E9443164091D1045091D204EB
:102E50006091D3047091D4042FB7F89480919904B1
:102E600090919A04A0919B04B0919C042FBF841B65
:102E7000950BA60BB70B4097A105B10508F498CFA9
:102E80001092120195CFE5EDF4E085E38083809107
:102E9000170190911801A091190181839283A38356
:102EA0008FE784838FEF85830C9443166F927F9214
:102EB0008F929F92AF92BF92CF92DF92EF92FF924A
:102EC0000F931F93CF93DF93CDB7DEB72A970FB63B
:102ED000F894DEBF0FBECDBF8E010F5F1F4F8AE09B
:102EE000F80111928A95E9F79CE4E92E91E0F92E18
:102EF000680121E5622E21E0722E88248394912CB2
:102F0000F70181917F018F3F09F446C0F894E82FC3
:102F1000E295EF70F0E021A18F70A40102C0440F90
:102F2000551F8A95E2F7CA01922F982B91A392A17F
:102F30008095892382A3789400C0E1E5F1E021E047
:102F400030E0B12CA12C41914F3F09F480C0A42F57
:102F5000A295AF70B0E090968C9190E04F7002C057
:102F6000959587954A95E2F780FD71C0C901A82A19
:102F7000B92A220F331F51E0E036F50721F7F70198
:102F8000319780818F3F11F00E948B0E80EA8A95E5
:102F9000F1F7F601B182A082F2E0CF0ED11C6E14DF
:102FA0007F0409F0ADCF4AE050E0B8018BE493E034
:102FB0000E94692E9C01FF24F394892B09F4F12CC3
:102FC000232B09F447C08AE0F801ABE4B3E0019099
:102FD0000D928A95E1F781E080934A030E941405DF
:102FE000909349038093480380914803909149034B
:102FF0000E940505059790F180914B0390914C0339
:10300000909362038093610380914D0390914E03EE
:10301000909364038093630380914F0390915003D6
:1030200090936603809365038091510390915203BE
:1030300090936803809367038091530390915403A6
:1030400090936A038093690310924A0307C090E04B
:1030500080E08DCF80914A038111C6CF8F2D2A96B3
:103060000FB6F894DEBF0FBECDBFDF91CF911F9199
:103070000F91FF90EF90DF90CF90BF90AF909F9017
:103080008F907F906F9008958091450390914403B5
:10309000892B8093AC02909146039923A1F0892B50
:1030A0008093AC02809113018823D9F180919D0413
:1030B00087FF37C08EE1EEEAF2E090E0815098F5AC
:1030C00091110E946D1040E250E064E273E08CEADE
:1030D00092E00E94692E892B59F180E2ECEAF2E03D
:1030E000A4E2B3E001900D928A95E1F7E091940497
:1030F000F09195043097E1F080911301882359F005
:1031000080919D0487FF07C08091AC028093AD023F
:1031100086E08093AC020280F381E02D8CEA92E09D
:10312000099486E0C8CF2191222341F29F5FC6CF48
:10313000089590E080E00E94980590E080E00E9471
:103140008205109244030E94441886E0E2E7F3E00F
:10315000DF011D928A95E9F710926C0310926B03C0
:1031600010926D030C944E0D809307050C949918E2
:1031700080910705982F9670963019F488600C940A
:10318000B418877FFCCF21E030E001C0220F8A9580
:10319000EAF720958091070582230C94B41890914A
:1031A00023038095892380932303282F277091F48C
:1031B000282F082E000C330B9217130659F090910C
:1031C0009E0492FD07C08595859585950E94C3183C
:1031D000109223030895CF93C0919E04C2FB9927B8
:1031E00090F9981799F080FBC2F9C0939E04609102
:1031F0009D0484E090E00E94B32E6C2F82E290E068
:103200000E94B32E82E0CF910C94CF18CF910895F5
:1032100021E030E001C0220F8A95EAF7809107058E
:10322000822B0C94B418809347030C949918109235
:10323000450380911301EEEAF2E0882359F0809172
:103240009D0487FF07C08EE1DF011D928A95E9F793
:103250000C94991886E0F8CF1F93CF93DF93CDB7E6
:10326000DEB7AA970FB6F894DEBF0FBECDBF89ECCC
:1032700094E0FC0101962091F100208324E0813D3F
:103280009207B9F78091CA04893009F456C0C8F48E
:10329000823009F4B3C0833009F482C0813071F107
:1032A0008091E80083FF85C28091C9049091CA048F
:1032B0009A3008F07EC2E92FF0E0EC59F04D0C9402
:1032C000E42D8A3009F489C08B3051F78091C9040C
:1032D000813231F78091CD049091CE04892B01F792
:1032E0008091E800877F8093E8000E94F503809139
:1032F000CB04809313010E941719D2CF8091C90487
:10330000813A71F68091E800877F8093E800809190
:10331000CD049091CE04892B61F460E285EA94E0BB
:1033200070E00E94A7048091E8008B778093E8000A
:10333000B7CF60E090E080E0F3CF8091C9048132A4
:1033400009F0AECF8091CD049091CE048D7F892B72
:1033500009F0A6CF8091E800877F8093E8008091F4
:10336000E80082FF18C09091F3008091F20002976C
:1033700031F48091F100813011F0863021F4809198
:10338000F1008093A4048091E8008B778093E8009B
:103390000E94F50385CF8091C7048111E0CF80CFD3
:1033A0008091C904813A09F07BCF8091CD0490913E
:1033B000CE04892B09F074CF8091E800877F809339
:1033C000E8008091E80080FFFCCF8091130180939A
:1033D000F1008091E8008E77D9CF8091C9048132C5
:1033E00009F05ECF8091E800877F8093E8000E941B
:1033F000F5038091CC048093A30452CF8091C9043B
:10340000813A09F04DCF8091E800877F8093E800F2
:103410008091E80080FFFCCF8091A304D8CF803852
:1034200099F0823809F0C5C18091CD048F70873042
:1034300008F0BFC18093E9008091EB0085FB8827ED
:1034400080F91092E90006C08091C5049091C604ED
:10345000911182609091E800977F9093E8008093AB
:10346000F1001092F1008091E8008E779EC18823D0
:1034700009F48CC1823009F09CC18091CB04811188
:103480008FC18091CD048F702FEF280F263008F068
:1034900090C18093E9002091EB0020FF81C193301F
:1034A00031F48091EB0080628093EB0079C19091C0
:1034B000EB0090619093EB0021E030E001C0220F1F
:1034C0008A95EAF72093EA001092EA008091EB00D7
:1034D0008860EACF81116DC11091CB041F77809174
:1034E000E3008078812B8093E3008091E800877F60
:1034F0008093E8000E94F5038091E80080FFFCCFF4
:103500008091E30080688093E30082E0111183E002
:103510008093C7044EC18058823008F04AC1409160
:10352000CB045091CC044C3D83E05807A1F583E0D7
:103530008A838AE289834FB7F894DE01139620E0EC
:103540003EE051E2E32FF0E050935700E49120FF7A
:1035500003C0E295EF703F5FEF708E2F90E0EA308E
:10356000C0F0C7968D939D932F5F243159F74FBFBD
:103570008091E800877F8093E8006AE270E0CE01E6
:1035800001960E94A7048091E8008B778093E80061
:1035900010C1C096E7CF8091CD049091CE04252F25
:1035A00033272330310509F44AC078F5213031053D
:1035B00009F479C08BE590E0E5EFF5E022303105C4
:1035C00009F0F7C02091E800277F2093E8002091C0
:1035D000CF043091D0048217930708F49C0140E097
:1035E0002115310509F064C0411162C08091E800E5
:1035F00082FDC9CF8091C704882329F2853019F252
:103600008091E80083FFF2CFBECF2132310509F46B
:103610003BC02232310509F0CCC08330910508F05F
:10362000C8C0FC01EE0FFF1FE559FE4F0190F0816D
:10363000E02D88599E4FDC018C9190E011C0CA01A9
:103640009927413089F082309105B1F0892B09F03A
:10365000B0C0EEE7F6E0E4918E2F90E0EEE7F6E002
:10366000009709F4A6C0AECFEEE6F6E0E4918E2F07
:1036700090E0EEE6F6E0F4CFE2E6F6E0E4918E2F9D
:1036800090E0E2E6F6E0ECCF8330910508F091C0DF
:10369000880F991FFC01EF58FE4F0190F081E02D3B
:1036A00089E090E08FCF82E190E0E0E5F6E08ACF1C
:1036B0008091C704882309F466CF853009F463CF6D
:1036C0008091E80083FD5FCF8091E80082FD8ECF7E
:1036D0008091E80080FF84CF9091F3008091F20008
:1036E0002115310519F08830910550F041E0089717
:1036F00009F040E08091E8008E778093E80070CF79
:1037000044914093F1003196215031090196E8CF60
:10371000803809F04EC08091E800877F8093E800F0
:103720008091C8048093F1009ECE811142C0109117
:10373000CB041230F0F58091E800877F8093E80099
:103740001093C8040E94F503112311F084E005C012
:103750008091E30087FDFACF81E08093C70442E0C7
:1037600061EC81E00E94140442E261EC84E00E947A
:10377000140442E261EC82E00E94140442E260EC34
:1037800083E00E9414048091C70413C08091CB048D
:10379000813079F481E0933009F080E08093C604B1
:1037A0001092E9008091E800877F8093E8000E94F2
:1037B000F5038091E80083FF0AC08091E800877FCD
:1037C0008093E8008091EB0080628093EB00AA96E2
:1037D0000FB6F894DEBF0FBECDBFDF91CF911F9122
:1037E0000895882321F00E9473100C9444180895C2
:1037F000882339F090914503892B809345030C94DD
:1038000044180895882379F19CEF980F913A38F481
:10381000682F8CEA92E00E9420050C94441890E2F4
:10382000980F983050F4877091E001C0990F8A95F5
:10383000EAF7892F0E947310F0CF9BE5980F933021
:1038400020F490E080E00C94980598E5980F97316B
:1038500020F490E080E00C948205803F20F00E94EC
:10386000740D0C944E0D0895CF93C82F882309F43E
:103870006DC08CEF8C0F813AB8F5809113018823CD
:1038800011F180919D0487FF1EC0EC2FE695E6950F
:10389000E695F0E0E455FD4F828190E04C2F4770B3
:1038A00021E030E002C0220F331F4A95E2F7822365
:1038B0009323892B89F06C2F8CEA92E00E942005DB
:1038C0000E94441809C0EEEAF2E08191C81799F30A
:1038D00022E0E43BF207C9F76C2F8CEA92E00E94E9
:1038E0004C05CF910C94441880E28C0F883068F41A
:1038F000C77021E030E001C0220FCA95EAF780913D
:103900004503822B80934503ECCF8BE58C0F8330EE
:1039100038F42C2F2452330BC901CF910C94980505
:10392000E8E5EC0FE73150F4F0E0EE0FFF1FE25E48
:10393000FE4F80819181CF910C948205C03F30F081
:103940008C2F0E942F0ECF910C944E0DCF91089585
:103950000F931F93CF93C82F10E000E0893311F429
:1039600000E510E08C2F0E94341C0115110531F484
:103970008C2FCF911F910F910C94021C8FE99FE027
:103980000197F1F700C0000001501109EECFFF923E
:103990000F931F93CF93DF93C62FD42F122FFC01C9
:1039A00082818823A9F0609306050E9414059093F4
:1039B000050580930405C77081E001C0880FCA9592
:1039C000EAF7DF91CF911F910F91FF900C94F81BB4
:1039D00080910605681334C0809104059091050517
:1039E0000E940505883C910558F500E20D0FCD17A2
:1039F000A9F0C770FF24F3948F2D01C0880FCA95DA
:103A0000EAF70E94F11B083048F48D2F877001C03F
:103A1000FF0C8A95EAF78F2D0E94F81B812F0E94D8
:103A2000A81C0830A0F4D77081E001C0880FDA9597
:103A3000EAF7DF91CF911F910F91FF900C94F11B4A
:103A4000C77081E001C0880FCA95EAF7F2CFDF9115
:103A5000CF911F910F91FF900895DF92EF92FF9207
:103A60000F931F93CF93DF93E82FF0E0EC50FE4FBE
:103A7000D490282F26952695269530E0F901EC5113
:103A8000FE4F0491877010E0082E02C0159507952F
:103A90000A94E2F701701127F901EC52FE4FE4900D
:103AA000F12C082E02C0F594E7940A94E2F791E015
:103AB000E922FF24F901EC53FE4FC491D0E002C08B
:103AC000D595C7958A95E2F7C170DD2701151105D7
:103AD00019F081EE0E94341CE114F10419F086EE15
:103AE0000E94341C8D2D0E94A81CEF2819F086EE30
:103AF0000E94021C012B19F081EE0E94021CCD2BAA
:103B000051F08CE2DF91CF911F910F91FF90EF90D8
:103B1000DF900C94A81CDF91CF911F910F91FF9023
:103B2000EF90DF90089590E080E00E949D2E893E06
:103B30009E4F11F40C94DC1280E008959091A5033F
:103B4000892F8370833051F08FEF90FD82EF91FDCC
:103B500018C08093DA040E947E0607C01092DA042F
:103B600040E060E080E00E947B084091A503509116
:103B7000A6036091A7037091A8038FE090E00C94D6
:103B8000C52E8DEFE6CF69EE7EEF90E080E00E94DB
:103B9000D12E60E082E090E00E94B32E60E083E0EE
:103BA00090E00E94B32E1092470360E084E090E022
:103BB0000E94B32E60E082E290E00E94B32E60E0AB
:103BC00085E090E00E94B32E60E086E090E00E94E5
:103BD000B32E6FEF87E090E00E94B32E40E050E0FC
:103BE000BA0188E090E00E94C52E60E08DE090E090
:103BF0000E94B32E40E050E0BA0188E190E00E94BC
:103C0000C52E60E087E190E00E94B32E40E050E0D6
:103C1000BA018CE190E00E94C52E70E060E080E285
:103C200090E00E94D12E40E050E0BA0188E190E09F
:103C30000E94C52E80E00E9422120E943A1240E0AB
:103C400050E0BA018FE090E00E94C52E1092A503CB
:103C50001092A6031092A7031092A8030C949E1D25
:103C60008FE090E00E94972E6093A5037093A603C7
:103C70008093A7039093A8030C949E1D7F928F922C
:103C80009F92AF92BF92CF92DF92EF92FF920F93EB
:103C90001F93CF93DF9300D000D00F92CDB7DEB744
:103CA0007C01FC0183819481892B31F08081918199
:103CB00089238F3F09F025C60F900F900F900F902A
:103CC0000F90DF91CF911F910F91FF90EF90DF90B8
:103CD000CF90BF90AF909F908F907F9008950E945B
:103CE0007C12182F682F89819A810E94AE106981F9
:103CF0007A81812F0E946F128C01F70182818823C3
:103D000009F4BDC5980122513F452031310508F025
:103D1000A5C58FEF93E00E948F2E5EEED52ED00EBC
:103D20000FE712E0882371F180912303877021F25D
:103D3000F7018281882309F4BFCF80919E0482FD20
:103D4000BBCF82E00F900F900F900F900F90DF91FC
:103D5000CF911F910F91FF90EF90DF90CF90BF9088
:103D6000AF909F908F907F900C94CF180115F4E046
:103D70001F07D1F2C8010E948F2E811101C0DA9471
:103D80000F5F1F4FD110F2CF80911A0190911B014C
:103D9000A0911C01B0911D0189839A83AB83BC83E0
:103DA000BB24B3944AE0A42E68012FEFC21AD20AB2
:103DB000C8010E948F2E89831A82882309F4B4CF08
:103DC0009FEF980F933010F58A83B9820E5F1F4FD3
:103DD000C6010E948F2E8B83882309F4A5CFCE01C4
:103DE00001966C01F60180818823F1F2813009F09F
:103DF00049C091818281913059F4F2E0CF0ED11CFB
:103E00000E94A81CEFEFCE1ADE0AECCF8601E7CFA6
:103E1000923031F422E0C20ED11C0E94341CF2CF49
:103E2000933031F432E0C30ED11C0E94021CEACF61
:103E3000943021F08FEFC81AD80AE4CF92E0C90E6F
:103E4000D11C30E020E0B6016F5F7F4FF601418169
:103E50008053990B8A30910550F02150310990F22E
:103E60008FE99FE00197F1F700C00000F6CFA29E16
:103E7000F001A39EF00D11249C012E0F3F1F842FF3
:103E80006B01E1CF0E942D1DBDCF81E00E9408197A
:103E90000E94B81849CF81E00E94C318F9CF82E090
:103EA000F5CF82E0F9CF0338EFE51E0709F46DC0C6
:103EB0000938FFE51F0709F478C002382FE512071B
:103EC00009F459C0882309F42DC51092060501365E
:103ED000EDE51E0761F008F012C106312CE512076E
:103EE00008F0F1C002303CE5130708F40DC10E9450
:103EF000F51290939E0480939D0406319CE519076A
:103F000008F022C10230ECE51E0708F010C16091F4
:103F10009D0410919E0484E090E00E94B32E612FD6
:103F200082E290E00E94B32E0E941719FDCE8823F2
:103F300009F4FACE8091A503982F917080FD0AC0F4
:103F400081FD08C08091A50381608093A5030E9434
:103F50009E1DEACE8091A50380FF05C081FD03C0B0
:103F60008C7F8260F2CF911102C081FDEBCF8091F6
:103F7000A5038C7FEACF882309F4D6CE9091A503C0
:103F8000892F8E7F90FF8160E0CF882309F4CCCE0B
:103F90009091A503892F8D7F91FF8260D6CF8823D2
:103FA00009F4C2CE0E94301EBFCE909145039111FC
:103FB000BBCE8111B9CE04E712E03AE0B32EF8018E
:103FC0008491882309F4B0CE813009F04FC0680194
:103FD000FFEFCF1ADF0AF6018491813061F46801A6
:103FE000F2E0CF0ED11CF60184910E94A81C86013C
:103FF0000F5F1F4FE4CF823049F46801F2E0CF0E2B
:10400000D11CF60184910E94341CF1CF833049F415
:104010006801F2E0CF0ED11CF60184910E94021CCF
:10402000E6CF843021F76801F2E0CF0ED11CF60113
:10403000249190E080E0F60131962053330B2A3032
:10404000310548F0019798F2EFE9FFE03197F1F779
:1040500000C00000F7CFB89EA001B99E500D1124FA
:10406000C901840F951F24916F01E5CF0E942D1D7A
:104070006801BDCF882309F457CE8FE992E00E94F2
:10408000820552CE053F2CE51207C9F027E245EE26
:1040900066EE063F3CE5130709F42FC427E245EE20
:1040A00064EE043F9CE5190709F427C40BCF27E20F
:1040B00045EE65EE22C426E241EE60EE1EC426E225
:1040C00041EE62EE1AC4C8018A5F9C45099708F464
:1040D0000ECF0631FCE51F07B9F4809145038A7ABB
:1040E00091E009F490E09093CC0269E2811165E3DC
:1040F0008CEA92E00E944C050E94441815CE053AC5
:104100008DE5180709F4F3CE0A352DE5120709F4F9
:10411000A0C108F07FC101158CE5180709F48CC116
:104120000E3D1C4509F0DFC00E94C31DFDCDF80106
:10413000E350FC4580919D048160E331F10550F529
:10414000E259F04D0C94E42D0330FDE51F0778F49F
:104150000A3F2CE5120708F4DACEF801EB5FFC45C4
:10416000E830F10510F5EF57F04D0C94E42D0136D1
:104170003DE5130709F496C0053A1D4509F0C7CE81
:1041800090919D04892F8E7F90FF816003C0809164
:104190009D04826080939D04BACE80919D048460CA
:1041A000F9CF80919D048860F5CF80919E04816055
:1041B00080939E04ACCE80919E048260F9CF809162
:1041C0009D048061E7CF80919D048062E3CF809160
:1041D0009D048064DFCF0E94171980919D04806840
:1041E000D9CF80919D048C60D5CF80919E0483604F
:1041F000DFCF80919D048E7FCDCF80919D048D7FF8
:10420000C9CF80919D048B7FC5CF80919D04877F0E
:10421000C1CF80919E048E7FCBCF80919E048D7FF5
:10422000C7CF80919D048F7EB5CF80919D048F7DF7
:10423000B1CF80919D048F7BADCF0E9417198091E3
:104240009D048F77A7CF80919D04837FA3CF80911A
:104250009E048C7FADCF80919D0482FB992790F9BD
:1042600021E0922790FB82F990FB83F993CF809114
:104270009E04982F909591708E7F892B90FB81F9E9
:1042800097CF0E94171990919D04892F97FB87F96A
:10429000805880CF61E08EE090E00E94B32E37CE50
:1042A00060E0F9CF90919D04892F8F7E94FF80610B
:1042B00071CF809145038272063D9CE5190778F421
:1042C000023CECE51E0778F0F801E35CFC45E331C5
:1042D000F10508F04FC0E757F04D0C94E42D0D3573
:1042E0001D4509F421CDF7018281C080D18088234A
:1042F00009F4B3C0C6010E947C12182F682FC601B2
:104300000E94AE10B601812F0E946F120E94E70E2C
:104310008C01782EF7019280858082942FE0822292
:10432000809123038770C1F0B92C9920B1F0812FBF
:10433000807F803421F080E2800F883068F08091A7
:104340009E0482FD09C082E00E94CF188091230361
:104350008770BB24B3948111B12C812F82958F700B
:10436000C82ED12C8C3008F0E5C0F601E456F04D93
:104370000C94E42D8091D50491E089278093D50495
:10438000109212018091AA0381608093AA03CCCC81
:1043900047E656E063E776E00E94BA05C5CC43E7FE
:1043A00056E067E676E0F8CF49E356E063E476E06E
:1043B000F3CF43E456E069E376E0EECF4FE156E019
:1043C0006CE276E0E9CF4CE256E06FE176E0E4CFD4
:1043D00045E056E062E176E0DFCF42E156E065E09D
:1043E00076E0DACF45ED55E063EE75E0D5CF43EEEC
:1043F00055E065ED75E0D0CF61E081E00E944D06AB
:1044000093CC61E085E0FACF61E08DE0F7CF61E029
:1044100082E1F4CF0B35EDE51E07E9F00C351D45C3
:1044200009F061CF80919E0482FB882780F991E09A
:1044300089270E94EB1857CF0E9417192FEF34E3FA
:104440008CE0215030408040E1F700C000000E9425
:10445000701181E0EECF80E0ECCFC6010E948510A4
:10446000182F50CFF12FFF70AF2E107F19F0A294AC
:1044700090EFA922802F9920B9F0AA2069F090E24C
:10448000900F983010F0011109C080914503A82ABF
:10449000A09245030E944418802F4AC08091440393
:1044A000A82AA0924403F6CF0E94021CAA2009F475
:1044B00041C0005E083010F0711004C08A2D0E94C7
:1044C000731006C0A09480914403A822A0924403D4
:1044D0000E9444182FC0212F2F70A22E107F10325F
:1044E00019F0A29480EFA822772089F031E07316AA
:1044F00009F47CC0992009F486C0882009F47CC0A6
:10450000F701958190FFC8CF9F70958375C020916A
:104510009E0422FF48C0992009F43FC0AA2039F028
:10452000809145038A29809345030E94441880E0C6
:104530000E94341C98E0C91AD108E4E0CE16D104D8
:1045400010F40E94AE05BB2009F4B6CB8091230382
:1045500080FDB2CBF70112828595859585950E94E5
:104560000819C7010E943E1E8091230385958595F9
:1045700085950F900F900F900F900F90DF91CF9136
:104580001F910F91FF90EF90DF90CF90BF90AF9071
:104590009F908F907F900C94C31880E00E94021C23
:1045A000AA2041F28BCF9920A1F0909146038A2D49
:1045B000892B811003C00E94F81BBCCFE1E08E1252
:1045C000FACF22FDB7CF981709F4B4CF80934603F2
:1045D000B1CF811006C00E946D108A2D0E94F11B80
:1045E000A9CFF1E08F1609F4A5CFF5CF992031F0CE
:1045F00025E0281508F49ECF8A2DDDCF34E038154C
:1046000008F498CFEACF882041F3093349F4FFEF4B
:1046100027EE33E0F15020403040E1F700C00000C9
:10462000802F0E94021C86CF812F869586958370ED
:1046300061F0813009F07ECFC8019370911002C003
:1046400090E080E00E94820575CFC80193709110C0
:1046500002C090E080E00E9498056CCF802F9920E6
:1046600029F00E942F0E0E944E0D64CF0E94740DFF
:10467000FACF812F837091F591105CCF402F429536
:1046800046954770440F440F802F8F70042E01C051
:10469000880F0A94EAF7202F207104FF07C02FE04B
:1046A00030E001C0220F4A95EAF72095169516953D
:1046B0001370123071F0133051F030914703113004
:1046C00029F0822B83230E94131934CF832B822B52
:1046D000FACF282B809147038227F5CF8695992022
:1046E00011F0812F8170882309F424CF402F429547
:1046F00046954770440F440F802F8F70042E01C0E1
:10470000880F0A94EAF7202F207104FF07C02FE0DA
:1047100030E001C0220F4A95EAF7209516951695CC
:104720001370123071F0133051F0309107051130D1
:1047300029F0822B83230E94B418FCCE832B822B7A
:10474000FACF282B809107058227F5CF1F7099207B
:1047500029F0812F0E940819802F2DCF802F0E94D1
:10476000F11B812F0E94C318E5CE802F92EF79169E
:10477000A9F1971570F0E0EF7E16D1F0F1EF7F16FA
:1047800091F0992009F45AC0811086CE812F8F7143
:1047900029C023EF721649F134EF7312F2CF8091E2
:1047A0009E0482FF2DC0812F8F719920D9F21AC0EB
:1047B000992079F084E0881508F4BCCE1F7181E05F
:1047C00090E001C0880F1A95EAF7909107058927B4
:1047D000B2CF95E0981508F4ADCEF0CF812F8F7150
:1047E0009110C0CF0E940819A5CE80E0992009F44D
:1047F000A2CF1F7181E001C0880F1A95EAF79BCF05
:10480000992089F01F71812F0E94081980919E04C0
:1048100082FD07C0E8E01E9FC001112483608093E1
:104820002303812FDFCF81E00E94CF18F1E0F8153C
:1048300008F080CE82E00E94CF187CCE882059F00C
:10484000893309F0EDCE2FEF37EE83E02150304071
:104850008040E1F7E3CE812F8F7184CF0031FFE5F7
:104860001F0709F412CB01312FE5120709F417CB0A
:1048700001383FE5130791F480EA92E000CC003163
:104880003FE5130709F407CB01319FE5190709F448
:1048900008CB01389FE5190709F446CA0238FFE53D
:1048A0001F0708F000CB0E3D2CE5120709F477CB6B
:1048B00000383FE5130709F4DDCB023C9CE51907FE
:1048C00009F435CB033F2CE5120709F4F4CB08F0CB
:1048D000D9CB083D9CE5190709F4E9CB28E241E072
:1048E000093DECE51E0709F4E4CB26E241EE61EE5A
:1048F000073DFCE51F0709F0E5CAC7010E94C71C78
:1049000013CA85E0DE01119601900D928A95E1F7B8
:10491000F701228189819A812111E1C90E948510C4
:10492000182FE5C906312CE5120709F0C2CC809199
:10493000CC0269E2811165E38CEA92E00E942005D5
:10494000DBCB1F93CF93DF938091F002807FA9F49C
:104950008091ED02882389F080912203D091F102A9
:104960006091EB027091EC02A091EE02B091EF0227
:10497000C62FC72316E0D81304C0DF91CF911F9133
:10498000089590E0109711F0CF3F19F401968770C9
:10499000F2CF189F9001199F300D1124F901EE50AC
:1049A000FD4F41814713F2CF40814613EFCF428143
:1049B0004111ECCF438154814A1B5B0B483C5105AC
:1049C00028F78091F0028F7080618093F002F901E6
:1049D000E950FD4F80818F70806180838BEE92E083
:1049E0000E943E1EDF91CF911F910C947B10AF92DD
:1049F000BF92CF92DF92EF92FF920F931F93CF93CC
:104A0000DF93CDB7DEB72B970FB6F894DEBF0FBE9E
:104A1000CDBF8C0185E0F801DE01179601900D9263
:104A20008A95E1F7F801E2808BEEA82E82E0B82E9D
:104A30006091EE027091EF026115710509F41AC1DF
:104A40009091EB024091EC02842F89238F3F09F46F
:104A500011C120813181C380D480F090ED02F60134
:104A6000E61BF70BFF2009F4D0C08091F002582F0D
:104A7000507FE83CF10508F0ABC0511177C0FE2C27
:104A8000431321C092131FC0E1101DC08F708061BD
:104A90008093F002C5010E943E1E8091F002F80151
:104AA00085838F2D2B960FB6F894DEBF0FBECDBF3A
:104AB000DF91CF911F910F91FF90EF90DF90CF90FA
:104AC000BF90AF900895CD2829F0822F83238F3F88
:104AD00009F0EBC080E0F82FF170DF2EE0912203A7
:104AE0004091F10256E080FD1CC0EE20D1F2809191
:104AF000F00281608093F002F12CD3CF8E2F90E0F2
:104B00005E9FF0011124EE50FD4F6181361306C007
:104B10006081261303C06281E612E7CFFC01319663
:104B2000E770E413EBCF2F8338878F8198850E943D
:104B3000AB12292F22952F70903260F0225F2F70D8
:104B4000223078F49F7051F0F8019581907F31F414
:104B5000D12C0AC09F7011F08823D1F3805E883079
:104B6000B8F3C8010E943E1EFD2C9BCF431306C024
:104B7000921304C0F801EE2009F461C0C8010E943C
:104B8000B912882309F1EE20F9F08091F002803209
:104B900070F02091EB023091EC023A8329831B8262
:104BA000DD82CC828E83CE0101960E943E1E86E07D
:104BB000F801ABEEB2E001900D928A95E1F70E9408
:104BC000A124FF24F3946DCFC8010E943E1EF9CFAB
:104BD00051110AC08BEE92E00E943E1E86E0F50164
:104BE00011928A95E9F788CF4313C8CF9213C6CFA5
:104BF000E110C4CFF8018583C8010E943E1E86E003
:104C0000F50111928A95E9F74CCFE83CF105B8F728
:104C1000FE2CEE20C9F243131FC092131DC08091D9
:104C2000F00280FD10C0982F907F69F0F801858315
:104C3000903F31F0982F907F905F8F70892B858304
:104C4000C8010E943E1E86E0F801ABEEB2E0019082
:104C50000D928A95E1F725CFC8010E94B912811102
:104C6000A6CF8091F00281608093F002C8010E947B
:104C70003E1E17CFEE2009F4A7CFC8010E94B9123B
:104C8000F82E882309F4A0CF86E0F801ABEEB2E05D
:104C900001900D928A95E1F78091EB029091EC02E0
:104CA0000E94AB120E94A124FCCE81E08E2513CF7E
:104CB0001F93CF93DF93CDB7DEB767970FB6F89406
:104CC000DEBF0FBECDBF4B8B5C8B6D8B7E8B8F8B16
:104CD0006111109244031A8A2C898E899F893B891D
:104CE0003D872E876F87998B888B86E0FE013D96E6
:104CF000DE01179601900D928A95E1F7CE01079695
:104D00000E94F724882389F016E080912203909175
:104D1000F10289134FC067960FB6F894DEBF0FBE3D
:104D2000CDBFDF91CF911F91089586E0FE013796A8
:104D3000DE01119601900D928A95E1F74A855B8517
:104D40004115510509F37F816885862F87238F3FA1
:104D5000D9F22091F10230E0C901019687709927BC
:104D6000E0912203E817190671F40E9417191092B6
:104D7000F1021092220386E0EBEEF2E0DF011D92D9
:104D80008A95E9F7C1CF79836A835D834C8396E086
:104D9000929FD001939FB00D1124AE50BD4FFE01E4
:104DA000319601900D929A95E1F78093F1020E945D
:104DB0007B10AACF819FC00111248E509D4F0E946D
:104DC000F724882309F4A7CF8091220390E001966D
:104DD000877099278093220398CF1F920F920FB666
:104DE0000F9211242F933F934F935F936F937F9371
:104DF0008F939F93AF93BF93CF93DF93EF93FF93E3
:104E0000D091E900DF708091EC00C82FC17080FD67
:104E1000C0E81092E9008091F000877F8093F00055
:104E200078940E942C191092E9008091F00088601B
:104E30008093F000CD2BCF70C093E900FF91EF91EC
:104E4000DF91CF91BF91AF919F918F917F916F91A2
:104E50005F914F913F912F910F900FBE0F901F9038
:104E600018951F920F920FB60F9211242F933F9314
:104E70004F935F936F937F938F939F93AF93BF9362
:104E8000EF93FF938091E10082FF09C08091E200DF
:104E900082FF05C08091E1008B7F8093E1008091CB
:104EA000DA0080FF24C08091D80080FF20C080916C
:104EB000DA008E7F8093DA008091D90080FF9BC05A
:104EC00080E189BD82E189BD09B400FEFDCF81E0AA
:104ED0008093C7048091A204811109C00E947B03C2
:104EE0000E9446048091E20084608093E2008091F9
:104EF000E10080FF17C08091E20080FF13C0809125
:104F0000E2008E7F8093E2008091E20080618093D6
:104F1000E2008091D80080628093D80019BC85E0BF
:104F20008093C7048091E10084FF29C08091E20052
:104F300084FF25C080E189BD82E189BD09B400FEFE
:104F4000FDCF8091D8008F7D8093D8008091E100C3
:104F50008F7E8093E1008091E2008F7E8093E2005B
:104F60008091E20081608093E2008091C8048823F0
:104F700009F447C084E08093C7048091C7048091FE
:104F8000E10083FF27C08091E20083FF23C080916E
:104F9000E100877F8093E10082E08093C704109254
:104FA000C8048091E1008E7F8093E1008091E2004F
:104FB0008E7F8093E2008091E20080618093E20026
:104FC00042E060E080E00E9414048091F00088607C
:104FD0008093F000FF91EF91BF91AF919F918F91DE
:104FE0007F916F915F914F913F912F910F900FBEE5
:104FF0000F901F90189519BC1092C7041092A2042C
:1050000076CF8091E30087FD02C081E0B4CF83E0DA
:10501000B2CF78941F921FB61F9211248F939F9343
:10502000AF93BF938091990490919A04A0919B04AF
:10503000B0919C040196A11DB11D80939904909399
:105040009A04A0939B04B0939C04BF91AF919F914D
:105050008F911F901FBE1F9018951F921FB61F9211
:1050600011248F939F93AF93BF93809198048111E4
:1050700013C08091990490919A04A0919B04B091DF
:105080009C044196A11DB11D8093990490939A04AC
:10509000A0939B04B0939C04BF91AF919F918F917B
:1050A0001F901FBE1F901895CDB7DEB7A4970FB6FF
:1050B000F894DEBF0FBECDBF84B7877F84BF0FB625
:1050C000F894A895809160008861809360001092A8
:1050D00060000FBE80E890E00FB6F8948093610006
:1050E000909361000FBE85B7806885BF85B78068E3
:1050F00085BF89E89EE09093AB028093AA020E944C
:105100007B030E9446048091E20084608093E20069
:1051100078948091C7048823A1F01091E9001F7052
:105120009091EC00892F817090FD80E8182B1092EF
:10513000E9008091E80083FD0E942C191F701093F4
:10514000E90082E084BD93E095BD9AEF97BD80931E
:105150006E000E94DC12811102C00E943A120CE41F
:1051600011E051E5E52E51E0F52ED8018D918D012C
:105170008F3F11F00E948B0EE016F106B1F701E5AA
:1051800011E040E6E42E41E0F42EF80181918F0118
:105190008F3F11F00E948B0EE016F106B1F78AE006
:1051A000E1E6F3E0DF01282F1D922A95E9F7EBE411
:1051B000F3E0DF011D928A95E9F70E94931D8111AA
:1051C00002C00E94C31D82E090E00E948F2E809357
:1051D00055030E94F51290939E0480939D040E94B3
:1051E0005617EFE3FCE93197F1F700C000000E9489
:1051F00056178091610380FF08C06FEF7FEF90E04A
:1052000080E00E94D12E0E94701183E090E00E9405
:105210008F2E0E9413191092DB048FEF9FEF909353
:10522000F5048093F4049093F7048093F60490932C
:10523000F9048093F8049093FB048093FA0490930C
:10524000FD048093FC049093FF048093FE049093EC
:105250000105809300059093030580930205109249
:105260007803909392038093910390939403809397
:105270009303909396038093950390939803809360
:10528000970390939A038093990390939C03809340
:105290009B0390939E0380939D039093A003809320
:1052A0009F030E94931D811104C00E94C31D0E9490
:1052B000431746E050E06CE170E085ED94E00E9419
:1052C0007F2E1092AA038091D5048C7F11F40E9446
:1052D00043170E94301E84E091E0909395048093E0
:1052E000940428E1822E912C30E4532EDD24D394B3
:1052F000662463948091C70493E0F92E00E112E1E3
:10530000853009F4F8C10E945617882359F08FB7E9
:10531000F8944091990450919A0460919B04709183
:105320009C048FBFE1E6F3E0A6E5B3E010E000E007
:10533000602FE190F1902D913D912E153F0509F4DC
:1053400005C22E253F25C12CAA24A394B12CA90166
:105350004A215B21452B09F4F3C1C9826A83EA2003
:10536000FB2081E0E114F10409F480E08B830E94CA
:1053700014058160782F9D838C8349815A816B81CC
:105380008D810E945826F801EE0FFF1FEA5AFC4F4C
:1053900080819181A826B926B182A082EF2871F080
:1053A0008FE0809FF001819FF00D1124E958FE4F9E
:1053B000EC0DF11D80818F3F09F0A9C1C12C0C2D8E
:1053C00010E080917803800F912F911D09976CF167
:1053D00088E090E07C01E01AF10AB80167587C4F40
:1053E000A70189E793E00E94762EB8016F577C4FA2
:1053F000A70181E893E00E94762EA701440F551F74
:10540000B801660F771F6F567C4F81E993E00E94C9
:10541000762EB80167577C4FA70189E893E00E9478
:10542000762E88E08C19809378038091780390E041
:10543000A72DB0E09D01220F331F2E533E4FAA0F20
:10544000BB1FBD016D537E4F41E0480F9C1508F412
:1054500062C1809378030E944E1686E0E2E7F3E093
:10546000DE01119601900D928A95E1F71091740377
:10547000E090750300917603F09077031092740327
:10548000109275031092760310927703812F8E2964
:1054900009F448C080917003909171030E94050542
:1054A0009C0180916C03882309F461C32531310587
:1054B000C8F18F3F19F08F5F80936C03112359F06F
:1054C0000E940F0E9FEF11160CF491E0899F802D22
:1054D000112480937403EE2059F00E940F0E9FEF69
:1054E0001E140CF491E0899F802D11248093750384
:1054F000309174033323B1F020917503222391F08E
:1055000055EB3503C0011124992309F436C190935A
:10551000740345EB240390011124332309F430C1B3
:1055200030937503802F8F2909F448C080916E0352
:1055300090916F030E9405059C0180916B03882365
:1055400009F410C321353105C8F18F3F19F08F5F81
:1055500080936B03002359F00E94ED0D9FEF10160E
:105560000CF491E0899F802D112480937603FF2015
:1055700059F00E94ED0D9FEF1F140CF491E0899FEC
:10558000802D112480937703309176033323B1F07B
:1055900020917703222391F055EB3503C0011124AC
:1055A000992309F4F0C09093760345EB240390010E
:1055B0001124332309F4EAC03093770380917403F4
:1055C00090917503892B90917603892B90917703A5
:1055D000892B11F00E944E0D1B83EC820D83FE82FD
:1055E00086E0FE013196A2E7B3E001900D928A9524
:1055F000E1F70E94AE0590916003891380936003E8
:105600008091C704843009F075CE83E08093E9006F
:105610008091E80082FF6ECE8091E80090E085FFE7
:105620000CC00E949A0330E2E32EF12C8E010F5F32
:105630001F4F882309F4B7C091E08091E8008B7771
:105640008093E800992309F455CEE981E150E331D4
:1056500008F047C1F0E0E855F04D0C94E42D80913E
:10566000C704843009F436C00E944E168091A90305
:1056700081110DC00E947013109211018091D50408
:105680008370809310010E949411F0921201609235
:10569000A903109298040FB6F894A8958092600020
:1056A0000FBE5092600083B7817F846083BF83B751
:1056B000816083BF7894889583B78E7F83BF0FB650
:1056C000F894A895809160008861809360001092A2
:1056D00060000FBE8091C604882369F00E945617AF
:1056E000E1E6F3E081919191892B09F01CC223E05E
:1056F000EB36F207B9F78091C704853009F4AFCFD4
:105700000E9417190E94AE051092A903FCCD782EB5
:10571000CC24C39454CE90E0FC01E858FC4FD9014E
:105720005C915183DB015C915187718A880F991FCD
:10573000FC01E858FC4F128E118E842F91E084CE2C
:10574000C394AA0CBB1C4FE0C41201CE0F5F1F4FC5
:105750000530110509F0ECCD8FEF89838A831B8218
:105760000E9414058160782F9D838C8349815A8122
:105770006B818D810E9458266ECED0927403C9CE63
:10578000D0927503CFCED09276030FCFD09277030D
:1057900015CF8091F100D8018D938D01B1E0EB1A06
:1057A000F10809F449CF8091E80085FDF2CF80919E
:1057B000E8008B778093E8000E949A03882399F38E
:1057C0003BCF1A8289E08B8323C08A81823009F41F
:1057D000C0C1833009F443C0813009F082C08FB763
:1057E000F8942091990430919A0440919B0450912F
:1057F0009C0429A33AA34BA35CA38FBF69A17AA100
:105800008BA19CA10E94EA2D6B837C838D839E8358
:105810008091C704843009F06DCD1091E9001F70AC
:105820009091EC00892F817090FD80E8182B82E028
:105830008093E9008091E80080FF0DC050E040E0D7
:1058400060E270E0CE0101960E94CB038091E800F7
:105850008E778093E8001F701093E9004BCD809104
:105860006103909162039827892798279C838B83F3
:1058700080916303909164039827892798279E83DA
:105880008D838091650390916603982789279827D7
:1058900098878F8380916703909168039827892761
:1058A00098279A8789878091690390916A0398273E
:1058B000892798279C878B87ABCF8A81823089F490
:1058C0008B819C81AD81BE8189A39AA3ABA3BCA32C
:1058D000BC01CD010E94EA2D86E290E00E94B32E29
:1058E00097CF8FEF898394CF4C816B818A810E94FF
:1058F00049129827892798279E838D8389CF0D8108
:105900001E811027012710278A81EB809EE1E99EE6
:1059100070011124A6E98A9FE00CF11C11248C81EE
:1059200090E0880F991FE80EF91E612FC701879636
:105930000E94B32E602FC7018896D0CF0E94CB1152
:1059400067CF8A81823879F1C0F48038F9F08138E4
:1059500009F05ECF60E08B810E944D068B81811142
:105960001FC08091D504837011F0109212018091B4
:10597000D5048C7F8093D5044BCF833809F048CF72
:105980008B8120E04091D8046C8106C08091D604C0
:1059900020E04B816091D70490E00E94F10538CF60
:1059A0000E947E0635CF8B818093D90431CF8A81C6
:1059B0008238C1F050F4803891F0813809F028CF56
:1059C0008091D50486958695FECE833809F020CF48
:1059D0008091D6048B838091D7048C8319CF8091DA
:1059E000D804F1CE8091D904EECE0E94431610CF98
:1059F00080E18A830DCFDA8281E8E5CE0A811B81BE
:105A0000102701271027FE0131967F01AC809F01EE
:105A10002A0D311D5901C80181589D4FAE14BF0494
:105A200009F4F6CE013831E0130758F40E948F2EA6
:105A3000D70114968C930F5F1F4FFFEFEF1AFF0AE9
:105A4000EACFF7011482F7CF0A811B8110270127C3
:105A500010279E012F5F3F4F5901EC80E00EF12E81
:105A6000F11CC80181589D4F0E151F0509F4D0CEB9
:105A7000013831E0130728F4D50114966C910E9487
:105A8000B32EBFEFAB1ABB0A0F5F1F4FEACF0E94C6
:105A9000BB11BECE84E0ADCF0A811B811027012748
:105AA0001027FE0131967F01AC809F012A0D311D28
:105AB0005901C8018796AE14BF0409F4A9CE083570
:105AC00032E0130758F40E948F2ED70114968C935E
:105AD0000F5F1F4FFFEFEF1AFF0AEBCFF7011482A2
