:100000000C9465040C949D040C949D040C949D0424
:100010000C949D040C949D040C949D040C949D04DC
:100020000C949D040C949D040C94D62C0C94922C4E
:100030000C94D22D0C949D040C949D040C949D045E
:100040000C949D040C949D040C949D040C949D04AC
:100050000C949D040C94AE2D0C949D040C949D0462
:100060000C949D040C949D040C949D040C949D048C
:100070000C949D040C949D040C949D040C949D047C
:100080000C949D040C949D040C949D040C949D046C
:100090000C949D040C949D040C949D040C949D045C
:1000A0000C949D040C949D040C949D04050109027C
:1000B000A10185020901A100050919012905150001
:1000C00025019505750181029501750381010501E1
:1000D000093009311581257F950275088106093897
:1000E0001581257F950175088106050C0A380215D2
:1000F00081257F950175088106C0C005010980A191
:1001000001850319012AB700150126B7009501756D
:10011000108100C0050C0901A101850419012AA064
:1001200002150126A002950175108100C005010984
:1001300006A1018506050719E029E71500250195A7
:1001400008750181020507190029EF1500250195A1
:10015000F0750181020508190129059505750191C0
:1001600002950175039101C00660FF0961A10109B3
:1001700062150026FF0095207508810209631500AD
:1001800026FF00952075089102C005010906A1010E
:10019000050719E029E71500250195087501810279
:1001A0009501750881010507190029FF150026FF33
:1001B0000095067508810005081901290595057542
:1001C000019102950175039101C00000000000003B
:1001D000000000000000000000000000000000001F
:1001E00000000000000000000000000000007E0F82
:1001F00000D4FFFFFFC700000078000000000000EF
:1002000000002A2B28000000000000000000000071
:10021000000000000029000000002C1E34202122D4
:1002200024342627252E362D3738271E1F2021223D
:10023000232425263333362E37381F0405060708B6
:10024000090A0B0C0D0E0F101112131415161718A6
:10025000191A1B1C1D2F3130232D350405060708E4
:10026000090A0B0C0D0E0F10111213141516171886
:10027000191A1B1C1D2F3130354C69646F62616F78
:100280002F696434323A7669616C2028763764339A
:100290003937392900FD377A585A000004E6D6B4B8
:1002A000460200210116000000742FE5A3E0094179
:1002B00002BA5D003D888986D3DC0AE842C32492F5
:1002C00058ADD7A71A7C1BEDCC0D137364949C8E8C
:1002D000088F00EF7C178D59C7B09A6396765DBE84
:1002E00080D6C598FB6614B76576712CDB10E940A3
:1002F0000E35560D437D4D63206F159F9FB8DF93DC
:10030000B3C43FB2E3471EDA5C3B148297EACAC12A
:10031000603856BDC4C2F407679570DA6B9763F90D
:10032000A2BB3B3227A9F7B19ED432568B6C6DC469
:10033000FDF67455A17729C5E44C5F5F37E7EDE220
:10034000B3CD7D3FE55A2CD8AD1CD82BB5234B9EA1
:10035000979F8A9BB6185840D1BB472E625F1EAA52
:1003600014BC8B2D604113C63E9CF6C9E8D593782A
:10037000BA4D161968675524E6D5DCFB64611E6624
:100380008F681CC51E1D67CB5CC74ADD33A4D6D45D
:10039000C22E24FF0DA9BBC337E3994B7EDBB10707
:1003A0003C396C4D5EF5646818C6FA8E6B353EAB11
:1003B000B242D5AB0673F8646A487D9DDE075DE204
:1003C000380F32A46EEEABA543606C78041828FB9E
:1003D000113EB617AD801DBBA1BA27891C3179A487
:1003E0002B203989BD3AA301E500CC15DD3FEBF8A0
:1003F0001C08B5A2AD30917EEA151918B90FA96293
:10040000F686BCE76742F9647C19C70F2F90BF815D
:100410000BFBDD88911EB6E39F236A97FB05888658
:10042000CA1FBEA4D4811A77438C3BE43D82E3C14A
:10043000522AE198B6ABFAC055A602D7C994D82C77
:100440007C2A08C9B9194406395B764034E636611E
:10045000B2A3932276B9ED21B01CC754B7362EBD96
:10046000C0645D99B9207C9E8534BB429839EAA06E
:1004700029F0D3C14A45D0767095EFB81E15D8BD86
:10048000055A2BEB8505B4430EAACE416546331CB5
:100490005DF79D1740705E454B9E12C0181121EE0E
:1004A000E24EF5E948DF571DD3311B7B919AD5F217
:1004B0000585F583186BE6326183BCF5B584858FBD
:1004C000ED94AA5CDA3D96853B3FC1DF1E37EA8991
:1004D000B25D3AF1E3CA261307333CB4D1502FF78B
:1004E000965D43D0D5A53A03FAAA7D6C37BEDA14DF
:1004F000405DF552593B8375C9F1A003E494DCD209
:100500009018D0E9A8BD220A6CD27CF2E3961120A3
:10051000B39F54342FB7C2C5A19CC57504FD83C2D7
:10052000FBC3E6FDF5672EE5B99D633F0836F53A56
:10053000392F075534662BB1A297A89C44BF559517
:1005400088ADBD2685754F28694F5A937199628D84
:10055000776ED8BC274E692C120B8353ECB7888D6D
:10056000CC027A77B19E8EA4FB395C5B1000000050
:1005700000CC3DABB252150EB50001D605C212003B
:10058000000CF5340CB1C467FB02000000000459F4
:100590005A000101010101010101010202020202EE
:1005A000020202020303030303030303040404041B
:1005B00004040405050505050606060606070707E3
:1005C000070708080808090909090A0A0A0B0B0B9A
:1005D0000C0C0C0D0D0D0E0E0E0F0F0F1010111137
:1005E00011121213131414151516161717181819BB
:1005F000191A1A1B1B1C1D1D1E1E1F202021222222
:10060000232424252626272829292A2B2C2D2D2E64
:100610002F30313232333435363738393A3B3C3D7E
:100620003E3F404142434445464748494A4C4D4E6F
:100630004F50515354555658595A5B5D5E5F616235
:1006400064656668696B6C6D6F7072737577787AC4
:100650007B7D7E8082838587888A8C8E8F9193951F
:1006600096989A9C9EA0A2A3A5A7A9ABADAFB1B343
:10067000B5B7BABCBEC0C2C4C6C9CBCDCFD1D4D623
:10068000D8DBDDDFE2E4E7E9EBEEF0F3F5F8FAFDC5
:10069000FF165C14001A000800150017001C001853
:1006A000000C00120013002A002B000400160007A3
:1006B0000009000A000B000D000E000F00000028CA
:1006C00000E1001D001B00060019000500110010CC
:1006D00000E500000052004C00E000E300E2002CC6
:1006E0004200000000105F00000000500051004F69
:1006F0000035001E001F00200021002200230024DE
:100700000025002600270001000100000000000075
:100710000000002D002E002F0030003100000001ED
:1007200000010000000000330034003600370038BC
:1007300000010000004B004900010001000100031E
:1007400051000000000100000000004A004E004D72
:100750000029003A003B003C003D003E003F0040C5
:1007600000410042004300010001000000000000C1
:10077000000000440045004600470048000000011A
:100780000001000000000000000000000000000068
:100790000065000000A900A800E400E700E60001F1
:1007A0000000000000010000000000AD00AA00AE43
:1007B000000100000000000000005C0000000000DC
:1007C0000000000000000001000100C25CC35CC624
:1007D0005CC55CC85CC75C00000000000000000154
:1007E000000100C45C00000000895F0000145C0090
:1007F0000000000000C95C000001000100010001D0
:100800000000000000010000000000CC5CCA5CCBCE
:100810005C09025B00030100A0FA09040000010367
:100820000101000921110100012240000705810397
:10083000080002090401000203000000092111015F
:10084000000122220007058203200001070503039F
:100850002000010904020001030000000921110128
:10086000000122BC000705840320000212010002DF
:1008700000000008646942000001010203011C033A
:100880007600690061006C003A00660036003400B2
:10089000630032006200330063000000180341006F
:1008A000620061006300750073002000490044008D
:1008B0003400320000000E03490044004F004200A3
:1008C00041004F0000000403090411241FBECFEFB4
:1008D000DAE0DEBFCDBF04B603FE18C0809180040D
:1008E00090918104A0918204B09183048730904B51
:1008F000A740B04B59F410928004109281041092DA
:10090000820410928304E0E0F8E3099524E0AEE26B
:10091000B2E001C01D92A038B207E1F712E0A0E0FA
:10092000B1E0E4EFFDE602C005900D92AE32B107F2
:10093000D9F70E94F92D0C946B360C940000E8ED69
:10094000F0E080818E7F80831092E2001092DA00C6
:100950001092E100A0EEB0E08C9181608C938081D8
:100960008F77808319BCA7EDB0E08C918E7F8C933C
:1009700080818F7E808310921A0408952091E40074
:100980003091E50095E6A9012091EC00822F81705D
:1009900020FF06C08091E80080FF06C080E0089537
:1009A0002091E80022FD1AC080913F04882389F03D
:1009B000853089F08091EB0085FD0FC02091E40027
:1009C0003091E50042175307F9F29150E1F684E0C7
:1009D000089582E0089583E0089581E00895EF92FC
:1009E000FF920F931F93CF937C018B010E94BE0453
:1009F000C82F811117C08091E80085FD0BC0809140
:100A0000E8008E778093E8000E94BE04882399F363
:100A1000C82F08C0F70181917F018093F100015038
:100A2000110949F78C2FCF911F910F91FF90EF90F3
:100A300008958091410487FF13C08091E80082FFF0
:100A400006C08091E8008B778093E80004C0809115
:100A50003F048111F2CF089580913F048823D9F398
:100A60008091E80080FFF8CF8091E8008E77ECCF8E
:100A7000982F9093E900242F762F50E0891731F0BA
:100A80007091EC002091ED005091F00021FD07C025
:100A90009F5F973071F78093E90081E0089530916E
:100AA000EB003E7F3093EB003091ED003D7F3093C3
:100AB000ED003091EB0031603093EB007093EC006F
:100AC0002093ED005093F0002091EE0027FDE0CF41
:100AD00080E00895CF92DF92EF92FF920F931F93E1
:100AE000CF93DF93C8EDD0E088818F7E8883E7EDD8
:100AF000F0E080818160808384E082BF81E0809328
:100B00001A0488818E7F888302EE10E0F80110823B
:100B10001092DA0081EEC82ED12CF6011082888165
:100B20008F77888388818068888388818F7D888398
:100B300019BC10923F041092400410923E0410928F
:100B40003D0490EEE92EF12CF70180818B7F8083AC
:100B500088818160888342E060E080E00E943805FF
:100B6000F60180818E7F8083F8018081816080839F
:100B7000808188608083F70180818E7F8083888177
:100B800080618883DF91CF911F910F91FF90EF904B
:100B9000DF90CF900895FC01CB0120914704309164
:100BA00048042617370790F0009729F42091E800B1
:100BB0002E772093E80040E0009751F4411108C0DF
:100BC0008091E80082FF31C080E00895C901F3CF31
:100BD00020913F042223A9F12530A9F12091E800BA
:100BE00023FD2DC02091E80022FDEACF2091E800EE
:100BF00020FFE2CF3091F3002091F200009719F02E
:100C00002830310558F041E02830310509F040E046
:100C10002091E8002E772093E800CECF41914093B9
:100C2000F10001972F5F3F4FE9CF80913F04882368
:100C300041F0853041F08091E80083FFC1CF81E031
:100C4000089582E0089583E00895089580911C043A
:100C500008959C014FB7F89480911104909112046B
:100C6000A0911304B09114044FBF821B930B0895FD
:100C70002FB7F8948091110490911204A09113045D
:100C8000B09114042FBF08959C018091170188230F
:100C9000C9F08091150487FF15C0E62FE695E6950B
:100CA000E695603FE0F4E20FF32FF11D677081E0FD
:100CB00090E001C0880F6A95EAF7809592818923B8
:100CC00082830895F9013296285F3F4F819168131E
:100CD00003C0DF0111971C92E217F307B9F70895DB
:100CE0009C01809117018823C1F08091150487FF32
:100CF00014C0E62FE695E695E695603FF8F4E20F1E
:100D0000F32FF11D677021E030E001C0220F6A95DA
:100D1000EAF78281822B82830895F90132968FEF60
:100D200090E04191641751F08F3F19F4411101C0D7
:100D3000892F9F5F9630A9F78F3F09F40895280FF8
:100D4000311D87FD3A95F9016283089520910E04C3
:100D500030910F042817390771F090930F04809396
:100D60000E04E0910C04F0910D04309721F0008402
:100D7000F185E02D0994089520910A0430910B0427
:100D80002817390771F090930B0480930A04E091BF
:100D90000C04F0910D04309721F00680F781E02DCE
:100DA00009940895E0910C04F0910D04309721F01E
:100DB0000190F081E02D099480E00895FA018111FD
:100DC0000994FB01FDCFEEE1F3E081836083428370
:100DD000339693E0EC39F907C1F70895FC01EE0F63
:100DE000FF1FE80FF91FE25EFC4F618340832283FF
:100DF0000895EDE4F4E0248130E1231B08F420E0C1
:100E0000248380911D03816080931D030895EDE488
:100E1000F4E0248130E1230F08F42FEF2483809144
:100E20001D03816080931D030895922F20914D042E
:100E3000237071F080934E0460934F04453B08F09B
:100E400044EB4093500420911D03292B20931D0354
:100E50000895EDE4F4E0438120E1421B08F440E012
:100E6000818121E0628190E00C941507EDE4F4E0CB
:100E7000438120E1420F08F44FEF818121E062813C
:100E800090E00C941507EDE4F4E0628120E1621B30
:100E900008F460E0818121E0438190E00C94150723
:100EA000EDE4F4E0628120E1620F08F46FEF8181EC
:100EB00021E0438190E00C941507EDE4F4E081819A
:100EC00021E0438162818850990B0C941507EDE471
:100ED000F4E0818190E021E04381628108960C94E6
:100EE0001507262F90914D04937061F081110BC06E
:100EF000946090934D041092140160911D03622B35
:100F000060931D030895883210F09C69F2CF880F1A
:100F1000880F982BEECF90914D04969596958FEF74
:100F2000890F913009F487E261E00C947107809198
:100F30004D04869586958F5F883208F081E061E0E8
:100F40000C947107EF92FF920F93282FC701801B1B
:100F500091098F3F910519F010F08FEF90E0809587
:100F6000382F230F08F42FEF822F0F91FF90EF906F
:100F70000895EF92FF920F93282FC701801B9109CC
:100F80008F3F910519F010F08FEF90E0382F3095DA
:100F9000230F08F42FEF680F822F0F91FF90EF902F
:100FA0000895EF92FF920F93972FFA01B9019701DD
:100FB000093430F4201B31092F3F310519F010F0AE
:100FC0002FEF30E03896719740F0AB01485F5F4FEC
:100FD0004131510510F02FEF30E02095382F320FBE
:100FE00008F43FEF77FF02C06D5F7F4F75956795FF
:100FF0007595679580914E04680F792F832F0F9117
:10100000FF90EF900895EF92FF920F931F93E00EE1
:10101000F11C890137FF03C011950195110924E0E6
:10102000000F111F2A95E1F70F3F110519F014F079
:101030000FEF10E09A0157FF03C031952195310958
:1010400094E0220F331F9A95E1F7201731070CF433
:1010500089010E0D1F1D0F3F110519F010F00FEF44
:1010600010E00095282F200F08F42FEF822F1F91FA
:101070000F91FF90EF900895EF92FF920F93282F1A
:10108000C70135E0039F800D911D11248F3F91050D
:1010900019F010F08FEF90E08095382F230F08F4AF
:1010A0002FEF822F0F91FF90EF90089522E8241BDD
:1010B00008F420E0620F08954095282F429F412DAB
:1010C0001124842F0895E42FF0E0EE0FFF1FE05568
:1010D000FE4F9081921B97FD9195292F38E1239F18
:1010E000212D1124620F08950F931F93522F10E0AA
:1010F000F801EE0FFF1FE055FE4F9081905797FDCE
:101100009195000F111FF801E058FE4F01A9005200
:10111000110B50039001519F300D112408E310E092
:10112000091B110997FD13954003F001419FF00D34
:101130001124E20FF31F9F01220F331F2E0F3F1FB9
:1011400037FF02C021583F4F220F232F221F330B9E
:10115000620F1F910F9108950F931F93522F10E06C
:10116000F801EE0FFF1FE058FE4FA1A9A052BB0BE4
:101170009D015203F001539FF00D1124000F111F28
:10118000D801A055BE4F0C910057110B40039001A0
:10119000419F300D11242E0F3F1F37FF02C0215CED
:1011A0003F4F96E0359527959A95E1F7620F1F918D
:1011B0000F9108950F931F93522F10E0F801EE0F37
:1011C000FF1FE058FE4FA1A9A052BB0B9D01520387
:1011D000F001539FF00D1124000F111FD801A055ED
:1011E000BE4F0C910057110B40039001419F300DF1
:1011F00011242E0F3F1F37FF02C021583F4F220FEF
:10120000232F221F330B620F1F910F910895EF922E
:101210000F93972F23E0029FB001112475956795D6
:101220006E0D792F0F91EF900895322F50E0FA0153
:10123000EE0FFF1FE058FE4F91A9905297FD919538
:10124000440F551FFA01E055FE4F2081231B330B3D
:10125000290F311D97FD3A95620F0895E42FF0E0B4
:10126000EE0FFF1FE058FE4F61A9621B0895E42FA7
:10127000F0E0EE0FFF1FE055FE4F6081621B089506
:10128000622F0895582FA22FE42FF0E0EE0FFF1FDA
:10129000E055FE4F208134EE239F212D112490E054
:1012A00030E0245E3F4F2A1B310937FF03C03195E0
:1012B0002195310943E0220F331F4A95E1F7821B44
:1012C000930B97FD80E0282F259F212D1124822F3D
:1012D00008951F93172F922FE42FF0E0EE0FFF1FBA
:1012E000E055FE4F208134EE239F212D1124472FFE
:1012F00050E030E0245E3F4F291B310937FF03C027
:1013000031952195310993E0220F331F9A95E1F72A
:10131000421B530B57FD40E0742F719F712D112418
:101320001F9108950C94E3060C94EE06FC019B01BA
:10133000009729F480E077FF2BC080E80895AC0186
:1013400097FF04C044275527481B590BB901640F68
:10135000751F37FD10C0241B350BC901A5E0880F90
:10136000991FAA95E1F70E94DF3480E2861BF7FF00
:101370000FC081950895CB0165E0880F991F6A958C
:10138000E1F7BA01621B730B0E94DF3480E6EECFF7
:101390000895EF920F93CF93DF93D72FC82FBA0101
:1013A000C9010E190E949609602F681B7D2F8C2F92
:1013B000DF91CF910F91EF9008950F93CF93DF932B
:1013C000D72FC82FBA01C9010E949609682F600F54
:1013D0007D2F8C2FDF91CF910F910895EF920F9376
:1013E0001F93CF93DF93D62FC72F182FBA01C901B0
:1013F0000E19010F0E949609081B019F012D11244F
:101400006D2F7C2F802FDF91CF911F910F91EF9047
:101410000895EF920F931F93CF93DF93D62F172F3B
:10142000C82FBA01C9010E19010F0E949609702F29
:10143000781B719F712D11246D2F8C2FDF91CF910F
:101440001F910F91EF9008950F931F93CF93DF9308
:10145000D62FC72F182FBA01C901212F201B022F09
:101460000E949609982F990F990F282F291B200F5A
:10147000219F212D11246D2F7C2F822FDF91CF9161
:101480001F910F9108950F931F93CF93DF93D62F42
:10149000172FC82FBA01C901212F201B022F0E942C
:1014A0009609982F990F990F782F791B700F719FBC
:1014B000712D11246D2F8C2FDF91CF911F910F91E2
:1014C0000895982FE82F96FDE0952E2F2F7096FD0A
:1014D0002F5FE695E695E695E670F0E0E759FE4F5A
:1014E0008181829F802D212D112482958F702295DC
:1014F000207F822B2081820F97FD8195805808954F
:101500000F931F93CF93DF938B01D82FC42F822F7C
:101510000E94610AEC2FF0E0EE0FFF1FE055FE4F36
:1015200090819058980F97FD9195990F692F2CE015
:10153000629F612D1124600F712F8D2FDF91CF914C
:101540001F910F9108959C018230910508F4089530
:101550009FEF213E8EE1380740F4C90145E09695A2
:1015600087954A95E1F798E0980F61E0E62FE90F3B
:10157000FF27FF1FAF0155954795842F449FF0012A
:10158000459FF00DF00D11242E173F0738F49FEF03
:10159000940F961758F78FEF860F08954F3FE9F392
:1015A00061E0640FF6CF0F93CF93DF93D72FC82F4F
:1015B000F90147FD419528E330E0241B310947FD3F
:1015C0003395229FA001239F500D500D1124EE9FB3
:1015D000C001EF9F900D900D1124840F951F0E9464
:1015E000A30A982F990F692F680F600F7D2F8C2FFA
:1015F000DF91CF910F9108959C0190E080E0269FAC
:10160000812D369F800D911D11240895AF92BF92B8
:10161000CF92DF92EF92FF920F931F93CF93DF93BE
:10162000262F472FE82FF0E0EF56FA4F71110FC029
:101630006491862FE62F7E2FDF91CF911F910F911E
:10164000FF90EF90DF90CF90BF90AF900895E72E7E
:10165000F12CE49186E0689F80011124CFEFD0E067
:10166000C801BE010E94CB34DB0130E0220F331FE2
:1016700055E5569FC001579F900D1124281B390B2B
:10168000622F660F260FCE018E199F09E89F600119
:10169000E99FD00C11246D2D429FA0011124452FEC
:1016A0005527CE01841B950BE89FA001E99F500DA3
:1016B0001124852F5E01A21AB108AE9C9001AF9C47
:1016C000300DBE9C300D1124232F3327C21BD30BAA
:1016D000EC9F9001ED9F300D1124A330B105B1F0C6
:1016E0000C3F93E0190760F4A130B10599F012970F
:1016F000A9F00F3F110508F09ECF8D2D632F9BCFD2
:10170000A430B10571F01697C1F395CF652F8E2FD8
:10171000ED2D91CF6E2FE52F8D2D8DCF832F6E2F39
:10172000F7CF8E2FE32F87CF2F923F924F925F926A
:101730006F927F928F929F92AF92BF92CF92DF92E1
:10174000EF92FF920F931F93CF93DF93CDB7DEB746
:1017500029970FB6F894DEBF0FBECDBF282E6A833F
:101760007B832091180189E0289F802D11248E838E
:10177000875F89838C838B3210F03AE23C838091BF
:1017800053048D83FE81EF2FF0E0F987E887CF01C6
:10179000880F991F9C0120583E4F6901822D90E0CF
:1017A000FC013196FF83EE838C8198859817F0F0C9
:1017B00081E0E981EA3208F080E029960FB6F894DA
:1017C000DEBF0FBECDBFDF91CF911F910F91FF9074
:1017D000EF90DF90CF90BF90AF909F908F907F90D1
:1017E0006F905F904F903F902F900895E885F98516
:1017F000EC5FFD4F8081909119018923F1F04090B9
:101800004E0450904F042E813F812D5A3B4F390199
:10181000322C10E0FD813F16D0F020915004129F31
:10182000112D1124B201812F0E94060B462F672F24
:10183000282F888599850E949409288539852F5FEE
:101840003F4F3987288732E0C30ED11CADCFF3015B
:1018500081913F01F601A0A8A81ABB0881A8F30155
:101860008781881A9908AA9C9001AB9C300D300D95
:101870001124889CC001899C900D900D1124820F29
:10188000931F0E94A30A082F6091510421E0620F68
:1018900008F46FEFF301EE0FFF1FE355F440858965
:1018A00096890E94FC0A7C019401A501B201812F56
:1018B000EA81FB8109952B01182F3394ABCFCF928E
:1018C000DF92EF92FF920F931F93CF93DF938C01E0
:1018D000C091180189E0C89FC02D112429E0D22EA3
:1018E000DC0ECD2C2AE22D1510F49AE2C92E20919F
:1018F000510431E0230F08F42FEF30E050E040E0D6
:101900006FEF7FEF80E090E00E9408367901D0E031
:101910002C2FCC1570F081E0F9E2FD1508F480E081
:10192000DF91CF911F910F91FF90EF90DF90CF90BB
:101930000895FE01EC5FFD4F80819091190189238C
:1019400011F1409153044150042E000C550B47FFF8
:101950001CC0C7016091510421E0620F08F46FEFD1
:101960000E94FC0AAC0160914E0470914F0480917A
:101970005004F80109950E94060B462F672F282F67
:10198000CE010E9494092196C3CFFA01ED5AFB4F74
:10199000818982130AC0FA01EE0FFF1FED5AFB4F37
:1019A000818D928D8E159F05A8F241505109CFCFA0
:1019B000DF92EF92FF920F931F93CF93DF937C01FF
:1019C000C091180189E0C89FC02D112419E01C0F97
:1019D000D12E1B3210F08AE2D82E60915104669508
:1019E000669521E0620F08F46FEF809149049091B1
:1019F0004A040E94FC0A082FD0E0CD1560F081E077
:101A00001A3208F080E0DF91CF911F910F91FF9083
:101A1000EF90DF900895FE01EC5FFD4F8081909183
:101A20001901892391F060914E0470914F048091C7
:101A30005004202F4C2FF70109950E94060B462FCA
:101A4000672F282FCE010E9494092196D6CFBF92EE
:101A5000CF92DF92EF92FF920F931F93CF93DF937A
:101A600000D000D00F92CDB7DEB76C018091180185
:101A7000898389E09981989F802D11248B8399E037
:101A8000F92EF80EBF2CEAE2EF1510F48AE2B82E18
:101A900060915104669566958091490490914A043D
:101AA0000E94FC0A182F80E4810F0E94610A80586E
:101AB0008983812F0E94610A80588A839B81892FA4
:101AC00090E09D838C839C819B15A0F081E0E9E2EE
:101AD000EF1508F480E00F900F900F900F900F908B
:101AE000DF91CF911F910F91FF90EF90DF90CF90FA
:101AF000BF900895EC81FD81EC5FFD4F8081909156
:101B000019018923A9F060914E0470914F048091CE
:101B10005004E12E0C812A814981F60109950E9429
:101B2000060B462F672F282F8C819D810E949409D8
:101B30008C819D810196C5CF5F926F927F928F922B
:101B40009F92AF92BF92CF92DF92EF92FF920F934C
:101B50001F93CF93DF934C01C091180189E0C89F78
:101B6000C02D112419E01C0F512E1B3210F03AE247
:101B7000532E6091510466958091490490914A04D6
:101B80000E94FC0AF82ED0E0CE01880F991F9C011C
:101B900020583E4F6901C515A0F081E01A3208F0C7
:101BA00080E0DF91CF911F910F91FF90EF90DF9038
:101BB000CF90BF90AF909F908F907F906F905F90ED
:101BC0000895FE01EC5FFD4F8081909119018923FA
:101BD00079F1F60180A9282F2057330B590181A9EB
:101BE000E82FE052FF0B3F01AA9C9001AB9C300D07
:101BF000300D1124EE9FC001EF9F900D900D112428
:101C0000820F931F0E94A30A082F60914E047091C7
:101C10004F0480915004EF2C9301A501F401099524
:101C20000E94060B462F672F282FCE010E94940991
:101C3000F2E0CF0ED11C2196AECFAF92BF92CF92E1
:101C4000DF92EF92FF920F931F93CF93DF935C018C
:101C5000C091180189E0C89FC02D112419E01C0F04
:101C6000C12E1B3210F03AE2C32E609151046695EA
:101C70008091490490914A040E94FC0AD82ED0E039
:101C8000CE01880F991F9C0120583E4F7901CC1539
:101C900078F081E01A3208F080E0DF91CF911F9157
:101CA0000F91FF90EF90DF90CF90BF90AF9008958D
:101CB000FE01EC5FFD4F8081909119018923C1F0F5
:101CC000F70121A92052330B40A94057550B6091D1
:101CD0004E0470914F04809150040D2DF50109952B
:101CE0000E94060B462F672F282FCE010E949409D1
:101CF000F2E0EF0EF11C2196CACF0E943806209127
:101D0000EB023091EC02232B21F08093E7029093B9
:101D1000E8022091ED023091EE02232B21F0809316
:101D2000E5029093E602E0910C04F0910D043097E7
:101D300049F082E08093E9020480F581E02D89EE8C
:101D400092E0099408959091EB02803F59F48091BC
:101D5000EC0287FF0DC01092EC0291110BC01092A3
:101D6000E30208C0813F81F48091EC0218169CF3D5
:101D7000992381F08091ED029091EE02892B09F078
:101D800064C01092E2020895823F49F497FFF0CFB9
:101D90001092EB028091EC028111ECCFE0CF833FF7
:101DA00019F41916ACF3E4CF2091ED02893F29F420
:101DB0001216F4F61092ED02DBCF8A3F19F427FFDA
:101DC000D7CFF8CF2091EE028B3F29F427FFD0CF59
:101DD0001092EE02CDCF8C3F19F41216CCF3C8CF7F
:101DE000843F31F48091EA028E7F8093EA02C0CF73
:101DF000853F21F48091EA028D7FF7CF863F21F461
:101E00008091EA028B7FF1CF873F21F48091EA0233
:101E1000877FEBCF883F21F48091EA028F7EE5CF68
:101E20008D3F31F48091E4028E7F8093E402A0CF55
:101E30008E3F21F48091E4028D7FF7CF8F3F09F030
:101E400097CF8091E4028B7FF0CF08958091E402D8
:101E500080FD16C081FD16C082FD16C08091E20291
:101E60008823A1F0883280F428E0829FC0011124E9
:101E700068E270E00E94DF34862F672B39F0089506
:101E800082E0089584E0089588E0089581E008954F
:101E90008091E40280FD14C081FD14C082FD16C053
:101EA0008091E302882381F08E3180F420E5829FC7
:101EB000C00111246EE170E00E94DF34862F089586
:101EC00084E1089588E2089588E0089580E5089502
:101ED000803F31F40E94480F81958093EC02089571
:101EE000813F19F40E94480FF8CF823F31F40E94DD
:101EF000480F81958093EB020895833F19F40E9467
:101F0000480FF8CF893F29F40E94260F8093ED02F5
:101F100008958A3F21F40E94260F8195F7CF8B3FC9
:101F200031F40E94260F81958093EE0208958C3F34
:101F300019F40E94260FF8CF843F31F48091EA0211
:101F400081608093EA020895853F21F48091EA023E
:101F50008260F7CF863F21F48091EA028460F1CF5E
:101F6000873F21F48091EA028860EBCF883F21F41B
:101F70008091EA028061E5CF8D3F31F48091E402E7
:101F800081608093E40208958E3F21F48091E40201
:101F90008260F7CF8F3FB9F78091E4028460F1CF80
:101FA00080E00895F894E82FE295EF70F0E041A109
:101FB0008F7021E030E0B90102C0660F771F8A956B
:101FC000E2F7CB01962F9095942391A392A1892BB0
:101FD00082A3789408959091150492FF06C0282F4B
:101FE00028712830F9F4877F846093FF06C0282F7A
:101FF00028712831F1F4877E84612091160420FF36
:1020000006C0382F38713830D9F4877F816021FFBE
:1020100006C0282F28712831D1F4877E816194FD74
:10202000877E0895282F24712430F9F68B7F8860ED
:10203000DCCF282F2471243101F78B7E8861DDCF1E
:10204000382F3171313019F78E7F8860E0CF282F1B
:102050002171213121F78E7E8861E1CFCF93DF930B
:10206000EC01803E910509F460C050F58133910583
:1020700009F4A6C090F48932910509F49AC08A97B0
:1020800009F4A5C0C130D10509F462C0CE0104979E
:10209000813A910508F055C05BC089339105F1F193
:1020A00082389105D9F1C59709F47CC0C83AD105A9
:1020B00008F094C0C53AD10528F3A497D06448C06D
:1020C000843E910509F453C068F4823E9105E1F124
:1020D000833E910509F440C0CE01805E91090897C6
:1020E00080F536C0863E910509F44CC0873E9105C7
:1020F00009F44DC0811522E5920708F0AAC08115A8
:1021000031E5930708F0FAC08F3F910511F008F010
:1021100074C0803F910550F2D0651AC080911504BB
:102120008370B1F0C0EED0E013C08091150480FD43
:1021300012C19091160490FF0BC0C3EED0E084FF53
:1021400007C0D0E0C0E004C08091150482FDF5CF47
:10215000CE01DF91CF9108958091150482FDFEC0DC
:102160009091160490FDDECF84FFF2CFEACF8091EC
:10217000160481FFEDCF80911504C7EED0E084FDF9
:10218000E0CFE6CF8091150483FDF7CFE1CF8091BA
:10219000150483FDE6C09091160491FFE5CFC4EECF
:1021A000D0E0D6CF8091150485FFD2CFC9E2D0E030
:1021B000CFCF8091150485FFCBCFC5E3D0E0C8CF4A
:1021C0008091150486FFC4CFCAE2D0E0C1CF8091D0
:1021D000150486FFBDCFC1E3D0E0BACFCF3BD10518
:1021E00008F07ACFC85AD0E0CC0FDD1FC55DDE4FB6
:1021F0000990D881C02DD464ABCF811540E59407F8
:1022000060F4C11580E4D80708F075C0CE019A9536
:1022100081159F4108F49CCF94CFF4E09695879563
:10222000FA95E1F783702C2F26952695237040E2CE
:10223000249F90011124382B8C2F8370C1E0D0E0B3
:1022400002C0CC0FDD1F8A95E2F7C22BD32BDC68CE
:102250007FCFC11586E5D80730F5C11595E5D907BB
:1022600008F060C0C11524E5D207C0F49C2F9695F4
:1022700096959E0123703327C115D34508F043C0BE
:10228000C1E0D0E002C0CC0FDD1F2A95E2F720E2CA
:10229000929FC0011124C82BD92BD9CFDC2FCC277A
:1022A000C46FD06A55CFC1153AE5D30788F4C1157C
:1022B00049E5D40708F041C0CE0198558F3F9105FC
:1022C00011F008F03ECFDC2FCC27C06FD06A40CF92
:1022D000CE0190568115904208F033CF8D2F8F712B
:1022E0000E94EB0F90E0982F882788279F719C0110
:1022F0002C2BE90120C0DF70D06A2ACFD82FCC2741
:10230000C16FD06A25CFC1E0D0E002C0CC0FDD1F85
:102310002A95E2F730E2939FC0011124C82BD92BF4
:10232000DA6816CF8C2F0E94EB0FC82FD0E0DC2F7D
:10233000CC27CC27DF71D0620BCF8C2F8F700E94FF
:10234000EB0F34E0D695C7953A95E1F7CF70DC2FC7
:10235000C82FD069FDCEC9E3D0E0FACEC2EED0E0FE
:10236000F7CEC6EED0E0F4CE8091C102882331F0E2
:102370001092C1021092C0021092BF020895982FCD
:1023800090958091AF0389238093AF030895982F90
:1023900090958091AE0389238093AE0308951092A7
:1023A0009E0210929D0210929C02089580919B02C1
:1023B000811110929B02089580919A029091690276
:1023C000981301C008958F5F8770FACFE82F9E3F62
:1023D00041F18CE0989FE00D11249E2F9770E695B7
:1023E000E695E69583E0E89FF0011124EF5AFD4F52
:1023F00050E040E080E0219130E0092E02C03695A7
:1024000027950A94E2F721703327042E01C0220F8A
:102410000A94EAF7822B4F5F5F4F4330510559F71B
:10242000089580E00895E82F9E3F61F18CE0989F29
:10243000E00D11248E2F877041E001C0440F8A9572
:10244000EAF7E695E695E69583E0E89FF00111242A
:10245000EF5AFD4F30E020E070E05191DF0111971D
:10246000CB01022E02C0969587950A94E2F78170FF
:1024700081958527842385278C932F5F3F4F2330B9
:10248000310559F708959C019A9581159F4150F5A2
:10249000D901AA27B170F901EE27F270B9016627B8
:1024A0007470A9014427587034FF0EC080E1AB2B33
:1024B00009F480E0EF2B09F08062672B09F080645B
:1024C000452B89F08068089581E0AB2B09F480E00A
:1024D000EF2B09F08260672B09F08460452B19F01F
:1024E0008860089580E0089580931704709319041C
:1024F0006093180480913F048430F9F48093E900DC
:102500008FEF9091E800815095FD06C095ED9A956A
:10251000F1F700008111F5CF8091E80085FF0DC033
:1025200050E040E063E070E087E194E00E94EF0457
:102530008091E8008E778093E8000895BC0184E0E4
:102540000C947412BC0183E00C94741224E0209368
:10255000E9002FEF3091E800215035FD06C035ED40
:102560003A95F1F700002111F5CF2091E80025FF01
:102570000BC050E040E066E070E00E94EF04809104
:10258000E8008E778093E8000895CF93DF93D82FEB
:10259000C92F809117018823C1F18091150487FF0D
:1025A00034C060E284E08093E9008FEF9091E8000E
:1025B000815095FD06C095ED9A95F1F700008111C7
:1025C000F5CF8091E80085FF1DC08091170170E074
:1025D00050E040E0811104C050E040E068E070E06D
:1025E0008D2F9C2F0E94EF048091E8008E778093BE
:1025F000E80080E2ED2FFC2FADE1B4E001900D92F8
:102600008A95E1F7DF91CF91089568E081E0CBCF23
:1026100081E08093E00080E28093D8001092C900AE
:102620008FE19EE40197F1F700C0000087E090EB96
:10263000DC018093800490938104A0938204B09382
:10264000830488E19CE00FB6F894A895809360001D
:102650000FBE90936000FFCF239A35B1377F25B12D
:1026600028604FB7F8948EE193E0FC010196508109
:1026700068E025B9000000C057FF35B9550F0000CC
:1026800000C000C000C035B900C06A9591F753E0A2
:102690008C39950751F74FBF8FE594E00197F1F71B
:1026A00000C000000895CF93DF93CFECD1E060E04D
:1026B000CE010E94CC352196C11584E0D807B9F728
:1026C000DF91CF9108950F931F93CF93DF938901EB
:1026D000843048F5643038F54C3028F521153C45F8
:1026E00031F42091150130911601232BE1F0C42F14
:1026F000D0E0CC0FDD1F98E1699FC00DD11D1124E2
:1027000090E6899FC00DD11D1124612FCE018796BF
:102710000E94CC35602FCE018896DF91CF911F911A
:102720000F910C94CC35DF91CF911F910F910895AB
:10273000CF93C82F6FEF81116AE183E290E00E948E
:10274000CC356FEFC11164E784E290E00E94CC3594
:102750006FEFC1116DEC85E290E0CF910C94CC3518
:10276000CF93682FC92F84E090E00E94CC356C2F66
:1027700082E290E0CF910C94CC357F928F929F9221
:10278000AF92BF92CF92DF92EF92FF920F931F937F
:10279000CF93DF93CDB7DEB72A970FB6F894DEBF9D
:1027A0000FBECDBF809015019090160181E090E0A2
:1027B0009093160180931501B12CA12CE12C650199
:1027C000F12C15C0F80125913491472D6F2D8E2DD8
:1027D0000E9463130E5F1F4F73948CE07812F2CF48
:1027E0008CE0C80ED11CF39484E0F81639F0860111
:1027F000000F111F0F56194F712CE4CFE39480E3A3
:10280000A80EB11C84E0E812DACF1A8219821C8269
:102810001B821E821D8218861F8288EC90E09A8798
:1028200089874AE050E067EA71E0CE0101960E9494
:10283000F0354AE050E061EB71E0CE0101960E9474
:10284000F0354AE050E06BEB71E0CE0101960E945A
:10285000F0354AE050E065EC71E0CE0101960E944F
:10286000F03590921601809215012A960FB6F894D1
:10287000DEBF0FBECDBFDF91CF911F910F91FF90B3
:10288000EF90DF90CF90BF90AF909F908F907F9010
:10289000089580E00E94981360E086E290E00E9434
:1028A000CC350E94BD130E94531381E00C94981301
:1028B000282FCB01243068F43AE0239FB001112483
:1028C00069557E4F4AE050E00E949E3590E080E0DE
:1028D00008958FEF9FEF08958F929F92AF92BF92CE
:1028E000CF92DF92EF92FF920F931F93CF93DF93DC
:1028F000CDB7DEB72A970FB6F894DEBF0FBECDBFB7
:1029000002EB13E0F12CE12C8CEEC82E8BE2D82EDA
:1029100096E1A92E9CE2B92E26E4822E2BE2922E7D
:10292000F801D182C082B382A28295828482F58A24
:10293000E48ABE016F5F7F4F8E2D0E945814892B51
:1029400029F489859A85F801938B828BFFEFEF1A22
:10295000FF0A0A5E1F4F84E0E816F10409F72A9681
:102960000FB6F894DEBF0FBECDBFDF91CF911F91A0
:102970000F91FF90EF90DF90CF90BF90AF909F901E
:102980008F9008950F931F93CF93DF93843030F58A
:10299000643020F54C3010F5C42FD0E0CC0FDD1F93
:1029A00028E1629FC00DD11D112430E6839FC00D28
:1029B000D11D1124CE0187960E94AE35082F10E05C
:1029C000102F0027CE0188960E94AE359801282B43
:1029D000C901DF91CF911F910F91089590E080E0A0
:1029E000F8CF462F672F2091AC033091AD03232BF6
:1029F00089F47E3F39F44E3F69F48091AA039091A7
:102A0000AB030895843030F4743020F44C3010F46B
:102A10000C94C21490E080E00895DF92EF92FF9250
:102A20000F931F93CF93DF937C0100917F048091DC
:102A3000C202082BC7E0D0E010E0DC2EC8010C2E4B
:102A400002C0959587950A94E2F780FD0CC0219706
:102A5000A0F7D12C8D2DDF91CF911F910F91FF9079
:102A6000EF90DF900895B7018C2F0E94F1140E941F
:102A70002E10019761F3EECFCF93DF93D82FC92F9C
:102A80000E940D156D2F7C2F0E94F114DF91CF91C4
:102A90000C942E10FC01808191810E943C15282FFE
:102AA00092959F70963091F060F4925F9F70923093
:102AB00030F481E0203F81F030F4283E30F080E0B7
:102AC00008959A5FF3CF243FD1F7089581E0283E1F
:102AD000E0F3213FA1F7F9CF089583E290E00E944F
:102AE000AE358A3189F484E290E00E94AE358437B5
:102AF00059F485E290E00E94AE3591E08D3C09F0FA
:102B000090E0892F8170089580E0FCCFCF9384E01E
:102B100090E00E94AE35C82F82E290E00E94AE3570
:102B2000982F8C2FCF9108951F93CF93DF93EC01B3
:102B3000FC01EC5FFD4F80816823C9F00E9468357D
:102B4000182F0E946835782F7F7720E8720F08F4DD
:102B50007FEF612F809150040E94060B462F672F54
:102B6000282FCE01DF91CF911F910C949409DF9112
:102B7000CF911F910895DF92EF92FF920F931F93D1
:102B8000CF93DF93EC01FC01EC5FFD4F8081682364
:102B900081F1D0904F040091500410914E04E12E29
:102BA000F12C0E946835282FC7018C549F4F68E68E
:102BB00071E00E94DF348E199F0997FD0396959569
:102BC0008795959587952370612F289F600D112417
:102BD0007D2D802F0E94060B462F672F282FCE01B8
:102BE000DF91CF911F910F91FF90EF90DF900C94A8
:102BF0009409DF91CF911F910F91FF90EF90DF909B
:102C000008959F92AF92BF92CF92DF92EF92FF9280
:102C10000F931F93CF93DF93182F8091130181138C
:102C200023C090914D0493702091120130E081E017
:102C30009217130609F480E0817080931A01809145
:102C4000520490911901981739F08093190140E0CE
:102C500060E080E00E949209183260F4E12FF0E019
:102C6000E359F94C0C94F33481E0E6CF80911A01DA
:102C7000811102C0C0E098C140E060E080E00E94A5
:102C80009209F8CFC091180189E0C89FC02D112486
:102C900009E00C0FC02E0B3210F0AAE2CA2E609190
:102CA0004E0470914F04809150040E94060BF62E42
:102CB000E72ED82ED0E0CC1528F0C1E00A3208F477
:102CC00073C1D8CFFE01EC5FFD4F80819091190157
:102CD000892331F02D2D4F2D6E2DCE010E949409A8
:102CE0002196E9CFC091180189E0C89FC02D112419
:102CF00009E00C0F902E0B3210F0FAE29F2EB090EC
:102D00004F04C0905004D0914E046D2F7B2D8C2D1C
:102D10000E94060BF62EE72ED82E609151046D0FFF
:102D20007B2D8C2D0E94060BC62EB72EA82ED0E030
:102D3000C91518F6FE01EC5FFD4F908180911901D5
:102D4000892359F02A2D4C2D6B2D90FD03C02D2D7C
:102D50004F2D6E2DCE010E9494092196E9CFC0918E
:102D6000180189E0C89FC02D112409E00C0FE02E46
:102D70000B3210F0EAE2EE2ED0904F04C0905004D7
:102D80002091510470E4F72E3F2D329F312D1124F4
:102D9000F32ED0E0CE1508F090CFFE01EC5FFD4F92
:102DA0008081909119018923B9F0FE01EE0FFF1F78
:102DB000E058FE4F81A982958F7060914E048F9DDF
:102DC000600D11247D2D8C2D0E94060B462F672F40
:102DD000282FCE010E9494092196DCCFC0911801C2
:102DE00089E0C89FC02D112409E00C0FE02E0B32A2
:102DF00010F05AE2E52ED0904F04C090500420917C
:102E0000510440E4F42E3F2D329F312D1124F32E36
:102E1000D0E0CE1508F051CFFE01EC5FFD4F808170
:102E2000909119018923D9F0FE01EE0FFF1FE058A0
:102E3000FE4F60A9F69EB001112435E075956795A7
:102E40003A95E1F780914E04680F7D2D8C2D0E94FC
:102E5000060B462F672F282FCE010E94940921963A
:102E6000D8CFC091180189E0C89FC02D112409E076
:102E70000C0FC02E0B3210F09AE2C92EF0904E04C7
:102E8000D0914F04E090500460915104669566958E
:102E900066958091490490914A040E94FC0A0E9420
:102EA000610A90E8980F97FD9195990F292F3E2D73
:102EB000239F212D11246F2D7D2F822F0E94060B21
:102EC000F62EE72ED82ED0E0CC1508F0F6CEFE0177
:102ED000EC5FFD4F808190911901892331F02D2DF8
:102EE0004F2D6E2DCE010E9494092196EDCF89E6DB
:102EF00099E00E94D80C07C082E499E0FACF83E4FD
:102F00009AE00E941D0EC82F4FC084E29AE0F9CFCC
:102F100089E09AE00E949C0DF6CF8EEE99E0FACF00
:102F200080E499E0E6CF87E399E0E3CF8EE299E091
:102F3000E0CF85E199E0DDCF87E099E0EBCF83ED4D
:102F40009AE0DFCF8DED99E0DCCF89EC99E0E2CF1C
:102F50008AED98E00E94270DD6CF8CEA98E0FACF50
:102F600084E798E0F7CFC0911A01C1113CC060918D
:102F7000510420E1620F08F46FEF809149049091B1
:102F80004A040E94FC0A6AE070E00E94CB34892B5C
:102F900009F070CE0E9468356AE270E00E94DF346A
:102FA000609119010E94BB15809118018F5F809379
:102FB0001801C1110CC082E08093140180911A01A4
:102FC000811105C0111103C083E080931401DF91CA
:102FD000CF911F910F91FF90EF90DF90CF90BF9016
:102FE000AF909F900895C091180189E0C89FC02DAF
:102FF000112409E00C0F802F0B3208F08AE2D0E098
:10300000E82EF12CCE15DF050CF057CE609119019A
:10301000CE010E94BB152196F5CFC0911A01C111B6
:103020001EC06091510420E1620F08F46FEF80919F
:10303000490490914A040E94FC0A65E070E00E94F5
:10304000CB34892B09F016CE0E9468356AE270E015
:103050000E94DF34609119010E949415A5CFC091A0
:10306000180189E0C89FC02D112409E00C0F802FA2
:103070000B3208F08AE2D0E0E82EF12CCE15DF0505
:103080000CF01BCE60911901CE010E94941521967F
:10309000F5CFC091180189E0C89FC02D1124D9E057
:1030A000DC0FDD2EDB3210F08AE2D82EE0904F04E8
:1030B000F090500400914E0460915104669566951D
:1030C00066958091490490914A040E94FC0A0E94EE
:1030D000610A90E8980F97FD9195990F692F2CE060
:1030E000629F612D1124600F7E2D8F2D0E94060B93
:1030F000F62EE72E082FAC2EB12CAD1428F0C1E02F
:10310000DA3208F451CFB6CDF501EC5FFD4F808186
:1031100090911901892331F0202F4F2D6E2DC5017B
:103120000E9494093FEFA31AB30AE7CF80E89AE020
:10313000E0CE83E698E0DDCE8CE598E00E945F0C5F
:10314000E2CE86E598E0FACF2091530431E0231BCC
:1031500008F420E06CE378E0822F0E94940BD3CE39
:103160006CE378E080E0F9CF2091530431E0231B39
:1031700008F420E063E078E0EFCF63E078E0F2CF9E
:103180002091530431E0231B08F420E061ED77E047
:10319000E3CF61ED77E0E6CF2091530431E0231BCC
:1031A00008F420E069EB77E0D7CF69EB77E0DACF7E
:1031B0002091530431E0231B08F420E062EA77E019
:1031C000CBCF62EA77E0CECF46E050E06CE170E032
:1031D0008DE494E00E94BC3510921D0308958F92F7
:1031E0009F92AF92BF92CF92DF92EF92FF921F9386
:1031F000CF93DF938091180390911903A0911A0344
:10320000B0911B032FB7F894809011049090120492
:10321000A0901304B09014042FBF75016401C81A64
:10322000D90AEA0AFB0A2FB7F89440911104509189
:10323000120460911304709114042FBF409318037B
:103240005093190360931A0370931B031091EF02BC
:10325000EFEEF2E0C12FD0E00197AF4FBF4F8819DA
:103260009909AA09BB091D132DC0C093EF028091D3
:103270001C0381113AC090914D04892F837019F07D
:10328000892F8695869590911401923009F44AC051
:1032900070F591113AC0109218014093490450936F
:1032A0004A0460934B0470934C0489E2EFEEF2E021
:1032B000A3E5B4E001900D928A95E1F781E0809357
:1032C000140117C0218D328D4901B12CA12C881514
:1032D0009905AA05BB0520F4C150DF5F3296C3CF24
:1032E0002C0D3D1D328F218FF8CF80E0CCCF933055
:1032F00021F1DF91CF911F91FF90EF90DF90CF9060
:10330000BF90AF909F908F900895DF91CF911F91C4
:10331000FF90EF90DF90CF90BF90AF909F908F90F5
:103320000C9401168093130180914D048370809357
:1033300012010E942C1383E0C2CF80911D038111E2
:103340000E94E4184091490450914A0460914B0452
:1033500070914C042FB7F89480911104909112044D
:10336000A0911304B09114042FBF841B950BA60BDE
:10337000B70B4097A105B10508F4BBCF109214011B
:10338000B8CFEDE4F4E085E3808380911B01909158
:103390001C01A0911D0181839283A3838FE7848305
:1033A0008FEF85830C94E4186F927F928F929F9297
:1033B000AF92BF92CF92DF92EF92FF920F931F9343
:1033C000CF93DF93CDB7DEB728970FB6F894DEBF63
:1033D0000FBECDBF8E010F5F1F4F88E0F801119225
:1033E0008A95E9F799E5E92E91E0F92E68012DE536
:1033F000622E21E0722E88248394912CF701819112
:103400007F018F3F09F446C0F894E82FE295EF70F2
:10341000F0E021A18F70A40102C0440F551F8A95CE
:10342000E2F7CA01922F982B91A392A1809589234C
:1034300082A3789400C0EDE5F1E021E030E0B12C0A
:10344000A12C41914F3F09F478C0A42FA295AF70F1
:10345000B0E090968C9190E04F7002C09595879562
:103460004A95E2F780FD69C0C901A82AB92A220F4E
:10347000331F51E0E936F50721F7F70131978081D5
:103480008F3F11F00E94D20F80EA8A95F1F7F60182
:10349000B182A082F2E0CF0ED11C6E147F0409F03D
:1034A000ADCF48E050E0B80186EC92E00E94813553
:1034B0009C01FF24F394892B09F4F12C232B09F4AC
:1034C0003FC088E0F801A6ECB2E001900D928A9529
:1034D000E1F781E08093C5020E9438069093C40210
:1034E0008093C3028091C3029091C4020E94290676
:1034F000059750F18091C6029091C7029093DB022C
:103500008093DA028091C8029091C9029093DD0203
:103510008093DC028091CA029091CB029093DF02EB
:103520008093DE028091CC029091CD029093E102D3
:103530008093E0021092C50207C090E080E095CF32
:103540008091C5028111CECF8F2D28960FB6F894A9
:10355000DEBF0FBECDBFDF91CF911F910F91FF90C6
:10356000EF90DF90CF90BF90AF909F908F907F9023
:103570006F9008958091AE039091AF03892B809353
:1035800030028091C102882329F10E9438062091DF
:10359000BF023091C002821B930B8838934110F018
:1035A0000E94B411809130029091C102892B8093C6
:1035B0003002809117018823D9F18091150487FF8B
:1035C00037C08EE1E2E3F2E090E0815098F591118E
:1035D0000E94B41140E250E06FE972E080E392E0B3
:1035E0000E948135892B59F180E2E0E3F2E0AFE9F6
:1035F000B2E001900D928A95E1F7E0910C04F09110
:103600000D043097E1F080911701882359F08091E3
:10361000150487FF07C0809130028093310286E055
:10362000809330020280F381E02D80E392E00994E0
:1036300086E0C8CF2191222341F29F5FC6CF089533
:10364000EF92FF920F931F93CF93DF93EC018A8544
:10365000811134C0EB80FC8087E5F81A26E12E9DAD
:10366000C0012F9D900D1124DC01AE54BC4F149667
:10367000ED91FC911597309731F054966D917C91B6
:1036800088549C4F099586E18E9D80018F9D100D79
:1036900011240E541C4FF80187810E94C711F801B4
:1036A00080850E94BF110E94BA1A188219861B8653
:1036B0001E821D821092B1031092B003DF91CF9150
:1036C0001F910F91FF90EF900895CF93DF93EC013E
:1036D000898981111BC081E0898B8091AE039F8114
:1036E000892B8093AE038091AF039885892B8093BB
:1036F000AF030E94BA1AEA81FB81309739F06C89D6
:103700007D89CE010696DF91CF910994DF91CF910B
:10371000089590E080E00E94BC0690E080E00E9466
:10372000A6061092AF030E94BA1A86E0E9EEF2E014
:10373000DF011D928A95E9F71092E3021092E202EE
:103740001092E4020C947D0E80937F040C94891BEC
:1037500080917F04982F9670963019F488600C94AD
:10376000A41B877FFCCF21E030E001C0220F8A95A7
:10377000EAF7209580917F0482230C94A41B9091FA
:103780009E028095892380939E02282F277091F4B2
:10379000282F082E000C330B9217130659F0909126
:1037A000160492FD07C08595859585950E94B31BEB
:1037B0000C94CF1108959091160492FB222720F9C2
:1037C000281769F080FB92F99093160480911504F4
:1037D000909116040E94B01382E00C94BF1B0895D0
:1037E00021E030E001C0220F8A95EAF780917F0442
:1037F000822B0C94A41B9091160492FD10C098E0AB
:10380000899F90011124622B60939E020E94F01BFD
:103810000E94380690939D0280939C0208950C9418
:10382000F01B8093C2020C94891B1092AE0380910E
:103830001701E2E3F2E0882359F08091150487FF35
:1038400007C08EE1DF011D928A95E9F70C94891B70
:1038500086E0F8CF1F93CF93DF93CDB7DEB7AA975B
:103860000FB6F894DEBF0FBECDBF81E494E0FC013B
:1038700001962091F100208324E089349207B9F762
:1038800080914204893009F456C0C8F4823009F4AA
:10389000B3C0833009F482C0813071F18091E800B7
:1038A00083FF92C280914104909142049A3008F0C3
:1038B0008BC2E92FF0E0EB56F94C0C94F3348A30CC
:1038C00009F489C08B3051F780914104813231F77E
:1038D0008091450490914604892B01F78091E8007E
:1038E000877F8093E8000E941905809143048093AC
:1038F00017010E94151CD2CF80914104813A71F6C4
:103900008091E800877F8093E80080914504909142
:103910004604892B61F460E28DE194E070E00E943E
:10392000CB058091E8008B778093E800B7CF60E00B
:1039300090E080E0F3CF80914104813209F0AECF76
:1039400080914504909146048D7F892B09F0A6CF84
:103950008091E800877F8093E8008091E80082FFF3
:1039600018C09091F3008091F200029731F4809199
:10397000F100813011F0863021F48091F1008093C4
:103980001C048091E8008B778093E8000E94190561
:1039900085CF80913F048111E0CF80CF8091410499
:1039A000813A09F07BCF8091450490914604892BA0
:1039B00009F074CF8091E800877F8093E8008091C0
:1039C000E80080FFFCCF809117018093F100809187
:1039D000E8008E77D9CF80914104813209F05ECF23
:1039E0008091E800877F8093E8000E94190580910C
:1039F000440480931B0452CF80914104813A09F022
:103A00004DCF8091E800877F8093E8008091E800A7
:103A100080FFFCCF80911B04D8CF803899F082388A
:103A200009F0D2C1809145048F70873008F0CCC175
:103A30008093E9008091EB0085FB882780F9109244
:103A4000E90006C080913D0490913E04911182608E
:103A50009091E800977F9093E8008093F100109296
:103A6000F1008091E8008E77ABC1882309F499C1F9
:103A7000823009F0A9C18091430481119CC18091D9
:103A800045048F702FEF280F263008F09DC18093DA
:103A9000E9002091EB0020FF8EC1933031F480913A
:103AA000EB0080628093EB0086C19091EB00906107
:103AB0009093EB0021E030E001C0220F8A95EAF7F5
:103AC0002093EA001092EA008091EB008860EACF30
:103AD00081117AC1109143041F778091E3008078AF
:103AE000812B8093E3008091E800877F8093E8003A
:103AF0000E9419058091E80080FFFCCF8091E300CF
:103B000080688093E30082E0111183E080933F049A
:103B10005BC18058823008F057C1409143045091F6
:103B200044044C3D83E05807A1F583E08A838AE290
:103B300089834FB7F894DE01139620E03EE051E20E
:103B4000E32FF0E050935700E49120FF03C0E2958B
:103B5000EF703F5FEF708E2F90E0EA30C0F0C796B5
:103B60008D939D932F5F243159F74FBF8091E800CB
:103B7000877F8093E8006AE270E0CE0101960E94A0
:103B8000CB058091E8008B778093E8001DC1C0963B
:103B9000E7CF8091450490914604252F33272330A9
:103BA000310509F44AC078F52130310509F486C0A1
:103BB0008BE590E0E1E1F8E02230310509F004C145
:103BC0002091E800277F2093E8002091470430915E
:103BD00048048217930708F49C0140E02115310541
:103BE00009F071C041116FC08091E80082FDC9CF1A
:103BF00080913F04882329F2853019F28091E800F2
:103C000083FFF2CFBECF2132310509F448C0223202
:103C1000310509F0D9C08330910508F0D5C0FC0109
:103C2000EE0FFF1FEC58FE4F0190F081E02D8F58F2
:103C30009E4FDC018C9190E026C0CA01992742304A
:103C400031F18330910568F40097B1F0019709F0E4
:103C5000BBC0E6EBF8E0E4918E2F90E0E6EBF8E0F5
:103C600012C0039709F0B0C0EEE7F8E0E4918E2FA0
:103C700090E0EEE7F8E007C0E6ECF8E0E4918E2F84
:103C800090E0E6ECF8E0009709F49EC099CFECE9EB
:103C9000F8E0E4918E2F90E0ECE9F8E0F4CF833087
:103CA000910508F091C0880F991FFC01E658FE4F5E
:103CB0000190F081E02D89E090E082CF82E190E0F8
:103CC000ECE6F8E07DCF80913F04882309F459CFDA
:103CD000853009F456CF8091E80083FD52CF809162
:103CE000E80082FD81CF8091E80080FF77CF90913E
:103CF000F3008091F2002115310519F0883091050B
:103D000050F041E0089709F040E08091E8008E779C
:103D10008093E80063CF44914093F10031962150A5
:103D200031090196E8CF803809F04EC08091E80053
:103D3000877F8093E800809140048093F10091CECA
:103D4000811142C0109143041230F0F58091E800D7
:103D5000877F8093E800109340040E941905112387
:103D600011F084E005C08091E30087FDFACF81E087
:103D700080933F0442E061EC81E00E94380542E21A
:103D800061EC84E00E94380542E261EC82E00E942E
:103D9000380542E260EC83E00E94380580913F04E0
:103DA00013C080914304813079F481E0933009F0AD
:103DB00080E080933E041092E9008091E800877FC4
:103DC0008093E8000E9419058091E80083FF0AC0F3
:103DD0008091E800877F8093E8008091EB0080620B
:103DE0008093EB00AA960FB6F894DEBF0FBECDBF4E
:103DF000DF91CF911F910895882321F00E94BF1178
:103E00000C94BA1A0895882339F09091AF03892B46
:103E10008093AF030C94BA1A0895882321F00E946E
:103E2000C7110C94BA1A0895882339F09091AE0303
:103E3000892B8093AE030C94BA1A0895882379F1E4
:103E40009CEF980F913A38F4682F80E392E00E943B
:103E500044060C94BA1A90E2980F983050F4877088
:103E600091E001C0990F8A95EAF7892F0E94C71146
:103E7000F0CF9BE5980F933020F490E080E00C9415
:103E8000BC0698E5980F973120F490E080E00C9400
:103E9000A606803F20F00E94A30E0C947D0E08958C
:103EA000CF93C82F882309F46DC08CEF8C0F813A13
:103EB000B8F580911701882311F18091150487FFCF
:103EC0001EC0EC2FE695E695E695F0E0E05DFD4F2F
:103ED000828190E04C2F477021E030E002C0220F39
:103EE000331F4A95E2F782239323892B89F06C2FA5
:103EF00080E392E00E9444060E94BA1A09C0E2E3FD
:103F0000F2E08191C81799F322E0E833F207C9F78C
:103F10006C2F80E392E00E947006CF910C94BA1A45
:103F200080E28C0F883068F4C77021E030E001C077
:103F3000220FCA95EAF78091AE03822B8093AE03DD
:103F4000ECCF8BE58C0F833038F42C2F2452330BBD
:103F5000C901CF910C94BC06E8E5EC0FE73150F4B1
:103F6000F0E0EE0FFF1FE55DFE4F80819181CF9164
:103F70000C94A606C03F30F08C2F0E94680FCF91A2
:103F80000C947D0ECF9108950F931F93CF93C82F5C
:103F900010E000E0893311F400E510E08C2F0E945E
:103FA000501F0115110531F48C2FCF911F910F91E6
:103FB0000C941E1F8FE99FE00197F1F700C00000ED
:103FC00001501109EECFFF920F931F93CF93DF9310
:103FD000C62FD42F122FFC0182818823A9F0609371
:103FE0007E040E94380690937D0480937C04C77001
:103FF00081E001C0880FCA95EAF7DF91CF911F9148
:104000000F91FF900C94141F80917E04681334C0AC
:1040100080917C0490917D040E942906883C910542
:1040200058F500E20D0FCD17A9F0C770FF24F394E7
:104030008F2D01C0880FCA95EAF70E940D1F083026
:1040400048F48D2F877001C0FF0C8A95EAF78F2DF9
:104050000E94141F812F0E94C41F0830A0F4D77043
:1040600081E001C0880FDA95EAF7DF91CF911F91C7
:104070000F91FF900C940D1FC77081E001C0880F55
:10408000CA95EAF7F2CFDF91CF911F910F91FF9080
:104090000895DF92EF92FF920F931F93CF93DF93D8
:1040A000E82FF0E0E650FE4FD490282F2695269575
:1040B000269530E0F901E651FE4F0491877010E03B
:1040C000082E02C0159507950A94E2F70170112792
:1040D000F901E652FE4FE490F12C082E02C0F5944F
:1040E000E7940A94E2F791E0E922FF24F901E6530C
:1040F000FE4FC491D0E002C0D595C7958A95E2F7EE
:10410000C170DD270115110519F081EE0E94501FC5
:10411000E114F10419F086EE0E94501F8D2D0E94CB
:10412000C41FEF2819F086EE0E941E1F012B19F004
:1041300081EE0E941E1FCD2B51F08CE2DF91CF91BA
:104140001F910F91FF90EF90DF900C94C41FDF91AF
:10415000CF911F910F91FF90EF90DF9008951F93E3
:10416000CF93DF93EC011AE08881882309F43EC0E5
:104170008130C9F599818A81913029F422960E9473
:10418000C41F2196F1CF923021F422960E94501F35
:10419000F8CF933021F422960E941E1FF2CF943064
:1041A00011F02196EECF229630E020E0AE014F5F75
:1041B0005F4F8053990B8A30910550F0215031099F
:1041C00000F38FE99FE00197F1F700C00000F6CF00
:1041D000129FB001139F700D11249C01260F371FF1
:1041E0008981EA01E3CF0E944920CBCFDF91CF91B3
:1041F0001F91089590E080E00E94B635893E9E4F61
:1042000011F40C946D1580E0089569EE7EEF90E056
:1042100080E00E94EA3560E082E090E00E94CC35C8
:1042200060E083E090E00E94CC351092C20260E032
:1042300084E090E00E94CC3560E082E290E00E9451
:10424000CC3560E085E090E00E94CC3560E086E00F
:1042500090E00E94CC356FEF87E090E00E94CC3573
:1042600040E050E0BA0188E090E00E94DE3560E076
:104270008DE090E00E94CC3540E050E0BA0188E14A
:1042800090E00E94DE3560E087E190E00E94CC354E
:1042900040E050E0BA018CE190E00E94DE3570E031
:1042A00060E080E290E00E94EA3540E050E0BA0130
:1042B00088E190E00E94DE3580E00E9498130E9421
:1042C000491440E050E0BA018FE090E00E94DE35F2
:1042D00040E050E0BA0183E190E00C94DE357F923B
:1042E0008F929F92AF92BF92CF92DF92EF92FF9206
:1042F0000F931F93CF93DF9300D000D00F92CDB7D1
:10430000DEB77C01DC0113968D919C911497892B6B
:1043100039F08C9111969C9189238F3F09F077C6D3
:104320000F900F900F900F900F90DF91CF911F91F2
:104330000F91FF90EF90DF90CF90BF90AF909F9044
:104340008F907F9008950E940D15182F682F8981F6
:104350009A810E94131269817A81812F0E94F1143F
:104360008C01F701828181116DC0D70112968C9169
:104370008111A7C00031BFE51B0709F46CC10131F1
:10438000EFE51E0709F46FC10115E7E51E07A0F16F
:104390000115F8E51F0708F00EC6680127E5D21AD7
:1043A00060EA73E08C2D0E945814892B29F586E170
:1043B0008C9DF0018D9DF00D1124EE54FC4F8681F3
:1043C000813009F052C18091A0039091A103892B03
:1043D00099F08091A2039091A303892B69F08091B9
:1043E000A4039091A5032091A6033091A703822BEB
:1043F000932B892B09F443C1C80197558F3F910531
:1044000009F008F488C1033FFCE51F0709F420C246
:1044100008F005C2083D3CE5130709F415C228E27F
:1044200041E0093D8CE5180709F410C226E241EE8F
:1044300061EE073D9CE5190709F0B5C1C7010E946F
:10444000E31F51C08091100190911101019609F470
:104450008CCF72EBC72E73E0D72EB12CA12C9924F0
:10446000939480911001909111018A159B050CF491
:104470007CCFF60186818823E9F081859285081733
:10448000190739F48091B0039091B1030817190707
:1044900089F0D6011F969C921F971C961C930E9331
:1044A0001B97C6010E94651BC60106960E94201B31
:1044B0001092AF03BFEFAB1ABB0AE6E1CE0ED11CE0
:1044C000D0CF980122513F452031310508F069C510
:1044D0008FEF93E00E94AE3502516FEC862E992447
:1044E0009394882301F180919E02877009F418CF7C
:1044F000D70112968C91882309F412CF809116046B
:1045000082FD0ECF82E00E94BF1B0ACF8114F4E02F
:104510009F0649F3C4010E94AE35811101C00150CC
:104520002FEF821A920A0111F1CF80911E01909112
:104530001F01A0912001B091210189839A83AB834F
:10454000BC83BB24BA9484010F5F1F4FC4010E9437
:10455000AE3589831A82882331F2813009F071C027
:10456000640132E0C30ED11CC8010E94AE35182F81
:104570008A83882309F4B7CFC6010E94AE35082F7D
:104580008FEF810F833068F4640183E0C80ED11C83
:104590000B83002321F0CE0101960E94AF2046013B
:1045A000D2CF8BEF810F833020F5C40103960B83AC
:1045B0006C010023A1F36401A4E0CA0ED11C0E9487
:1045C000AE358C83882359F38B819C818130BFEF7A
:1045D0009B0710F0982F8827163029F0173031F0FC
:1045E0000E94E02BDCCF0E94972BD9CF0E94F72AA4
:1045F000D6CF1430A1F66401E4E0CE0ED11CC40184
:1046000003960E94AE35282F002309F46CCF88232F
:1046100009F469CF2150330BB29EA001B39E500D17
:104620001124202F2150330BC901840F951F0197AE
:1046300008F4B5CFAFE9BFE01197F1F700C0000073
:10464000F6CFCE0101960E94AF206801A8CF81E08D
:104650000E94F01B03C081E00E94B31B0E94A81BB4
:1046600042CF82E0F5CF82E0F7CF823009F0C4CEAE
:104670008091A4039091A503892B09F4BDCE26E176
:104680002C9DC0012D9D900D11248E549C4FDC015A
:1046900050961C920E94651BAFCE823041F4860179
:1046A0000E5F1F4FF80184910E94501FABC48330EE
:1046B00041F486010E5F1F4FF80184910E941E1F76
:1046C000A1C4843009F09EC486010E5F1F4FF8011B
:1046D000249190E080E0F80131962053330B2A308A
:1046E000310550F0019708F48DC4AFE9BFE0119790
:1046F000F1F700C00000F6CFB89EA001B99E500DA2
:104700001124C901840F951F24918F01E4CF0E94C9
:104710004920860177C4209110013091110128179A
:10472000390724F49093110180931001D701129658
:104730002C91129736E1389F5001399FB00C11240B
:10474000F501EE54FC4F6F01208B12969C918681EF
:10475000992309F459C0128701878F5F86830E94CD
:104760003806D6011E969C938E931D978091C102A8
:1047700017968C9317978091AF039091AE03892B76
:1047800018968C931897ED91FC911197309739F00A
:1047900054966D917C91C50188549C4F0995109356
:1047A000B1030093B003D70112968C91882309F4CA
:1047B00041C410927E040136BDE51B0761F008F08C
:1047C0006BC00631FCE51F0708F04AC002302CE53B
:1047D000120708F466C00E94861590931604809311
:1047E000150406318CE5180708F06FC002309CE50F
:1047F000190708F05DC080911504909116040E947D
:10480000B0130E94151C6FCE882369F2818988231A
:1048100051F2C50188549C4F0E94201BC4CF053F14
:10482000ACE51A07C9F027E245EE66EE063FBCE5A7
:104830001B0709F403CE27E245EE64EE043FECE5E6
:104840001E0709F4FBCDAFCF27E245EE65EEF6CDAE
:1048500026E241EE60EEF2CD26E241EE62EEEECDD2
:10486000C8018A5F9C45099708F4B5CF0631ECE58D
:104870001E07B9F48091AE038A7A91E009F490E0C2
:104880009093500269E2811165E380E392E00E9417
:1048900070060E94BA1A27CE053A3DE5130709F4BF
:1048A0009ACF0A35BDE51B0709F02DC181E049C14A
:1048B000F801E350FC45809115048160E331F10576
:1048C00030F5E156F94C0C94F3340330ADE51A079A
:1048D00078F40A3FBCE51B0708F48DCFF801EB5FC5
:1048E000FC45E830F10510F5EE54F94C0C94F33426
:1048F0000136EDE51E0709F496C090911504892F45
:104900008E7F90FF8160053A1D4509F074CF80933A
:10491000150471CF809115048260F9CF8091150440
:104920008460F5CF809115048860F1CF80911604E2
:104930008160809316045FCF809116048260F9CF66
:10494000809115048061E3CF809115048062DFCFF0
:10495000809115048064DBCF0E94151C80911504A2
:104960008068D5CF809115048C60D1CF80911604DA
:104970008360DFCF809115048E7FC9CF80911504AD
:104980008D7FC5CF809115048B7FC1CF8091150499
:10499000877FBDCF809116048E7FCBCF8091160488
:1049A0008D7FC7CF809115048F7EB1CF8091150484
:1049B0008F7DADCF809115048F7BA9CF0E94151CF0
:1049C000809115048F77A3CF80911504837F9FCFAB
:1049D000809116048C7FADCF8091150482FB9927BE
:1049E00090F921E0922790FB82F990FB83F98FCF19
:1049F00080911604982F909591708E7F892B90FB53
:104A000081F997CF0E94151C90911504892F97FB6F
:104A100087F980587CCF61E08EE090E00E94CC3531
:104A2000EACE60E0F9CF90911504892F8F7E94FF34
:104A300080616DCF8091500269E2811165E380E36E
:104A400092E00E94440625CF023C2CE5120708F4B0
:104A500002C3F801E35CFC45E331F10520F4E654C0
:104A6000F94C0C94F33480914D0491E089278093A4
:104A70004D041092140180911D03816080931D03E9
:104A800032CD4BE857E067E977E00E94DE062BCD98
:104A900047E957E06BE877E0F8CF4DE557E067E688
:104AA00077E0F3CF47E657E06DE577E0EECF43E4FC
:104AB00057E060E577E0E9CF40E557E063E477E071
:104AC000E4CF49E257E066E377E0DFCF46E357E023
:104AD00069E277E0DACF49EF56E067E077E0D5CFDB
:104AE00047E057E069EF76E0D0CF61E081E00E94D7
:104AF0007107F9CC61E085E0FACF61E08DE0F7CF96
:104B000061E082E1F4CF0B358DE5180758F401150B
:104B10009CE51907C9F00E3D1C4509F09CC20E9496
:104B20000521E1CC0B35BDE51B07D9F00C351D4542
:104B300009F091C28091160482FB882780F991E0E8
:104B400089270E94DB1B87C20E94151CFFEF24E30C
:104B50003CE0F15020403040E1F700C000000E94EE
:104B6000081380E0EECFC6010E94E611182F82C222
:104B7000B12FBF70DB2E107F19F0D29490EFD922A5
:104B8000802FCC20B9F0DD2069F090E2900F9830B2
:104B900010F0011109C08091AE03D82AD092AE0363
:104BA0000E94BA1A802F44C08091AF03D82AD092B5
:104BB000AF03F6CF0E941E1FDD20E1F1005E8D2DB8
:104BC000083010F0711003C00E94C71102C00E948B
:104BD000BF110E94BA1A2EC0E12FEF70DE2E107F97
:104BE000103219F0D29480EFD822772089F0F1E0CA
:104BF0007F1609F48AC0CC2009F493C0BB2009F4C5
:104C000068C0F701858180FFCDCF8F70858361C03B
:104C10008091160482FF38C0CC2079F1DD2039F074
:104C20008091AE03D82AD092AE030E94BA1A80E0D7
:104C30000E94501FF8E08F1A910824E08216910418
:104C400010F40E94D206AA2009F46ACB80919E0239
:104C500080FD66CBD70112961C928595859585952A
:104C60000E94F01BC7010E946F2180919E028595D2
:104C7000859585950E94B31B53CB80E00E941E1F33
:104C8000DD20C1F28D2DA0CFCC2039F1B11004C0B0
:104C90008091C1028D291EC021E0B21210C082FD98
:104CA000C9CF8091C102D82AD81621F20E943806B5
:104CB0009093C0028093BF02D092C102BBCF35E077
:104CC000B312E6CF0E94B41180919B02D812D09209
:104CD0009B028D2D0E94141FADCFB11006C00E9403
:104CE000B4118D2D0E940D1FA5CF81E0B81208C010
:104CF0008091AE038D2109F49DCF0E94D611EFCF94
:104D000095E0B91609F496CFEACFCC2029F0A5E0BA
:104D1000AB1508F48FCFDDCFB4E0BB1508F48ACF14
:104D2000E0CFBB20F1F2093349F4FFEF27EE33E087
:104D3000F15020403040E1F700C00000802F0E9479
:104D40001E1F78CF812F86958695837061F0813004
:104D500009F070CFC8019370C11002C090E080E0EC
:104D60000E94A60667CFC8019370C11002C090E0F0
:104D700080E00E94BC065ECF802FCC2029F00E94EC
:104D8000680F0E947D0E56CF0E94A30EFACF812F8E
:104D9000837091F5C1104ECF402F429546954770D4
:104DA000440F440F802F8F70042E01C0880F0A9487
:104DB000EAF7202F207104FF07C02FE030E001C088
:104DC000220F4A95EAF72095169516951370123022
:104DD00071F0133051F03091C202113029F0822B62
:104DE00083230E94111C26CF832B822BFACF282BE2
:104DF0008091C2028227F5CF8695CC2011F0812FB9
:104E00008170882309F416CF402F4295469547704C
:104E1000440F440F802F8F70042E01C0880F0A9416
:104E2000EAF7202F207104FF07C02FE030E001C017
:104E3000220F4A95EAF720951695169513701230B1
:104E400071F0133051F030917F04113029F0822B32
:104E500083230E94A41BEECE832B822BFACF282B18
:104E600080917F048227F5CF1F70CC2029F0812FFD
:104E70000E94F01B802F2ECF802F0E940D1F812FAC
:104E80000E94B31BD7CE802F92EF7916A9F1971508
:104E900070F0A0EF7A16D1F0B1EF7B1691F0CC2034
:104EA00009F46FC0B1107ECE812F8F7129C0E3EF5E
:104EB0007E1649F1F4EF7F12F2CF8091160482FF43
:104EC0002DC0812F8F71CC20D9F21AC0CC2079F05F
:104ED00024E02B1508F4AECE1F7181E090E001C0F4
:104EE000880F1A95EAF790917F048927B2CF35E0B1
:104EF0003B1508F49FCEF0CF812F8F71C110C0CF2A
:104F00000E94F01B97CE80E0CC2009F4A2CF1F7145
:104F100081E001C0880F1A95EAF79BCF80919B0230
:104F2000CC20D9F00E94C71180919E0287708430F6
:104F300041F40E94CF11812F8F710E94B31BA12CCD
:104F400079CE84E08B15D8F31F71812F0E94F01B5E
:104F500063E0812F0E94FB1BF2CF9091AE03982B50
:104F60009093AE0394E09B1540F40E94CF110E94F1
:104F7000D61164E0812F8F71EDCF81E00E94BF1BBD
:104F8000DECFBB2059F0893309F0D8CEAFEFB7EEB2
:104F9000E3E0A150B040E040E1F7CECE812F8F7129
:104FA0006FCF0031FFE51F0709F451CB01312FE529
:104FB000120709F456CB0938BFE51B0709F01CCAD4
:104FC0009091AE0391118FCA81118DCA3AE7C32E19
:104FD00032E0D32E4AE0B42EF6018491882309F4FE
:104FE00082CA813009F093CB86010F5F1F4FF80111
:104FF0008491813009F051CB0F5F1F4FF8018491EC
:105000000E94C41F6801EFEFCE1ADE0AE5CF85E0EB
:10501000F701DE01119601900D928A95E1F7D70113
:1050200012962C9189819A8121118DC90E94E611D5
:10503000182F91C90631FCE51F0709F4FBCC8091BC
:10504000AE038272063D2CE5120708F4FDCC0D3547
:105050001D4509F448CAF7018281C080D1808823A8
:1050600009F481CDC6010E940D15182F682FC601C5
:105070000E941312B601812F0E94F1140E942E107B
:105080008C01782ED7011296CC9012971596BC9071
:10509000B2942FE0B22280919E028770C1F0AC2CB6
:1050A000CC20B1F0812F807F803421F080E2800F0E
:1050B000883068F08091160482FD09C082E00E9469
:1050C000BF1B80919E028770AA24A3948111A12CFA
:1050D000812F82958F70882E912C8C3008F0AACD6C
:1050E000F401E353F94C0C94F3341F93CF93DF9303
:1050F00080916802807FA9F480916502882389F0FD
:1051000080919A02D0916902609163027091640269
:10511000A0916602B0916702C62FC72316E0D8138C
:1051200004C0DF91CF911F91089590E0109711F086
:10513000CF3F19F401968770F2CF189F9001199F05
:10514000300D1124F901E659FD4F41814713F2CF8B
:1051500040814613EFCF42814111ECCF438154810E
:105160004A1B5B0B483C510528F7809168028F7001
:10517000806180936802F901E159FD4F80818F7051
:105180008061808383E692E00E946F21DF91CF915E
:105190001F910C94DC11AF92BF92CF92DF92EF92ED
:1051A000FF920F931F93CF93DF93CDB7DEB72B976B
:1051B0000FB6F894DEBF0FBECDBF8C0185E0F801BD
:1051C000DE01179601900D928A95E1F7F801E280D1
:1051D00083E6A82E82E0B82E609166027091670285
:1051E0006115710509F41AC190916302409164023E
:1051F000842F89238F3F09F411C120813181C3801D
:10520000D480F0906502F601E61BF70BFF2009F44D
:10521000D0C080916802582F507FE83CF10508F01B
:10522000ABC0511177C0FE2C431321C092131FC095
:10523000E1101DC08F70806180936802C5010E94DB
:105240006F2180916802F80185838F2D2B960FB610
:10525000F894DEBF0FBECDBFDF91CF911F910F91AC
:10526000FF90EF90DF90CF90BF90AF900895CD2842
:1052700029F0822F83238F3F09F0EBC080E0F82FC5
:10528000F170DF2EE0919A024091690256E080FDB4
:105290001CC0EE20D1F28091680281608093680288
:1052A000F12CD3CF8E2F90E05E9FF0011124E659B0
:1052B000FD4F6181361306C06081261303C06281F1
:1052C000E612E7CFFC013196E770E413EBCF2F83B2
:1052D00038878F8198850E943C15292F22952F7041
:1052E000903260F0225F2F70223078F49F7051F07E
:1052F000F8019581907F31F4D12C0AC09F7011F094
:105300008823D1F3805E8830B8F3C8010E946F21F2
:10531000FD2C9BCF431306C0921304C0F801EE206E
:1053200009F461C0C8010E944A15882309F1EE20E2
:10533000F9F080916802803270F020916302309120
:1053400064023A8329831B82DD82CC828E83CE0164
:1053500001960E946F2186E0F801A3E6B2E0019079
:105360000D928A95E1F70E947528FF24F3946DCF82
:10537000C8010E946F21F9CF51110AC083E692E063
:105380000E946F2186E0F50111928A95E9F788CF96
:105390004313C8CF9213C6CFE110C4CFF801858361
:1053A000C8010E946F2186E0F50111928A95E9F704
:1053B0004CCFE83CF105B8F7FE2CEE20C9F24313C0
:1053C0001FC092131DC08091680280FD10C0982FED
:1053D000907F69F0F8018583903F31F0982F907F9E
:1053E000905F8F70892B8583C8010E946F2186E0B2
:1053F000F801A3E6B2E001900D928A95E1F725CF7E
:10540000C8010E944A158111A6CF8091680281606F
:1054100080936802C8010E946F2117CFEE2009F423
:10542000A7CFC8010E944A15F82E882309F4A0CFFF
:1054300086E0F801A3E6B2E001900D928A95E1F7CB
:1054400080916302909164020E943C150E9475282D
:10545000FCCE81E08E2513CFDF92EF92FF920F9367
:105460001F93CF93DF93CDB7DEB767970FB6F8944E
:10547000DEBF0FBECDBF4B8B5C8B162F6D8B7E8B33
:105480008F8B61111092AF031A8A85E0FE0173962B
:10549000DE011D9601900D928A95E1F70B89DC885B
:1054A000EE88FF888091160482FD1CC00E94380699
:1054B00020919C0230919D02821B930B883893416E
:1054C00020F080919E0282FF8EC00E9438062091BB
:1054D000BF023091C002821B930B8838934110F0B9
:1054E0000E94B4110D87DE861F87F98AE88A86E05C
:1054F000FE013D96DE01179601900D928A95E1F727
:10550000CE0107960E94CB288823A9F016E080914F
:105510009A0290916902891353C067960FB6F89466
:10552000DEBF0FBECDBFDF91CF911F910F91FF90D6
:10553000EF90DF90089586E0FE013796DE01119628
:1055400001900D928A95E1F74A855B8541155105D9
:10555000E9F27F816885862F87238F3FB9F22091FA
:10556000690230E0C901019687709927E0919A029B
:10557000E817190671F40E94151C10926902109226
:105580009A0286E0E3E6F2E0DF011D928A95E9F7F0
:10559000BDCF79836A835D834C8396E0929FD0016F
:1055A000939FB00D1124A659BD4FFE013196019075
:1055B0000D929A95E1F7809369020E94DC11A6CFC3
:1055C000819FC001112486599D4F0E94CB288823BA
:1055D00009F4A3CF80919A0290E0019687709927F1
:1055E00080939A0294CF82E00E94BF1B6ECF0F93EC
:1055F0001F93CF93DF9300D000D00F92CDB7DEB7CB
:105600008C019093AB038093AA03011580E21807E5
:1056100020F5802F0E941E1FC8010E94431298018E
:10562000205E31092830310510F0012B59F40F901C
:105630000F900F900F900F90DF91CF911F910F91CE
:105640000C940D1F0F900F900F900F900F90DF9103
:10565000CF911F910F910C94FC1E8EEF89838A834A
:105660001B820E9438068160782F9D838C8349813C
:105670005A816B818D810F900F900F900F900F903A
:10568000DF91CF911F910F910C942C2A0F931F93B0
:10569000CF93DF938C01EB0160EA73E08C2F0E94C3
:1056A0005814892B71F4DD27C456DC4F8881F8012A
:1056B00010821882833009F148F4813059F0823029
:1056C00081F0DF91CF911F910F9108958430D1F037
:1056D0008530B9F78091A0039091A103009789F3D9
:1056E00006C08091A2039091A303009799F3DF91E4
:1056F000CF911F910F910C94F72A8091A403909160
:10570000A503F3CF8091A6039091A703009779F7A3
:105710002091A0033091A1038091A2039091A30353
:1057200021153105D9F2009711F7C901E0CF0F9388
:105730001F93CF93DF9300D000D00F92CDB7DEB789
:105740008C019093AB038093AA03011580E21807A4
:10575000E8F4C8010E9443129801205E3109283004
:10576000310518F00115110571F40E94141F802FE6
:105770000F900F900F900F900F90DF91CF911F918E
:105780000F910C94501F0E94031FF1CF8EEF89835D
:105790008A8381E08B830E9438068160782F9D8305
:1057A0008C8349815A816B818D810F900F900F906E
:1057B0000F900F90DF91CF911F910F910C942C2A95
:1057C000CF93DF93D82FC92F0E94972B8D2F9C2F1B
:1057D000DF91CF910C94F72A0F931F93CF93DF9310
:1057E0008C01862F60EA73E00E945814892BC9F45B
:1057F000C091A003D091A103209799F0F801808176
:10580000833069F4CE010E94E02BCE010E94E02B90
:10581000CE01DF91CF911F910F910C94E02B84303A
:10582000B8F7DF91CF911F910F9108950F931F93B8
:10583000CF93DF938C01EB0160EA73E08C2F0E9421
:105840005814892B09F064C0FE01FF27D8018C9100
:10585000E456FC4F8130D9F419969C9119979923FD
:1058600011F080830CC01A969C919923D1F382E0A9
:1058700080838091A2039091A3030097D9F4809133
:10588000A0039091A103009709F442C013C0823095
:10589000E9F519968C91199781112DC01A968C9162
:1058A00081110EC083E080838091A4039091A503B1
:1058B000009719F1DF91CF911F910F910C94972BC5
:1058C00084E080838091A6039091A703009791F7CD
:1058D0008091A0039091A1030097F9F00E94E02B22
:1058E0008091A2039091A303009721F78091A003D8
:1058F0009091A103DFCF85E080838091A0039091F8
:10590000A103009729F00E94E02BF0CF86E080836E
:10591000DF91CF911F910F9108958091A2039091F3
:10592000A303B1CF1F920F920FB60F9211242F93A2
:105930003F934F935F936F937F938F939F93AF9317
:10594000BF93CF93DF93EF93FF93D091E900DF7084
:105950008091EC00C82FC17080FDC0E81092E90072
:105960008091F000877F8093F00078940E942A1C39
:105970001092E9008091F00088608093F000CD2BB8
:10598000CF70C093E900FF91EF91DF91CF91BF916C
:10599000AF919F918F917F916F915F914F913F91C7
:1059A0002F910F900FBE0F901F9018951F920F927E
:1059B0000FB60F9211242F933F934F935F936F93E2
:1059C0007F938F939F93AF93BF93EF93FF938091B8
:1059D000E10082FF09C08091E20082FF05C0809152
:1059E000E1008B7F8093E1008091DA0080FF24C08A
:1059F0008091D80080FF20C08091DA008E7F809354
:105A0000DA008091D90080FF9BC080E189BD82E1EE
:105A100089BD09B400FEFDCF81E080933F048091F1
:105A20001A04811109C00E949F040E946A05809196
:105A3000E20084608093E2008091E10080FF17C063
:105A40008091E20080FF13C08091E2008E7F8093FE
:105A5000E2008091E20080618093E2008091D800B2
:105A600080628093D80019BC85E080933F048091C8
:105A7000E10084FF29C08091E20084FF25C080E11D
:105A800089BD82E189BD09B400FEFDCF8091D800B7
:105A90008F7D8093D8008091E1008F7E8093E1001C
:105AA0008091E2008F7E8093E2008091E20081602D
:105AB0008093E20080914004882309F447C084E089
:105AC00080933F0480913F048091E10083FF27C0D1
:105AD0008091E20083FF23C08091E100877F809363
