:100000000C9442030C947A030C947A030C947A03B4
:100010000C947A030C947A030C947A030C947A036C
:100020000C947A030C947A030C9438270C94F426DD
:100030000C9434280C947A030C947A030C947A036D
:100040000C947A030C947A030C947A030C947A033C
:100050000C947A030C9410280C947A030C947A0371
:100060000C947A030C947A030C947A030C947A031C
:100070000C947A030C947A030C947A030C947A030C
:100080000C947A030C947A030C947A030C947A03FC
:100090000C947A030C947A030C947A030C947A03EC
:1000A0000C947A030C947A030C947A0305010902E8
:1000B000A10185020901A1000509190129081500FE
:1000C0002501950875018102050109300931158165
:1000D000257F95027508810609381581257F9501D0
:1000E00075088106050C0A38021581257F95017572
:1000F000088106C0C005010980A101850319012AF4
:10010000B700150126B700950175108100C0050CD8
:100110000901A101850419012AA002150126A002E6
:10012000950175108100C005010906A1018506052C
:100130000719E029E71500250195087501810205D9
:1001400007190029EF1500250195F07501810205B9
:10015000081901290595057501910295017503910D
:1001600001C00660FF0961A1010962150026FF00B8
:100170009520750881020963150026FF00952075FA
:10018000089102C005010906A101050719E029E748
:1001900015002501950875018102950175088101F9
:1001A0000507190029FF150026FF0095067508812F
:1001B000000508190129059505750191029501753C
:1001C000039101C0000000000000000000000000DA
:1001D000000000000000000000000000000000001F
:1001E00000000000000000007E0F00D4FFFFFFC7EA
:1001F0000000007800000000000000002A2B28000A
:1002000000000000000000000000000000000029C5
:10021000000000002C1E3420212224342627252E05
:10022000362D3738271E1F2021222324252633333D
:10023000362E37381F0405060708090A0B0C0D0E69
:100240000F101112131415161718191A1B1C1D2F35
:100250003130232D350405060708090A0B0C0D0E55
:100260000F101112131415161718191A1B1C1D2F15
:100270003130354C69646F62616F2F696438372F94
:1002800076323A69646F62616F202876302E31369B
:100290002E392D3134392D673338643734612900D4
:1002A0000001010101010101010102020202020239
:1002B000020202030303030303030304040404040C
:1002C00004040505050505060606060607070707D3
:1002D0000708080808090909090A0A0A0B0B0B0C88
:1002E0000C0C0D0D0D0E0E0E0F0F0F101011111125
:1002F00012121313141415151616171718181919A6
:100300001A1A1B1B1C1D1D1E1E1F2020212222230A
:100310002424252626272829292A2B2C2D2D2E2F4B
:1003200030313232333435363738393A3B3C3D3E62
:100330003F404142434445464748494A4C4D4E4F51
:1003400050515354555658595A5B5D5E5F61626413
:10035000656668696B6C6D6F7072737577787A7BA0
:100360007D7E8082838587888A8C8E8F91939596F7
:10037000989A9C9EA0A2A3A5A7A9ABADAFB1B3B517
:10038000B7BABCBEC0C2C4C6C9CBCDCFD1D4D6D8F3
:10039000DBDDDFE2E4E7E9EBEEF0F3F5F8FAFDFF91
:1003A000290000003A003B003C003D003E003F00B9
:1003B000400035001E001F00200021002200230005
:1003C000240025002B0014001A0008001500170057
:1003D0001C0018000C00390004001600070009007A
:1003E0000A000B000D000E00E10000001D001B00C4
:1003F00006001900050011001000E000E300E20013
:10040000E400015100002C00E700E6000000480075
:1004100047004500440043004600420041002700D9
:100420004B004A002A0000002E0049002D00260043
:1004300000004E004D00310030002F004C00130032
:1004400012000000000052002800000034000000EC
:1004500033000F0000004F0051000000E50038009D
:10046000500037003600005C0000BE00BD00805F19
:10047000815FCA5CC95CAC000100010001000100A1
:10048000010001000100010001000100C25CC35C29
:100490000100010001000100010001000100010054
:1004A000C45C010001000100010001000100010025
:1004B0000000010001000100895F0100145C0100DF
:1004C0000100010001000100010000000100010025
:1004D0000100000001000100A900AA00A80001001D
:1004E000AB00AE0001000100C55C0100000001008E
:1004F0000100010001000000C75CC65C01000100B2
:100500000100C85C0100010000000000C95C01009E
:10051000000001000000010001000000CB5CCA5C8B
:10052000000002510100CC5C01000100010000004C
:100530000100010001000100010001000100125F43
:10054000135F145F155F165F175F185F195F1A5FFF
:1005500001001D5F1E5F1F5F205F215F0100010022
:100560000100010001000100010001000100010083
:100570000100010001000000010001000100010074
:100580000100010001000100010001000100010063
:100590000000010001000100000001000100010055
:1005A000010001000100010001001C5F01000100C9
:1005B000010000000100010001001B5F00000100BC
:1005C0000100010001000100010001000100000024
:1005D0000000010001000000010000000100010016
:1005E0000000010001000000010001000100010005
:1005F000010009025B00030100A0FA0904000001E8
:1006000003010100092111010001224000070581B9
:100610000308000109040100020300000009211180
:1006200001000122220007058203200001070503C3
:100630000320000109040200010300000009211148
:1006400001000122B6000705840320000112010009
:100650000200000008646987020002010200010E26
:100660000349004400380037007600320000000ED5
:1006700003490044004F00420041004F00000004C5
:100680000309040011241FBECFEFDAE0DEBFCDBFA7
:1006900004B603FE18C08091E9059091EA05A09187
:1006A000EB05B091EC058730904BA740B04B59F467
:1006B0001092E9051092EA051092EB051092EC05F4
:1006C000E0E0F8E3099525E0A0E1B3E001C01D9268
:1006D000A93EB207E1F713E0A0E0B1E0E0E4FFE5F6
:1006E00002C005900D92A031B107D9F70E945B2896
:1006F0000C941F2F0C940000E8EDF0E080818E7FB9
:1007000080831092E2001092DA001092E100A0EED5
:10071000B0E08C9181608C9380818F77808319BC4D
:10072000A7EDB0E08C918E7F8C9380818F7E80834B
:100730001092830508952091E4003091E50095E63C
:10074000A9012091EC00822F817020FF06C08091CA
:10075000E80080FF06C080E008952091E80022FDB7
:100760001AC08091A805882389F0853089F080918E
:10077000EB0085FD0FC02091E4003091E5004217A9
:100780005307F9F29150E1F684E0089582E008956C
:1007900083E0089581E00895EF92FF920F931F93F5
:1007A000CF937C018B010E949B03C82F811117C03E
:1007B0008091E80085FD0BC08091E8008E778093E2
:1007C000E8000E949B03882399F3C82F08C0F70113
:1007D00081917F018093F1000150110949F78C2F1D
:1007E000CF911F910F91FF90EF9008958091AA05EE
:1007F00087FF13C08091E80082FF06C08091E80067
:100800008B778093E80004C08091A8058111F2CF16
:1008100008958091A8058823D9F38091E80080FF8E
:10082000F8CF8091E8008E77ECCF982F9093E90075
:10083000242F762F50E0891731F07091EC00209131
:10084000ED005091F00021FD07C09F5F973071F7D8
:100850008093E90081E008953091EB003E7F309372
:10086000EB003091ED003D7F3093ED003091EB00D7
:1008700031603093EB007093EC002093ED005093C7
:10088000F0002091EE0027FDE0CF80E00895CF92A8
:10089000DF92EF92FF920F931F93CF93DF93C8EDF8
:1008A000D0E088818F7E8883E7EDF0E080818160F1
:1008B000808384E082BF81E08093830588818E7F7E
:1008C000888302EE10E0F80110821092DA0081EEC7
:1008D000C82ED12CF601108288818F778883888179
:1008E0008068888388818F7D888319BC1092A805D1
:1008F0001092A9051092A7051092A60590EEE92E78
:10090000F12CF70180818B7F8083888181608883CF
:1009100042E060E080E00E941504F60180818E7F55
:100920008083F801808181608083808188608083FA
:10093000F70180818E7F8083888180618883DF9149
:10094000CF911F910F91FF90EF90DF90CF9008957E
:10095000FC01CB012091B0053091B1052617370776
:1009600090F0009729F42091E8002E772093E8007A
:1009700040E0009751F4411108C08091E80082FFE7
:1009800031C080E00895C901F3CF2091A80522234A
:10099000A9F12530A9F12091E80023FD2DC0209177
:1009A000E80022FDEACF2091E80020FFE2CF30915D
:1009B000F3002091F200009719F02830310558F02B
:1009C00041E02830310509F040E02091E8002E7721
:1009D0002093E800CECF41914093F10001972F5F23
:1009E0003F4FE9CF8091A805882341F0853041F041
:1009F0008091E80083FFC1CF81E0089582E00895EF
:100A000083E0089508958091850508959C014FB76E
:100A1000F89480917A0590917B05A0917C05B09126
:100A20007D054FBF821B930B08952FB7F8948091DB
:100A30007A0590917B05A0917C05B0917D052FBF33
:100A400008959C01809113018823C9F080917E054F
:100A500087FF15C0E62FE695E695E695603FE0F442
:100A6000E20FF32FF11D677081E090E001C0880F65
:100A70006A95EAF780959281892382830895F90126
:100A80003296285F3F4F8191681303C0DF011197B1
:100A90001C92E217F307B9F708959C0180911301A6
:100AA0008823C1F080917E0587FF14C0E62FE6956C
:100AB000E695E695603FF8F4E20FF32FF11D6770BD
:100AC00021E030E001C0220F6A95EAF78281822B93
:100AD00082830895F90132968FEF90E04191641777
:100AE00051F08F3F19F4411101C0892F9F5F96305B
:100AF000A9F78F3F09F40895280F311D87FD3A9516
:100B0000F9016283089520917705309178052817BF
:100B1000390771F09093780580937705E09175051A
:100B2000F0917605309721F00084F185E02D09944D
:100B3000089520917305309174052817390771F0D5
:100B40009093740580937305E0917505F091760597
:100B5000309721F00680F781E02D09940895E09107
:100B60007505F0917605309721F00190F081E02D28
:100B7000099480E00895FA0181110994FB01FDCFE9
:100B8000EEE3F4E0818360834283339695E0E337BC
:100B9000F907C1F70895FC01EE0FFF1FE80FF91FD9
:100BA000E25CFB4F6183408322830895E6EBF5E02E
:100BB000248130E1231B08F420E0248380913D044C
:100BC000816080933D040895E6EBF5E0248130E1F7
:100BD000230F08F42FEF248380913D0481608093DC
:100BE0003D040895922F2091B605237071F08093F3
:100BF000B7056093B805453B08F044EB4093B90551
:100C000020913D04292B20933D040895E6EBF5E067
:100C1000438120E1421B08F440E0818121E06281B0
:100C200090E00C94F205E6EBF5E0438120E1420F01
:100C300008F44FEF818121E0628190E00C94F2058D
:100C4000E6EBF5E0628120E1621B08F460E081815F
:100C500021E0438190E00C94F205E6EBF5E062813F
:100C600020E1620F08F46FEF818121E0438190E081
:100C70000C94F205E6EBF5E0818121E0438162818D
:100C80008850990B0C94F205E6EBF5E0818190E039
:100C900021E04381628108960C94F205262F909101
:100CA000B605937061F081110BC094609093B60506
:100CB0001092120160913D04622B60933D040895EF
:100CC000883210F09C69F2CF880F880F982BEECFF6
:100CD0009091B605969596958FEF890F913009F40E
:100CE00087E261E00C944E068091B6058695869564
:100CF0008F5F883208F081E061E00C944E068091AD
:100D0000B605837011F4109212018091B6058C7FA4
:100D100081608093B6050895EF92FF920F93282F7C
:100D2000C701801B91098F3F910519F010F08FEFDB
:100D300090E08095382F230F08F42FEF822F0F912A
:100D4000FF90EF900895EF92FF920F93282FC70125
:100D5000801B91098F3F910519F010F08FEF90E003
:100D6000382F3095230F08F42FEF680F822F0F9143
:100D7000FF90EF900895EF92FF920F93972FFA0153
:100D8000B9019701093430F4201B31092F3F310597
:100D900019F010F02FEF30E03896719740F0AB016A
:100DA000485F5F4F4131510510F02FEF30E0209543
:100DB000382F320F08F43FEF77FF02C06D5F7F4F8F
:100DC00075956795759567958091B705680F792F2B
:100DD000832F0F91FF90EF900895EF92FF920F9362
:100DE0001F93E00EF11C890137FF03C01195019597
:100DF000110924E0000F111F2A95E1F70F3F11059B
:100E000019F014F00FEF10E09A0157FF03C031956D
:100E10002195310994E0220F331F9A95E1F72017AD
:100E200031070CF489010E0D1F1D0F3F110519F03C
:100E300010F00FEF10E00095282F200F08F42FEF8F
:100E4000822F1F910F91FF90EF900895EF92FF92E4
:100E50000F93282FC70135E0039F800D911D1124AA
:100E60008F3F910519F010F08FEF90E08095382FAB
:100E7000230F08F42FEF822F0F91FF90EF9008952A
:100E800022E8241B08F420E0620F08954095282FE3
:100E9000429F412D1124842F0895E42FF0E0EE0F9E
:100EA000FF1FE652FE4F9081921B97FD9195292FCF
:100EB00038E1239F212D1124620F08950F931F9372
:100EC000522F10E0F801EE0FFF1FE652FE4F908107
:100ED000905797FD9195000F111FF801E552FE4FB5
:100EE00000810052110B50039001519F300D1124CD
:100EF00008E310E0091B110997FD13954003F00169
:100F0000419FF00D1124E20FF31F9F01220F331FA9
:100F10002E0F3F1F37FF02C021583F4F220F232FB4
:100F2000221F330B620F1F910F9108950F931F9390
:100F3000522F10E0F801EE0FFF1FE552FE4FA08187
:100F4000A052BB0B9D015203F001539FF00D1124E1
:100F5000000F111FD801A652BE4F0C910057110B64
:100F600040039001419F300D11242E0F3F1F37FF8A
:100F700002C0215C3F4F96E0359527959A95E1F7A1
:100F8000620F1F910F9108950F931F93522F10E03E
:100F9000F801EE0FFF1FE552FE4FA081A052BB0BE0
:100FA0009D015203F001539FF00D1124000F111FFA
:100FB000D801A652BE4F0C910057110B400390016F
:100FC000419F300D11242E0F3F1F37FF02C02158C3
:100FD0003F4F220F232F221F330B620F1F910F91C0
:100FE0000895EF920F93972F23E0029FB0011124F1
:100FF000759567956E0D792F0F91EF900895322FAB
:1010000050E0FA01EE0FFF1FE552FE4F9081905223
:1010100097FD9195440F551FFA01E652FE4F20812E
:10102000231B330B290F311D97FD3A95620F08954D
:10103000E42FF0E0EE0FFF1FE552FE4F6081621BD0
:101040000895E42FF0E0EE0FFF1FE652FE4F60819F
:10105000621B0895622F0895582FA22FE42FF0E00D
:10106000EE0FFF1FE652FE4F208134EE239F212D0D
:10107000112490E030E0245E3F4F2A1B310937FFF6
:1010800003C031952195310943E0220F331F4A9562
:10109000E1F7821B930B97FD80E0282F259F212DE0
:1010A0001124822F08951F93172F922FE42FF0E021
:1010B000EE0FFF1FE652FE4F208134EE239F212DBD
:1010C0001124472F50E030E0245E3F4F291B3109A7
:1010D00037FF03C031952195310993E0220F331F6B
:1010E0009A95E1F7421B530B57FD40E0742F719F17
:1010F000712D11241F9108950C94C0050C94CB05FB
:10110000FC019B01009729F480E077FF2BC080E869
:101110000895AC0197FF04C044275527481B590B7D
:10112000B901640F751F37FD10C0241B350BC901B1
:10113000A5E0880F991FAA95E1F70E94B52D80E2DE
:10114000861BF7FF0FC081950895CB0165E0880FDE
:10115000991F6A95E1F7BA01621B730B0E94B52DC6
:1011600080E6EECF0895EF920F93CF93DF93D72FC2
:10117000C82FBA01C9010E190E948008602F681B90
:101180007D2F8C2FDF91CF910F91EF9008950F93CA
:10119000CF93DF93D72FC82FBA01C9010E948008CF
:1011A000682F600F7D2F8C2FDF91CF910F910895C5
:1011B000EF920F931F93CF93DF93D62FC72F182F44
:1011C000BA01C9010E19010F0E948008081B019F76
:1011D000012D11246D2F7C2F802FDF91CF911F9136
:1011E0000F91EF900895EF920F931F93CF93DF939A
:1011F000D62F172FC82FBA01C9010E19010F0E944F
:101200008008702F781B719F712D11246D2F8C2FEA
:10121000DF91CF911F910F91EF9008950F931F933E
:10122000CF93DF93D62FC72F182FBA01C901212FD3
:10123000201B022F0E948008982F990F990F282FAA
:10124000291B200F219F212D11246D2F7C2F822FF0
:10125000DF91CF911F910F9108950F931F93CF931B
:10126000DF93D62F172FC82FBA01C901212F201BBA
:10127000022F0E948008982F990F990F782F791BC1
:10128000700F719F712D11246D2F8C2FDF91CF91D5
:101290001F910F910895982FE82F96FDE0952E2F1E
:1012A0002F7096FD2F5FE695E695E695E670F0E0E7
:1012B000E05AFE4F8181829F802D212D112482953D
:1012C0008F702295207F822B2081820F97FD819540
:1012D000805808950F931F93CF93DF938B01D82FDE
:1012E000C42F822F0E944B09EC2FF0E0EE0FFF1F5E
:1012F000E652FE4F90819058980F97FD9195990F67
:10130000692F2CE0629F612D1124600F712F8D2FAA
:10131000DF91CF911F910F9108959C01823091052B
:1013200008F408959FEF213E8EE1380740F4C9018B
:1013300045E0969587954A95E1F798E0980F61E02A
:10134000E62FE90FFF27FF1FAF0155954795842F23
:10135000449FF001459FF00DF00D11242E173F071B
:1013600038F49FEF940F961758F78FEF860F089574
:101370004F3FE9F361E0640FF6CF0F93CF93DF9314
:10138000D72FC82FF90147FD419528E330E0241BF2
:10139000310947FD3395229FA001239F500D500D29
:1013A0001124EE9FC001EF9F900D900D1124840F2A
:1013B000951F0E948D09982F990F692F680F600F54
:1013C0007D2F8C2FDF91CF910F9108959C0190E09C
:1013D00080E0269F812D369F800D911D1124089558
:1013E000AF92BF92CF92DF92EF92FF920F931F9333
:1013F000CF93DF93262F472FE82FF0E0E056FD4FE5
:1014000071110FC06491862FE62F7E2FDF91CF914F
:101410001F910F91FF90EF90DF90CF90BF90AF9012
:101420000895E72EF12CE49186E0689F8001112455
:10143000CFEFD0E0C801BE010E94A12DDB0130E05A
:10144000220F331F55E5569FC001579F900D112461
:10145000281B390B622F660F260FCE018E199F09AC
:10146000E89F6001E99FD00C11246D2D429FA001DF
:101470001124452F5527CE01841B950BE89FA00111
:10148000E99F500D1124852F5E01A21AB108AE9C70
:101490009001AF9C300DBE9C300D1124232F3327BB
:1014A000C21BD30BEC9F9001ED9F300D1124A33094
:1014B000B105B1F00C3F93E0190760F4A130B1051C
:1014C00099F01297A9F00F3F110508F09ECF8D2DCE
:1014D000632F9BCFA430B10571F01697C1F395CF60
:1014E000652F8E2FED2D91CF6E2FE52F8D2D8DCF6A
:1014F000832F6E2FF7CF8E2FE32F87CF2F923F9220
:101500004F925F926F927F928F929F92AF92BF9213
:10151000CF92DF92EF92FF920F931F93CF93DF93BF
:10152000CDB7DEB729970FB6F894DEBF0FBECDBF9B
:10153000282E6A837B832091140185E1289F802DCA
:1015400011248E838B5E89838C83883610F037E676
:101550003C838091BC058D83FE81EF2FF0E0F987FD
:10156000E887CF01880F991F9C0126523E4F6901E1
:10157000822D90E0FC013196FF83EE838C8198856B
:101580009817F0F081E0E981E73608F080E02996CD
:101590000FB6F894DEBF0FBECDBFDF91CF911F9184
:1015A0000F91FF90EF90DF90CF90BF90AF909F9002
:1015B0008F907F906F905F904F903F902F90089505
:1015C000E885F985E855FD4F8081909115018923C3
:1015D000F1F04090B7055090B8052E813F8124541A
:1015E0003A4F3901322C10E0FD813F16D0F02091A6
:1015F000B905129F112D1124B201812F0E94F0090B
:10160000462F672F282F888599850E947E08288578
:1016100039852F5F3F4F3987288732E0C30ED11CB1
:10162000ADCFF30181913F01F601A080A81ABB085C
:101630008180F3018781881A9908AA9C9001AB9C4C
:10164000300D300D1124889CC001899C900D900DA7
:101650001124820F931F0E948D09082F6091BA05F3
:1016600021E0620F08F46FEFF301EE0FFF1FEC5B58
:10167000F540858996890E94E6097C019401A501BF
:10168000B201812FEA81FB8109952B01182F339438
:10169000ABCFCF92DF92EF92FF920F931F93CF9336
:1016A000DF938C01C091140185E1C89FC02D1124E6
:1016B00025E1D22EDC0ECD2C27E62D1510F497E671
:1016C000C92E2091BA0531E0230F08F42FEF30E046
:1016D00050E040E06FEF7FEF80E090E00E94BC2E92
:1016E0007901D0E02C2FCC1570F081E0F6E6FD15E5
:1016F00008F480E0DF91CF911F910F91FF90EF9060
:10170000DF90CF900895FE01E855FD4F80819091C4
:101710001501892311F14091BC054150042E000CA4
:10172000550B47FF1CC0C7016091BA0521E0620F4D
:1017300008F46FEF0E94E609AC016091B705709163
:10174000B8058091B905F80109950E94F009462F66
:10175000672F282FCE010E947E082196C3CFFA0161
:10176000E454FA4F818982130AC0FA01EE0FFF1F79
:10177000E454FA4F818D928D8E159F05A8F2415049
:101780005109CFCFDF92EF92FF920F931F93CF9328
:10179000DF937C01C091140185E1C89FC02D112405
:1017A00015E11C0FD12E183610F087E6D82E609167
:1017B000BA056695669521E0620F08F46FEF809197
:1017C000B2059091B3050E94E609082FD0E0CD152F
:1017D00060F081E0173608F080E0DF91CF911F9133
:1017E0000F91FF90EF90DF900895FE01E855FD4FB7
:1017F000808190911501892391F06091B7057091D6
:10180000B8058091B905202F4C2FF70109950E944A
:10181000F009462F672F282FCE010E947E082196BF
:10182000D6CFBF92CF92DF92EF92FF920F931F938A
:10183000CF93DF9300D000D00F92CDB7DEB76C010D
:1018400080911401898385E19981989F802D1124CD
:101850008B8395E1F92EF80EBF2CE7E6EF1510F417
:1018600087E6B82E6091BA05669566958091B205B7
:101870009091B3050E94E609182F80E4810F0E9421
:101880004B0980588983812F0E944B0980588A8395
:101890009B81892F90E09D838C839C819B15A0F078
:1018A00081E0E6E6EF1508F480E00F900F900F90CE
:1018B0000F900F90DF91CF911F910F91FF90EF90BC
:1018C000DF90CF90BF900895EC81FD81E855FD4FEA
:1018D0008081909115018923A9F06091B7057091DD
:1018E000B8058091B905E12E0C812A814981F60164
:1018F00009950E94F009462F672F282F8C819D8122
:101900000E947E088C819D810196C5CF7F928F9227
:101910009F92AF92BF92CF92DF92EF92FF920F937E
:101920001F93CF93DF934C01C091140185E1C89FB1
:10193000C02D112415E11C0F712E183610F097E6FA
:10194000792E6091BA0566958091B2059091B305A4
:101950000E94E609F82ED0E0C71590F081E0173616
:1019600008F080E0DF91CF911F910F91FF90EF90F1
:10197000DF90CF90BF90AF909F908F907F90089511
:10198000FE01E855FD4F8081909115018923B9F141
:101990009E01220F331FF901E652FE4F8081482F2E
:1019A0004057550B6A0125523E4FF9018081282F7F
:1019B0002052330B5901449F9001459F300D300D4B
:1019C0001124AA9CC001AB9C900D900D1124820F94
:1019D000931F0E948D09082F6091B7057091B8057B
:1019E0008091B905EF2C9501A601F40109950E949B
:1019F000F009462F672F282FCE010E947E082196DE
:101A0000ABCFCF92DF92EF92FF920F931F93CF93C2
:101A1000DF937C01C091140185E1C89FC02D112482
:101A200015E11C0FC12E183610F097E6C92E6091F3
:101A3000BA0566958091B2059091B3050E94E609BA
:101A4000D82ED0E0CC1568F081E0173608F080E0A1
:101A5000DF91CF911F910F91FF90EF90DF90CF908A
:101A60000895FE01E855FD4F80819091150189236D
:101A700001F1AE01440F551FFA01E552FE4F2081DE
:101A80002052330B46525E4FFA0140814057550BAE
:101A90006091B7057091B8058091B9050D2DF701DA
:101AA00009950E94F009462F672F282FCE010E942A
:101AB0007E082196C7CF0E9415052091070430911A
:101AC0000804232B21F080930304909304042091B5
:101AD000090430910A04232B21F080930104909390
:101AE0000204E0917505F0917605309749F082E0A7
:101AF000809305040480F581E02D85E094E009944D
:101B0000089540910704803F59F48091080487FFAD
:101B10000DC01092080441110BC01092FF0308C0C1
:101B2000813F81F48091080418169CF3442381F0CE
:101B30008091090490910A04892B09F05AC01092EF
:101B4000FE030895823F49F447FFF0CF1092070447
:101B5000809108048111ECCFE0CF833F19F4141673
:101B6000ACF3E4CF90910904893F29F41916F4F6F7
:101B700010920904DBCF8A3F19F497FFD7CFF8CF33
:101B800090910A048B3F29F497FFD0CF10920A045A
:101B9000CDCF8C3F19F41916CCF3C8CF9CE0980F29
:101BA000953090F4845F990B21E030E0B90102C0D8
:101BB000660F771F8A95E2F7CB0180959091060416
:101BC000892380930604B2CF8D3F31F480910004C5
:101BD0008E7F80930004AACF8E3F21F48091000471
:101BE0008D7FF7CF8F3F09F0A1CF809100048B7FCD
:101BF000F0CF08958091000480FD16C081FD16C0CD
:101C000082FD16C08091FE038823A1F0883280F403
:101C100028E0829FC001112468E270E00E94B52D87
:101C2000862F672B39F0089582E0089584E00895A7
:101C300088E0089581E008958091000480FD14C03B
:101C400081FD14C082FD16C08091FF03882381F0BE
:101C50008E3180F420E5829FC00111246EE170E096
:101C60000E94B52D862F089584E1089588E2089595
:101C700088E0089580E50895803F31F40E941C0EAD
:101C80008195809308040895813F19F40E941C0EE9
:101C9000F8CF823F31F40E941C0E81958093070497
:101CA0000895833F19F40E941C0EF8CF893F29F450
:101CB0000E94FA0D8093090408958A3F21F40E943E
:101CC000FA0D8195F7CF8B3F31F40E94FA0D819583
:101CD00080930A0408958C3F19F40E94FA0DF8CFFE
:101CE0009CE0980F953070F4845F990B21E030E010
:101CF00001C0220F8A95EAF780910604822B809317
:101D0000060408958D3F31F4809100048160809332
:101D1000000408958E3F21F4809100048260F7CF83
:101D20008F3FB9F7809100048460F1CF80E008957F
:101D3000F894E82FE295EF70F0E041A18F7021E078
:101D400030E0B90102C0660F771F8A95E2F7CB0138
:101D5000962F9095942391A392A1892B82A3789496
:101D6000089590917E0592FF06C0282F2871283093
:101D7000F9F4877F846093FF06C0282F28712831EB
:101D8000F1F4877E846120917F0520FF06C0382F03
:101D900038713830D9F4877F816021FF06C0282F41
:101DA00028712831D1F4877E816194FD877E089562
:101DB000282F24712430F9F68B7F8860DCCF282F00
:101DC0002471243101F78B7E8861DDCF382F31718A
:101DD000313019F78E7F8860E0CF282F21712131B3
:101DE00021F78E7E8861E1CFCF93DF93EC01803EB7
:101DF000910509F460C050F58133910509F4A6C03E
:101E000090F48932910509F49AC08A9709F4A5C023
:101E1000C130D10509F462C0CE010497813A910521
:101E200008F055C05BC089339105F1F18238910506
:101E3000D9F1C59709F47CC0C83AD10508F094C01F
:101E4000C53AD10528F3A497D06448C0843E9105D3
:101E500009F453C068F4823E9105E1F1833E910597
:101E600009F440C0CE01805E9109089780F536C024
:101E7000863E910509F44CC0873E910509F44DC09A
:101E8000811522E5920708F0AAC0811531E5930774
:101E900008F0FAC08F3F910511F008F074C0803F40
:101EA000910550F2D0651AC080917E058370B1F023
:101EB000C0EED0E013C080917E0580FD12C19091EC
:101EC0007F0590FF0BC0C3EED0E084FF07C0D0E0D9
:101ED000C0E004C080917E0582FDF5CFCE01DF9188
:101EE000CF91089580917E0582FDFEC090917F057F
:101EF00090FDDECF84FFF2CFEACF80917F0581FF96
:101F0000EDCF80917E05C7EED0E084FDE0CFE6CF37
:101F100080917E0583FDF7CFE1CF80917E0583FD23
:101F2000E6C090917F0591FFE5CFC4EED0E0D6CF1B
:101F300080917E0585FFD2CFC9E2D0E0CFCF8091DE
:101F40007E0585FFCBCFC5E3D0E0C8CF80917E056D
:101F500086FFC4CFCAE2D0E0C1CF80917E0586FF64
:101F6000BDCFC1E3D0E0BACFCF3BD10508F07ACFE7
:101F7000C85AD0E0CC0FDD1FC25EDE4F0990D88179
:101F8000C02DD464ABCF811540E5940760F4C11532
:101F900080E4D80708F075C0CE019A9581159F415D
:101FA00008F49CCF94CFF4E096958795FA95E1F7E5
:101FB00083702C2F26952695237040E2249F900154
:101FC0001124382B8C2F8370C1E0D0E002C0CC0FDD
:101FD000DD1F8A95E2F7C22BD32BDC687FCFC115BA
:101FE00086E5D80730F5C11595E5D90708F060C03A
:101FF000C11524E5D207C0F49C2F969596959E01B5
:1020000023703327C115D34508F043C0C1E0D0E0A9
:1020100002C0CC0FDD1F2A95E2F720E2929FC0019B
:102020001124C82BD92BD9CFDC2FCC27C46FD06A71
:1020300055CFC1153AE5D30788F4C11549E5D40752
:1020400008F041C0CE0198558F3F910511F008F07E
:102050003ECFDC2FCC27C06FD06A40CFCE01905648
:102060008115904208F033CF8D2F8F710E94B10EF1
:1020700090E0982F882788279F719C012C2BE901DD
:1020800020C0DF70D06A2ACFD82FCC27C16FD06A8A
:1020900025CFC1E0D0E002C0CC0FDD1F2A95E2F7CA
:1020A00030E2939FC0011124C82BD92BDA6816CFD8
:1020B0008C2F0E94B10EC82FD0E0DC2FCC27CC276C
:1020C000DF71D0620BCF8C2F8F700E94B10E34E085
:1020D000D695C7953A95E1F7CF70DC2FC82FD06918
:1020E000FDCEC9E3D0E0FACEC2EED0E0F7CEC6EE28
:1020F000D0E0F4CE8091B50381111092B50308951C
:10210000982F90958091B40389238093B403089508
:102110008091910390916003981301C008958F5F9F
:102120008770FACFE82F29E0929FE00D11249E2FAF
:102130009770E695E695E69583E0E89FF001112417
:10214000ED5CFC4F50E040E080E0219130E0092E52
:1021500002C0369527950A94E2F721703327042EA2
:1021600001C0220F0A94EAF7822B4F5F5F4F433082
:10217000510559F70895E82F29E0929FE00D1124A9
:102180008E2F877041E001C0440F8A95EAF7E695EB
:10219000E695E69583E0E89FF0011124ED5CFC4FA5
:1021A00030E020E070E05191DF011197CB01022E69
:1021B00002C0969587950A94E2F7817081958527EC
:1021C000842385278C932F5F3F4F2330310559F7A8
:1021D00008958093800570938205609381058091B6
:1021E000A8058430F9F48093E9008FEF9091E8001E
:1021F000815095FD06C095ED9A95F1F7000081118B
:10220000F5CF8091E80085FF0DC050E040E063E02D
:1022100070E080E895E00E94CC038091E8008E7722
:102220008093E8000895BC0184E00C94E910BC019F
:1022300083E00C94E91024E02093E9002FEF309123
:10224000E800215035FD06C035ED3A95F1F7000064
:102250002111F5CF2091E80025FF0BC050E040E0B0
:1022600066E070E00E94CC038091E8008E77809356
:10227000E8000895CF93DF93D82FC92F80911301E1
:102280008823C1F180917E0587FF34C060E284E03D
:102290008093E9008FEF9091E800815095FD06C092
:1022A00095ED9A95F1F700008111F5CF8091E80046
:1022B00085FF1DC08091130170E050E040E0811166
:1022C00004C050E040E068E070E08D2F9C2F0E9439
:1022D000CC038091E8008E778093E80080E2ED2FB8
:1022E000FC2FA6E8B5E001900D928A95E1F7DF9109
:1022F000CF91089568E081E0CBCF81E08093E0004A
:1023000080E28093D8001092C9008FE19EE401978B
:10231000F1F700C0000087E090EBDC018093E90555
:102320009093EA05A093EB05B093EC0588E19CE05F
:102330000FB6F894A895809360000FBE909360004C
:10234000FFCF6A9A3EB13B7F2EB124604FB7F8941D
:102350008EE394E0FC010196508168E02EB9000004
:1023600000C057FF3EB9550F000000C000C000C0BC
:102370003EB900C06A9591F755E08337950751F74C
:102380004FBF8FE594E00197F1F700C0000008957A
:10239000CF93DF93C9E7D2E060E0CE010E94982E90
:1023A0002196C11584E0D807B9F7DF91CF91089540
:1023B0006F927F928F929F92AF92BF92CF92DF9255
:1023C000EF92FF920F931F93CF93DF93D12CC12CE9
:1023D000AA24AA94B12CE501C65CD10936011BC020
:1023E000F70185909490692DC8010E94982E682D60
:1023F000C80101960E94982E22E0E20EF11C0E5FA9
:102400001F4FC017D10761F739E0630E711C629648
:10241000CA15DB0559F0C301880F991F9C0120568E
:102420003C4F79018E0102511109DACFCE018A5356
:102430009F4F5C0193E6C90ED11CCB38D24059F6B0
:10244000DF91CF911F910F91FF90EF90DF90CF9090
:10245000BF90AF909F908F907F906F900895CF9393
:10246000C82F6FEF811162E283E290E00E94982E04
:102470006FEFC11165E084E290E00E94982E6FEF4B
:10248000C11167E185E290E0CF910C94982E80E035
:102490000E942F1260E086E290E00E94982E0E9437
:1024A000D8110E94C81181E00C942F120F931F9332
:1024B000CF93DF93C42FD0E0CC0FDD1F22E1629FCA
:1024C000C00DD11D112436EC839FC00DD11D1124E8
:1024D000CE0187960E94742E082F10E0102F00273F
:1024E000CE0188960E94742E9801282BC901DF9195
:1024F000CF911F910F910895462F672F833030F4AD
:102500007B3020F4493010F40C94561290E080E0B7
:102510000895DF92EF92FF920F931F93CF93DF9373
:102520007C010091E8058091B603082BC7E0D0E05C
:1025300010E0DC2EC8010C2E02C0959587950A94F8
:10254000E2F780FD0CC02197A0F7D12C8D2DDF91F3
:10255000CF911F910F91FF90EF90DF900895B701F9
:102560008C2F0E947C120E94F40E019761F3EECF33
:10257000CF93DF93D82FC92F0E9489126D2F7C2F04
:102580000E947C12DF91CF910C94F40EFC018081AB
:1025900091810E94B812282F92959F70963091F0E9
:1025A00060F4925F9F70923030F481E0203F81F0C0
:1025B00030F4283E30F080E008959A5FF3CF243F56
:1025C000D1F7089581E0283EE0F3213FA1F7F9CF4C
:1025D000089583E290E00E94742E823289F484E2AE
:1025E00090E00E94742E853059F485E290E00E94BC
:1025F000742E91E0873109F090E0892F8170089561
:1026000080E0FCCFCF9384E090E00E94742EC82F2E
:1026100082E290E00E94742E982F8C2FCF91089523
:102620001F93CF93DF93EC01FC01E855FD4F8081B0
:102630006823C9F00E943E2E182F0E943E2E782F4C
:102640007F7720E8720F08F47FEF612F8091B90542
:102650000E94F009462F672F282FCE01DF91CF91DE
:102660001F910C947E08DF91CF911F910895DF9206
:10267000EF92FF920F931F93CF93DF93EC01FC0136
:10268000E855FD4F8081682381F1D090B805009115
:10269000B9051091B705E12EF12C0E943E2E282F8E
:1026A000C7018C549F4F68E671E00E94B52D8E19CA
:1026B0009F0997FD03969595879595958795237026
:1026C000612F289F600D11247D2D802F0E94F0091D
:1026D000462F672F282FCE01DF91CF911F910F91A9
:1026E000FF90EF90DF900C947E08DF91CF911F91C7
:1026F0000F91FF90EF90DF9008959F92AF92BF925D
:10270000CF92DF92EF92FF920F931F93CF93DF93BD
:10271000182F80911101811323C09091B6059370F9
:102720002091100130E081E09217130609F480E057
:102730008170809316018091BB05909115019817C7
:1027400039F08093150140E060E080E00E947C0851
:10275000183260F4E12FF0E0EF5DF04D0C94C92DDC
:1027600081E0E6CF80911601811102C0C0E098C1DE
:1027700040E060E080E00E947C08F8CFC091140146
:1027800085E1C89FC02D112405E10C0FC02E08362D
:1027900010F0A7E6CA2E6091B7057091B805809138
:1027A000B9050E94F009F62EE72ED82ED0E0CC1500
:1027B00028F0C1E0073608F473C1D8CFFE01E85510
:1027C000FD4F808190911501892331F02D2D4F2DE2
:1027D0006E2DCE010E947E082196E9CFC091140192
:1027E00085E1C89FC02D112405E10C0F902E0836FD
:1027F00010F0F7E69F2EB090B805C090B905D091C3
:10280000B7056D2F7B2D8C2D0E94F009F62EE72E3B
:10281000D82E6091BA056D0F7B2D8C2D0E94F0098A
:10282000C62EB72EA82ED0E0C91518F6FE01E85521
:10283000FD4F908180911501892359F02A2D4C2D4F
:102840006B2D90FD03C02D2D4F2D6E2DCE010E94BE
:102850007E082196E9CFC091140185E1C89FC02D63
:10286000112405E10C0FE02E083610F0E7E6EE2EFD
:10287000D090B805C090B9052091BA0570E4F72E44
:102880003F2D329F312D1124F32ED0E0CE1508F0CC
:1028900090CFFE01E855FD4F80819091150189236D
:1028A000B9F0FE01EE0FFF1FE552FE4F80818295C9
:1028B0008F706091B7058F9D600D11247D2D8C2D3B
:1028C0000E94F009462F672F282FCE010E947E0814
:1028D0002196DCCFC091140185E1C89FC02D112441
:1028E00005E10C0FE02E083610F057E6E52ED090EB
:1028F000B805C090B9052091BA0540E4F42E3F2DEB
:10290000329F312D1124F32ED0E0CE1508F051CF97
:10291000FE01E855FD4F8081909115018923D9F082
:10292000FE01EE0FFF1FE652FE4F6081F69EB001E2
:10293000112435E0759567953A95E1F78091B705D3
:10294000680F7D2D8C2D0E94F009462F672F282FB0
:10295000CE010E947E082196D8CFC091140185E156
:10296000C89FC02D112405E10C0FC02E083610F0B1
:1029700097E6C92EF090B705D091B805E090B9055B
:102980006091BA056695669566958091B2059091BD
:10299000B3050E94E6090E944B0990E8980F97FD45
:1029A0009195990F292F3E2D239F212D11246F2DB5
:1029B0007D2F822F0E94F009F62EE72ED82ED0E030
:1029C000CC1508F0F6CEFE01E855FD4F80819091C0
:1029D0001501892331F02D2D4F2D6E2DCE010E9432
:1029E0007E082196EDCF83E598E00E94C20B07C0D8
:1029F0008CE298E0FACF8DE299E00E94010DC82F99
:102A00004FC08EE099E0F9CF83EF98E00E94860CEA
:102A1000F6CF88ED98E0FACF8AE298E0E6CF81E23F
:102A200098E0E3CF88E198E0E0CF8FEF97E0DDCF4B
:102A300081EF97E0EBCF8DEB99E0DFCF87EC98E06B
:102A4000DCCF83EB98E0E2CF84EC97E00E94110C9E
:102A5000D6CF86E997E0FACF8EE597E0F7CFC09121
:102A60001601C1113CC06091BA0520E1620F08F463
:102A70006FEF8091B2059091B3050E94E6096AE07C
:102A800070E00E94A12D892B09F070CE0E943E2E8D
:102A900067E670E00E94B52D609115010E94371322
:102AA000809114018F5F80931401C1110CC082E0EA
:102AB0008093120180911601811105C0111103C08C
:102AC00083E080931201DF91CF911F910F91FF90CE
:102AD000EF90DF90CF90BF90AF909F900895C091FE
:102AE000140185E1C89FC02D112405E10C0F802F32
:102AF000083608F087E6D0E0E82EF12CCE15DF0589
:102B00000CF057CE60911501CE010E94371321962B
:102B1000F5CFC0911601C1111EC06091BA0520E128
:102B2000620F08F46FEF8091B2059091B3050E9497
:102B3000E60965E070E00E94A12D892B09F016CE10
:102B40000E943E2E67E670E00E94B52D609115014F
:102B50000E941013A5CFC091140185E1C89FC02D1C
:102B6000112405E10C0F802F083608F087E6D0E02D
:102B7000E82EF12CCE15DF050CF01BCE609115016F
:102B8000CE010E9410132196F5CFC091140185E16A
:102B9000C89FC02D1124D5E1DC0FDD2ED83610F0F2
:102BA00087E6D82EE090B805F090B9050091B705FA
:102BB0006091BA056695669566958091B20590918B
:102BC000B3050E94E6090E944B0990E8980F97FD13
:102BD0009195990F692F2CE0629F612D1124600F50
:102BE0007E2D8F2D0E94F009F62EE72E082FAC2E99
:102BF000B12CAD1428F0C1E0D73608F451CFB6CDD2
:102C0000F501E855FD4F808190911501892331F040
:102C1000202F4F2D6E2DC5010E947E083FEFA31A75
:102C2000B30AE7CF8AE699E0E0CE8DE497E0DDCE07
:102C300086E497E00E94490BE2CE80E497E0FACF69
:102C40002091BC0531E0231B08F420E066E277E028
:102C5000822F0E947E0AD3CE66E277E080E0F9CF31
:102C60002091BC0531E0231B08F420E06DEE76E0F6
:102C7000EFCF6DEE76E0F2CF2091BC0531E0231B63
:102C800008F420E06BEB76E0E3CF6BEB76E0E6CF89
:102C90002091BC0531E0231B08F420E063EA76E0D4
:102CA000D7CF63EA76E0DACF2091BC0531E0231B71
:102CB00008F420E06CE876E0CBCF6CE876E0CECF8D
:102CC00046E050E06CE170E086EB95E00E94882ED3
:102CD00010923D0408958F929F92AF92BF92CF922F
:102CE000DF92EF92FF921F93CF93DF938091340492
:102CF00090913504A0913604B09137042FB7F89421
:102D000080907A0590907B05A0907C05B0907D0521
:102D10002FBF75016401C81AD90AEA0AFB0A2FB746
:102D2000F89440917A0550917B0560917C057091F3
:102D30007D052FBF409334045093350460933604CF
:102D40007093370410910B04EBE0F4E0C12FD0E056
:102D50000197AF4FBF4F88199909AA09BB091D13E5
:102D60002EC0C0930B0480913C04C0E0811108C0C8
:102D70008091B605C82FC37019F0C82FC695C695A7
:102D800080911201823009F46CC060F5811139C064
:102D9000109214014093B2055093B3056093B405AB
:102DA0007093B50589E2EBE0F4E0ACEBB5E001909F
:102DB0000D928A95E1F781E08093120116C0218D72
:102DC000328D4901B12CA12C88159905AA05BB05A6
:102DD00020F4C150DF5F3296C2CF2C0D3D1D328FE3
:102DE000218FF8CF833009F447C0DF91CF911F9135
:102DF000FF90EF90DF90CF90BF90AF909F908F901B
:102E000008958C2F0E947D13CC2379F30E94AF0587
:102E100081FF1FC06091B9056830B8F06C3AB8F412
:102E20008091380480FF685F262F462F88E290E06B
:102E3000DF91CF911F91FF90EF90DF90CF90BF90E7
:102E4000AF909F908F900C947E0868E0EDCF64EB7C
:102E5000EBCF8091380480FFC8CF20E040E060E0F5
:102E6000E5CFC09311018091B60583708093100166
:102E70000E94A11183E0A0CF80913D0481110E94A6
:102E800060164091B2055091B3056091B405709100
:102E9000B5052FB7F89480917A0590917B05A091A4
:102EA0007C05B0917D052FBF841B950BA60BB70B3E
:102EB0004097A105B10508F498CF1092120195CF63
:102EC000E6EBF5E085E3808380911701909118018E
:102ED000A091190181839283A3838FE784838FEF6D
:102EE00085830C9460166F927F929F92AF92BF92EF
:102EF000CF92DF92EF92FF920F931F93CF93DF93C6
:102F0000CDB7DEB766970FB6F894DEBF0FBECDBF64
:102F10008E010F5F1F4F86E1F80111928A95E9F744
:102F20002CE4E22E21E0F22ECC24C394D12CAA244E
:102F3000A394B12CF70181917F018F3F09F44FC019
:102F4000F894E82FE295EF70F0E021A18F70A501D1
:102F500002C0440F551F8A95E2F7CA01922F982BA1
:102F600091A392A18095892382A3789400C095E5CE
:102F7000692E91E0792ED801B60160957095F30124
:102F800091903F018D919D91AD0142505109FFEF0C
:102F90009F1609F463C0292D22952F7030E0F901A6
:102FA00020A130E0F92DFF7002C035952795FA95E4
:102FB000E2F720FD53C08C299D29FA01918380837B
:102FC000F0E66F16F1E07F06D1F6F70131978081C8
:102FD0008F3F11F00E94980E20EA2A95F1F7CC0C51
:102FE000DD1C45E5E41641E0F40609F0A3CF46E117
:102FF00050E0B8018AEB93E00E944E2E9C01FF2422
:10300000F394892B09F4F12C232B59F186E1F80173
:10301000AAEBB3E001900D928A95E1F781E08093ED
:10302000B9030E9415059093B8038093B70380916C
:10303000B7039091B8030E9406050597B0F0EAEB3C
:10304000F3E0A8EEB3E0819191918D939D9353E0CD
:10305000E03DF507C1F71092B90307C08623972317
:10306000ACCF8091B9038111E2CF8F2D66960FB658
:10307000F894DEBF0FBECDBFDF91CF911F910F91AE
:10308000FF90EF90DF90CF90BF90AF909F907F9098
:103090006F9008958091B4039091B303892B80932E
:1030A00012039091B5039923A1F0892B8093120309
:1030B000809113018823D9F180917E0587FF37C065
:1030C0008EE1E4E1F3E090E0815098F591110E94E7
:1030D0007A1040E250E063E973E082E193E00E94FD
:1030E0004E2E892B59F180E2E2E1F3E0A3E9B3E04F
:1030F00001900D928A95E1F7E0917505F0917605C2
:103100003097E1F080911301882359F080917E057A
:1031100087FF07C0809112038093130386E080939A
:1031200012030280F381E02D82E193E0099486E0AE
:10313000C8CF2191222341F29F5FC6CF089590E02E
:1031400080E00E94990590E080E00E948305109243
:10315000B3030E944A1886E0E5E0F4E0DF011D9227
:103160008A95E9F71092FF031092FE031092000473
:103170000C945B0D8093E8050C949F188091E805F2
:10318000982F9670963019F488600C94BA18877F3F
:10319000FCCF21E030E001C0220F8A95EAF72095AC
:1031A0008091E80582230C94BA189091920380953F
:1031B000892380939203282F277091F4282F082EBB
:1031C000000C330B9217130659F090917F0592FD76
:1031D00007C08595859585950E94C9181092920320
:1031E0000895CF93C0917F05C2FB992790F9981756
:1031F00099F080FBC2F9C0937F0560917E0584E061
:1032000090E00E94982E6C2F82E290E00E94982E0F
:1032100082E0CF910C94D518CF91089521E030E051
:1032200001C0220F8A95EAF78091E805822B0C9461
:10323000BA188093B6030C949F181092B40380912F
:103240001301E4E1F3E0882359F080917E0587FFC4
:1032500007C08EE1DF011D928A95E9F70C949F1853
:1032600086E0F8CF1F93CF93DF93CDB7DEB7AA9751
:103270000FB6F894DEBF0FBECDBF8AEA95E0FC0121
:1032800001962091F100208325E0823B9207B9F757
:103290008091AB05893009F456C0C8F4823009F436
:1032A000B3C0833009F482C0813071F18091E800AD
:1032B00083FF85C28091AA059091AB059A3008F0F2
:1032C0007EC2E92FF0E0E75BF04D0C94C92D8A3007
:1032D00009F489C08B3051F78091AA05813231F70A
:1032E0008091AE059091AF05892B01F78091E800A0
:1032F000877F8093E8000E94F6038091AC0580935D
:1033000013010E941D19D2CF8091AA05813A71F64E
:103310008091E800877F8093E8008091AE059091CE
:10332000AF05892B61F460E286E895E070E00E94C9
:10333000A8048091E8008B778093E800B7CF60E025
:1033400090E080E0F3CF8091AA05813209F0AECF02
:103350008091AE059091AF058D7F892B09F0A6CFA6
:103360008091E800877F8093E8008091E80082FFE9
:1033700018C09091F3008091F200029731F480918F
:10338000F100813011F0863021F48091F1008093BA
:1033900085058091E8008B778093E8000E94F60312
:1033A00085CF8091A8058111E0CF80CF8091AA05BB
:1033B000813A09F07BCF8091AE059091AF05892BC2
:1033C00009F074CF8091E800877F8093E8008091B6
:1033D000E80080FFFCCF809113018093F100809181
:1033E000E8008E77D9CF8091AA05813209F05ECFAF
:1033F0008091E800877F8093E8000E94F603809127
:10340000AD058093840552CF8091AA05813A09F0D9
:103410004DCF8091E800877F8093E8008091E8009D
:1034200080FFFCCF80918405D8CF803899F0823816
:1034300009F0C5C18091AE058F70873008F0BFC11B
:103440008093E9008091EB0085FB882780F910923A
:10345000E90006C08091A6059091A70591118260B0
:103460009091E800977F9093E8008093F10010928C
:10347000F1008091E8008E779EC1882309F48CC109
:10348000823009F09CC18091AC0581118FC180917F
:10349000AE058F702FEF280F263008F090C1809373
:1034A000E9002091EB0020FF81C1933031F480913D
:1034B000EB0080628093EB0079C19091EB0090610A
:1034C0009093EB0021E030E001C0220F8A95EAF7EB
:1034D0002093EA001092EA008091EB008860EACF26
:1034E00081116DC11091AC051F778091E300807848
:1034F000812B8093E3008091E800877F8093E80030
:103500000E94F6038091E80080FFFCCF8091E300E9
:1035100080688093E30082E0111183E08093A80526
:103520004EC18058823008F04AC14091AC0550919C
:10353000AD054C3D83E05807A1F583E08A838AE21C
:1035400089834FB7F894DE01139620E03EE051E204
:10355000E32FF0E050935700E49120FF03C0E29581
:10356000EF703F5FEF708E2F90E0EA30C0F0C796AB
:103570008D939D932F5F243159F74FBF8091E800C1
:10358000877F8093E8006AE270E0CE0101960E9496
:10359000A8048091E8008B778093E80010C1C09662
:1035A000E7CF8091AE059091AF05252F33272330CB
:1035B000310509F44AC078F52130310509F479C0A4
:1035C0008BE590E0E2EFF5E02230310509F0F7C03D
:1035D0002091E800277F2093E8002091B0053091EA
:1035E000B1058217930708F49C0140E021153105CD
:1035F00009F064C0411162C08091E80082FDC9CF2A
:103600008091A805882329F2853019F28091E8007D
:1036100083FFF2CFBECF2132310509F43BC0223205
:10362000310509F0CCC08330910508F0C8C0FC0119
:10363000EE0FFF1FE559FE4F0190F081E02D8859F4
:103640009E4FDC018C9190E011C0CA019927413056
:1036500089F082309105B1F0892B09F0B0C0EFE715
:10366000F6E0E4918E2F90E0EFE7F6E0009709F4A2
:10367000A6C0AECFEFE6F6E0E4918E2F90E0EFE645
:10368000F6E0F4CFEFE5F6E0E4918E2F90E0EFE581
:10369000F6E0ECCF8330910508F091C0880F991FB8
:1036A000FC01EF58FE4F0190F081E02D89E090E0A1
:1036B0008FCF82E190E0EDE4F6E08ACF8091A8051B
:1036C000882309F466CF853009F463CF8091E80040
:1036D00083FD5FCF8091E80082FD8ECF8091E8006E
:1036E00080FF84CF9091F3008091F2002115310585
:1036F00019F08830910550F041E0089709F040E05A
:103700008091E8008E778093E80070CF44914093D9
:10371000F1003196215031090196E8CF803809F047
:103720004EC08091E800877F8093E8008091A905D2
:103730008093F1009ECE811142C01091AC051230F1
:10374000F0F58091E800877F8093E8001093A90549
:103750000E94F603112311F084E005C08091E3007C
:1037600087FDFACF81E08093A80542E061EC81E01B
:103770000E94150442E261EC84E00E94150442E2DA
:1037800061EC82E00E94150442E260EC83E00E945A
:1037900015048091A80513C08091AC05813079F49F
:1037A00081E0933009F080E08093A7051092E90052
:1037B0008091E800877F8093E8000E94F603809163
:1037C000E80083FF0AC08091E800877F8093E800CB
:1037D0008091EB0080628093EB00AA960FB6F8947C
:1037E000DEBF0FBECDBFDF91CF911F91089588231B
:1037F00021F00E9480100C944A180895882339F013
:103800009091B403892B8093B4030C944A180895C3
:10381000882379F19CEF980F913A38F4682F82E170
:1038200093E00E9421050C944A1890E2980F98307A
:1038300050F4877091E001C0990F8A95EAF7892FBB
:103840000E948010F0CF9BE5980F933020F490E019
:1038500080E00C94990598E5980F973120F490E05A
:1038600080E00C948305803F20F00E94810D0C9431
:103870005B0D0895CF93C82F882309F46DC08CEF9A
:103880008C0F813AB8F580911301882311F1809152
:103890007E0587FF1EC0EC2FE695E695E695F0E0E5
:1038A000EE5EFC4F828190E04C2F477021E030E0CB
:1038B00002C0220F331F4A95E2F782239323892BFC
:1038C00089F06C2F82E193E00E9421050E944A1842
:1038D00009C0E4E1F3E08191C81799F323E0EA31EC
:1038E000F207C9F76C2F82E193E00E944D05CF915A
:1038F0000C944A1880E28C0F883068F4C77021E07D
:1039000030E001C0220FCA95EAF78091B403822B00
:103910008093B403ECCF8BE58C0F833038F42C2FDD
:103920002452330BC901CF910C949905E8E5EC0FB3
:10393000E73150F4F0E0EE0FFF1FE25EFE4F8081B2
:103940009181CF910C948305C03F30F08C2F0E9461
:103950003C0ECF910C945B0DCF9108950F931F9364
:10396000CF93C82F10E000E0893311F400E510E098
:103970008C2F0E943A1C0115110531F48C2FCF9128
:103980001F910F910C94081C8FE99FE00197F1F7AC
:1039900000C0000001501109EECFFF920F931F935A
:1039A000CF93DF93C62FD42F122FFC01828188235F
:1039B000A9F06093E7050E9415059093E6058093B2
:1039C000E505C77081E001C0880FCA95EAF7DF916D
:1039D000CF911F910F91FF900C94FE1B8091E705F2
:1039E000681334C08091E5059091E6050E940605B4
:1039F000883C910558F500E20D0FCD17A9F0C7706E
:103A0000FF24F3948F2D01C0880FCA95EAF70E9416
:103A1000F71B083048F48D2F877001C0FF0C8A9582
:103A2000EAF78F2D0E94FE1B812F0E94AE1C0830EA
:103A3000A0F4D77081E001C0880FDA95EAF7DF9132
:103A4000CF911F910F91FF900C94F71BC77081E0ED
:103A500001C0880FCA95EAF7F2CFDF91CF911F918D
:103A60000F91FF900895DF92EF92FF920F931F93B3
:103A7000CF93DF93E82FF0E0EC50FE4FD490282F47
:103A800026952695269530E0F901EC51FE4F0491DC
:103A9000877010E0082E02C0159507950A94E2F78A
:103AA00001701127F901EC52FE4FE490F12C082E21
:103AB00002C0F594E7940A94E2F791E0E922FF242A
:103AC000F901EC53FE4FC491D0E002C0D595C795E3
:103AD0008A95E2F7C170DD270115110519F081EE15
:103AE0000E943A1CE114F10419F086EE0E943A1C7F
:103AF0008D2D0E94AE1CEF2819F086EE0E94081C46
:103B0000012B19F081EE0E94081CCD2B51F08CE2A4
:103B1000DF91CF911F910F91FF90EF90DF900C9468
:103B2000AE1CDF91CF911F910F91FF90EF90DF902E
:103B3000089590E080E00E94822E893E9E4F11F40D
:103B40000C94E91280E0089590913804892F8370D5
:103B5000833051F08FEF90FD82EF91FD18C080937C
:103B6000BB050E947F0607C01092BB0540E060E0E5
:103B700080E00E947C0840913804509139046091A3
:103B80003A0470913B048FE090E00C94AA2E8DEFE4
:103B9000E6CF69EE7EEF90E080E00E94B62E60E016
:103BA00082E090E00E94982E60E083E090E00E9426
:103BB000982E1092B60360E084E090E00E94982E68
:103BC00060E082E290E00E94982E60E085E090E064
:103BD0000E94982E60E086E090E00E94982E6FEFA1
:103BE00087E090E00E94982E40E050E0BA0188E023
:103BF00090E00E94AA2E60E08DE090E00E94982E56
:103C000040E050E0BA0188E190E00E94AA2E60E016
:103C100087E190E00E94982E40E050E0BA018CE1EC
:103C200090E00E94AA2E70E060E080E290E00E94A6
:103C3000B62E40E050E0BA0188E190E00E94AA2E42
:103C400080E00E942F120E94471240E050E0BA012B
:103C50008FE090E00E94AA2E10923804109239044E
:103C600010923A0410923B040C94A41D8FE090E053
:103C70000E947C2E609338047093390480933A0438
:103C800090933B040C94A41D7F928F929F92AF92CD
:103C9000BF92CF92DF92EF92FF920F931F93CF9339
:103CA000DF9300D000D00F92CDB7DEB77C01FC01CE
:103CB00083819481892B31F08081918189238F3F89
:103CC00009F026C60F900F900F900F900F90DF9184
:103CD000CF911F910F91FF90EF90DF90CF90BF9009
:103CE000AF909F908F907F9008950E948912182F17
:103CF000682F89819A810E94BB1069817A81812F06
:103D00000E947C128C01F7018281882309F4BEC5D0
:103D1000980122513F452031310508F0A6C58FEFAB
:103D200093E00E94742E5EEED52ED00E09E712E0CD
:103D3000882371F180919203877021F2F7018281CB
:103D4000882309F4BFCF80917F0582FDBBCF82E03D
:103D50000F900F900F900F900F90DF91CF911F91C8
:103D60000F91FF90EF90DF90CF90BF90AF909F901A
:103D70008F907F900C94D5180115F4E01F07D1F2B5
:103D8000C8010E94742E811101C0DA940F5F1F4F89
:103D9000D110F2CF80911A0190911B01A0911C01CA
:103DA000B0911D0189839A83AB83BC83BB24B394F8
:103DB0004AE0A42E68012FEFC21AD20AC8010E945D
:103DC000742E89831A82882309F4B4CF9FEF980F49
:103DD000933010F58A83B9820E5F1F4FC6010E948F
:103DE000742E8B83882309F4A5CFCE0101966C0134
:103DF000F60180818823F1F2813009F049C0918178
:103E00008281913059F4F2E0CF0ED11C0E94AE1C99
:103E1000EFEFCE1ADE0AECCF8601E7CF923031F415
:103E200022E0C20ED11C0E943A1CF2CF933031F432
:103E300032E0C30ED11C0E94081CEACF943021F05E
:103E40008FEFC81AD80AE4CF92E0C90ED11C30E037
:103E500020E0B6016F5F7F4FF60141818053990BDF
:103E60008A30910550F02150310990F28FE99FE09E
:103E70000197F1F700C00000F6CFA29EF001A39ECB
:103E8000F00D11249C012E0F3F1F842F6B01E1CFF9
:103E90000E94331DBDCF81E00E940E190E94BE1802
:103EA00049CF81E00E94C918F9CF82E0F5CF82E0C6
:103EB000F9CF0338EFE51E0709F46FC00938FFE5B5
:103EC0001F0709F479C002382FE5120709F45BC017
:103ED000F7018281882309F42CC51092E705013689
:103EE000FDE51F0761F008F011C106313CE513073D
:103EF00008F0F0C002308CE5180708F40CC10E94ED
:103F0000021390937F0580937E050631ECE51E0732
:103F100008F021C10230FCE51F0708F00FC16091D5
:103F20007E0510917F0584E090E00E94982E612F1D
:103F300082E290E00E94982E0E941D19FBCE8823F9
:103F400009F4F8CE80913804982F917080FD0AC052
:103F500081FD08C0809138048160809338040E94FC
:103F6000A41DE8CE8091380480FF05C081FD03C008
:103F70008C7F8260F2CF911102C081FDEBCF8091E6
:103F800038048C7FEACF882309F4D4CE909138048A
:103F9000892F8E7F90FF8160E0CF882309F4CACEFD
:103FA00090913804892F8D7F91FF8260D6CF811147
:103FB0008FCF0E94361E8CCF9091B4039111BACE50
:103FC0008111B8CE04E712E03AE0B32EF8018491F3
:103FD000882309F4AFCE813009F04FC06801FFEFAC
:103FE000CF1ADF0AF6018491813061F46801F2E0B2
:103FF000CF0ED11CF60184910E94AE1C86010F5F8A
:104000001F4FE4CF823049F46801F2E0CF0ED11C9B
:10401000F60184910E943A1CF1CF833049F4680183
:10402000F2E0CF0ED11CF60184910E94081CE6CF6D
:10403000843021F76801F2E0CF0ED11CF601249103
:1040400090E080E0F60131962053330B2A303105A1
:1040500048F0019798F2EFE9FFE03197F1F700C0DF
:104060000000F7CFB89EA001B99E500D1124C901E0
:10407000840F951F24916F01E5CF0E94331D6801C5
:10408000BDCF882309F456CE8FE992E00E948305C4
:1040900051CE053FFCE51F07A9F0063F2CE51207AE
:1040A000A9F027E245EE64EE043F3CE5130709F46E
:1040B0002BC40ECF27E245EE65EE26C426E241EE84
:1040C00060EE22C426E241EE62EE1EC427E245EE17
:1040D00066EE1AC4C8018A5F9C45099708F40FCFA1
:1040E0000631FCE51F07B9F48091B4038A7A91E0A8
:1040F00009F490E09093320369E2811165E382E173
:1041000093E00E944D050E944A1814CE053A9DE5A1
:10411000190709F4F4CE0A353DE5130709F4A0C1E7
:1041200008F07FC101159CE5190709F48CC10E3D0B
:104130001C4509F0DFC00E94C91DFCCDF801E35009
:10414000FC4580917E058160E331F10530F5ED5A43
:10415000F04D0C94C92D03302DE5120778F40A3F79
:104160003CE5130708F4DBCEF801EB5FFC45E830D3
:10417000F10510F5EA59F04D0C94C92D01368DE585
:10418000180709F496C090917E05892F8E7F90FFC5
:104190008160053A1D4509F0C2CE80937E05BFCEF1
:1041A00080917E058260F9CF80917E058460F5CF95
:1041B00080917E058860F1CF80917F05816080933A
:1041C0007F05ADCE80917F058260F9CF80917E051D
:1041D0008061E3CF80917E058062DFCF80917E0594
:1041E0008064DBCF0E941D1980917E058068D5CF49
:1041F00080917E058C60D1CF80917F058360DFCF79
:1042000080917E058E7FC9CF80917E058D7FC5CF41
:1042100080917E058B7FC1CF80917E05877FBDCF4A
:1042200080917F058E7FCBCF80917F058D7FC7CF1B
:1042300080917E058F7EB1CF80917E058F7DADCF41
:1042400080917E058F7BA9CF0E941D1980917E05EC
:104250008F77A3CF80917E05837F9FCF80917F054D
:104260008C7FADCF80917E0582FB992790F921E06C
:10427000922790FB82F990FB83F98FCF80917F0585
:10428000982F909591708E7F892B90FB81F997CF15
:104290000E941D1990917E05892F97FB87F9805800
:1042A0007CCF61E08EE090E00E94982E38CE60E0F6
:1042B000F9CF90917E05892F8F7E94FF80616DCF1D
:1042C0008091B4038272063DECE51E0778F4023C4F
:1042D000FCE51F0778F0F801E35CFC45E331F105EC
:1042E00008F04FC0E259F04D0C94C92D0D351D4515
:1042F00009F420CDF7018281C080D180882309F4A0
:10430000B3C0C6010E948912182F682FC6010E94EF
:10431000BB10B601812F0E947C120E94F40E8C010A
:10432000782EF7019280858082942FE082228091FE
:1043300092038770C1F0B92C9920B1F0812F807F52
:10434000803421F080E2800F883068F080917F0512
:1043500082FD09C082E00E94D51880919203877087
:10436000BB24B3948111B12C812F82958F70C82EFC
:10437000D12C8C3008F0E5C0F601EF57F04D0C94CD
:10438000C92D8091B60591E089278093B6051092DA
:10439000120180913D04816080933D04CBCC48E6BE
:1043A00056E064E776E00E94BB05C4CC44E756E0E3
:1043B00068E676E0F8CF4AE356E064E476E0F3CFCF
:1043C00044E456E06AE376E0EECF40E256E06DE288
:1043D00076E0E9CF4DE256E060E276E0E4CF46E0F9
:1043E00056E063E176E0DFCF43E156E066E076E059
:1043F000DACF46ED55E064EE75E0D5CF44EE55E0FA
:1044000066ED75E0D0CF61E081E00E944E0692CC6F
:1044100061E085E0FACF61E08DE0F7CF61E082E115
:10442000F4CF0B35FDE51F07E9F00C351D4509F00C
:1044300061CF80917F0582FB882780F991E08927F1
:104440000E94F11857CF0E941D193FEF84E39CE0B2
:10445000315080409040E1F700C000000E947D1183
:1044600081E0EECF80E0ECCFC6010E949210182FC1
:1044700050CFF12FFF70AF2E107F19F0A29490EF64
:10448000A922802F9920B9F0AA2069F090E2900F1C
:10449000983010F0011109C08091B403A82AA092AD
:1044A000B4030E944A18802F4AC08091B303A82AFF
:1044B000A092B303F6CF0E94081CAA2009F441C0C1
:1044C000005E083010F0711004C08A2D0E94801028
:1044D00006C0A0948091B303A822A092B3030E94C7
:1044E0004A182FC0212F2F70A22E107F103219F0E2
:1044F000A29480EFA822772089F031E0731609F4A6
:104500007CC0992009F486C0882009F47CC0F7019A
:10451000958190FFC8CF9F70958375C020917F05CE
:1045200022FF48C0992009F43FC0AA2039F08091A9
:10453000B4038A298093B4030E944A1880E00E9441
:104540003A1C98E0C91AD108E4E0CE16D10410F460
:104550000E94AF05BB2009F4B5CB8091920380FD8A
:10456000B1CBF70112828595859585950E940E192C
:10457000C7010E94441E809192038595859585957B
:104580000F900F900F900F900F90DF91CF911F9190
:104590000F91FF90EF90DF90CF90BF90AF909F90E2
:1045A0008F907F900C94C91880E00E94081CAA206C
:1045B00041F28BCF9920A1F09091B5038A2D892BE0
:1045C000811003C00E94FE1BBCCFE1E08E12FACF27
:1045D00022FDB7CF981709F4B4CF8093B503B1CFBC
:1045E000811006C00E947A108A2D0E94F71BA9CF65
:1045F000F1E08F1609F4A5CFF5CF992031F025E031
:10460000281508F49ECF8A2DDDCF34E0381508F444
:1046100098CFEACF882041F3093349F4FFEF27EE22
:1046200033E0F15020403040E1F700C00000802F1F
:104630000E94081C86CF812F86958695837061F035
:10464000813009F07ECFC8019370911002C090E0D4
:1046500080E00E94830575CFC8019370911002C05D
:1046600090E080E00E9499056CCF802F992029F07E
:104670000E943C0E0E945B0D64CF0E94810DFACF18
:10468000812F837091F591105CCF402F4295469514
:104690004770440F440F802F8F70042E01C0880F85
:1046A0000A94EAF7202F207104FF07C02FE030E0C2
:1046B00001C0220F4A95EAF72095169516951370BA
:1046C000123071F0133051F03091B603113029F0EF
:1046D000822B83230E94191934CF832B822BFACF8C
:1046E000282B8091B6038227F5CF8695992011F06B
:1046F000812F8170882309F424CF402F429546955D
:104700004770440F440F802F8F70042E01C0880F14
:104710000A94EAF7202F207104FF07C02FE030E051
:1047200001C0220F4A95EAF7209516951695137049
:10473000123071F0133051F03091E805113029F04A
:10474000822B83230E94BA18FCCE832B822BFACFB4
:10475000282B8091E8058227F5CF1F70992029F03A
:10476000812F0E940E19802F2DCF802F0E94F71BC2
:10477000812F0E94C918E5CE802F92EF7916A9F1FA
:10478000971570F0E0EF7E16D1F0F1EF7F1691F003
:10479000992009F45AC0811086CE812F8F7129C0CB
:1047A00023EF721649F134EF7312F2CF80917F0537
:1047B00082FF2DC0812F8F719920D9F21AC09920C4
:1047C00079F084E0881508F4BCCE1F7181E090E098
:1047D00001C0880F1A95EAF79091E8058927B2CFB2
:1047E00095E0981508F4ADCEF0CF812F8F71911020
:1047F000C0CF0E940E19A5CE80E0992009F4A2CF67
:104800001F7181E001C0880F1A95EAF79BCF9920AC
:1048100089F01F71812F0E940E1980917F0582FD02
:1048200007C0E8E01E9FC0011124836080939203BB
:10483000812FDFCF81E00E94D518F1E0F81508F054
:1048400080CE82E00E94D5187CCE882059F0893332
:1048500009F0EDCE2FEF37EE83E02150304080405D
:10486000E1F7E3CE812F8F7184CF0031FFE51F0781
:1048700009F411CB01312FE5120709F416CB0138E9
:104880003FE5130791F480EA92E000CC00313FE568
:10489000130709F406CB01319FE5190709F407CB8B
:1048A00001389FE5190709F445CA0238FFE51F07DB
:1048B00008F0FFCA0E3D2CE5120709F478CB00384A
:1048C0003FE5130709F4DDCB023C9CE5190709F429
:1048D00036CB033F2CE5120709F4F0CB08F0D9CB17
:1048E000083D8CE5180709F4E5CB28E241E0093DD5
:1048F0009CE5190709F4E0CB26E241EE61EE073DA5
:10490000ECE51E0709F0E4CAC7010E94CD1C12CADB
:1049100085E0DE01119601900D928A95E1F7F7018D
:10492000228189819A812111E0C90E949210182F59
:10493000E4C906312CE5120709F0C2CC809132039C
:1049400069E2811165E382E193E00E942105DBCBFE
:104950001F93CF93DF9380915F03807FA9F48091B1
:104960005C03882389F080919103D091600360916A
:104970005A0370915B03A0915D03B0915E03C62F53
:10498000C72316E0D81304C0DF91CF911F9108957B
:1049900090E0109711F0CF3F19F401968770F2CF95
:1049A000189F9001199F300D1124F901EF59FC4F08
:1049B00041814713F2CF40814613EFCF428141112D
:1049C000ECCF438154814A1B5B0B483C510528F7CF
:1049D00080915F038F70806180935F03F901EA59D2
:1049E000FC4F80818F70806180838AE593E00E9414
:1049F000441EDF91CF911F910C948810AF92BF920B
:104A0000CF92DF92EF92FF920F931F93CF93DF939A
:104A1000CDB7DEB72B970FB6F894DEBF0FBECDBF74
:104A20008C0185E0F801DE01179601900D928A95C0
:104A3000E1F7F801E2808AE5A82E83E0B82E6091C4
:104A40005D0370915E036115710509F41AC19091BF
:104A50005A0340915B03842F89238F3F09F411C1CE
:104A600020813181C380D480F0905C03F601E61B85
:104A7000F70BFF2009F4D0C080915F03582F507FBF
:104A8000E83CF10508F0ABC0511177C0FE2C431390
:104A900021C092131FC0E1101DC08F7080618093F0
:104AA0005F03C5010E94441E80915F03F801858366
:104AB0008F2D2B960FB6F894DEBF0FBECDBFDF91C2
:104AC000CF911F910F91FF90EF90DF90CF90BF900B
:104AD000AF900895CD2829F0822F83238F3F09F0CE
:104AE000EBC080E0F82FF170DF2EE0919103409150
:104AF000600356E080FD1CC0EE20D1F280915F0380
:104B0000816080935F03F12CD3CF8E2F90E05E9F66
:104B1000F0011124EF59FC4F6181361306C060810A
:104B2000261303C06281E612E7CFFC013196E770DD
:104B3000E413EBCF2F8338878F8198850E94B812BA
:104B4000292F22952F70903260F0225F2F70223033
:104B500078F49F7051F0F8019581907F31F4D12C59
:104B60000AC09F7011F08823D1F3805E8830B8F3BB
:104B7000C8010E94441EFD2C9BCF431306C0921314
:104B800004C0F801EE2009F461C0C8010E94C612F9
:104B9000882309F1EE20F9F080915F03803270F0F4
:104BA00020915A0330915B033A8329831B82DD8273
:104BB000CC828E83CE0101960E94441E86E0F801CD
:104BC000AAE5B3E001900D928A95E1F70E94A8242E
:104BD000FF24F3946DCFC8010E94441EF9CF5111F8
:104BE0000AC08AE593E00E94441E86E0F501119216
:104BF0008A95E9F788CF4313C8CF9213C6CFE11047
:104C0000C4CFF8018583C8010E94441E86E0F501E7
:104C100011928A95E9F74CCFE83CF105B8F7FE2CE4
:104C2000EE20C9F243131FC092131DC080915F0391
:104C300080FD10C0982F907F69F0F8018583903F28
:104C400031F0982F907F905F8F70892B8583C801FA
:104C50000E94441E86E0F801AAE5B3E001900D929F
:104C60008A95E1F725CFC8010E94C6128111A6CF0F
:104C700080915F03816080935F03C8010E94441E9E
:104C800017CFEE2009F4A7CFC8010E94C612F82E54
:104C9000882309F4A0CF86E0F801AAE5B3E00190EB
:104CA0000D928A95E1F780915A0390915B030E94DF
:104CB000B8120E94A824FCCE81E08E2513CF1F934A
:104CC000CF93DF93CDB7DEB767970FB6F894DEBF0B
:104CD0000FBECDBF4B8B5C8B6D8B7E8B8F8B611131
:104CE0001092B3031A8A2C898E899F893B893D874C
:104CF0002E876F87998B888B86E0FE013D96DE01BB
:104D0000179601900D928A95E1F7CE0107960E94C1
:104D1000FE24882389F016E080919103909160032E
:104D200089134FC067960FB6F894DEBF0FBECDBF94
:104D3000DF91CF911F91089586E0FE013796DE0145
:104D4000119601900D928A95E1F74A855B85411590
:104D5000510509F37F816885862F87238F3FD9F21C
:104D60002091600330E0C901019687709927E09196
:104D70009103E817190671F40E941D19109260033F
:104D80001092910386E0EAE5F3E0DF011D928A9537
:104D9000E9F7C1CF79836A835D834C8396E0929F64
:104DA000D001939FB00D1124AF59BC4FFE01319635
:104DB00001900D929A95E1F7809360030E9488100C
:104DC000AACF819FC00111248F599C4F0E94FE24BD
:104DD000882309F4A7CF8091910390E00196877012
:104DE00099278093910398CF1F920F920FB60F923D
:104DF00011242F933F934F935F936F937F938F93E0
:104E00009F93AF93BF93CF93DF93EF93FF93D09193
:104E1000E900DF708091EC00C82FC17080FDC0E810
:104E20001092E9008091F000877F8093F0007894E1
:104E30000E9432191092E9008091F00088608093FE
:104E4000F000CD2BCF70C093E900FF91EF91DF917F
:104E5000CF91BF91AF919F918F917F916F915F9112
:104E60004F913F912F910F900FBE0F901F9018956B
:104E70001F920F920FB60F9211242F933F934F93CF
:104E80005F936F937F938F939F93AF93BF93EF93B2
:104E9000FF938091E10082FF09C08091E20082FFD0
:104EA00005C08091E1008B7F8093E1008091DA0062
:104EB00080FF24C08091D80080FF20C08091DA005C
:104EC0008E7F8093DA008091D90080FF9BC080E1C3
:104ED00089BD82E189BD09B400FEFDCF81E08093E8
:104EE000A80580918305811109C00E947C030E945E
:104EF00047048091E20084608093E2008091E100A9
:104F000080FF17C08091E20080FF13C08091E20013
:104F10008E7F8093E2008091E20080618093E200C6
:104F20008091D80080628093D80019BC85E080937E
:104F3000A8058091E10084FF29C08091E20084FFF0
:104F400025C080E189BD82E189BD09B400FEFDCFA5
:104F50008091D8008F7D8093D8008091E1008F7E72
:104F60008093E1008091E2008F7E8093E200809147
:104F7000E20081608093E2008091A905882309F412
:104F800047C084E08093A8058091A8058091E10046
:104F900083FF27C08091E20083FF23C08091E1005E
:104FA000877F8093E10082E08093A8051092A90595
:104FB0008091E1008E7F8093E1008091E2008E7FFE
:104FC0008093E2008091E20080618093E20042E001
:104FD00060E080E00E9415048091F000886080937A
:104FE000F000FF91EF91BF91AF919F918F917F91D1
:104FF0006F915F914F913F912F910F900FBE0F9046
:105000001F90189519BC1092A8051092830576CFB1
:105010008091E30087FD02C081E0B4CF83E0B2CF8E
:1050200078941F921FB61F9211248F939F93AF9372
:10503000BF9380917A0590917B05A0917C05B091FA
:105040007D050196A11DB11D80937A0590937B0586
:10505000A0937C05B0937D05BF91AF919F918F91F7
:105060001F901FBE1F9018951F921FB61F921124EC
:105070008F939F93AF93BF9380917905811113C054
:1050800080917A0590917B05A0917C05B0917D057A
:105090004196A11DB11D80937A0590937B05A09345
:1050A0007C05B0937D05BF91AF919F918F911F902B
:1050B0001FBE1F901895CDB7DEB7A4970FB6F89412
:1050C000DEBF0FBECDBF84B7877F84BF0FB6F89415
:1050D000A8958091600088618093600010926000C4
:1050E0000FBE80E890E00FB6F89480936100909333
:1050F00061000FBE85B7806885BF85B7806885BFB2
:1051000086E99EE090931103809310030E947C0334
:105110000E9447048091E20084608093E2007894CA
:105120008091A8058823A1F01091E9001F7090914B
:10513000EC00892F817090FD80E8182B1092E90017
:105140008091E80083FD0E9432191F701093E900DE
:1051500082E084BD93E095BD9AEF97BD80936E0089
:105160000E94E912811102C00E9447120CE411E072
:10517000D8018D918D018F3F11F00E94980EB1E002
:1051800005351B07A9F705E511E0F80181918F01AD
:105190008F3F11F00E94980EF1E000361F07A9F72B
:1051A00086E1E8EEF3E0DF01282F1D922A95E9F76A
:1051B000EAEBF3E0DF011D928A95E9F70E94991D61
:1051C000811102C00E94C91D82E090E00E94742EED
:1051D0008093D0030E94021390937F0580937E05F5
:1051E0000E947317EFE3FCE93197F1F700C000006C
:1051F0000E9473178091E80380FF08C06FEF7FEF74
:1052000090E080E00E94B62E0E947D1183E090E045
:105210000E94742E0E9419191092BC058FEF9FEF07
:105220009093D6058093D5059093D8058093D705A4
:105230009093DA058093D9059093DC058093DB0584
:105240009093DE058093DD059093E0058093DF0564
:105250009093E2058093E1059093E4058093E30544
:1052600010920B04909325048093240490932704B8
:1052700080932604909329048093280490932B0410
:1052800080932A0490932D0480932C0490932F04F0
:1052900080932E04909331048093300490933304D0
:1052A000809332040E94991D811104C00E94C91D7F
:1052B0000E94601746E050E06CE170E086EB95E0FC
:1052C0000E94642E10923D048091B6058C7F11F4EB
:1052D0000E9460170E94361E84E091E0909376054C
:1052E0008093750538E1632E712C40E4342EBB2485
:1052F000B394442443948091A80523E0F22E00E166
:1053000012E1853009F4F5C10E947317882359F022
:105310008FB7F89440917A0550917B0560917C0598
:1053200070917D058FBF98EEC92E93E0D92EE1EDE7
:10533000F3E0D60110E000E0602FED90FD902191A8
:1053400031912E153F0509F4FFC12E253F25A12CD3
:1053500088248394912CA90148215921452B09F4D3
:10536000EDC1A9826A83E820F92081E0E114F1040B
:1053700009F480E08B830E9415058160782F9D835E
:105380008C8349815A816B818D810E945F26F8014F
:10539000EE0FFF1FEF52FC4F8081918188269926E6
:1053A00091828082EF2871F089E0809FF001819FD7
:1053B000F00D1124E958FE4FEA0DF11D80818F3F59
:1053C00009F0A3C1A12C0A2D10E080910B04800FDD
:1053D000912F911D09976CF188E090E07C01E01A13
:1053E000F10AB801645F7B4FA7018CE094E00E9452
:1053F0005B2EB8016C5E7B4FA70184E194E00E94B4
:105400005B2EA701440F551FB801660F771F6C5D17
:105410007B4F84E294E00E945B2EB801645E7B4F78
:10542000A7018CE194E00E945B2E88E08A198093AA
:105430000B0480910B0490E0A52DB0E09D01220F9C
:10544000331F26523E4FAA0FBB1FBD0165527E4F30
:1054500041E0480F9A1508F45CC180930B040E9448
:105460006B1686E0E5E0F4E0DE01119601900D9206
:105470008A95E1F710910704E0900804009109046F
:10548000F0900A0410920704109208041092090484
:1054900010920A04812F8E2909F448C080910304D8
:1054A000909104040E9406059C018091FF038823CB
:1054B00009F442C325313105C8F18F3F19F08F5FE0
:1054C0008093FF03112359F00E941C0E9FEF1116C9
:1054D0000CF491E0899F802D112480930704EE2025
:1054E00059F00E941C0E9FEF1E140CF491E0899F4E
:1054F000802D112480930804309107043323B1F0E8
:1055000020910804222391F055EB3503C0011124AA
:10551000992309F430C19093070445EB24039001CB
:105520001124332309F42AC130930804802F8F29D2
:1055300009F448C080910104909102040E9406057C
:105540009C018091FE03882309F4F1C221353105C5
:10555000C8F18F3F19F08F5F8093FE03002359F04D
:105560000E94FA0D9FEF10160CF491E0899F802D98
:10557000112480930904FF2059F00E94FA0D9FEF37
:105580001F140CF491E0899F802D112480930A044C
:10559000309109043323B1F020910A04222391F0C1
:1055A00055EB3503C0011124992309F4EAC0909307
:1055B000090445EB240390011124332309F4E4C0CA
:1055C00030930A048091070490910804892B9091EC
:1055D0000904892B90910A04892B11F00E945B0D1C
:1055E0001B83EC820D83FE8286E0FE013196A5E0EE
:1055F000B4E001900D928A95E1F70E94AF05909179
:10560000E70389138093E7038091A805843009F0AC
:1056100072CE83E08093E9008091E80082FF6BCE38
:105620008091E80090E085FF06C00E949B038823DC
:1056300009F4ADC091E08091E8008B778093E80099
:10564000992309F458CEE981E150E33108F02FC1E4
:10565000F0E0E357F04D0C94C92D8091A8058430FB
:1056600009F436C00E946B1680913C0481110DC074
:105670000E947D13109211018091B6058370809372
:1056800010010E94A111F092120140923C0410926C
:1056900079050FB6F894A895609260000FBE30921D
:1056A000600083B7817F846083BF83B7816083BFDD
:1056B0007894889583B78E7F83BF0FB6F894A895AA
:1056C00080916000886180936000109260000FBE3E
:1056D0008091A705882369F00E947317E8EEF3E034
:1056E00081919191892B09F003C223E0EE3FF207EB
:1056F000B9F78091A805853009F4AFCF0E941D1934
:105700000E94AF0510923C04FFCD582EAA24A3940A
:105710005ACE90E0FC01E55FFB4FD9015C915183CB
:10572000DB015C915187518A880F991FFC01E55F6D
:10573000FB4F128E118E842F91E08ACEA394880C99
:10574000991C49E0A41207CE0F5F1F4F0B301105C3
:1057500009F0F2CD8FEF89838A831B820E941505A1
:105760008160782F9D838C8349815A816B818D81E3
:105770000E945F2674CEB0920704CFCEB092080488
:10578000D5CEB092090415CFB0920A041BCF00E227
:1057900010E0CE0101967C018091E80085FD0AC0F1
:1057A0008091E8008B778093E8000E949B03882318
:1057B00099F340CF8091F100D7018D937D01015085
:1057C000110951F737CF1A8289E08B8323C08A8170
:1057D000823009F4A3C1833009F443C0813009F059
:1057E00066C08FB7F89420917A0530917B0540917F
:1057F0007C0550917D0529A33AA34BA35CA38FBFE1
:1058000069A17AA18BA19CA10E94CF2D6B837C837F
:105810008D839E838091A805843009F06CCD109112
:10582000E9001F709091EC00892F817090FD80E855
:10583000182B82E08093E9008091E80080FF0DC082
:1058400050E040E060E270E0CE0101960E94CC039F
:105850008091E8008E778093E8001F701093E90034
:105860004ACDFE0131968EEF93E0D6012C91119630
:105870003C91B2E0CB0ED11C3283238332968C153F
:105880009D0599F7C7CF8A81823089F42B813C81AD
:105890004D815E8129A33AA34BA35CA3CA01B90140
:1058A0000E94CF2D86E290E00E94982EB3CF8FEF1A
:1058B0008983B0CF4C816B818A810E9456129827D0
:1058C000892798279E838D83A5CF0D811E81102760
:1058D000012710278A81EB8032E1E39E70011124B9
:1058E00046EC849FE00CF11C11248C8190E0880F21
:1058F000991FE80EF91E612FC70187960E94982E06
:10590000602FC7018896D0CF0E94D81183CF8A819B
:10591000823879F1C0F48038F9F0813809F07ACF13
:1059200060E08B810E944E068B8181111FC08091A7
:10593000B605837011F0109212018091B6058C7F2C
:105940008093B60567CF833809F064CF8B8120E060
:105950004091B9056C8106C08091B70520E04B816C
:105960006091B80590E00E94F20554CF0E947F0636
:1059700051CF8B818093BA054DCF8A818238C1F097
:1059800050F4803891F0813809F044CF8091B60509
:10599000869586951ACF833809F03CCF8091B7055C
:1059A0008B838091B8058C8335CF8091B9050DCF5D
:1059B0008091BA050ACF0E9460162CCF80E18A83BD
:1059C00029CFBA8287E801CF0A811B8110270127DE
:1059D0001027CE0101967C01CC80DC01AC0DB11DFD
:1059E0006D01C80187589D4FCE14DF0409F412CF12
:1059F0000738B1E01B0750F40E94742EF70184832E
:105A00000F5F1F4FBFEFEB1AFB0AEBCFD7011496C6
:105A10001C92F6CF0A811B81102701271027FE0157
:105A200031966F01EC80E00EF12EF11CC801875811
:105A30009D4F0E151F0509F4EDCE0738F1E01F0745
:105A400028F4D60114966C910E94982EBFEFCB1AC1
:105A5000DB0A0F5F1F4FEACF0E94C811DBCE83E045
:105A6000AECF0A811B81102701271027FE01319636
:105A70007F01CC809F012C0D311D6901C8018796E3
:105A8000EC14FD0409F4C6CE023532E0130758F4D5
:105A90000E94742ED70114968C930F5F1F4FFFEF57
:105AA000EF1AFF0AEBCFF7011482F7CF0A811B81AF
:105AB0001027012710279E012F5F3F4F6901EC80BF
:105AC000E00EF12EF11CC8018796E016F10609F4EC
:105AD000A1CE023532E0130728F4D60114966C915A
