:100000000C942D030C9465030C9465030C94650308
:100010000C9465030C9465030C9465030C946503C0
:100020000C9465030C9465030C943A270C94F62603
:100030000C9436280C9465030C9465030C946503AA
:100040000C9465030C9465030C9465030C94650390
:100050000C9465030C9412280C9465030C946503AE
:100060000C9465030C9465030C9465030C94650370
:100070000C9465030C9465030C9465030C94650360
:100080000C9465030C9465030C9465030C94650350
:100090000C9465030C9465030C9465030C94650340
:1000A0000C9465030C9465030C9465030501090227
:1000B000A10185020901A1000509190129081500FE
:1000C0002501950875018102050109300931158165
:1000D000257F95027508810609381581257F9501D0
:1000E00075088106050C0A38021581257F95017572
:1000F000088106C0C005010980A101850319012AF4
:10010000B700150126B700950175108100C0050CD8
:100110000901A101850419012AA002150126A002E6
:10012000950175108100C005010906A1018506052C
:100130000719E029E71500250195087501810205D9
:1001400007190029EF1500250195F07501810205B9
:10015000081901290595057501910295017503910D
:1001600001C00660FF0961A1010962150026FF00B8
:100170009520750881020963150026FF00952075FA
:10018000089102C005010906A101050719E029E748
:1001900015002501950875018102950175088101F9
:1001A0000507190029FF150026FF0095067508812F
:1001B000000508190129059505750191029501753C
:1001C000039101C0000000000000000000000000DA
:1001D000000000000000000000000000000000001F
:1001E00000000000000000007E0F00D4FFFFFFC7EA
:1001F0000000007800000000000000002A2B28000A
:1002000000000000000000000000000000000029C5
:10021000000000002C1E3420212224342627252E05
:10022000362D3738271E1F2021222324252633333D
:10023000362E37381F0405060708090A0B0C0D0E69
:100240000F101112131415161718191A1B1C1D2F35
:100250003130232D350405060708090A0B0C0D0E55
:100260000F101112131415161718191A1B1C1D2F15
:100270003130354C69646F62616F2F696436333A8F
:1002800069646F62616F202876302E31362E392DE9
:100290003135302D67306130626333290000010150
:1002A0000101010101010102020202020202020235
:1002B0000303030303030303040404040404040505
:1002C00005050505060606060607070707070808C9
:1002D0000808090909090A0A0A0B0B0B0C0C0C0D7A
:1002E0000D0D0E0E0E0F0F0F101011111112121313
:1002F000131414151516161717181819191A1A1B8E
:100300001B1C1D1D1E1E1F202021222223242425EC
:100310002626272829292A2B2C2D2D2E2F30313225
:1003200032333435363738393A3B3C3D3E3F404135
:1003300042434445464748494A4C4D4E4F5051531D
:1003400054555658595A5B5D5E5F616264656668D4
:10035000696B6C6D6F7072737577787A7B7D7E8058
:1003600082838587888A8C8E8F91939596989A9CA4
:100370009EA0A2A3A5A7A9ABADAFB1B3B5B7BABCB8
:10038000BEC0C2C4C6C9CBCDCFD1D4D6D8DBDDDF89
:10039000E2E4E7E9EBEEF0F3F5F8FAFDFF165C1E98
:1003A000001F002000210022002300240025002639
:1003B0000027002D002E002A002B0014001A000830
:1003C00000150017001C0018000C00120013002F6D
:1003D0000030003100394104001600070009000A0E
:1003E000000B000D000E000F003300340000002849
:1003F00000E10000001D001B0006001900050011AF
:1004000000100036003700E50052003800E000E33D
:10041000000000E200000000002C000000000010BE
:100420005F7642500051004F0035003A003B003CDF
:10043000003D003E003F00400041004200430044B8
:100440000045004C000100C25C5200C35CC55CC6A4
:100450005CC75CC85CC95CCA5C4600470048004990
:10046000000100500051004F000100010001000197
:1004700000CB5CCC5C010001000000010001000029
:1004800000005C0100C45C01000100145C0100017B
:1004900000010001004B000100010001000000010B
:1004A0000000000000010000000000010003514AAC
:1004B000004E004D002900BE00BD00805F815FCA74
:1004C0005CC95CAC00AE00AB00A800AA00A9006645
:1004D0000001000100010001000100010001000114
:1004E0000001000100010001000100010001000104
:1004F00000010001000100010001000100010001F4
:1005000000010001000000010001000000000001E6
:10051000000100895F0100010001000100010001EC
:1005200000010001000100010000000100000000C6
:100530000001000000000003510100010001000162
:1005400000010001000100010001000100010001A3
:100550000001000100010001000100010001000193
:100560000001000100010001000100010001000183
:100570000001000100010001000100010001000173
:100580000001000100010001000100010001000163
:100590000000000100010000000000010001000156
:1005A0000001000100010001000100010001000143
:1005B0000001000100000001000000000001000037
:1005C0000000000100010001000100010009025BC0
:1005D00000030100A0FA0904000001030101000961
:1005E00021110100012240000705810308000109D3
:1005F0000401000203000000092111010001222270
:1006000000070582032000010705030320000109FC
:10061000040200010300000009211101000122B6BB
:1006200000070584032000011201000200000008F9
:10063000646963000001010200010A0349004400EB
:100640003600330000000E03490044004F00420012
:1006500041004F0000000403090411241FBECFEF26
:10066000DAE0DEBFCDBF04B603FE18C08091F3040C
:100670009091F404A091F504B091F6048730904B6A
:10068000A740B04B59F41092F3041092F404109266
:10069000F5041092F604E0E0F8E3099524E0AEE9F1
:1006A000B2E001C01D92A33FB207E1F712E0A0E063
:1006B000B1E0E8E8FFE502C005900D92AE39B10760
:1006C000D9F70E945D280C94432F0C940000E8EDAC
:1006D000F0E080818E7F80831092E2001092DA0039
:1006E0001092E100A0EEB0E08C9181608C9380814B
:1006F0008F77808319BCA7EDB0E08C918E7F8C93AF
:1007000080818F7E808310928D0408952091E40073
:100710003091E50095E6A9012091EC00822F8170CF
:1007200020FF06C08091E80080FF06C080E00895A9
:100730002091E80022FD1AC08091B204882389F03C
:10074000853089F08091EB0085FD0FC02091E40099
:100750003091E50042175307F9F29150E1F684E039
:10076000089582E0089583E0089581E00895EF926E
:10077000FF920F931F93CF937C018B010E948603FE
:10078000C82F811117C08091E80085FD0BC08091B2
:10079000E8008E778093E8000E948603882399F30F
:1007A000C82F08C0F70181917F018093F1000150AB
:1007B000110949F78C2FCF911F910F91FF90EF9066
:1007C00008958091B40487FF13C08091E80082FFF0
:1007D00006C08091E8008B778093E80004C0809188
:1007E000B2048111F2CF08958091B2048823D9F325
:1007F0008091E80080FFF8CF8091E8008E77ECCF01
:10080000982F9093E900242F762F50E0891731F02C
:100810007091EC002091ED005091F00021FD07C097
:100820009F5F973071F78093E90081E008953091E0
:10083000EB003E7F3093EB003091ED003D7F309335
:10084000ED003091EB0031603093EB007093EC00E1
:100850002093ED005093F0002091EE0027FDE0CFB3
:1008600080E00895CF92DF92EF92FF920F931F9353
:10087000CF93DF93C8EDD0E088818F7E8883E7ED4A
:10088000F0E080818160808384E082BF81E080939A
:100890008D0488818E7F888302EE10E0F80110823B
:1008A0001092DA0081EEC82ED12CF60110828881D8
:1008B0008F77888388818068888388818F7D88830B
:1008C00019BC1092B2041092B3041092B1041092A9
:1008D000B00490EEE92EF12CF70180818B7F8083AC
:1008E00088818160888342E060E080E00E940004AB
:1008F000F60180818E7F8083F80180818160808312
:10090000808188608083F70180818E7F80838881E9
:1009100080618883DF91CF911F910F91FF90EF90BD
:10092000DF90CF900895FC01CB012091BA04309163
:10093000BB042617370790F0009729F42091E800B0
:100940002E772093E80040E0009751F4411108C051
:100950008091E80082FF31C080E00895C901F3CFA3
:100960002091B2042223A9F12530A9F12091E800B9
:1009700023FD2DC02091E80022FDEACF2091E80060
:1009800020FFE2CF3091F3002091F200009719F0A0
:100990002830310558F041E02830310509F040E0B9
:1009A0002091E8002E772093E800CECF419140932C
:1009B000F10001972F5F3F4FE9CF8091B204882368
:1009C00041F0853041F08091E80083FFC1CF81E0A4
:1009D000089582E0089583E00895089580918F043A
:1009E00008959C014FB7F8948091840490918504F8
:1009F000A0918604B09187044FBF821B930B08958A
:100A00002FB7F8948091840490918504A091860476
:100A1000B09187042FBF08959C0180911301882312
:100A2000C9F08091880487FF15C0E62FE695E6950A
:100A3000E695603FE0F4E20FF32FF11D677081E06F
:100A400090E001C0880F6A95EAF78095928189232A
:100A500082830895F9013296285F3F4F8191681390
:100A600003C0DF0111971C92E217F307B9F708954D
:100A70009C01809113018823C1F08091880487FF35
:100A800014C0E62FE695E695E695603FF8F4E20F90
:100A9000F32FF11D677021E030E001C0220F6A954D
:100AA000EAF78281822B82830895F90132968FEFD3
:100AB00090E04191641751F08F3F19F4411101C04A
:100AC000892F9F5F9630A9F78F3F09F40895280F6B
:100AD000311D87FD3A95F9016283089520918104C3
:100AE000309182042817390771F090938204809323
:100AF0008104E0917F04F0918004309721F000841C
:100B0000F185E02D0994089520917D0430917E04B3
:100B10002817390771F090937E0480937D04E0914B
:100B20007F04F0918004309721F00680F781E02D5A
:100B300009940895E0917F04F0918004309721F0AA
:100B40000190F081E02D099480E00895FA0181116F
:100B50000994FB01FDCFECE9F3E0818360834283DC
:100B6000339694E0ED37F907C1F70895FC01EE0FD5
:100B7000FF1FE80FF91FE456FC4F61834083228377
:100B80000895E0ECF4E0248130E1231B08F420E038
:100B9000248380919B03816080939B030895E0EC04
:100BA000F4E0248130E1230F08F42FEF24838091B7
:100BB0009B03816080939B030895922F2091C00432
:100BC000237071F08093C1046093C204453B08F028
:100BD00044EB4093C30420919B03292B20939B0358
:100BE0000895E0ECF4E0438120E1421B08F440E08A
:100BF000818121E0628190E00C94DD05E0ECF4E07D
:100C0000438120E1420F08F44FEF818121E06281AE
:100C100090E00C94DD05E0ECF4E0628120E1621BE1
:100C200008F460E0818121E0438190E00C94DD05CF
:100C3000E0ECF4E0628120E1620F08F46FEF818163
:100C400021E0438190E00C94DD05E0ECF4E081814B
:100C500021E0438162818850990B0C94DD05E0EC22
:100C6000F4E0818190E021E04381628108960C9458
:100C7000DD05262F9091C004937061F081110BC0A7
:100C800094609093C0041092120160919B03622BB8
:100C900060939B030895883210F09C69F2CF880F0F
:100CA000880F982BEECF9091C004969596958FEF74
:100CB000890F913009F487E261E00C943906809144
:100CC000C004869586958F5F883208F081E061E0E8
:100CD0000C9439068091C004837011F410921201B3
:100CE0008091C0048C7F81608093C0040895EF924E
:100CF000FF920F93282FC701801B91098F3F910509
:100D000019F010F08FEF90E08095382F230F08F442
:100D10002FEF822F0F91FF90EF900895EF92FF92A7
:100D20000F93282FC701801B91098F3F910519F060
:100D300010F08FEF90E0382F3095230F08F42FEF4D
:100D4000680F822F0F91FF90EF900895EF92FF921E
:100D50000F93972FFA01B9019701093430F4201B42
:100D600031092F3F310519F010F02FEF30E03896A0
:100D7000719740F0AB01485F5F4F4131510510F072
:100D80002FEF30E02095382F320F08F43FEF77FF38
:100D900002C06D5F7F4F75956795759567958091DA
:100DA000C104680F792F832F0F91FF90EF90089562
:100DB000EF92FF920F931F93E00EF11C890137FF12
:100DC00003C011950195110924E0000F111F2A9508
:100DD000E1F70F3F110519F014F00FEF10E09A0141
:100DE00057FF03C031952195310994E0220F331F3D
:100DF0009A95E1F7201731070CF489010E0D1F1D9C
:100E00000F3F110519F010F00FEF10E00095282F9B
:100E1000200F08F42FEF822F1F910F91FF90EF907A
:100E20000895EF92FF920F93282FC70135E0039F9B
:100E3000800D911D11248F3F910519F010F08FEF57
:100E400090E08095382F230F08F42FEF822F0F9119
:100E5000FF90EF90089522E8241B08F420E0620F31
:100E600008954095282F429F412D1124842F0895E5
:100E7000E42FF0E0EE0FFF1FE454FE4F9081921B31
:100E800097FD9195292F38E1239F212D1124620F81
:100E900008950F931F93522F10E0F801EE0FFF1FDC
:100EA000E454FE4F9081905797FD9195000F111FCC
:100EB000F801E354FE4F00810052110B50039001E2
:100EC000519F300D112408E310E0091B110997FD13
:100ED00013954003F001419FF00D1124E20FF31F21
:100EE0009F01220F331F2E0F3F1F37FF02C02158D3
:100EF0003F4F220F232F221F330B620F1F910F91A1
:100F000008950F931F93522F10E0F801EE0FFF1F6B
:100F1000E354FE4FA081A052BB0B9D015203F00190
:100F2000539FF00D1124000F111FD801A454BE4F80
:100F30000C910057110B40039001419F300D11247B
:100F40002E0F3F1F37FF02C0215C3F4F96E03595C3
:100F500027959A95E1F7620F1F910F9108950F93CE
:100F60001F93522F10E0F801EE0FFF1FE354FE4FC6
:100F7000A081A052BB0B9D015203F001539FF00DC5
:100F80001124000F111FD801A454BE4F0C9100571B
:100F9000110B40039001419F300D11242E0F3F1F74
:100FA00037FF02C021583F4F220F232F221F330B40
:100FB000620F1F910F910895EF920F93972F23E0E7
:100FC000029FB0011124759567956E0D792F0F91D1
:100FD000EF900895322F50E0FA01EE0FFF1FE35417
:100FE000FE4F9081905297FD9195440F551FFA0145
:100FF000E454FE4F2081231B330B290F311D97FD35
:101000003A95620F0895E42FF0E0EE0FFF1FE354CE
:10101000FE4F6081621B0895E42FF0E0EE0FFF1F8A
:10102000E454FE4F6081621B0895622F0895582F8B
:10103000A22FE42FF0E0EE0FFF1FE454FE4F2081BB
:1010400034EE239F212D112490E030E0245E3F4FA9
:101050002A1B310937FF03C031952195310943E03F
:10106000220F331F4A95E1F7821B930B97FD80E017
:10107000282F259F212D1124822F08951F93172F8C
:10108000922FE42FF0E0EE0FFF1FE454FE4F20817B
:1010900034EE239F212D1124472F50E030E0245EB1
:1010A0003F4F291B310937FF03C031952195310985
:1010B00093E0220F331F9A95E1F7421B530B57FD24
:1010C00040E0742F719F712D11241F9108950C948D
:1010D000AB050C94B605FC019B01009729F480E058
:1010E00077FF2BC080E80895AC0197FF04C0442728
:1010F0005527481B590BB901640F751F37FD10C0E8
:10110000241B350BC901A5E0880F991FAA95E1F7AB
:101110000E94D92D80E2861BF7FF0FC081950895AC
:10112000CB0165E0880F991F6A95E1F7BA01621B50
:10113000730B0E94D92D80E6EECF0895EF920F93A6
:10114000CF93DF93D72FC82FBA01C9010E190E9480
:101150006B08602F681B7D2F8C2FDF91CF910F9133
:10116000EF9008950F93CF93DF93D72FC82FBA0135
:10117000C9010E946B08682F600F7D2F8C2FDF91B3
:10118000CF910F910895EF920F931F93CF93DF9319
:10119000D62FC72F182FBA01C9010E19010F0E94AF
:1011A0006B08081B019F012D11246D2F7C2F802FB0
:1011B000DF91CF911F910F91EF900895EF920F93D0
:1011C0001F93CF93DF93D62F172FC82FBA01C901D2
:1011D0000E19010F0E946B08702F781B719F712DE3
:1011E00011246D2F8C2FDF91CF911F910F91EF90D4
:1011F00008950F931F93CF93DF93D62FC72F182FE8
:10120000BA01C901212F201B022F0E946B08982FC1
:10121000990F990F282F291B200F219F212D112471
:101220006D2F7C2F822FDF91CF911F910F91089509
:101230000F931F93CF93DF93D62F172FC82FBA0189
:10124000C901212F201B022F0E946B08982F990F94
:10125000990F782F791B700F719F712D11246D2FAD
:101260008C2FDF91CF911F910F910895982FE82F28
:1012700096FDE0952E2F2F7096FD2F5FE695E69553
:10128000E695E670F0E0E15AFE4F8181829F802D65
:10129000212D112482958F702295207F822B208111
:1012A000820F97FD8195805808950F931F93CF93D8
:1012B000DF938B01D82FC42F822F0E943609EC2F89
:1012C000F0E0EE0FFF1FE454FE4F90819058980F0E
:1012D00097FD9195990F692F2CE0629F612D112444
:1012E000600F712F8D2FDF91CF911F910F91089576
:1012F0009C018230910508F408959FEF213E8EE114
:10130000380740F4C90145E0969587954A95E1F77D
:1013100098E0980F61E0E62FE90FFF27FF1FAF016C
:1013200055954795842F449FF001459FF00DF00D92
:1013300011242E173F0738F49FEF940F961758F794
:101340008FEF860F08954F3FE9F361E0640FF6CF0A
:101350000F93CF93DF93D72FC82FF90147FD419506
:1013600028E330E0241B310947FD3395229FA0017B
:10137000239F500D500D1124EE9FC001EF9F900D43
:10138000900D1124840F951F0E947809982F990FB2
:10139000692F680F600F7D2F8C2FDF91CF910F91F8
:1013A00008959C0190E080E0269F812D369F800D5E
:1013B000911D11240895AF92BF92CF92DF92EF92C8
:1013C000FF920F931F93CF93DF93262F472FE82F82
:1013D000F0E0E356FD4F71110FC06491862FE62FA8
:1013E0007E2FDF91CF911F910F91FF90EF90DF90B3
:1013F000CF90BF90AF900895E72EF12CE49186E056
:10140000689F80011124CFEFD0E0C801BE010E9487
:10141000C52DDB0130E0220F331F55E5569FC0017B
:10142000579F900D1124281B390B622F660F260F32
:10143000CE018E199F09E89F6001E99FD00C11240D
:101440006D2D429FA0011124452F5527CE01841BED
:10145000950BE89FA001E99F500D1124852F5E0197
:10146000A21AB108AE9C9001AF9C300DBE9C300D0D
:101470001124232F3327C21BD30BEC9F9001ED9F28
:10148000300D1124A330B105B1F00C3F93E01907E2
:1014900060F4A130B10599F01297A9F00F3F110542
:1014A00008F09ECF8D2D632F9BCFA430B10571F036
:1014B0001697C1F395CF652F8E2FED2D91CF6E2FFF
:1014C000E52F8D2D8DCF832F6E2FF7CF8E2FE32F0E
:1014D00087CF2F923F924F925F926F927F928F921F
:1014E0009F92AF92BF92CF92DF92EF92FF920F93B3
:1014F0001F93CF93DF93CDB7DEB729970FB6F8943C
:10150000DEBF0FBECDBF282E6A837B8320911401DE
:101510008FE0289F802D11248E83815F89838C83A7
:101520008C3410F03BE43C838091C6048D83FE81B3
:10153000EF2FF0E0F987E887CF01880F991F9C0112
:1015400024543E4F6901822D90E0FC013196FF83C7
:10155000EE838C8198859817F0F081E0E981EB3477
:1015600008F080E029960FB6F894DEBF0FBECDBF1D
:10157000DF91CF911F910F91FF90EF90DF90CF906F
:10158000BF90AF909F908F907F906F905F904F90A3
:101590003F902F900895E885F985EE5AFD4F8081A0
:1015A000909115018923F1F04090C1045090C2043C
:1015B0002E813F812A533B4F3901322C10E0FD81AF
:1015C0003F16D0F02091C304129F112D1124B201B7
:1015D000812F0E94DB09462F672F282F8885998548
:1015E0000E946908288539852F5F3F4F39872887F2
:1015F00032E0C30ED11CADCFF30181913F01F60162
:10160000A080A81ABB088180F3018781881A9908F5
:10161000AA9C9001AB9C300D300D1124889CC00118
:10162000899C900D900D1124820F931F0E947809C0
:10163000082F6091C40421E0620F08F46FEFF301FA
:10164000EE0FFF1FE65CF440858996890E94D10960
:101650007C019401A501B201812FEA81FB810995EA
:101660002B01182F3394ABCFCF92DF92EF92FF92E2
:101670000F931F93CF93DF938C01C09114018FE0E0
:10168000C89FC02D11242FE0D22EDC0ECD2C2BE4D0
:101690002D1510F49BE4C92E2091C40431E0230FD2
:1016A00008F42FEF30E050E040E06FEF7FEF80E094
:1016B00090E00E94E02E7901D0E02C2FCC1570F044
:1016C00081E0FAE4FD1508F480E0DF91CF911F91ED
:1016D0000F91FF90EF90DF90CF900895FE01EE5AAA
:1016E000FD4F808190911501892311F14091C6042D
:1016F0004150042E000C550B47FF1CC0C7016091E0
:10170000C40421E0620F08F46FEF0E94D109AC011C
:101710006091C1047091C2048091C304F8010995DD
:101720000E94DB09462F672F282FCE010E946908EF
:101730002196C3CFFA01EA53FB4F818982130AC075
:10174000FA01EE0FFF1FEA53FB4F818D928D8E152C
:101750009F05A8F241505109CFCFDF92EF92FF923F
:101760000F931F93CF93DF937C01C09114018FE0FF
:10177000C89FC02D11241FE01C0FD12E1C3410F067
:101780008BE4D82E6091C4046695669521E0620FC3
:1017900008F46FEF8091BC049091BD040E94D109C0
:1017A000082FD0E0CD1560F081E01B3408F080E018
:1017B000DF91CF911F910F91FF90EF90DF900895EF
:1017C000FE01EE5AFD4F808190911501892391F021
:1017D0006091C1047091C2048091C304202F4C2FEA
:1017E000F70109950E94DB09462F672F282FCE01AC
:1017F0000E9469082196D6CFBF92CF92DF92EF92D6
:10180000FF920F931F93CF93DF9300D000D00F92DE
:10181000CDB7DEB76C018091140189838FE0998187
:10182000989F802D11248B839FE0F92EF80EBF2CFA
:10183000EBE4EF1510F48BE4B82E6091C4046695C8
:1018400066958091BC049091BD040E94D109182F27
:1018500080E4810F0E94360980588983812F0E947D
:10186000360980588A839B81892F90E09D838C83E1
:101870009C819B15A0F081E0EAE4EF1508F480E07C
:101880000F900F900F900F900F90DF91CF911F91BD
:101890000F91FF90EF90DF90CF90BF900895EC8173
:1018A000FD81EE5AFD4F8081909115018923A9F0A9
:1018B0006091C1047091C2048091C304E12E0C8137
:1018C0002A814981F60109950E94DB09462F672F7D
:1018D000282F8C819D810E9469088C819D810196B1
:1018E000C5CF7F928F929F92AF92BF92CF92DF929D
:1018F000EF92FF920F931F93CF93DF934C01C09110
:1019000014018FE0C89FC02D11241FE01C0F712E01
:101910001C3410F09BE4792E6091C404669580918C
:10192000BC049091BD040E94D109F82ED0E0C715E7
:1019300090F081E01B3408F080E0DF91CF911F919F
:101940000F91FF90EF90DF90CF90BF90AF909F905E
:101950008F907F900895FE01EE5AFD4F8081909107
:1019600015018923B9F19E01220F331FF901E454B7
:10197000FE4F8081482F4057550B6A0123543E4F3C
:10198000F9018081282F2052330B5901449F900187
:10199000459F300D300D1124AA9CC001AB9C900DC9
:1019A000900D1124820F931F0E947809082F6091D7
:1019B000C1047091C2048091C304EF2C9501A6016B
:1019C000F40109950E94DB09462F672F282FCE01CD
:1019D0000E9469082196ABCFCF92DF92EF92FF92DF
:1019E0000F931F93CF93DF937C01C09114018FE07D
:1019F000C89FC02D11241FE01C0FC12E1C3410F0F5
:101A00009BE4C92E6091C40466958091BC049091BA
:101A1000BD040E94D109D82ED0E0CC1568F081E039
:101A20001B3408F080E0DF91CF911F910F91FF9060
:101A3000EF90DF90CF900895FE01EE5AFD4F808128
:101A400090911501892301F1AE01440F551FFA0150
:101A5000E354FE4F20812052330B44545E4FFA0171
:101A600040814057550B6091C1047091C204809130
:101A7000C3040D2DF70109950E94DB09462F672F3E
:101A8000282FCE010E9469082196C7CF0E94000529
:101A90002091650330916603232B21F0809361032D
:101AA000909362032091670330916803232B21F008
:101AB00080935F0390936003E0917F04F091800432
:101AC000309749F082E0809363030480F581E02D34
:101AD00083E693E00994089540916503803F59F4AB
:101AE0008091660387FF0DC01092660341110BC001
:101AF00010925D0308C0813F81F48091660318163F
:101B00009CF3442381F08091670390916803892BB3
:101B100009F05AC010925C030895823F49F447FFD0
:101B2000F0CF10926503809166038111ECCFE0CF76
:101B3000833F19F41416ACF3E4CF90916703893F07
:101B400029F41916F4F610926703DBCF8A3F19F4D3
:101B500097FFD7CFF8CF909168038B3F29F497FF79
:101B6000D0CF10926803CDCF8C3F19F41916CCF367
:101B7000C8CF9CE0980F953090F4845F990B21E0DA
:101B800030E0B90102C0660F771F8A95E2F7CB01FA
:101B9000809590916403892380936403B2CF8D3F35
:101BA00031F480915E038E7F80935E03AACF8E3FD7
:101BB00021F480915E038D7FF7CF8F3F09F0A1CF95
:101BC00080915E038B7FF0CF089580915E0380FD4E
:101BD00016C081FD16C082FD16C080915C0388236B
:101BE000A1F0883280F428E0829FC001112468E2CD
:101BF00070E00E94D92D862F672B39F0089582E07E
:101C0000089584E0089588E0089581E00895809122
:101C10005E0380FD14C081FD14C082FD16C080915A
:101C20005D03882381F08E3180F420E5829FC0011E
:101C300011246EE170E00E94D92D862F089584E171
:101C4000089588E2089588E0089580E50895803F2A
:101C500031F40E94070E8195809366030895813FB9
:101C600019F40E94070EF8CF823F31F40E94070E4C
:101C70008195809365030895833F19F40E94070EB0
:101C8000F8CF893F29F40E94E50D809367030895FA
:101C90008A3F21F40E94E50D8195F7CF8B3F31F407
:101CA0000E94E50D81958093680308958C3F19F497
:101CB0000E94E50DF8CF9CE0980F953070F4845F9A
:101CC000990B21E030E001C0220F8A95EAF780915C
:101CD0006403822B8093640308958D3F31F48091D7
:101CE0005E03816080935E0308958E3F21F48091AE
:101CF0005E038260F7CF8F3FB9F780915E03846007
:101D0000F1CF80E00895F894E82FE295EF70F0E0CD
:101D100041A18F7021E030E0B90102C0660F771F4A
:101D20008A95E2F7CB01962F9095942391A392A1E7
:101D3000892B82A3789408959091880492FF06C01D
:101D4000282F28712830F9F4877F846093FF06C01C
:101D5000282F28712831F1F4877E8461209189042D
:101D600020FF06C0382F38713830D9F4877F816062
:101D700021FF06C0282F28712831D1F4877E816188
:101D800094FD877E0895282F24712430F9F68B7FE7
:101D90008860DCCF282F2471243101F78B7E886185
:101DA000DDCF382F3171313019F78E7F8860E0CF69
:101DB000282F2171213121F78E7E8861E1CFCF93C9
:101DC000DF93EC01803E910509F460C050F581334A
:101DD000910509F4A6C090F48932910509F49AC0DE
:101DE0008A9709F4A5C0C130D10509F462C0CE01BB
:101DF0000497813A910508F055C05BC0893391057D
:101E0000F1F182389105D9F1C59709F47CC0C83A3F
:101E1000D10508F094C0C53AD10528F3A497D06441
:101E200048C0843E910509F453C068F4823E910590
:101E3000E1F1833E910509F440C0CE01805E910935
:101E4000089780F536C0863E910509F44CC0873E60
:101E5000910509F44DC0811522E5920708F0AAC04A
:101E6000811531E5930708F0FAC08F3F910511F015
:101E700008F074C0803F910550F2D0651AC080917F
:101E800088048370B1F0C0EED0E013C08091880464
:101E900080FD12C19091890490FF0BC0C3EED0E089
:101EA00084FF07C0D0E0C0E004C08091880482FDB8
:101EB000F5CFCE01DF91CF9108958091880482FD06
:101EC000FEC09091890490FDDECF84FFF2CFEACF6F
:101ED0008091890481FFEDCF80918804C7EED0E026
:101EE00084FDE0CFE6CF8091880483FDF7CFE1CF7A
:101EF0008091880483FDE6C09091890491FFE5CF2D
:101F0000C4EED0E0D6CF8091880485FFD2CFC9E25D
:101F1000D0E0CFCF8091880485FFCBCFC5E3D0E060
:101F2000C8CF8091880486FFC4CFCAE2D0E0C1CF79
:101F30008091880486FFBDCFC1E3D0E0BACFCF3B0C
:101F4000D10508F07ACFC85AD0E0CC0FDD1FC25EB1
:101F5000DE4F0990D881C02DD464ABCF811540E508
:101F6000940760F4C11580E4D80708F075C0CE016D
:101F70009A9581159F4108F49CCF94CFF4E09695F3
:101F80008795FA95E1F783702C2F26952695237077
:101F900040E2249F90011124382B8C2F8370C1E0E4
:101FA000D0E002C0CC0FDD1F8A95E2F7C22BD32B05
:101FB000DC687FCFC11586E5D80730F5C11595E5FA
:101FC000D90708F060C0C11524E5D207C0F49C2FE2
:101FD000969596959E0123703327C115D34508F039
:101FE00043C0C1E0D0E002C0CC0FDD1F2A95E2F76C
:101FF00020E2929FC0011124C82BD92BD9CFDC2F0E
:10200000CC27C46FD06A55CFC1153AE5D30788F401
:10201000C11549E5D40708F041C0CE0198558F3F5E
:10202000910511F008F03ECFDC2FCC27C06FD06AAD
:1020300040CFCE0190568115904208F033CF8D2FBE
:102040008F710E949C0E90E0982F882788279F719F
:102050009C012C2BE90120C0DF70D06A2ACFD82F39
:10206000CC27C16FD06A25CFC1E0D0E002C0CC0F31
:10207000DD1F2A95E2F730E2939FC0011124C82B9F
:10208000D92BDA6816CF8C2F0E949C0EC82FD0E077
:10209000DC2FCC27CC27DF71D0620BCF8C2F8F7039
:1020A0000E949C0E34E0D695C7953A95E1F7CF7023
:1020B000DC2FC82FD069FDCEC9E3D0E0FACEC2EE46
:1020C000D0E0F7CEC6EED0E0F4CE80913703811198
:1020D000109237030895982F9095809136038923A5
:1020E000809336030895809113039091E202981330
:1020F00001C008958F5F8770FACFE82F2EE0929F7E
:10210000E00D11249E2F9770E695E695E69583E005
:10211000E89FF0011124EF53FD4F50E040E080E0D4
:10212000219130E0092E02C0369527950A94E2F7F6
:1021300021703327042E01C0220F0A94EAF7822B64
:102140004F5F5F4F4330510559F70895E82F2EE058
:10215000929FE00D11248E2F877041E001C0440F43
:102160008A95EAF7E695E695E69583E0E89FF00123
:102170001124EF53FD4F30E020E070E05191DF017A
:102180001197CB01022E02C0969587950A94E2F72B
:10219000817081958527842385278C932F5F3F4FFE
:1021A0002330310559F7089580938A0470938C0485
:1021B00060938B048091B2048430F9F48093E90039
:1021C0008FEF9091E800815095FD06C095ED9A95AE
:1021D000F1F700008111F5CF8091E80085FF0DC077
:1021E00050E040E063E070E08AE894E00E94B703CA
:1021F0008091E8008E778093E8000895BC0184E028
:102200000C94D410BC0183E00C94D41024E02093EF
:10221000E9002FEF3091E800215035FD06C035ED83
:102220003A95F1F700002111F5CF2091E80025FF44
:102230000BC050E040E066E070E00E94B703809180
:10224000E8008E778093E8000895CF93DF93D82F2E
:10225000C92F809113018823C1F18091880487FFE1
:1022600034C060E284E08093E9008FEF9091E80051
:10227000815095FD06C095ED9A95F1F7000081110A
:10228000F5CF8091E80085FF1DC08091130170E0BB
:1022900050E040E0811104C050E040E068E070E0B0
:1022A0008D2F9C2F0E94B7038091E8008E7780933A
:1022B000E80080E2ED2FFC2FA0E9B4E001900D9240
:1022C0008A95E1F7DF91CF91089568E081E0CBCF67
:1022D00081E08093E00080E28093D8001092C900F2
:1022E0008FE19EE40197F1F700C0000087E090EBDA
:1022F000DC018093F3049093F404A093F504B0936D
:10230000F60488E19CE00FB6F894A89580936000ED
:102310000FBE90936000FFCF279A35B13F7725B16C
:1023200020684FB7F8948CE993E0FC010196508146
:1023300068E025B9000000C057FF35B9550F00000F
:1023400000C000C000C035B900C06A9591F754E0E4
:102350008D37950751F74FBF8FE594E00197F1F75F
:1023600000C000000895CF93DF93C7E5D2E060E09E
:10237000CE010E94BC2E2196C11584E0D807B9F782
:10238000DF91CF9108956F927F928F929F92AF923B
:10239000BF92CF92DF92EF92FF920F931F93CF9352
:1023A000DF93D12CC12C3FECA32EB12CE501CC58EE
:1023B000D10936011BC0F70185909490692DC801A1
:1023C0000E94BC2E682DC80101960E94BC2E22E0FE
:1023D000E20EF11C0E5F1F4FC017D10761F73EE000
:1023E000630E711C6C96CA15DB0559F0C301880F8A
:1023F000991F9C0123563C4F79018E010C51110904
:10240000DACFCE0184579F4F5C0196E4C90ED11CF0
:10241000C337D24059F6DF91CF911F910F91FF90B2
:10242000EF90DF90CF90BF90AF909F908F907F9074
:102430006F900895CF93C82F6FEF811162E283E20E
:1024400090E00E94BC2E6FEFC11165E084E290E045
:102450000E94BC2E6FEFC11166E185E290E0CF9142
:102460000C94BC2E80E00E941A1260E086E290E09C
:102470000E94BC2E0E94C3110E94B31181E00C94F3
:102480001A120F931F93CF93DF93C42FD0E0CC0F7A
:10249000DD1F2CE1629FC00DD11D11243CE8839FFC
:1024A000C00DD11D1124CE0187960E94982E082FB1
:1024B00010E0102F0027CE0188960E94982E9801D8
:1024C000282BC901DF91CF911F910F910895462FBD
:1024D000672F843030F4753020F44E3010F40C94B3
:1024E000411290E080E00895DF92EF92FF920F9307
:1024F0001F93CF93DF937C010091F2048091380306
:10250000082BC7E0D0E010E0DC2EC8010C2E02C082
:10251000959587950A94E2F780FD0CC02197A0F766
:10252000D12C8D2DDF91CF911F910F91FF90EF90C6
:10253000DF900895B7018C2F0E9467120E94DF0E72
:10254000019761F3EECFCF93DF93D82FC92F0E946D
:1025500074126D2F7C2F0E946712DF91CF910C9423
:10256000DF0EFC01808191810E94A312282F929599
:102570009F70963091F060F4925F9F70923030F4CB
:1025800081E0203F81F030F4283E30F080E0089573
:102590009A5FF3CF243FD1F7089581E0283EE0F31E
:1025A000213FA1F7F9CF089583E290E00E94982E91
:1025B000823289F484E290E00E94982E853059F4AA
:1025C00085E290E00E94982E91E0863109F090E03B
:1025D000892F8170089580E0FCCFCF9384E090E054
:1025E0000E94982EC82F82E290E00E94982E982F89
:1025F0008C2FCF9108951F93CF93DF93EC01FC01B3
:10260000EE5AFD4F80816823C9F00E94622E182F78
:102610000E94622E782F7F7720E8720F08F47FEFF8
:10262000612F8091C3040E94DB09462F672F282F5A
:10263000CE01DF91CF911F910C946908DF91CF916A
:102640001F910895DF92EF92FF920F931F93CF9304
:10265000DF93EC01FC01EE5AFD4F8081682381F18C
:10266000D090C2040091C3041091C104E12EF12C5A
:102670000E94622E282FC7018C549F4F68E671E09C
:102680000E94D92D8E199F0997FD039695958795E0
:10269000959587952370612F289F600D11247D2DBE
:1026A000802F0E94DB09462F672F282FCE01DF9154
:1026B000CF911F910F91FF90EF90DF900C946908DC
:1026C000DF91CF911F910F91FF90EF90DF900895D0
:1026D0009F92AF92BF92CF92DF92EF92FF920F93B1
:1026E0001F93CF93DF93182F80911101811323C083
:1026F0009091C00493702091100130E081E0921716
:10270000130609F480E08170809316018091C5045E
:1027100090911501981739F08093150140E060E021
:1027200080E00E946708183260F4E12FF0E0EB5B74
:10273000F04D0C94ED2D81E0E6CF809116018111D2
:1027400002C0C0E098C140E060E080E00E946708FD
:10275000F8CFC09114018FE0C89FC02D11240FE065
:102760000C0FC02E0C3410F0ABE4CA2E6091C104E3
:102770007091C2048091C3040E94DB09F62EE72EFB
:10278000D82ED0E0CC1528F0C1E00B3408F473C18A
:10279000D8CFFE01EE5AFD4F80819091150189231B
:1027A00031F02D2D4F2D6E2DCE010E9469082196FE
:1027B000E9CFC09114018FE0C89FC02D11240FE014
:1027C0000C0F902E0C3410F0FBE49F2EB090C2043E
:1027D000C090C304D091C1046D2F7B2D8C2D0E941D
:1027E000DB09F62EE72ED82E6091C4046D0F7B2DE9
:1027F0008C2D0E94DB09C62EB72EA82ED0E0C9155D
:1028000018F6FE01EE5AFD4F908180911501892343
:1028100059F02A2D4C2D6B2D90FD03C02D2D4F2DE1
:102820006E2DCE010E9469082196E9CFC091140156
:102830008FE0C89FC02D11240FE00C0FE02E0C3448
:1028400010F0EBE4EE2ED090C204C090C3042091AF
:10285000C40470E4F72E3F2D329F312D1124F32E46
:10286000D0E0CE1508F090CFFE01EE5AFD4F8081EA
:10287000909115018923B9F0FE01EE0FFF1FE3547B
:10288000FE4F808182958F706091C1048F9D600D95
:1028900011247D2D8C2D0E94DB09462F672F282FB8
:1028A000CE010E9469082196DCCFC09114018FE00F
:1028B000C89FC02D11240FE00C0FE02E0C3410F037
:1028C0005BE4E52ED090C204C090C3042091C40400
:1028D00040E4F42E3F2D329F312D1124F32ED0E011
:1028E000CE1508F051CFFE01EE5AFD4F8081909138
:1028F00015018923D9F0FE01EE0FFF1FE454FE4FAE
:102900006081F69EB001112435E0759567953A9582
:10291000E1F78091C104680F7D2D8C2D0E94DB09A9
:10292000462F672F282FCE010E9469082196D8CF05
:10293000C09114018FE0C89FC02D11240FE00C0F2F
:10294000C02E0C3410F09BE4C92EF090C104D0913D
:10295000C204E090C3046091C404669566956695D0
:102960008091BC049091BD040E94D1090E94360957
:1029700090E8980F97FD9195990F292F3E2D239F51
:10298000212D11246F2D7D2F822F0E94DB09F62E21
:10299000E72ED82ED0E0CC1508F0F6CEFE01EE5A88
:1029A000FD4F808190911501892331F02D2D4F2D00
:1029B0006E2DCE010E9469082196EDCF8EE398E03E
:1029C0000E94AD0B07C087E198E0FACF88E199E05B
:1029D0000E94EC0CC82F4FC089EF98E0F9CF8EED24
:1029E00098E00E94710CF6CF83EC98E0FACF85E175
:1029F00098E0E6CF8CE098E0E3CF83E098E0E0CF8A
:102A00008AEE97E0DDCF8CED97E0EBCF88EA99E096
:102A1000DFCF82EB98E0DCCF8EE998E0E2CF8FEA5F
:102A200097E00E94FC0BD6CF81E897E0FACF89E4CB
:102A300097E0F7CFC0911601C1113CC06091C4046A
:102A400020E1620F08F46FEF8091BC049091BD0407
:102A50000E94D1096AE070E00E94C52D892B09F01F
:102A600070CE0E94622E6BE470E00E94D92D6091BE
:102A700015010E942213809114018F5F809314012D
:102A8000C1110CC082E08093120180911601811166
:102A900005C0111103C083E080931201DF91CF9133
:102AA0001F910F91FF90EF90DF90CF90BF90AF906C
:102AB0009F900895C09114018FE0C89FC02D1124EC
:102AC0000FE00C0F802F0C3408F08BE4D0E0E82EE0
:102AD000F12CCE15DF050CF057CE60911501CE011B
:102AE0000E9422132196F5CFC0911601C1111EC07C
:102AF0006091C40420E1620F08F46FEF8091BC0480
:102B00009091BD040E94D10965E070E00E94C52D3E
:102B1000892B09F016CE0E94622E6BE470E00E94B1
:102B2000D92D609115010E94FB12A5CFC09114010F
:102B30008FE0C89FC02D11240FE00C0F802F0C34A4
:102B400008F08BE4D0E0E82EF12CCE15DF050CF078
:102B50001BCE60911501CE010E94FB122196F5CF8C
:102B6000C09114018FE0C89FC02D1124DFE0DC0F5D
:102B7000DD2EDC3410F08BE4D82EE090C204F0900F
:102B8000C3040091C1046091C4046695669566957E
:102B90008091BC049091BD040E94D1090E94360925
:102BA00090E8980F97FD9195990F692F2CE0629FFF
:102BB000612D1124600F7E2D8F2D0E94DB09F62ED2
:102BC000E72E082FAC2EB12CAD1428F0C1E0DB3479
:102BD00008F451CFB6CDF501EE5AFD4F80819091AA
:102BE0001501892331F0202F4F2D6E2DC5010E9434
:102BF00069083FEFA31AB30AE7CF85E599E0E0CE75
:102C000088E397E0DDCE81E397E00E94340BE2CECB
:102C10008BE297E0FACF2091C60431E0231B08F441
:102C200020E061E177E0822F0E94690AD3CE61E162
:102C300077E080E0F9CF2091C60431E0231B08F44F
:102C400020E068ED76E0EFCF68ED76E0F2CF2091FE
:102C5000C60431E0231B08F420E066EA76E0E3CF07
:102C600066EA76E0E6CF2091C60431E0231B08F443
:102C700020E06EE876E0D7CF6EE876E0DACF2091FC
:102C8000C60431E0231B08F420E067E776E0CBCFF1
:102C900067E776E0CECF46E050E06CE170E080EC94
:102CA00094E00E94AC2E10929B0308958F929F9205
:102CB000AF92BF92CF92DF92EF92FF921F93CF938A
:102CC000DF938091920390919303A0919403B0912C
:102CD00095032FB7F8948090840490908504A09079
:102CE0008604B09087042FBF75016401C81AD90A01
:102CF000EA0AFB0A2FB7F8944091840450918504A6
:102D000060918604709187042FBF40939203509383
:102D10009303609394037093950310916903E9E61C
:102D2000F3E0C12FD0E00197AF4FBF4F8819990949
:102D3000AA09BB091D132EC0C093690380919A0391
:102D4000C0E0811108C08091C004C82FC37019F081
:102D5000C82FC695C69580911201823009F46CC0C7
:102D600060F5811139C0109214014093BC04509356
:102D7000BD046093BE047093BF0489E2E9E6F3E00A
:102D8000A6ECB4E001900D928A95E1F781E0809382
:102D9000120116C0218D328D4901B12CA12C88154C
:102DA0009905AA05BB0520F4C150DF5F3296C2CF5A
:102DB0002C0D3D1D328F218FF8CF833009F447C091
:102DC000DF91CF911F91FF90EF90DF90CF90BF9058
:102DD000AF909F908F9008958C2F0E946813CC2302
:102DE00079F30E949A0581FF1FC06091C304683087
:102DF000B8F06C3AB8F48091960380FF685F262F94
:102E0000462F82E290E0DF91CF911F91FF90EF90EB
:102E1000DF90CF90BF90AF909F908F900C946908F7
:102E200068E0EDCF64EBEBCF8091960380FFC8CFD5
:102E300020E040E060E0E5CFC09311018091C00444
:102E40008370809310010E948C1183E0A0CF809149
:102E50009B0381110E944B164091BC045091BD040C
:102E60006091BE047091BF042FB7F89480918404E0
:102E700090918504A0918604B09187042FBF841B94
:102E8000950BA60BB70B4097A105B10508F498CF99
:102E90001092120195CFE0ECF4E085E380838091FD
:102EA000170190911801A091190181839283A38346
:102EB0008FE784838FEF85830C944B166F927F92FC
:102EC0008F929F92AF92BF92CF92DF92EF92FF923A
:102ED0000F931F93CF93DF93CDB7DEB72A970FB62B
:102EE000F894DEBF0FBECDBF8E010F5F1F4F8AE08B
:102EF000F80111928A95E9F79CE4E92E91E0F92E08
:102F0000680121E5622E21E0722E88248394912CA1
:102F1000F70181917F018F3F09F446C0F894E82FB3
:102F2000E295EF70F0E021A18F70A40102C0440F80
:102F3000551F8A95E2F7CA01922F982B91A392A16F
:102F40008095892382A3789400C0E1E5F1E021E037
:102F500030E0B12CA12C41914F3F09F480C0A42F47
:102F6000A295AF70B0E090968C9190E04F7002C047
:102F7000959587954A95E2F780FD71C0C901A82A09
:102F8000B92A220F331F51E0EF35F50721F7F7017A
:102F9000319780818F3F11F00E94830E80EA8A95DD
:102FA000F1F7F601B182A082F2E0CF0ED11C6E14CF
:102FB0007F0409F0ADCF4AE050E0B8018CE393E024
:102FC0000E94722E9C01FF24F394892B09F4F12CAA
:102FD000232B09F447C08AE0F801ACE3B3E0019089
:102FE0000D928A95E1F781E080933B030E940005F2
:102FF00090933A03809339038091390390913A0377
:103000000E94F104059790F180913C0390913D035B
:10301000909353038093520380913E0390913F031A
:103020009093550380935403809140039091410302
:1030300090935703809356038091420390914303EA
:1030400090935903809358038091440390914503D2
:1030500090935B0380935A0310923B0307C090E068
:1030600080E08DCF80913B038111C6CF8F2D2A96B2
:103070000FB6F894DEBF0FBECDBFDF91CF911F9189
:103080000F91FF90EF90DF90CF90BF90AF909F9007
:103090008F907F906F9008958091360390913503C3
:1030A000892B8093A002909137039923A1F0892B5B
:1030B0008093A002809113018823D9F18091880424
:1030C00087FF37C08EE1E2EAF2E090E0815098F5A8
:1030D00091110E94651040E250E065E173E080EAE2
:1030E00092E00E94722E892B59F180E2E0EAF2E030
:1030F000A5E1B3E001900D928A95E1F7E0917F049C
:10310000F09180043097E1F080911301882359F009
:103110008091880487FF07C08091A0028093A1025C
:1031200086E08093A0020280F381E02D80EA92E0A5
:10313000099486E0C8CF2191222341F29F5FC6CF38
:10314000089590E080E00E94840590E080E00E9475
:103150006E05109235030E944C1886E0E3E6F3E01A
:10316000DF011D928A95E9F710925D0310925C03CE
:1031700010925E030C94460D8093F2040C94A118F7
:103180008091F204982F9670963019F488600C9410
:10319000BC18877FFCCF21E030E001C0220F8A9568
:1031A000EAF720958091F20482230C94BC18909148
:1031B00014038095892380931403282F277091F49A
:1031C000282F082E000C330B9217130659F09091FC
:1031D000890492FD07C08595859585950E94CB1839
:1031E000109214030895CF93C0918904C2FB9927CC
:1031F00090F9981799F080FBC2F9C0938904609107
:10320000880484E090E00E94BC2E6C2F82E290E063
:103210000E94BC2E82E0CF910C94D718CF910895D4
:1032200021E030E001C0220F8A95EAF78091F20494
:10323000822B0C94BC18809338030C94A118109224
:10324000360380911301E2EAF2E0882359F080917D
:10325000880487FF07C08EE1DF011D928A95E9F798
:103260000C94A11886E0F8CF1F93CF93DF93CDB7CE
:10327000DEB7AA970FB6F894DEBF0FBECDBF84EBC2
:1032800094E0FC0101962091F100208324E08C3B26
:103290009207B9F78091B504893009F456C0C8F493
:1032A000823009F4B3C0833009F482C0813071F1F7
:1032B0008091E80083FF85C28091B4049091B504A9
:1032C0009A3008F07EC2E92FF0E0E359F04D0C94FB
:1032D000ED2D8A3009F489C08B3051F78091B40408
:1032E000813231F78091B8049091B904892B01F7AC
:1032F0008091E800877F8093E8000E94E10380913D
:10330000B604809313010E941F19D2CF8091B40498
:10331000813A71F68091E800877F8093E800809180
:10332000B8049091B904892B61F460E280E994E0DB
:1033300070E00E9493048091E8008B778093E8000E
:10334000B7CF60E090E080E0F3CF8091B4048132A9
:1033500009F0AECF8091B8049091B9048D7F892B8C
:1033600009F0A6CF8091E800877F8093E8008091E4
:10337000E80082FF18C09091F3008091F20002975C
:1033800031F48091F100813011F0863021F4809188
:10339000F10080938F048091E8008B778093E800A0
:1033A0000E94E10385CF8091B2048111E0CF80CFEC
:1033B0008091B404813A09F07BCF8091B804909158
:1033C000B904892B09F074CF8091E800877F80933E
:1033D000E8008091E80080FFFCCF8091130180938A
:1033E000F1008091E8008E77D9CF8091B4048132CA
:1033F00009F05ECF8091E800877F8093E8000E940B
:10340000E1038091B70480938E0452CF8091B4047D
:10341000813A09F04DCF8091E800877F8093E800E2
:103420008091E80080FFFCCF80918E04D8CF803857
:1034300099F0823809F0C5C18091B8048F70873047
:1034400008F0BFC18093E9008091EB0085FB8827DD
:1034500080F91092E90006C08091B0049091B10407
:10346000911182609091E800977F9093E80080939B
:10347000F1001092F1008091E8008E779EC18823C0
:1034800009F48CC1823009F09CC18091B60481118D
:103490008FC18091B8048F702FEF280F263008F06D
:1034A00090C18093E9002091EB0020FF81C193300F
:1034B00031F48091EB0080628093EB0079C19091B0
:1034C000EB0090619093EB0021E030E001C0220F0F
:1034D0008A95EAF72093EA001092EA008091EB00C7
:1034E0008860EACF81116DC11091B6041F77809179
:1034F000E3008078812B8093E3008091E800877F50
:103500008093E8000E94E1038091E80080FFFCCFF7
:103510008091E30080688093E30082E0111183E0F2
:103520008093B2044EC18058823008F04AC1409165
:10353000B6045091B7044C3D83E05807A1F583E0F1
:103540008A838AE289834FB7F894DE01139620E0DC
:103550003EE051E2E32FF0E050935700E49120FF6A
:1035600003C0E295EF703F5FEF708E2F90E0EA307E
:10357000C0F0C7968D939D932F5F243159F74FBFAD
:103580008091E800877F8093E8006AE270E0CE01D6
:1035900001960E9493048091E8008B778093E80065
:1035A00010C1C096E7CF8091B8049091B904252F3F
:1035B00033272330310509F44AC078F5213031052D
:1035C00009F479C08BE590E0EDECF5E022303105AF
:1035D00009F0F7C02091E800277F2093E8002091B0
:1035E000BA043091BB048217930708F49C0140E0B1
:1035F0002115310509F064C0411162C08091E800D5
:1036000082FDC9CF8091B204882329F2853019F256
:103610008091E80083FFF2CFBECF2132310509F45B
:103620003BC02232310509F0CCC08330910508F04F
:10363000C8C0FC01EE0FFF1FE659FE4F0190F0815C
:10364000E02D89599E4FDC018C9190E011C0CA0198
:103650009927413089F082309105B1F0892B09F02A
:10366000B0C0E6E5F6E0E4918E2F90E0E6E5F6E006
:10367000009709F4A6C0AECFE6E4F6E0E4918E2F01
:1036800090E0E6E4F6E0F4CFEAE3F6E0E4918E2F92
:1036900090E0EAE3F6E0ECCF8330910508F091C0CA
:1036A000880F991FFC01E059FE4F0190F081E02D39
:1036B00089E090E08FCF82E190E0E8E2F6E08ACF07
:1036C0008091B204882309F466CF853009F463CF72
:1036D0008091E80083FD5FCF8091E80082FD8ECF6E
:1036E0008091E80080FF84CF9091F3008091F200F8
:1036F0002115310519F08830910550F041E0089707
:1037000009F040E08091E8008E778093E80070CF68
:1037100044914093F1003196215031090196E8CF50
:10372000803809F04EC08091E800877F8093E800E0
:103730008091B3048093F1009ECE811142C010911C
:10374000B6041230F0F58091E800877F8093E8009E
:103750001093B3040E94E103112311F084E005C02B
:103760008091E30087FDFACF81E08093B20442E0CC
:1037700061EC81E00E94000442E261EC84E00E947E
:10378000000442E261EC82E00E94000442E260EC4C
:1037900083E00E9400048091B20413C08091B604BB
:1037A000813079F481E0933009F080E08093B104B6
:1037B0001092E9008091E800877F8093E8000E94E2
:1037C000E1038091E80083FF0AC08091E800877FD1
:1037D0008093E8008091EB0080628093EB00AA96D2
:1037E0000FB6F894DEBF0FBECDBFDF91CF911F9112
:1037F0000895882321F00E946B100C944C180895B2
:10380000882339F090913603892B809336030C94EA
:103810004C180895882379F19CEF980F913A38F469
:10382000682F80EA92E00E940C050C944C1890E2FC
:10383000980F983050F4877091E001C0990F8A95E5
:10384000EAF7892F0E946B10F0CF9BE5980F933019
:1038500020F490E080E00C94840598E5980F97316F
:1038600020F490E080E00C946E05803F20F00E94F0
:103870006C0D0C94460D0895CF93C82F882309F43E
:103880006DC08CEF8C0F813AB8F5809113018823BD
:1038900011F18091880487FF1EC0EC2FE695E69514
:1038A000E695F0E0E056FD4F828190E04C2F4770A6
:1038B00021E030E002C0220F331F4A95E2F7822355
:1038C0009323892B89F06C2F80EA92E00E940C05EB
:1038D0000E944C1809C0E2EAF2E08191C81799F3FE
:1038E00022E0E83AF207C9F76C2F80EA92E00E94E2
:1038F0003805CF910C944C1880E28C0F883068F416
:10390000C77021E030E001C0220FCA95EAF780912C
:103910003603822B80933603ECCF8BE58C0F8330FC
:1039200038F42C2F2452330BC901CF910C94840509
:10393000E8E5EC0FE73150F4F0E0EE0FFF1FE25E38
:10394000FE4F80819181CF910C946E05C03F30F085
:103950008C2F0E94270ECF910C94460DCF91089585
:103960000F931F93CF93C82F10E000E0893311F419
:1039700000E510E08C2F0E943C1C0115110531F46C
:103980008C2FCF911F910F910C940A1C8FE99FE00F
:103990000197F1F700C0000001501109EECFFF922E
:1039A0000F931F93CF93DF93C62FD42F122FFC01B9
:1039B00082818823A9F06093F1040E94000590930E
:1039C000F0048093EF04C77081E001C0880FCA95AE
:1039D000EAF7DF91CF911F910F91FF900C94001C9B
:1039E0008091F104681334C08091EF049091F00449
:1039F0000E94F104883C910558F500E20D0FCD17A7
:103A0000A9F0C770FF24F3948F2D01C0880FCA95C9
:103A1000EAF70E94F91B083048F48D2F877001C027
:103A2000FF0C8A95EAF78F2D0E94001C812F0E94BF
:103A3000B01C0830A0F4D77081E001C0880FDA957F
:103A4000EAF7DF91CF911F910F91FF900C94F91B32
:103A5000C77081E001C0880FCA95EAF7F2CFDF9105
:103A6000CF911F910F91FF900895DF92EF92FF92F7
:103A70000F931F93CF93DF93E82FF0E0EC50FE4FAE
:103A8000D490282F26952695269530E0F901EC5103
:103A9000FE4F0491877010E0082E02C0159507951F
:103AA0000A94E2F701701127F901EC52FE4FE490FD
:103AB000F12C082E02C0F594E7940A94E2F791E005
:103AC000E922FF24F901EC53FE4FC491D0E002C07B
:103AD000D595C7958A95E2F7C170DD2701151105C7
:103AE00019F081EE0E943C1CE114F10419F086EEFD
:103AF0000E943C1C8D2D0E94B01CEF2819F086EE10
:103B00000E940A1C012B19F081EE0E940A1CCD2B89
:103B100051F08CE2DF91CF911F910F91FF90EF90C8
:103B2000DF900C94B01CDF91CF911F910F91FF900B
:103B3000EF90DF90089590E080E00E94A62E893EED
:103B40009E4F11F40C94D41280E008959091960346
:103B5000892F8370833051F08FEF90FD82EF91FDBC
:103B600018C08093C5040E946A0607C01092C5045D
:103B700040E060E080E00E94670840919603509129
:103B8000970360919803709199038FE090E00C94F3
:103B9000CE2E8DEFE6CF69EE7EEF90E080E00E94C2
:103BA000DA2E60E082E090E00E94BC2E60E083E0CC
:103BB00090E00E94BC2E1092380360E084E090E018
:103BC0000E94BC2E60E082E290E00E94BC2E60E089
:103BD00085E090E00E94BC2E60E086E090E00E94CC
:103BE000BC2E6FEF87E090E00E94BC2E40E050E0DA
:103BF000BA0188E090E00E94CE2E60E08DE090E077
:103C00000E94BC2E40E050E0BA0188E190E00E94A2
:103C1000CE2E60E087E190E00E94BC2E40E050E0B4
:103C2000BA018CE190E00E94CE2E70E060E080E26C
:103C300090E00E94DA2E40E050E0BA0188E190E086
:103C40000E94CE2E80E00E941A120E94321240E0A2
:103C500050E0BA018FE090E00E94CE2E10929603C1
:103C60001092970310929803109299030C94A61D3A
:103C70008FE090E00E94A02E6093960370939703CC
:103C800080939803909399030C94A61D7F928F9232
:103C90009F92AF92BF92CF92DF92EF92FF920F93DB
:103CA0001F93CF93DF9300D000D00F92CDB7DEB734
:103CB0007C01FC0183819481892B31F08081918189
:103CC00089238F3F09F026C60F900F900F900F9019
:103CD0000F90DF91CF911F910F91FF90EF90DF90A8
:103CE000CF90BF90AF909F908F907F9008950E944B
:103CF0007412182F682F89819A810E94A6106981F9
:103D00007A81812F0E9467128C01F70182818823BA
:103D100009F4BEC5980122513F452031310508F014
:103D2000A6C58FEF93E00E94982E5EEED52ED00EA2
:103D300007E512E0882371F180911403877021F266
:103D4000F7018281882309F4BFCF8091890482FD25
:103D5000BBCF82E00F900F900F900F900F90DF91EC
:103D6000CF911F910F91FF90EF90DF90CF90BF9078
:103D7000AF909F908F907F900C94D7180115F4E02E
:103D80001F07D1F2C8010E94982E811101C0DA9458
:103D90000F5F1F4FD110F2CF80911A0190911B013C
:103DA000A0911C01B0911D0189839A83AB83BC83D0
:103DB000BB24B3944AE0A42E68012FEFC21AD20AA2
:103DC000C8010E94982E89831A82882309F4B4CFEF
:103DD0009FEF980F933010F58A83B9820E5F1F4FC3
:103DE000C6010E94982E8B83882309F4A5CFCE01AB
:103DF00001966C01F60180818823F1F2813009F08F
:103E000049C091818281913059F4F2E0CF0ED11CEA
:103E10000E94B01CEFEFCE1ADE0AECCF8601E7CF8E
:103E2000923031F422E0C20ED11C0E943C1CF2CF31
:103E3000933031F432E0C30ED11C0E940A1CEACF49
:103E4000943021F08FEFC81AD80AE4CF92E0C90E5F
:103E5000D11C30E020E0B6016F5F7F4FF601418159
:103E60008053990B8A30910550F02150310990F21E
:103E70008FE99FE00197F1F700C00000F6CFA29E06
:103E8000F001A39EF00D11249C012E0F3F1F842FE3
:103E90006B01E1CF0E94351DBDCF81E00E9410195A
:103EA0000E94C01849CF81E00E94CB18F9CF82E070
:103EB000F5CF82E0F9CF0338EFE51E0709F46FC0B4
:103EC0000938FFE51F0709F479C002382FE512070A
:103ED00009F45BC0F7018281882309F42CC5109294
:103EE000F1040136FDE51F0761F008F011C106314C
:103EF0003CE5130708F0F0C002308CE5180708F421
:103F00000CC10E94ED1290938904809388040631BD
:103F1000ECE51E0708F021C10230FCE51F0708F0A0
:103F20000FC1609188041091890484E090E00E94A0
:103F3000BC2E612F82E290E00E94BC2E0E941F19CD
:103F4000FBCE882309F4F8CE80919603982F9170C8
:103F500080FD0AC081FD08C0809196038160809336
:103F600096030E94A61DE8CE8091960380FF05C0AF
:103F700081FD03C08C7F8260F2CF911102C081FD70
:103F8000EBCF809196038C7FEACF882309F4D4CEBF
:103F900090919603892F8E7F90FF8160E0CF8823D8
:103FA00009F4CACE90919603892F8D7F91FF82608C
:103FB000D6CF81118FCF0E94381E8CCF90913603BF
:103FC0009111BACE8111B8CE04E712E03AE0B32ED7
:103FD000F8018491882309F4AFCE813009F04FC0F5
:103FE0006801FFEFCF1ADF0AF6018491813061F496
:103FF0006801F2E0CF0ED11CF60184910E94B01C42
:1040000086010F5F1F4FE4CF823049F46801F2E070
:10401000CF0ED11CF60184910E943C1CF1CF83305D
:1040200049F46801F2E0CF0ED11CF60184910E94A0
:104030000A1CE6CF843021F76801F2E0CF0ED11CD4
:10404000F601249190E080E0F60131962053330B85
:104050002A30310548F0019798F2EFE9FFE03197F7
:10406000F1F700C00000F7CFB89EA001B99E500D37
:104070001124C901840F951F24916F01E5CF0E947F
:10408000351D6801BDCF882309F456CE8FE992E033
:104090000E946E0551CE053FFCE51F07A9F0063FC3
:1040A0002CE51207A9F027E245EE64EE043F3CE55B
:1040B000130709F42BC40ECF27E245EE65EE26C4A4
:1040C00026E241EE60EE22C426E241EE62EE1EC41C
:1040D00027E245EE66EE1AC4C8018A5F9C4509973F
:1040E00008F40FCF0631FCE51F07B9F480913603C1
:1040F0008A7A91E009F490E09093C00269E281111C
:1041000065E380EA92E00E9438050E944C1814CEC4
:10411000053A9DE5190709F4F4CE0A353DE5130784
:1041200009F4A0C108F07FC101159CE5190709F445
:104130008CC10E3D1C4509F0DFC00E94CB1DFCCD9B
:10414000F801E350FC45809188048160E331F1057A
:1041500030F5E958F04D0C94ED2D03302DE51207A4
:1041600078F40A3F3CE5130708F4DBCEF801EB5F77
:10417000FC45E830F10510F5E657F04D0C94ED2DB7
:1041800001368DE5180709F496C090918804892FAF
:104190008E7F90FF8160053A1D4509F0C2CE809365
:1041A0008804BFCE809188048260F9CF8091880412
:1041B0008460F5CF809188048860F1CF8091890474
:1041C000816080938904ADCE809189048260F9CFAB
:1041D000809188048061E3CF809188048062DFCF82
:1041E000809188048064DBCF0E941F19809188042D
:1041F0008068D5CF809188048C60D1CF809189046C
:104200008360DFCF809188048E7FC9CF809188043E
:104210008D7FC5CF809188048B7FC1CF809188042A
:10422000877FBDCF809189048E7FCBCF8091890419
:104230008D7FC7CF809188048F7EB1CF8091880415
:104240008F7DADCF809188048F7BA9CF0E941F19ED
:10425000809188048F77A3CF80918804837F9FCF3C
:10426000809189048C7FADCF8091880482FB99274F
:1042700090F921E0922790FB82F990FB83F98FCF90
:1042800080918904982F909591708E7F892B90FB57
:1042900081F997CF0E941F1990918804892F97FB6D
:1042A00087F980587CCF61E08EE090E00E94BC2EC0
:1042B00038CE60E0F9CF90918804892F8F7E94FFEB
:1042C00080616DCF809136038272063DECE51E075A
:1042D00078F4023CFCE51F0778F0F801E35CFC454C
:1042E000E331F10508F04FC0EE56F04D0C94ED2D82
:1042F0000D351D4509F420CDF7018281C080D180A4
:10430000882309F4B3C0C6010E947412182F682FC5
:10431000C6010E94A610B601812F0E9467120E945A
:10432000DF0E8C01782EF7019280858082942FE039
:104330008222809114038770C1F0B92C9920B1F0CA
:10434000812F807F803421F080E2800F883068F0F8
:104350008091890482FD09C082E00E94D718809173
:1043600014038770BB24B3948111B12C812F8295E3
:104370008F70C82ED12C8C3008F0E5C0F601EB55BB
:10438000F04D0C94ED2D8091C00491E0892780932D
:10439000C0041092120180919B03816080939B0363
:1043A000CBCC43E556E06FE576E00E94A605C4CC91
:1043B0004FE556E063E576E0F8CF45E256E06FE280
:1043C00076E0F3CF4FE256E065E276E0EECF4BE0E9
:1043D00056E068E176E0E9CF48E156E06BE076E050
:1043E000E4CF41EF55E06EEF75E0DFCF4EEF55E0E3
:1043F00061EF75E0DACF41EC55E06FEC75E0D5CFB9
:104400004FEC55E061EC75E0D0CF61E081E00E94B7
:10441000390692CC61E085E0FACF61E08DE0F7CF1C
:1044200061E082E1F4CF0B35FDE51F07E9F00C35C3
:104430001D4509F061CF8091890482FB882780F9AE
:1044400091E089270E94F31857CF0E941F193FEF70
:1044500084E39CE0315080409040E1F700C00000D0
:104460000E94681181E0EECF80E0ECCFC6010E948F
:104470007D10182F50CFF12FFF70AF2E107F19F045
:10448000A29490EFA922802F9920B9F0AA2069F078
:1044900090E2900F983010F0011109C0809136031E
:1044A000A82AA09236030E944C18802F4AC08091FF
:1044B0003503A82AA0923503F6CF0E940A1CAA2031
:1044C00009F441C0005E083010F0711004C08A2D5C
:1044D0000E946B1006C0A09480913503A822A09280
:1044E00035030E944C182FC0212F2F70A22E107F51
:1044F000103219F0A29480EFA822772089F031E0E1
:10450000731609F47CC0992009F486C0882009F448
:104510007CC0F701958190FFC8CF9F70958375C0CF
:104520002091890422FF48C0992009F43FC0AA20A5
:1045300039F0809136038A29809336030E944C1803
:1045400080E00E943C1C98E0C91AD108E4E0CE1635
:10455000D10410F40E949A05BB2009F4B5CB8091D8
:10456000140380FDB1CBF701128285958595859561
:104570000E941019C7010E94461E80911403859560
:10458000859585950F900F900F900F900F90DF916C
:10459000CF911F910F91FF90EF90DF90CF90BF9040
:1045A000AF909F908F907F900C94CB1880E00E94EA
:1045B0000A1CAA2041F28BCF9920A1F090913703D9
:1045C0008A2D892B811003C00E94001CBCCFE1E022
:1045D0008E12FACF22FDB7CF981709F4B4CF80938B
:1045E0003703B1CF811006C00E9465108A2D0E944A
:1045F000F91BA9CFF1E08F1609F4A5CFF5CF9920CB
:1046000031F025E0281508F49ECF8A2DDDCF34E067
:10461000381508F498CFEACF882041F3093349F4DC
:10462000FFEF27EE33E0F15020403040E1F700C0CB
:104630000000802F0E940A1C86CF812F86958695C8
:10464000837061F0813009F07ECFC80193709110C2
:1046500002C090E080E00E946E0575CFC8019370A3
:10466000911002C090E080E00E9484056CCF802F02
:10467000992029F00E94270E0E94460D64CF0E94C7
:104680006C0DFACF812F837091F591105CCF402F84
:10469000429546954770440F440F802F8F70042E2B
:1046A00001C0880F0A94EAF7202F207104FF07C089
:1046B0002FE030E001C0220F4A95EAF720951695C9
:1046C00016951370123071F0133051F03091380399
:1046D000113029F0822B83230E941B1934CF832BA6
:1046E000822BFACF282B809138038227F5CF86952D
:1046F000992011F0812F8170882309F424CF402F55
:10470000429546954770440F440F802F8F70042EBA
:1047100001C0880F0A94EAF7202F207104FF07C018
:104720002FE030E001C0220F4A95EAF72095169558
:1047300016951370123071F0133051F03091F2046D
:10474000113029F0822B83230E94BC18FCCE832BCE
:10475000822BFACF282B8091F2048227F5CF1F708D
:10476000992029F0812F0E941019802F2DCF802FA2
:104770000E94F91B812F0E94CB18E5CE802F92EF6B
:104780007916A9F1971570F0E0EF7E16D1F0F1EFF0
:104790007F1691F0992009F45AC0811086CE812F9E
:1047A0008F7129C023EF721649F134EF7312F2CFE3
:1047B0008091890482FF2DC0812F8F719920D9F2B9
:1047C0001AC0992079F084E0881508F4BCCE1F71D6
:1047D00081E090E001C0880F1A95EAF79091F20409
:1047E0008927B2CF95E0981508F4ADCEF0CF812F90
:1047F0008F719110C0CF0E941019A5CE80E0992032
:1048000009F4A2CF1F7181E001C0880F1A95EAF761
:104810009BCF992089F01F71812F0E9410198091E0
:10482000890482FD07C0E8E01E9FC0011124836057
:1048300080931403812FDFCF81E00E94D718F1E02D
:10484000F81508F080CE82E00E94D7187CCE882030
:1048500059F0893309F0EDCE2FEF37EE83E0215088
:1048600030408040E1F7E3CE812F8F7184CF00315B
:10487000FFE51F0709F411CB01312FE5120709F4F9
:1048800016CB01383FE5130791F480EA92E000CCA3
:1048900000313FE5130709F406CB01319FE5190705
:1048A00009F407CB01389FE5190709F445CA023816
:1048B000FFE51F0708F0FFCA0E3D2CE5120709F4BB
:1048C00078CB00383FE5130709F4DDCB023C9CE5CB
:1048D000190709F436CB033F2CE5120709F4F0CB96
:1048E00008F0D9CB083D8CE5180709F4E5CB28E2A0
:1048F00041E0093D9CE5190709F4E0CB26E241EED1
:1049000061EE073DECE51E0709F0E4CAC7010E940D
:10491000CF1C12CA85E0DE01119601900D928A9596
:10492000E1F7F701228189819A812111E0C90E9472
:104930007D10182FE4C906312CE5120709F0C2CC0E
:104940008091C00269E2811165E380EA92E00E94F1
:104950000C05DBCB1F93CF93DF938091E102807F27
:10496000A9F48091DE02882389F080911303D0910D
:10497000E2026091DC027091DD02A091DF02B09151
:10498000E002C62FC72316E0D81304C0DF91CF91F1
:104990001F91089590E0109711F0CF3F19F4019600
:1049A0008770F2CF189F9001199F300D1124F901E3
:1049B000ED51FD4F41814713F2CF40814613EFCFB8
:1049C00042814111ECCF438154814A1B5B0B483C2F
:1049D000510528F78091E1028F7080618093E10298
:1049E000F901E851FD4F80818F70806180838CEDEB
:1049F00092E00E94461EDF91CF911F910C9473109C
:104A0000AF92BF92CF92DF92EF92FF920F931F93DC
:104A1000CF93DF93CDB7DEB72B970FB6F894DEBFF9
:104A20000FBECDBF8C0185E0F801DE011796019025
:104A30000D928A95E1F7F801E2808CEDA82E82E0D4
:104A4000B82E6091DF027091E0026115710509F4E2
:104A50001AC19091DC024091DD02842F89238F3F9F
:104A600009F411C120813181C380D480F090DE022D
:104A7000F601E61BF70BFF2009F4D0C08091E1029C
:104A8000582F507FE83CF10508F0ABC0511177C0BA
:104A9000FE2C431321C092131FC0E1101DC08F7064
:104AA00080618093E102C5010E94461E8091E1026F
:104AB000F80185838F2D2B960FB6F894DEBF0FBEBD
:104AC000CDBFDF91CF911F910F91FF90EF90DF90BD
:104AD000CF90BF90AF900895CD2829F0822F8323E7
:104AE0008F3F09F0EBC080E0F82FF170DF2EE091EE
:104AF00013034091E20256E080FD1CC0EE20D1F28B
:104B00008091E10281608093E102F12CD3CF8E2F5E
:104B100090E05E9FF0011124ED51FD4F618136134D
:104B200006C06081261303C06281E612E7CFFC0154
:104B30003196E770E413EBCF2F8338878F81988508
:104B40000E94A312292F22952F70903260F0225FCD
:104B50002F70223078F49F7051F0F8019581907F8A
:104B600031F4D12C0AC09F7011F08823D1F3805EFC
:104B70008830B8F3C8010E94461EFD2C9BCF43131A
:104B800006C0921304C0F801EE2009F461C0C80108
:104B90000E94B112882309F1EE20F9F08091E10220
:104BA000803270F02091DC023091DD023A8329835B
:104BB0001B82DD82CC828E83CE0101960E94461E2E
:104BC00086E0F801ACEDB2E001900D928A95E1F734
:104BD0000E94AA24FF24F3946DCFC8010E94461EB0
:104BE000F9CF51110AC08CED92E00E94461E86E07A
:104BF000F50111928A95E9F788CF4313C8CF921334
:104C0000C6CFE110C4CFF8018583C8010E94461EBB
:104C100086E0F50111928A95E9F74CCFE83CF10561
:104C2000B8F7FE2CEE20C9F243131FC092131DC02B
:104C30008091E10280FD10C0982F907F69F0F8010B
:104C40008583903F31F0982F907F905F8F70892BF4
:104C50008583C8010E94461E86E0F801ACEDB2E0F3
:104C600001900D928A95E1F725CFC8010E94B112FB
:104C70008111A6CF8091E10281608093E102C80199
:104C80000E94461E17CFEE2009F4A7CFC8010E944C
:104C9000B112F82E882309F4A0CF86E0F801ACED1C
:104CA000B2E001900D928A95E1F78091DC0290913B
:104CB000DD020E94A3120E94AA24FCCE81E08E2570
:104CC00013CF1F93CF93DF93CDB7DEB767970FB6A0
:104CD000F894DEBF0FBECDBF4B8B5C8B6D8B7E8B94
:104CE0008F8B6111109235031A8A2C898E899F89C6
:104CF0003B893D872E876F87998B888B86E0FE01E5
:104D00003D96DE01179601900D928A95E1F7CE014E
:104D100007960E940025882389F016E080911303EE
:104D20009091E20289134FC067960FB6F894DEBFE8
:104D30000FBECDBFDF91CF911F91089586E0FE0198
:104D40003796DE01119601900D928A95E1F74A851A
:104D50005B854115510509F37F816885862F87237F
:104D60008F3FD9F22091E20230E0C90101968770AD
:104D70009927E0911303E817190671F40E941F198F
:104D80001092E2021092130386E0ECEDF2E0DF01F4
:104D90001D928A95E9F7C1CF79836A835D834C833D
:104DA00096E0929FD001939FB00D1124AD51BD4F5D
:104DB000FE01319601900D929A95E1F78093E202FF
:104DC0000E947310AACF819FC00111248D519D4F65
:104DD0000E940025882309F4A7CF8091130390E057
:104DE0000196877099278093130398CF1F920F9293
:104DF0000FB60F9211242F933F934F935F936F93AE
:104E00007F938F939F93AF93BF93CF93DF93EF9352
:104E1000FF93D091E900DF708091EC00C82FC17042
:104E200080FDC0E81092E9008091F000877F8093B8
:104E3000F00078940E9434191092E9008091F000FB
:104E400088608093F000CD2BCF70C093E900FF9174
:104E5000EF91DF91CF91BF91AF919F918F917F9112
:104E60006F915F914F913F912F910F900FBE0F90D7
:104E70001F9018951F920F920FB60F9211242F9327
:104E80003F934F935F936F937F938F939F93AF93D2
:104E9000BF93EF93FF938091E10082FF09C080915F
:104EA000E20082FF05C08091E1008B7F8093E100EA
:104EB0008091DA0080FF24C08091D80080FF20C05C
:104EC0008091DA008E7F8093DA008091D90080FF94
:104ED0009BC080E189BD82E189BD09B400FEFDCFA0
:104EE00081E08093B20480918D04811109C00E94F9
:104EF00067030E9432048091E20084608093E200A4
:104F00008091E10080FF17C08091E20080FF13C014
:104F10008091E2008E7F8093E2008091E2008061C8
:104F20008093E2008091D80080628093D80019BC01
:104F300085E08093B2048091E10084FF29C08091D4
:104F4000E20084FF25C080E189BD82E189BD09B40A
:104F500000FEFDCF8091D8008F7D8093D800809196
:104F6000E1008F7E8093E1008091E2008F7E80934C
:104F7000E2008091E20081608093E2008091B304BE
:104F8000882309F447C084E08093B2048091B2047E
:104F90008091E10083FF27C08091E20083FF23C05E
:104FA0008091E100877F8093E10082E08093B204EA
:104FB0001092B3048091E1008E7F8093E100809194
:104FC000E2008E7F8093E2008091E2008061809316
:104FD000E20042E060E080E00E9400048091F00086
:104FE00088608093F000FF91EF91BF91AF919F9106
:104FF0008F917F916F915F914F913F912F910F9082
:105000000FBE0F901F90189519BC1092B204109209
:105010008D0476CF8091E30087FD02C081E0B4CF9C
:1050200083E0B2CF78941F921FB61F9211248F9302
:105030009F93AF93BF938091840490918504A09136
:105040008604B09187040196A11DB11D809384044C
:1050500090938504A0938604B0938704BF91AF9189
:105060009F918F911F901FBE1F9018951F921FB682
:105070001F9211248F939F93AF93BF9380918304CA
:10508000811113C08091840490918504A0918604BD
:10509000B09187044196A11DB11D80938404909323
:1050A0008504A0938604B0938704BF91AF919F912C
:1050B0008F911F901FBE1F901895CDB7DEB7A49794
:1050C0000FB6F894DEBF0FBECDBF84B7877F84BF15
:1050D0000FB6F894A8958091600088618093600075
:1050E000109260000FBE80E890E00FB6F8948093B5
:1050F0006100909361000FBE85B7806885BF85B75A
:10510000806885BF81E89EE090939F0280939E0215
:105110000E9467030E9432048091E20084608093C1
:10512000E20078948091B2048823A1F01091E90004
:105130001F709091EC00892F817090FD80E8182BF2
:105140001092E9008091E80083FD0E9434191F70DD
:105150001093E90082E084BD93E095BD9AEF97BD7E
:1051600080936E000E94D412811102C00E943212FC
:105170000CE411E051E5E52E51E0F52ED8018D91BA
:105180008D018F3F11F00E94830EE016F106B1F7FA
:1051900001E511E04FE5E42E41E0F42EF8018191A4
:1051A0008F018F3F11F00E94830EE016F106B1F7D8
:1051B0008AE0E2E5F3E0DF01282F1D922A95E9F766
:1051C000ECE3F3E0DF011D928A95E9F70E949B1D55
:1051D000811102C00E94CB1D82E090E00E94982EB7
:1051E000809346030E94ED12909389048093880473
:1051F0000E945E17EFE3FCE93197F1F700C0000071
:105200000E945E178091520380FF08C06FEF7FEF0E
:1052100090E080E00E94DA2E0E94681183E090E026
:105220000E94982E0E941B191092C6048FEF9FEFC8
:105230009093E0048093DF049093E2048093E10470
:105240009093E4048093E3049093E6048093E50450
:105250009093E8048093E7049093EA048093E90430
:105260009093EC048093EB049093EE048093ED0410
:105270001092690390938303809382039093850334
:10528000809384039093870380938603909389038C
:105290008093880390938B0380938A0390938D036C
:1052A00080938C0390938F0380938E03909391034C
:1052B000809390030E949B1D811104C00E94CB1D0E
:1052C0000E944B1746E050E06CE170E080EC94E007
:1052D0000E94882E10929B038091C0048C7F11F451
:1052E0000E944B170E94381E84E091E09093800446
:1052F00080937F0428E1822E912C30E4532EDD240C
:10530000D394662463948091B20493E0F92E00E173
:1053100012E1853009F4F8C10E945E17882359F024
:105320008FB7F8944091840450918504609186046D
:10533000709187048FBFE2E5F3E0A7E4B3E010E0EB
:1053400000E0602FE190F1902D913D912E153F05E9
:1053500009F405C22E253F25C12CAA24A394B12C03
:10536000A9014A215B21452B09F4F3C1C9826A8353
:10537000EA20FB2081E0E114F10409F480E08B8352
:105380000E9400058160782F9D838C8349815A811A
:105390006B818D810E946126F801EE0FFF1FE95B92
:1053A000FC4F80819181A826B926B182A082EF2886
:1053B00071F08EE0809FF001819FF00D1124EA587A
:1053C000FE4FEC0DF11D80818F3F09F0A9C1C12C6A
:1053D0000C2D10E080916903800F912F911D09978A
:1053E0006CF188E090E07C01E01AF10AB80166599E
:1053F0007C4FA7018AE693E00E947F2EB8016E5889
:105400007C4FA70182E793E00E947F2EA701440F03
:10541000551FB801660F771F6E577C4F82E893E0E7
:105420000E947F2EB80166587C4FA7018AE793E05F
:105430000E947F2E88E08C19809369038091690314
:1054400090E0A72DB0E09D01220F331F24543E4F62
:10545000AA0FBB1FBD0163547E4F41E0480F9C154E
:1054600008F462C1809369030E94561686E0E3E661
:10547000F3E0DE01119601900D928A95E1F710910B
:105480006503E090660300916703F0906803109253
:105490006503109266031092670310926803812FD0
:1054A0008E2909F448C080916103909162030E94A3
:1054B000F1049C0180915D03882309F461C32531C7
:1054C0003105C8F18F3F19F08F5F80935D03112381
:1054D00059F00E94070E9FEF11160CF491E0899F7E
:1054E000802D112480936503EE2059F00E94070E51
:1054F0009FEF1E140CF491E0899F802D112480935E
:105500006603309165033323B1F0209166032223B3
:1055100091F055EB3503C0011124992309F436C1EC
:105520009093650345EB240390011124332309F480
:1055300030C130936603802F8F2909F448C08091D1
:105540005F03909160030E94F1049C0180915C03D1
:10555000882309F410C321353105C8F18F3F19F0B4
:105560008F5F80935C03002359F00E94E50D9FEF4D
:1055700010160CF491E0899F802D1124809367030D
:10558000FF2059F00E94E50D9FEF1F140CF491E0ED
:10559000899F802D11248093680330916703332302
:1055A000B1F020916803222391F055EB3503C0013F
:1055B0001124992309F4F0C09093670345EB240369
:1055C00090011124332309F4EAC0309368038091D9
:1055D000650390916603892B90916703892B9091C5
:1055E0006803892B11F00E94460D1B83EC820D830A
:1055F000FE8286E0FE013196A3E6B3E001900D92B3
:105600008A95E1F70E949A0590915103891380933E
:1056100051038091B204843009F075CE83E0809309
:10562000E9008091E80082FF6ECE8091E80090E072
:1056300085FF0CC00E94860330E2E32EF12C8E0120
:105640000F5F1F4F882309F4B7C091E08091E800F5
:105650008B778093E800992309F455CEE981E150D6
:10566000E33108F047C1F0E0EF54F04D0C94ED2D1C
:105670008091B204843009F436C00E94561680919D
:105680009A0381110DC00E9468131092110180913C
:10569000C0048370809310010E948C11F09212015B
:1056A00060929A03109283040FB6F894A8958092A2
:1056B00060000FBE5092600083B7817F846083BF1B
:1056C00083B7816083BF7894889583B78E7F83BFCB
:1056D0000FB6F894A895809160008861809360006F
:1056E000109260000FBE8091B104882369F00E947F
:1056F0005E17E2E5F3E081919191892B09F01CC2DC
:1057000023E0EC35F207B9F78091B204853009F453
:10571000AFCF0E941F190E949A0510929A03FCCDE8
:10572000782ECC24C39454CE90E0FC01E759FC4F72
:10573000D9015C915183DB015C915187718A880F9B
:10574000991FFC01E759FC4F128E118E842F91E0B6
:1057500084CEC394AA0CBB1C4EE0C41201CE0F5FD2
:105760001F4F0530110509F0ECCD8FEF89838A8337
:105770001B820E9400058160782F9D838C83498164
:105780005A816B818D810E9461266ECED092650315
:10579000C9CED0926603CFCED09267030FCFD092FE
:1057A000680315CF8091F100D8018D938D01B1E090
:1057B000EB1AF10809F449CF8091E80085FDF2CF9A
:1057C0008091E8008B778093E8000E94860388230D
:1057D00099F33BCF1A8289E08B8323C08A81823080
:1057E00009F4C0C1833009F443C0813009F082C09C
:1057F0008FB7F894209184043091850440918604F9
:105800005091870429A33AA34BA35CA38FBF69A13E
:105810007AA18BA19CA10E94F32D6B837C838D8345
:105820009E838091B204843009F06DCD1091E9001F
:105830001F709091EC00892F817090FD80E8182BEB
:1058400082E08093E9008091E80080FF0DC050E085
:1058500040E060E270E0CE0101960E94B7038091C3
:10586000E8008E778093E8001F701093E9004BCD1D
:1058700080915203909153039827892798279C83FE
:105880008B838091540390915503982789279827FB
:105890009E838D8380915603909157039827892783
:1058A000982798878F838091580390915903982760
:1058B000892798279A87898780915A0390915B035B
:1058C0009827892798279C878B87ABCF8A8182303E
:1058D00089F48B819C81AD81BE8189A39AA3ABA3FE
:1058E000BCA3BC01CD010E94F32D86E290E00E9492
:1058F000BC2E97CF8FEF898394CF4C816B818A81A7
:105900000E9441129827892798279E838D8389CFEB
:105910000D811E811027012710278A81EB809CE1D1
:10592000E99E70011124ACE88A9FE00CF11C11245F
:105930008C8190E0880F991FE80EF91E612FC70136
:1059400087960E94BC2E602FC7018896D0CF0E94F8
:10595000C31167CF8A81823879F1C0F48038F9F0B9
:10596000813809F05ECF60E08B810E9439068B811F
:1059700081111FC08091C004837011F01092120138
:105980008091C0048C7F8093C0044BCF833809F092
:1059900048CF8B8120E04091C3046C8106C0809188
:1059A000C10420E04B816091C20490E00E94DD05BB
:1059B00038CF0E946A0635CF8B818093C40431CFE3
:1059C0008A818238C1F050F4803891F0813809F032
:1059D00028CF8091C00486958695FECE833809F045
:1059E00020CF8091C1048B838091C2048C8319CF16
:1059F0008091C304F1CE8091C404EECE0E944B1678
:105A000010CF80E18A830DCFDA8289EAE5CE0A8160
:105A10001B81102701271027FE0131967F01AC80E2
:105A20009F012A0D311D5901C801895A9D4FAE149D
:105A3000BF0409F4F6CE093A31E0130758F40E9486
:105A4000982ED70114968C930F5F1F4FFFEFEF1A1C
:105A5000FF0AEACFF7011482F7CF0A811B811027D2
:105A6000012710279E012F5F3F4F5901EC80E00E68
:105A7000F12EF11CC801895A9D4F0E151F0509F41E
:105A8000D0CE093A31E0130728F4D50114966C9171
:105A90000E94BC2EBFEFAB1ABB0A0F5F1F4FEACFAD
:105AA0000E94B311BECE84E0ADCF0A811B811027C6
:105AB00001271027FE0131967F01AC809F012A0D3E
:105AC000311D5901C8018796AE14BF0409F4A9CE4F
:105AD000003332E0130758F40E94982ED701149631
