:100000000C9461020C94A8020C94A8020C94A8020F
:100010000C94A8020C94A8020C94A8020C94A802B8
:100020000C94A8020C94A8020C944A230C94062366
:100030000C9446240C94A8020C94A8020C94A802D8
:100040000C94A8020C94A8020C94A8020C94A80288
:100050000C94A8020C9422240C94A8020C94A802DC
:100060000C94A8020C94A8020C94A8020C94A80268
:100070000C94A8020C94A8020C94A8020C94A80258
:100080000C94A8020C94A8020C94A8020C94A80248
:100090000C94A8020C94A8020C94A8020C94A80238
:1000A0000C94A8020C94A8020C94A8020501090261
:1000B000A10185020901A1000509190129081500FE
:1000C0002501950875018102050109300931158165
:1000D000257F95027508810609381581257F9501D0
:1000E00075088106050C0A38021581257F95017572
:1000F000088106C0C005010980A101850319012AF4
:10010000B700150126B700950175108100C0050CD8
:100110000901A101850419012AA002150126A002E6
:10012000950175108100C00660FF0961A101096297
:10013000150026FF00952075088102096315002629
:10014000FF00952075089102C005010906A101056F
:100150000719E029E7150025019508750181029529
:1001600001750881010507190029FF150026FF0008
:100170009506750881000508190129059505750181
:100180009102950175039101C0000000000000007C
:10019000000000000000000000000000000000005F
:1001A000000000000000000000000000007E0F00C2
:1001B000D4FFFFFFC700000078000000000000002F
:1001C000002A2B28000000000000000000000000B2
:1001D0000000000029000000002C1E3420212224F1
:1001E000342627252E362D3738271E1F202122237F
:1001F0002425263333362E37381F04050607080911
:100200000A0B0C0D0E0F10111213141516171819D6
:100210001A1B1C1D2F3130232D3504050607080934
:100220000A0B0C0D0E0F10111213141516171819B6
:100230001A1B1C1D2F3130354C0001010101010139
:10024000010101020202020202020202030303038D
:10025000030303030404040404040405050505055D
:10026000060606060607070707070808080809091B
:1002700009090A0A0A0B0B0B0C0C0C0D0D0D0E0EC6
:100280000E0F0F0F10101111111212131314141559
:100290001516161717181819191A1A1B1B1C1D1DCD
:1002A0001E1E1F2020212222232424252626272823
:1002B00029292A2B2C2D2D2E2F3031323233343553
:1002C000363738393A3B3C3D3E3F40414243444556
:1002D000464748494A4C4D4E4F5051535455565835
:1002E000595A5B5D5E5F616264656668696B6C6DDF
:1002F0006F7072737577787A7B7D7E808283858755
:10030000888A8C8E8F91939596989A9C9EA0A2A392
:10031000A5A7A9ABADAFB1B3B5B7BABCBEC0C2C497
:10032000C6C9CBCDCFD1D4D6D8DBDDDFE2E4E7E957
:10033000EBEEF0F3F5F8FAFDFF165C2B003A00B295
:10034000002A00E0005300540055005600E3005F0F
:1003500000600061005700E2005C005D005E00008C
:1003600000E10059005A005B000000015162006387
:100370000058000000005CC25CC35C46004700C53A
:100380005C0000CC5CCB5CCA5CC65C4A0052004B93
:1003900000C95CC75C500000004F000000C85C4D05
:1003A0000051004E000000010049004C00280000F0
:1003B0000001000100010001000100010001000135
:1003C0000001000100010001000100010001000125
:1003D0000001000100010000000100010001000116
:1003E0000000000100010001000100000001000107
:1003F00000010001000100010001000100010001F5
:1004000000010001000100010001000100010001E4
:1004100000010000000100010001000100000001D6
:1004200000010001000100000009025B000301005F
:10043000A0FA0904000001030101000921110100D3
:10044000012240000705810308000A090401000297
:10045000030000000921110100012222000705828A
:100460000320000107050303200001090402000125
:1004700003000000092111010001227B000705840F
:100480000320000A1201000200000008646927012D
:1004900001000102000116034D006F006E007400A0
:1004A00065007800200052004700420000000E0363
:1004B000490044004F00420041004F000000040387
:1004C000090411241FBECFEFDAE0DEBFCDBF04B6B2
:1004D00003FE27C08091740390917503A091760369
:1004E000B09177038730904BA740B04BD1F4109276
:1004F000740310927503109276031092770314BE62
:1005000084B7877F84BF0FB6F894A8958091600068
:10051000886180936000109260000FBEE0E0F8E315
:10052000099523E0ACEEB1E001C01D92A437B207FB
:10053000E1F711E0A0E0B1E0EEEFF6E502C00590D2
:100540000D92AC3EB107D9F70E946D240C940D2B8F
:100550000C940000E8EDF0E080818E7F80831092A3
:10056000E2001092DA001092E100A0EEB0E08C916F
:1005700081608C9380818F77808319BCA7EDB0E078
:100580008C918E7F8C9380818F7E80831092260346
:1005900008952091E4003091E50095E6A9012091AD
:1005A000EC00822F817020FF06C08091E80080FF60
:1005B00006C080E008952091E80022FD1AC08091D5
:1005C0003303882389F0853089F08091EB0085FD25
:1005D0000FC02091E4003091E50042175307F9F273
:1005E0009150E1F684E0089582E0089583E0089553
:1005F00081E00895EF92FF920F931F93CF937C01B8
:100600008B010E94C902C82F811117C08091E80098
:1006100085FD0BC08091E8008E778093E8000E94F2
:10062000C902882399F3C82F08C0F70181917F017F
:100630008093F1000150110949F78C2FCF911F9140
:100640000F91FF90EF9008958091350387FF13C0BD
:100650008091E80082FF06C08091E8008B7780934C
:10066000E80004C0809133038111F2CF0895809196
:1006700033038823D9F38091E80080FFF8CF80917D
:10068000E8008E77ECCF982F9093E900242F762FF7
:1006900050E0891731F07091EC002091ED005091FD
:1006A000F00021FD07C09F5F973071F78093E9004C
:1006B00081E008953091EB003E7F3093EB00309164
:1006C000ED003D7F3093ED003091EB0031603093D1
:1006D000EB007093EC002093ED005093F00020911C
:1006E000EE0027FDE0CF80E00895CF92DF92EF92F9
:1006F000FF920F931F93CF93DF93C8EDD0E08881D3
:100700008F7E8883E7EDF0E080818160808384E0E4
:1007100082BF81E08093260388818E7F888302EEEA
:1007200010E0F80110821092DA0081EEC82ED12C70
:10073000F601108288818F7788838881806888831A
:1007400088818F7D888319BC109233031092340303
:10075000109232031092310390EEE92EF12CF70142
:1007600080818B7F808388818160888342E060E024
:1007700080E00E944303F60180818E7F8083F80130
:10078000808181608083808188608083F70180819F
:100790008E7F8083888180618883DF91CF911F91D4
:1007A0000F91FF90EF90DF90CF900895FC01CB0167
:1007B00020913B0330913C032617370790F00097B8
:1007C00029F42091E8002E772093E80040E000977C
:1007D00051F4411108C08091E80082FF31C080E0EF
:1007E0000895C901F3CF209133032223A9F12530C5
:1007F000A9F12091E80023FD2DC02091E80022FD01
:10080000EACF2091E80020FFE2CF3091F300209161
:10081000F200009719F02830310558F041E02830F7
:10082000310509F040E02091E8002E772093E800A0
:10083000CECF41914093F10001972F5F3F4FE9CF19
:1008400080913303882341F0853041F08091E800A6
:1008500083FFC1CF81E0089582E0089583E0089589
:1008600008958091280308959C014FB7F8948091D2
:100870001F0390912003A0912103B09122034FBF49
:10088000821B930B08952FB7F89480911F039091CA
:100890002003A0912103B09122032FBF08959C0152
:1008A000FC0132968FEF90E04191461751F08F3F57
:1008B00019F4411101C0892F9F5F9630A9F78F3F2E
:1008C00009F40895280F311D87FD3A95F9016283D7
:1008D000089520911C0330911D032817390771F0EA
:1008E00090931D0380931C03E0911A03F0911B0366
:1008F000309721F00084F185E02D0994089520912E
:100900001803309119032817390771F090931903D0
:1009100080931803E0911A03F0911B03309721F0A4
:100920000680F781E02D09940895E0911A03F09173
:100930001B03309721F00190F081E02D099480E0B5
:100940000895FA0181110994FB01FDCFEBEBF2E070
:10095000818360834283339693E0E831F907C1F7DE
:100960000895FC01EE0FFF1FE80FF91FE554FD4F3E
:100970006183408322830895FC019B01AC0197FFB2
:1009800004C044275527481B590BBA01620F731F37
:1009900037FD0FC0241B350BC901A5E0880F991F37
:1009A000AA95E1F70E94A92980E2861BF7FD8195AF
:1009B0000895CB0165E0880F991F6A95E1F7BA01A8
:1009C000621B730B0E94A92980E6EFCFE1E4F3E0FC
:1009D000248130E1231B08F420E024838091BA02B3
:1009E00081608093BA020895E1E4F3E0248130E16C
:1009F000230F08F42FEF24838091BA028160809343
:100A0000BA020895922F20914103237071F08093D0
:100A1000420360934303453B08F044EB4093440397
:100A20002091BA02292B2093BA020895E1E4F3E061
:100A3000438120E1421B08F440E0818121E0628192
:100A400090E00C940205E1E4F3E0438120E1420FE1
:100A500008F44FEF818121E0628190E00C9402055F
:100A6000E1E4F3E0628120E1621B08F460E081814F
:100A700021E0438190E00C940205E1E4F3E062811F
:100A800020E1620F08F46FEF818121E0438190E063
:100A90000C940205E1E4F3E0818121E0438162816D
:100AA0008850990B0C940205E1E4F3E0818190E019
:100AB00021E04381628108960C940205262F9091D3
:100AC0004103937061F081110BC0946090934103D6
:100AD000109214016091BA02622B6093BA020895D9
:100AE000893110F09066F2CF880F880F982BEECFE7
:100AF00090914103969596958FEF890F913009F467
:100B000088E161E00C945E058091410386958695AD
:100B10008F5F893108F081E061E00C945E05EF920F
:100B2000FF920F93282FC701801B91098F3F9105DA
:100B300019F010F08FEF90E08095382F230F08F414
:100B40002FEF822F0F91FF90EF900895EF92FF9279
:100B50000F93282FC701801B91098F3F910519F032
:100B600010F08FEF90E0382F3095230F08F42FEF1F
:100B7000680F822F0F91FF90EF900895EF92FF92F0
:100B80000F93282FC70135E0039F800D911D11247D
:100B90008F3F910519F010F08FEF90E08095382F7E
:100BA000230F08F42FEF822F0F91FF90EF900895FD
:100BB000E42FF0E0EE0FFF1FE257FE4F9081921BF3
:100BC00097FD9195292F38E1239F212D1124620F44
:100BD0000895EF920F93972F23E0029FB001112405
:100BE000759567956E0D792F0F91EF900895E42F0D
:100BF000F0E0EE0FFF1FE059FE4F678D621B089576
:100C0000E42FF0E0EE0FFF1FE257FE4F6081621B02
:100C10000895622F08950C94A6040C94B10422E860
:100C2000241B08F420E0620F08950F931F93522FA6
:100C300010E0F801EE0FFF1FE059FE4FA78DA05204
:100C4000BB0B9D015203F001539FF00D1124000FC7
:100C5000111FD801A257BE4F0C910057110B400332
:100C60009001419F300D11242E0F3F1F37FF02C00E
:100C7000215C3F4F96E0359527959A95E1F7620FF5
:100C80001F910F910895EF920F93CF93DF93D72F7A
:100C9000C82FBA01C9010E19009729F480E857FD41
:100CA00004C080E002C00E94BC04602F681B7D2F3E
:100CB0008C2FDF91CF910F91EF9008950F93CF93E9
:100CC000DF93D72FC82FBA01C901009751F457FFFE
:100CD0000CC060E8600F7D2F8C2FDF91CF910F91BA
:100CE00008950E94BC04682FF5CF60E0F3CF982FE1
:100CF000E82F96FDE0952E2F2F7096FD2F5FE6953D
:100D0000E695E695E670F0E0E75AFE4F8181829F16
:100D1000802D212D112482958F702295207F822B8A
:100D20002081820F97FD8195805808950F931F931E
:100D3000CF93DF938B01D82FC42F822F0E94770689
:100D4000EC2FF0E0EE0FFF1FE257FE4F908190581E
:100D5000980F97FD9195990F692F2CE0629F612D57
:100D60001124600F712F8D2FDF91CF911F910F9163
:100D70000895409110015091110125E038E0429F03
:100D8000C001439F900D529F900D1124875E994C96
:100D90009093110180931001890F08959C01823076
:100DA000910508F408959FEF213E8EE1380740F445
:100DB000C90145E0969587954A95E1F798E0980F27
:100DC00061E0E62FE90FFF27FF1FAF01559547951B
:100DD000842F449FF001459FF00DF00D11242E1734
:100DE0003F0738F49FEF940F961758F78FEF860F51
:100DF00008954F3FE9F361E0640FF6CF9C0190E066
:100E000080E0269F812D369F800D911D112408952D
:100E1000AF92BF92CF92DF92EF92FF920F931F9308
:100E2000CF93DF93262F472FE82FF0E0E75CFD4FAD
:100E300071110FC06491862FE62F7E2FDF91CF9125
:100E40001F910F91FF90EF90DF90CF90BF90AF90E8
:100E50000895E72EF12CE49186E0689F800111242B
:100E6000CFEFD0E0C801BE010E949529DB0130E040
:100E7000220F331F55E5569FC001579F900D112437
:100E8000281B390B622F660F260FCE018E199F0982
:100E9000E89F6001E99FD00C11246D2D429FA001B5
:100EA0001124452F5527CE01841B950BE89FA001E7
:100EB000E99F500D1124852F5E01A21AB108AE9C46
:100EC0009001AF9C300DBE9C300D1124232F332791
:100ED000C21BD30BEC9F9001ED9F300D1124A3306A
:100EE000B105B1F00C3F93E0190760F4A130B105F2
:100EF00099F01297A9F00F3F110508F09ECF8D2DA4
:100F0000632F9BCFA430B10571F01697C1F395CF35
:100F1000652F8E2FED2D91CF6E2FE52F8D2D8DCF3F
:100F2000832F6E2FF7CF8E2FE32F87CF2F923F92F5
:100F30004F925F926F927F928F929F92AF92BF92E9
:100F4000CF92DF92EF92FF920F931F93CF93DF9395
:100F5000CDB7DEB729970FB6F894DEBF0FBECDBF71
:100F6000282E6A837B832091160187E0289F802D9D
:100F700011248E83895F89838C83803210F03FE156
:100F80003C83809147038D83FE81EF2FF0E0F9874A
:100F9000E887CF01880F991F9C0120593E4F6901B6
:100FA000822D90E0FC013196FF83EE838C81988541
:100FB0009817F0F081E0E981EF3108F080E02996A0
:100FC0000FB6F894DEBF0FBECDBFDF91CF911F915A
:100FD0000F91FF90EF90DF90CF90BF90AF909F90D8
:100FE0008F907F906F905F904F903F902F900895DB
:100FF000E885F985E453FE4F80819091170189239C
:10100000F1F040904203509043032E813F81295BD1
:101010003C4F3901322C10E0FD813F16D0F0209179
:101020004403129F112D1124B201812F0E94080741
:10103000462F672F282F888599850E940D062885C1
:1010400039852F5F3F4F3987288732E0C30ED11C87
:10105000ADCFF30181913F01F601A68CA81ABB0820
:10106000878CF3018781881A9908AA9C9001AB9C10
:10107000300D300D1124889CC001899C900D900D7D
:101080001124820F931F0E94CE06082F6091450302
:1010900021E0620F08F46FEFF301EE0FFF1FE7543A
:1010A000F340858996890E94FE067C019401A50182
:1010B000B201812FEA81FB8109952B01182F33940E
:1010C000ABCFDF92EF92FF920F931F93CF93DF93FB
:1010D0007C01C091160187E0C89FC02D112417E044
:1010E0001C0FD12E103210F08FE1D82E60914503E5
:1010F0006695669521E0620F08F46FEF80913D03DD
:1011000090913E030E94FE06082FD0E0CD1560F0BE
:1011100081E01F3108F080E0DF91CF911F910F91A6
:10112000FF90EF90DF900895FE01E453FE4F808121
:1011300090911701892391F06091420370914303CC
:1011400080914403202F4C2FF70109950E94080736
:10115000462F672F282FCE010E940D062196D6CF4D
:101160005F926F927F928F929F92AF92BF92CF9237
:10117000DF92EF92FF920F931F93CF93DF934C0177
:10118000C091160187E0C89FC02D112417E01C0FE5
:10119000512E103210F03FE1532E609145036695B9
:1011A00080913D0390913E030E94FE06F82ED0E010
:1011B000CE01880F991F9C0120593E4F6901C5152A
:1011C000A0F081E01F3108F080E0DF91CF911F9106
:1011D0000F91FF90EF90DF90CF90BF90AF909F90D6
:1011E0008F907F906F905F900895FE01E453FE4FC3
:1011F000808190911701892379F1F601868D282F3E
:101200002057330B5901878DE82FE052FF0B3F0128
:10121000AA9C9001AB9C300D300D1124EE9FC001B3
:10122000EF9F900D900D1124820F931F0E94CE0608
:10123000082F609142037091430380914403EF2C87
:101240009301A501F40109950E940807462F672F15
:10125000282FCE010E940D06F2E0CF0ED11C219660
:10126000AECF0E9443042091630230916402232B8D
:1012700021F080935F02909360022091650230918B
:101280006602232B21F080935D0290935E02E09131
:101290001A03F0911B03309749F082E080936102BA
:1012A0000480F581E02D81E692E009940895409153
:1012B0006302803F59F48091640287FF0DC0109251
:1012C000640241110BC010925B0208C0813F81F49F
:1012D0008091640218169CF3442381F0809165028A
:1012E00090916602892B09F05AC010925A02089513
:1012F000823F49F447FFF0CF10926302809164026D
:101300008111ECCFE0CF833F19F41416ACF3E4CF96
:1013100090916502893F29F41916F4F6109265023E
:10132000DBCF8A3F19F497FFD7CFF8CF90916602B1
:101330008B3F29F497FFD0CF10926602CDCF8C3F20
:1013400019F41916CCF3C8CF9CE0980F953090F49F
:10135000845F990B21E030E0B90102C0660F771F6E
:101360008A95E2F7CB018095909162028923809360
:101370006202B2CF8D3F31F480915C028E7F809308
:101380005C02AACF8E3F21F480915C028D7FF7CF63
:101390008F3F09F0A1CF80915C028B7FF0CF089541
:1013A00080915C0280FD16C081FD16C082FD16C0D2
:1013B00080915A028823A1F0883280F428E0829F2D
:1013C000C001112468E270E00E94A929862F672BD2
:1013D00039F0089582E0089584E0089588E0089542
:1013E00081E0089580915C0280FD14C081FD14C0ED
:1013F00082FD16C080915B02882381F0843180F4E5
:1014000022E3829FC001112464E170E00E94A929B7
:10141000862F08958CE0089589E1089585E0089568
:1014200082E30895803F31F40E94F2098195809310
:1014300064020895813F19F40E94F209F8CF823FB7
:1014400031F40E94F2098195809363020895833FED
:1014500019F40E94F209F8CF893F29F40E94D009BB
:101460008093650208958A3F21F40E94D0098195F6
:10147000F7CF8B3F31F40E94D009819580936602AB
:1014800008958C3F19F40E94D009F8CF9CE0980F82
:10149000953070F4845F990B21E030E001C0220F99
:1014A0008A95EAF780916202822B80936202089506
:1014B0008D3F31F480915C02816080935C020895DD
:1014C0008E3F21F480915C028260F7CF8F3FB9F7A5
:1014D00080915C028460F1CF80E00895F894E82F59
:1014E000E295EF70F0E041A18F7021E030E0B901AA
:1014F00002C0660F771F8A95E2F7CB01962F909571
:10150000942391A392A1892B82A37894089590911A
:10151000440292FF06C0282F28712830F9F4877FF3
:10152000846093FF06C0282F28712831F1F4877E4C
:1015300084612091450220FF06C0382F3871383071
:10154000D9F4877F816021FF06C0282F28712831B8
:10155000D1F4877E816194FD877E0895282F2471C0
:101560002430F9F68B7F8860DCCF282F247124315A
:1015700001F78B7E8861DDCF382F3171313019F75B
:101580008E7F8860E0CF282F2171213121F78E7E58
:101590008861E1CFCF93DF93EC01803E910509F4A0
:1015A00060C050F58133910509F4A6C090F48932EA
:1015B000910509F49AC08A9709F4A5C0C130D105F4
:1015C00009F462C0CE010497813A910508F055C034
:1015D0005BC089339105F1F182389105D9F1C59746
:1015E00009F47CC0C83AD10508F094C0C53AD105C9
:1015F00028F3A497D06448C0843E910509F453C0F1
:1016000068F4823E9105E1F1833E910509F440C002
:10161000CE01805E9109089780F536C0863E91051F
:1016200009F44CC0873E910509F44DC0811522E5AF
:10163000920708F0AAC0811531E5930708F0FAC0B7
:101640008F3F910511F008F074C0803F910550F272
:10165000D0651AC0809144028370B1F0C0EED0E032
:1016600013C08091440280FD12C19091450290FF09
:101670000BC0C3EED0E084FF07C0D0E0C0E004C0E0
:101680008091440282FDF5CFCE01DF91CF91089584
:101690008091440282FDFEC09091450290FDDECF14
:1016A00084FFF2CFEACF8091450281FFEDCF809198
:1016B0004402C7EED0E084FDE0CFE6CF8091440243
:1016C00083FDF7CFE1CF8091440283FDE6C0909186
:1016D000450291FFE5CFC4EED0E0D6CF8091440221
:1016E00085FFD2CFC9E2D0E0CFCF8091440285FF01
:1016F000CBCFC5E3D0E0C8CF8091440286FFC4CFF2
:10170000CAE2D0E0C1CF8091440286FFBDCFC1E3E1
:10171000D0E0BACFCF3BD10508F07ACFC85AD0E09D
:10172000CC0FDD1FC05EDE4F0990D881C02DD46480
:10173000ABCF811540E5940760F4C11580E4D8076C
:1017400008F075C0CE019A9581159F4108F49CCF91
:1017500094CFF4E096958795FA95E1F783702C2F56
:1017600026952695237040E2249F90011124382B62
:101770008C2F8370C1E0D0E002C0CC0FDD1F8A95B2
:10178000E2F7C22BD32BDC687FCFC11586E5D807E3
:1017900030F5C11595E5D90708F060C0C11524E5FD
:1017A000D207C0F49C2F969596959E0123703327FF
:1017B000C115D34508F043C0C1E0D0E002C0CC0F52
:1017C000DD1F2A95E2F720E2929FC0011124C82B69
:1017D000D92BD9CFDC2FCC27C46FD06A55CFC115F8
:1017E0003AE5D30788F4C11549E5D40708F041C0AC
:1017F000CE0198558F3F910511F008F03ECFDC2FB8
:10180000CC27C06FD06A40CFCE0190568115904250
:1018100008F033CF8D2F8F710E94870A90E0982FA8
:10182000882788279F719C012C2BE90120C0DF703D
:10183000D06A2ACFD82FCC27C16FD06A25CFC1E07C
:10184000D0E002C0CC0FDD1F2A95E2F730E2939F73
:10185000C0011124C82BD92BDA6816CF8C2F0E9417
:10186000870AC82FD0E0DC2FCC27CC27DF71D062CD
:101870000BCF8C2F8F700E94870A34E0D695C795C6
:101880003A95E1F7CF70DC2FC82FD069FDCEC9E3C0
:10189000D0E0FACEC2EED0E0F7CEC6EED0E0F4CE85
:1018A00080913F02811110923F020895982F9095E8
:1018B00080913E02892380933E02089580913E02EA
:1018C00090913D02892B90913C02892B8093EE01EF
:1018D00090913F02992391F0892B8093EE0120E0B3
:1018E00080EF91E0FC013081019631112F5F31E0F2
:1018F000863F9307B9F721110E94500CE0911A031B
:10190000F0911B03309731F00280F381E02D8EEED1
:1019100091E00994089580913A02909109029813F8
:1019200001C008958F5F8770FACF292F220F220FF1
:10193000E22FE90FE80F9E2F9770E695E695E69562
:1019400083E0E89FF0011124E950FE4F50E040E0B1
:1019500080E0219130E0092E02C0369527950A9447
:10196000E2F721703327042E01C0220F0A94EAF710
:10197000822B4F5F5F4F4330510559F70895292F50
:10198000220F220FE22FE90FE80F8E2F877041E020
:1019900001C0440F8A95EAF7E695E695E69583E05F
:1019A000E89FF0011124E950FE4F30E020E070E0A4
:1019B0005191DF011197CB01022E02C096958795B8
:1019C0000A94E2F7817081958527842385278C937B
:1019D0002F5F3F4F2330310559F7089590E080E0A5
:1019E0000E947F0490E080E00E94690410923D0212
:1019F00010923C020E945E0C86E0E1E6F2E0DF011C
:101A00001D928A95E9F710925B0210925A02109289
:101A10005C020C943109809373030C94EE0C80915A
:101A20007303982F9670963019F488600C940B0D00
:101A3000877FFCCF21E030E001C0220F8A95EAF7D2
:101A400020958091730382230C940B0D90913B029F
:101A50008095892380933B02282F277091F4282FAB
:101A6000082E000C330B9217130659F09091450283
:101A700092FD07C08595859585950E941A0D109257
:101A80003B02089521E030E001C0220F8A95EAF779
:101A900080917303822B0C940B0D809340020C9465
:101AA000EE0C882321F00E94560C0C945E0C0895D5
:101AB000882339F090913E02892B80933E020C944A
:101AC0005E0C08958823B1F19CEF980F913A70F461
:101AD000E0EFF1E09191891303C0DF0111971C92AF
:101AE00091E0E63FF907B1F70C945E0C90E2980F95
:101AF000983050F4877091E001C0990F8A95EAF709
:101B0000892F0E94560CF0CF9BE5980F933020F45C
:101B100090E080E00C947F0498E5980F973120F4D2
:101B200090E080E00C946904803F20F00E94570907
:101B30000C9431090895CF93C82F882309F455C018
:101B40008CEF8C0F813AF8F4E0EFF1E0DF018D913A
:101B5000C81761F021E0A63FB207C9F76C2F8EEEDF
:101B600091E00E944F04CF910C945E0C8191C813B8
:101B700003C0DF0111971C9231E0E63FF307B1F794
:101B80000E945E0CEBCF80E28C0F883068F4C77047
:101B900021E030E001C0220FCA95EAF780913E02B1
:101BA000822B80933E02DFCF8BE58C0F833038F49D
:101BB0002C2F2452330BC901CF910C947F04E8E5FC
:101BC000EC0FE73150F4F0E0EE0FFF1FE05EFE4F48
:101BD00080819181CF910C946904C03F30F08C2FAB
:101BE0000E94120ACF910C943109CF9108958093ED
:101BF000230370932503609324038091330384307F
:101C0000F9F48093E9008FEF9091E800815095FD01
:101C100006C095ED9A95F1F700008111F5CF8091FE
:101C2000E80085FF0DC050E040E063E070E083E233
:101C300093E00E94FA028091E8008E778093E8009A
:101C40000895BC0184E00C94F70DBC0183E00C9472
:101C5000F70D24E02093E9002FEF3091E8002150A8
:101C600035FD06C035ED3A95F1F700002111F5CFAD
:101C70002091E80025FF0BC050E040E066E070E0F6
:101C80000E94FA028091E8008E778093E800089520
:101C9000CF93DF93D82FC92F81E08093E9008FEF96
:101CA0009091E800815095FD06C095ED9A95F1F769
:101CB00000008111F5CF8091E80085FF16C050E04B
:101CC00040E068E070E08D2F9C2F0E94FA02809126
:101CD000E8008E778093E80088E0ED2FFC2FA9E2E2
:101CE000B3E001900D928A95E1F7DF91CF910895CD
:101CF00081E08093E00080E28093D8001092C900D8
:101D00008FE19EE40197F1F700C0000087E090EBBF
:101D1000DC018093740390937503A0937603B093D2
:101D2000770388E19CE00FB6F894A8958093600053
:101D30000FBE90936000FFCF219A35B13D7F25B152
:101D400022604FB7F8948BEB92E0FC010196508132
:101D500068E025B9000000C057FF35B9550F0000F5
:101D600000C000C000C035B900C06A9591F753E0CB
:101D70008831950751F74FBF8FE594E00197F1F750
:101D800000C0000008950F931F93CF93C82F10E059
:101D900000E0893311F400E510E08C2F0E949B0DC8
:101DA0000115110531F48C2FCF911F910F910C94D7
:101DB000620D8FE99FE00197F1F700C0000001502C
:101DC0001109EECFFF920F931F93CF93DF93C62F8E
:101DD000D42F122FFC0182818823A9F06093720313
:101DE0000E9443049093710380937003C77081E055
:101DF00001C0880FCA95EAF7DF91CF911F910F912B
:101E0000FF900C94580D80917203681334C0809138
:101E10007003909171030E943404883C910558F539
:101E200000E20D0FCD17A9F0C770FF24F3948F2D9A
:101E300001C0880FCA95EAF70E94510D083048F496
:101E40008D2F877001C0FF0C8A95EAF78F2D0E94B5
:101E5000580D812F0E94C30E0830A0F4D77081E086
:101E600001C0880FDA95EAF7DF91CF911F910F91AA
:101E7000FF900C94510DC77081E001C0880FCA9586
:101E8000EAF7F2CFDF91CF911F910F91FF90089564
:101E9000CF93DF93C7E1D1E060E0CE010E94862AB4
:101EA0002196C11584E0D807B9F7DF91CF91089545
:101EB0006F927F928F929F92AF92BF92CF92DF925A
:101EC000EF92FF920F931F93CF93DF93D12CC12CEE
:101ED0003DE6A32EB12CE501EC9736011BC0F701BE
:101EE00085909490692DC8010E94862A682DC801AA
:101EF00001960E94862A22E0E20EF11C0E5F1F4F1F
:101F0000C017D10761F735E0630E711C2A96CA1518
:101F1000DB0559F0C301880F991F9C01275C3C4FDA
:101F200079018E010A501109DACFCE01CC965C01FD
:101F30009EE1C90ED11CC132D14069F6DF91CF912B
:101F40001F910F91FF90EF90DF90CF90BF90AF90D7
:101F50009F908F907F906F900895CF93C82F6FEFD1
:101F6000811162E283E290E00E94862A6FEFC11144
:101F700065E084E290E00E94862A6FEFC11161E083
:101F800085E290E0CF910C94862A80E00E94AD0F0C
:101F900060E086E290E00E94862A0E94580F0E942C
:101FA000480F81E00C94AD0FCF93C0914502C2FB66
:101FB000992790F9981799F080FBC2F9C0934502D0
:101FC0006091440284E090E00E94862A6C2F82E2B5
:101FD00090E00E94862A82E0CF910C94260DCF914A
:101FE00008950F931F93CF93DF93C42FD0E0CC0FAE
:101FF000DD1F2AE0629FC00DD11D11243CE3839FA9
:10200000C00DD11D1124CE0187960E94682A082F89
:1020100010E0102F0027CE0188960E94682A9801B0
:10202000282BC901DF91CF911F910F910895462F61
:10203000672F843030F4763020F4453010F40C945F
:10204000F10F90E080E00895DF92EF92FF920F93FE
:102050001F93CF93DF937C01009173038091400223
:10206000082BC7E0D0E010E0DC2EC8010C2E02C027
:10207000959587950A94E2F780FD0CC02197A0F70B
:10208000D12C8D2DDF91CF911F910F91FF90EF906B
:10209000DF900895B7018C2F0E9417100E94CA0A82
:1020A000019761F3EECFCF93DF93D82FC92F0E9412
:1020B00024106D2F7C2F0E941710DF91CF910C946C
:1020C000CA0AFC01808191810E945310282F892F18
:1020D0008F70392F32953F70903C80F43A30B0F4D5
:1020E000343020F4323090F480E008953630E1F757
:1020F00081E0283E88F0213FB9F70EC03C3011F056
:102100003F3091F7869586958695089581E0203F2A
:1021100039F018F4283E40F70895243F29F7FCCF02
:10212000089583E290E00E94682A823289F484E272
:1021300090E00E94682A853059F485E290E00E9480
:10214000682A91E0813009F090E0892F817008952C
:1021500080E0FCCFCF9384E090E00E94682AC82FF3
:1021600082E290E00E94682A982F8C2FCF910895E8
:102170001F93CF93DF93EC01FC01E453FE4F80816A
:102180006823C9F00E94322A182F0E94322A782F21
:102190007F7720E8720F08F47FEF612F809144036E
:1021A0000E940807462F672F282FCE01DF91CF917D
:1021B0001F910C940D06DF91CF911F910895DF922E
:1021C000EF92FF920F931F93CF93DF93EC01FC01EB
:1021D000E453FE4F8081682381F1D0904303009146
:1021E000440310914203E12EF12C0E94322A282F41
:1021F000C7018C549F4F68E671E00E94A9298E198F
:102200009F0997FD039695958795959587952370DA
:10221000612F289F600D11247D2D802F0E940807BB
:10222000462F672F282FCE01DF91CF911F910F915D
:10223000FF90EF90DF900C940D06DF91CF911F91EE
:102240000F91FF90EF90DF90089546E050E06CE131
:1022500070E081E493E00E94762A1092BA02089519
:102260008F929F92AF92BF92CF92DF92EF92FF92A6
:102270000F931F93CF93DF938091900290919102DF
:10228000A0919202B09193022FB7F89480901F030F
:1022900090902003A0902103B09022032FBF7501DE
:1022A0006401C81AD90AEA0AFB0A2FB7F8944091C8
:1022B0001F035091200360912103709122032FBFCF
:1022C0004093900250939102609392027093930214
:1022D00010916702E7E6F2E0C12FD0E00197AF4F1F
:1022E000BF4F88199909AA09BB091D1329C0C093BA
:1022F000670280914103182F137019F0182F16955B
:10230000169590911401923009F4C9C460F59111A9
:102310003AC01092160140933D0350933E036093E0
:102320003F037093400389E2E7E6F2E0A7E4B3E0FD
:1023300001900D928A95E1F781E08093140116C017
:10234000218D328D4901B12CA12C88159905AA0542
:10235000BB0520F4C150DF5F3296C7CF2C0D3D1D69
:10236000328F218FF8CF933009F4A1C4DF91CF9140
:102370001F910F91FF90EF90DF90CF90BF90AF90A3
:102380009F908F90089590911301191322C083702C
:102390002091120130E091E08217130609F490E0D9
:1023A000892F8170809318018091460390911701C5
:1023B000981739F08093170140E060E080E00E94B8
:1023C0000B06193160F4E12FF0E0E15FF44D0C945D
:1023D000BD2981E0E6CF80911801811102C0C0E0E3
:1023E00073C140E060E080E00E940B06F8CFC0912E
:1023F000160187E0C89FC02D112407E00C0FC02EE6
:10240000003210F0FFE1CF2E609142037091430340
:10241000809144030E940807F62EE72ED82ED0E0C4
:10242000CC1528F0C1E00F3108F44EC1D8CFFE0121
:10243000E453FE4F808190911701892331F02D2DB7
:102440004F2D6E2DCE010E940D062196E9CFC09131
:10245000160187E0C89FC02D112407E00C0F902EB5
:10246000003210F0EFE19E2EB0904303C090440381
:10247000D09142036D2F7B2D8C2D0E940807F62EE4
:10248000E72ED82E609145036D0F7B2D8C2D0E9479
:102490000807C62EB72EA82ED0E0C91518F6FE01E3
:1024A000E453FE4F908180911701892359F02A2D22
:1024B0004C2D6B2D90FD03C02D2D4F2D6E2DCE017B
:1024C0000E940D062196E9CFC091160187E0C89FB2
:1024D000C02D112407E00C0FE02E003210F07FE138
:1024E000E72ED0904303C09044032091450360E45D
:1024F000F62E3F2D329F312D1124F32ED0E0CE1534
:1025000008F090CFFE01E453FE4F808190911701B7
:102510008923B9F0FE01EE0FFF1FE059FE4F878DB2
:1025200082958F70609142038F9D600D11247D2DE7
:102530008C2D0E940807462F672F282FCE010E945E
:102540000D062196DCCFC091160187E0C89FC02DF3
:10255000112407E00C0FE02E003210F04FE1E42EC2
:10256000D0904303C09044032091450330E4F32E00
:102570003F2D329F312D1124F32ED0E0CE1508F0DF
:1025800051CFFE01E453FE4F8081909117018923C2
:10259000D9F0FE01EE0FFF1FE059FE4F668DF69E4B
:1025A000B001112495E0759567959A95E1F78091B2
:1025B0004203680F7D2D8C2D0E940807462F672F40
:1025C000282FCE010E940D062196D8CFC09116016A
:1025D00087E0C89FC02D112407E00C0FC02E0032E9
:1025E00010F0DFE1CD2EF0904203D0914303E09054
:1025F00044036091450366956695669580913D0319
:1026000090913E030E94FE060E947706805887FD47
:102610008195880F282F3E2D239F212D11246F2D6A
:102620007D2F822F0E940807F62EE72ED82ED0E0AD
:10263000CC1508F0F7CEFE01E453FE4F8081909157
:102640001701892331F02D2D4F2D6E2DCE010E94C3
:102650000D062196EDCF89E096E00E946108C82F13
:1026600033C080E096E0F9CF87EF95E0F6CF89EEB2
:1026700095E00E94B008F3CFC091160187E0C89F93
:10268000C02D1124B7E0DB2EDC0EBD2CEFE1ED15E3
:1026900010F4AFE1BA2E60914503669580913D0339
:1026A00090913E030E94FE06C82ED0E0CE01880F16
:1026B000991F9C0120593E4F7901CB15B8F0C1E01C
:1026C0003EE13D1508F48BCE809116018F5F80931B
:1026D0001601C1114BCE82E0809314018091180144
:1026E000811144CE111142CE83E027CEFE01E45386
:1026F000FE4F8081909117018923C1F0F701278D4A
:102700002052330B468D4057550B60914203709118
:102710004303809144030C2D0E945E060E9408072B
:10272000462F672F282FCE010E940D06F2E0EF0EF4
:10273000F11C2196C2CF83E496E09BCFC091160195
:1027400087E0C89FC02D1124E7E0DE2EDC0EAD2C03
:102750008FE18D1510F47FE1A72E609145036695FA
:10276000669580913D0390913E030E94FE06F82EEF
:1027700080E48F0D0E94770650E8C52EC80E8F2D7D
:102780000E94770660E8B62EB80ED0E0CA1530F089
:10279000C1E0FEE1FD1508F097CF21CEFE01E45324
:1027A000FE4F8081909117018923A1F0609142032F
:1027B0007091430380914403EF2C0C2F2B2D4C2D53
:1027C0000E9415060E940807462F672F282FCE016A
:1027D0000E940D062196DACFC0911801C1111EC0CA
:1027E0006091450320E1620F08F46FEF80913D0393
:1027F00090913E030E94FE066AE070E00E949529D7
:10280000892B09F0ECCD0E94322A6FE170E00E9422
:10281000A929609117010E94DF1056CFC0911601BF
:1028200087E0C89FC02D112407E00C0F802F0032D5
:1028300008F08FE1D0E0E82EF12CCE15DF050CF08A
:10284000F1CD60911701CE010E94DF102196F5CFE6
:10285000C0911801C1111EC06091450320E1620FB3
:1028600008F46FEF80913D0390913E030E94FE06B5
:1028700065E070E00E949529892B09F0B0CD0E9497
:10288000322A6FE170E00E94A929609117010E942D
:10289000B8101ACFC091160187E0C89FC02D11242F
:1028A00007E00C0F802F003208F08FE1D0E0E82E17
:1028B000F12CCE15DF050CF0B5CD60911701CE01DE
:1028C0000E94B8102196F5CFC091160187E0C89FED
:1028D000C02D112407E00C0FC02E003210F04FE184
:1028E000C42EE0904303F0904403D09142036091E2
:1028F000450366956695669580913D0390913E03EC
:102900000E94FE060E947706805887FD8195880FF9
:10291000682F2CE0629F612D11246D0F7E2D8F2D6D
:102920000E940807F62EE72ED82ED0E0CC1508F02E
:1029300079CDFE01E453FE4F8081909117018923E8
:1029400031F02D2D4F2D6E2DCE010E940D062196BA
:10295000EDCF86E996E081CE88ED95E07ECE409180
:102960009402509195026091960270919702809125
:102970003D0390913E03A0913F03B0914003841723
:102980009507A607B70708F42ACD0E94B906082FB5
:102990000E94B9069FE1891BF0F7890FC82FD0E08C
:1029A000FE01E453FE4F809117019081892309F4C1
:1029B00074C120E040E060E001FD13C00E94B90650
:1029C000082F0E94B906782F76952FE7720F08F42A
:1029D0007FEF602F809144030E940807462F672FE6
:1029E000282FCE010E940D062091450330E1230FD0
:1029F00008F42FEF60E1822F90E00E94FE06BC01F8
:102A000084EF91E00E94952980913D0390913E03CF
:102A1000A0913F03B0914003860F971FA11DB11DE8
:102A20008093940290939502A0939602B09397029C
:102A3000D6CC4091B6025091B7026091B802709125
:102A4000B90280913D0390913E03A0913F03B09164
:102A5000400384179507A607B70708F4C0CC609118
:102A6000420370914303809144030E940807062F9C
:102A7000D72EC82EC8E9D2E020E7E22E21E0F22EC0
:102A800036EBA32E32E0B32EF701808190E028814F
:102A9000211104C020E040E060E003C02C2D402F55
:102AA0006D2D0E940D0689818883F701848190E055
:102AB0002C8140E060E0222319F02C2D402F6D2D59
:102AC0000E940D062B812C83F701838190E0211158
:102AD00004C020E040E060E003C02C2D402F6D2DAD
:102AE0000E940D062A812B83F701828190E0222328
:102AF00009F446C02C2D402F6D2D0E940D06F701C4
:102B0000818190E02981222309F43EC02C2D402FA1
:102B10006D2D0E940D060E94B906837091E009F0A8
:102B200090E099839A832596F5E0EF0EF11CAC16A0
:102B3000BD0609F0A9CF2091450330E1230F08F429
:102B40002FEF60E1822F90E00E94FE06BC0188EB2F
:102B50009BE00E94952980913D0390913E03A091B6
:102B60003F03B0914003860F971FA11DB11D8093B5
:102B7000B6029093B702A093B802B093B9022FCCDB
:102B800020E040E060E0B9CF20E040E060E0C1CF6D
:102B9000C091160187E0C89FC02D112407E00C0FDB
:102BA000D02E003210F09FE1D92E2091450331E064
:102BB000230F08F42FEF30E050E040E06FEF7FEF9D
:102BC00080E090E00E94AA2A7901D0E0CC24C3944E
:102BD0002C2FCD1508F026CCFE01E453FE4F80814A
:102BE00090911701892311F1409147034150042E20
:102BF000000C550B47FF1CC0C701609145032C2DED
:102C0000620F08F46FEF0E94FE06AC016091420370
:102C100070914303809144030E940F060E940807AD
:102C2000462F672F282FCE010E940D062196D0CF68
:102C3000FA01E95BFC4F818982130AC0FA01EE0FA9
:102C4000FF1FE95BFC4F818D928D8E159F05A8F2C9
:102C500041505109CFCF2091470331E0231B08F4A5
:102C600020E06EEB75E0822F03C06EEB75E080E034
:102C70000E949607F4CC2091470331E0231B08F40F
:102C800020E066EA75E0EFCF2091470331E0231B97
:102C900008F420E06FE875E0E6CFC1E015CD1093B1
:102CA00013018370809312010E949C0E1DCD8091B0
:102CB000BA0281110E94251140913D0350913E03BB
:102CC00060913F03709140032FB7F89480911F03E8
:102CD00090912003A0912103B09122032FBF841B68
:102CE000950BA60BB70B4097A105B10508F43ECB99
:102CF000109214013BCBE1E4F3E08DE180838091FD
:102D0000190190911A01A0911B0181839283A383E1
:102D10008FE784838FEF85830C94251110923E02F8
:102D2000E0EFF1E086E0DF011D928A95E9F70C946F
:102D3000EE0C1F93CF93DF93CDB7DEB7AA970FB6F4
:102D4000F894DEBF0FBECDBF85E393E0FC01019692
:102D50002091F100208323E08D339207B9F7809111
:102D60003603893009F456C0C8F4823009F4B3C080
:102D7000833009F482C0813071F18091E80083FFD3
:102D800085C280913503909136039A3008F07EC257
:102D9000E92FF0E0E85DF44D0C94BD298A3009F488
:102DA00089C08B3051F780913503813231F78091A2
:102DB000390390913A03892B01F78091E800877FCE
:102DC0008093E8000E9424038091370380931501CB
:102DD0000E948E16D2CF80913503813A71F6809190
:102DE000E800877F8093E8008091390390913A034F
:102DF000892B61F468E089E293E070E00E94D603D9
:102E00008091E8008B778093E800B7CF60E090E096
:102E100080E0F3CF80913503813209F0AECF80910D
:102E2000390390913A038D7F892B09F0A6CF8091C9
:102E3000E800877F8093E8008091E80082FF18C057
:102E40009091F3008091F200029731F48091F100AB
:102E5000813011F0863021F48091F10080932803B5
:102E60008091E8008B778093E8000E94240385CF4F
:102E7000809133038111E0CF80CF80913503813A77
:102E800009F07BCF8091390390913A03892B09F0A7
:102E900074CF8091E800877F8093E8008091E800FC
:102EA00080FFFCCF809115018093F1008091E800B4
:102EB0008E77D9CF80913503813209F05ECF809132
:102EC000E800877F8093E8000E9424038091380304
:102ED0008093270352CF80913503813A09F04DCF7B
:102EE0008091E800877F8093E8008091E80080FF70
:102EF000FCCF80912703D8CF803899F0823809F031
:102F0000C5C1809139038F70873008F0BFC18093AD
:102F1000E9008091EB0085FB882780F91092E90099
:102F200006C080913103909132039111826090919B
:102F3000E800977F9093E8008093F1001092F100F1
:102F40008091E8008E779EC1882309F48CC182307D
:102F500009F09CC18091370381118FC180913903A1
:102F60008F702FEF280F263008F090C18093E90072
:102F70002091EB0020FF81C1933031F48091EB0070
:102F800080628093EB0079C19091EB009061909307
:102F9000EB0021E030E001C0220F8A95EAF7209390
:102FA000EA001092EA008091EB008860EACF81117C
:102FB0006DC1109137031F778091E3008078812BDA
:102FC0008093E3008091E800877F8093E8000E946F
:102FD00024038091E80080FFFCCF8091E3008068AB
:102FE0008093E30082E0111183E0809333034EC1AC
:102FF0008058823008F04AC140913703509138031D
:103000004C3D83E05807A1F583E08A838AE28983F7
:103010004FB7F894DE01139620E03EE051E2E32F33
:10302000F0E050935700E49120FF03C0E295EF7069
:103030003F5FEF708E2F90E0EA30C0F0C7968D931F
:103040009D932F5F243159F74FBF8091E800877F10
:103050008093E8006AE270E0CE0101960E94D603F8
:103060008091E8008B778093E80010C1C096E7CF8D
:103070008091390390913A03252F3327233031056E
:1030800009F44AC078F52130310509F479C08BE59F
:1030900090E0E9E2F4E02230310509F0F7C0209138
:1030A000E800277F2093E80020913B0330913C0308
:1030B0008217930708F49C0140E02115310509F0BF
:1030C00064C0411162C08091E80082FDC9CF809147
:1030D0003303882329F2853019F28091E80083FFB9
:1030E000F2CFBECF2132310509F43BC02232310587
:1030F00009F0CCC08330910508F0C8C0FC01EE0F88
:10310000FF1FEC59FE4F0190F081E02D8F599E4F2B
:10311000DC018C9190E011C0CA019927413089F0FF
:1031200082309105B1F0892B09F0B0C0EEEBF4E0EC
:10313000E4918E2F90E0EEEBF4E0009709F4A6C046
:10314000AECFEEEAF4E0E4918E2F90E0EEEAF4E008
:10315000F4CFE6E9F4E0E4918E2F90E0E6E9F4E0C4
:10316000ECCF8330910508F091C0880F991FFC01C6
:10317000E659FE4F0190F081E02D89E090E08FCF7D
:1031800082E190E0E4E8F4E08ACF80913303882381
:1031900009F466CF853009F463CF8091E80083FDA0
:1031A0005FCF8091E80082FD8ECF8091E80080FFA4
:1031B00084CF9091F3008091F2002115310519F030
:1031C0008830910550F041E0089709F040E0809187
:1031D000E8008E778093E80070CF44914093F1002F
:1031E0003196215031090196E8CF803809F04EC060
:1031F0008091E800877F8093E8008091340380937A
:10320000F1009ECE811142C0109137031230F0F5CB
:103210008091E800877F8093E800109334030E9438
:103220002403112311F084E005C08091E30087FDA1
:10323000FACF81E08093330342E061EC81E00E94A9
:10324000430342E261EC84E00E94430342E261EC0A
:1032500082E00E94430342E260EC83E00E94430369
:103260008091330313C080913703813079F481E07A
:10327000933009F080E0809332031092E90080914E
:10328000E800877F8093E8000E9424038091E80093
:1032900083FF0AC08091E800877F8093E8008091D7
:1032A000EB0080628093EB00AA960FB6F894DEBF25
:1032B0000FBECDBFDF91CF911F9108958F929F9246
:1032C000BF92CF92DF92EF92FF920F931F93CF9313
:1032D000DF9300D000D000D0CDB7DEB71A821982BC
:1032E000FE01339684E0DF011D928A95E9F70EE432
:1032F00011E093E5E92E91E0F92EBB24B394CC24A0
:10330000C394D12CF80181918F018F3F09F44AC0F9
:10331000F894E82FE295EF70F0E021A18F70A601FC
:1033200002C0440F551F8A95E2F7CA01922F982BCD
:1033300091A392A18095892382A3789400C083E50C
:10334000882E81E0982EDE0111966B2D6095F40198
:1033500091914F018D919D01215031099F3F09F4B9
:103360006BC0492F42954F7050E0FA0140A150E0E8
:103370009F7002C0559547959A95E2F740FD5CC055
:103380008B29F9018083F9E58F16F1E09F06F9F6A4
:10339000F801319780818F3F11F00E946E0A40EA58
:1033A0004A95F1F7BB0CE016F10609F0ABCF46E009
:1033B00050E0BE016F5F7F4F86E492E00E94422A98
:1033C0009C0111E0892B09F410E0232BB9F186E070
:1033D000FE013196A6E4B2E001900D928A95E1F7E4
:1033E00081E0809343020E944304909342028093C1
:1033F000410280914102909142020E94340405975B
:1034000008F1809146028093540280914702809394
:103410005502809148028093560280914902809320
:10342000570280914A028093580280914B02809308
:1034300059021092430206C08623A3CF8091430213
:103440008111D7CF812F26960FB6F894DEBF0FBE1D
:10345000CDBFDF91CF911F910F91FF90EF90DF9043
:10346000CF90BF909F908F90089590E080E00E9451
:10347000702A893E9E4F11F40C94911080E00895BB
:1034800069EE7EEF90E080E00E94A42A60E082E096
:1034900090E00E94862A60E083E090E00E94862A05
:1034A0001092400260E084E090E00E94862A60E092
:1034B00082E290E00E94862A60E085E090E00E942F
:1034C000862A60E086E090E00E94862A6FEF87E01F
:1034D00090E00E94862A40E050E0BA0188E090E047
:1034E0000E94982A60E08DE090E00E94862A40E0E9
:1034F00050E0BA0188E190E00E94982A60E087E1FC
:1035000090E00E94862A40E050E0BA018CE190E011
:103510000E94982A70E060E080E290E00E94A42A75
:1035200040E050E0BA0188E190E00E94982A80E0F3
:103530000E94AD0F0E94C50F40E050E0BA018FE03D
:1035400090E00E94982A40E050E0BA0183E190E0C8
:103550000C94982A3F924F925F926F927F928F9233
:103560009F92AF92BF92CF92DF92EF92FF920F9312
:103570001F93CF93DF9300D000D00F92CDB7DEB76B
:103580008C01FC0183819481892B31F080819181B0
:1035900089238F3F09F0ACC50F900F900F900F90CB
:1035A0000F90DF91CF911F910F91FF90EF90DF90DF
:1035B000CF90BF90AF909F908F907F906F905F90D3
:1035C0004F903F9008950E942410F82E682F898113
:1035D0009A810E94BF0C69817A818F2D0E941710F9
:1035E0007C01F8018281882309F474C59701225176
:1035F0003F452031310508F00CC58FEF93E00E9464
:10360000682AFEEEEF0E47E1842E992493948823D6
:10361000A1F180913B02877009F4BECFF80182814D
:10362000882309F4B9CF8091450282FDB5CF82E0AD
:103630000F900F900F900F900F90DF91CF911F91EF
:103640000F91FF90EF90DF90CF90BF90AF909F9041
:103650008F907F906F905F904F903F900C94260DCD
:10366000811424E09206A9F2C4010E94682A811103
:1036700001C0EA943FEF831A930AE110F1CF8091E1
:103680001C0190911D01A0911E01B0911F01898321
:103690009A83AB83BC83442443943AE0332E740171
:1036A0008FEFE81AF80AC4010E94682A89831A82F7
:1036B000882309F4AECF9FEF980F933000F58A83EB
:1036C000498292E0890E911CC7010E94682A8B836F
:1036D000882309F49ECFFE0131967F01F7012081F6
:1036E0002223E9F2213009F049C091818281913091
:1036F00041F4F2E0EF0EF11C0E94C30E09C0470135
:10370000EACF923049F422E0E20EF11C0E949B0DB8
:103710003FEFE31AF30AE2CF933031F432E0E30EE5
:10372000F11C0E94620DF4CF943021F08FEFE81A63
:10373000F80AEECF92E0E90EF11C30E020E0B7018C
:103740006F5F7F4FF70141818053990B8A3091055C
:1037500050F021503109E0F28FE99FE00197F1F735
:1037600000C00000F6CF329EF001339EF00D112410
:103770009C012E0F3F1F842F7B01E1CFE22FF0E051
:10378000E754FE4F5490822F86958695869590E05B
:10379000FC01E755FE4F64902770712C022E02C089
:1037A000759467940A94E2F7E1E06E227724FC01B5
:1037B000E756FE4FA490B12C022E02C0B594A794F8
:1037C0000A94E2F7F1E0AF22BB24FC01E757FE4F79
:1037D000C490D12C02C0D594C7942A95E2F721E079
:1037E000C222DD246114710419F081EE0E949B0D48
:1037F000A114B10419F086EE0E949B0D852D0E9444
:10380000C30EAB2819F086EE0E94620D672819F0EE
:1038100081EE0E94620DCD2809F47ACF8CE26CCF44
:1038200081E00E94420D0E940F0DF3CE81E00E94C4
:103830001A0DF9CF82E0F5CF95EFE9169CE5F90670
:10384000E9F027E245EE66EEE6EFEE16ECE5FE0661
:1038500049F027E245EE64EEF4EFEF16FCE5FF06D3
:1038600009F000C4C8010E94E20ED3CE27E245EE63
:1038700065EEF8CF26E241EE60EEF4CF26E241EEAF
:1038800062EEF0CF28E241E0F3CF81E6E8168DE565
:10389000F80609F4FDC380913E02827296EDE916A6
:1038A0009CE5F90608F0CDC0E2ECEE16ECE5FE066C
:1038B00008F4D4C0F701E35CFC45E331F10508F0FE
:1038C0001FC1EE5CF44D0C94BD29F701E350FC459B
:1038D000809144028160E331F10548F5EB5BF44DE2
:1038E0000C94BD29F3E0EF16FDE5FF0680F42AEF06
:1038F000E2162CE5F20608F4DDC3F701EB5FFC45A8
:10390000E830F105F8F4E85AF44D0C94BD2931E69D
:10391000E3163DE5F30609F0CDC390914402892FEB
:103920008F7E94FF806103C0809144028260809307
:103930004402C0C3809144028460F9CF8091440264
:103940008860F5CF80914502816080934502B2C3C3
:10395000809145028260F9CF809144028061E7CF77
:10396000809144028062E3CF809144028064DFCF83
:103970000E948E16809144028068D9CF80914402C3
:103980008C60D5CF809145028360DFCF8091440267
:103990008E7FCDCF809144028D7FC9CF809144022C
:1039A0008B7FC5CF80914402877FC1CF8091450234
:1039B0008E7FCBCF809145028D7FC7CF809144020F
:1039C0008F7EB5CF809144028F7DB1CF809144022C
:1039D0008F7BADCF0E948E16809144028F77A7CF48
:1039E00080914402837FA3CF809145028C7FADCF2D
:1039F0008091440282FB992790F921E0922790FB65
:103A000082F990FB83F993CF80914502982F90958E
:103A100091708E7F892B90FB81F997CF0E948E1633
:103A200090914402892F97FB87F9805880CF61E0FD
:103A30008EE090E00E94862A3DC360E0F9CF85E3E6
:103A40008BC3FDE5EF16FF0609F4E3CD2AE5E21688
:103A50002DE5F20609F4C9C008F0A2C0E1148CE516
:103A6000F80609F4B2C09EEDE9169CE5F90609F4E2
:103A7000B9C0F8018281C080D180882309F4B9C01F
:103A8000C6010E942410F82E682FC6010E94BF0CA8
:103A9000B6018F2D0E9417100E94CA0A7C01782E51
:103AA000F8019280858082942FE0822280913B02EF
:103AB0008770C1F0B92C9920B1F08F2D807F8034B0
:103AC00021F080E28E0D883068F08091450282FD01
:103AD00009C082E00E94260D80913B028770BB24C2
:103AE000B3948111B12C8F2D82958F70C82ED12C5B
:103AF0008C3008F0EFC0F601E05AF44D0C94BD296B
:103B00008091410391E08927809341031092140131
:103B10008091BA0281608093BA027BCD48E755E07C
:103B200064E875E00E94A10474CD44E855E068E7BC
:103B300075E0F8CF4AE455E064E575E0F3CF44E57D
:103B400055E06AE475E0EECF40E355E06DE375E0E3
:103B5000E9CF4DE355E060E375E0E4CF46E155E0A1
:103B600063E275E0DFCF43E255E066E175E0DACF6E
:103B700046EE54E064EF74E0D5CF44EF54E066EED7
:103B800074E0D0CF61E081E00E945E0542CD61E04B
:103B900085E0FACF61E087E0F7CF61E08AE0F4CF1B
:103BA000EBE5EE16EDE5FE0611F1FCE5EF16FDE5A1
:103BB000FF0609F05ECF8091450282FB882780F9DD
:103BC00091E089270E94D40F54CF0E948E162FEFC8
:103BD00034E38CE0215030408040E1F700C0000029
:103BE0000E94780E0E94401A14CD81E0EBCF80E055
:103BF000E9CFC6010E94950CF82E4ACFFF2DFF7029
:103C0000AF2E8F2D807F19F0A29490EFA9228E2DD8
:103C10009920B9F0AA2069F090E29E0D983010F03A
:103C2000E11009C080913E02A82AA0923E020E94A3
:103C30005E0C8E2D4DC080913D02A82AA0923D02BF
:103C4000F6CF0E94620DAA2009F444C080E28E0DD6
:103C5000883010F0711004C08A2D0E94560C06C0E6
:103C6000A09480913D02A822A0923D020E945E0C89
:103C700031C02F2D2F70A22E8F2D807F803219F012
:103C8000A29480EFA8228E2D772089F031E0731660
:103C900009F480C0992009F48AC0882009F480C002
:103CA000F801958190FFC5CF9F70958379C02091D1
:103CB000450222FF4CC0992009F443C0AA2039F0E4
:103CC00080913E028A2980933E020E945E0C80E031
:103CD0000E949B0DE8E0CE1AD108F4E0CF16D10483
:103CE00010F40E949504BB2009F456CC80913B024D
:103CF00080FD52CCF80112828595859585950E94AC
:103D0000420DC8010E94AA1A80913B0285958595B3
:103D100085950F900F900F900F900F90DF91CF919E
:103D20001F910F91FF90EF90DF90CF90BF90AF90D9
:103D30009F908F907F906F905F904F903F900C94EA
:103D40001A0D80E00E94620DAA2021F285CF9920F1
:103D5000A1F090913F028A2D892B811003C00E940F
:103D6000580DB8CFE1E08E12FACF22FDB3CF9817ED
:103D700009F4B0CF80933F02ADCF811006C00E94FE
:103D8000500C8A2D0E94510DA5CFF1E08F1609F439
:103D9000A1CFF5CF992031F025E0281508F49ACF6E
:103DA0008A2DDDCF34E0381508F494CFEACF88208F
:103DB00041F3893349F4FFEF27EE33E0F15020401F
:103DC0003040E1F700C000008E2D0E94620D82CFCE
:103DD0008F2D86958695837061F0813009F07ACFBA
:103DE000C7019370911002C090E080E00E946904C6
:103DF00071CFC7019370911002C090E080E00E94E3
:103E00007F0468CF8E2D992029F00E94120A0E940B
:103E1000310960CF0E945709FACF8F2D837099F531
:103E2000911058CF4E2D429546954770440F440F40
:103E30008E2D8F70042E01C0880F0A94EAF72E2D64
:103E40002071E4FE07C02FE030E001C0220F4A9548
:103E5000EAF720953F2D369536953370323071F064
:103E6000333051F040914002313029F0822B8423CD
:103E70000E944D0D2FCF842B822BFACF282B8091BF
:103E800040028227F5CF8695992011F08F2D817001
:103E9000882309F41FCF4E2D429546954770440F55
:103EA000440F8E2D8F70042E01C0880F0A94EAF7FC
:103EB0002E2D2071E4FE07C02FE030E001C0220F5C
:103EC0004A95EAF720953F2D369536953370323076
:103ED00071F0333051F040917303313029F0822B6F
:103EE00084230E940B0DF6CE842B822BFACF282B35
:103EF000809173038227F5CF8F2D8F70F82E992034
:103F000021F00E94420D8E2D2ACF8E2D0E94510D40
:103F10008F2D0E941A0DDECE8E2D92EF7916B1F103
:103F2000971570F0E0EF7E16D1F0F1EF7F1691F06B
:103F3000992009F45EC081107CCE8F2D8F712AC02C
:103F400023EF721651F134EF7312F2CF80914502D4
:103F500082FF2FC08F2D8F719920D9F21BC099201D
:103F600081F084E0881508F4B5CE2F2D2F7181E003
:103F700090E001C0880F2A95EAF790917303892792
:103F8000B0CF95E0981508F4A5CEEFCF8F2D8F71A7
:103F90009110BFCF0E94420D9DCE80E0992009F480
:103FA000A0CF9F2D9F7181E001C0880F9A95EAF7FD
:103FB00098CF992099F0EF2DEF71FE2E8E2F0E9451
:103FC000420D8091450282FD07C0F8E0FF9EC001CE
:103FD0001124836080933B028F2DDCCF81E00E940F
:103FE000260D21E0281508F075CE82E00E94260DEE
:103FF00071CE882059F0893309F0E6CE3FEF87EE85
:1040000093E0315080409040E1F7DCCE8F2D8F71EE
:1040100080CFF0E1EF16FFE5FF0609F401CC21E1C6
:10402000E2162FE5F20609F405CC93EFE9169CE5BC
:10403000F90609F41FCC08F0FFCBF8EDEF16FCE50C
:10404000FF0609F413CC29EDE2162CE5F20609F47B
:1040500019CC26E241EE61EE37EDE3163CE5F306BE
:1040600009F400CC882309F46CC01092720323E099
:10407000E2162DE5F20608F008CC3AEFE3163CE52F
:10408000F30630F4C70182509C45449708F041C0C4
:104090000E94AA10909345028093440296E1E9168B
:1040A0009CE5F90608F01ECCE2E0EE16ECE5FE0613
:1040B00008F00BCC60914402F090450284E090E05F
:1040C0000E94862A6F2D82E290E00E94862A0E943A
:1040D0008E169FCA30E1E3163FE5F30609F4A6CB3E
:1040E00091E1E9169FE5F90609F09FCF82E09FCBA9
:1040F00085E0DE01119601900D928A95E1F7F801B5
:10410000228189819A8121115ECA0E94950CF82E24
:1041100062CAF6E1EF16FCE5FF0609F0BCCB809120
:104120003E028A7A91E009F490E09093F60169E208
:10413000811165E38EEE91E00E944F040E945E0CB7
:1041400068CA26E1E2162CE5F20609F092CC8091CD
:10415000F601811174CC89E2E0EFF1E026EF31E065
:104160009191891303C0DF0111971C922E173F070D
:10417000B9F7E4CF1F93CF93DF9380910802807F3C
:10418000A9F480910502882389F080913A02D091A8
:1041900009026091030270910402A0910602B0919D
:1041A0000702C62FC72316E0D81304C0DF91CF91B2
:1041B0001F91089590E0109711F0CF3F19F40196E8
:1041C0008770F2CF189F9001199F300D1124F901CB
:1041D000E65FFD4F41814713F2CF40814613EFCF99
:1041E00042814111ECCF438154814A1B5B0B483C17
:1041F000510528F7809108028F7080618093080232
:10420000F901E15FFD4F80818F708061808383E0E1
:1042100092E00E94AA1ADF91CF911F910C948B0C0F
:10422000AF92BF92CF92DF92EF92FF920F931F93C4
:10423000CF93DF93CDB7DEB72B970FB6F894DEBFE1
:104240000FBECDBF8C0185E0F801DE01179601900D
:104250000D928A95E1F7F801E28083E0A82E82E0D2
:10426000B82E60910602709107026115710509F47C
:104270001AC19091030240910402842F89238F3F39
:1042800009F411C120813181C380D480F0900502EE
:10429000F601E61BF70BFF2009F4D0C0809108025D
:1042A000582F507FE83CF10508F0ABC0511177C0A2
:1042B000FE2C431321C092131FC0E1101DC08F704C
:1042C000806180930802C5010E94AA1A80910802A9
:1042D000F80185838F2D2B960FB6F894DEBF0FBEA5
:1042E000CDBFDF91CF911F910F91FF90EF90DF90A5
:1042F000CF90BF90AF900895CD2829F0822F8323CF
:104300008F3F09F0EBC080E0F82FF170DF2EE091D5
:104310003A024091090256E080FD1CC0EE20D1F225
:1043200080910802816080930802F12CD3CF8E2FF8
:1043300090E05E9FF0011124E65FFD4F618136132E
:1043400006C06081261303C06281E612E7CFFC013C
:104350003196E770E413EBCF2F8338878F819885F0
:104360000E945310292F22952F70903260F0225F07
:104370002F70223078F49F7051F0F8019581907F72
:1043800031F4D12C0AC09F7011F08823D1F3805EE4
:104390008830B8F3C8010E94AA1AFD2C9BCF4313A2
:1043A00006C0921304C0F801EE2009F461C0C801F0
:1043B0000E946110882309F1EE20F9F08091080233
:1043C000803270F020910302309104023A832983F5
:1043D0001B82DD82CC828E83CE0101960E94AA1AB6
:1043E00086E0F801A3E0B2E001900D928A95E1F732
:1043F0000E94BA20FF24F3946DCFC8010E94AA1A2C
:10440000F9CF51110AC083E092E00E94AA1A86E017
:10441000F50111928A95E9F788CF4313C8CF92131B
:10442000C6CFE110C4CFF8018583C8010E94AA1A43
:1044300086E0F50111928A95E9F74CCFE83CF10549
:10444000B8F7FE2CEE20C9F243131FC092131DC013
:104450008091080280FD10C0982F907F69F0F801CC
:104460008583903F31F0982F907F905F8F70892BDC
:104470008583C8010E94AA1A86E0F801A3E0B2E091
:1044800001900D928A95E1F725CFC8010E94611035
:104490008111A6CF80910802816080930802C80133
:1044A0000E94AA1A17CFEE2009F4A7CFC8010E94D4
:1044B0006110F82E882309F4A0CF86E0F801A3E06C
:1044C000B2E001900D928A95E1F7809103029091FC
:1044D00004020E9453100E94BA20FCCE81E08E2577
:1044E00013CF1F93CF93DF93CDB7DEB767970FB688
:1044F000F894DEBF0FBECDBF4B8B5C8B6D8B7E8B7C
:104500008F8B611110923D021A8A2C898E899F89A6
:104510003B893D872E876F87998B888B86E0FE01CC
:104520003D96DE01179601900D928A95E1F7CE0136
:1045300007960E941021882389F016E080913A02A4
:104540009091090289134FC067960FB6F894DEBFA9
:104550000FBECDBFDF91CF911F91089586E0FE0180
:104560003796DE01119601900D928A95E1F74A8502
:104570005B854115510509F37F816885862F872367
:104580008F3FD9F22091090230E0C901019687706E
:104590009927E0913A02E817190671F40E948E16E5
:1045A0001092090210923A0286E0E3E0F2E0DF01A5
:1045B0001D928A95E9F7C1CF79836A835D834C8325
:1045C00096E0929FD001939FB00D1124A65FBD4F3E
:1045D000FE01319601900D929A95E1F780930902C0
:1045E0000E948B0CAACF819FC0011124865F9D4F32
:1045F0000E941021882309F4A7CF80913A0290E00D
:1046000001968770992780933A0298CF1F920F9254
:104610000FB60F9211242F933F934F935F936F9395
:104620007F938F939F93AF93BF93CF93DF93EF933A
:10463000FF93D091E900DF708091EC00C82FC1702A
:1046400080FDC0E81092E9008091F000877F8093A0
:10465000F00078940E9499161092E9008091F00081
:1046600088608093F000CD2BCF70C093E900FF915C
:10467000EF91DF91CF91BF91AF919F918F917F91FA
:104680006F915F914F913F912F910F900FBE0F90BF
:104690001F9018951F920F920FB60F9211242F930F
:1046A0003F934F935F936F937F938F939F93AF93BA
:1046B000BF93EF93FF938091E10082FF09C0809147
:1046C000E20082FF05C08091E1008B7F8093E100D2
:1046D0008091DA0080FF24C08091D80080FF20C044
:1046E0008091DA008E7F8093DA008091D90080FF7C
:1046F0009BC080E189BD82E189BD09B400FEFDCF88
:1047000081E08093330380912603811109C00E94C8
:10471000AA020E9475038091E20084608093E20007
:104720008091E10080FF17C08091E20080FF13C0FC
:104730008091E2008E7F8093E2008091E2008061B0
:104740008093E2008091D80080628093D80019BCE9
:1047500085E0809333038091E10084FF29C080913C
:10476000E20084FF25C080E189BD82E189BD09B4F2
:1047700000FEFDCF8091D8008F7D8093D80080917E
:10478000E1008F7E8093E1008091E2008F7E809334
:10479000E2008091E20081608093E2008091340326
:1047A000882309F447C084E0809333038091330366
:1047B0008091E10083FF27C08091E20083FF23C046
:1047C0008091E100877F8093E10082E08093330352
:1047D000109234038091E1008E7F8093E1008091FC
:1047E000E2008E7F8093E2008091E20080618093FE
:1047F000E20042E060E080E00E9443038091F0002C
:1048000088608093F000FF91EF91BF91AF919F91ED
:104810008F917F916F915F914F913F912F910F9069
:104820000FBE0F901F90189519BC10923303109271
:10483000260376CF8091E30087FD02C081E0B4CFEC
:1048400083E0B2CF78941F921FB61F9211248F93EA
:104850009F93AF93BF9380911F0390912003A091EA
:104860002103B09122030196A11DB11D80931F0366
:1048700090932003A0932103B0932203BF91AF91A3
:104880009F918F911F901FBE1F9018951F921FB66A
:104890001F9211248F939F93AF93BF9380911E0318
:1048A000811113C080911F0390912003A0912103D7
:1048B000B09122034196A11DB11D80931F039093D7
:1048C0002003A0932103B0932203BF91AF919F9146
:1048D0008F911F901FBE1F901895CDB7DEB7A99777
:1048E0000FB6F894DEBF0FBECDBF84B7877F84BFFD
:1048F0000FB6F894A895809160008861809360005D
:10490000109260000FBE80E890E00FB6F89480939C
:104910006100909361000FBE85B7806885BF85B741
:10492000806885BF8CE69AE09093ED018093EC015E
:104930000E94AA020E9475038091E2008460809325
:10494000E2007894809133038823A1F01091E9006C
:104950001F709091EC00892F817090FD80E8182BDA
:104960001092E9008091E80083FD0E9499161F7063
:104970001093E90082E084BD93E095BD9AEF97BD66
:1049800080936E000E949110811102C00E94C50F99
:104990000EE411E093E5E92E91E0F92ED8018D9116
:1049A0008D018F3F11F00E946E0AE016F106B1F7FB
:1049B00003E511E089E5E82E81E0F82EF801819108
:1049C0008F018F3F11F00E946E0AE016F106B1F7D9
:1049D00086E0E4E5F2E0DF01282F1D922A95E9F751
:1049E000E6E4F2E0DF011D928A95E9F70E94351AAC
:1049F000811102C00E94401A82E090E00E94682A61
:104A000080934D020E94AA10909345028093440225
:104A10000E945E19BFEFE6E7F1E0B150E040F040E0
:104A2000E1F700C000000E945E198091540280FFEF
:104A300008C06FEF7FEF90E080E00E94A42A0E9400
:104A4000780E83E090E00E94682A0E944D0D10923B
:104A500047038FEF9FEF90936103809360039093E0
:104A60006303809362039093650380936403909340
:104A70006703809366039093690380936803909320
:104A80006B0380936A0390936D0380936C03909300
:104A90006F0380936E03109267029093810280935C
:104AA0008002909383028093820290938502809388
:104AB0008402909387028093860290938902809368
:104AC000880290938B0280938A0290938D02809348
:104AD0008C0290938F0280938E020E94351A81116E
:104AE00004C00E94401A0E947B1646E050E06CE130
:104AF00070E081E493E00E94582A1092BA028091FB
:104B000041038C7F11F40E947B1684E091E0909326
:104B10001B0380931A03A8E1EA2EF12C84E592E0AE
:104B2000B6E08B2E880E18E0C12ED12C8091330375
:104B3000F0E4BF2E00E112E1853009F4CDC10E94FE
:104B40005E19882359F08FB7F89440911F03509154
:104B5000200360912103709122038FBFA4E5B2E08E
:104B6000EEE4F2E010E000E0902F7D908191871557
:104B700009F4D6C18725B12CAA24A394282F2A2171
:104B800009F4C9C1B9829A837A2081E009F480E0EE
:104B90008B830E9443048160782F9D838C8349819D
:104BA0005A816B818D810E947122F801E25BFD4F79
:104BB0008081A826A082772089F085E0809FF0017F
:104BC000819FF00D1124E059FE4FEB0DF11D808106
:104BD000712C8F3F19F0982E77247394072D10E0D5
:104BE00080916702800F912F911D09975CF156010A
:104BF000A01AB10AB80168597D4FA50188E692E074
:104C00000E944F2AB80160597D4FA50180E792E0CC
:104C10000E944F2AA501440F551FB801660F771F48
:104C200060587D4F80E892E00E944F2AB801685892
:104C30007D4FA50188E792E00E944F2A88E08719FE
:104C4000809367028091670290E0292D30E0D901BE
:104C5000AA0FBB1FBD0162577E4F9D0121573E4FDA
:104C600041E0480F971508F441C1809367020E9404
:104C7000301186E0E1E6F2E0DE01119601900D923E
:104C80008A95E1F7B0906302109164020091650289
:104C9000A090660210926302109264021092650264
:104CA00010926602812F8B2909F448C080915F021F
:104CB000909160020E9434049C0180915B028823E1
:104CC00009F42EC323333105C8F18F3F19F08F5FEC
:104CD00080935B02BB2059F00E94F2099FEF1B14E6
:104CE0000CF491E0899F802D11248093630211239D
:104CF00059F00E94F2099FEF11160CF491E0899F80
:104D0000802D112480936402309163023323B1F02B
:104D100020916402222391F045EB3403C001112459
:104D2000992309F414C19093630255EB2503900174
:104D30001124332309F40FC130936402802F8A2990
:104D400009F448C080915D0290915E020E94340493
:104D50009C0180915A02882309F4DDC22536310571
:104D6000C8F18F3F19F08F5F80935A02002359F0EA
:104D70000E94D0099FEF10160CF491E0899F802DBE
:104D8000112480936502AA2059F00E94D0099FEF58
:104D90001A140CF491E0899F802D112480936602EF
:104DA000309165023323B1F020916602222391F005
:104DB00045EB3403C0011124992309F4D0C090932A
:104DC000650255EB250390011124332309F4CBC070
:104DD000309366028091630290916402892B9091D6
:104DE0006502892B90916602892B11F00E9431098E
:104DF000BB821C830D83AE8286E0FE013196A1E664
:104E0000B2E001900D928A95E1F70E94950490918D
:104E10004C02891721F00E94950480934C028091E6
:104E20003303843009F082CE83E08093E9008091DF
:104E3000E80082FF7BCE8091E80090E085FF06C00D
:104E40000E94C902882309F492C091E08091E80091
:104E50008B778093E800992309F468CEE981E150CB
:104E6000E33108F014C1F0E0E459F44D0C94BD298D
:104E700080913303843019F10E94301110921E0387
:104E80000FB6F894A895E09260000FBEB092600053
:104E900083B7817F846083BF83B7816083BF789449
:104EA000889583B78E7F83BF0FB6F894A8958091BD
:104EB0006000886180936000109260000FBE809156
:104EC0003203882349F00E945E19E4E5F2E0819103
:104ED000811102C28E12FBCF80913303853009F419
:104EE000C7CF0E948E160E94950429CE90E0FC0147
:104EF000E959FD4FDB015C915183D9015C915187E8
:104F0000918A880F991FFC01E959FD4F128E118E6D
:104F1000842F91E0A5CEB394AA0C25E0B2122ECE38
:104F20000F5F1F4F0630110509F01ECE8FEF89A3CA
:104F30008AA31BA20E9443048160782F9DA38CA3A7
:104F400049A15AA16BA18DA10E94712290CE81E04E
:104F500080936302EACE81E080936402EFCE81E029
:104F6000809365022ECF81E08093660233CF00E20A
:104F700010E0CE0101965C018091E80085FD0AC039
:104F80008091E8008B778093E8000E94C902882313
:104F900099F35BCF8091F100D5018D935D010150B4
:104FA000110951F752CF1A8289E08B8335C08A816B
:104FB000823009F4A7C18330E9F0813009F067C07D
:104FC0008FB7F89420911F03309120034091210363
:104FD000509122032EA33FA348A759A78FBF6EA1CC
:104FE0007FA188A599A50E94C3296B837C838D83AB
:104FF0009E8312C0809154028B83809155028C83D2
:10500000809156028D83809157028E838091580241
:105010008F8380915902888780913303843009F00F
:1050200085CD1091E9001F709091EC00892F81705F
:1050300090FD80E8182B82E08093E9008091E800E1
:1050400080FF0DC050E040E060E270E0CE010196CC
:105050000E94FA028091E8008E778093E8001F702A
:105060001093E90063CD8A81823089F48B819C8121
:10507000AD81BE818EA39FA3A8A7B9A7BC01CD0116
:105080000E94C32986E290E00E94862AC5CF8FEF56
:105090008983C2CF4C816B818A810E94F10F98274E
:1050A000892798279E838D83B7CFAD80BE80BA2491
:1050B000AB24BA248A810B819AE0099F80011124D4
:1050C000ACE38A9F000D111D11248C8190E0880FA4
:1050D000991F080F191F6B2DC80187960E94862AF9
:1050E0006A2DC8018896D0CF0E94580F95CF8A812B
:1050F000823899F1B8F48038F1F0813809F08CCF1A
:1051000060E08B810E945E059B818091410391113B
:105110001CC0982F937011F0109214018C7F809313
:1051200041037ACF833809F077CF8B8120E040911B
:1051300044036C8106C08091420320E04B81609162
:10514000430390E00E94020567CF982F937011F4FB
:10515000109214018C7F8160E2CF8B818093450394
:105160005BCF8A818238C1F050F4803891F0813869
:1051700009F052CF809141038695869516CF8338EA
:1051800009F04ACF809142038B83809143038C8343
:1051900043CF8091440309CF8091450306CF0E94FD
:1051A00025113ACF80E18A8337CF82E08A8389EE66
:1051B000FCCE0A811B81102701271027FE013196A2
:1051C0003F01AC809F012A0D311D5901C801895E44
:1051D0009E4F6A147B0409F41FCF093E32E0130787
:1051E00058F40E94682AD30114968C930F5F1F4FC6
:1051F000FFEF6F1A7F0AEACFF3011482F7CF0A811B
:105200001B811027012710279E012F5F3F4F390177
:10521000AC80A00EB12EB11CC801895E9E4FA016B5
:10522000B10609F4F9CE093E32E0130728F4D301A0
:1052300014966C910E94862ABFEF6B1A7B0A0F5F4F
:105240001F4FEACF0E94480FE7CE84E0ACCF0A811F
:105250001B81102701271027FE0131963F01AC80EA
:105260009F012A0D311D5901C8018796A614B70464
:1052700009F4D2CE003F110558F40E94682AD301E8
:1052800014968C930F5F1F4FFFEF6F1A7F0AECCFBE
:10529000F3011482F7CF0A811B8110270127102701
:1052A0009E012F5F3F4F3901AC80A00EB12EB11C83
:1052B000C80187960A151B0509F4AECE003F1105FB
:1052C00028F4D30114966C910E94862ABFEF6B1AC2
:1052D0007B0A0F5F1F4FECCF09BD19BD09B400FE5B
:1052E000FDCF8091D8008F7D8093D8008091E00021
:1052F00082608093E0008091E00081FDFCCF0E94FD
:105300008E16EACD86E290E00E94682A1B821C82FB
:105310001D828E8381CE2D32314008F024CD5ACDAE
:105320002D32314008F0D3CC09CDAA1BBB1B51E173
:1053300007C0AA1FBB1FA617B70710F0A61BB70B05
:10534000881F991F5A95A9F780959095BC01CD01AA
:10535000089597FB072E16F4009407D077FD09D027
:105360000E94952907FC05D03EF4909581959F4FAA
:105370000895709561957F4F0895EE0FFF1F05907A
:10538000F491E02D099469279627692778278727C4
:1053900078270895CF92DF92EF92FF92CF93DF9319
:1053A000CDB7DEB72A970FB6F894DEBF0FBECDBFDC
:1053B00089879A87A985BA852D913D914D915C91F8
:1053C00029833A834B835C83232B242B252B41F4A5
:1053D00024E239ED4BE557E029833A834B835C8324
:1053E00069817A818B819C812DE133EF41E050E02E
:1053F0000E94AA2A69017A01A7EAB1E49B01AC01E3
:105400000E94C92A69837A838B839C83ACEEB4EFB4
:10541000A70196010E94D72A9B01AC0189819A813C
:10542000AB81BC81820F931FA41FB51FB7FF03C0C0
:105430000197A109B048E985FA8580839183A28309
:10544000B3839F772A960FB6F894DEBF0FBECDBF09
:10545000DF91CF91FF90EF90DF90CF9008950E9461
:10546000CA29089580E091E00E94CA290895B0E019
:10547000A0E08093000190930101A0930201B093FA
:1054800003010895FB01DC0104C08D910190801996
:1054900021F441505040C8F7881B990B0895FB0137
:1054A000DC0102C001900D9241505040D8F70895A0
:1054B000DC01CB01FC01F999FECF06C0F2BDE1BDD4
:1054C000F89A319600B40D9241505040B8F70895C3
:1054D000F999FECF92BD81BDF89A992780B50895BC
:1054E000A8E1B0E042E050E00C945A2ADC01A40F9D
:1054F000B51F4150504048F0CB01840F951F2E91AD
:105500000E94872A41505040D0F70895262FF999DC
:10551000FECF92BD81BDF89A019700B4021639F012
:105520001FBA20BD0FB6F894FA9AF99A0FBE0895E3
:105530000396272F0E94872A0E94862A252F0E94E1
:10554000872A242F0C94872A0196272F0E94872AC6
:105550000C94862A052E97FB1EF400940E94C12A03
:1055600057FD07D00E94DC2A07FC03D04EF40C94B0
:10557000C12A50954095309521953F4F4F4F5F4F31
:10558000089590958095709561957F4F8F4F9F4FAF
:1055900008950E94FE2AA59F900DB49F900DA49F90
:1055A000800D911D11240895B7FF0C94C92A0E9403
:1055B000C92A821B930B0895A1E21A2EAA1BBB1BBA
:1055C000FD010DC0AA1FBB1FEE1FFF1FA217B307CF
:1055D000E407F50720F0A21BB30BE40BF50B661FE5
:1055E000771F881F991F1A9469F7609570958095A9
:1055F00090959B01AC01BD01CF010895A29FB00120
:10560000B39FC001A39F700D811D1124911DB29FF6
:10561000700D811D1124911D0895F894FFCFEB1199
:10562000F71127126412A312E6122B13311334134D
:1056300037133C139B139E13EC1328146414A91402
:10564000AC14AF141915C8152B1635163B16441695
:105650007C17A4174619A4174619D717F817461927
:10566000F51802198E1D951D9A1D9F1DA41DA91DBB
:10567000AE1DB31DB81DBD1DC21DC71DCA1DCD1D4C
:10568000091B091B091B091B091B941C9A1C9E1C46
:10569000AC1CB01CB41CB81CBE1CC61CCA1CCE1C46
:1056A000D21CDE1CE21CE61CEA1CF01C0E1DF81CC1
:1056B000A81CD61CDA1CC21CF41C041D171D1D1DC1
:1056C000FE1DFE1D391E391EE81E021F6A1E6A1EBF
:1056D0000D1F7C1F8C1F8C1FD327D72733284A28E8
:1056E000552874287728B128CF2847284728D2285A
:0E56F000D528D928FF282229252927294B292A
:1056FE00010000003104480E290E250E210E300443
:10570E003905FFFF030100FF0000FFB40000000099
:10571E00E200E900EA00B500B600B700CD00830153
:10572E00CC008A0192019401210223022402250257
:10573E00260227022A02B300B4006F007000959370
:10574E00929190949697343566003131295A1B7593
:10575E000A40227B49012701AC003B045404740427
:10576E000605041E1D18191A1B1C17161514130FE7
:10577E00101112FF0E0D0C0BFF0708090AFFE000B7
:10578E00E04000400000700038000000004054402F
:10579E00A840E03AA829702938290029001D381D93
:1057AE00701DA81DE023A81D701D381D001D0011C1
:1057BE0038117011A811E011E000A80002020202D7
:1057CE000101010404040404040404040404040494
:0C57DE0004040404040404040401010099
:00000001FF
