:100000000C9440030C9478030C9478030C947803BC
:100010000C9478030C9478030C9478030C94780374
:100020000C9478030C9478030C94D0260C948C26B2
:100030000C94CC270C9478030C9478030C947803DC
:100040000C9478030C9478030C9478030C94780344
:100050000C9478030C94A8270C9478030C947803E0
:100060000C9478030C9478030C9478030C94780324
:100070000C9478030C9478030C9478030C94780314
:100080000C9478030C9478030C9478030C94780304
:100090000C9478030C9478030C9478030C947803F4
:1000A0000C9478030C9478030C94780305010902EE
:1000B000A10185020901A1000509190129081500FE
:1000C0002501950875018102050109300931158165
:1000D000257F95027508810609381581257F9501D0
:1000E00075088106050C0A38021581257F95017572
:1000F000088106C0C005010980A101850319012AF4
:10010000B700150126B700950175108100C0050CD8
:100110000901A101850419012AA002150126A002E6
:10012000950175108100C005010906A1018506052C
:100130000719E029E71500250195087501810205D9
:1001400007190029EF1500250195F07501810205B9
:10015000081901290595057501910295017503910D
:1001600001C00660FF0961A1010962150026FF00B8
:100170009520750881020963150026FF00952075FA
:10018000089102C005010906A101050719E029E748
:1001900015002501950875018102950175088101F9
:1001A0000507190029FF150026FF0095067508812F
:1001B000000508190129059505750191029501753C
:1001C000039101C069646F62616F2F696436373AC9
:1001D00069646F62616F202876302E31382E342D9D
:1001E000342D67356439333265290000010101017E
:1001F00001010101010202020202020202020303E2
:1002000003030303030304040404040404050505B1
:100210000505060606060607070707070808080873
:10022000090909090A0A0A0B0B0B0C0C0C0D0D0D20
:100230000E0E0E0F0F0F10101111111212131314B6
:1002400014151516161717181819191A1A1B1B1C2E
:100250001D1D1E1E1F202021222223242425262688
:10026000272829292A2B2C2D2D2E2F3031323233BD
:100270003435363738393A3B3C3D3E3F40414243C6
:100280004445464748494A4C4D4E4F5051535455AA
:100290005658595A5B5D5E5F616264656668696B5A
:1002A0006C6D6F7072737577787A7B7D7E808283D8
:1002B0008587888A8C8E8F91939596989A9C9EA01C
:1002C000A2A3A5A7A9ABADAFB1B3B5B7BABCBEC029
:1002D000C2C4C6C9CBCDCFD1D4D6D8DBDDDFE2E4F2
:1002E000E7E9EBEEF0F3F5F8FAFDFF00000000009F
:1002F00000000000000000000000000000000000FE
:100300000000000000000000000000000000007E6F
:100310000F00D4FFFFFFC7000000780000000000BE
:100320000000002A2B280000000000000000000050
:1003300000000000000029000000002C1E342021D5
:100340002224342627252E362D3738271E1F20211C
:1003500022232425263333362E37381F040506077B
:1003600008090A0B0C0D0E0F101112131415161795
:1003700018191A1B1C1D2F3130232D3504050607B3
:1003800008090A0B0C0D0E0F101112131415161775
:1003900018191A1B1C1D2F3130354C29001E001F47
:1003A0000020002100220023002400250026002731
:1003B000002D002E002A0035022B0014001A000820
:1003C00000150017001C0018000C00120013002F6D
:1003D00000300031004C00394104001600070009CC
:1003E000000A000B000D000E000F00330034000067
:1003F0000028004B00E10000001D001B0006001952
:1004000000050011001000360037003800E50052EA
:10041000004E00E000E3000000E200000000002CBD
:100420000000000000000001516542500051004FE3
:100430000035003A003B003C003D003E003F0040DC
:10044000004100420043004400450001000100015A
:1004500000C25C5200C35CC55CC65CC75CC85CC9BA
:100460005CCA5C0100835F825F01000100390050BB
:100470000051004F0001000100010001000100498E
:10048000004A004B000000010001000100000000D4
:100490005CCB5CCC5C895FAA00A800A9004C004D35
:1004A000004E0001000100010001000100000001F8
:1004B0000000000000010000000000000001000139
:1004C0000001000100010001000100010001000124
:1004D0000001000100010001000100010001000114
:1004E0000001000100010001000100010001000104
:1004F00000010001000100010001000100010001F4
:1005000000010001000100010001000100010001E3
:1005100000010001000100010001000000010001D4
:1005200000010000000100010001000100010001C4
:1005300000010001000100010001000100010001B3
:1005400000010000000100000000000100000000A8
:100550000000000100010001000100010001000194
:100560000001000100010001000100010001000183
:100570000001000100010001000100010001000173
:100580000001000100010001000100010001000163
:100590000001000100010001000100010001000153
:1005A0000001000100010001000100010001000143
:1005B0000000000100010001000000010001000135
:1005C0000001000100010001000100010001000123
:1005D0000001000100010001000000010000000016
:1005E0000001000000000000000100010001000106
:1005F00000010009025B00030100A0FA09040000E9
:100600000103010100092111010001224000070539
:100610008103080001090401000203000000092110
:1006200011010001222200070582032000010705B5
:100630000303200001090402000103000000092156
:100640001101000122B600070584032000011201F8
:100650000002000000086469670200020102000154
:100660000A03490044003600370000000E03490029
:1006700044004F00420041004F0000000403090401
:1006800011241FBECFEFDAE0DEBFCDBF04B603FEFC
:1006900018C08091100590911105A0911205B0919C
:1006A00013058730904BA740B04B59F410921005BA
:1006B000109211051092120510921305E0E0F8E374
:1006C000099525E0A0EBB2E001C01D92A031B20770
:1006D000E1F712E0A0E0B1E0E2E7FFE502C005903B
:1006E0000D92A03BB107D9F70E94F3270C94382F45
:1006F0000C940000E8EDF0E080818E7F8083109202
:10070000E2001092DA001092E100A0EEB0E08C91CD
:1007100081608C9380818F77808319BCA7EDB0E0D6
:100720008C918E7F8C9380818F7E80831092AA041F
:1007300008952091E4003091E50095E6A90120910B
:10074000EC00822F817020FF06C08091E80080FFBE
:1007500006C080E008952091E80022FD1AC0809133
:10076000CF04882389F0853089F08091EB0085FDE6
:100770000FC02091E4003091E50042175307F9F2D1
:100780009150E1F684E0089582E0089583E00895B1
:1007900081E00895EF92FF920F931F93CF937C0116
:1007A0008B010E949903C82F811117C08091E80026
:1007B00085FD0BC08091E8008E778093E8000E9451
:1007C0009903882399F3C82F08C0F70181917F010D
:1007D0008093F1000150110949F78C2FCF911F919F
:1007E0000F91FF90EF9008958091D10487FF13C07F
:1007F0008091E80082FF06C08091E8008B778093AB
:10080000E80004C08091CF048111F2CF0895809157
:10081000CF048823D9F38091E80080FFF8CF80913E
:10082000E8008E77ECCF982F9093E900242F762F55
:1008300050E0891731F07091EC002091ED0050915B
:10084000F00021FD07C09F5F973071F78093E900AA
:1008500081E008953091EB003E7F3093EB003091C2
:10086000ED003D7F3093ED003091EB00316030932F
:10087000EB007093EC002093ED005093F00020917A
:10088000EE0027FDE0CF80E00895B0E0A0E0EBE4CB
:10089000F4E00C94C22DC8EDD0E088818F7E88836F
:1008A000E7EDF0E080818160808384E082BF81E0B9
:1008B0008093AA0488818E7F888302EE10E0F8017D
:1008C00010821092DA0081EEC82ED12CF60110822F
:1008D00088818F77888388818068888388818F7DED
:1008E000888319BC1092CF041092D0041092CE04C9
:1008F0001092CD0490EEE92EF12CF70180818B7FD0
:10090000808388818160888342E060E080E00E948B
:100910001304F60180818E7F8083F80180818160DD
:100920008083808188608083F70180818E7F8083CF
:10093000888180618883CDB7DEB7E8E00C94DE2D36
:10094000FC01CB012091D7043091D804261737073A
:1009500090F0009729F42091E8002E772093E8008A
:1009600040E0009751F4411108C08091E80082FFF7
:1009700031C080E00895C901F3CF2091CF04222334
:10098000A9F12530A9F12091E80023FD2DC0209187
:10099000E80022FDEACF2091E80020FFE2CF30916D
:1009A000F3002091F200009719F02830310558F03B
:1009B00041E02830310509F040E02091E8002E7731
:1009C0002093E800CECF41914093F10001972F5F33
:1009D0003F4FE9CF8091CF04882341F0853041F02B
:1009E0008091E80083FFC1CF81E0089582E00895FF
:1009F00083E0089508958091AC0408959C014FB759
:100A0000F8948091A1049091A204A091A304B091C4
:100A1000A4044FBF821B930B0895A4E0B0E0E3E170
:100A2000F5E00C94C82D8FB7F8942091A104309173
:100A3000A2044091A3045091A40429833A834B83D8
:100A40005C838FBF69817A818B819C812496E2E0EF
:100A50000C94E42D2FB7F8948091A1049091A204F6
:100A6000A091A304B091A4042FBF08959C0180918C
:100A700015018823C9F08091A50487FF15C0E62FD2
:100A8000E695E695E695603FE0F4E20FF32FF11D61
:100A9000677081E090E001C0880F6A95EAF7809561
:100AA0009281892382830895F9013296285F3F4F0E
:100AB0008191681303C0DF0111971C92E217F307BD
:100AC000B9F708959C01809115018823C1F08091A8
:100AD000A50487FF14C0E62FE695E695E695603FEE
:100AE000F8F4E20FF32FF11D677021E030E001C050
:100AF000220F6A95EAF78281822B82830895F90199
:100B000032968FEF90E04191641751F08F3F19F4C6
:100B1000411101C0892F9F5F9630A9F78F3F09F4DB
:100B20000895280F311D87FD3A95F90162830895D4
:100B300020919E0430919F042817390771F09093FB
:100B40009F0480939E04E0919C04F0919D04309753
:100B500021F00084F185E02D0995089520919A04F3
:100B600030919B042817390771F090939B04809370
:100B70009A04E0919C04F0919D04309721F0068046
:100B8000F781E02D09950895E0919C04F0919D0472
:100B9000309729F00190F081E02D0995089580E0CB
:100BA0000895FA01882311F009950895FB01FCCFFF
:100BB000E3EBF3E0818360834283339694E0EA3988
:100BC000F907C1F70895FC01EE0FFF1FE80FF91FA9
:100BD000ED54FC4F6183408322830895EDEDF4E0F2
:100BE000248130E1231B08F420E024838091B203A8
:100BF00081608093B2030895EDEDF4E0248130E14B
:100C0000230F08F42FEF24838091B2038160809337
:100C1000B2030895922F2091DD04237071F0809328
:100C2000DE046093DF04453B08F044EB4093E004AE
:100C30002091B203292B2093B2030895EDEDF4E047
:100C4000438120E1421B08F440E0818121E0628180
:100C500090E00E940A060895EDEDF4E0438120E162
:100C6000420F08F44FEF818121E0628190E00E9401
:100C70000A060895EDEDF4E0628120E1621B08F4BC
:100C800060E0818121E0438190E00E940A0608959E
:100C9000EDEDF4E0628120E1620F08F46FEF8181F5
:100CA00021E0438190E00E940A060895EDEDF4E012
:100CB000818121E0438162818850990B0E940A065C
:100CC0000895EDEDF4E0818190E021E043816281BF
:100CD00008960E940A060895262F9091DD049370CD
:100CE00061F081110BC094609093DD0410921201A9
:100CF0006091B203622B6093B2030895883210F0C2
:100D00009C69F2CF880F880F982BEECF9091DD046D
:100D1000969596958FEF890F913009F487E261E0FF
:100D20000E946C0608958091DD04869586958F5FFC
:100D3000883208F081E061E00E946C06089580919D
:100D4000DD04837011F4109212018091DD048C7F18
:100D500081608093DD040895EF92FF920F93282F16
:100D6000C701801B91098F3F910519F010F08FEF9B
:100D700090E08095382F230F08F42FEF822F0F91EA
:100D8000FF90EF900895EF92FF920F93282FC701E5
:100D9000801B91098F3F910519F010F08FEF90E0C3
:100DA000382F3095230F08F42FEF680F822F0F9103
:100DB000FF90EF900895EF92FF920F93972FFA0113
:100DC000B9019701093430F4201B31092F3F310557
:100DD00019F010F02FEF30E03896719740F0AB012A
:100DE000485F5F4F4131510510F02FEF30E0209503
:100DF000382F320F08F43FEF77FF02C06D5F7F4F4F
:100E000075956795759567958091DE04680F792FC4
:100E1000832F0F91FF90EF900895EF92FF920F9321
:100E20001F93E00EF11C890137FF03C01195019556
:100E3000110924E0000F111F2A95E1F70F3F11055A
:100E400019F014F00FEF10E09A0157FF03C031952D
:100E50002195310994E0220F331F9A95E1F720176D
:100E600031070CF489010E0D1F1D0F3F110519F0FC
:100E700010F00FEF10E00095282F200F08F42FEF4F
:100E8000822F1F910F91FF90EF900895EF92FF92A4
:100E90000F93282FC70135E0039F800D911D11246A
:100EA0008F3F910519F010F08FEF90E08095382F6B
:100EB000230F08F42FEF822F0F91FF90EF900895EA
:100EC00022E8241B08F420E0620F08954095282FA3
:100ED000429F412D1124842F0895E42FF0E0EE0F5E
:100EE000FF1FE853FE4F9081921B97FD9195292F8C
:100EF00038E1239F212D1124620F08950F931F9332
:100F0000522F10E0F801EE0FFF1FE853FE4F9081C3
:100F1000905797FD9195000F111FF801E753FE4F71
:100F200000810052110B50039001519F300D11248C
:100F300008E310E0091B110997FD13954003F00128
:100F4000419FF00D1124E20FF31F9F01220F331F69
:100F50002E0F3F1F37FF02C021583F4F220F232F74
:100F6000221F330B620F1F910F9108950F931F9350
:100F7000522F10E0F801EE0FFF1FE753FE4FA08144
:100F8000A052BB0B9D015203F001539FF00D1124A1
:100F9000000F111FD801A853BE4F0C910057110B21
:100FA00040039001419F300D11242E0F3F1F37FF4A
:100FB00002C0215C3F4F96E0359527959A95E1F761
:100FC000620F1F910F9108950F931F93522F10E0FE
:100FD000F801EE0FFF1FE753FE4FA081A052BB0B9D
:100FE0009D015203F001539FF00D1124000F111FBA
:100FF000D801A853BE4F0C910057110B400390012C
:10100000419F300D11242E0F3F1F37FF02C0215882
:101010003F4F220F232F221F330B620F1F910F917F
:101020000895EF920F93972F23E0029FB0011124B0
:10103000759567956E0D792F0F91EF900895322F6A
:1010400050E0FA01EE0FFF1FE753FE4F90819052E0
:1010500097FD9195440F551FFA01E853FE4F2081EB
:10106000231B330B290F311D97FD3A95620F08950D
:10107000E42FF0E0EE0FFF1FE753FE4F6081621B8D
:101080000895E42FF0E0EE0FFF1FE853FE4F60815C
:10109000621B0895622F0895582FA22FE42FF0E0CD
:1010A000EE0FFF1FE853FE4F208134EE239F212DCA
:1010B000112490E030E0245E3F4F2A1B310937FFB6
:1010C00003C031952195310943E0220F331F4A9522
:1010D000E1F7821B930B97FD80E0282F259F212DA0
:1010E0001124822F08951F93172F922FE42FF0E0E1
:1010F000EE0FFF1FE853FE4F208134EE239F212D7A
:101100001124472F50E030E0245E3F4F291B310966
:1011100037FF03C031952195310993E0220F331F2A
:101120009A95E1F7421B530B57FD40E0742F719FD6
:10113000712D11241F9108950E94D80508950E94D1
:10114000E3050895FC019B01009729F480E077FFF7
:101150002BC080E80895AC0197FF04C044275527B1
:10116000481B590BB901640F751F37FD10C0241BB4
:10117000350BC901A5E0880F991FAA95E1F70E94D8
:10118000972D80E2861BF7FF0FC081950895CB0154
:1011900065E0880F991F6A95E1F7BA01621B730B2E
:1011A0000E94972D80E6EECF0895EF920F93CF9394
:1011B000DF93D72FC82FBA01C9010E190E94A208C8
:1011C000602F681B7D2F8C2FDF91CF910F91EF90B7
:1011D00008950F93CF93DF93D72FC82FBA01C9017A
:1011E0000E94A208682F600F7D2F8C2FDF91CF9176
:1011F0000F910895EF920F931F93CF93DF93D62F04
:10120000C72F182FBA01C9010E19010F0E94A20899
:10121000081B019F012D11246D2F7C2F802FDF9142
:10122000CF911F910F91EF900895EF920F931F931D
:10123000CF93DF93D62F172FC82FBA01C9010E19EC
:10124000010F0E94A208702F781B719F712D11242D
:101250006D2F8C2FDF91CF911F910F91EF900895FB
:101260000F931F93CF93DF93D62FC72F182FBA0159
:10127000C901212F201B022F0E94A208982F990F2D
:10128000990F282F291B200F219F212D11246D2F0D
:101290007C2F822FDF91CF911F910F9108950F9393
:1012A0001F93CF93DF93D62F172FC82FBA01C901F1
:1012B000212F201B022F0E94A208982F990F990F0F
:1012C000782F791B700F719F712D11246D2F8C2F2A
:1012D000DF91CF911F910F910895982FE82F96FDE0
:1012E000E0952E2F2F7096FD2F5FE695E695E695FB
:1012F000E670F0E0EA59FE4F8181829F802D212D1A
:10130000112482958F702295207F822B2081820F5D
:1013100097FD8195805808950F931F93CF93DF9386
:101320008B01D82FC42F822F0E946D09EC2FF0E083
:10133000EE0FFF1FE853FE4F90819058980F97FDD6
:101340009195990F692F2CE0629F612D1124600FF8
:10135000712F8D2FDF91CF911F910F9108959C01D7
:101360008230910508F408959FEF213E8EE1380701
:1013700040F4C90145E0969587954A95E1F798E0D4
:10138000980F61E0E62FE90FFF27FF1FAF0155958A
:101390004795842F449FF001459FF00DF00D1124D7
:1013A0002E173F0738F49FEF940F961758F78FEFDB
:1013B000860F08954F3FE9F361E0640FF6CF0F9376
:1013C000CF93DF93D72FC82FF90147FD419528E32D
:1013D00030E0241B310947FD3395229FA001239F54
:1013E000500D500D1124EE9FC001EF9F900D900DF8
:1013F0001124840F951F0E94AF09982F990F692F10
:10140000680F600F7D2F8C2FDF91CF910F91089582
:101410009C0190E080E0269F812D369F800D911DDC
:1014200011240895B0E0A0E0E8E1FAE00C94C02DAA
:10143000262F472FE82FF0E0E551FE4F711109C02C
:101440006491862FE62F7E2FCDB7DEB7EAE00C94AD
:10145000DC2DE72EF12CE49186E0689F80011124B9
:10146000CFEFD0E0C801BE010E94832DDB0130E048
:10147000220F331F55E5569FC001579F900D112431
:10148000281B390B622F660F260FCE018E199F097C
:10149000E89F6001E99FD00C11246D2D429FA001AF
:1014A0001124452F5527CE01841B950BE89FA001E1
:1014B000E99F500D1124852F5E01A21AB108AE9C40
:1014C0009001AF9C300DBE9C300D1124232F33278B
:1014D000C21BD30BEC9F9001ED9F300D1124A33064
:1014E000B105B1F00C3F93E0190760F4A130B105EC
:1014F00099F01297A9F00F3F110508F0A4CF8D2D98
:10150000632FA1CFA430B10571F01697C1F39BCF23
:10151000652F8E2FED2D97CF6E2FE52F8D2D93CF2D
:10152000832F6E2FF7CF8E2FE32F8DCF0F931F9327
:10153000CF93DF93EC01FC01EE59FD4F80816823CE
:10154000D1F10091DF041091E0044091DE04E42F1A
:10155000F0E0609113017091140185E098E0689FBC
:101560009001699F300D789F300D1124275E394C12
:101570003093140120931301CF018C549F4F68E6E0
:1015800071E00E94972D8E1B9F0B97FD03969595FA
:10159000879595958795230F2370642F289F600D5D
:1015A0001124702F812F0E94120A462F672F282F97
:1015B000CE010E949F08DF91CF911F910F91089556
:1015C000A9E0B0E0E6EEFAE00C94B82D282E6A838C
:1015D0007B83209116012295207F2E83205F298313
:1015E0002C832E3410F03DE43C838091E3048D8302
:1015F000FE81EF2FF0E0F987E887CF01880F991F70
:101600009C0128533E4F6901822D90E0FC013196E8
:10161000FF83EE838C819885981748F081E0E981FB
:10162000ED3408F080E02996E2E10C94D42DE885B1
:10163000F985EE59FD4F8081909117018923F1F0D2
:101640004090DE045090DF042E813F812D513B4FAE
:101650003901322C10E0FD813F16D0F02091E004DA
:10166000129F112D1124B201812F0E94120A462FC0
:10167000672F282F888599850E949F08288539859E
:101680002F5F3F4F3987288732E0C30ED11CC2CF6E
:10169000F30181913F01F601A080A81ABB08818067
:1016A000F3018781881A9908AA9C9001AB9C300DA0
:1016B000300D1124889CC001899C900D900D11243F
:1016C000820F931F0E94AF09082F6091E10421E06F
:1016D000620F08F46FEFF301EE0FFF1FE35EF440BB
:1016E000858996890E94080A7C019401A501B201AE
:1016F000812FEA81FB8109952B01182F3394ABCF01
:10170000B0E0A0E0E6E8FBE00C94C22D8C01C091B3
:101710001601C295C07F20E1D22EDC0ECD2C2DE427
:101720002D1510F49DE4C92E2091E10431E0230F22
:1017300008F42FEF30E050E040E06FEF7FEF80E003
:1017400090E00E94D52E7901D0E02C2FCC1550F0DE
:1017500081E0FCE4FD1508F480E0CDB7DEB7E8E0F9
:101760000C94DE2DFE01EE59FD4F80819091170102
:10177000892311F14091E3044150042E000C550BD4
:1017800047FF1CC0C7016091E10421E0620F08F42B
:101790006FEF0E94080AAC016091DE047091DF04D3
:1017A0008091E004F80109950E94120A462F672FE4
:1017B000282FCE010E949F082196C7CFFA01ED5134
:1017C000FB4F818982130AC0FA01EE0FFF1FED5112
:1017D000FB4F818D928D8E159F05A8F241505109C6
:1017E000CFCFB0E0A0E0E7EFFBE00C94C32D7C018D
:1017F000C0911601C295C07F10E11C0FD12E1E347E
:1018000010F08DE4D82E6091E1046695669521E094
:10181000620F08F46FEF8091D9049091DA040E946E
:10182000080A082FD0E0CD1548F081E01D3408F0FB
:1018300080E0CDB7DEB7E7E00C94DF2DFE01EE5976
:10184000FD4F808190911701892391F06091DE0412
:101850007091DF048091E004202F4C2FF70109954F
:101860000E94120A462F672F282FCE010E949F0840
:101870002196D9CFA5E0B0E0E0E4FCE00C94C12DC6
:101880006C01809116018295807F8B8390E1F92E07
:10189000F80EBF2C9DE49F1510F48DE4B82E6091D6
:1018A000E104669566958091D9049091DA040E94CE
:1018B000080A182F80E4810F0E946D0980588983DF
:1018C000812F0E946D0980588A83FB81EF2FF0E001
:1018D000FD83EC839C819B1548F081E0ECE4EF15DF
:1018E00008F480E02596E9E00C94DD2DEC81FD8183
:1018F000EE59FD4F8081909117018923A9F06091E5
:10190000DE047091DF048091E004E12E0C812A81D5
:101910004981F60109950E94120A462F672F282F48
:101920008C819D810E949F088C819D8101969D8361
:101930008C83D0CFB0E0A0E0E0EAFCE00C94BD2DB9
:101940004C01C0911601C295C07F10E11C0F712E91
:101950001E3410F09DE4792E6091E104669580912B
:10196000D9049091DA040E94080AF82ED0E0C71535
:1019700048F081E01D3408F080E0CDB7DEB7EDE03F
:101980000C94D92DFE01EE59FD4F808190911701E5
:101990008923B9F19E01220F331FF901E853FE4F4D
:1019A0008081482F4057550B6A0127533E4FF9015C
:1019B0008081282F2052330B5901449F9001459F6D
:1019C000300D300D1124AA9CC001AB9C900D900DE0
:1019D0001124820F931F0E94AF09082F6091DE042B
:1019E0007091DF048091E004EF2C9501A601F401D1
:1019F00009950E94120A462F672F282FCE010E94B8
:101A00009F082196B4CFB0E0A0E0E9E0FDE00C949F
:101A1000C22D7C01C0911601C295C07F10E11C0F40
:101A2000C12E1E3410F09DE4C92E6091E10466952C
:101A30008091D9049091DA040E94080AD82ED0E04F
:101A4000CC1548F081E01D3408F080E0CDB7DEB75A
:101A5000E8E00C94DE2DFE01EE59FD4F808190915F
:101A60001701892301F1AE01440F551FFA01E75315
:101A7000FE4F20812052330B48535E4FFA014081C4
:101A80004057550B6091DE047091DF048091E004B3
:101A90000D2DF70109950E94120A462F672F282F56
:101AA000CE010E949F082196CBCF0E942A0520914B
:101AB0007C0330917D03232B21F080937803909356
:101AC000790320917E0330917F03232B21F08093B3
:101AD000760390937703E0919C04F0919D043097F6
:101AE00049F082E080937A030480F581E02D8AE753
:101AF00093E00995089540917C03803F59F48091CB
:101B00007D0387FF0DC010927D0341110BC0109221
:101B1000740308C0813F81F480917D0318169CF303
:101B2000442381F080917E0390917F03892B09F0FB
:101B30005AC0109273030895823F49F447FFF0CFD3
:101B400010927C0380917D038111ECCFE0CF833F25
:101B500019F41416ACF3E4CF90917E03893F29F475
:101B60001916F4F610927E03DBCF8A3F19F497FF23
:101B7000D7CFF8CF90917F038B3F29F497FFD0CF39
:101B800010927F03CDCF8C3F19F41916CCF3C8CF38
:101B90009CE0980F953090F4845F990B21E030E041
:101BA000B90102C0660F771F8A95E2F7CB018095D5
:101BB00090917B03892380937B03B2CF8D3F31F4D7
:101BC000809175038E7F80937503AACF8E3F21F499
:101BD000809175038D7FF7CF8F3F09F0A1CF809162
:101BE00075038B7FF0CF08958091750380FD16C03B
:101BF00081FD16C082FD16C0809173038823A1F079
:101C0000883280F428E0829FC001112468E270E0ED
:101C10000E94972D862F672B39F0089582E0089552
:101C200084E0089588E0089581E008958091750327
:101C300080FD14C081FD14C082FD16C08091740324
:101C4000882381F08E3180F420E5829FC001112429
:101C50006EE170E00E94972D862F089584E108952B
:101C600088E2089588E0089580E50895803F31F482
:101C70000E94160E819580937D030895813F19F48B
:101C80000E94160EF8CF823F31F40E94160E819505
:101C900080937C030895833F19F40E94160EF8CFB9
:101CA000893F29F40E94F40D80937E0308958A3FB2
:101CB00021F40E94F40D8195F7CF8B3F31F40E94FF
:101CC000F40D819580937F0308958C3F19F40E9451
:101CD000F40DF8CF9CE0980F953070F4845F990B69
:101CE00021E030E001C0220F8A95EAF780917B0362
:101CF000822B80937B0308958D3F31F4809175038F
:101D000081608093750308958E3F21F4809175035F
:101D10008260F7CF8F3FB9F7809175038460F1CF70
:101D200080E00895F894E82FE295EF70F0E041A18B
:101D30008F7021E030E0B90102C0660F771F8A95ED
:101D4000E2F7CB01962F9095942391A392A1892B32
:101D500082A3789408959091A50492FF06C0282F3D
:101D600028712830F9F4877F846093FF06C0282FFC
:101D700028712831F1F4877E84612091A60420FF28
:101D800006C0382F38713830D9F4877F816021FF41
:101D900006C0282F28712831D1F4877E816194FDF7
:101DA000877E0895282F24712430F9F68B7F886070
:101DB000DCCF282F2471243101F78B7E8861DDCFA1
:101DC000382F3171313019F78E7F8860E0CF282F9E
:101DD0002171213121F78E7E8861E1CFCF93DF938E
:101DE000EC01803E910509F467C058F581339105F7
:101DF00009F4AFC090F48932910509F49FC08A9725
:101E000009F4AEC0C130D10509F469C0CE01049710
:101E1000813A910508F05CC062C08933910509F4EC
:101E20003FC082389105E1F1C59709F482C0C83AF4
:101E3000D10508F09CC0C53AD10520F3A497D06421
:101E40004EC0843E910509F459C070F4823E91055C
:101E500009F441C0833E910509F445C0CE01805E7E
:101E600091090897A8F53BC0863E910509F451C039
:101E7000873E910509F452C0811522E5920708F0CA
:101E8000A8C0811531E5930708F0F9C08F3F91058F
:101E900011F008F07BC0803F910548F2D0651FC06B
:101EA0008091A504837009F01AC18091A60483FF74
:101EB00016C0C9E2D0E013C08091A50480FD46C0E1
:101EC0009091A60490FF0BC0C3EED0E084FF07C042
:101ED000D0E0C0E004C08091A50482FDF5CFCE0122
:101EE000DF91CF9108958091A50482FDF5C0909176
:101EF000A60490FDF4C084FFF2CFEACF8091A6043F
:101F000081FFEDCF8091A504C7EED0E084FDE0CF46
:101F1000E6CF8091A50483FDF7CFE1CF8091A504A2
:101F200083FDE0C09091A60491FFE5CFC4EED0E020
:101F3000D6CF8091A50485FFD2CFBBCF8091A504D9
:101F400085FDD3C08091A60483FFC9CFC9E3D0E04B
:101F5000C6CF8091A50486FFC2CFCAE2D0E0BFCF32
:101F60008091A50486FFBBCFC1E3D0E0B8CFCF3BC3
:101F7000D10508F073CFC85AD0E0CC0FDD1FC05E8A
:101F8000DE4F0990D881C02DD464A9CF811540E5DA
:101F9000940760F4C11580E4D80708F06DC0CE0145
:101FA0009A9581159F4108F49ACF92CF8370992713
:101FB00021E030E002C0220F331F8A95E2F7C69578
:101FC000C69540E2C49FE0011124C22BD32BDD68EB
:101FD00086CFC11586E5D80738F5C11525E5D207A6
:101FE00008F061C0C11534E5D307C8F49E01237021
:101FF00033279C2F96959695C115D34508F044C07C
:10200000C1E0D0E002C0CC0FDD1F2A95E2F720E24C
:10201000929FC0011124C82BD92BDC6860CFDC2F24
:10202000CC27C46FD06A5BCFC1153AE5D30788F4DB
:10203000C11549E5D40708F041C0CE0198558F3F3E
:10204000910511F008F044CFDC2FCC27C06FD06A87
:1020500046CFCE0190568115904208F039CF8D2F92
:102060008F710E94AB0E90E0982F882788279F7170
:102070009C012C2BE90120C0DF70D06A30CFD82F13
:10208000CC27C16FD06A2BCFC1E0D0E002C0CC0F0B
:10209000DD1F2A95E2F730E2939FC0011124C82B7F
:1020A000D92BDA681CCF8C2F0E94AB0EC82FD0E042
:1020B000DC2FCC27CC27DF71D06211CF8C2F8F7013
:1020C0000E94AB0E34E0D695C7953A95E1F7CF70F4
:1020D000DC2FC82FD06903CFC2EED0E000CFC0EE16
:1020E000D0E0FDCEC6EED0E0FACEC5E3D0E0F7CE2C
:1020F00080914C03811110924C030895982F909574
:1021000080914B03892380934B030895809128038A
:102110009091F702981301C008958F5F8770FACFEE
:10212000292F953078F58F3068F590E03FE0239FB8
:10213000800D911D1124682F677023E09695879577
:102140002A95E1F7FC01EE0FFF1FE80FF91FED5292
:10215000FD4F50E040E080E0219130E0062E02C0CB
:10216000369527950A94E2F721703327042E01C093
:10217000220F0A94EAF7822B4F5F5F4F43305105DD
:1021800059F7089580E00895292F953090F58F3004
:1021900080F590E03FE0239F800D911D1124282FB2
:1021A000277041E001C0440F2A95EAF723E0969595
:1021B00087952A95E1F7FC01EE0FFF1FE80FF91F45
:1021C000ED52FD4F90E080E070E05191DF011197FA
:1021D0009B01082E02C0369527950A94E2F72170DC
:1021E00021952527242325272C93019683309105BB
:1021F00061F708958093A7047093A9046093A804DD
:102200008091CF048430F9F48093E9008FEF9091AE
:10221000E800815095FD06C095ED9A95F1F7000014
:102220008111F5CF8091E80085FF0DC050E040E0BE
:1022300063E070E087EA94E00E94CA038091E800BE
:102240008E778093E8000895BC0184E00E94FA1024
:102250000895BC0183E00E94FA10089524E02093C1
:10226000E9002FEF3091E800215035FD06C035ED33
:102270003A95F1F700002111F5CF2091E80025FFF4
:102280000BC050E040E066E070E00E94CA0380911D
:10229000E8008E778093E8000895CF93DF93D82FDE
:1022A000C92F809115018823C1F18091A50487FF72
:1022B00034C060E284E08093E9008FEF9091E80001
:1022C000815095FD06C095ED9A95F1F700008111BA
:1022D000F5CF8091E80085FF1DC08091150170E069
:1022E00050E040E0811104C050E040E068E070E060
:1022F0008D2F9C2F0E94CA038091E8008E778093D7
:10230000E80080E2ED2FFC2FADEAB4E001900D92E1
:102310008A95E1F7DF91CF91089568E081E0CBCF16
:1023200081E08093E00080E28093D8001092C900A1
:102330008FE19EE40197F1F700C0000087E090EB89
:10234000DC018093100590931105A0931205B093C2
:10235000130588E19CE00FB6F894A895809360007F
:102360000FBE90936000FFCF809A31B33E7F21B3C0
:1023700021604FB7F89483EB93E0FC010196508104
:1023800068E021BB000000C057FF31BB550F0000C3
:1023900000C000C000C031BB00C06A9591F754E096
:1023A0008A39950751F74FBF8FE594E00197F1F710
:1023B00000C000000895CF93DF93CFE7D2E060E044
:1023C000CE010E94B12E2196C11584E0D807B9F73D
:1023D000DF91CF9108951F93CF93DF93962F122F04
:1023E000632F8430D8F49530C8F44F30B8F4C42F3C
:1023F000D0E0CC0FDD1F2EE1929FC00DD11D112426
:1024000096E9899FC00DD11D1124CE0187960E94A7
:10241000B12E612FCE0188960E94B12EDF91CF910F
:102420001F910895AF92BF92CF92DF92FF920F93C8
:102430001F93CF93DF93B12CA12C00E0650110E036
:1024400013C0FE01259134914F2D612F802F0E94E2
:10245000EB112296F3948FE0F812F3CF8FE0C80EC1
:10246000D11C1F5F153039F0E601CC0FDD1FC556BA
:10247000DC4FF12CE6CF0F5F8BE4A80EB11C0430CB
:10248000E9F6DF91CF911F910F91FF90DF90CF90F0
:10249000BF90AF900895CF93C82F6FEF811162E284
:1024A00083E290E00E94B12E6FEFC11169E084E2F7
:1024B00090E00E94B12E6FEFC11163E085E290E0E1
:1024C0000E94B12ECF91089580E00E944B1260E0EF
:1024D00086E290E00E94B12E0E9412120E94DB114F
:1024E00081E00E944B1208950F931F93CF93DF93C7
:1024F000843030F5653020F54F3010F5C42FD0E032
:10250000CC0FDD1F2EE1629FC00DD11D112436E9D5
:10251000839FC00DD11D1124CE0187960E948D2E60
:10252000082F10E0102F0027CE0188960E948D2ED4
:102530009801282BC901DF91CF911F910F91089528
:1025400090E080E0F8CF462F672F843038F4753064
:1025500028F44F3018F40E947412089580E090E03F
:102560000895B0E0A0E0E7EBF2E10C94C32D7C010C
:1025700000910F0580914D03082BC7E0D0E010E0DB
:10258000DC2EC8010C2E02C0959587950A94E2F7BF
:1025900080FD09C02197A0F7D12C8D2DCDB7DEB7D6
:1025A000E7E00C94DF2DB7018C2F0E94A3120E944C
:1025B000EE0E019779F3F1CFCF93DF93D82FC92F88
:1025C0000E94B1126D2F7C2F0E94A3120E94EE0E6A
:1025D000DF91CF910895FC0183819481892B29F0AB
:1025E0008081918189238F3F69F480E00895243FA1
:1025F000E1F71CC081E0283E20F0213FB1F716C072
:1026000008950895808191810E94DC12282F92956F
:102610009F70963079F358F4925F9F70923028F74C
:1026200081E0203F69F318F7283EF8F608959A5F95
:10263000F4CF83E290E00E948D2E823289F484E20E
:1026400090E00E948D2E893059F485E290E00E943E
:102650008D2E91E0833009F090E0892F81700895EC
:1026600080E0FCCFCF9384E090E00E948D2EC82FB5
:1026700082E290E00E948D2E982F8C2FCF910895AA
:102680001F93CF93DF93EC01FC01EE59FD4F808146
:102690006823B1F00E94572E182F0E94572E782FD2
:1026A0007F7720E8720F08F47FEF612F8091E004BC
:1026B0000E94120A462F672F282FCE010E949F08E2
:1026C000DF91CF911F910895B0E0A0E0EAE6F3E139
:1026D0000C94BF2D182F80911101811323C090916C
:1026E000DD0493702091100130E081E09217130611
:1026F00009F480E08170809318018091E204909148
:102700001701981739F08093170140E060E080E0EE
:102710000E949C08183260F4E12FF0E0E65CF04D76
:102720000C94AB2D81E0E6CF80911801811102C09D
:10273000C0E0DBC140E060E080E00E949C08F8CF90
:10274000C0911601C295C07F00E10C0FC02E0E345F
:1027500010F0ADE4CA2E6091DE047091DF04809128
:10276000E0040E94120AF62EE72ED82ED0E0CC15F7
:1027700028F0C1E00D3408F4B8C1DACFFE01EE59FB
:10278000FD4F808190911701892331F02D2D4F2D20
:102790006E2DCE010E949F082196E9CFC0911601AF
:1027A000C295C07F00E10C0F902E0E3410F0FDE4B6
:1027B0009F2EB090DF04C090E004D091DE046D2F16
:1027C0007B2D8C2D0E94120AF62EE72ED82E6091BA
:1027D000E1046D0F7B2D8C2D0E94120AC62EB72EA0
:1027E000A82ED0E0C91528F6FE01EE59FD4F9081C4
:1027F00080911701892359F02A2D4C2D6B2D90FDC6
:1028000003C02D2D4F2D6E2DCE010E949F082196C5
:10281000E9CFC0911601C295C07F00E10C0FE02EF8
:102820000E3410F0EDE4EE2ED090DF04C090E00402
:102830002091E10470E4F72E3F2D329F312D1124B9
:10284000F32ED0E0CE1508F094CFFE01EE59FD4FE7
:102850008081909117018923B9F0FE01EE0FFF1FCF
:10286000E753FE4F808182958F706091DE048F9DCB
:10287000600D11247D2D8C2D0E94120A462F672F8A
:10288000282FCE010E949F082196DCCFC09116010F
:10289000C295C07F00E10C0FE02E0E3410F05DE415
:1028A000E52ED090DF04C090E0042091E10440E4E4
:1028B000F42E3F2D329F312D1124F32ED0E0CE1572
:1028C00008F057CFFE01EE59FD4F8081909117011E
:1028D0008923D9F0FE01EE0FFF1FE853FE4F608100
:1028E000F69EB001112435E0759567953A95E1F7AC
:1028F0008091DE04680F7D2D8C2D0E94120A462FD8
:10290000672F282FCE010E949F082196D8CFC09113
:102910001601C295C07F00E10C0FC02E0E3410F0DE
:102920009DE4C92EF090DE04D091DF04E090E00435
:102930006091E1046695669566958091D9049091C1
:10294000DA040E94080A0E946D0990E8980F97FD2A
:102950009195990F292F3E2D239F212D11246F2D05
:102960007D2F822F0E94120AF62EE72ED82ED0E05D
:10297000CC1508F0FECEFE01EE59FD4F80819091FE
:102980001701892331F02D2D4F2D6E2DCE010E9480
:102990009F082196EDCF83E798E00E94F10B07C0D6
:1029A0008CE498E0FACF8FE499E00E94030DC82FE1
:1029B0009CC080E399E0F9CF85E199E00E949A0CF0
:1029C000F6CF8AEF98E0FACF8AE498E0E6CF81E488
:1029D00098E0E3CF88E398E0E0CF8FE198E0DDCFA7
:1029E00081E198E0EBCF8FED99E0DFCF89EE98E0C1
:1029F000DCCF85ED98E0E2CF84EE97E00E943A0CC0
:102A0000D6CF86EB97E0FACF8EE797E0F7CFC0916D
:102A10001601C295C07F00E10C0F80911801811151
:102A200031C06091E10420E1620F08F46FEF809102
:102A3000D9049091DA040E94080A6AE070E00E94CA
:102A4000832D892B09F095CE4091130150911401EB
:102A500025E038E0429FC001439F900D529F900DAA
:102A60001124875E994C9093140180931301890F70
:102A70006DE40E94772D60911701892F90E00E94EC
:102A8000960A77CE802F0E3408F08DE4D0E0E82E41
:102A9000F12CCE15DF050CF06CCE60911701CE0144
:102AA0000E94960A2196F5CFC0911801C11135C038
:102AB0006091E10420E1620F08F46FEF8091D90486
:102AC0009091DA040E94080A65E070E00E94832D6C
:102AD000892B09F02DCE0E94572E6DE470E00E94E4
:102AE000972D609117010E944013809116018F5F0E
:102AF00080931601C1110CC082E080931201809175
:102B00001801811105C0111103C083E080931201E7
:102B1000CDB7DEB7EBE00C94DB2DC0911601C2956A
:102B2000C07F00E10C0F802F0E3408F08DE4D0E060
:102B3000E82EF12CCE15DF050CF01BCE60911701AD
:102B4000CE010E9440132196F5CFC0911601C29587
:102B5000C07FD0E1DC0FDD2EDE3410F08DE4D82E06
:102B6000E090DF04F090E0040091DE046091E10465
:102B70006695669566958091D9049091DA040E94D5
:102B8000080A0E946D0990E8980F97FD9195990F9A
:102B9000692F2CE0629F612D1124600F7E2D8F2DF7
:102BA0000E94120AF62EE72E082FAC2EB12CAD147F
:102BB00028F0C1E0DD3408F498CFBACDF501EE5924
:102BC000FD4F808190911701892331F0202F4F2DE7
:102BD0006E2DC5010E949F083FEFA31AB30AE7CFED
:102BE0008CE899E0DACE8DE697E0D7CE86E697E0DE
:102BF0000E94800BDCCE80E697E0FACF2091E304C0
:102C000031E0231B08F420E066E477E0822F0E9485
:102C1000E00ACDCE66E477E080E0F9CF2091E304CE
:102C200031E0231B08F420E06DE077E0EFCF6DE0AA
:102C300077E0F2CF2091E30431E0231B08F420E099
:102C40006BED76E0E3CF6BED76E0E6CF2091E30429
:102C500031E0231B08F420E063EC76E0D7CF63EC8F
:102C600076E0DACF2091E30431E0231B08F420E082
:102C70006CEA76E0CBCF6CEA76E0CECF46E050E06F
:102C80006CE170E08DED94E00E94A12E1092B203F1
:102C900008954F925F926F927F928F929F92AF9220
:102CA000BF92CF92DF92EF92FF92CF93C090A90391
:102CB000D090AA03E090AB03F090AC038FB7F894E8
:102CC0004090A1045090A2046090A3047090A404CA
:102CD0008FBF530142018C189D08AE08BF080E94A7
:102CE0000D056093A9037093AA038093AB0390939F
:102CF000AC03A0918003E0E8F3E04A2F50E02FEF0F
:102D0000C20ED21EE11CF11CC418D508E608F70853
:102D1000A5132EC0409380032091B103C0E0211180
:102D200008C02091DD04C22FC37019F0C22FC695D0
:102D3000C69520911201223009F464C060F521117A
:102D40003BC0109216016093D9047093DA0480930B
:102D5000DB049093DC0489E2E0E8F3E0A3EEB4E066
:102D600001900D928A95E1F781E08093120116C0DF
:102D7000218D328D2901712C612CC414D504E604F7
:102D8000F70420F441505F5F3296C2CF280D391D01
:102D9000328F218FF8CF233009F43FC0CF91FF90BD
:102DA000EF90DF90CF90BF90AF909F908F907F90EB
:102DB0006F905F904F9008958C2F0E946413CC23E6
:102DC00069F30E94C40581FF15C06091E00468307A
:102DD00068F06C3A68F48091AD0380FF685F262F3D
:102DE000462F84E290E00E949F08D8CF68E0F7CF9A
:102DF00064EBF5CF8091AD0380FFD0CF20E040E0C1
:102E000060E0EFCFC09311018091DD048370809367
:102E100010010E94B41183E0A8CF8091B203811108
:102E20000E943E164091D9045091DA046091DB046F
:102E30007091DC042FB7F8948091A1049091A204C2
:102E4000A091A304B091A4042FBF841B950BA60BE3
:102E5000B70B4097A105B10508F4A0CF109212015D
:102E60009DCFEDEDF4E085E3808380911901909191
:102E70001A01A0911B0181839283A3838FE784832E
:102E80008FEF85830E943E16089580914B039091A9
:102E90004A03892B8093B20290914C039923A1F0AD
:102EA000892B8093B202809115018823E1F18091F2
:102EB000A50487FF38C08EE1E4EBF2E090E081509A
:102EC000A0F591110E94781040E250E06AE273E0B0
:102ED00082EB92E00E94672E892B21F180E2E2EBE7
:102EE000F2E0AAE2B3E001900D928A95E1F7E09159
:102EF0009C04F0919D043097A9F0809115018823DE
:102F000059F08091A50487FF07C08091B202809399
:102F1000B30286E08093B2020280F381E02D82EB5F
:102F200092E00995089586E0C7CF2191222339F2D6
:102F30009F5FC5CF90E080E00E94AE0590E080E00A
:102F40000E94980510924A030E94451786E0EAE71E
:102F5000F3E0DF011D928A95E9F710927403109255
:102F60007303109275030E94550D089580930F0509
:102F70000E949A17089580910F05982F96709630A9
:102F800021F488600E94B6170895877FFBCF21E067
:102F900030E001C0220F8A95EAF7209580910F0555
:102FA00082230E94B6170895909129038095892362
:102FB00080932903282F277091F4282F082E000CC6
:102FC000330B9217130659F09091A60492FF07C095
:102FD0008595859585950E94C717109229030895B8
:102FE000CF93C091A604C2FB992790F9981791F04E
:102FF00080FBC2F9C093A6046091A50484E090E030
:103000000E94B12E6C2F82E290E00E94B12E82E0ED
:103010000E94D417CF91089521E030E001C0220F23
:103020008A95EAF780910F05822B0E94B6170895C2
:1030300080934D030E949A170895882321F00E94DF
:103040007E100E9445170895882339F090914B0314
:10305000892B80934B030E9445170895882391F193
:103060009CEF980F913A40F4682F82EB92E00E9417
:1030700036050E944517089590E2980F983050F455
:10308000877091E001C0990F8A95EAF7892F0E9415
:103090007E10EFCF9BE5980F933028F490E080E00E
:1030A0000E94AE05089598E5980F973128F490E0B6
:1030B00080E00E9498050895803F20F00E947B0DDB
:1030C0000E94550D0895CF93C82F8823D1F18CEF1E
:1030D0008C0F813AC0F580911501882311F1809100
:1030E000A50487FF1EC0EC2FE695E695E695F0E077
:1030F000EE54FD4F828190E04C2F477021E030E08C
:1031000002C0220F331F4A95E2F782239323892BB3
:1031100089F06C2F82EB92E00E9436050E944517E1
:1031200009C0E4EBF2E08191C81799F322E0EA3B91
:10313000F207C9F76C2F82EB92E00E9462050E94B1
:103140004517CF91089580E28C0F883068F4C770DE
:1031500021E030E001C0220FCA95EAF780914B03CD
:10316000822B80934B03EBCF8BE58C0F833038F4AD
:103170002C2F2452330BC9010E94AE05E2CFE8E5A3
:10318000EC0FE73150F4F0E0EE0FFF1FE05EFE4F72
:10319000808191810E949805D4CFC03F90F28C2FFE
:1031A0000E94360E0E94550DCCCF0F931F93CF93E4
:1031B000C82F10E000E0893311F400E510E08C2FF7
:1031C0000E9463180115110539F48C2F0E942E18E6
:1031D000CF911F910F9108958FE99FE00197F1F72B
:1031E00000C0000001501109EDCFFF920F931F9313
:1031F000CF93DF93C62FD42F122FFC018281882317
:10320000A9F060930E050E942A0590930D05809306
:103210000C05C77081E001C0880FCA95EAF70E94CB
:103220002418CDB7DEB7E5E00C94E12D80910E05B2
:10323000681330C080910C0590910D050E94FE042A
:10324000883C910538F500E20D0FCD17A9F0C77045
:10325000FF24F3948F2D01C0880FCA95EAF70E94CE
:103260001D18083048F48D2F877001C0FF0C8A9517
:10327000EAF78F2D0E942418812F0E94D51808305C
:1032800080F6D77081E001C0880FDA95EAF70E94D6
:103290001D18C7CFC77081E001C0880FCA95EAF733
:1032A000F6CFB0E0A0E0E7E5F9E10C94C32DE82FFC
:1032B000F0E0E55EFC4FD490282F269526952695C4
:1032C00030E0F901E55FFC4F0491877010E0082EB3
:1032D00002C0159507950A94E2F701701127F901CC
:1032E000E550FD4FE490F12C082E02C0F594E794D0
:1032F0000A94E2F791E0E922FF24F901E551FD4F3C
:10330000C491D0E002C0D595C7958A95E2F7C17007
:10331000DD270115110519F081EE0E946318E114F3
:10332000F10419F086EE0E9463188D2D0E94D518C5
:10333000E114F10419F086EE0E942E180115110512
:1033400019F081EE0E942E18CD2B19F08CE20E940C
:10335000D518CDB7DEB7E7E00C94DF2DAAE0B0E0DA
:10336000E4EBF9E10C94BC2D8E010F5F1F4F8AE056
:10337000F80111928A95E9F79EE4E92E91E0F92E81
:10338000680123E5622E21E0722E88248394912C1B
:10339000F70181917F018F3F09F446C0F894E82F2F
:1033A000E295EF70F0E021A18F70A40102C0440FFC
:1033B000551F8A95E2F7CA01922F982B91A392A1EB
:1033C0008095892382A3789400C0E3E5F1E021E0B1
:1033D00030E0B12CA12C41914F3F09F465C0A42FDE
:1033E000A295AF70B0E090968C9190E04F7002C0C3
:1033F000959587954A95E2F780FD56C0C901A82AA0
:10340000B92A220F331F51E0E236F50721F7F70101
:10341000319780818F3F11F00E94920E80EA8A9549
:10342000F1F7F601B182A082F2E0CF0ED11C6E144A
:103430007F0409F0ADCF4AE050E0B80181E593E0A8
:103440000E94672E892B99F18AE0F801A1E5B3E08B
:1034500001900D928A95E1F781E0809350030E94DC
:103460002A0590934F0380934E0380914E039091D1
:103470004F030E94FE040597F0F04AE050E061E53A
:1034800073E089E693E00E94672E892BC9F08AE0F9
:10349000E1E5F3E0A9E6B3E001900D928A95E1F74A
:1034A00081E01092500308C090E080E0A8CF8091A6
:1034B00050038111DACF80E02A96EEE00C94D82DEB
:1034C00080E0EFCF10924B0380911501E4EBF2E026
:1034D000882361F08091A50487FF08C08EE1DF0199
:1034E0001D928A95E9F70E949A17089586E0F7CF12
:1034F000AAE2B0E0EEE7FAE10C94C72D81ED94E08A
:10350000FC0101962091F100208324E0893D92077F
:10351000B9F78091D204893009F456C0C8F48230DA
:1035200009F4B3C0833009F482C0813071F1809115
:10353000E80083FF85C28091D1049091D2049A3033
:1035400008F07EC2E92FF0E0EE59F04D0C94AB2D5F
:103550008A3009F489C08B3051F78091D1048132CF
:1035600031F78091D5049091D604892B01F7809191
:10357000E800877F8093E8000E94F4038091D304E1
:10358000809315010E94621AD2CF8091D104813AB2
:1035900071F68091E800877F8093E8008091D504E0
:1035A0009091D604892B61F460E28DEA94E070E09A
:1035B0000E94A0048091E8008B778093E800B7CF49
:1035C00060E090E080E0F3CF8091D104813209F097
:1035D000AECF8091D5049091D6048D7F892B09F0D0
:1035E000A6CF8091E800877F8093E8008091E80073
:1035F00082FF18C09091F3008091F200029731F49D
:103600008091F100813011F0863021F48091F10039
:103610008093AC048091E8008B778093E8000E944F
:10362000F40385CF8091CF048111E0CF80CF8091CA
:10363000D104813A09F07BCF8091D5049091D604D2
:10364000892B09F074CF8091E800877F8093E80090
:103650008091E80080FFFCCF809115018093F100FC
:103660008091E8008E77D9CF8091D104813209F022
:103670005ECF8091E800877F8093E8000E94F4038A
:103680008091D4048093AB0452CF8091D104813ACD
:1036900009F04DCF8091E800877F8093E80080910A
:1036A000E80080FFFCCF8091AB04D8CF803899F040
:1036B000823809F0C5C18091D5048F70873008F039
:1036C000BFC18093E9008091EB0085FB882780F9DA
:1036D0001092E90006C08091CD049091CE04911122
:1036E00082609091E800977F9093E8008093F100CA
:1036F0001092F1008091E8008E779EC1882309F432
:103700008CC1823009F09CC18091D30481118FC19A
:103710008091D5048F702FEF280F263008F090C1CC
:103720008093E9002091EB0020FF81C1933031F4B8
:103730008091EB0080628093EB0079C19091EB0067
:1037400090619093EB0021E030E001C0220F8A9558
:10375000EAF72093EA001092EA008091EB0088607B
:10376000EACF81116DC11091D3041F778091E300DE
:103770008078812B8093E3008091E800877F80939D
:10378000E8000E94F4038091E80080FFFCCF809164
:10379000E30080688093E30082E0111183E080936E
:1037A000CF044EC18058823008F04AC14091D30402
:1037B0005091D4044C3D83E05807A1F583E08A83FF
:1037C0008AE289834FB7F894DE01139620E03EE049
:1037D00051E2E32FF0E050935700E49120FF03C043
:1037E000E295EF703F5FEF708E2F90E0EA30C0F00F
:1037F000C7968D939D932F5F243159F74FBF8091CA
:10380000E800877F8093E8006AE270E0CE010196CD
:103810000E94A0048091E8008B778093E80010C19B
:10382000C096E7CF8091D5049091D604252F3327F9
:103830002330310509F44AC078F52130310509F407
:1038400079C08BE590E0E3EFF5E02230310509F037
:10385000F7C02091E800277F2093E8002091D7044B
:103860003091D8048217930708F49C0140E0211599
:10387000310509F064C0411162C08091E80082FD09
:10388000C9CF8091CF04882329F2853019F2809125
:10389000E80083FFF2CFBECF2132310509F43BC0EF
:1038A0002232310509F0CCC08330910508F0C8C040
:1038B000FC01EE0FFF1FEF58FE4F0190F081E02D4D
:1038C00082599E4FDC018C9190E011C0CA0199276A
:1038D000413089F082309105B1F0892B09F0B0C0F8
:1038E000ECE7F6E0E4918E2F90E0ECE7F6E000974D
:1038F00009F4A6C0AECFECE6F6E0E4918E2F90E09E
:10390000ECE6F6E0F4CFE0E6F6E0E4918E2F90E00E
:10391000E0E6F6E0ECCF8330910508F091C0880F27
:10392000991FFC01E958FE4F0190F081E02D89E0DC
:1039300090E08FCF82E190E0EEE4F6E08ACF8091D4
:10394000CF04882309F466CF853009F463CF8091D2
:10395000E80083FD5FCF8091E80082FD8ECF8091EB
:10396000E80080FF84CF9091F3008091F200211550
:10397000310519F08830910550F041E0089709F0C1
:1039800040E08091E8008E778093E80070CF44910A
:103990004093F1003196215031090196E8CF8038EB
:1039A00009F04EC08091E800877F8093E800809105
:1039B000D0048093F1009ECE811142C01091D304B7
:1039C0001230F0F58091E800877F8093E800109333
:1039D000D0040E94F403112311F084E005C080910B
:1039E000E30087FDFACF81E08093CF0442E061ECF1
:1039F00081E00E94130442E261EC84E00E9413041F
:103A000042E261EC82E00E94130442E260EC83E057
:103A10000E9413048091CF0413C08091D30481309D
:103A200079F481E0933009F080E08093CE04109225
:103A3000E9008091E800877F8093E8000E94F4030A
:103A40008091E80083FF0AC08091E800877F80931F
:103A5000E8008091EB0080628093EB00AA96E3E09F
:103A60000C94E32D0E94621A2FEF84E39CE0215016
:103A700080409040E1F700C0000088E19CE00FB674
:103A8000F894A895809360000FBE90936000FFCFDC
:103A900090E080E00E949B2E883E9E4F19F40E9489
:103AA0001913089580E008952091AD038091B20329
:103AB0008160922F9370933061F09FEF20FD92EF21
:103AC00021FD1DC09093E2048093B2030E949F06E3
:103AD00009C01092E2048093B20340E060E080E00D
:103AE0000E949C084091AD035091AE036091AF03DA
:103AF0007091B0038FE090E00E94C32E08959DEF77
:103B0000E1CF68EE7EEF90E080E00E94CF2E60E093
:103B100082E090E00E94B12E60E083E090E00E949D
:103B2000B12E10924D0360E084E090E00E94B12E2F
:103B300064E082E290E00E94B12E60E085E090E0D7
:103B40000E94B12E60E086E090E00E94B12E6FEFFF
:103B500087E090E00E94B12E40E050E0BA0188E09A
:103B600090E00E94C32E60E08DE090E00E94B12EB4
:103B700040E050E0BA0188E190E00E94C32E60E08E
:103B800087E190E00E94B12E40E050E0BA018CE164
:103B900090E00E94C32E70E060E080E290E00E941E
:103BA000CF2E40E050E0BA0188E190E00E94C32EA1
:103BB00080E00E944B120E94641240E050E0BA0183
:103BC0008FE090E00E94C32E1092AD031092AE03DE
:103BD0001092AF031092B0030E94541D08958FE01D
:103BE00090E00E94952E6093AD037093AE03809396
:103BF000AF039093B0030E94541D0895A5E0B0E078
:103C0000E4E0FEE10C94BD2D7C01FC0183819481F4
:103C1000892B31F08081918189238F3F09F034C64F
:103C20002596EDE00C94D92D0E94B112182F682F23
:103C300089819A810E94C41069817A81812F0E94B2
:103C4000A3128C01F7018281882309F40BC6980125
:103C500022513F452031310508F0F2C58FEF93E046
:103C60000E948D2E811130C05EEED52ED00E0FE752
:103C700012E0D1103BC080911C0190911D01A091D8
:103C80001E01B0911F0189839A83AB83BC83BB243F
:103C9000B3944AE0A42E68012FEFC21AD20AC801D9
:103CA0000E948D2E89831A82882371F09FEF980FCE
:103CB000933048F58A83B9820E5F1F4FC6010E9478
:103CC0008D2E8B83811120C080912903877009F488
:103CD000A7CFF7018281882309F4A2CF8091A6049F
:103CE00082FF9ECF82E00E94D4179ACF0115F4E0A4
:103CF0001F0751F3C8010E948D2E811101C0DA9473
:103D00000F5F1F4FB6CF8601CE0101966C01F60101
:103D10008081882309F4BFCF813009F047C09181A9
:103D20008281913049F4F2E0CF0ED11C0E94D51867
:103D3000EFEFCE1ADE0AEBCF923031F422E0C20E62
:103D4000D11C0E946318F4CF933031F432E0C30EDB
:103D5000D11C0E942E18ECCF943021F08FEFC81A9E
:103D6000D80AE6CF92E0C90ED11C30E020E0B601BF
:103D70006F5F7F4FF60141818053990B8A30910527
:103D800050F021503109A0F28FE99FE00197F1F73F
:103D900000C00000F6CFA29EF001A39EF00D1124FA
:103DA0009C012E0F3F1F842F6B01E1CF0E94511900
:103DB000BFCF81E00E940C180E94BB1785CF81E025
:103DC0000E94C717F9CF82E0F5CF82E0F9CF023821
:103DD000FFE51F0708F044C00E3D2CE5120709F46B
:103DE000C7C008F501159CE5190709F47FC0023C1E
:103DF000ECE51E0709F484C0083D8CE5180709F4BA
:103E000029C128E241E0093D9CE5190709F424C1D4
:103E100026E241EE61EE073DECE51E0781F5C701A4
:103E20000E94F51851CF0038FFE51F0709F40AC1B9
:103E3000033F2CE5120709F411C1F0F2053FFCE540
:103E40001F0709F40FC1063F2CE5120709F40EC144
:103E500027E245EE64EE043F3CE5130701F30FC093
:103E600003382FE5120709F479C009383FE5130735
:103E700009F483C002389FE5190709F465C0F7010A
:103E80008281882309F411C510920E050136FDE5E3
:103E90001F0761F008F00AC106313CE5130708F07E
:103EA000E9C002308CE5180708F40BC10E943213F8
:103EB0009093A6048093A5040631ECE51E0708F054
:103EC00030C10230FCE51F0708F01EC16091A50457
:103ED0001091A60484E090E00E94B12E612F82E24E
:103EE00090E00E94B12E0E94621AEECE882339F231
:103EF00040E060E084EB0E949C080E94B411BFCFB8
:103F0000882309F4E1CE8091AD03982F917080FD54
:103F10000AC081FD08C08091AD0381608093AD032C
:103F20000E94541DD1CE8091AD0380FF05C081FD5C
:103F300003C08C7F8260F2CF911102C081FDEBCF74
:103F40008091AD038C7FEACF882309F4BDCE909198
:103F5000AD03892F8E7F90FF8160E0CF882309F425
:103F6000B3CE9091AD03892F8D7F91FF8260D6CF24
:103F7000811185CF0E94EF1D82CF90914B0391114B
:103F8000A3CE8111A1CE04EC11E03AE0B32EF801EA
:103F90008491882309F498CE813009F04FC06801DC
:103FA000FFEFCF1ADF0AF6018491813061F46801D6
:103FB000F2E0CF0ED11CF60184910E94D518860143
:103FC0000F5F1F4FE4CF823049F46801F2E0CF0E5B
:103FD000D11CF60184910E946318F1CF833049F41B
:103FE0006801F2E0CF0ED11CF60184910E942E18D8
:103FF000E6CF843021F76801F2E0CF0ED11CF60144
:10400000249190E080E0F60131962053330B2A3062
:10401000310548F0019798F2EFE9FFE03197F1F7A9
:1040200000C00000F7CFB89EA001B99E500D11242A
:10403000C901840F951F24916F01E5CF0E9451198A
:104040006801BDCF882309F41CC48FE992E00E9467
:1040500098053ACE27E245EE65EEE1CE26E241EE46
:1040600060EEDDCE26E241EE62EED9CE27E245EEED
:1040700066EED5CEC8018A5F9C45099708F416CF35
:104080000631FCE51F07E9F480914B038A7A91E041
:1040900009F490E09093D20269E2811165E382EB2A
:1040A00092E00E9462050E9445170ECE053A9DE5FA
:1040B000190709F4FBCEC8018D5A9D45039708F4F2
:1040C000F5CE0B352DE5120709F4C8C108F0AFC1D4
:1040D0000E3D8CE5180709F4B4C181E00A359DE571
:1040E000190709F4B8C101151C4509F009C10E945E
:1040F000621A3FEF84E39CE0315080409040E1F74A
:1041000000C000000E949011F801E350FC4580912E
:10411000A5048160E331F10568F5E459F04D0C9494
:10412000AB2D03302DE5120780F40A3F3CE5130761
:1041300008F4CCCEF801EB5FFC45E830F10508F05F
:104140003FC0E158F04D0C94AB2D0D3A8DE51807AA
:1041500029F198F40136EDE51E0709F4B0C09091FD
:10416000A504892F8E7F90FF8160053AFDE51F072A
:1041700009F0ACCE8093A504A9CE0E3A2DE5120726
:1041800009F444C00F3A3DE5130709F09FCE909122
:10419000A604892F877F93FF886003C08091A604BF
:1041A00088608093A60492CE8091A5048260E2CFBD
:1041B0008091A5048460DECF8091A5048860DACF69
:1041C0008091A6048160EDCF8091A6048260E9CF42
:1041D0008091A5048061CECF8091A5048062CACF72
:1041E0008091A5048064C6CF0E94621A8091A504C4
:1041F0008068C0CF8091A5048C60BCCF8091A6045C
:104200008360CFCF8091A5048E7FB4CF8091A60428
:10421000877FC7CF8091A5048D7FACCF8091A50407
:104220008B7FA8CF8091A504877FA4CF8091A6041F
:104230008E7FB7CF8091A6048D7FB3CF8091A504E8
:104240008F7E98CF8091A5048F7D94CF8091A50417
:104250008F7B90CF0E94621A8091A5048F778ACFBE
:104260008091A504837F86CF8091A6048C7F99CF0F
:104270008091A50482FB992790F921E0922790FB79
:1042800082F990FB83F976CF8091A604982F9095C0
:1042900091708E7F892B90FB81F983CF0E94621AE7
:1042A0009091A504892F97FB87F9805863CF61E02F
:1042B0008EE090E00E94B12E09CE60E0F9CF90919F
:1042C000A504892F8F7E94FF806154CF80914B038A
:1042D0008272063D9CE5190778F4023CECE51E0766
:1042E00078F0F801E35CFC45E331F10508F04FC0DC
:1042F000E957F04D0C94AB2D0D35100709F4E4CCC3
:10430000F7018281C080D180882309F4A9C0C60149
:104310000E94B112182F682FC6010E94C410B60166
:10432000812F0E94A3120E94EE0E8C01782EF701BD
:104330009280858082942FE0822280912903877069
:10434000C1F0B92C9920B1F0812F807F803421F009
:1043500080E2800F883068F08091A60482FF09C057
:1043600082E00E94D417809129038770BB24B39404
:104370008111B12C812F82958F70C82ED12C8C3059
:1043800008F0DAC0F601E656F04D0C94AB2D8091A2
:10439000DD0491E089278093DD0410921201809161
:1043A000B20381608093B2038FCC46E856E063E9A4
:1043B00076E00E94D10588CC43E956E066E876E0D5
:1043C000F8CF46E556E061E676E0F3CF41E656E009
:1043D00066E576E0EECF4AE356E068E476E0E9CFC2
:1043E00048E456E06AE376E0E4CF4EE156E06CE262
:1043F00076E0DFCF4CE256E06EE176E0DACF4EEECB
:1044000055E06CEF75E0D5CF4CEF55E06EEE75E002
:10441000D0CF61E081E00E946C0656CC61E085E07F
:10442000FACF61E08DE0F7CF61E082E1F4CF0C35A7
:10443000FDE51F0749F0073A1D4509F061CF0E94CD
:10444000321D0E94811DFBCF8091A60482FB88272C
:1044500080F991E089270E94F01752CF80E0FBCFCE
:10446000C6010E949010182F5ACFF12FFF70AF2E67
:10447000107F19F0A29490EFA922802F9920B9F013
:10448000AA2069F090E2900F983010F0011109C055
:1044900080914B03A82AA0924B030E944517802FBE
:1044A00049C080914A03A82AA0924A03F6CF0E94ED
:1044B0002E18AA2009F440C0005E083010F07110D8
:1044C00004C08A2D0E947E1006C0A09480914A03E9
:1044D000A822A0924A030E9445172EC0212F2F70B8
:1044E000A22E107F103219F0A29480EFA82277201C
:1044F00089F031E0731609F469C0992009F473C09A
:10450000882009F469C0F701958190FFC8CF9F709A
:10451000958362C02091A60422FD36C0992071F1D6
:10452000AA2039F080914B038A2980934B030E9483
:10453000451780E00E94631898E0C91AD108E4E0AA
:10454000CE16D10410F40E94C405BB2009F468CB38
:104550008091290380FD64CBF701128285958595B2
:1045600085950E940C18C7010E94FE1D80912903A9
:104570008595859585950E94C71752CB80E00E944E
:104580002E18AA20C9F29DCF992099F090914C0342
:10459000892F8A29811003C00E942418CDCFE1E021
:1045A0008E12FACF22FFC8CF981731F280934C03B6
:1045B000C3CF811006C00E9478108A2D0E941D185A
:1045C000BBCFF1E08F1609F4B7CFF5CF992031F0CA
:1045D00025E0281508F4B0CF8A2DDECF34E0381559
:1045E00008F4AACFEACF882041F3093349F4FFEF5A
:1045F00027EE33E0F15020403040E1F700C00000EA
:10460000802F0E942E1898CF812F869586958370D3
:1046100061F0813009F090CFC8019370911002C011
:1046200090E080E00E94980587CFC80193709110B8
:1046300002C090E080E00E94AE057ECF802F9920DE
:1046400029F00E94360E0E94550D76CF0E947B0DF8
:10465000FACF812F837091F591106ECF402F429544
:1046600046954770440F440F802F8F70042E01C071
:10467000880F0A94EAF7202F207104FF07C02FE06B
:1046800030E001C0220F4A95EAF72095169516955D
:104690001370123071F0133051F030914D0311301E
:1046A00029F0822B83230E94181846CF832B822B5C
:1046B000FACF282B80914D038227F5CF869599203C
:1046C00011F0812F8170882309F436CF402F429555
:1046D00046954770440F440F802F8F70042E01C001
:1046E000880F0A94EAF7202F207104FF07C02FE0FB
:1046F00030E001C0220F4A95EAF7209516951695ED
:104700001370123071F0133051F030910F051130E9
:1047100029F0822B83230E94B6170ECF832B822B86
:10472000FACF282B80910F058227F5CF1F70992093
:1047300029F0812F0E940C18802F2ECF802F0E94ED
:104740001D18812F0E94C717F7CE802F92EF791680
:10475000B1F1971570F0E0EF7E16D1F0F1EF7F1612
:1047600091F0992009F45CC0811099CE812F8F714E
:104770002AC023EF721651F134EF7312F2CF8091F9
:10478000A60482FD2FC0812F8F719920D9F21BC002
:10479000992081F084E0881508F4CECE1F7181E065
:1047A00090E0012E01C0880F0A94EAF790910F055E
:1047B0008927B1CF95E0981508F4BECEEFCF812FB1
:1047C0008F719110BFCF0E940C18B6CE80E0992057
:1047D00009F4A1CF1F7181E0012E01C0880F0A9456
:1047E000EAF799CF992089F01F71812F0E940C1848
:1047F0008091A60482FF07C0E8E01E9FC00111243B
:10480000836080932903812FDECF81E00E94D4173B
:10481000F1E0F81508F090CE82E00E94D4178CCE1B
:10482000882059F0893309F0EBCE2FEF37EE83E083
:10483000215030408040E1F7E1CE812F8F7182CF4F
:104840000031FFE51F0709F4B4CA01312FE5120753
:1048500009F4B9CA01389FE5190709F0B8CA80EA16
:1048600092E0F5CB00313FE5130709F4A8CA013106
:104870009FE5190709F4A9CA01383FE5130709F0B4
:10488000A6CA90E080E0E3CB85E0DE0111960190BE
:104890000D928A95E1F7F701228189819A81211190
:1048A000C3C90E949010182FC7C906312CE5120702
:1048B00009F00CCD8091D20269E2811165E382EBAF
:1048C00092E00E943605EFCB1F93CF93DF93809148
:1048D000F602807F09F049C08091F302882309F431
:1048E00044C080912803D091F7026091F102709149
:1048F000F202A091F402B091F502C62FC72316E090
:10490000D81799F190E0109711F0CF3F19F4019664
:104910008770F6CF189F9001199F300D1124F9016F
:10492000E850FD4F41814713F2CF40814613EFCF4E
:1049300042814111ECCF438154814A1B5B0B483CBF
:10494000510528F78091F6028F7080618093F602FE
:10495000F901E350FD4F80818F708061808381EF8A
:1049600092E00E94FE1D0E948610DF91CF911F9160
:104970000895ABE0B0E0EFEBF4E20C94C02D8C01B5
:1049800085E0F801DE01179601900D928A95E1F716
:10499000F801E28081EFA82E82E0B82E6091F40247
:1049A0007091F5026115710509F40EC19091F10243
:1049B0004091F202842F89238F3F09F405C12081A1
:1049C0003181C380D480F090F302F601E61BF70B2F
:1049D000FF2009F4C4C08091F602582F507FE83CB4
:1049E000F10508F09FC051116BC0FE2C431314C099
:1049F000921312C0E11010C08F7080618093F60294
:104A0000C5010E94FE1D8091F602F80185838F2D5D
:104A10002B96EAE00C94DC2DC114D10429F0822FEE
:104A200083238F3F09F0EBC080E0F82FF170DF2E79
:104A3000E09128034091F70256E080FD1CC0EE2073
:104A400031F38091F60281608093F602F12CDFCF82
:104A50008E2F90E05E9FF0011124E850FD4F6181A0
:104A6000361306C06081261303C06281E612E7CFC9
:104A7000FC013196E770E413EBCF2F8338878F81E9
:104A800098850E94DC12292F22952F70903260F0B9
:104A9000225F2F70223078F49F7051F0F8019581D9
:104AA000907F31F4D12C0AC09F7011F08823D1F38C
:104AB000805E8830B8F3C8010E94FE1DFD2CA7CF90
:104AC000431306C0921304C0F801EE2009F461C03C
:104AD000C8010E94EB12882309F1EE20F9F08091C1
:104AE000F602803270F02091F1023091F2023A83A6
:104AF00029831B82DD82CC828E83CE0101960E94A7
:104B0000FE1D86E0F801A1EFB2E001900D928A95BA
:104B1000E1F70E946424FF24F39479CFC8010E9436
:104B2000FE1DF9CF51110AC081EF92E00E94FE1DD7
:104B300086E0F50111928A95E9F788CF4313C8CF33
:104B40009213C6CFE110C4CFF8018583C8010E943B
:104B5000FE1D86E0F50111928A95E9F758CFE83CF1
:104B6000F105B8F7FE2CEE20C9F243131FC09213D3
:104B70001DC08091F60280FD10C0982F907F69F0D3
:104B8000F8018583903F31F0982F907F905F8F7070
:104B9000892B8583C8010E94FE1D86E0F801A1EFE4
:104BA000B2E001900D928A95E1F731CFC8010E94E1
:104BB000EB128111A6CF8091F60281608093F602FC
:104BC000C8010E94FE1D23CFEE2009F4A7CFC80123
:104BD0000E94EB12F82E882309F4A0CF86E0F8019A
:104BE000A1EFB2E001900D928A95E1F78091F10278
:104BF0009091F2020E94DC120E94642408CF81E0AE
:104C00008E2513CFA7E1B0E0E8E0F6E20C94C72DC3
:104C10004B8B5C8B6D8B7E8B8F8B611110924A035B
:104C20001A8A2C898E899F893B893D872E876F87B9
:104C3000998B888B86E0FE013D96DE0117960190E8
:104C40000D928A95E1F7CE0107960E94B924882338
:104C500059F016E0809128039091F702891349C01A
:104C60006796E3E00C94E32D86E0FE013796DE01C3
:104C7000119601900D928A95E1F74A855B85411561
:104C8000510539F37F816885862F87238F3F09F38C
:104C90002091F70230E0C901019687709927E091D1
:104CA0002803E817190671F40E94621A1092F7029D
:104CB0001092280386E0E1EFF2E0DF011D928A9571
:104CC000E9F7C7CF79836A835D834C8396E0929F2F
:104CD000D001939FB00D1124A850BD4FFE01319615
:104CE00001900D929A95E1F78093F7020E94861049
:104CF000B0CF819FC001112488509D4F0E94B924DC
:104D0000882309F4ADCF8091280390E00196877045
:104D10009927809328039ECF1F920F920FB60F9270
:104D200011242F933F934F935F936F937F938F93B0
:104D30009F93AF93BF93CF93DF93EF93FF93D09164
:104D4000E900DF708091EC00C82FC17080FDC0E8E1
:104D50001092E9008091F000877F8093F0007894B2
:104D60000E94781A1092E9008091F0008860809388
:104D7000F000CD2BCF70C093E900FF91EF91DF9150
:104D8000CF91BF91AF919F918F917F916F915F91E3
:104D90004F913F912F910F900FBE0F901F9018953C
:104DA0001F920F920FB60F9211242F933F934F93A0
:104DB0005F936F937F938F939F93AF93BF93EF9383
:104DC000FF938091E10082FF09C08091E20082FFA1
:104DD00005C08091E1008B7F8093E1008091DA0033
:104DE00080FF24C08091D80080FF20C08091DA002D
:104DF0008E7F8093DA008091D90080FF9BC080E194
:104E000089BD82E189BD09B400FEFDCF81E08093B8
:104E1000CF048091AA04811109C00E947A030E94E4
:104E200045048091E20084608093E2008091E1007B
:104E300080FF17C08091E20080FF13C08091E200E4
:104E40008E7F8093E2008091E20080618093E20097
:104E50008091D80080628093D80019BC85E080934F
:104E6000CF048091E10084FF29C08091E20084FF9B
:104E700025C080E189BD82E189BD09B400FEFDCF76
:104E80008091D8008F7D8093D8008091E1008F7E43
:104E90008093E1008091E2008F7E8093E200809118
:104EA000E20081608093E2008091D004882309F4BD
:104EB00047C084E08093CF048091CF048091E100CB
:104EC00083FF27C08091E20083FF23C08091E1002F
:104ED000877F8093E10082E08093CF041092D0041A
:104EE0008091E1008E7F8093E1008091E2008E7FCF
:104EF0008093E2008091E20080618093E20042E0D2
:104F000060E080E00E9413048091F000886080934C
:104F1000F000FF91EF91BF91AF919F918F917F91A1
:104F20006F915F914F913F912F910F900FBE0F9016
:104F30001F90189519BC1092CF041092AA0476CF36
:104F40008091E30087FD02C081E0B4CF83E0B2CF5F
:104F500078941F921FB61F9211248F939F93AF9343
:104F6000BF938091A1049091A204A091A304B09159
:104F7000A4040196A11DB11D8093A1049093A204E5
:104F8000A093A304B093A404BF91AF919F918F917C
:104F90001F901FBE1F9018951F921FB61F921124BD
:104FA0008F939F93AF93BF938091A004811113C0FF
:104FB0008091A1049091A204A091A304B091A404B3
:104FC0004196A11DB11D8093A1049093A204A093CA
:104FD000A304B093A404BF91AF919F918F911F90B0
:104FE0001FBE1F901895CDB7DEB7A9970FB6F894DE
:104FF000DEBF0FBECDBF85B7806885BF85B780682F
:1050000085BF84B7877F84BF0FB6F894A895809139
:105010006000886180936000109260000FBE80E89D
:1050200090E00FB6F89480936100909361000FBEFA
:1050300080E99EE09093B1028093B0020E947A03CF
:105040000E9445048091E20084608093E20078949D
:105050008091CF048823A1F01091E9001F709091F6
:10506000EC00892F817090FD80E8182B1092E900E8
:105070008091E80083FD0E94781A1F701093E90068
:1050800082E084BD93E095BD9AEF97BD80936E005A
:105090000E941913811102C00E9464120EE411E0F3
:1050A000D8018D918D018F3F11F00E94920EB1E0D9
:1050B00003351B07A9F703E511E092E6E92E91E01D
:1050C000F92EF80181918F018F3F11F00E94920E0D
:1050D000E016F106B1F78AE0E9E6F3E0DF01282FF8
:1050E0001D922A95E9F7E1E5F3E0DF011D928A952B
:1050F000E9F70E94481D811102C00E94811D82E0D3
:1051000090E00E948D2E80935D030E943213909355
:10511000A6048093A5040E94AE19EFE3FCE9319741
:10512000F1F700C000000E94AE198091690380FF72
:1051300008C06FEF7FEF90E080E00E94CF2E0E94CA
:10514000901183E090E00E948D2E0E94181810921A
:10515000E3048FEF9FEF9093FD048093FC04909302
:10516000FF048093FE0490930105809300059093C3
:1051700003058093020590930505809304059093A1
:105180000705809306059093090580930805909381
:105190000B0580930A051092800390939A038093E5
:1051A000990390939C0380939B0390939E03809319
:1051B0009D039093A00380939F039093A2038093F9
:1051C000A1039093A4038093A3039093A6038093D9
:1051D000A5039093A8038093A7030E94481D811103
:1051E00004C00E94811D0E94311746E050E06CE12E
:1051F00070E08DED94E00E947D2E1092B2038091BC
:10520000DD048C7F11F40E9431170E94EF1D84E0B1
:1052100091E090939D0480939C04772473948091F3
:10522000CF04853089F400E4F02E83E0E82E00E11D
:1052300012E18091CF04853009F4C8C00E94621A3F
:105240000E94C4051092B1030E94AE198EE593E04E
:105250009AA389A3A9E6B3E0BFA3AEA348E653E0AF
:10526000FC01219131918D919D914E175F0709F4B9
:10527000FFC028173907A9F31DE7812E11E0912EF1
:10528000612CEEA1FFA1E190F190FFA3EEA3A9A1F3
:10529000BAA18D919D91BAA3A9A38E159F0509F47A
:1052A0008BC0FC01EE25FF25F9A7E8A71401512CBE
:1052B000CC24C394D12C88A599A58C219D21892B20
:1052C00009F46CC087010C211D2159826A8281E09A
:1052D0000115110509F480E08B830E942A05816085
:1052E000782F9D838C8349815A816B818D810E94A7
:1052F0000226012B29F0D1018C918F3F09F0DFC1EB
:10530000412C042D10E080918003800F912F911D7E
:1053100009976CF1E8E0AE2EB12CA01AB10AB801E1
:105320006F577C4FA50181E893E00E94742EB8016D
:1053300067577C4FA50189E893E00E94742EA50170
:10534000440F551FB801660F771F67567C4F89E9D8
:1053500093E00E94742EB8016F567C4FA50181E93D
:1053600093E00E94742E88E08419809380038091DA
:10537000800390E0EDA1AE2FB0E09D01220F331F1E
:1053800028533E4FAA0FBB1FBD0167537E4F41E01C
:10539000480F941508F497C1809380035394CC0C64
:1053A000DD1CEFEF2E1A3E0AFFE05F1284CFE9A169
:1053B000FAA13297F182E08263942FE0820E911C71
:1053C00035E063125ECF0E940D0574C08091CF045A
:1053D000843009F439C00E9449168091B1038111CB
:1053E0000DC00E946413109211018091DD0483703E
:1053F000809310010E94B411E0921201F1E0F09349
:10540000B1031092A00428E130E00FB6F894A895FB
:10541000209360000FBEF092600083B7817F8460AC
:1054200083BF83B7816083BF7894889583B78E7F6D
:1054300083BF0FB6F894A89580916000886180932F
:105440006000109260000FBE8091CE04882309F4A2
:10545000F0CE0E94AE19E9E6F3E081919191892B9B
:1054600009F01CC343E753E04E175F07B1F7E1CEE5
:105470002817390709F000CF0E942A058C01809176
:105480005B0390915C0308171907A1F08FEF8983E4
:105490008A831B820E942A058160782F9D838C83DA
:1054A00049815A816B818D810E94022610935C0391
:1054B00000935B030E94491686E0EAE7F3E0DE0111
:1054C000119601900D928A95E1F710927C0310924B
:1054D0007D0310927E0310927F038B819C81892B28
:1054E00009F44AC080917803909179030E94FE04E8
:1054F0009C0180917403882309F4F4C2253131059D
:10550000D8F18F3F19F08F5F809374031B811123B3
:1055100059F00E94160E9FEF11160CF491E0899F2E
:10552000802D112480937C031C81112359F00E944B
:10553000160E9FEF11160CF491E0899F802D112417
:1055400080937D0330917C033323B1F020917D0360
:10555000222391F045EB3403C0011124992309F46F
:10556000C8C090937C0355EB25039001112433238D
:1055700009F4C2C030937D038D819E81892B09F48B
:105580004AC080917603909177030E94FE049C01AB
:1055900080917303882309F4A0C221353105D8F125
:1055A0008F3F19F08F5F809373031D81112359F092
:1055B0000E94F40D9FEF11160CF491E0899F802D4D
:1055C000112480937E031E81112359F00E94F40D53
:1055D0009FEF11160CF491E0899F802D1124809388
:1055E0007F0330917E033323B1F020917F03222388
:1055F00091F045EB3403C0011124992309F47FC0D5
:1056000090937E0355EB250390011124332309F475
:1056100079C030937F0346E050E0BE016F5F7F4F5B
:105620008AE793E00E94672E892B61F480917C03C6
:1056300090917D03892B90917E03892B90917F031C
:10564000892B11F00E94550D86E0FE013196AAE7E4
:10565000B3E001900D928A95E1F70E94C405909104
:105660006803891721F0809368030E940D058091DB
:10567000CF04843009F0D3CD83E08093E90080919A
:10568000E80082FFCCCD8091E80090E085FF05C066
:105690000E9499038823C9F191E08091E8008B77FB
:1056A0008093E800992309F4BACDE981E150E33110
:1056B00008F0C5C0F0E0EA55F04D0C94AB2D8DA379
:1056C000442443941ECE90E0FC01E058FC4FD901E5
:1056D0005C915183DB015C915187BDA1B18B880F37
:1056E000991FFC01E058FC4F128E118E842F91E01F
:1056F0004ECE70927C0337CF70927D033DCF709277
:105700007E0380CF70927F0386CF00E210E0CE014F
:1057100001967C018091E80085FD0AC08091E80037
:105720008B778093E8000E949903882399F3B4CF84
:105730008091F100D7018D937D010150110951F73E
:10574000ABCF1A828AE08B8311C08A81823009F440
:10575000BBC1833091F1813009F071C00E940D0509
:105760000E94B12D6B837C838D839E838091CF04B7
:10577000843009F054CD1091E9001F709091EC0035
:10578000892F817090FD80E8182B82E08093E900DA
:105790008091E80080FF0DC050E040E060E270E0E2
:1057A000CE0101960E94CA038091E8008E77809313
:1057B000E8001F701093E90032CD80916903909149
:1057C0006A039827892798279C838B8380916B0392
:1057D00090916C039827892798279E838D838091C9
:1057E0006D0390916E0398278927982798878F8358
:1057F00080916F03909170039827892798279A8743
:10580000898780917103909172039827892798273F
:105810009C878B87ABCF8A81823089F42B813C8136
:105820004D815E8129A33AA34BA35CA3CA01B901B0
:105830000E94B12D86E290E00E94B12E97CF8FEFAB
:10584000898394CF4C816B818A810E94741298273E
:10585000892798279E838D8389CF2D813E8132278A
:10586000232732274C816B818A810E94EB117ECFE6
:105870000E9412127BCF8A81823899F1C0F480385D
:10588000F9F0813809F072CF60E08B810E946C06DC
:105890008B81811123C08091DD04837011F01092FF
:1058A00012018091DD048C7F8093DD045FCF83380B
:1058B00009F05CCF8B8120E04091E0046C810AC04C
:1058C0004B8124EB429F412D11248091DE0420E086
:1058D0006091DF0490E00E940A0648CF0E949F0674
:1058E00045CFEB818FE7E43020F4F0E0EE59FE4F36
:1058F00080818093E1043ACF8A81823809F150F4A3
:10590000803891F0813809F031CF8091DD0486959F
:10591000869519CF833809F029CF8091DE048B83D7
:105920008091DF048C8322CF8091E0043FEF839F3E
:10593000C001112464EB70E00E94832D6B8316CFAD
:105940008091E104873230F08F3530F08E3930F0BD
:1059500083E0F9CE80E0F7CE81E0F5CE82E0F3CEB1
:105960000E943E1603CF80E18A8300CF7A8281E8CD
:10597000EACE0A811B81102701271027AE014F5F55
:105980005F4F7A01CC80CA018C0D911D6C01C8015A
:1059900081589D4FEC14FD0409F4E8CE0138A1E0D4
:1059A0001A0750F40E948D2EF70184830F5F1F4F5A
:1059B000BFEFEB1AFB0AEBCFD70114961C92F6CF80
:1059C0000A811B81102701271027FE0131966F01E4
:1059D000EC80E00EF12EF11CC80181589D4FE016BD
:1059E000F10609F4C3CE0138F1E01F0728F4D6010F
:1059F00014966C910E94B12EBFEFCB1ADB0A0F5F99
:105A00001F4FEACF0E94DB11B1CE84E0ADCF0A81F7
:105A10001B81102701271027FE0131967F01CC80C2
:105A20009F012C0D311D6901C8018796EC14FD04FE
:105A300009F49CCE083532E0130758F40E948D2EED
:105A4000D70114968C930F5F1F4FFFEFEF1AFF0AD9
:105A5000EBCFF7011482F7CF0A811B8110270127B2
:105A600010279E012F5F3F4F6901EC80E00EF12E61
:105A7000F11CC80187960E151F0509F477CE08356D
:105A800032E0130728F4D60114966C910E94B12ECF
:105A9000BFEFCB1ADB0A0F5F1F4FEBCF09BD19BD5C
:105AA00009B400FEFDCF8091D8008F7D8093D8008F
:105AB0008091E00082608093E0008091E00081FDB1
:105AC000FCCF0E94621AB5CB86E290E00E948D2E38
:105AD0001B821C821D828E8349CE2B30310508F03B
