:100000000C94F7030C943E040C943E040C943E04B0
:100010000C943E040C943E040C943E040C943E0458
:100020000C943E040C943E040C94CF250C94842430
:100030000C9475270C943E040C943E040C943E04DE
:100040000C943E040C943E040C943E040C943E0428
:100050000C943E040C9428270C943E040C943E040B
:100060000C943E040C943E040C943E040C943E0408
:100070000C943E040C943E040C943E040C943E04F8
:100080000C943E040C943E040C943E040C943E04E8
:100090000C943E040C943E040C943E040C943E04D8
:1000A0000C943E040C943E040C943E049B099B0962
:1000B000CE09CE09410A5F0A6B0B6B0B6A0ADE0A96
:1000C000EF0AEF0A03100610271034103B105B10E4
:1000D0005E109E10C01062116211CB10CD10D010B6
:1000E000F51017111A111D114111B612C112EC129F
:1000F00029136713A913EC13EF13F413F713FC136D
:10010000FF130214051408140B140E141114141404
:1001100017141C141F14221427146B14AF14F71493
:10012000FA14FD1468153B16E8167F178217871717
:1001300092179517A017A317AE17B117BC17BF17C3
:10014000CA1700222722D0232722D02373229622E7
:10015000D0238B239B23FD31FD3110321032063228
:10016000103210321032FD31FD310B3210321032AC
:100170000B32000000000000000000000000000042
:10018000000000000000000000000000000000006F
:100190000000000000007E0F00D4FFFFFFC700003A
:1001A000007800000000000000002A2B280000005A
:1001B0000000000000000000000000000029000016
:1001C00000002C1E3420212224342627252E362DF3
:1001D0003738271E1F202122232425263333362E8D
:1001E00037381F0405060708090A0B0C0D0E0F10FF
:1001F0001112131415161718191A1B1C1D2F313044
:10020000232D350405060708090A0B0C0D0E0F10E7
:100210001112131415161718191A1B1C1D2F313023
:10022000354C05010902A10185020901A10005095A
:10023000190129081500250195087501810205019C
:10024000093009311581257F950275088106093825
:100250001581257F950175088106050C0A38021560
:1002600081257F950175088106C0C005010980A11F
:1002700001850319012AB700150126B700950175FC
:10028000108100C0050C0901A101850419012AA0F3
:1002900002150126A002950175108100C005010913
:1002A00006A1018506050719E029E7150025019536
:1002B00008750181020507190029EF150025019530
:1002C000F07501810205081901290595057501914F
:1002D00002950175039101C00660FF0961A1010942
:1002E00062150026FF00952075088102096315003C
:1002F00026FF00952075089102C005010906A1019D
:10030000050719E029E71500250195087501810207
:100310009501750881010507190029FF150026FFC1
:1003200000950675088100050819012905950575D0
:10033000019102950175039101C009025B0003015F
:1003400000A0FA09040000010301010009211101C4
:1003500000012240000705810308000A090401008A
:1003600002030000000921110100012222000705FB
:100370008203200001070503032000010904020095
:10038000010300000009211101000122B600070548
:10039000840320000A12010002000000086469873B
:1003A000000200010200011803490044004F00420E
:1003B0000041004F00200049004400380037000091
:1003C000000E03490044004F00420041004F00006E
:1003D0000004030904290000003A003B003C003DF2
:1003E000003E003F00400035001E001F002000219D
:1003F0000022002300240025002B0014001A00080E
:1004000000150017001C0018000C0039000400162D
:1004100000070009000A000B000D000E00E10000BB
:10042000001D001B0006001900050011001000E06F
:1004300000E300E200E400654100002C00E700E674
:1004400000000048004700450044004300460042C9
:1004500000410027004B004A002A0000002E0049FE
:10046000002D00260000004E004D00310030002F0E
:10047000004C001300120000000000520028000091
:10048000003400000033000F0000004F0051000056
:1004900000E5003800500037003600005C00000125
:1004A0000001000100010001000100010001000144
:1004B0000001000100010001000100010001000134
:1004C00000BF5CC25C0100010001000100010001ED
:1004D0000001000100010001000100010001000114
:1004E0000001000100000001000100010001000105
:1004F00000145C0100010001000100010001000086
:1005000000010001000100000001000100010001E4
:1005100000010001000100010001000100C55C01B3
:10052000000000010001000100010000000100C7FF
:100530005C010001000100C95C0100010000000035
:1005400000BE5C010000000100000001000100008D
:1005500000C35CBD5C000001000100BE5C01000145
:100560000001000000010001000100010001000184
:100570000001000100010001000100010001000173
:100580000001000100010001000100010001000163
:100590000001000100010001000100010001000153
:1005A0000001000100010001000100000001000144
:1005B0000001000100010001000100010001000133
:1005C0000001000100000001000100010000000125
:1005D0000001000100010001000100010001000113
:1005E0000001000100010000000100010001000104
:1005F00000000001000100010001000100010001F4
:1006000000010000000000010001000000010000E6
:1006100000010001000000010001000000010001D4
:1006200000010001000100010000000100010001C3
:1006300000010001000100010001000100010001B2
:1006400000010001000100010001000100010001A2
:100650000001000100010001000100010001000192
:100660000001000100010001000100010001000182
:100670000000000100010001000100010001000173
:100680000001000100010001000100000001000163
:100690000001000000010001000100010001000153
:1006A0000001000100010001000100010000000143
:1006B0000001000100010000000100010001000133
:1006C0000001000100010001000000000001000124
:1006D0000000000100000001000100000001000115
:1006E0000000000100010001000100010000010103
:1006F00001010101010101020202020202020202E1
:1007000003030303030303030404040404040405B0
:100710000505050506060606060707070707080874
:100720000808090909090A0A0A0B0B0B0C0C0C0D25
:100730000D0D0E0E0E0F0F0F1010111111121213BE
:10074000131414151516161717181819191A1A1B39
:100750001B1C1D1D1E1E1F20202122222324242598
:100760002626272829292A2B2C2D2D2E2F303132D1
:1007700032333435363738393A3B3C3D3E3F4041E1
:1007800042434445464748494A4C4D4E4F505153C9
:1007900054555658595A5B5D5E5F61626465666880
:1007A000696B6C6D6F7072737577787A7B7D7E8004
:1007B00082838587888A8C8E8F91939596989A9C50
:1007C0009EA0A2A3A5A7A9ABADAFB1B3B5B7BABC64
:1007D000BEC0C2C4C6C9CBCDCFD1D4D6D8DBDDDF35
:1007E000E2E4E7E9EBEEF0F3F5F8FAFDFF0011249F
:1007F0001FBECFEFDAE0DEBFCDBF04B603FE27C0D9
:100800008091D2079091D307A091D407B091D507DA
:100810008730904BA740B04BD1F41092D207109282
:10082000D3071092D4071092D50714BE84B7877FE0
:1008300084BF0FB6F894A89580916000886180937A
:100840006000109260000FBEE0E0F8E3099513E04D
:10085000A0E0B1E0E0ECF9E602C005900D92A03115
:10086000B107D9F727E0A0E1B3E001C01D92A23D96
:10087000B207E1F70E94C20B0C94DE340C94000026
:100880001F93CF93DF93CDB7DEB767970FB6F8947A
:10089000DEBF0FBECDBF4B8B5C8B6D8B7E8B8F8B8A
:1008A00061111092B10486E09E01235F3F4FD90190
:1008B000E82F1D92EA95E9F795E0FE017396D901BC
:1008C00001900D929A95E1F79C894E895F897B8909
:1008D0007D879E876F87598B488BF901DE011796BC
:1008E00001900D928A95E1F7CE0107960E94501C67
:1008F00081113EC086E0FE013796DE01119601901F
:100900000D928A95E1F7FF81E8856A857B856115FF
:10091000710531F0EF3F31F481E0FF3F19F403C07E
:1009200081E001C080E080FD23C020917D0430E0A3
:10093000C9010196877099274091AE0450E0841751
:10094000950779F1F983EA837D836C8396E0929F22
:10095000D001939FB00D1124A258BB4FFE013196D8
:1009600001900D929A95E1F780937D040E94CD1B32
:1009700016E08091AE0490917D048917F9F0189FDC
:10098000C001112482589B4F0E94501C8823B1F053
:100990008091AE0490E00196877099278093AE0411
:1009A000E8CF0E94143210927D041092AE04E7E763
:1009B000F4E086E0DF011D928A95E9F767960FB6AD
:1009C000F894DEBF0FBECDBFDF91CF911F91089588
:1009D00081FF02C0479A0895479808953F924F9229
:1009E0005F926F927F928F929F92AF92BF92CF92BF
:1009F000DF92EF92FF920F931F93CF93DF93CDB7C8
:100A0000DEB729970FB6F894DEBF0FBECDBFFC014D
:100A10008081918123813481232B31F09F3F31F4F8
:100A200091E08F3F19F403C091E001C090E090FD88
:100A300091C67F0185E0DE01119601900D928A95A5
:100A4000E1F7F701228189819A81222349F00E94EE
:100A50004331182F682F89819A810E949E3103C0EB
:100A60000E947231182F69817A81812F0E94C82DCE
:100A70008C01F7018281882309F4F2C09801225188
:100A80003F452031310508F01DC18FEF93E00E94F2
:100A9000E8338111EFC002513FE3832E33E0932E00
:100AA000002379F08114F4E09F0609F4E3C0C40147
:100AB0000E94E833811101C001502FEF821A920A7F
:100AC000EFCF1E821F8218861986442443942AE0A1
:100AD000322E84010F5F1F4FC4010E94E8338E83C2
:100AE0001F82882309F4C6C09FEF980F933060F4EB
:100AF0008F834E8232E0830E911CC8010E94E8333E
:100B00008887811102C0B6C048018E010A5F1F4F5D
:100B1000F80120812223E9F2213009F04CC08181C3
:100B2000813049F46801F2E0CF0ED11CF8018281D6
:100B30000E945E330AC0823051F46801F2E0CF0EA9
:100B4000D11CF80182810E949A32860186C08330CE
:100B500049F46801F2E0CF0ED11CF80182810E94B5
:100B60003A32F3CF843019F00F5F1F4F76C0F8018F
:100B700022810E5F1F4F80E090E030E0205331096A
:100B80002A30310568F4389EA001399E500D112499
:100B9000C901840F951F0F5F1F4FF8012081EDCF12
:100BA000009709F45AC0EFE9FFE03197F1F700C070
:100BB00000000197F5CFE22FF0E0EE55FE4F549084
:100BC000822F86958695869590E0FC01EE56FE4F25
:100BD00064902770712C022E02C0759467940A9459
:100BE000E2F7F1E06F227724FC01EE57FE4FA4906C
:100BF000B12C022E02C0B594A7940A94E2F731E01A
:100C0000A322BB24FC01EE58FE4FC490D12C02C09D
:100C1000D594C7942A95E2F781E0C822DD246114B7
:100C2000710419F081EE0E949A32A114B10419F0F6
:100C300086EE0E949A32852D0E945E33AB2819F011
:100C400086EE0E943A32672819F081EE0E943A320D
:100C5000CD2819F08CE20E945E330F5F1F4F58CFF2
:100C600000313FE5130709F06CC581E00E94CD31EA
:100C70000E94F11D8091AF04877009F46BC5F701E4
:100C80008281882309F466C58091270582FD62C5AB
:100C900082E029960FB6F894DEBF0FBECDBFDF917C
:100CA000CF911F910F91FF90EF90DF90CF90BF9069
:100CB000AF909F908F907F906F905F904F903F90FC
:100CC0000C949B1B0031FFE51F0711F481E005C068
:100CD00001312FE5120721F482E00E94D931C8CFFB
:100CE000033FFCE51F0749F406E221EE40EE63EF07
:100CF0007CE5C7010E94EB2CBDCF043F2CE5120719
:100D000008F049C1083D3CE5130731F407E225EE40
:100D100045EE68ED7CE5EDCF093D9CE5190731F422
:100D200008E221E045EE69ED7CE5E3CF073DECE527
:100D30001E0731F406E221EE41EE67ED7CE5D9CFE6
:100D4000882309F45DC110929D0703309DE51907C2
:100D500058F40A3FECE51E0760F4C80182509C4538
:100D6000449708F037C105C00136FDE51F0709F0BB
:100D700031C10E94C21A9093270580932605003145
:100D80002CE5120709F4CAC008F041C008308CE510
:100D9000180709F4A4C0F0F40430ECE51E0709F4C8
:100DA0008CC068F402302CE5120709F482C00330CD
:100DB0001C4509F0E7C0809126058260E1C006303D
:100DC0008CE5180709F483C008F085C080912605DA
:100DD0008860D6C00C30ECE51E0709F490C068F4BA
:100DE0000A302CE5120709F47EC008F084C00E9486
:100DF0001432809126058068C3C00E308CE5180738
:100E000009F481C008F086C08091260594C00C3F8B
:100E1000ECE51E0709F47BC038F504312CE5120718
:100E200009F49AC058F402318CE5180709F47AC025
:100E300008F07EC0809126058F7BA2C00A3FECE5BA
:100E40001E07F1F108F03FC005311C4509F09AC0BA
:100E50008091260582FB222720F991E0922790FBC2
:100E600082F990FB83F98CC001153DE5130709F465
:100E700067C050F4809127050E3F9CE51907C1F12A
:100E800008F05BC08D7F65C00230FDE51F0709F4E7
:100E900071C008F46DC001361D4509F073C0809122
:100EA000260584FB222720F991E0922790FB84F904
:100EB00067C080912605816063C08091260516C0B9
:100EC0008091270516C080912705826042C08091DD
:100ED0002605806155C080912605806251C08091B1
:100EE000260580644DC0809126058860846048C0D6
:100EF000826081602EC0809126058E7F41C08091E6
:100F000026058D7F3DC080912605877F39C0809161
:100F1000270514C0809126058F7E32C0809126055A
:100F20008F7D2EC00E941432809126058F7728C0B5
:100F300080912605877F8B7F23C08D7F8E7F09C0A0
:100F400080912705982F909591708E7F892B90FB2B
:100F500081F98093270516C00E94143280912605DE
:100F600087FB222720F991E0922790FB87F908C0A0
:100F700061E001C060E08EE090E00E940C3402C0AD
:100F80008093260580912605909127050E94B51A29
:100F90000E9414326FCE053FFCE51F0731F406E2D4
:100FA00021EE42EE65EF7CE5A4CE053F2CE512076D
:100FB00030F407E225EE44EE64EF7CE59ACE063F7E
:100FC0003CE5130709F0BCCE07E225EE46EE66EFDE
:100FD0007CE58FCE8091B20406319CE5190709F5B6
:100FE0008A7A91E009F490E090931203882311F03B
:100FF00065E301C069E287E594E00E94C6270EC060
:1010000006311C4509F04AC180911203882309F476
:101010009FC365E387E594E00E949E270E94551BCD
:1010200029CE8272D82E0A3C8CE5180709F4D4C068
:1010300080F5053CECE51E0709F49EC068F4033C0E
:101040002CE5120709F480C008F08AC0023C8CE548
:10105000180709F447C0F1C0073C9CE5190709F4DB
:10106000A3C008F495C0083CFCE51F0709F4A8C01C
:10107000093C2CE5120709F0E0C04FEB5EE26BEC97
:101080007EE28D2D0E944C2E46E95CE262EA7CE213
:10109000C6C00F3C3CE5130709F4CBC098F40C3CE8
:1010A0009CE5190709F4B0C008F4A2C00D3CFCE5AA
:1010B0001F0709F4B8C00E3C2CE5120709F0BDC0AB
:1010C00085E0B8C0063D3CE5130730F4013D1C4502
:1010D00008F0D0CD82E1AEC00D359DE5190709F4C9
:1010E000C9CDABC08091610680FF19C08E7F80930F
:1010F000610660916106709162068091630690912D
:1011000064060E940C2FEFEFF0E722E0E150F04080
:101110002040E1F700C000000E94122C07C081604F
:101120008093610661E086950E941E2F90911405C0
:1011300081E0892780931405109216018091130590
:1011400081608093130596CD4CE35FE265E47FE216
:101150008D2D0E944C2E48ED5CE261EE7CE25FC07A
:1011600045E45FE26CE37FE28D2D0E944C2E41EE60
:101170005CE268ED7CE253C04FEE5EE268EF7EE237
:101180008D2D0E944C2E46EC5CE26FEC7CE247C059
:1011900048EF5EE26FEE7EE28D2D0E944C2E4FEC0A
:1011A0005CE266EC7CE23BC047ED5EE263EE7EE231
:1011B0008D2D0E944C2E4EEA5CE26AEB7CE22FC041
:1011C00043EE5EE267ED7EE28D2D0E944C2E4AEBEF
:1011D0005CE26EEA7CE223C04BEC5EE26FEB7EE207
:1011E0008D2D0E944C2E42EA5CE266E97CE217C03B
:1011F00041E05BE262E17BE28D2D0E944C2E4AE7EA
:101200005CE268E87CE20BC042E15BE261E07BE229
:101210008D2D0E944C2E48E85CE26AE77CE28D2D21
:101220000E944C2E27CD61E081E00E941E2F81E0BC
:1012300001C08DE00E94FC1D1DCD0A353DE5130760
:1012400041F150F401159CE51907A9F00E3D1C452C
:1012500029F50E94DE1A0ECD0B35FDE51F07D9F0EA
:101260000C351D45D9F48091270582FB882780F92C
:1012700091E0892711C00E9414323FEF84E39CE083
:10128000315080409040E1F700C000000E940427E8
:10129000F1CC81E001C080E00E94B81BF70182819F
:1012A00000811181882349F0C8010E944331D82E62
:1012B000682FC8010E949E3104C0C8010E9472318B
:1012C000D82EB8018D2D0E94C82D0E941B19B82E52
:1012D000192F982EF7010281A580A2949FE0A922E0
:1012E0008091AF048770B9F00023A9F0812F807F2F
:1012F000803421F080E28B0D883068F080912705E2
:1013000082FD09C082E00E949B1B8091AF04877020
:10131000DD24D3948111D12CC12EC2948FE0C82238
:101320008C2D90E08C30910508F0D5C1FC01EA5A73
:10133000FF4F0C94BB34812F807F1F70882311F0E6
:101340001295107F0023B9F0112309F4B2C180E295
:101350008B0D883010F0911006C08091B204182BCC
:101360001093B20405C08091B104182B1093B104FE
:101370000E94551B9EC18B2D0E943A32112309F405
:10138000AAC180E28B0D883080F1992071F110950F
:101390008091B10418231093B1042AC0812F807F5B
:1013A0001F70803211F01295107F8B2D992021F043
:1013B000F1E09F16D9F149C08091270582FF1BC03B
:1013C000002369F0112339F08091B204182B109397
:1013D000B2040E94551B80E00E949A327CC180E0DA
:1013E0000E943A32112309F476C1812F0E944E1BCC
:1013F0000E94551B70C1002381F08091B304AA2084
:1014000051F021E0A21207C0182B181709F463C18C
:101410001093B30460C1812B10C0AA2021F031E0E9
:10142000A31609F458C10E94481B27C0002341F0AD
:1014300085E08A1508F44FC1812F0E9430324BC1DC
:1014400094E09A1508F447C118C0002349F0AA2077
:1014500099F3F701858180FF2CC18F708583ECCFD4
:10146000AA2059F0893309F033C1FFEF27EE33E0AA
:10147000F15020403040E1F729C1812F0E942932EC
:101480002AC1812F86958695837019F0813061F08D
:1014900022C1002321F08B2D912F937002C080E098
:1014A00090E00E9411281FC1002321F08B2D912F65
:1014B000937002C080E090E00E94FB2714C18B2D46
:1014C000002319F00E94CB3002C00E9412300E940B
:1014D000E82F09C1812F8370A9F5011100C14B2D9F
:1014E000429546954770440F440F8B2D8F7090E0C6
:1014F0009C01042E01C0220F0A94EAF7B4FE08C032
:101500008FE090E001C0880F4A95EAF7809501C00E
:1015100080E0169516951370123069F088F490915A
:10152000B404113019F0822B892302C0922B892B2D
:101530000E94E431D4C0822B9091B4048927F8CF63
:10154000822BF6CF002319F0812F817001C0869580
:10155000882309F4C4C04B2D429546954770440F2B
:10156000440F8B2D8F7090E09C01042E01C0220F40
:101570000A94EAF7B4FE08C08FE090E001C0880F3B
:101580004A95EAF7809501C080E01695169513708C
:10159000123059F078F490911A05113019F0822B1D
:1015A000892309C0922B892B06C0822B90911A05A2
:1015B000892701C0822B0E94C93191C01F7000236E
:1015C00039F0812F0E94D9318B2D0E94303287C093
:1015D0008B2D0E942932812F0E94CD3180C08B2D0E
:1015E00092EF991679F1991538F0E0EF9E1659F0BF
:1015F000F1EF9F1611F159C023EF921651F134EF1C
:101600009316B9F052C0002379F084E08A1508F4EB
:1016100062C01F7181E090E001C0880F1A95EAF75F
:1016200090911A0589271FC095E09A1508F453C0B8
:10163000F0CF8091270582FF19C0002329F0812F68
:101640008F7126C00023D9F3812F8F710E94CD3175
:1016500042C0002339F01F7181E001C0880F1A9544
:10166000EAF701C080E00E94C93135C0002399F03B
:101670001F71812F0E94D9318091270582FD07C0FB
:10168000E8E01E9FC001112483608093AF04812F86
:101690000E94D93120C081E00E949B1BF1E0FA1525
:1016A000D0F482E00E949B1B16C0002321F0AA20E8
:1016B00031F28B2D91CEAA2039F2893349F42FEFE4
:1016C00037EE83E0215030408040E1F700C0000059
:1016D0008B2D0E943A3288EF8C0D843020F40E94CA
:1016E00027280E94E804DD20A9F18091AF0480FD45
:1016F00031C0F70112828595859585950E94D93173
:10170000C7010E94EE048091AF048595859585956B
:1017100029960FB6F894DEBF0FBECDBFDF91CF91F3
:101720001F910F91FF90EF90DF90CF90BF90AF90FF
:101730009F908F907F906F905F904F903F900C9410
:10174000CD3101319FE5190709F0CACA82E08ECA7E
:1017500069E260CC29960FB6F894DEBF0FBECDBF0C
:10176000DF91CF911F910F91FF90EF90DF90CF907D
:10177000BF90AF909F908F907F906F905F904F90B1
:101780003F900895CF93DF93CDB7DEB7AC970FB6F8
:10179000F894DEBF0FBECDBF84B7877F84BF0FB67E
:1017A000F894A89580916000886180936000109201
:1017B00060000FBE90E080E80FB6F894809361005F
:1017C000909361000FBE85B7806885BF85B780683C
:1017D00085BF82EF97E190931103809310030E94DD
:1017E000C8240E946E258091E20084608093E2000C
:1017F00078948091DC048823A1F01091E9001F7097
:101800009091EC00892F817090FD80E8182B109248
:10181000E9008091E80083FD0E9418211F70109359
:10182000E90082E084BD93E095BD9AEF97BD809377
:101830006E000E94022E811102C00E94F32D0CE165
:1018400011E0F5E2EF2EF1E0FF2ED8018D918D0130
:101850008F3F11F00E943718E016F106B1F705E24C
:1018600011E0E0E3EE2EE1E0FE2EF80181918F0120
:101870008F3F11F00E943718E016F106B1F786E1AC
:10188000E2E4F3E0DF01282F1D922A95E9F7E3E176
:10189000F3E0DF011D928A95E9F70E94D31A8111C6
:1018A00002C00E94DE1A82E090E00E94E83380933A
:1018B0002B030E94C21A90932705809326050E944D
:1018C0004E18EFE3FCE93197F1F700C000000E94E9
:1018D0004E188091420380FF08C06FEF7FEF80E0D9
:1018E00090E00E942A340E94042783E090E00E9446
:1018F000E8330E94E4313F9A47981092EA04E3E00B
:10190000F5E083E195E02FEF3FEF219331938E17C0
:101910009F07D9F710925803E1E7F3E08FEF9FEFAD
:101920008193919323E0E138F207D1F70E94D31A13
:10193000811104C00E94DE1A0E94392B46E050E05B
:101940006CE170E084E195E00E94D83310921305B9
:10195000809114058C7F11F40E94392B809129030A
:10196000811131C00E94D31A811104C00E94DE1A75
:101970000E94492F88E090E00E94F0336093610656
:101980007093620680936306909364066E7F71F491
:101990000E94492F88E090E00E94F0336093610636
:1019A0007093620680936306909364060E94012FF1
:1019B0008091610680FF04C060E086950E941E2F22
:1019C00081E0809329038091260580688093260515
:1019D00080912605909127050E94B51A84E091E038
:1019E00090931E0580931D0550E4352E60E1E62E90
:1019F00070E1872E8E010F5F1F4FBE01695E7F4F22
:101A00007CA76BA78091DC04853009F04CC042E1D3
:101A1000F42E8091DC04853009F03FC08091DC0415
:101A2000843041F10E94B51180E00E94E8041092D8
:101A3000210588E190E00FB6F894A89580936000A6
:101A40000FBE3092600083B7817F846083BF83B70D
:101A5000816083BF7894889583B78E7F83BF0FB6EC
:101A6000F894A8958091600088618093600010923E
:101A700060000FBE8091DB04882309F4CACF0E9466
:101A80004E18E2E4F3E081919191892B09F044C46E
:101A900093E0E835F907B9F7BCCF0E9414320E94F1
:101AA00027280E94E8040E944E1881110E945D2799
:101AB00032E4432E33E0532EACE2B3E0F201612C6A
:101AC000712C962CA190B1908D919D918A259B258A
:101AD000009709F44AC1F12CCC24C394D12C9C0169
:101AE0002C213D21232B09F43AC1F9A29AA2AC2062
:101AF000BD2081E0A114B10409F480E08BA30E9411
:101B000069278160782F9DA38CA349A15AA16BA15D
:101B10008DA10E944004F301EE0FFF1FE45DFC4F16
:101B200080819181C826D926D182C082AB2839F024
:101B3000A8016F2D892D0E94272B282E01C0212C52
:101B4000C22CD12C80915803D601A80FB11D199732
:101B50006CF1A8E0AA2EB12CAC18BD08B601675AEA
:101B60007C4FA50189E593E00E94D534B6016F59F9
:101B70007C4FA50181E693E00E94D534A501440F76
:101B8000551FB601660F771F6F587C4F81E793E0B2
:101B90000E94D534B60167597C4FA50189E693E0D0
:101BA0000E94D53488E082198093580340915803ED
:101BB000680120E0622F640F221631F170E0F60117
:101BC00031916F01832F90E0DB01A85ABC4FFC01DB
:101BD000EE0FFF1FED52FE4F508111965C9311974F
:101BE000880F991FFC01EC52FE4F808119968C934F
:101BF000199751963C93660F771FFB01E85AFC4FEB
:101C0000128E118E2F5FD6CF6093580380911405EA
:101C10008C7F883709F0C1C0AFEFA90DDD24D394C4
:101C2000D90C5FEF5F0D41E04F0D5F1580F489E047
:101C3000869DF001879DF00D1124EC50FC4FE50FBF
:101C4000F11D20813E2D230F08F42FEF20832F2D2F
:101C500030E079E0769DC001779D900D11248C5085
:101C60009C4FFC01E20FF31F7081B0E26B2F760FE7
:101C700008F47FEF7083493049F0FC01E40FF11D57
:101C800070816E2D760F08F47FEF70837BE0D7169E
:101C900009F431C0CD2CD12C5F1588F489E08C9DDE
:101CA000F0018D9DF00D1124EC50FC4FE50FF11D5E
:101CB00080819DE0BC01670F08F46FEF6083E9E06D
:101CC000EC9DC001ED9D900D11248C509C4FFC01AA
:101CD000E20FF31F60817E2D670F08F46FEF6083C2
:101CE000493049F0FC01E40FF11D60817DE0670F90
:101CF00008F46FEF6083A91508F04FC0B0E05F15DE
:101D000080F489E08A9FF0018B9FF00D1124EC5044
:101D1000FC4FE50FF11D50816DE0560F08F45FEFA9
:101D2000508389E08A9FF0018B9FF00D1124CF0131
:101D30008C509C4FFC01E20FF31F20813E2D230F9E
:101D400008F42FEF2083493041F1FC01E40FF11D2D
:101D500020813DE0230F08F42FEF20831EC0F39471
:101D6000CC0CDD1C49E0F412BACE6FEF661A760A8D
:101D70007BE06716710409F0A4CE8FEF8EA38FA3CA
:101D800018A60E9469278160782F9AA789A74EA17B
:101D90005FA168A58AA50E9440040E94B51186E053
:101DA000E5EAF7E0D80101900D928A95E1F7B0904D
:101DB000A707C090A807D090A907F090AA07109293
:101DC000A7071092A8071092A9071092AA07B110AE
:101DD00003C0CC2009F451C08091A3079091A407BF
:101DE0000E944E279C0190919F07992309F4B3C24A
:101DF0002333310508F441C09F3F19F09F5F909352
:101E00009F07BB2061F00E94AB301B1414F491E0DB
:101E100001C09FEF899F802D11248093A707CC20BC
:101E200061F00E94AB301C1414F491E001C09FEFEC
:101E3000899F802D11248093A8073091A707332311
:101E4000E1F02091A8072223C1F045EB3403C00143
:101E50001124992319F09093A70703C081E0809380
:101E6000A70765EB2603C0011124992319F090936D
:101E7000A80703C081E08093A807D11003C0FF200A
:101E800009F451C08091A1079091A2070E944E27AA
:101E90009C0190919E07992309F462C22536310571
:101EA00008F441C09F3F19F09F5F90939E07DD208B
:101EB00061F00E9489301D1414F491E001C09FEF7D
:101EC000899F802D11248093A907FF2061F00E9433
:101ED00089301F1414F491E001C09FEF899F802D79
:101EE00011248093AA073091A9073323E1F02091B0
:101EF000AA072223C1F075EB3703C00111249923EF
:101F000019F09093A90703C081E08093A90735EBEE
:101F10002303C0011124992319F09093AA0703C049
:101F200081E08093AA078091A70781110BC080915F
:101F3000A807811107C08091A907811103C0809172
:101F4000AA0781110E94E82FBB82CC82DD82FE822B
:101F500086E0F801A5EAB7E001900D928A95E1F7D5
:101F60000E94272890912A03891731F00E94272880
:101F700080932A030E94E8048091DC04843009F0F5
:101F800041CD83E08093E9008091E80082FF3ACD63
:101F90008091E80085FF21C00E94E72481111BC0C9
:101FA00080E2C82ED12C580109C08091F100D501E2
:101FB0008D935D01B1E0CB1AD10869F08091E80002
:101FC00085FDF3CF8091E8008B778093E8000E9435
:101FD000E724882399F391E001C090E08091E80024
:101FE0008B778093E800992309F40CCDE9818E2F3B
:101FF00090E0FC013197E331F10508F063C1EE593F
:10200000FF4F0C94BB341A8289E0B8C08A818230B9
:1020100009F498C1833051F0813009F053C10E9416
:102020005D279B838C837D836E834EC1F801D20133
:102030008C9111969C91B2E04B0E511C928383833C
:1020400032962BA53CA52E173F0789F73DC18A8103
:10205000823009F037C16B817C818D819E810E9425
:10206000C13486E290E024C04C816B818A810E9459
:10207000A22D9D836EC1AD80BE80BA24AB24BA244C
:102080008C81CB809A8132E1C39E6001112446ECA1
:10209000949FC00CD11C1124C80ED11CC80ED11C99
:1020A0006B2DC60187960E940C346A2DC601889656
:1020B0000E940C3409C10E946E2D06C18A818138AC
:1020C000B1F050F4803809F0FFC020E04B816091FE
:1020D0006306809162062FC0823849F1833809F087
:1020E000F3C020E0409164066C818B8124C060E0E5
:1020F0008B810E941E2F9B818091610691110FC0E0
:102100008E7F809361066FEF70E782E061507040D0
:102110008040E1F700C000000E94122CD5C0816011
:102120008093610660E086950E941E2FCDC08B8152
:1021300080936506C9C00E94272CC6C08A81813859
:1021400099F030F4803809F0BFC08091640616C061
:10215000823891F0833809F0B7C0809162068B8392
:10216000809163068C83B0C08091610680FF02C0BD
:10217000869504C080E002C0809165068B83A4C070
:102180006091610670916206809163069091640689
:102190000E940C2F99C08A8297C01A8281ECEECFE0
:1021A000CA80DB80DC24CD24DC246C80712C5801B7
:1021B000C601815C9C4F9501201B310B261537050C
:1021C00008F082C0A1ECCA16D10428F40E94E833BA
:1021D000F501848303C0D50114961C92BFEFCB1A7E
:1021E000DB0AEFEFAE1ABE0AE3CFCA80DB80DC2445
:1021F000CD24DC246C80712C5801C601815C9C4F7D
:102200009501201B310B2615370508F05DC0F1EC58
:10221000CF16D10428F4D50114966C910E940C3489
:10222000BFEFCB1ADB0AEFEFAE1ABE0AE6CF0E9471
:102230005E2D4AC084E08A8347C0CA80DB80DC24EC
:10224000CD24DC246C80712C5801C6018796950141
:10225000201B310B26153705B8F5F8E1CF16F3E052
:10226000DF0630F40E94E833D50114968C9302C047
:10227000F5011482FFEFCF1ADF0A2FEFA21AB20A7C
:10228000E4CFCA80DB80DC24CD24DC246C80712C7C
:102290005801C60187969501201B310B261537057D
:1022A00098F438E1C31633E0D30628F4D501149628
:1022B0006C910E940C34BFEFCB1ADB0AEFEFAE1A21
:1022C000BE0AE7CF8FEF89838091DC04843009F068
:1022D00099CB8091E9008F702091EC00922F917042
:1022E00020FD90E8F92EF82A82E08093E9008091A1
:1022F000E80080FF0CC040E050E060E270E0C80100
:102300000E94D9208091E8008E778093E8008F2D7D
:102310008F708093E90076CBE9BCF9BC09B400FE6C
:10232000FDCF8091D8008F7D8093D8008091E00010
:1023300082608093E0008091E00081FDFCCF0E94EC
:10234000143267CB86E290E00E94E8331B821C8245
:102350001D828E83B9CF2D32314008F04FCD8DCD07
:102360002D32314008F0A0CDDECD2F923F924F921A
:102370005F926F927F928F929F92AF92BF92CF9215
:10238000DF92EF92FF920F931F93CF93DF93CDB71E
:10239000DEB729970FB6F894DEBF0FBECDBF809190
:1023A000810390918203A0918303B09184032FB79E
:1023B000F894C0902205D0902305E0902405F09079
:1023C00025052FBFC81AD90AEA0AFB0A0E945D2711
:1023D0004B015C01609381037093820380938303BC
:1023E00090938403A0915803E8E5F3E08A2F90E0EE
:1023F0004FEF5FEF60E070E04C195D096E097F09F7
:10240000A91799F0218D328D2901612C712C441569
:1024100055056605770510F4815004C02C0D3D1D4F
:10242000328F218F9F5F3296EBCF8093580380913C
:102430001405982F937021F0D82ED694D69401C00D
:10244000D12C909116019130E1F030F09230E1F111
:10245000933009F444C0ADC5109213018092E60494
:102460009092E704A092E804B092E90489E2E8E5DA
:10247000F3E0AAEEB4E001900D928A95E1F781E0D5
:102480002BC090911101D9120CC0837090E0409143
:10249000100150E021E08417950709F420E0822F15
:1024A00001C081E0817080931501809119059091A0
:1024B0001401981709F440C08093140140E060E0D3
:1024C00080E00E94232B38C0D0921101837080934A
:1024D00010010E94462E83E0809316016AC5809108
:1024E0001305882351F046E050E06CE170E084E190
:1024F00095E00E94FC33109213054091E604509140
:10250000E7046091E8047091E9042FB7F894809192
:10251000220590912305A0912405B09125052FBF98
:10252000841B950BA60BB70B4097A105B10508F4CA
:1025300040C5109216013DC58D2D90E08C3291055D
:1025400080F0809113018F5F8093130182E080936C
:1025500016018091150181112CC5DD2009F4BBCF36
:1025600028C5FC01EB58FF4F0C94BB34809115013A
:10257000882329F040E060E080E00E94232B80E087
:1025800010C58091130115E1819F102D112405E1E3
:10259000010F083608F007E66091150570911605E1
:1025A000809117050E94582FF62EE72EC82E10177F
:1025B00008F018C2E12FF0E0DF01AF55BD4F8C915C
:1025C00090911401982331F02C2D4F2D6E2DCF01B9
:1025D0000E94252B1F5FEBCF1091130185E1189FFF
:1025E000102D112405E1010F083608F007E6E090F0
:1025F0001605F0901705C09015056C2D7E2D8F2DBA
:102600000E94582FB62EA72E982E609118056C0D9B
:102610007E2D8F2D0E94582FF62EE72EC82E1017D4
:1026200008F0E0C1812F90E0FC01EF55FD4F3081B3
:1026300020911401232359F030FF04C02C2D4F2D7D
:102640006E2D03C0292D4B2D6A2D0E94252B1F5F57
:10265000E6CF1091130185E1189F102D112405E19B
:10266000010F083608F007E6E0901605C090170540
:102670002091180550E4F52E3F2D329F312D112465
:10268000F32E101708F0AEC1A12EB12CF501EF55B5
:10269000FD4F9081809114018923B9F0F501EE0F6F
:1026A000FF1FEC52FE4F808182958F70609115055F
:1026B0008F9D600D11247E2D8C2D0E94582F462F4A
:1026C000282F672FC5010E94252B1F5FDACF10919D
:1026D000130185E1189F102D112405E1010F083623
:1026E00008F007E6B0901605A09017052091180590
:1026F00030E4C32E4C2D429F412D1124C42E1017BF
:1027000008F070C1E12EF12CF701EF55FD4F9081DB
:10271000809114018923D9F0F701EE0FFF1FED52CC
:10272000FE4F6081C69EB001112495E075956795B6
:102730009A95E1F780911505680F7B2D8A2D0E94EF
:10274000582F462F282F672FC7010E94252B1F5F68
:10275000D6CF1091130185E1189F102D112405E1AA
:10276000010F083608F007E6E0901505F090160511
:10277000C0901705609118056695669566958091DD
:10278000E6049091E7040E94082C0E94542B805884
:1027900087FD8195880F282F3C2D239F212D112403
:1027A000822FB7010E94582FF62EE72EC82E101741
:1027B00008F018C1E12FF0E0DF01AF55BD4F8C915B
:1027C00090911401982331F02C2D4F2D6E2DCF01B7
:1027D0000E94252B1F5FEBCF8AE09AE202C08EEDAC
:1027E00099E20E94521FDDC383EE9AE202C084EC9C
:1027F0009AE20E947D20D5C389EA9AE21AC08DE848
:102800009AE217C08CED99E2ECCF83ED99E2E9CF23
:102810008AEC99E2E6CF8FEA99E2E3CF80EA99E287
:1028200008C08FED9BE2E5CF8CE79AE2E2CF88E625
:102830009AE20E940120B5C382E799E205C080E4D4
:1028400099E202C082E099E20E94A01FAAC380918F
:10285000150181111EC06091180520E1620F08F476
:102860006FEF8091E6049091E7040E94082C6AE0E3
:1028700070E00E949334892B09F081CE0E94C83306
:1028800067E670E00E94A734609114010E94792EDF
:1028900076CE8091130105E1809F002D1124B5E1D2
:1028A000FB2EF00E47E64F1510F4A7E6FA2E10E0C7
:1028B000AF2CB12C0A151B0544F460911401C8011A
:1028C0000E94792E0F5F1F4FF5CF81E096E69F158E
:1028D00008F067C354CE8091150181111EC060912C
:1028E000180520E1620F08F46FEF8091E6049091E3
:1028F000E7040E94082C65E070E00E949334892B65
:1029000009F03DCE0E94C83367E670E00E94A7340C
:10291000609114010E94522E32CE8091130105E184
:10292000809F002D1124F5E1FF2EF00EA7E6AF15D4
:1029300010F4E7E6FE2E10E0AF2CB12C0A151B05B3
:1029400044F460911401C8010E94522E0F5F1F4F82
:10295000F5CF81E0B6E6BF1508F023C310CE109185
:10296000130185E1189F102D112405E1010F083690
:1029700008F007E6E0901605F0901705C0901505E1
:10298000609118056695669566958091E60490912C
:10299000E7040E94082C0E94542B805887FD8195E3
:1029A000880F682F2CE0629F612D11246C0D7E2D05
:1029B0008F2D0E94582FF62EE72EC82E101790F458
:1029C000E12FF0E0DF01AF55BD4F8C9190911401E4
:1029D000982331F02C2D4F2D6E2DCF010E94252BE9
:1029E0001F5FECCF81E0073608F4DBC2C8CD85E776
:1029F0009BE2F7CE81EF98E2F4CE409185035091AF
:102A0000860360918703709188038091E60490911A
:102A1000E704A091E804B091E90484179507A6079C
:102A2000B70708F4ACCD0E94992BF82E0E94992B81
:102A300097E6891BF0F7890F082F10E0F801EF5592
:102A4000FD4F909114018081892309F4A9C2F1FE00
:102A500004C020E040E060E013C00E94992BF82EF3
:102A60000E94992B8695782F2FE7720F08F47FEF3D
:102A70006F2D809117050E94582F462F282F672F02
:102A8000C8010E94252B2091180530E1230F08F47E
:102A90002FEF60E1822F90E00E94082CBC0184EFB0
:102AA00091E00E9493348091E6049091E704A09114
:102AB000E804B091E904860F971FA11DB11D809312
:102AC000850390938603A0938703B093880357CD23
:102AD0004091EC035091ED036091EE037091EF0390
:102AE0008091E6049091E704A091E804B091E90494
:102AF00084179507A607B70708F441CD609115051F
:102B000070911605809117050E94582FC62E772EBA
:102B1000682E09E813E060E7E62E61E0F62E7CEE11
:102B2000472E73E0572E47015801312CF501808163
:102B3000882331F0D4018C91262D4C2D672D05C0B2
:102B4000F401808120E040E060E090E00E94252BCD
:102B5000D50111968C91F50181935F013394FFEFBC
:102B60008F1A9F0A23E03212E1CF4701580158E043
:102B7000352ED50118968C91882331F0F40180858B
:102B8000262D4C2D672D06C0D40118968C9120E07F
:102B900040E060E090E00E94252BF501878180876E
:102BA0003A94F1E0AF1AB10821E0821A910834E0BA
:102BB0003312DFCFD80114968C91882331F0F701BE
:102BC0008481262D4C2D672D06C0D70114968C913B
:102BD00020E040E060E090E00E94252BF801838136
:102BE000882339F0D70113968C91262D4C2D672D13
:102BF00005C0F701838120E040E060E090E00E94A2
:102C0000252B0E94992B837091E009F090E0D80168
:102C100013969C93139714969C93075F1F4FB9E0EC
:102C2000EB0EF11C4016510609F07DCF20911805DE
:102C300030E1230F08F42FEF60E1822F90E00E9433
:102C4000082CBC0188EB9BE00E9493348091E60441
:102C50009091E704A091E804B091E904860F971FD2
:102C6000A11DB11D8093EC039093ED03A093EE039F
:102C7000B093EF0384CC8091130105E1809F002D78
:102C80001124E5E1E00FE987E43610F0F3E6F98777
:102C900080911501882361F040E060E080E00E94AF
:102CA000232B83E6E4EFF3E0DF011D928A95E9F739
:102CB00080911301811115C08091F1039091F2036D
:102CC0000E944E2721E08931910508F420E02093ED
:102CD000F003499730F00E9469279093F2038093A4
:102CE000F10310E0B9854B2E512C49E0342EFE0142
:102CF00031964F01041515050CF064C0C8016BE056
:102D000070E00E94A7347B013C01389EF001399E9F
:102D1000F00D1124EC50FC4FE60FF71FC080A4010A
:102D20000E94272B282E54018A2D8819821508F01D
:102D300032C0D501EC91F0E0EF55FD4F90818091CC
:102D40001401892321F13C2D25E5321B08F430E0E4
:102D5000709116052AEA4C2D240F08F42FEF4091AC
:102D6000170582E0289F200D11242E5F249F212D1E
:102D700011246AEA631B822F0E94582F462FD50127
:102D80009C91282F672F892F90E00E94252BBFEF61
:102D9000AB1ABB0AC9CF8091F003882381F02C2D98
:102DA00031E0231B08F420E0369CC001379C900DD5
:102DB00011248C509C4FFC01EE0DFF1D20830F5FF2
:102DC0001F4F98CF81E04985433608F4EAC0D7CB3E
:102DD00080911501882371F040E060E080E00E945E
:102DE000232B83E6E4EFF3E0DF011D928A95E9F7F8
:102DF0001092F30384EFE82E83E0F82E712C662402
:102E00006A9490EDA92EB12C20EC522E3FE2832E35
:102E1000912C8701C12CC1100CC08091F30381114A
:102E200008C00E94C833853595401CF4F7016082C4
:102E300006C0D8018C9181508E3F08F48C93AE016E
:102E40004F5F5F4F672D8C2D0E94272B882309F140
:102E5000F8012081E981213D70F030E0205D3109E9
:102E6000529EC001539E900D1124B4010E949334D0
:102E7000262F4FEF0AC0FFEF2F9FC0011124B5018D
:102E80000E949334462F20E060E08E2F90E00E9455
:102E9000252BC394075F1F4F2BE0C212BCCF739446
:102EA0003FEFE31AF30A49E07412B3CF8091F303C2
:102EB0008F5F8D3118F48093F30361CB1092F3038D
:102EC00025E434E08AE067E574E09EEFAEE4B4E028
:102ED000F9018A3021F44C914F3F09F49C934081D1
:102EE0004F3F11F490834187319611966A177B0703
:102EF00081F78150295031098111E8CF40CB8AEE0A
:102F000098E202C084EE98E20E94DD1E4AC08091E1
:102F1000EA0421E0382F321B08F430E0832F6BECF9
:102F200078E23BC06BEC78E237C08091EA0421E0A4
:102F3000482F421B08F440E0842F63E978E22DC05B
:102F400063E978E229C08091EA0421E0382F321B3E
:102F500008F430E0832F61E678E21FC061E678E292
:102F60001BC08091EA0421E0482F421B08F440E096
:102F7000842F69E478E211C069E478E20DC08091A1
:102F8000EA0421E0382F321B08F430E0832F63E39A
:102F900078E203C063E378E280E00E94151E01C07E
:102FA00081E0909113019F5F90931301882309F4AE
:102FB000CDCA29960FB6F894DEBF0FBECDBFDF9104
:102FC000CF911F910F91FF90EF90DF90CF90BF9026
:102FD000AF909F908F907F906F905F904F903F90B9
:102FE0002F90089580E008959091260592FF0DC0DE
:102FF000282F2871283019F4877F846006C0282F75
:103000002471243011F48B7F886093FF0DC0282F2A
:103010002871283119F4877E846106C0282F247115
:10302000243111F48B7E88612091270520FF0DC08B
:10303000382F3871383019F4877F816006C0382FF7
:103040003171313011F48E7F886021FF0DC0282F3F
:103050002871283119F4877E816106C0282F2171DB
:10306000213111F48E7E886194FD877E0895F89455
:10307000E82FE295EF70F0E031A1282F2F7081E06A
:1030800090E001C0880F2A95EAF7982F9095932336
:1030900091A392A1892B82A3789408958F929F92F5
:1030A000AF92BF92CF92DF92EF92FF920F931F9356
:1030B000CF93DF93CDB7DEB766970FB6F894DEBF38
:1030C0000FBECDBFAE014F5F5F4F7A0186E1DA01DF
:1030D0001D928A95E9F70CE111E0CC24C394D12C20
:1030E000AA24A394B12C4E01B7E18B0E911CF801D8
:1030F00080818F3F09F44AC0F894E82FE295EF7081
:10310000F0E021A18F70A50102C0440F551F8A95E0
:10311000E2F7CA01922F982B91A392A1809589235F
:1031200082A3789400C065E271E0F701A6014095A2
:103130005095DB012D91BD012F3FA9F0822F829583
:103140008F7090E0DC0190968C9190E02F7002C01F
:10315000959587952A95E2F780FD05C0808191813C
:103160008C299D2904C0808191818423952391839A
:10317000808332968E169F06E1F6F80180818F3F9C
:1031800011F00E943718F0EAFA95F1F7CC0CDD1C2B
:103190000F5F1F4F41E00532140709F0A8CF46E149
:1031A00050E0B70183E193E00E94C83411E000973A
:1031B00009F410E0892B89F086E1F701A3E1B3E07F
:1031C00001900D928A95E1F781E08093B7040E9407
:1031D00069279093B6048093B5048091B70488233F
:1031E000B1F08091B5049091B6040E944E270597E6
:1031F00070F0E3E1F3E0A2E4B3E0819191918D936B
:103200009D9353E0E932F507C1F71092B704812F7F
:1032100066960FB6F894DEBF0FBECDBFDF91CF919B
:103220001F910F91FF90EF90DF90CF90BF90AF90E4
:103230009F908F900895CF93DF938238910569F125
:10324000B0F48133910509F46FC048F489329105D7
:1032500009F465C08A32910509F46BC08AC08533D0
:10326000910509F457C089339105B9F082C0833EB6
:10327000910571F138F4803E9105B1F0823E9105DF
:1032800011F177C0863E9105B9F1873E9105C9F1EC
:10329000843E910509F06DC024C02091260520FDD3
:1032A00053C021FD51C065C08091260580FD46C0F8
:1032B0008091270580FF48C08091260584FD50C17C
:1032C00083EE90E04FC18091260582FF3AC0F4CF93
:1032D0008091260582FD35C08091270580FD34C090
:1032E000EBCF8091270581FF35C08091260584FDB5
:1032F00037C187EE90E036C18091260583FF27C055
:10330000F4CF8091260583FD22C08091270581FDA1
:1033100021C0EBCF8091260585FD1FC021C0809183
:10332000260585FD1DC019C08091260586FD1BC0A0
:103330001DC08091260586FD19C015C089E390E067
:1033400011C182EE90E00EC180EE90E00BC186EEDE
:1033500090E008C184EE90E005C189E290E002C1EE
:1033600085E390E0FFC08AE290E0FCC081E390E05A
:10337000F9C0811531E5930708F069C0811540E572
:103380009407F0F09C0174E0369527957A95E1F763
:10339000922F9370482F437021E030E002C0220F3B
:1033A000331F4A95E2F73C68392B982F9F7096950A
:1033B000969540E2949FC0011124822B932BD2C09A
:1033C000883E910568F5803E910508F0CBC0883AAB
:1033D0009105B8F4853A910548F0855AE82FF0E058
:1033E000E05DFE4F808190E09064BCC0813091052B
:1033F00009F4B3C008F4B4C08430910508F4B0C037
:10340000B1C08F3B910508F0ABC0885AE82FF0E0BF
:10341000EE0FFF1FED5CFE4F808191819464A2C08E
:10342000811520E2920758F4811531E0930708F0E6
:1034300099C0803F910508F493C0906593C08115B1
:1034400040E4940708F48CC09F70906A8BC081158B
:1034500025E5920708F042C0811534E5930728F06E
:10346000982F8827846F906A7DC0811543E5940763
:10347000B0F09C012370332741E050E002C0440FBC
:10348000551F2A95E2F7282F2695269580E2289F3A
:1034900090011124CA01822B932B9A6863C0811575
:1034A00022E5920728F4982F8827816F906A5AC0E6
:1034B0009C012370332741E050E002C0440F551FA8
:1034C0002A95E2F7282F2695269580E2289F9001DD
:1034D0001124CA01822B932B9C6844C0EC018115F6
:1034E00039E59307A8F48115984528F09C2F882783
:1034F000806F906A37C0C11586E5D80788F58C2F94
:103500000E94F4178F7190E0982F882790622AC04C
:1035100081152AE5920790F48C2F8F700E94F41782
:1035200094E0D695C7959A95E1F7CF70D0E0DC2F5F
:10353000CC27D0699E01282BC90114C09056811553
:10354000904270F48D2F8F710E94F417282F2F71E5
:10355000CE0199279062922B05C081E090E002C0D5
:1035600080E090E0DF91CF910895CF93C92F682F2D
:1035700084E090E00E940C346C2F82E290E0CF91C6
:103580000C940C34CF9384E090E00E94E833C82F71
:1035900082E290E00E94E8332C2F30E0A901582B02
:1035A000CA01CF91089580E090E00E94F633893EF1
:1035B0009E4F11F40C94022E80E0089569EE7EEF88
:1035C00080E090E00E942A3460E082E090E00E9477
:1035D0000C3460E083E090E00E940C341092B4045C
:1035E00060E084E090E00E940C3460E082E290E0D1
:1035F0000E940C3460E085E090E00E940C3460E0B2
:1036000086E090E00E940C346FEF87E090E00E942B
:103610000C3440E050E0BA0188E090E00E941E3493
:1036200060E08DE090E00E940C3440E050E0BA0190
:1036300088E190E00E941E3460E087E190E00E9403
:103640000C3440E050E0BA018CE190E00E941E345E
:1036500060E070E080E290E00E942A3440E050E0B8
:10366000BA0188E190E00E941E3480E00E94D52DCE
:103670000E94F32D40E050E0BA018FE090E00E94FC
:103680001E3440E050E0BA0183E190E00C941E3417
:103690008091B30481111092B304089580959091A4
:1036A000B20489238093B20408959091B20480916A
:1036B000B104892B2091B004982F922B909357043A
:1036C0008091B3048823D9F0892B8093570480918B
:1036D0001201882331F08091260587FF02C08EE118
:1036E00001C086E0E9E5F4E090E0815028F0219106
:1036F0002223D9F39F5FF9CF91110E94481BE091DB
:103700001D05F0911E053097A9F0809112018823C4
:1037100059F08091260587FF07C080915704809358
:10372000580486E0809357040280F381E02D87E5FA
:1037300094E0099408952091AF04809582238093AA
:10374000AF04982F977099F430E0482F082E000CA2
:10375000550B2417350759F09091270592FD07C0A6
:103760008595859585950E94CD311092AF04089579
:103770009091270592FB222720F9281769F080FBFA
:1037800092F99093270580912605909127050E9434
:10379000B51A82E00C949B1B08958091AE04909121
:1037A0007D04891719F08F5F8770FBCF08950F9301
:1037B0001F93CF93DF9380917C0482958F7009F0E3
:1037C0005DC080917904882309F458C08091AE04CB
:1037D00010917D046091770470917804C0917A040F
:1037E000D0917B0491E06F3F09F090E0292F06E033
:1037F000811709F443C0209721F07F3F21F030E08A
:1038000003C031E001C0322F90E030FD34C0089F8A
:10381000F001099FF00D1124DF01A258BB4F119652
:103820003C911197371327C03C91361324C0129650
:103830003C91129731111FC013964D915C911497D2
:103840004C1B5D0B483C5105B0F480917C048F709B
:10385000806180937C04ED57FB4F80818F70806185
:10386000808387E794E00E94EE04DF91CF911F915F
:103870000F910C94CD1B01968770BACFDF91CF9139
:103880001F910F910895CF93DF93EC010E94433174
:10389000BE010E94C82D0E941B19DF91CF9108958F
:1038A0009F92AF92BF92CF92DF92EF92FF920F93CF
:1038B0001F93CF93DF93CDB7DEB761970FB6F89420
:1038C000DEBF0FBECDBF8C0185E0F801DE011D9685
:1038D00001900D928A95E1F7F801E28090917704CA
:1038E0006091780440917A0450917B044115510510
:1038F00031F06F3F31F481E09F3F19F403C081E064
:1039000001C080E0F82FF1709F2E80FD1AC1F801F0
:1039100030812181C380D48087E7A82E84E0B82E2F
:10392000F0907904F601E41BF50BFF2009F4C6C002
:1039300080917C04E83CF10508F091C0482F407F5D
:1039400009F050C0621311C093130FC0FE2CE11098
:103950000CC08F70806180937C04C5010E94EE04CE
:1039600080917C04F801858329C1CD2831F02F3F57
:1039700031F481E03F3F19F403C081E001C080E0F1
:1039800080FD03C081E08E2502C080E090E0F82F2A
:10399000F170FF2E80FF1CC08091AE0440917D0429
:1039A00056E0841709F4E8C090E0589FF001599F51
:1039B000F00D1124E258FB4F6181261306C060818F
:1039C000631303C06281E61203C001968770E9CFDA
:1039D000FE2CEE2009F4F2C080917C04816080937B
:1039E0007C0449C0621306C0931304C0E11002C0F6
:1039F000F80186C0C8010E94E831882351F1EE2009
:103A000041F120917C04822F82958F7090E0029783
:103A100074F0809177049091780498878F83198649
:103A2000DB86CA862C87CE0107960E94EE0486E0CC
:103A3000F801A7E7B4E001900D928A95E1F70E94A2
:103A4000D71B0AC06217C9F0C8010E94E831811172
:103A50001EC0C8010E94EE04FF24F394AFC0482F9B
:103A6000407F81F787E794E00E94EE0486E0F5014D
:103A700011928A95E9F7F12CA1C09313E5CFE110DB
:103A8000E3CFF8018583C8010E94EE0454C0EE2004
:103A900001F320917C04822F82958F7090E0029731
:103AA00034F280917704909178049A8389831B8201
:103AB000DD82CC822E83CE010196B7CFE83CF105A2
:103AC000D0F5FE2CEE2029F2621327C0931325C0F7
:103AD00020917C0420FD18C0822F82958F70482F82
:103AE00050E04115510581F0F80125834F30510513
:103AF00041F08F5F982F9295907F822F8F70892B46
:103B00008583C8010E94EE0486E0F801A7E7B4E0CF
:103B100001900D928A95E1F751C0C8010E94E831E9
:103B2000811185CF80917C04816080937C04C801E1
:103B30000E94EE0443C086E0F50111928A95E9F7F0
:103B40003DC0EE2009F485CFC8010E94E831F82E6F
:103B5000882309F47ECF86E0F801A7E7B4E001905E
:103B60000D928A95E1F780917704909178040E94F4
:103B7000431C0E94D71B22C03D872E878D859E85C2
:103B80000E94431C292F22952F70223028F49F7009
:103B900039F0811105C00BC0243028F49F7049F41E
:103BA000805E883020F0C8010E94EE049F2CF92C22
:103BB00005C0F8019581907F99F7F9CF8F2D619617
:103BC0000FB6F894DEBF0FBECDBFDF91CF911F912E
:103BD0000F91FF90EF90DF90CF90BF90AF909F90AC
:103BE000089580911A05982F9670963011F4886088
:103BF00001C0877F0C94C931909114059370A1F096
:103C0000811102C0946007C08C3210F09C6A03C01E
:103C1000880F880F982B90931405109216018091AD
:103C2000130581608093130508952F923F924F9260
:103C30005F926F927F928F929F92AF92BF92CF923C
:103C4000DF92EF92FF920F931F93CF93DF93CDB745
:103C5000DEB727970FB6F894DEBF0FBECDBF282E74
:103C60004B012091130185E1289F802D11248E8323
:103C7000182F1B5E183608F017E63091EA043983D6
:103C80009E81911708F07CC08E81682E712CF30103
:103C9000EF55FD4F908180911401892309F46CC088
:103CA0003090150540901605522C1F82C301880FD5
:103CB000991FDC01AD52BE4FBB83AA83C301880F9D
:103CC000991FFC01EC52FE4FFD83EC83F9815F16D6
:103CD00008F040C0E52CF12CAA81BB81CC90D12CFE
:103CE000F701E651FB4F8181C81AD108AC81BD8133
:103CF000AC90B12C8185A81AB108CC9C9001CD9CC8
:103D0000300D300D1124AA9CC001AB9C900D900D7C
:103D10001124820F931F0E94AE2B082F609118056B
:103D200021E0620F08F46FEFF701EE0FFF1FE6517D
:103D3000FB4F818D928D0E94082C7C019501A6017C
:103D4000632D742D8F81F4010995362E472E8F83B4
:103D50005394BCCF209117058F81382F329F312D7E
:103D60001124832F632D742D0E94582F462F282F46
:103D7000672FC3010E94252B8E818F5F8E8380CF9A
:103D800081E0173608F080E027960FB6F894DEBF82
:103D90000FBECDBFDF91CF911F910F91FF90EF909C
:103DA000DF90CF90BF90AF909F908F907F906F905B
:103DB0005F904F903F902F900895CF92DF92EF92B7
:103DC000FF920F931F93CF93DF938C01C091130148
:103DD00085E1C89FC02D1124D5E1DC0FD83608F04D
:103DE000D7E62091180531E0230F08F42FEF30E0DB
:103DF00040E050E06FEF7FEF80E090E00E943034D1
:103E00007901CD1708F041C0CC2ED12CF601EF5529
:103E1000FD4F9081809114018923A9F19091EA04CA
:103E2000915097FD15C0492F092E000C550BFA0132
:103E3000E651FB4F8189C813F3CF440F551FFA0198
:103E4000E651FB4F218D328D2E153F0548F701C0FD
:103E500097016091180541E0640F08F46FEFC90104
:103E60000E94082CAC016091150570911605809197
:103E70001705F80109950E94582F462F282F672F04
:103E8000C6010E94252BCF5FBCCF81E0D73608F05A
:103E900080E0DF91CF911F910F91FF90EF90DF9025
:103EA000CF900895DF92EF92FF920F931F93CF93DD
:103EB000DF938C01C091130185E1C89FC02D1124AF
:103EC000D5E1DC0FD83608F0D7E660911805669585
:103ED000669521E0620F08F46FEF8091E6049091FF
:103EE000E7040E94082CD82ECD17F0F4EC2EF12C0C
:103EF000F701EF55FD4F908180911401892391F0D6
:103F00006091150570911605809117052D2D4C2F88
:103F1000F80109950E94582F462F282F672FC701B7
:103F20000E94252BCF5FE0CF81E0D73608F080E0FC
:103F3000DF91CF911F910F91FF90EF90DF90089547
:103F40009F92AF92BF92CF92DF92EF92FF920F9328
:103F50001F93CF93DF936C01C091130185E1C89F3C
:103F6000C02D1124D5E1DC0FD83608F0D7E66091DA
:103F70001805669566958091E6049091E7040E9485
:103F8000082C182F80E4810F0E94542B90E8F92E02
:103F9000F80E812F0E94542B20E8922E980ECD17F8
:103FA00000F5AC2EB12CF501EF55FD4F90818091BD
:103FB00014018923A1F06091150570911605809177
:103FC0001705E12E0C2F292D4F2DF60109950E9482
:103FD000582F462F282F672FC5010E94252BCF5F12
:103FE000DECF81E0D73608F080E0DF91CF911F91DE
:103FF0000F91FF90EF90DF90CF90BF90AF909F9088
:1040000008956F927F928F929F92AF92BF92CF92BC
:10401000DF92EF920F931F93CF93DF933C01C091F8
:10402000130185E1C89FC02D1124D5E1DC0FD836DE
:1040300008F0D7E66091180566958091E6049091A6
:10404000E7040E94082C182FCD1708F044C08C2ECE
:10405000912CF401EF55FD4F90818091140189233B
:10406000C1F1F401EE0FFF1FED52FE4FC080D12CC5
:1040700080E7C81AD108F401EE0FFF1FEC52FE4F83
:10408000A080B12CE0E2AE1AB108CC9C9001CD9C8E
:10409000300D300D1124AA9CC001AB9C900D900DE9
:1040A0001124820F931F0E94AE2B082F60911505DB
:1040B0007091160580911705E12E9501A601F30177
:1040C00009950E94582F462F282F672FC4010E9460
:1040D000252BCF5FB9CF81E0D73608F080E0DF91A4
:1040E000CF911F910F91EF90DF90CF90BF90AF9045
:1040F0009F908F907F906F900895CF92DF92EF9274
:10410000FF920F931F93CF93DF936C01C091130124
:1041100085E1C89FC02D1124D5E1DC0FD83608F009
:10412000D7E66091180566958091E6049091E704C2
:104130000E94082C182FCD1778F5EC2EF12CF701E2
:10414000EF55FD4F908180911401892319F1F701FA
:10415000EE0FFF1FEC52FE4F208130E0205231095C
:10416000F701EE0FFF1FED52FE4F408150E0405728
:104170005109609115057091160580911705012F61
:10418000F60109950E94582F462F282F672FC70147
:104190000E94252BCF5FCFCF81E0D73608F080E09B
:1041A000DF91CF911F910F91FF90EF90DF90CF9013
:1041B0000895EF92FF920F931F93CF93DF937C01AB
:1041C0008B010E94E724811119C0E7010115110537
:1041D000A1F08091E80085FD0AC08091E8008E770B
:1041E0008093E8000E94E724882381F307C0899127
:1041F0008093F10001501109E9CF80E0DF91CF9168
:104200001F910F91FF90EF90089590911405937076
:1042100071F08093150560931605453B08F044EB5B
:1042200040931705809113058160809313050895CD
:104230001F93CF93DF93CDB7DEB7AA970FB6F8944D
:10424000DEBF0FBECDBFEEEDF4E086EE94E0209130
:10425000F10021938E179F07D1F78091DF048330FF
:1042600009F463C030F4813071F0823009F49DC0EC
:10427000B4C08A3009F489C08B3009F46EC089302B
:1042800009F0ABC020C08091DE04813A09F0A5C0DE
:104290008091E800877F8093E8008091E20490910C
:1042A000E304892B21F460E28AEB94E003C060E030
:1042B00080E090E070E00E94A6268091E8008B7775
:1042C0008093E8008AC08091DE04813209F085C0C5
:1042D0008091E2049091E304009719F0029709F0AD
:1042E0007CC08091E800877F8093E8008091E8009F
:1042F00082FD05C08091DC048111F8CF6EC0209151
:10430000F3008091F20090E0922B029731F48091BB
:10431000F100813011F0863021F48091F10080931A
:10432000B9048091E8008B7754C08091DE04813A13
:1043300009F053C08091E2049091E304892B09F0C5
:104340004CC08091E800877F8093E8008091E8006E
:1043500080FFFCCF8091120137C08091DE04813252
:10436000E1F58091E2049091E304892BB1F580910D
:10437000E800877F8093E8000E941A258091E0047E
:10438000809312010E94143228C08091DE04813291
:1043900021F58091E800877F8093E8000E941A252C
:1043A0008091E1048093B80418C08091DE04813AC2
:1043B000A1F48091E800877F8093E8008091E80075
:1043C00080FFFCCF8091B8048093F1008091E800D9
:1043D0008E778093E8000E941A258091E80083FF81
:1043E000DFC18091DE049091DF04492F50E04A3014
:1043F000510508F0D5C1FA01EF55FF4F0C94BB34BD
:10440000803821F0823809F0CBC108C08091DA04ED
:104410009091DB04992389F082600FC08091E204BF
:104420008F70873008F0BCC18093E9008091EB0069
:1044300085FB882780F91092E9009091E800977F2A
:104440009093E8008093F1001092F10070C1282F42
:104450002D7F09F0A5C1882319F0823061F0A0C139
:104460008091E004813009F09BC1933009F080E035
:104470008093DB042EC08091E00481112AC08091DA
:10448000E2048F702FEF280F263008F089C1809347
:10449000E9002091EB0020FF1CC0933021F48091B3
:1044A000EB00806214C09091EB0090619093EB0060
:1044B00021E030E0A90102C0440F551F8A95E2F7C0
:1044C0004093EA001092EA008091EB0088608093AC
:1044D000EB001092E9008091E800877F8093E8006C
:1044E0000E941A255DC181115BC11091E0041F7704
:1044F0008091E3008078812B8093E3008091E80035
:10450000877F8093E8000E941A258091E80080FF51
:10451000FCCF8091E30080688093E300111102C01A
:1045200082E001C083E08093DC043AC1805882308D
:1045300008F036C12091E0043091E1042C3D53E0B5
:10454000350779F583E08A838AE289834FB7F89447
:10455000DE01139620E03EE051E2E32FF0E05093BD
:104560005700E49120FF03C0E295EF703F5FEF70CA
:104570008E2F90E0EA3010F0C79601C0C0968D9360
:104580009D932F5F243149F74FBF8091E800877FCB
:104590008093E8006AE270E0CE0101960E94A626B0
:1045A000B4C08091E2049091E304432F5527433037
:1045B0005105A9F068F44130510509F400C14230B9
:1045C000510509F0EDC08BE590E0EAE3F3E04BC064
:1045D0004132510529F14232510589F1E1C0C90149
:1045E000992781309105A1F058F0029709F0D8C0C1
:1045F000E7EAF3E0E4918E2F90E0E7EAF3E030C0E1
:10460000E1EDF3E0E4918E2F90E0E1EDF3E028C0DE
:10461000E1ECF3E0E4918E2F90E0E1ECF3E020C0D8
:104620008330910508F0BCC0880F991FFC01E65942
:10463000FE4F0190F081E02D89E090E014C08330BE
:10464000910508F0ADC0FC01EE0FFF1FEC59FE4FC5
:104650000190F081E02DDC01AF59BE4F8C9190E0CC
:10466000009709F49DC02091E800277F2093E8007F
:104670002091E4043091E5042817390708F4C901B2
:1046800040E0009789F12091DC04222309F43DC029
:104690002530D9F12091E80023FD37C02091E800B2
:1046A00022FD2FC02091E80020FFEBCF4091F300C6
:1046B0002091F20030E0342B009759F0283031057A
:1046C00040F444914093F100319601972F5F3F4FA2
:1046D000F3CF41E02830310509F040E02091E800B7
:1046E0002E772093E800CDCF4111CDCF0AC0809125
:1046F000DC04882351F0853041F08091E80083FD8F
:1047000004C08091E80082FFF2CF8091E8008B77AF
:104710008093E80045C0803809F042C08091E800ED
:10472000877F8093E8008091DD048093F100809181
:10473000E8008E77D3CE811133C08091E004909150
:10474000E1049927029764F58091E800877F8093C0
:10475000E8001091E0041093DD040E941A25111165
:1047600006C08091E30087FD02C081E001C084E0C3
:104770008093DC0442E061EC81E00E94392542E252
:1047800061EC84E00E94392542E261EC82E00E9403
:10479000392542E260EC83E00E9439258091DC04F7
:1047A0008091E80083FF10C08091E800877F8093AC
:1047B000E8008091EB0080628093EB0005C082E10D
:1047C00090E0E5E9F3E04FCFAA960FB6F894DEBF8C
:1047D0000FBECDBFDF91CF911F91089508958091B5
:1047E000B90408958093280570932A0560932905DC
:1047F0008091DC048430F9F48093E9008FEF90918C
:10480000E800815095FD06C095ED9A95F1F70000FE
:104810008111F5CF8091E80085FF0DC040E050E0A8
:1048200063E070E088E295E00E94D9208091E80082
:104830008E778093E8000895BC0184E00C94F22305
:10484000BC0183E00C94F22324E02093E9002FEFD5
:104850003091E800215035FD06C035ED3A95F1F76D
:1048600000002111F5CF2091E80025FF0BC040E0AA
:1048700050E066E070E00E94D9208091E8008E77D9
:104880008093E8000895CF93DF93209112012223B3
:1048900039F02091260527FF03C060E224E002C022
:1048A00068E021E02093E9002FEF3091E8002150EB
:1048B00035FD06C035ED3A95F1F700002111F5CF31
:1048C0002091E80025FF1DC0EC01809112018111AB
:1048D00005C040E050E068E070E003C070E040E0F8
:1048E00050E0CE010E94D9208091E8008E7780931D
:1048F000E80080E2FE01AAEBB4E001900D928A95F7
:10490000E1F7DF91CF9108951F920F920FB60F92AA
:1049100011242F933F934F935F936F937F938F93C4
:104920009F93AF93BF93CF93DF93EF93FF93C09188
:10493000E900CF708091EC00D82FD17080FDD0E8D5
:104940001092E9008091F000877F8093F0007894C6
:104950000E9418211092E9008091F00088608093F5
:10496000F000CD2BCF70C093E900FF91EF91DF9164
:10497000CF91BF91AF919F918F917F916F915F91F7
:104980004F913F912F910F900FBE0F901F90189550
:10499000E8EDF0E080818E7F80831092E20010923B
:1049A000DA001092E100A0EEB0E08C9181608C936F
:1049B00080818F77808319BCA7EDB0E08C918E7FCA
:1049C0008C9380818F7E808310922B050895209197
:1049D000E4003091E50095E64091EC00842F817071
:1049E00040FF23C08091E80080FD1DC08091DC0461
:1049F000882399F0853099F08091EB0085FD11C0F6
:104A00004091E4005091E5002417350729F39150B7
:104A100011F09A01E1CF84E0089582E0089583E0E7
:104A2000089581E0089580E008954091E80042FFF4
:104A3000DDCF08958091DE0487FF11C08091E800EA
:104A400082FD05C08091DC048111F8CF11C08091F6
:104A5000E8008B770BC08091DC04882349F08091BB
:104A6000E80080FFF8CF8091E8008E778093E8001F
:104A70000895982F973068F59093E900981739F0CA
:104A80007091EC002091ED005091F00003C0242FB4
:104A9000762F50E021FD02C09F5FECCF3091EB00FC
:104AA0003E7F3093EB003091ED003D7F3093ED0081
:104AB0003091EB0031603093EB007093EC00209369
:104AC000ED005093F0002091EE0027FDE5CF80E04F
:104AD00008958F708093E90081E00895CF92DF926E
:104AE000EF92FF920F931F93CF93DF93C8EDD0E027
:104AF00088818F7E8883E7EDF0E08081816080830C
:104B000084E082BF81E080932B0588818E7F88833B
:104B100002EE10E0F80110821092DA0081EEC82E49
:104B2000D12CF601108288818F77888388818068F4
:104B3000888388818F7D888319BC1092DC04109251
:104B4000DD041092DB041092DA0490EEE92EF12CD1
:104B5000F70180818B7F808388818160888342E038
:104B600060E080E00E943925F60180818E7F80839D
:104B7000F801808181608083808188608083F70173
:104B800080818E7F8083888180618883DF91CF914F
:104B90001F910F91FF90EF90DF90CF9008951F929B
:104BA0000F920FB60F9211242F933F934F935F9361
:104BB0006F937F938F939F93AF93BF93EF93FF93E5
:104BC0008091E10082FF09C08091E20082FF05C070
:104BD0008091E1008B7F8093E1008091DA0080FF7B
:104BE0002AC08091D80080FF26C08091DA008E7F95
:104BF0008093DA008091D90080FF18C080E189BDE0
:104C000082E189BD09B400FEFDCF81E08093DC0420
:104C100080912B0581110FC00E94C8240E946E252F
:104C20008091E20084608093E20005C019BC10927C
:104C3000DC0410922B058091E10080FF17C0809169
:104C4000E20080FF13C08091E2008E7F8093E2003B
:104C50008091E20080618093E2008091D8008062C0
:104C60008093D80019BC85E08093DC048091E1003A
:104C700084FF30C08091E20084FF2CC080E189BDB8
:104C800082E189BD09B400FEFDCF8091D8008F7DFF
:104C90008093D8008091E1008F7E8093E100809125
:104CA000E2008F7E8093E2008091E2008160809339
:104CB000E2008091DD04882311F084E007C0809138
:104CC000E30087FD02C081E001C083E08093DC0443
:104CD0008091DC048091E10083FF27C08091E20095
:104CE00083FF23C08091E100877F8093E10082E011
:104CF0008093DC041092DD048091E1008E7F80932C
:104D0000E1008091E2008E7F8093E2008091E200DA
:104D100080618093E20042E060E080E00E943925FB
:104D20008091F00088608093F000FF91EF91BF9137
:104D3000AF919F918F917F916F915F914F913F9133
:104D40002F910F900FBE0F901F9018952091E404A3
:104D50003091E5042617370748F06115710539F4DD
:104D60002091E8002E772093E80001C0B901FC01F2
:104D700020E06115710579F18091DC048823F1F15F
:104D80008530F1F18091E80083FD3CC08091E8001E
:104D900082FD2EC08091E80080FFEBCF2091F300D0
:104DA0008091F20090E0922B6115710551F08830EE
:104DB000910538F421912093F10061507109019619
:104DC000F3CF21E0089709F020E08091E8008E778A
:104DD0008093E800CECF2111CFCF0AC08091DC04B0
:104DE000882361F0853061F08091E80083FD0AC07E
:104DF0008091E80082FFF2CF80E0089582E008957C
:104E000083E0089581E0089581E08093E00080E2EE
:104E10008093D8001092C9008FE19EE40197F1F7CA
:104E200000C0000087E090EBDC018093D2079093F4
:104E3000D307A093D407B093D5079CE088E10FB6C1
:104E4000F894A895809360000FBE90936000FFCF08
:104E500078941F920F920FB60F9211248F939F9305
:104E6000AF93BF938091220590912305A0912405D3
:104E7000B09125050196A11DB11D80932205909347
:104E80002305A0932405B0932505BF91AF919F9171
:104E90008F910F900FBE0F901F9018959C014FB7E8
:104EA000F8948091220590912305A0912405B0915A
:104EB00025054FBF821B930B08952FB7F89460917F
:104EC00022057091230580912405909125052FBF1F
:104ED00008952FB7F8948091220590912305A09111
:104EE0002405B09125052FBF08951F920F920FB68C
:104EF0000F9211248F939F93AF93BF9380912105BD
:104F0000811113C08091220590912305A091240561
:104F1000B09125054196A11DB11D80932205909366
:104F20002305A0932405B0932505BF91AF919F91D0
:104F30008F910F900FBE0F901F9018952091120126
:104F40002223C9F02091260527FF15C0262F26957C
:104F5000269526952E31C8F4FC01E20FF11D6770ED
:104F600081E090E001C0880F6A95EAF78095928110
:104F7000892382830895FC0106962281621301C071
:104F800012823196E817F907C1F7089520911201AE
:104F90002223C1F02091260527FF14C0262F269535
:104FA000269526952E3130F5FC01E20FF11D677034
:104FB00081E090E001C0880F6A95EAF79281892B21
:104FC00082830895FC0132962FEF30E041916417FF
:104FD00089F02F3F19F4411101C0232F3F5F363074
:104FE000A9F72F3F39F0FC01E20FF11D27FDFA95DB
:104FF00062830895089520911F0530912005281798
:10500000390771F09093200580931F05E0911D05ED
:10501000F0911E05309721F00084F185E02D099470
:10502000089520911B0530911C052817390771F050
:1050300090931C0580931B05E0911D05F0911E05C2
:10504000309721F00680F781E02D09940895E091D2
:105050001D05F0911E05309721F00190F081E02DA3
:10506000099480E00895EF92FF920F939701201B1F
:1050700031092F3F310519F010F02FEF30E0209566
:10508000382F320F08F43FEF832F0F91FF90EF90EE
:105090000895EF92FF920F939701201B31092F3F44
:1050A000310519F010F02FEF30E0322F3095482FF6
:1050B000430F08F44FEF842F620F0F91FF90EF9092
:1050C0000895EF92FF920F93972F093438F4B701A8
:1050D000601B71096F3F710519F010F06FEF70E000
:1050E000485F5F4F4131510540F0A901485F5F4F74
:1050F0004131510510F06FEF70E06095482F460F79
:1051000008F44FEF842F37FF02C02D5F3F4F3595D6
:1051100027953595279560911505620F792F0F9189
:10512000FF90EF900895EF92FF920F93E00EF11C25
:10513000F90137FF03C0F195E195F10924E0EE0F85
:10514000FF1F2A95E1F7EF3FF10519F014F0EFEF9B
:10515000F0E09A0157FF03C031952195310994E0A1
:10516000220F331F9A95E1F72E173F070CF4F90130
:10517000EE0DFF1DEF3FF10519F010F0EFEFF0E03D
:105180002E2F2095382F320F08F43FEF832F0F91E9
:10519000FF90EF900895EF92FF920F93970195E0A3
:1051A000099F200D311D11242F3F310519F010F0FA
:1051B0002FEF30E02095382F320F08F43FEF832F88
:1051C0000F91FF90EF90089522E8241B08F420E04F
:1051D000620F08954095282F429F412D1124842F5E
:1051E0000895E42FF0E0EE0FFF1FED52FE4F908187
:1051F000921B97FD9195292F38E1239F212D112492
:10520000620F08950F931F9310E0F801EE0FFF1F38
:10521000ED52FE4F9081905797FD9195000F111F11
:10522000F801EC52FE4FE081F0E0B097DF01AA0FE9
:10523000BB1F8D010E0F1F1F2003D001219FB00D3A
:105240001124E8E3F0E0E91BF10997FDF3959F01D4
:10525000220F331F89010E0F1F1F40039001419F32
:10526000300D11242A0F3B1F37FF02C021583F4F3A
:10527000220F232F221F330B620F1F910F910895CE
:105280000F931F93522F10E0F801EE0FFF1FEC5207
:10529000FE4FE081F0E0B097EE0FFF1F9F01520339
:1052A000D001539FB00D1124000F111FF801ED52D2
:1052B000FE4F008110E000571109000F111F40033D
:1052C0009001419F300D11242A0F3B1F37FF02C070
:1052D00021583F4F220F232F221F330B620F1F91A4
:1052E0000F9108950F931F93522F10E0F801EE0FC6
:1052F000FF1FEC52FE4FE081F0E0B0979F01520398
:10530000D001539FB00D1124000F111FF801ED5271
:10531000FE4F008110E00057110940039001419FAA
:10532000300D11242A0F3B1F37FF02C021583F4F79
:10533000220F232F221F330B620F1F910F9108950D
:10534000EF920F931F9393E0099F8001112415950D
:1053500007956E2D600F1F910F91EF900895A22F6A
:1053600050E0FA01EE0FFF1FEC52FE4F9081905279
:1053700097FD9195440F551FFA01ED52FE4F308174
:10538000232F30E02A1B3109290F311D97FD3A9553
:10539000620F0895E42FF0E0EE0FFF1FEC52FE4F76
:1053A0006081621B0895E42FF0E0EE0FFF1FED52C5
:1053B000FE4F6081621B0895622F0895E42FF0E094
:1053C000EE0FFF1FED52FE4F408134EE439F412D03
:1053D0001124E82FF0E050E0445E5F4FDA01A21B99
:1053E000B1099D01B7FF03C031952195310993E0C3
:1053F000220F331F9A95E1F7AF01421B530B9A011D
:1054000057FF02C020E030E0582F259F212D1124A6
:10541000822F0895E42FF0E0EE0FFF1FED52FE4FB4
:10542000408134EE439F412D1124E72FF0E050E0FE
:10543000445E5F4FDA01A21BB1099D01B7FF03C0B3
:1054400031952195310993E0220F331F9A95E1F7A9
:10545000AF01421B530B9A0157FF02C020E030E01E
:10546000279F212D1124722F0895FC019B01009785
:1054700021F477FF2BC080E80895AC0197FF04C0AA
:1054800044275527481B590BB901640F751F37FD79
:105490000CC0241B350BC901A5E0880F991FAA95E4
:1054A000E1F70E94A73480E20CC0CB0165E0880FD1
:1054B000991F6A95E1F7BA01621B730B0E94A7342A
:1054C00080E6861BF7FF03C08195089580E008956C
:1054D000EF920F93CF93DF93D72FC82FC9010E19E7
:1054E000BA010E94352A602F681B7D2F8C2FDF9117
:1054F000CF910F91EF9008950F93CF93DF93D72F14
:10550000C82FC901BA010E94352A682F600F7D2F6C
:105510008C2FDF91CF910F910895EF920F931F93EE
:10552000CF93DF93D62FC72F182FC9010E19010F64
:10553000BA010E94352A081B202F219F212D1124FA
:10554000822F6D2F7C2FDF91CF911F910F91EF90C4
:105550000895EF920F931F93CF93DF93D62F172FBA
:10556000C82FC9010E19070FBA010E94352A702FE2
:10557000781B719F712D11246D2F8C2FDF91CF918E
:105580001F910F91EF900895FF920F931F93CF9368
:10559000DF93F62ED72F182FC901C12FC01BBA01D8
:1055A0000E94352A982F990F890FC81B2C2F219FF5
:1055B000212D1124822F6F2D7D2FDF91CF911F91EF
:1055C0000F91FF900895FF920F931F93CF93DF9356
:1055D000F62E172FD82FC901C72FC01BBA010E9462
:1055E000352A982F990F890F7C2F781B719F712D69
:1055F00011246F2D8D2FDF91CF911F910F91FF906F
:10560000089580916506882319F08150809365067E
:1056100060916106709162068091630690916406C4
:105620000C940C2F80916506833018F48F5F809363
:1056300065066091610670916206809163069091A3
:1056400064060C940C2F0C94622C0C946E2C29E0A4
:10565000829FC0011124FC01E059FE4FE60FF11DAD
:1056600080818F3F21F0FA01808381E0089580E0FE
:105670000895E4E1F5E085E380838091190190913C
:105680001A01A0911B0181839283A3838FE78483F6
:105690008FEF858346E050E06CE170E0CF010E941F
:1056A000FC33109213050895482F982F46FD9095CE
:1056B000E92FEF739F7046FD9F5FE295EF70EE0F4D
:1056C000F0E0E85FFC4F2181299F802D212D1124DE
:1056D00082958F702295207F822B3081982F930F97
:1056E000892F47FD8195805808950F931F93CF937D
:1056F000DF93D62F072F182FC42F822F0E94542BF1
:10570000EC2FF0E0EE0FFF1FED52FE4F908190580E
:10571000890F87FD8195880F682F2CE0629F612D8E
:1057200011246D0F702F812FDF91CF911F910F9159
:105730000895409117015091180125E038E0429FEB
:10574000C001439F900D529F900D1124875E994C8C
:105750009093180180931701890F0895BC0182303E
:10576000910508F40895613E8EE1780748F49B01A5
:1057700095E0369527959A95E1F748E0420F01C0EC
:105780004FEF91E0242F30E0290F311D35952795FB
:10579000229FF001239FF00DF00D11246E177F075B
:1057A00018F44FEF420F04C02F3F39F091E0920FF1
:1057B000491740F78FEF890F08958FEF08950F93E2
:1057C000CF93DF93D72FC82F47FD4195E8E3F0E053
:1057D000CF01841B910947FD9395889FB001899F54
:1057E000700D700D1124229FC001239F900D900D0C
:1057F0001124860F971F0E94AE2B682F660F860F0D
:10580000682F600F7D2F8C2FDF91CF910F9108951E
:1058100020E030E0869F212D969F200D311D112420
:10582000C90108958091610680FF06C067E670E0B7
:105830008CE295E00C941B2EECE2F5E011821082D4
:105840001282339686E0E136F807C1F7EFCF0F9367
:105850001F93CF93DF939091610690FF2EC0022F8C
:10586000C42FD62F182F9E7F923089F4682F7D2F5A
:10587000842F0E94582FECE2F5E0718360838283CD
:10588000339696E0E136F907C1F70E94122C109387
:105890006206D0936306C0936406002371F06091A2
:1058A0006106709162068091630690916406DF91B3
:1058B000CF911F910F910C940C2FDF91CF911F91DD
:1058C0000F910895E6E6F6E097E0EB39F90729F045
:1058D0008183608342833396F7CF0895FC01EE0FF6
:1058E000FF1F8E0F9F1FFC01EA59F94F6183408310
:1058F00022830895E4E1F5E0248130E1231B08F4DC
:1059000020E024838091130581608093130508951E
:10591000E4E1F5E0248130E1230F08F42FEF248344
:10592000809113058160809313050895E4E1F5E00B
:10593000438120E1421B08F440E08181628190E0D4
:105940000C940521E4E1F5E0438120E1420F08F4E5
:105950004FEF8181628190E00C940521E4E1F5E054
:10596000628120E1621B08F460E08181438190E064
:105970000C940521E4E1F5E0628120E1620F08F476
:105980006FEF8181438190E00C940521E4E1F5E023
:10599000818190E04381628108970C940521E4E1C4
:1059A000F5E0818190E04381628108960C940521A5
:1059B0008091140586958695815009F48BE20C94AC
:1059C000FC1D80911405869586958F5F8C3208F0BA
:1059D00081E00C94FC1D0F931F93CF93DF93C42F92
:1059E000D22FFC0182818823C9F040939D070E9439
:1059F000692790939C0780939B0780E28C0F8830E7
:105A000008F057C0C77081E001C0880FCA95EAF757
:105A1000DF91CF911F910F910C94303280919D07AF
:105A2000481330C080919B0790919C070E944E279D
:105A3000883C910538F510E21D0FCD17B9F080E2D2
:105A40008C0F883040F4C77081E001C0880FCA9580
:105A5000EAF70E942932183028F581E09D2F9770CF
:105A600001C0880F9A95EAF70E943032802F0E9479
:105A70005E331830F0F4D77081E001C0880FDA95FA
:105A8000EAF70AC080E28C0F883098F4C77081E092
:105A900001C0880FCA95EAF7DF91CF911F910F914E
:105AA0000C942932802FDF91CF911F910F910C948C
:105AB0005E33DF91CF911F910F910895CF93DF93C4
:105AC000CFE3D3E060E0CE010E940C342196C115F3
:105AD00084E0D807B9F7DF91CF910895CF92DF9294
