:100000000C94DB020C9413030C9413030C94130351
:100010000C9413030C9413030C9413030C94130308
:100020000C9413030C9413030C94A8250C946425CE
:100030000C94A4260C9413030C9413030C94130334
:100040000C9413030C9413030C9413030C941303D8
:100050000C9413030C9480260C9413030C94130338
:100060000C9413030C9413030C9413030C941303B8
:100070000C9413030C9413030C9413030C941303A8
:100080000C9413030C9413030C9413030C94130398
:100090000C9413030C9413030C9413030C94130388
:1000A0000C9413030C9413030C941303050109021D
:1000B000A10185020901A1000509190129081500FE
:1000C0002501950875018102050109300931158165
:1000D000257F95027508810609381581257F9501D0
:1000E00075088106050C0A38021581257F95017572
:1000F000088106C0C005010980A101850319012AF4
:10010000B700150126B700950175108100C0050CD8
:100110000901A101850419012AA002150126A002E6
:10012000950175108100C005010906A1018506052C
:100130000719E029E71500250195087501810205D9
:1001400007190029EF1500250195F07501810205B9
:10015000081901290595057501910295017503910D
:1001600001C00660FF0961A1010962150026FF00B8
:100170009520750881020963150026FF00952075FA
:10018000089102C005010906A101050719E029E748
:1001900015002501950875018102950175088101F9
:1001A0000507190029FF150026FF0095067508812F
:1001B000000508190129059505750191029501753C
:1001C000039101C069646F62616F2F696434323AD0
:1001D00069646F62616F202876302E31382E352D9C
:1001E000312D67373132616137290000010101018A
:1001F00001010101010202020202020202020303E2
:1002000003030303030304040404040404050505B1
:100210000505060606060607070707070808080873
:10022000090909090A0A0A0B0B0B0C0C0C0D0D0D20
:100230000E0E0E0F0F0F10101111111212131314B6
:1002400014151516161717181819191A1A1B1B1C2E
:100250001D1D1E1E1F202021222223242425262688
:10026000272829292A2B2C2D2D2E2F3031323233BD
:100270003435363738393A3B3C3D3E3F40414243C6
:100280004445464748494A4C4D4E4F5051535455AA
:100290005658595A5B5D5E5F616264656668696B5A
:1002A0006C6D6F7072737577787A7B7D7E808283D8
:1002B0008587888A8C8E8F91939596989A9C9EA01C
:1002C000A2A3A5A7A9ABADAFB1B3B5B7BABCBEC029
:1002D000C2C4C6C9CBCDCFD1D4D6D8DBDDDFE2E4F2
:1002E000E7E9EBEEF0F3F5F8FAFDFF00000000009F
:1002F00000000000000000000000000000000000FE
:100300000000000000000000000000000000007E6F
:100310000F00D4FFFFFFC7000000780000000000BE
:100320000000002A2B280000000000000000000050
:1003300000000000000029000000002C1E342021D5
:100340002224342627252E362D3738271E1F20211C
:1003500022232425263333362E37381F040506077B
:1003600008090A0B0C0D0E0F101112131415161795
:1003700018191A1B1C1D2F3130232D3504050607B3
:1003800008090A0B0C0D0E0F101112131415161775
:1003900018191A1B1C1D2F3130354C165C14001A0D
:1003A000000800150017001C0018000C00120013B4
:1003B000002A002B0004001600070009000A000BA9
:1003C000000D000E000F0000002800E1001D001BC2
:1003D0000006001900050011001000E500000052A1
:1003E000004C00E000E300E2002C4200000000109E
:1003F0005F00000000500051004F0035001E001F3C
:1004000000200021002200230024002500260027D0
:10041000000100010000000000000000002D002E7F
:10042000002F00300031000000010001000000003A
:100430000033003400360037003800010000004B64
:10044000004900010001000100035100000000010B
:1004500000000000004A004E004D0029003A003B19
:10046000003C003D003E003F004000410042004390
:1004700000010001000000000000000000440045F1
:100480000046004700480000000100010000000095
:10049000000000000000000000000065000000A94E
:1004A00000A800E400E700E60001000000000001F1
:1004B0000000000000AD00AA00AE00010000000036
:1004C000000000005C0000000000000000000000D0
:1004D0000001000100C25CC35CC65CC55CC85CC7AF
:1004E0005C000000000000000001000100C45C008E
:1004F000000000895F0000145C000000000000C9DB
:100500005C0000010001000100010000000000018A
:100510000000000000CC5CCA5CCB5C09025B0003FD
:100520000100A0FA090400000103010100092111E2
:1005300001000122400007058103080002090401AF
:10054000000203000000092111010001222200071E
:1005500005820320000107050303200001090402AE
:1005600000010300000009211101000122B600076B
:1005700005840320000212010002000000086469E3
:100580004200000101020001180341006200610005
:1005900063007500730020004900440034003200FD
:1005A00000000E03490044004F00420041004F008C
:1005B00000000403090411241FBECFEFDAE0DEBF00
:1005C000CDBF04B603FE18C08091090490910A04BF
:1005D000A0910B04B0910C048730904BA740B04B16
:1005E00059F41092090410920A0410920B0410920C
:1005F0000C04E0E0F8E3099524E0A8E2B2E001C0D1
:100600001D92A930B207E1F712E0A0E0B1E0EEE1FF
:10061000FDE502C005900D92A832B107D9F70E94FE
:10062000CB260C940E2E0C940000E8EDF0E08081B7
:100630008E7F80831092E2001092DA001092E10027
:10064000A0EEB0E08C9181608C9380818F77808365
:1006500019BCA7EDB0E08C918E7F8C9380818F7E4A
:1006600080831092A30308952091E4003091E50067
:1006700095E6A9012091EC00822F817020FF06C031
:100680008091E80080FF06C080E008952091E80096
:1006900022FD1AC08091C803882389F0853089F033
:1006A0008091EB0085FD0FC02091E4003091E500C2
:1006B00042175307F9F29150E1F684E0089582E081
:1006C000089583E0089581E00895EF92FF920F93DB
:1006D0001F93CF937C018B010E943403C82F81119B
:1006E00017C08091E80085FD0BC08091E8008E77EF
:1006F0008093E8000E943403882399F3C82F08C030
:10070000F70181917F018093F1000150110949F7B0
:100710008C2FCF911F910F91FF90EF9008958091B2
:10072000CA0387FF13C08091E80082FF06C0809152
:10073000E8008B778093E80004C08091C8038111A2
:10074000F2CF08958091C8038823D9F38091E800FF
:1007500080FFF8CF8091E8008E77ECCF982F9093B0
:10076000E900242F762F50E0891731F07091EC00CA
:100770002091ED005091F00021FD07C09F5F973060
:1007800071F78093E90081E008953091EB003E7F9E
:100790003093EB003091ED003D7F3093ED003091D0
:1007A000EB0031603093EB007093EC002093ED0090
:1007B0005093F0002091EE0027FDE0CF80E00895F7
:1007C000B0E0A0E0E6EEF3E00C949E2CC8EDD0E0A3
:1007D00088818F7E8883E7EDF0E08081816080836F
:1007E00084E082BF81E08093A30388818E7F888329
:1007F00002EE10E0F80110821092DA0081EEC82EAD
:10080000D12CF601108288818F7788838881806857
:10081000888388818F7D888319BC1092C8031092C9
:10082000C9031092C7031092C60390EEE92EF12C73
:10083000F70180818B7F808388818160888342E09B
:1008400060E080E00E94AE03F60180818E7F8083AD
:10085000F801808181608083808188608083F701D6
:1008600080818E7F8083888180618883CDB7DEB769
:10087000E8E00C94BA2CFC01CB012091D00330911C
:10088000D1032617370790F0009729F42091E8004C
:100890002E772093E80040E0009751F4411108C002
:1008A0008091E80082FF31C080E00895C901F3CF54
:1008B0002091C8032223A9F12530A9F12091E80055
:1008C00023FD2DC02091E80022FDEACF2091E80011
:1008D00020FFE2CF3091F3002091F200009719F051
:1008E0002830310558F041E02830310509F040E06A
:1008F0002091E8002E772093E800CECF41914093DD
:10090000F10001972F5F3F4FE9CF8091C803882303
:1009100041F0853041F08091E80083FFC1CF81E054
:10092000089582E0089583E0089508958091A503D5
:1009300008959C014FB7F89480919A0390919B037E
:10094000A0919C03B0919D034FBF821B930B089510
:10095000A4E0B0E0EEEAF4E00C94A42C8FB7F89495
:1009600020919A0330919B0340919C0350919D03E9
:1009700029833A834B835C838FBF69817A818B8122
:100980009C812496E2E00C94C02C2FB7F8948091BF
:100990009A0390919B03A0919C03B0919D032FBF5C
:1009A00008959C01809115018823C9F080919E03D0
:1009B00087FF15C0E62FE695E695E695603FE0F4E3
:1009C000E20FF32FF11D677081E090E001C0880F06
:1009D0006A95EAF780959281892382830895F901C7
:1009E0003296285F3F4F8191681303C0DF01119752
:1009F0001C92E217F307B9F708959C018091150145
:100A00008823C1F080919E0387FF14C0E62FE695EE
:100A1000E695E695603FF8F4E20FF32FF11D67705D
:100A200021E030E001C0220F6A95EAF78281822B33
:100A300082830895F90132968FEF90E04191641717
:100A400051F08F3F19F4411101C0892F9F5F9630FB
:100A5000A9F78F3F09F40895280F311D87FD3A95B6
:100A6000F901628308952091970330919803281724
:100A7000390771F09093980380939703E091950361
:100A8000F0919603309721F00084F185E02D0995CF
:100A9000089520919303309194032817390771F03A
:100AA0009093940380939303E0919503F0919603C0
:100AB000309721F00680F781E02D09950895E091A7
:100AC0009503F0919603309729F00190F081E02D85
:100AD0000995089580E00895FA01882311F0099599
:100AE0000895FB01FCCFE5E1F3E08183608342835D
:100AF000339693E0E339F907C1F70895FC01EE0F4F
:100B0000FF1FE80FF91FEB5EFC4F618340832283D8
:100B10000895E6EDF3E0248130E1231B08F420E0A2
:100B20002483809114038160809314030895E6ED7B
:100B3000F3E0248130E1230F08F42FEF2483809128
:100B400014038160809314030895922F2091D6039B
:100B5000237071F08093D7036093D803453B08F06E
:100B600044EB4093D90320911403292B20931403C1
:100B70000895E6EDF3E0438120E1421B08F440E0F4
:100B8000818121E0628190E00E94A5050895E6ED53
:100B9000F3E0438120E1420F08F44FEF818121E02F
:100BA000628190E00E94A5050895E6EDF3E0628180
:100BB00020E1621B08F460E0818121E0438190E044
:100BC0000E94A5050895E6EDF3E0628120E1620F41
:100BD00008F46FEF818121E0438190E00E94A50538
:100BE0000895E6EDF3E0818121E043816281885040
:100BF000990B0E94A5050895E6EDF3E0818190E050
:100C000021E04381628108960E94A5050895262F60
:100C10009091D603937061F081110BC09460909312
:100C2000D6031092120160911403622B6093140397
:100C30000895883210F09C69F2CF880F880F982BA6
:100C4000EECF9091D603969596958FEF890F9130C0
:100C500009F487E261E00E94070608958091D603B7
:100C6000869586958F5F883208F081E061E00E946A
:100C700007060895EF92FF920F93282FC701801B5C
:100C800091098F3F910519F010F08FEF90E080955A
:100C9000382F230F08F42FEF822F0F91FF90EF9042
:100CA0000895EF92FF920F93282FC701801B91099F
:100CB0008F3F910519F010F08FEF90E0382F3095AD
:100CC000230F08F42FEF680F822F0F91FF90EF9002
:100CD0000895EF92FF920F93972FFA01B9019701B0
:100CE000093430F4201B31092F3F310519F010F081
:100CF0002FEF30E03896719740F0AB01485F5F4FBF
:100D00004131510510F02FEF30E02095382F320F90
:100D100008F43FEF77FF02C06D5F7F4F75956795D1
:100D2000759567958091D703680F792F832F0F9161
:100D3000FF90EF900895EF92FF920F931F93E00EB4
:100D4000F11C890137FF03C011950195110924E0B9
:100D5000000F111F2A95E1F70F3F110519F014F04C
:100D60000FEF10E09A0157FF03C03195219531092B
:100D700094E0220F331F9A95E1F7201731070CF406
:100D800089010E0D1F1D0F3F110519F010F00FEF17
:100D900010E00095282F200F08F42FEF822F1F91CD
:100DA0000F91FF90EF900895EF92FF920F93282FED
:100DB000C70135E0039F800D911D11248F3F9105E0
:100DC00019F010F08FEF90E08095382F230F08F482
:100DD0002FEF822F0F91FF90EF90089522E8241BB0
:100DE00008F420E0620F08954095282F429F412D7E
:100DF0001124842F0895E42FF0E0EE0FFF1FE75534
:100E0000FE4F9081921B97FD9195292F38E1239FEA
:100E1000212D1124620F08950F931F93522F10E07C
:100E2000F801EE0FFF1FE755FE4F9081905797FD99
:100E30009195000F111FF801E758FE4F01A90052CC
:100E4000110B50039001519F300D112408E310E065
:100E5000091B110997FD13954003F001419FF00D07
:100E60001124E20FF31F9F01220F331F2E0F3F1F8C
:100E700037FF02C021583F4F220F232F221F330B71
:100E8000620F1F910F9108950F931F93522F10E03F
:100E9000F801EE0FFF1FE758FE4FA1A9A052BB0BB0
:100EA0009D015203F001539FF00D1124000F111FFB
:100EB000D801A755BE4F0C910057110B400390016C
:100EC000419F300D11242E0F3F1F37FF02C0215CC0
:100ED0003F4F96E0359527959A95E1F7620F1F9160
:100EE0000F9108950F931F93522F10E0F801EE0F0A
:100EF000FF1FE758FE4FA1A9A052BB0B9D01520353
:100F0000F001539FF00D1124000F111FD801A755B8
:100F1000BE4F0C910057110B40039001419F300DC3
:100F200011242E0F3F1F37FF02C021583F4F220FC1
:100F3000232F221F330B620F1F910F910895EF9201
:100F40000F93972F23E0029FB001112475956795A9
:100F50006E0D792F0F91EF900895322F50E0FA0126
:100F6000EE0FFF1FE758FE4F91A9905297FD919504
:100F7000440F551FFA01E755FE4F2081231B330B09
:100F8000290F311D97FD3A95620F0895E42FF0E087
:100F9000EE0FFF1FE758FE4F61A9621B0895E42F73
:100FA000F0E0EE0FFF1FE755FE4F6081621B0895D2
:100FB000622F0895582FA22FE42FF0E0EE0FFF1FAD
:100FC000E755FE4F208134EE239F212D112490E020
:100FD00030E0245E3F4F2A1B310937FF03C03195B3
:100FE0002195310943E0220F331F4A95E1F7821B17
:100FF000930B97FD80E0282F259F212D1124822F10
:1010000008951F93172F922FE42FF0E0EE0FFF1F8C
:10101000E755FE4F208134EE239F212D1124472FC9
:1010200050E030E0245E3F4F291B310937FF03C0F9
:1010300031952195310993E0220F331F9A95E1F7FD
:10104000421B530B57FD40E0742F719F712D1124EB
:101050001F9108950E94730508950E947E050895CA
:10106000FC019B01009729F480E077FF2BC080E80A
:101070000895AC0197FF04C044275527481B590B1E
:10108000B901640F751F37FD10C0241B350BC90152
:10109000A5E0880F991FAA95E1F70E94732C80E2C2
:1010A000861BF7FF0FC081950895CB0165E0880F7F
:1010B000991F6A95E1F7BA01621B730B0E94732CAA
:1010C00080E6EECF0895EF920F93CF93DF93D72F63
:1010D000C82FBA01C9010E190E943008602F681B81
:1010E0007D2F8C2FDF91CF910F91EF9008950F936B
:1010F000CF93DF93D72FC82FBA01C9010E943008C0
:10110000682F600F7D2F8C2FDF91CF910F91089565
:10111000EF920F931F93CF93DF93D62FC72F182FE4
:10112000BA01C9010E19010F0E943008081B019F66
:10113000012D11246D2F7C2F802FDF91CF911F91D6
:101140000F91EF900895EF920F931F93CF93DF933A
:10115000D62F172FC82FBA01C9010E19010F0E94EF
:101160003008702F781B719F712D11246D2F8C2FDB
:10117000DF91CF911F910F91EF9008950F931F93DF
:10118000CF93DF93D62FC72F182FBA01C901212F74
:10119000201B022F0E943008982F990F990F282F9B
:1011A000291B200F219F212D11246D2F7C2F822F91
:1011B000DF91CF911F910F9108950F931F93CF93BC
:1011C000DF93D62F172FC82FBA01C901212F201B5B
:1011D000022F0E943008982F990F990F782F791BB2
:1011E000700F719F712D11246D2F8C2FDF91CF9176
:1011F0001F910F910895982FE82F96FDE0952E2FBF
:101200002F7096FD2F5FE695E695E695E670F0E087
:10121000EE59FE4F8181829F802D212D11248295D0
:101220008F702295207F822B2081820F97FD8195E0
:10123000805808950F931F93CF93DF938B01D82F7E
:10124000C42F822F0E94FB08EC2FF0E0EE0FFF1F4F
:10125000E755FE4F90819058980F97FD9195990F03
:10126000692F2CE0629F612D1124600F712F8D2F4B
:10127000DF91CF911F910F9108959C0182309105CC
:1012800008F408959FEF213E8EE1380740F4C9012C
:1012900045E0969587954A95E1F798E0980F61E0CB
:1012A000E62FE90FFF27FF1FAF0155954795842FC4
:1012B000449FF001459FF00DF00D11242E173F07BC
:1012C00038F49FEF940F961758F78FEF860F089515
:1012D0004F3FE9F361E0640FF6CF0F93CF93DF93B5
:1012E000D72FC82FF90147FD419528E330E0241B93
:1012F000310947FD3395229FA001239F500D500DCA
:101300001124EE9FC001EF9F900D900D1124840FCA
:10131000951F0E943D09982F990F692F680F600F44
:101320007D2F8C2FDF91CF910F9108959C0190E03C
:1013300080E0269F812D369F800D911D11240895F8
:10134000B0E0A0E0E6EAF9E00C949C2C262F472FB1
:10135000E82FF0E0E551FE4F711109C06491862F2E
:10136000E62F7E2FCDB7DEB7EAE00C94B82CE72E3F
:10137000F12CE49186E0689F80011124CFEFD0E04A
:10138000C801BE010E945F2CDB0130E0220F331F39
:1013900055E5569FC001579F900D1124281B390B0E
:1013A000622F660F260FCE018E199F09E89F6001FC
:1013B000E99FD00C11246D2D429FA0011124452FCF
:1013C0005527CE01841B950BE89FA001E99F500D86
:1013D0001124852F5E01A21AB108AE9C9001AF9C2A
:1013E000300DBE9C300D1124232F3327C21BD30B8D
:1013F000EC9F9001ED9F300D1124A330B105B1F0A9
:101400000C3F93E0190760F4A130B10599F01297F1
:10141000A9F00F3F110508F0A4CF8D2D632FA1CFA8
:10142000A430B10571F01697C1F39BCF652F8E2FB5
:10143000ED2D97CF6E2FE52F8D2D93CF832F6E2F10
:10144000F7CF8E2FE32F8DCF0F931F93CF93DF9383
:10145000EC01FC01E350FE4F80816823D1F1009143
:10146000D8031091D9034091D703E42FF0E06091A5
:1014700013017091140185E098E0689F9001699FC5
:10148000300D789F300D1124275E394C30931401B4
:1014900020931301CF018C549F4F68E671E00E94A6
:1014A000732C8E1B9F0B97FD0396959587959595AD
:1014B0008795230F2370642F289F600D1124702FB0
:1014C000812F0E94A009462F672F282FCE010E944E
:1014D0002D08DF91CF911F910F910895A9E0B0E001
:1014E000E4E7FAE00C94942C282E6A837B83209105
:1014F000160189E0289F802D11248E83875F8983C0
:101500008C838B3210F03AE23C838091DC038D8334
:10151000FE81EF2FF0E0F987E887CF01880F991F50
:101520009C0127583E4F6901822D90E0FC013196C5
:10153000FF83EE838C819885981748F081E0E981DC
:10154000EA3208F080E02996E2E10C94B02CE885BC
:10155000F985E350FE4F8081909117018923F1F0C6
:101560004090D7035090D8032E813F8124523C4FA6
:101570003901322C10E0FD813F16D0F02091D903C3
:10158000129F112D1124B201812F0E94A009462F14
:10159000672F282F888599850E942D0828853985F1
:1015A0002F5F3F4F3987288732E0C30ED11CC2CF4F
:1015B000F30181913F01F601A0A8A81ABB0881A8F8
:1015C000F3018781881A9908AA9C9001AB9C300D81
:1015D000300D1124889CC001899C900D900D112420
:1015E000820F931F0E943D09082F6091DA0321E0CA
:1015F000620F08F46FEFF301EE0FFF1FEC5DF34095
:10160000858996890E9496097C019401A501B20101
:10161000812FEA81FB8109952B01182F3394ABCFE1
:10162000B0E0A0E0E6E1FBE00C949E2C8C01C091C0
:10163000160189E0C89FC02D112429E0D22EDC0EAE
:10164000CD2C2AE22D1510F49AE2C92E2091DA034E
:1016500031E0230F08F42FEF30E050E040E06FEF6F
:101660007FEF80E090E00E94AB2D7901D0E02C2F3D
:10167000CC1550F081E0F9E2FD1508F480E0CDB71B
:10168000DEB7E8E00C94BA2CFE01E350FE4F8081F7
:1016900090911701892311F14091DC034150042EF0
:1016A000000C550B47FF1CC0C7016091DA0321E015
:1016B000620F08F46FEF0E949609AC016091D703A6
:1016C0007091D8038091D903F80109950E94A0096F
:1016D000462F672F282FCE010E942D082196C7CFB5
:1016E000FA01E452FC4F818982130AC0FA01EE0F1D
:1016F000FF1FE452FC4F818D928D8E159F05A8F23D
:1017000041505109CFCFB0E0A0E0E9E8FBE00C94F4
:101710009F2C7C01C091160189E0C89FC02D112427
:1017200019E01C0FD12E1B3210F08AE2D82E6091E6
:10173000DA036695669521E0620F08F46FEF8091F9
:10174000D2039091D3030E949609082FD0E0CD15C3
:1017500048F081E01A3208F080E0CDB7DEB7E7E06C
:101760000C94BB2CFE01E350FE4F80819091170139
:10177000892391F06091D7037091D8038091D903A8
:10178000202F4C2FF70109950E94A009462F672FA3
:10179000282FCE010E942D082196D9CFA5E0B0E0D8
:1017A000E4EDFBE00C949D2C6C0180911601898383
:1017B00089E09981989F802D11248B8399E0F92EDF
:1017C000F80EBF2CEAE2EF1510F48AE2B82E609111
:1017D000DA03669566958091D2039091D3030E94B7
:1017E0009609182F80E4810F0E94FB088058898396
:1017F000812F0E94FB0880588A839B81892F90E06B
:101800009D838C839C819B1548F081E0E9E2EF1574
:1018100008F480E02596E9E00C94B92CEC81FD8178
:10182000E350FE4F8081909117018923A9F06091C8
:10183000D7037091D8038091D903E12E0C812A81BE
:101840004981F60109950E94A009462F672F282F8C
:101850008C819D810E942D088C819D810196D0CF25
:10186000B0E0A0E0E6E3FCE00C94972C4C01C091C2
:10187000160189E0C89FC02D112419E01C0F512EBC
:101880001B3210F03AE2532E6091DA036695809194
:10189000D2039091D3030E949609F82ED0E0CE0196
:1018A000880F991F9C0127583E4F6901C51548F0C4
:1018B00081E01A3208F080E0CDB7DEB7EFE00C949B
:1018C000B32CFE01E350FE4F8081909117018923D4
:1018D00079F1F60180A9282F2057330B590181A9EE
:1018E000E82FE052FF0B3F01AA9C9001AB9C300D0A
:1018F000300D1124EE9FC001EF9F900D900D11242B
:10190000820F931F0E943D09082F6091D7037091A9
:10191000D8038091D903EF2C9301A501F401099517
:101920000E94A009462F672F282FCE010E942D0864
:10193000F2E0CF0ED11C2196B9CFB0E0A0E0E3EAEF
:10194000FCE00C949C2C5C01C091160189E0C89FBE
:10195000C02D112419E01C0FC12E1B3210F03AE2E9
:10196000C32E6091DA0366958091D2039091D303E0
:101970000E949609D82ED0E0CE01880F991F9C01B5
:1019800027583E4F7901CC1548F081E01A3208F013
:1019900080E0CDB7DEB7EAE00C94B82CFE01E3504E
:1019A000FE4F8081909117018923C1F0F70121A991
:1019B0002052330B40A94057550B6091D7037091CB
:1019C000D8038091D9030D2DF50109950E94A00936
:1019D000462F672F282FCE010E942D08F2E0EF0E30
:1019E000F11C2196D0CF0E94C5042091E2023091D3
:1019F000E302232B21F08093DE029093DF022091FB
:101A0000E4023091E502232B21F08093DC029093D5
:101A1000DD02E0919503F0919603309749F082E062
:101A20008093E0020480F581E02D80EE92E009953C
:101A300008954091E202803F59F48091E30287FFCC
:101A40000DC01092E30241110BC01092DA0208C0DF
:101A5000813F81F48091E30218169CF3442381F0C6
:101A60008091E4029091E502892B09F05AC010920E
:101A7000D9020895823F49F447FFF0CF1092E20265
:101A80008091E3028111ECCFE0CF833F19F414166B
:101A9000ACF3E4CF9091E402893F29F41916F4F6EF
:101AA0001092E402DBCF8A3F19F497FFD7CFF8CF2B
:101AB0009091E5028B3F29F497FFD0CF1092E50279
:101AC000CDCF8C3F19F41916CCF3C8CF9CE0980FFA
:101AD000953090F4845F990B21E030E0B90102C0A9
:101AE000660F771F8A95E2F7CB0180959091E1020E
:101AF00089238093E102B2CF8D3F31F48091DB02E4
:101B00008E7F8093DB02AACF8E3F21F48091DB028F
:101B10008D7FF7CF8F3F09F0A1CF8091DB028B7FC4
:101B2000F0CF08958091DB0280FD16C081FD16C0C4
:101B300082FD16C08091D9028823A1F0883280F4FA
:101B400028E0829FC001112468E270E00E94732C9B
:101B5000862F672B39F0089582E0089584E0089578
:101B600088E0089581E008958091DB0280FD14C033
:101B700081FD14C082FD16C08091DA02882381F0B5
:101B80008E3180F420E5829FC00111246EE170E067
:101B90000E94732C862F089584E1089588E20895A9
:101BA00088E0089580E50895803F31F40E94B40DE7
:101BB00081958093E3020895813F19F40E94B40D4A
:101BC000F8CF823F31F40E94B40D81958093E202F8
:101BD0000895833F19F40E94B40DF8CF893F29F48A
:101BE0000E94920D8093E40208958A3F21F40E949E
:101BF000920D8195F7CF8B3F31F40E94920D819524
:101C00008093E50208958C3F19F40E94920DF8CF5D
:101C10009CE0980F953070F4845F990B21E030E0E0
:101C200001C0220F8A95EAF78091E102822B80930E
:101C3000E10208958D3F31F48091DB028160809351
:101C4000DB0208958E3F21F48091DB028260F7CFA2
:101C50008F3FB9F78091DB028460F1CF80E0089577
:101C6000F894E82FE295EF70F0E041A18F7021E049
:101C700030E0B90102C0660F771F8A95E2F7CB0109
:101C8000962F9095942391A392A1892B82A3789467
:101C9000089590919E0392FF06C0282F2871283046
:101CA000F9F4877F846093FF06C0282F28712831BC
:101CB000F1F4877E846120919F0320FF06C0382FB6
:101CC00038713830D9F4877F816021FF06C0282F12
:101CD00028712831D1F4877E816194FD877E089533
:101CE000282F24712430F9F68B7F8860DCCF282FD1
:101CF0002471243101F78B7E8861DDCF382F31715B
:101D0000313019F78E7F8860E0CF282F2171213183
:101D100021F78E7E8861E1CFCF93DF93EC01803E87
:101D2000910509F467C058F58133910509F4AFC0F6
:101D300090F48932910509F49FC08A9709F4AEC0E6
:101D4000C130D10509F469C0CE010497813A9105EB
:101D500008F05CC062C08933910509F43FC0823845
:101D60009105E1F1C59709F482C0C83AD10508F0A0
:101D70009CC0C53AD10520F3A497D0644EC0843EE0
:101D8000910509F459C070F4823E910509F441C0EF
:101D9000833E910509F445C0CE01805E9109089704
:101DA000A8F53BC0863E910509F451C0873E9105D8
:101DB00009F452C0811522E5920708F0A8C08115E8
:101DC00031E5930708F0F9C08F3F910511F008F055
:101DD0007BC0803F910548F2D0651FC080919E0373
:101DE000837009F01AC180919F0383FF16C0C9E276
:101DF000D0E013C080919E0380FD46C090919F0368
:101E000090FF0BC0C3EED0E084FF07C0D0E0C0E07D
:101E100004C080919E0382FDF5CFCE01DF91CF916A
:101E2000089580919E0382FDF5C090919F0390FDDF
:101E3000F4C084FFF2CFEACF80919F0381FFEDCF02
:101E400080919E03C7EED0E084FDE0CFE6CF809185
:101E50009E0383FDF7CFE1CF80919E0383FDE0C019
:101E600090919F0391FFE5CFC4EED0E0D6CF809153
:101E70009E0385FFD2CFBBCF80919E0385FDD3C04B
:101E800080919F0383FFC9CFC9E3D0E0C6CF809183
:101E90009E0386FFC2CFCAE2D0E0BFCF80919E03EF
:101EA00086FFBBCFC1E3D0E0B8CFCF3BD10508F070
:101EB00073CFC85AD0E0CC0FDD1FC05EDE4F099053
:101EC000D881C02DD464A9CF811540E5940760F472
:101ED000C11580E4D80708F06DC0CE019A95811530
:101EE0009F4108F49ACF92CF8370992721E030E088
:101EF00002C0220F331F8A95E2F7C695C69540E2CD
:101F0000C49FE0011124C22BD32BDD6886CFC115FD
:101F100086E5D80738F5C11525E5D20708F061C078
:101F2000C11534E5D307C8F49E01237033279C2FD5
:101F300096959695C115D34508F044C0C1E0D0E010
:101F400002C0CC0FDD1F2A95E2F720E2929FC0016C
:101F50001124C82BD92BDC6860CFDC2FCC27C46FB1
:101F6000D06A5BCFC1153AE5D30788F4C11549E5BE
:101F7000D40708F041C0CE0198558F3F910511F06C
:101F800008F044CFDC2FCC27C06FD06A46CFCE01FB
:101F900090568115904208F039CF8D2F8F710E9495
:101FA000490E90E0982F882788279F719C012C2B41
:101FB000E90120C0DF70D06A30CFD82FCC27C16FA5
:101FC000D06A2BCFC1E0D0E002C0CC0FDD1F2A9534
:101FD000E2F730E2939FC0011124C82BD92BDA68B5
:101FE0001CCF8C2F0E94490EC82FD0E0DC2FCC27AD
:101FF000CC27DF71D06211CF8C2F8F700E94490ED9
:1020000034E0D695C7953A95E1F7CF70DC2FC82F0D
:10201000D06903CFC2EED0E000CFC0EED0E0FDCE5D
:10202000C6EED0E0FACEC5E3D0E0F7CE8091B8029C
:1020300081111092B8020895982F90958091B7025F
:1020400089238093B702089580919402909163024E
:10205000981301C008958F5F8770FACF292F9430AD
:1020600078F58C3068F590E03CE0239F800D911D61
:102070001124682F677023E0969587952A95E1F7DC
:10208000FC01EE0FFF1FE80FF91FE55BFD4F50E06D
:1020900040E080E0219130E0062E02C03695279581
:1020A0000A94E2F721703327042E01C0220F0A940C
:1020B000EAF7822B4F5F5F4F4330510559F7089580
:1020C00080E00895292F943090F58C3080F590E0D1
:1020D0003CE0239F800D911D1124282F277041E0A3
:1020E00001C0440F2A95EAF723E0969587952A9533
:1020F000E1F7FC01EE0FFF1FE80FF91FE55BFD4F55
:1021000090E080E070E05191DF0111979B01082E73
:1021100002C0369527950A94E2F72170219525276C
:10212000242325272C9301968330910561F7089588
:102130008093A0037093A2036093A1038091C803CE
:102140008430F9F48093E9008FEF9091E80081509A
:1021500095FD06C095ED9A95F1F700008111F5CF38
:102160008091E80085FF0DC050E040E063E070E042
:1021700080EA93E00E9465038091E8008E77809367
:10218000E8000895BC0184E00E9498100895BC0105
:1021900083E00E949810089524E02093E9002FEF37
:1021A0003091E800215035FD06C035ED3A95F1F744
:1021B00000002111F5CF2091E80025FF0BC050E071
:1021C00040E066E070E00E9465038091E8008E7751
:1021D0008093E8000895CF93DF93D82FC92F809183
:1021E00015018823C1F180919E0387FF34C060E20E
:1021F00084E08093E9008FEF9091E800815095FD95
:1022000006C095ED9A95F1F700008111F5CF809108
:10221000E80085FF1DC08091150170E050E040E0AE
:10222000811104C050E040E068E070E08D2F9C2FE9
:102230000E9465038091E8008E778093E80080E239
:10224000ED2FFC2FA6EAB3E001900D928A95E1F7FD
:10225000DF91CF91089568E081E0CBCF81E080935A
:10226000E00080E28093D8001092C9008FE19EE4E4
:102270000197F1F700C0000087E090EBDC0180934C
:10228000090490930A04A0930B04B0930C0488E112
:102290009CE00FB6F894A895809360000FBE9093D1
:1022A0006000FFCF239A35B1377F25B128604FB743
:1022B000F89485E193E0FC010196508168E025B92E
:1022C000000000C057FF35B9550F000000C000C026
:1022D00000C035B900C06A9591F753E0833995077E
:1022E00051F74FBF8FE594E00197F1F700C0000070
:1022F0000895CF93DF93C7EAD1E060E0CE010E945A
:10230000872D2196C11584E0D807B9F7DF91CF91C9
:1023100008951F93CF93DF93962F122F632F84304E
:10232000D8F49430C8F44C30B8F4C42FD0E0CC0FBB
:10233000DD1F28E1929FC00DD11D112490E6899FD9
:10234000C00DD11D1124CE0187960E94872D612FCB
:10235000CE0188960E94872DDF91CF911F9108951D
:10236000AF92BF92CF92DF92FF920F931F93CF93C2
:10237000DF93B12CA12C00E0650110E013C0FE0139
:10238000259134914F2D612F802F0E948911229623
:10239000F3948CE0F812F3CF8CE0C80ED11C1F5FD1
:1023A000143039F0E601CC0FDD1FC556DC4FF12C9F
:1023B000E6CF0F5F80E3A80EB11C0430E9F6DF9191
:1023C000CF911F910F91FF90DF90CF90BF90AF9072
:1023D0000895CF93C82F6FEF811162E283E290E0FE
:1023E0000E94872D6FEFC11169E084E290E00E94A6
:1023F000872D6FEFC11166E085E290E00E94872D86
:10240000CF91089580E00E94E91160E086E290E0BB
:102410000E94872D0E94B0110E94791181E00E94D4
:10242000E9110895CF93682FC92F84E090E00E94AE
:10243000872D6C2F82E290E00E94872DCF91089526
:102440000F931F93CF93DF93843030F5643020F5E2
:102450004C3010F5C42FD0E0CC0FDD1F28E1629F77
:10246000C00DD11D112430E6839FC00DD11D112454
:10247000CE0187960E94692D082F10E0102F0027AB
:10248000CE0188960E94692D9801282BC901DF9101
:10249000CF911F910F91089590E080E0F8CF462FE3
:1024A000672F843038F4743028F44C3018F40E94CC
:1024B0002012089580E090E00895B0E0A0E0E3E607
:1024C000F2E10C949F2C7C01009108048091B902E8
:1024D000082BC7E0D0E010E0DC2EC8010C2E02C0B3
:1024E000959587950A94E2F780FD09C02197A0F79A
:1024F000D12C8D2DCDB7DEB7E7E00C94BB2CB70106
:102500008C2F0E944F120E948C0E019779F3F1CF0D
:10251000CF93DF93D82FC92F0E945D126D2F7C2F90
:102520000E944F120E948C0EDF91CF910895FC0102
:1025300083819481892B29F08081918189238F3F28
:1025400069F480E00895243FE1F71CC081E0283E53
:1025500020F0213FB1F716C0089508958081918140
:102560000E948812282F92959F70963079F358F424
:10257000925F9F70923028F781E0203F69F318F74F
:10258000283EF8F608959A5FF4CF83E290E00E9427
:10259000692D823289F484E290E00E94692D8930AD
:1025A00059F485E290E00E94692D91E0863009F0AF
:1025B00090E0892F8170089580E0FCCFCF9384E074
:1025C00090E00E94692DC82F82E290E00E94692D60
:1025D000982F8C2FCF9108951F93CF93DF93EC0109
:1025E000FC01E350FE4F80816823B1F00E94332D3F
:1025F000182F0E94332D782F7F7720E8720F08F470
:102600007FEF612F8091D9030E94A009462F672F89
:10261000282FCE010E942D08DF91CF911F910895A0
:10262000B0E0A0E0E6E1F3E10C949B2C182F809140
:102630001101811323C09091D60393702091100152
:1026400030E081E09217130609F480E081708093F6
:1026500018018091DB0390911701981739F080934E
:10266000170140E060E080E00E942A08183260F420
:10267000E12FF0E0E05FF14D0C94872C81E0E6CF94
:1026800080911801811102C0C0E0E7C140E060E024
:1026900080E00E942A08F8CFC091160189E0C89F07
:1026A000C02D112409E00C0FC02E0B3210F0AAE24D
:1026B000CA2E6091D7037091D8038091D9030E94EC
:1026C000A009F62EE72ED82ED0E0CC1528F0C1E0D8
:1026D0000A3208F4C2C1D8CFFE01E350FE4F808118
:1026E00090911701892331F02D2D4F2D6E2DCE01A4
:1026F0000E942D082196E9CFC091160189E0C89F5C
:10270000C02D112409E00C0F902E0B3210F0FAE2CC
:102710009F2EB090D803C090D903D091D7036D2FCE
:102720007B2D8C2D0E94A009F62EE72ED82E6091CD
:10273000DA036D0F7B2D8C2D0E94A009C62EB72EBB
:10274000A82ED0E0C91518F6FE01E350FE4F908187
:1027500080911701892359F02A2D4C2D6B2D90FD66
:1027600003C02D2D4F2D6E2DCE010E942D082196D8
:10277000E9CFC091160189E0C89FC02D112409E05E
:102780000C0FE02E0B3210F0EAE2EE2ED090D803C0
:10279000C090D9032091DA0370E4F72E3F2D329FC9
:1027A000312D1124F32ED0E0CE1508F090CFFE018C
:1027B000E350FE4F8081909117018923B9F0FE010B
:1027C000EE0FFF1FE758FE4F81A982958F70609131
:1027D000D7038F9D600D11247D2D8C2D0E94A009A3
:1027E000462F672F282FCE010E942D082196DCCF7F
:1027F000C091160189E0C89FC02D112409E00C0F7B
:10280000E02E0B3210F05AE2E52ED090D803C090A3
:10281000D9032091DA0340E4F42E3F2D329F312D6D
:102820001124F32ED0E0CE1508F051CFFE01E35075
:10283000FE4F8081909117018923D9F0FE01EE0FA0
:10284000FF1FE758FE4F60A9F69EB001112435E046
:10285000759567953A95E1F78091D703680F7D2DBF
:102860008C2D0E94A009462F672F282FCE010E9491
:102870002D082196D8CFC091160189E0C89FC02DA0
:10288000112409E00C0FC02E0B3210F09AE2C92E71
:10289000F090D703D091D803E090D9036091DA0388
:1028A0006695669566958091D2039091D3030E94B8
:1028B00096090E94FB0890E8980F97FD9195990F53
:1028C000292F3E2D239F212D11246F2D7D2F822F07
:1028D0000E94A009F62EE72ED82ED0E0CC1508F0E5
:1028E000F6CEFE01E350FE4F8081909117018923BF
:1028F00031F02D2D4F2D6E2DCE010E942D082196E9
:10290000EDCF81E098E00E94830B07C08AED97E04D
:10291000FACF8DED98E00E949D0CC82F9EC08EEBE3
:1029200098E0F9CF83EA98E00E94300CF6CF88E86F
:1029300098E0FACF88ED97E0E6CF8FEC97E0E3CF11
:1029400086EC97E0E0CF8DEA97E0DDCF8FE997E066
:10295000EBCF8DE699E0DFCF87E798E0DCCF83E629
:1029600098E0E2CF82E797E00E94CE0BD6CF84E4D6
:1029700097E0FACF8CE097E0F7CFC091160189E09D
:10298000C89FC02D112409E00C0F809118018111FE
:1029900031C06091DA0320E1620F08F46FEF80919B
:1029A000D2039091D3030E9496096AE070E00E94DE
:1029B0005F2C892B09F08BCE4091130150911401AB
:1029C00025E038E0429FC001439F900D529F900D3B
:1029D0001124875E994C9093140180931301890F01
:1029E0006AE20E94532C60911701892F90E00E94A7
:1029F000240A6DCE802F0B3208F08AE2D0E0E82E58
:102A0000F12CCE15DF050CF062CE60911701CE01DE
:102A10000E94240A2196F5CFC0911801C11135C03A
:102A20006091DA0320E1620F08F46FEF8091D20326
:102A30009091D3030E94960965E070E00E945F2C9C
:102A4000892B09F021CE0E94332D6AE270E00E94AA
:102A5000732C609117010E94EC12809116018F5F18
:102A600080931601C1110CC082E080931201809105
:102A70001801811105C0111103C083E08093120178
:102A8000CDB7DEB7EBE00C94B72CC091160189E00E
:102A9000C89FC02D112409E00C0F802F0B3208F0C5
:102AA0008AE2D0E0E82EF12CCE15DF050CF00FCE37
:102AB00060911701CE010E94EC122196F5CFC091D2
:102AC000160189E0C89FC02D1124D9E0DC0FDD2E4E
:102AD000DB3210F08AE2D82EE090D803F090D903D0
:102AE0000091D7036091DA036695669566958091AB
:102AF000D2039091D3030E9496090E94FB0890E8AC
:102B0000980F97FD9195990F692F2CE0629F612D89
:102B10001124600F7E2D8F2D0E94A009F62EE72E26
:102B2000082FAC2EB12CAD1428F0C1E0DA3208F435
:102B300094CFAACDF501E350FE4F8081909117010B
:102B4000892331F0202F4F2D6E2DC5010E942D08B5
:102B50003FEFA31AB30AE7CF8AE199E0D4CE8BEF17
:102B600096E0D1CE84EF96E00E94100BD6CE8EEE8A
:102B700096E0FACF2091DC0331E0231B08F420E03B
:102B800064ED76E0822F0E946E0AC7CE64ED76E097
:102B900080E0F9CF2091DC0331E0231B08F420E032
:102BA0006BE976E0EFCF6BE976E0F2CF2091DC03C2
:102BB00031E0231B08F420E069E676E0E3CF69E624
:102BC00076E0E6CF2091DC0331E0231B08F420E01F
:102BD00061E576E0D7CF61E576E0DACF2091DC03DE
:102BE00031E0231B08F420E06AE376E0CBCF6AE310
:102BF00076E0CECF46E050E06CE170E086ED93E009
:102C00000E94772D1092140308954F925F926F9255
:102C10007F928F929F92AF92BF92CF92DF92EF926C
:102C2000FF92C0900F03D0901003E0901103F0903A
:102C300012038FB7F89440909A0350909B036090D2
:102C40009C0370909D038FBF530142018C189D0817
:102C5000AE08BF080E94A804282F60930F0370934A
:102C600010038093110390931203A091E602E6EE05
:102C7000F2E08A2F30E04FEFC40ED41EE11CF11CAD
:102C8000C418D508E608F708A3132DC08093E60200
:102C90008091130381113AC03091D603832F837042
:102CA00019F0832F8695869530911201323009F400
:102CB00041C070F531113BC0109216016093D203F0
:102CC0007093D3032093D4039093D50389E2E6EE67
:102CD000F2E0ACEDB3E001900D928A95E1F781E06E
:102CE0008093120117C0418D528D2A01712C612CE5
:102CF000C414D504E604F70420F481503F5F3296F3
:102D0000C3CF480D591D528F418FF8CF80E0CCCFF3
:102D10003330D9F0FF90EF90DF90CF90BF90AF901D
:102D20009F908F907F906F905F904F9008950E943A
:102D30001013F0CF809311018091D603837080939C
:102D400010010E94521183E0CBCF809114038111B6
:102D50000E94FA154091D2035091D3036091D4039D
:102D60007091D5032FB7F89480919A0390919B03AB
:102D7000A0919C03B0919D032FBF841B950BA60BC4
:102D8000B70B4097A105B10528F210921201C2CFEE
:102D9000E6EDF3E085E380838091190190911A01BB
:102DA000A0911B0181839283A3838FE784838FEF9C
:102DB00085830E94FA1508958091B7029091B6021A
:102DC000892B80932A029091B8029923A1F0892B34
:102DD00080932A02809115018823E1F180919E035E
:102DE00087FF38C08EE1ECE2F2E090E08150A0F580
:102DF00091110E94161040E250E066E972E08AE20A
:102E000092E00E94432D892B21F180E2EAE2F2E078
:102E1000A6E9B2E001900D928A95E1F7E091950361
:102E2000F09196033097A9F080911501882359F00D
:102E300080919E0387FF07C080912A0280932B0216
:102E400086E080932A020280F381E02D8AE292E0FC
:102E50000995089586E0C7CF2191222339F29F5F1B
:102E6000C5CF90E080E00E94490590E080E00E949C
:102E700033051092B6020E94DC1686E0E0EEF2E026
:102E8000DF011D928A95E9F71092DA021092D902B9
:102E90001092DB020E94F30C0895809308040E94B4
:102EA0003117089580910804982F9670963021F478
:102EB00088600E944D170895877FFBCF21E030E0A6
:102EC00001C0220F8A95EAF7209580910804822399
:102ED0000E944D17089590919502809589238093C3
:102EE0009502282F277091F4282F082E000C330B01
:102EF0009217130659F090919F0392FF07C0859592
:102F0000859585950E945E1710929502089590917F
:102F10009F0392FB222720F9281769F080FB92F982
:102F200090939F0380919E0390919F030E941212A1
:102F300082E00E946B17089521E030E001C0220F6B
:102F40008A95EAF780910804822B0E944D17089514
:102F50008093B9020E9431170895882321F00E94BE
:102F60001C100E94DC160895882339F09091B70256
:102F7000892B8093B7020E94DC160895882391F173
:102F80009CEF980F913A40F4682F8AE292E00E94F9
:102F9000D1040E94DC16089590E2980F983050F406
:102FA000877091E001C0990F8A95EAF7892F0E94F6
:102FB0001C10EFCF9BE5980F933028F490E080E051
:102FC0000E944905089598E5980F973128F490E0FC
:102FD00080E00E9433050895803F20F00E94190D83
:102FE0000E94F30C0895CF93C82F8823D1F18CEF62
:102FF0008C0F813AC0F580911501882311F18091E1
:103000009E0387FF1EC0EC2FE695E695E695F0E05F
:10301000E65DFD4F828190E04C2F477021E030E06B
:1030200002C0220F331F4A95E2F782239323892B94
:1030300089F06C2F8AE292E00E94D1040E94DC1693
:1030400009C0ECE2F2E08191C81799F322E0E23383
:10305000F207C9F76C2F8AE292E00E94FD040E94F9
:10306000DC16CF91089580E28C0F883068F4C77029
:1030700021E030E001C0220FCA95EAF78091B70243
:10308000822B8093B702EBCF8BE58C0F833038F423
:103090002C2F2452330BC9010E944905E2CFE8E5E9
:1030A000EC0FE73150F4F0E0EE0FFF1FE05EFE4F53
:1030B000808191810E943305D4CFC03F90F28C2F44
:1030C0000E94D40D0E94F30CCCCF0F931F93CF938B
:1030D000C82F10E000E0893311F400E510E08C2FD8
:1030E0000E94F3170115110539F48C2F0E94BE17A9
:1030F000CF911F910F9108958FE99FE00197F1F70C
:1031000000C0000001501109EDCFFF920F931F93F3
:10311000CF93DF93C62FD42F122FFC0182818823F7
:10312000A9F0609307040E94C5049093060480935D
:103130000504C77081E001C0880FCA95EAF70E94B4
:10314000B417CDB7DEB7E5E00C94BD2C8091070431
:10315000681330C080910504909106040E94990480
:10316000883C910538F500E20D0FCD17A9F0C77026
:10317000FF24F3948F2D01C0880FCA95EAF70E94AF
:10318000AD17083048F48D2F877001C0FF0C8A9569
:10319000EAF78F2D0E94B417812F0E94651808301E
:1031A00080F6D77081E001C0880FDA95EAF70E94B7
:1031B000AD17C7CFC77081E001C0880FCA95EAF785
:1031C000F6CFB0E0A0E0E7EEF8E10C949F2CE82FFA
:1031D000F0E0E55EFC4FD490282F269526952695A5
:1031E00030E0F901E55FFC4F0491877010E0082E94
:1031F00002C0159507950A94E2F701701127F901AD
:10320000E550FD4FE490F12C082E02C0F594E794B0
:103210000A94E2F791E0E922FF24F901E551FD4F1C
:10322000C491D0E002C0D595C7958A95E2F7C170E8
:10323000DD270115110519F081EE0E94F317E11445
:10324000F10419F086EE0E94F3178D2D0E94651887
:10325000E114F10419F086EE0E94BE170115110564
:1032600019F081EE0E94BE17CD2B19F08CE20E945E
:103270006518CDB7DEB7E7E00C94BB2CA8E0B0E052
:10328000E4E4F9E10C94982C8E010F5F1F4F88E065
:10329000F80111928A95E9F79EE4E92E91E0F92E62
:1032A000680122E5622E21E0722E88248394912CFD
:1032B000F70181917F018F3F09F446C0F894E82F10
:1032C000E295EF70F0E021A18F70A40102C0440FDD
:1032D000551F8A95E2F7CA01922F982B91A392A1CC
:1032E0008095892382A3789400C0E2E5F1E021E093
:1032F00030E0B12CA12C41914F3F09F465C0A42FBF
:10330000A295AF70B0E090968C9190E04F7002C0A3
:10331000959587954A95E2F780FD56C0C901A82A80
:10332000B92A220F331F51E0EE35F50721F7F701D7
:10333000319780818F3F11F00E94300E80EA8A958C
:10334000F1F7F601B182A082F2E0CF0ED11C6E142B
:103350007F0409F0ADCF48E050E0B8018DEB92E07A
:103360000E94432D892B99F188E0F801ADEBB2E082
:1033700001900D928A95E1F781E08093BC020E9452
:10338000C5049093BB028093BA028091BA029091D7
:10339000BB020E9499040597F0F048E050E06DEB05
:1033A00072E081ED92E00E94432D892BC9F088E004
:1033B000EDEBF2E0A1EDB2E001900D928A95E1F71C
:1033C00081E01092BC0208C090E080E0A8CF80911C
:1033D000BC028111DACF80E02896EEE00C94B42C88
:1033E00080E0EFCF1092B70280911501ECE2F2E09D
:1033F000882361F080919E0387FF08C08EE1DF0182
:103400001D928A95E9F70E943117089586E0F7CF5B
:10341000AAE2B0E0EEE0FAE10C94A32C8AEC93E08F
:10342000FC0101962091F100208323E0823D920768
:10343000B9F78091CB03893009F456C0C8F48230C3
:1034400009F4B3C0833009F482C0813071F18091F6
:10345000E80083FF85C28091CA039091CB039A3024
:1034600008F07EC2E92FF0E0E85CF14D0C94872C67
:103470008A3009F489C08B3051F78091CA038132B8
:1034800031F78091CE039091CF03892B01F7809182
:10349000E800877F8093E8000E948F038091CC032F
:1034A000809315010E94F219D2CF8091CA03813A0C
:1034B00071F68091E800877F8093E8008091CE03C9
:1034C0009091CF03892B61F460E286EA93E070E08B
:1034D0000E943B048091E8008B778093E800B7CF8F
:1034E00060E090E080E0F3CF8091CA03813209F080
:1034F000AECF8091CE039091CF038D7F892B09F0C1
:10350000A6CF8091E800877F8093E8008091E80053
:1035100082FF18C09091F3008091F200029731F47D
:103520008091F100813011F0863021F48091F1001A
:103530008093A5038091E8008B778093E8000E9438
:103540008F0385CF8091C8038111E0CF80CF809118
:10355000CA03813A09F07BCF8091CE039091CF03CB
:10356000892B09F074CF8091E800877F8093E80071
:103570008091E80080FFFCCF809115018093F100DD
:103580008091E8008E77D9CF8091CA03813209F00B
:103590005ECF8091E800877F8093E8000E948F03D0
:1035A0008091CD038093A40352CF8091CA03813AC6
:1035B00009F04DCF8091E800877F8093E8008091EB
:1035C000E80080FFFCCF8091A403D8CF803899F029
:1035D000823809F0C5C18091CE038F70873008F022
:1035E000BFC18093E9008091EB0085FB882780F9BB
:1035F0001092E90006C08091C6039091C703911113
:1036000082609091E800977F9093E8008093F100AA
:103610001092F1008091E8008E779EC1882309F412
:103620008CC1823009F09CC18091CC0381118FC183
:103630008091CE038F702FEF280F263008F090C1B5
:103640008093E9002091EB0020FF81C1933031F499
:103650008091EB0080628093EB0079C19091EB0048
:1036600090619093EB0021E030E001C0220F8A9539
:10367000EAF72093EA001092EA008091EB0088605C
:10368000EACF81116DC11091CC031F778091E300C7
:103690008078812B8093E3008091E800877F80937E
:1036A000E8000E948F038091E80080FFFCCF8091AA
:1036B000E30080688093E30082E0111183E080934F
:1036C000C8034EC18058823008F04AC14091CC03F3
:1036D0005091CD034C3D83E05807A1F583E08A83E8
:1036E0008AE289834FB7F894DE01139620E03EE02A
:1036F00051E2E32FF0E050935700E49120FF03C024
:10370000E295EF703F5FEF708E2F90E0EA30C0F0EF
:10371000C7968D939D932F5F243159F74FBF8091AA
:10372000E800877F8093E8006AE270E0CE010196AE
:103730000E943B048091E8008B778093E80010C1E1
:10374000C096E7CF8091CE039091CF03252F3327EA
:103750002330310509F44AC078F52130310509F4E8
:1037600079C08BE590E0EBE1F5E02230310509F01E
:10377000F7C02091E800277F2093E8002091D00334
:103780003091D1038217930708F49C0140E0211582
:10379000310509F064C0411162C08091E80082FDEA
:1037A000C9CF8091C803882329F2853019F280910E
:1037B000E80083FFF2CFBECF2132310509F43BC0D0
:1037C0002232310509F0CCC08330910508F0C8C021
:1037D000FC01EE0FFF1FE359FE4F0190F081E02D39
:1037E00086599E4FDC018C9190E011C0CA01992747
:1037F000413089F082309105B1F0892B09F0B0C0D9
:10380000E2EBF5E0E4918E2F90E0E2EBF5E000973B
:1038100009F4A6C0AECFE2EAF5E0E4918E2F90E085
:10382000E2EAF5E0F4CFE8E8F5E0E4918E2F90E0ED
:10383000E8E8F5E0ECCF8330910508F091C0880FFF
:10384000991FFC01ED58FE4F0190F081E02D89E0B9
:1038500090E08FCF82E190E0E6E7F5E08ACF8091BB
:10386000C803882309F466CF853009F463CF8091BB
:10387000E80083FD5FCF8091E80082FD8ECF8091CC
:10388000E80080FF84CF9091F3008091F200211531
:10389000310519F08830910550F041E0089709F0A2
:1038A00040E08091E8008E778093E80070CF4491EB
:1038B0004093F1003196215031090196E8CF8038CC
:1038C00009F04EC08091E800877F8093E8008091E6
:1038D000C9038093F1009ECE811142C01091CC03A8
:1038E0001230F0F58091E800877F8093E800109314
:1038F000C9030E948F03112311F084E005C0809159
:10390000E30087FDFACF81E08093C80342E061ECD9
:1039100081E00E94AE0342E261EC84E00E94AE03CB
:1039200042E261EC82E00E94AE0342E260EC83E09E
:103930000E94AE038091C80313C08091CC038130F4
:1039400079F481E0933009F080E08093C70310920E
:10395000E9008091E800877F8093E8000E948F0350
:103960008091E80083FF0AC08091E800877F809300
:10397000E8008091EB0080628093EB00AA96E3E080
:103980000C94BF2C0E94F2192FEF84E39CE021508D
:1039900080409040E1F700C0000088E19CE00FB655
:1039A000F894A895809360000FBE90936000FFCFBD
:1039B00090E080E00E94712D883E9E4F19F40E9495
:1039C000C512089580E0089568EE7EEF90E080E0F3
:1039D0000E94A52D60E082E090E00E94872D60E0CB
:1039E00083E090E00E94872D1092B90260E084E0AD
:1039F00090E00E94872D64E082E290E00E94872D93
:103A000060E085E090E00E94872D60E086E090E035
:103A10000E94872D6FEF87E090E00E94872D40E0A5
:103A200050E0BA0188E090E00E94992D60E08DE0BE
:103A300090E00E94872D40E050E0BA0188E190E0DC
:103A40000E94992D60E087E190E00E94872D40E080
:103A500050E0BA018CE190E00E94992D70E060E0A6
:103A600080E290E00E94A52D40E050E0BA0188E19C
:103A700090E00E94992D80E00E94E9110E940212BC
:103A800040E050E0BA018FE090E00E94992D40E0C4
:103A900050E0BA0183E190E00E94992D0895A5E0DD
:103AA000B0E0E5E5FDE10C94992C7C01FC018381FB
:103AB0009481892B31F08081918189238F3F09F096
:103AC00069C52596EDE00C94B52C0E945D12182F67
:103AD000682F89819A810E94621069817A81812F81
:103AE0000E944F128C01F7018281882309F420C5BE
:103AF000980122513F452031310508F0D3C48FEFA2
:103B000093E00E94692D811130C05EEED52ED00E5B
:103B100007EA11E0D1103BC080911C0190911D017A
:103B2000A0911E01B0911F0189839A83AB83BC834E
:103B3000BB24B3944AE0A42E68012FEFC21AD20A24
:103B4000C8010E94692D89831A82882371F09FEF32
:103B5000980F933048F58A83B9820E5F1F4FC601D4
:103B60000E94692D8B83811120C0809195028770FE
:103B700009F4A7CFF7018281882309F4A2CF8091AD
:103B80009F0382FF9ECF82E00E946B179ACF0115A0
:103B9000F4E01F0751F3C8010E94692D811101C093
:103BA000DA940F5F1F4FB6CF8601CE0101966C01EC
:103BB000F6018081882309F4BFCF813009F047C026
:103BC00091818281913049F4F2E0CF0ED11C0E94A4
:103BD0006518EFEFCE1ADE0AEBCF923031F422E017
:103BE000C20ED11C0E94F317F4CF933031F432E0AF
:103BF000C30ED11C0E94BE17ECCF943021F08FEF82
:103C0000C81AD80AE6CF92E0C90ED11C30E020E0F5
:103C1000B6016F5F7F4FF60141818053990B8A3067
:103C2000910550F021503109A0F28FE99FE00197F2
:103C3000F1F700C00000F6CFA29EF001A39EF00DA8
:103C400011249C012E0F3F1F842F6B01E1CF0E9496
:103C5000E118BFCF81E00E949C1703C081E00E9461
:103C60005E170E94521781CF82E0F5CF82E0F7CF36
:103C70009091B702911179CF811177CF04EC11E0C7
:103C80003AE0B32EF8018491882309F46ECF813095
:103C900009F04FC06801FFEFCF1ADF0AF6018491E7
:103CA000813061F46801F2E0CF0ED11CF6018491FD
:103CB0000E94651886010F5F1F4FE4CF823049F4E0
:103CC0006801F2E0CF0ED11CF60184910E94F31737
:103CD000F1CF833049F46801F2E0CF0ED11CF60138
:103CE00084910E94BE17E6CF843021F76801F2E08C
:103CF000CF0ED11CF601249190E080E0F6013196C0
:103D00002053330B2A30310548F0019798F2EFE940
:103D1000FFE03197F1F700C00000F7CFB89EA00197
:103D2000B99E500D1124C901840F951F24916F0174
:103D3000E5CF0E94E1186801BDCF053FFCE51F07F4
:103D4000A9F0063F2CE51207A9F027E245EE64EE44
:103D5000043F3CE5130709F419C4BAC327E245EE52
:103D600065EE14C426E241EE60EE10C426E241EE98
:103D700062EE0CC427E245EE66EE08C4C8018A5F15
:103D80009C45099708F4BBC306312CE51207E9F4FA
:103D90008091B7028A7A91E009F490E090934A0208
:103DA00069E2811165E38AE292E00E94FD040E94CB
:103DB000DC16DBCE053A9DE5190709F4A0C3C8015E
:103DC0008D5A9D45039708F49AC30B35FDE51F07EF
:103DD00009F043C180E073C1F801E350FC458091D4
:103DE0009E038160E331F10568F5EE5BF14D0C94C3
:103DF000872C03302DE5120780F40A3F3CE51307BA
:103E000008F48DC3F801EB5FFC45E830F10508F0DC
:103E10003FC0EB5AF14D0C94872C0D3A8DE51807F5
:103E200029F198F40136EDE51E0709F4B0C0909130
:103E30009E03892F8E7F90FF8160053AFDE51F0765
:103E400009F06DC380939E036AC30E3A2DE51207F5
:103E500009F444C00F3A3DE5130709F060C390919F
:103E60009F03892F877F93FF886003C080919F0302
:103E7000886080939F0353C380919E038260E2CF4A
:103E800080919E038460DECF80919E038860DACFAC
:103E900080919F038160EDCF80919F038260E9CF85
:103EA00080919E038061CECF80919E038062CACFB5
:103EB00080919E038064C6CF0E94F21980919E0378
:103EC0008068C0CF80919E038C60BCCF80919F039F
:103ED0008360CFCF80919E038E7FB4CF80919F036C
:103EE000877FC7CF80919E038D7FACCF80919E034B
:103EF0008B7FA8CF80919E03877FA4CF80919F0363
:103F00008E7FB7CF80919F038D7FB3CF80919E032B
:103F10008F7E98CF80919E038F7D94CF80919E035A
:103F20008F7B90CF0E94F21980919E038F778ACF6A
:103F300080919E03837F86CF80919F038C7F99CF52
:103F400080919E0382FB992790F921E0922790FBB4
:103F500082F990FB83F976CF80919F03982F9095FB
:103F600091708E7F892B90FB81F983CF0E94F2198B
:103F700090919E03892F97FB87F9805863CF61E06A
:103F80008EE090E00E94872DCAC260E0F9CF909148
:103F90009E03892F8F7E94FF806154CF023C9CE565
:103FA000190708F422C3F801E35CFC45E331F1058D
:103FB00020F4E35AF14D0C94872C8091D60391E0C4
:103FC00089278093D6031092120180911403816097
:103FD00080931403CACD41E256E06EE276E00E947F
:103FE0006C05C3CD4EE256E061E276E0F8CF41EFDA
:103FF00055E06CEF75E0F3CF4CEF55E061EF75E005
:10400000EECF45ED55E063EE75E0E9CF43EE55E0C8
:1040100065ED75E0E4CF49EB55E067EC75E0DFCF87
:1040200047EC55E069EB75E0DACF49E855E067E920
:1040300075E0D5CF47E955E069E875E0D0CF61E09C
:1040400081E00E94070691CD61E085E0FACF61E052
:104050008DE0F7CF61E082E1F4CF0C35FDE51F077D
:10406000D0F40E3D2CE5120701F181E00A353DE563
:10407000130729F101151C4509F0B7C20E94F21976
:10408000FFEF24E33CE0F15020403040E1F700C076
:1040900000000E942E110C359DE5190749F0073AE2
:1040A0001D4509F0A2C20E94C21C0E94E41CFBCF65
:1040B00080919F0382FB882780F991E089270E94E5
:1040C000871793C2C6010E942E10182F9DC2F12F90
:1040D000FF70AF2E107F19F0A29490EFA922802FCD
:1040E0009920B9F0AA2069F090E2900F983010F072
:1040F000011109C08091B702A82AA092B7020E94BC
:10410000DC16802F49C08091B602A82AA092B60280
:10411000F6CF0E94BE17AA2009F440C0005E083006
:1041200010F0711004C08A2D0E941C1006C0A094CB
:104130008091B602A822A092B6020E94DC162EC080
:10414000212F2F70A22E107F103219F0A29480EF31
:10415000A822772089F031E0731609F469C099200C
:1041600009F473C0882009F469C0F701958190FFB4
:10417000C8CF9F70958362C020919F0322FD36C0F7
:10418000992071F1AA2039F08091B7028A29809391
:10419000B7020E94DC1680E00E94F31798E0C91A6B
:1041A000D108E4E0CE16D10410F40E945F05BB20D4
:1041B00009F487CC8091950280FD83CCF7011282AF
:1041C0008595859585950E949C17C7010E944F1D76
:1041D000809195028595859585950E945E1771CC95
:1041E00080E00E94BE17AA20C9F29DCF992099F0C5
:1041F0009091B802892F8A29811003C00E94B417B8
:10420000CDCFE1E08E12FACF22FFC8CF981731F25E
:104210008093B802C3CF811006C00E9416108A2D69
:104220000E94AD17BBCFF1E08F1609F4B7CFF5CFE1
:10423000992031F025E0281508F4B0CF8A2DDECF83
:1042400034E0381508F4AACFEACF882041F30933C7
:1042500049F4FFEF27EE33E0F15020403040E1F722
:1042600000C00000802F0E94BE1798CF812F869536
:104270008695837061F0813009F090CFC80193700A
:10428000911002C090E080E00E94330587CFC80102
:104290009370911002C090E080E00E9449057ECFAB
:1042A000802F992029F00E94D40D0E94F30C76CF24
:1042B0000E94190DFACF812F837091F591106ECF66
:1042C000402F429546954770440F440F802F8F70C2
:1042D000042E01C0880F0A94EAF7202F207104FFF2
:1042E00007C02FE030E001C0220F4A95EAF7209581
:1042F000169516951370123071F0133051F03091FD
:10430000B902113029F0822B83230E94A81746CFCF
:10431000832B822BFACF282B8091B9028227F5CFED
:104320008695992011F0812F8170882309F436CF6A
:10433000402F429546954770440F440F802F8F7051
:10434000042E01C0880F0A94EAF7202F207104FF81
:1043500007C02FE030E001C0220F4A95EAF7209510
:10436000169516951370123071F0133051F030918C
:104370000804113029F0822B83230E944D170ECFA1
:10438000832B822BFACF282B809108048227F5CF2C
:104390001F70992029F0812F0E949C17802F2ECF0B
:1043A000802F0E94AD17812F0E945E17F7CE802FBD
:1043B00092EF7916B1F1971570F0E0EF7E16D1F01B
:1043C000F1EF7F1691F0992009F45CC0811099CE2D
:1043D000812F8F712AC023EF721651F134EF7312BF
:1043E000F2CF80919F0382FD2FC0812F8F71992082
:1043F000D9F21BC0992081F084E0881508F4CECE54
:104400001F7181E090E0012E01C0880F0A94EAF745
:10441000909108048927B1CF95E0981508F4BECE95
:10442000EFCF812F8F719110BFCF0E949C17B6CE16
:1044300080E0992009F4A1CF1F7181E0012E01C015
:10444000880F0A94EAF799CF992089F01F71812F7C
:104450000E949C1780919F0382FF07C0E8E01E9F87
:10446000C0011124836080939502812FDECF81E00B
:104470000E946B17F1E0F81508F090CE82E00E94E0
:104480006B178CCE882059F0893309F0EBCE2FEFD3
:1044900037EE83E0215030408040E1F7E1CE812FBC
:1044A0008F7182CF0031FFE51F0709F4D3CB0131B3
:1044B0002FE5120709F4D8CB01159CE5190709F07F
:1044C00045C040E060E084EB0E942A080E9452113F
:1044D000F7018281882309F46EC010920704013627
:1044E000FDE51F0761F008F065CC06313CE51307D8
:1044F00008F044CC02308CE5180708F466CC0E9422
:10450000DE1290939F0380939E030631ECE51E0715
:1045100008F06FCC0230FCE51F0708F05DCC8091FD
:104520009E0390919F030E9412120E94F2191DCBCC
:1045300000313FE5130709F491CB01319FE51907DD
:1045400009F494CB0115FCE51F0711F209382FE59A
:10455000120709F48DCB033F2CE5120709F402CCB6
:1045600008F0EBCB083D8CE5180709F4F7CB28E2FF
:1045700041E0093D9CE5190709F4F2CB26E241EE42
:1045800061EE073DECE51E0709F0A2CFC7010E94CE
:104590008518EBCA85E0DE01119601900D928A958F
:1045A000E1F7F701228189819A8121118ECA0E9447
:1045B0002E10182F92CA06313CE5130751F4809152
:1045C0004A0269E2811165E38AE292E00E94D10425
:1045D000EECB8091B7028272063DECE51E0708F42F
:1045E000DDCC0D35100709F4C0CAF7018281C08007
:1045F000D180882309F466CDC6010E945D12182F70
:10460000682FC6010E946210B601812F0E944F12CE
:104610000E948C0E8C01782EF70192808580829406
:104620002FE08222809195028770C1F0B92C9920E9
:10463000B1F0812F807F803421F080E2800F8830BC
:1046400068F080919F0382FF09C082E00E946B178F
:10465000809195028770BB24B3948111B12C812F76
:1046600082958F70C82ED12C8C3008F097CDF60132
:10467000E059F14D0C94872C1F93CF93DF938091D9
:104680006202807F09F049C080915F02882309F4AB
:1046900044C080919402D091630260915D02709158
:1046A0005E02A0916002B0916102C62FC72316E09E
:1046B000D81799F190E0109711F0CF3F19F40196B7
:1046C0008770F6CF189F9001199F300D1124F901C2
:1046D000EC59FD4F41814713F2CF40814613EFCF94
:1046E00042814111ECCF438154814A1B5B0B483C12
:1046F000510528F7809162028F7080618093620279
:10470000F901E759FD4F80818F70806180838DE5CD
:1047100092E00E944F1D0E942410DF91CF911F91C3
:104720000895ABE0B0E0E7E9F3E20C949C2C8C0137
:1047300085E0F801DE01179601900D928A95E1F768
:10474000F801E2808DE5A82E82E0B82E609160022B
:10475000709161026115710509F40EC190915D02BD
:1047600040915E02842F89238F3F09F405C1208187
:104770003181C380D480F0905F02F601E61BF70B15
:10478000FF2009F4C4C080916202582F507FE83C9A
:10479000F10508F09FC051116BC0FE2C431314C0EB
:1047A000921312C0E11010C08F708061809362027A
:1047B000C5010E944F1D80916202F80185838F2DF3
:1047C0002B96EAE00C94B82CC114D10429F0822F66
:1047D00083238F3F09F0EBC080E0F82FF170DF2ECC
:1047E000E09194024091630256E080FD1CC0EE20EF
:1047F00031F380916202816080936202F12CDFCFFD
:104800008E2F90E05E9FF0011124EC59FD4F6181E5
:10481000361306C06081261303C06281E612E7CF1B
:10482000FC013196E770E413EBCF2F8338878F813B
:1048300098850E948812292F22952F70903260F05F
:10484000225F2F70223078F49F7051F0F80195812B
:10485000907F31F4D12C0AC09F7011F08823D1F3DE
:10486000805E8830B8F3C8010E944F1DFD2CA7CF91
:10487000431306C0921304C0F801EE2009F461C08E
:10488000C8010E949712882309F1EE20F9F0809167
:104890006202803270F020915D0230915E023A83B4
:1048A00029831B82DD82CC828E83CE0101960E94F9
:1048B0004F1D86E0F801ADE5B2E001900D928A95BA
:1048C000E1F70E943C23FF24F39479CFC8010E94B2
:1048D0004F1DF9CF51110AC08DE592E00E944F1D86
:1048E00086E0F50111928A95E9F788CF4313C8CF86
:1048F0009213C6CFE110C4CFF8018583C8010E948E
:104900004F1D86E0F50111928A95E9F758CFE83CF2
:10491000F105B8F7FE2CEE20C9F243131FC0921325
:104920001DC08091620280FD10C0982F907F69F0B9
:10493000F8018583903F31F0982F907F905F8F70C2
:10494000892B8583C8010E944F1D86E0F801ADE5E3
:10495000B2E001900D928A95E1F731CFC8010E9433
:1049600097128111A6CF80916202816080936202CA
:10497000C8010E944F1D23CFEE2009F4A7CFC80124
:104980000E949712F82E882309F4A0CF86E0F80140
:10499000ADE5B2E001900D928A95E1F780915D025C
:1049A00090915E020E9488120E943C2308CF81E011
:1049B0008E2513CFA7E1B0E0E0EEF4E20C94A32C37
:1049C0004B8B5C8B6D8B7E8B8F8B61111092B60243
:1049D0001A8A2C898E899F893B893D872E876F870C
:1049E000998B888B86E0FE013D96DE01179601903B
:1049F0000D928A95E1F7CE0107960E9491238823B4
:104A000059F016E08091940290916302891349C095
:104A10006796E3E00C94BF2C86E0FE013796DE013A
:104A2000119601900D928A95E1F74A855B854115B3
:104A3000510539F37F816885862F87238F3F09F3DE
:104A40002091630230E0C901019687709927E091B7
:104A50009402E817190671F40E94F2191092630289
:104A60001092940286E0EDE5F2E0DF011D928A9556
:104A7000E9F7C7CF79836A835D834C8396E0929F81
:104A8000D001939FB00D1124AC59BD4FFE0131965A
:104A900001900D929A95E1F7809363020E94241091
:104AA000B0CF819FC00111248C599D4F0E9491234A
:104AB000882309F4ADCF8091940290E0019687702D
:104AC0009927809394029ECF1F920F920FB60F9258
:104AD00011242F933F934F935F936F937F938F9303
:104AE0009F93AF93BF93CF93DF93EF93FF93D091B7
:104AF000E900DF708091EC00C82FC17080FDC0E834
:104B00001092E9008091F000877F8093F000789404
:104B10000E94081A1092E9008091F000886080934A
:104B2000F000CD2BCF70C093E900FF91EF91DF91A2
:104B3000CF91BF91AF919F918F917F916F915F9135
:104B40004F913F912F910F900FBE0F901F9018958E
:104B50001F920F920FB60F9211242F933F934F93F2
:104B60005F936F937F938F939F93AF93BF93EF93D5
:104B7000FF938091E10082FF09C08091E20082FFF3
:104B800005C08091E1008B7F8093E1008091DA0085
:104B900080FF24C08091D80080FF20C08091DA007F
:104BA0008E7F8093DA008091D90080FF9BC080E1E6
:104BB00089BD82E189BD09B400FEFDCF81E080930B
:104BC000C8038091A303811109C00E9415030E94AC
:104BD000E0038091E20084608093E2008091E10034
:104BE00080FF17C08091E20080FF13C08091E20037
:104BF0008E7F8093E2008091E20080618093E200EA
:104C00008091D80080628093D80019BC85E08093A1
:104C1000C8038091E10084FF29C08091E20084FFF5
:104C200025C080E189BD82E189BD09B400FEFDCFC8
:104C30008091D8008F7D8093D8008091E1008F7E95
:104C40008093E1008091E2008F7E8093E20080916A
:104C5000E20081608093E2008091C903882309F417
:104C600047C084E08093C8038091C8038091E1002D
:104C700083FF27C08091E20083FF23C08091E10081
:104C8000877F8093E10082E08093C8031092C9037C
:104C90008091E1008E7F8093E1008091E2008E7F21
:104CA0008093E2008091E20080618093E20042E024
:104CB00060E080E00E94AE038091F0008860809305
:104CC000F000FF91EF91BF91AF919F918F917F91F4
:104CD0006F915F914F913F912F910F900FBE0F9069
:104CE0001F90189519BC1092C8031092A30376CF99
:104CF0008091E30087FD02C081E0B4CF83E0B2CFB2
:104D000078941F921FB61F9211248F939F93AF9395
:104D1000BF9380919A0390919B03A0919C03B091C3
:104D20009D030196A11DB11D80939A0390939B034F
:104D3000A0939C03B0939D03BF91AF919F918F91DE
:104D40001F901FBE1F9018951F921FB61F9211240F
:104D50008F939F93AF93BF9380919903811113C059
:104D600080919A0390919B03A0919C03B0919D0325
:104D70004196A11DB11D80939A0390939B03A0932C
:104D80009C03B0939D03BF91AF919F918F911F9012
:104D90001FBE1F901895CDB7DEB7A9970FB6F89430
:104DA000DEBF0FBECDBF85B7806885BF85B7806881
:104DB00085BF84B7877F84BF0FB6F894A89580918C
:104DC0006000886180936000109260000FBE80E8F0
:104DD00090E00FB6F89480936100909361000FBE4D
:104DE0008EE29EE090932902809328020E94150390
:104DF0000E94E0038091E20084608093E200789456
:104E00008091C8038823A1F01091E9001F70909150
:104E1000EC00892F817090FD80E8182B1092E9003A
:104E20008091E80083FD0E94081A1F701093E9002A
:104E300082E084BD93E095BD9AEF97BD80936E00AC
:104E40000E94C512811102C00E94021285E90E94CF
:104E5000300E86E60E94300E86E30E94300E86EC0D
:104E60000E94300E02E511E09EE5E92E91E0F92E58
:104E7000D8018D918D018F3F11F00E94300EE01608
:104E8000F106B1F788E0E1EDF2E0DF01282F1D9295
:104E90002A95E9F7EDEBF2E0DF011D928A95E9F73B
:104EA0000E94D81C811102C00E94E41C82E090E0A4
:104EB0000E94692D8093C7020E94DE1290939F0387
:104EC00080939E030E943E19EFE3FCE93197F1F7CE
:104ED00000C000000E943E198091D10280FF08C0EE
:104EE0006FEF7FEF90E080E00E94A52D0E942E11D1
:104EF00083E090E00E94692D0E94A8171092DC03C5
:104F00008FEF9FEF9093F6038093F5039093F80350
:104F10008093F7039093FA038093F9039093FC0333
:104F20008093FB039093FE038093FD039093000412
:104F30008093FF03909302048093010490930404F0
:104F4000809303041092E602909300038093FF0283
:104F500090930203809301039093040380930303CF
:104F600090930603809305039093080380930703AF
:104F700090930A038093090390930C0380930B038F
:104F800090930E0380930D030E94D81C811104C0DE
:104F90000E94E41C0E94C81646E050E06CE170E0FC
:104FA00086ED93E00E94592D109214038091D60350
:104FB0008C7F11F40E94C81680919E0380688093B4
:104FC0009E0380919E0390919F030E94121284E0A1
:104FD00091E0909396038093950377247394809146
:104FE000C803853089F400E4F02E83E0E82E00E168
:104FF00012E18091C803853009F4C9C00E94F219FA
:105000000E945F05109213030E943E1948EC52E083
:105010005AA349A381ED92E09EA38DA3DC01FA017E
:10502000219131918D919D9140ED52E04E175F0796
:1050300009F4FEC02817390799F319E7812E11E00A
:10504000912E612CADA1BEA1ED90FD90BEA3ADA3AC
:10505000E9A1FAA181919191FAA3E9A38E159F0587
:1050600009F48BC09C012E253F2539A728A71401E0
:10507000512CCC24C394D12C88A599A58C219D2199
:10508000892B09F46CC087010C211D2159826A8289
:1050900081E00115110509F480E08B830E94C504AD
:1050A0008160782F9D838C8349815A816B818D81AA
:1050B0000E94DA24012B29F0D1018C918F3F09F055
:1050C000DEC1412C042D10E08091E602800F912F6B
:1050D000911D09976CF1E8E0AE2EB12CA01AB10A2F
:1050E000B80169517D4FA50187EE92E00E94502DD5
:1050F000B80161517D4FA5018FEE92E00E94502DC5
:10510000A501440F551FB801660F771F61507D4FF1
:105110008FEF92E00E94502DB80169507D4FA5019C
:1051200087EF92E00E94502D88E084198093E60278
:105130008091E60290E0EFA1AE2FB0E09D01220F3A
:10514000331F27553E4FAA0FBB1FBD0166557E4F2B
:1051500041E0480F941508F496C18093E6025394F9
:10516000CC0CDD1CEFEF2E1A3E0AFCE05F1284CF60
:10517000E9A1FAA13297F182E08263942CE0820ED9
:10518000911C34E063125ECF0E94A80473C080912A
:10519000C803843009F439C00E94051680911303B6
:1051A00081110DC00E941013109211018091D6033D
:1051B0008370809310010E945211E0921201F1E07D
:1051C000F09313031092990328E130E00FB6F8949E
:1051D000A895209360000FBEF092600083B7817F96
:1051E000846083BF83B7816083BF7894889583B7D9
:1051F0008E7F83BF0FB6F894A89580916000886178
:1052000080936000109260000FBE8091C7038823D6
:1052100009F4EFCE0E943E19E1EDF2E08191919107
:10522000892B09F017C332E0E93DF307B9F7E1CE66
:105230002817390709F001CF0E94C5048C0180911D
:10524000C5029091C60208171907A1F08FEF898354
:105250008A831B820E94C5048160782F9D838C8382
:1052600049815A816B818D810E94DA241093C60294
:105270000093C5020E94051686E0E0EEF2E0DE0132
:10528000119601900D928A95E1F71092E202109228
:10529000E3021092E4021092E5028B819C81892B3B
:1052A00009F44AC08091DE029091DF020E949904C5
:1052B0009C018091DA02882309F4F0C2253131057E
:1052C000D8F18F3F19F08F5F8093DA021B81112391
:1052D00059F00E94B40D9FEF11160CF491E0899FD4
:1052E000802D11248093E2021C81112359F00E9429
:1052F000B40D9FEF11160CF491E0899F802D1124BD
:105300008093E3023091E2023323B1F02091E30273
:10531000222391F045EB3403C0011124992309F4B1
:10532000C8C09093E20255EB25039001112433236A
:1053300009F4C2C03093E3028D819E81892B09F468
:105340004AC08091DC029091DD020E9499049C0188
:105350008091D902882309F49CC221353105D8F106
:105360008F3F19F08F5F8093D9021D81112359F06F
:105370000E94920D9FEF11160CF491E0899F802DF1
:1053800011248093E4021E81112359F00E94920D92
:105390009FEF11160CF491E0899F802D11248093CA
:1053A000E5023091E4023323B1F02091E50222239B
:1053B00091F045EB3403C0011124992309F47FC017
:1053C0009093E40255EB250390011124332309F453
:1053D00079C03093E50246E050E0BE016F5F7F4F39
:1053E00080EE92E00E94432D892B61F48091E202CD
:1053F0009091E302892B9091E402892B9091E50230
:10540000892B11F00E94F30C86E0FE013196A0EE8C
:10541000B2E001900D928A95E1F70E945F059091AC
:10542000D002891721F08093D0020E94A8048091B5
:10543000C803843009F0D3CD83E08093E9008091E4
:10544000E80082FFCCCD8091E80090E085FF05C0A8
:105450000E9434038823C9F191E08091E8008B77A2
:105460008093E800992309F4BACDE981E150E33152
:1054700008F0BCC0F0E0E458F14D0C94872C8FA3E9
:10548000442443941FCE90E0FC01EA51FD4FD90122
:105490005C915183DB015C915187BFA1B18B880F77
:1054A000991FFC01EA51FD4F128E118E842F91E05D
:1054B0004FCE7092E20237CF7092E3023DCF7092EE
:1054C000E40280CF7092E50286CF00E210E0CE01C8
:1054D00001967C018091E80085FD0AC08091E8007A
:1054E0008B778093E8000E943403882399F3B4CF2C
:1054F0008091F100D7018D937D010150110951F781
:10550000ABCF1A828AE08B8336C08A81823009F45D
:10551000B7C1833061F0813009F068C00E94A804EF
:105520000E948D2C6B837C838D839E8324C080910D
:10553000D1029091D2029827892798279C838B8348
:105540008091D3029091D4029827892798279E832F
:105550008D838091D5029091D6029827892798272C
:1055600098878F838091D7029091D80298278927B6
:1055700098279A8789878091C803843009F02FCDB6
:105580001091E9001F709091EC00892F817090FDBF
:1055900080E8182B82E08093E9008091E80080FF8A
:1055A0000DC050E040E060E270E0CE0101960E9444
:1055B00065038091E8008E778093E8001F70109358
:1055C000E9000DCD8A81823089F42B813C814D81A7
:1055D0005E8129A33AA34BA35CA3CA01B9010E942F
:1055E0008D2C86E290E00E94872DC5CF8FEF8983B6
:1055F000C2CF4C816B818A810E9420129827892713
:1056000098279E838D83B7CF2D813E813227232714
:1056100032274C816B818A810E948911ACCF0E9414
:10562000B011A9CF8A818238B9F1B8F48038F1F08D
:10563000813809F0A0CF60E08B810E9407069B8132
:105640008091D603911120C0982F937011F0109281
:1056500012018C7F8093D6038ECF833809F08BCFD5
:105660008B8120E04091D9036C810AC04B8124EBEF
:10567000429F412D11248091D70320E06091D803EF
:1056800090E00E94A50577CF982F937011F41092A7
:1056900012018C7F8160DECFEB818FE7E43020F454
:1056A000F0E0E25AFE4F80818093DA0364CF8A8172
:1056B000823809F150F4803891F0813809F05BCFDD
:1056C0008091D603869586951ECF833809F053CFF7
:1056D0008091D7038B838091D8038C834CCF8091AA
:1056E000D9033FEF839FC001112464EB70E00E9457
:1056F0005F2C6B8340CF8091DA03873230F08F3597
:1057000030F08E3930F083E0FECE80E0FCCE81E0D8
:10571000FACE82E0F8CE0E94FA152DCF80E18A837E
:105720002ACF82E08A8389E5EECE0A811B81102789
:1057300001271027AE014F5F5F4F7A01CC80CA016D
:105740008C0D911D6C01C80189559E4FEC14FD0410
:1057500009F411CF0935A2E01A0750F40E94692D0F
:10576000F70184830F5F1F4FBFEFEB1AFB0AEBCFEC
:10577000D70114961C92F6CF0A811B8110270127AE
:105780001027FE0131966F01EC80E00EF12EF11C26
:10579000C80189559E4F0E151F0509F4ECCE093539
:1057A000F2E01F0728F4D60114966C910E94872D11
:1057B000BFEFCB1ADB0A0F5F1F4FEACF0E947911B0
:1057C000DACE84E0ACCF0A811B8110270127102795
:1057D000FE0131967F01CC809F012C0D311D6901A6
:1057E000C8018796EC14FD0409F4C5CE003831E0F9
:1057F000130758F40E94692DD70114968C930F5FFC
:105800001F4FFFEFEF1AFF0AEBCFF7011482F7CF1C
:105810000A811B811027012710279E012F5F3F4F10
:105820006901EC80E00EF12EF11CC80187960E157F
:105830001F0509F4A0CE003831E0130728F4D60183
:1058400014966C910E94872DBFEFCB1ADB0A0F5F75
:105850001F4FEBCF09BD19BD09B400FEFDCF8091EC
:10586000D8008F7D8093D8008091E0008260809383
:10587000E0008091E00081FDFCCF0E94F219B9CBDD
:1058800086E290E00E94692D1B821C821D828E831D
:1058900072CE2B30310508F065CD9DCD2B30310512
:1058A00008F011CD49CD991B79E004C0991F9617D6
:1058B00008F0961B881F7A95C9F780950895AA1B52
:1058C000BB1B51E107C0AA1FBB1FA617B70710F0EB
:1058D000A61BB70B881F991F5A95A9F7809590951D
:1058E000BC01CD01089597FB072E16F4009407D054
:1058F00077FD09D00E945F2C07FC05D03EF49095FF
:1059000081959F4F0895709561957F4F0895EE0F93
:10591000FF1F0590F491E02D0994692796276927C8
:1059200078278727782708952F923F924F925F928A
:105930006F927F928F929F92AF92BF92CF92DF929F
:10594000EF92FF920F931F93CF93DF93CDB7DEB704
:10595000CA1BDB0B0FB6F894DEBF0FBECDBF099498
:105960002A88398848885F846E847D848C849B84EF
:10597000AA84B984C884DF80EE80FD800C811B81FD
:10598000AA81B981CE0FD11D0FB6F894DEBF0FBE2C
:10599000CDBFED010895CF92DF92EF92FF92CF93AA
:1059A000DF93CDB7DEB72A970FB6F894DEBF0FBEF0
:1059B000CDBF89879A87A985BA852D913D914D9153
:1059C0005C9129833A834B835C83232B242B252BE7
:1059D00041F424E239ED4BE557E029833A834B83C8
:1059E0005C8369817A818B819C812DE133EF41E079
:1059F00050E00E94AB2D69017A01A7EAB1E49B0156
:105A0000AC010E94CA2D69837A838B839C83ACEEA0
:105A1000B4EFA70196010E94D82D9B01AC018981AA
:105A20009A81AB81BC81820F931FA41FB51FB7FF62
:105A300003C00197A109B048E985FA858083918365
:105A4000A283B3839F772A960FB6F894DEBF0FBE6A
:105A5000CDBFDF91CF91FF90EF90DF90CF90089571
:105A60000E94CB2C089580E091E00E94CB2C0895F9
:105A7000B0E0A0E08093000190930101A0930201A7
:105A8000B09303010895FB01DC0104C08D910190E6
:105A9000801921F441505040C8F7881B990B089594
:105AA000FB01DC0102C001900D9241505040D8F73B
:105AB0000895DC01CB01FC01F999FECF06C0F2BDCF
:105AC000E1BDF89A319600B40D9241505040B8F7BC
:105AD0000895F999FECF92BD81BDF89A992780B5B6
