:100000000C9490030C94C8030C94C8030C94C8037C
:100010000C94C8030C94C8030C94C8030C94C80334
:100020000C94C8030C94C8030C94A22A0C945E2A66
:100030000C949E2B0C94C8030C94C8030C94C80316
:100040000C94C8030C94C8030C94C8030C94C80304
:100050000C94C8030C947A2B0C94C8030C94C8031A
:100060000C94C8030C94C8030C94C8030C94C803E4
:100070000C94C8030C94C8030C94C8030C94C803D4
:100080000C94C8030C94C8030C94C8030C94C803C4
:100090000C94C8030C94C8030C94C8030C94C803B4
:1000A0000C94C8030C94C8030C94C80305010902FE
:1000B000A10185020901A1000509190129081500FE
:1000C0002501950875018102050109300931158165
:1000D000257F95027508810609381581257F9501D0
:1000E00075088106050C0A38021581257F95017572
:1000F000088106C0C005010980A101850319012AF4
:10010000B700150126B700950175108100C0050CD8
:100110000901A101850419012AA002150126A002E6
:10012000950175108100C005010906A1018506052C
:100130000719E029E71500250195087501810205D9
:1001400007190029EF1500250195F07501810205B9
:10015000081901290595057501910295017503910D
:1001600001C00660FF0961A1010962150026FF00B8
:100170009520750881020963150026FF00952075FA
:10018000089102C005010906A101050719E029E748
:1001900015002501950875018102950175088101F9
:1001A0000507190029FF150026FF0095067508812F
:1001B000000508190129059505750191029501753C
:1001C000039101C0000000000000000000000000DA
:1001D000000000000000000000000000000000001F
:1001E00000000000000000007E0F00D4FFFFFFC7EA
:1001F0000000007800000000000000002A2B28000A
:1002000000000000000000000000000000000029C5
:10021000000000002C1E3420212224342627252E05
:10022000362D3738271E1F2021222324252633333D
:10023000362E37381F0405060708090A0B0C0D0E69
:100240000F101112131415161718191A1B1C1D2F35
:100250003130232D350405060708090A0B0C0D0E55
:100260000F101112131415161718191A1B1C1D2F15
:100270003130354C0001010101010101010102028F
:100280000202020202020203030303030303030444
:10029000040404040404050505050506060606060F
:1002A000070707070708080808090909090A0A0AC9
:1002B0000B0B0B0C0C0C0D0D0D0E0E0E0F0F0F106B
:1002C00010111111121213131414151516161717F5
:1002D000181819191A1A1B1B1C1D1D1E1E1F202061
:1002E000212222232424252626272829292A2B2CAB
:1002F0002D2D2E2F30313232333435363738393ACE
:100300003B3C3D3E3F404142434445464748494AC5
:100310004C4D4E4F50515354555658595A5B5D5E93
:100320005F616264656668696B6C6D6F707273752E
:1003300077787A7B7D7E8082838587888A8C8E8F92
:1003400091939596989A9C9EA0A2A3A5A7A9ABADC0
:10035000AFB1B3B5B7BABCBEC0C2C4C6C9CBCDCFAE
:10036000D1D4D6D8DBDDDFE2E4E7E9EBEEF0F3F55C
:10037000F8FAFDFFE000E10039002B00350029000C
:1003800000000000000000000000E3000000040086
:1003900014001E003A0000000000000000000000F1
:1003A000E2001D0016001A001F003B0000000000C4
:1003B0004C004A0049004F001B00070008002000C5
:1003C0003C005200000031000000450051000600D2
:1003D0000900150021003D00E500280030002E0036
:1003E0004400500019000A00170022003E003800A7
:1003F00034002F002D0043002C0005000B001C00D2
:1004000023003F000000000000002A000151E4002A
:1004100011000D00180024004000370033001300C5
:1004200027004200E60010000E000C0025004100ED
:1004300036000F001200260000000100010001003C
:1004400001000100005C000000000000000000004E
:10045000010000000100C25C01000100000000007A
:100460000000000000000100010001000100010087
:1004700001000000000001000100A800C05C0100B4
:100480000100C35C01000100BE5C0000010000002F
:100490000100BD5CBD5C0100C55C01000100010004
:1004A0000100010001000100BF5CBF5C0100C65CEF
:1004B0000100010001000100010001000100010034
:1004C000BE5C0100C75C01000100000000000000EC
:1004D000010001000100145C0100C85C0100010082
:1004E0000100010001000100010001000100010004
:1004F000C95C0100010001000100CA5C01000000AC
:1005000001000100010001000100010000000000E5
:1005100000000000000001000000010001000100D7
:1005200001000000000000000000000001000100C8
:1005300001000100010001000000000001000100B5
:1005400001000100010001000100010001000100A3
:100550000000010000000100010001000100010095
:100560000100010001000100010001000100010083
:100570000100010001000100010001000100010073
:100580000100010001000100010001000100010063
:100590000000000000000100010001000100010056
:1005A0000100010001000100010001000100010043
:1005B0000100010001000100010001000100010033
:1005C0000100010000000100010001000100010024
:1005D0000100000000000000000000000100000019
:1005E0000100010001000100000000000000000007
:1005F00000000100010001000100010001000000F5
:1006000000000100010001000100010001000100E3
:1006100001000100010000000100000001000100D4
:1006200001000100010001000100010001000100C2
:1006300001000100010001000100010001000100B2
:1006400001000100010001000100010001000100A2
:100650000100010001000000000000000100010095
:100660000100010001000100010001000100010082
:100670000100010001000100010001000100010072
:1006800001000100010001000100000009025B00FF
:10069000030100A0FA09040000010301010009217F
:1006A000110100012240000705810308000109042F
:1006B00001000203000000092111010001222200B3
:1006C0000705820320000107050303200001090438
:1006D0000200010300000009211101000122B600FF
:1006E00007058403200001120100020000000864D5
:1006F0006980000300010200011003490044003832
:1007000000300020007600330000000E0349004452
:10071000004F00420041004F0000000403090400A4
:1007200011241FBECFEFDAE0DEBFCDBF04B603FE5B
:1007300018C08091B8079091B907A091BA07B091FD
:10074000BB078730904BA740B04B59F41092B807C5
:100750001092B9071092BA071092BB07E0E0F8E3D5
:10076000099527E0ACE0B3E001C01D92A83BB207B9
:10077000E1F713E0A0E0B1E0EEECF7E602C005908F
:100780000D92AC30B107D9F70E94C52B0C946133A0
:100790000C940000E8EDF0E080818E7F8083109261
:1007A000E2001092DA001092E100A0EEB0E08C912D
:1007B00081608C9380818F77808319BCA7EDB0E036
:1007C0008C918E7F8C9380818F7E808310925207D4
:1007D00008952091E4003091E50095E6A90120916B
:1007E000EC00822F817020FF06C08091E80080FF1E
:1007F00006C080E008952091E80022FD1AC0809193
:100800007707882389F0853089F08091EB0085FD9A
:100810000FC02091E4003091E50042175307F9F230
:100820009150E1F684E0089582E0089583E0089510
:1008300081E00895EF92FF920F931F93CF937C0175
:100840008B010E94E903C82F811117C08091E80035
:1008500085FD0BC08091E8008E778093E8000E94B0
:10086000E903882399F3C82F08C0F70181917F011C
:100870008093F1000150110949F78C2FCF911F91FE
:100880000F91FF90EF9008958091790787FF13C033
:100890008091E80082FF06C08091E8008B7780930A
:1008A000E80004C0809177078111F2CF089580910C
:1008B00077078823D9F38091E80080FFF8CF8091F3
:1008C000E8008E77ECCF982F9093E900242F762FB5
:1008D00050E0891731F07091EC002091ED005091BB
:1008E000F00021FD07C09F5F973071F78093E9000A
:1008F00081E008953091EB003E7F3093EB00309122
:10090000ED003D7F3093ED003091EB00316030938E
:10091000EB007093EC002093ED005093F0002091D9
:10092000EE0027FDE0CF80E00895CF92DF92EF92B6
:10093000FF920F931F93CF93DF93C8EDD0E0888190
:100940008F7E8883E7EDF0E080818160808384E0A2
:1009500082BF81E08093520788818E7F888302EE78
:1009600010E0F80110821092DA0081EEC82ED12C2E
:10097000F601108288818F778883888180688883D8
:1009800088818F7D888319BC109277071092780731
:10099000109276071092750790EEE92EF12CF70170
:1009A00080818B7F808388818160888342E060E0E2
:1009B00080E00E946304F60180818E7F8083F801CD
:1009C000808181608083808188608083F70180815D
:1009D0008E7F8083888180618883DF91CF911F9192
:1009E0000F91FF90EF90DF90CF900895FC01CB0125
:1009F00020917F07309180072617370790F00097E6
:100A000029F42091E8002E772093E80040E0009739
:100A100051F4411108C08091E80082FF31C080E0AC
:100A20000895C901F3CF209177072223A9F125303A
:100A3000A9F12091E80023FD2DC02091E80022FDBE
:100A4000EACF2091E80020FFE2CF3091F30020911F
:100A5000F200009719F02830310558F041E02830B5
:100A6000310509F040E02091E8002E772093E8005E
:100A7000CECF41914093F10001972F5F3F4FE9CFD7
:100A800080917707882341F0853041F08091E8001C
:100A900083FFC1CF81E0089582E0089583E0089547
:100AA00008958091540708959C014FB7F894809160
:100AB000490790914A07A0914B07B0914C074FBF4F
:100AC000821B930B0895CF93DF9300D000D0CDB756
:100AD000DEB78FB7F8942091490730914A074091CB
:100AE0004B0750914C0729833A834B835C838FBF1C
:100AF00069817A818B819C810F900F900F900F906C
:100B0000DF91CF9108952FB7F89480914907909184
:100B10004A07A0914B07B0914C072FBF08959C0145
:100B2000809115018823C9F080914D0787FF15C07A
:100B3000E62FE695E695E695603FE0F4E20FF32FA9
:100B4000F11D677081E090E001C0880F6A95EAF7B7
:100B500080959281892382830895F9013296285FD6
:100B60003F4F8191681303C0DF0111971C92E21778
:100B7000F307B9F708959C01809115018823C1F00E
:100B800080914D0787FF14C0E62FE695E695E69520
:100B9000603FF8F4E20FF32FF11D677021E030E0C1
:100BA00001C0220F6A95EAF78281822B8283089521
:100BB000F90132968FEF90E04191641751F08F3F29
:100BC00019F4411101C0892F9F5F9630A9F78F3F1B
:100BD00009F40895280F311D87FD3A95F9016283C4
:100BE000089520914607309147072817390771F07B
:100BF0009093470780934607E0914407F09145079B
:100C0000309721F00084F185E02D0994089520911A
:100C10004207309143072817390771F09093430733
:100C200080934207E0914407F0914507309721F007
:100C30000680F781E02D09940895E0914407F09132
:100C40004507309721F00190F081E02D099480E074
:100C50000895FA0181110994FB01FDCFE2E2F6E06B
:100C6000818360834283339697E0E234F907C1F7CA
:100C70000895FC01EE0FFF1FE80FF91FEE5DF94F1D
:100C80006183408322830895E5E8F7E0248130E121
:100C9000231B08F420E02483809121068160809347
:100CA00021060895E5E8F7E0248130E1230F08F4F8
:100CB0002FEF24838091210681608093210608957F
:100CC000922F20918507237071F08093860760939F
:100CD0008707453B08F044EB4093880720912106A5
:100CE000292B209321060895E5E8F7E0438120E1D0
:100CF000421B08F440E0818121E0628190E00C9485
:100D00006006E5E8F7E0438120E1420F08F44FEF89
:100D1000818121E0628190E00C946006E5E8F7E0D3
:100D2000628120E1621B08F460E0818121E043815F
:100D300090E00C946006E5E8F7E0628120E1620F44
:100D400008F46FEF818121E0438190E00C9460060C
:100D5000E5E8F7E0818121E0438162818850990BC9
:100D60000C946006E5E8F7E0818190E021E04381A2
:100D7000628108960C946006262F909185079370E7
:100D800061F081110BC0946090938507109214015B
:100D900060912106622B6093210608958D3210F038
:100DA000906BF2CF880F880F982BEECF909185072C
:100DB000969596958FEF890F913009F48CE261E05A
:100DC0000C94BC0680918507869586958F5F8D3241
:100DD00008F081E061E00C94BC06EF92FF920F9363
:100DE000282FC701801B91098F3F910519F010F042
:100DF0008FEF90E08095382F230F08F42FEF822F8C
:100E00000F91FF90EF900895EF92FF920F93282F8C
:100E1000C701801B91098F3F910519F010F08FEFEA
:100E200090E0382F3095230F08F42FEF680F822FB2
:100E30000F91FF90EF900895EF92FF920F93972FED
:100E4000FA01B9019701093430F4201B31092F3F11
:100E5000310519F010F02FEF30E03896719740F01F
:100E6000AB01485F5F4F4131510510F02FEF30E08B
:100E70002095382F320F08F43FEF77FF02C06D5FE7
:100E80007F4F759567957595679580918607680F73
:100E9000792F832F0F91FF90EF900895EF92FF929B
:100EA0000F931F93E00EF11C890137FF03C01195CA
:100EB0000195110924E0000F111F2A95E1F70F3F5A
:100EC000110519F014F00FEF10E09A0157FF03C05D
:100ED00031952195310994E0220F331F9A95E1F75E
:100EE000201731070CF489010E0D1F1D0F3F11054E
:100EF00019F010F00FEF10E00095282F200F08F4E4
:100F00002FEF822F1F910F91FF90EF900895EF9296
:100F1000FF920F93282FC70135E0039F800D911D8D
:100F200011248F3F910519F010F08FEF90E080951C
:100F3000382F230F08F42FEF822F0F91FF90EF909F
:100F4000089522E8241B08F420E0620F08954095DC
:100F5000282F429F412D1124842F0895E42FF0E083
:100F6000EE0FFF1FE451FE4F9081921B97FD91956C
:100F7000292F38E1239F212D1124620F08950F930B
:100F80001F93522F10E0F801EE0FFF1FE451FE4FA8
:100F90009081905797FD9195000F111FF801E35133
:100FA000FE4F00810052110B50039001519F300DF4
:100FB000112408E310E0091B110997FD1395400364
:100FC000F001419FF00D1124E20FF31F9F01220F4A
:100FD000331F2E0F3F1F37FF02C021583F4F220FF4
:100FE000232F221F330B620F1F910F9108950F9330
:100FF0001F93522F10E0F801EE0FFF1FE351FE4F39
:10100000A081A052BB0B9D015203F001539FF00D34
:101010001124000F111FD801A451BE4F0C9100578D
:10102000110B40039001419F300D11242E0F3F1FE3
:1010300037FF02C0215C3F4F96E0359527959A9582
:10104000E1F7620F1F910F9108950F931F93522F95
:1010500010E0F801EE0FFF1FE351FE4FA081A052F8
:10106000BB0B9D015203F001539FF00D1124000FA3
:10107000111FD801A451BE4F0C910057110B400312
:101080009001419F300D11242E0F3F1F37FF02C0EA
:1010900021583F4F220F232F221F330B620F1F9126
:1010A0000F910895EF920F93972F23E0029FB001C5
:1010B0001124759567956E0D792F0F91EF90089516
:1010C000322F50E0FA01EE0FFF1FE351FE4F9081E7
:1010D000905297FD9195440F551FFA01E451FE4F30
:1010E0002081231B330B290F311D97FD3A95620F89
:1010F0000895E42FF0E0EE0FFF1FE351FE4F6081F3
:10110000621B0895E42FF0E0EE0FFF1FE451FE4F45
:101110006081621B0895622F0895582FA22FE42F3B
:10112000F0E0EE0FFF1FE451FE4F208134EE239FCD
:10113000212D112490E030E0245E3F4F2A1B31091D
:1011400037FF03C031952195310943E0220F331F4A
:101150004A95E1F7821B930B97FD80E0282F259F8E
:10116000212D1124822F08951F93172F922FE42FE2
:10117000F0E0EE0FFF1FE451FE4F208134EE239F7D
:10118000212D1124472F50E030E0245E3F4F291BD2
:10119000310937FF03C031952195310993E0220FC2
:1011A000331F9A95E1F7421B530B57FD40E0742F14
:1011B000719F712D11241F9108950C942E060C948B
:1011C0003906FC019B01009729F480E077FF2BC0D2
:1011D00080E80895AC0197FF04C044275527481BB9
:1011E000590BB901640F751F37FD10C0241B350B57
:1011F000C901A5E0880F991FAA95E1F70E94FD316A
:1012000080E2861BF7FF0FC081950895CB0165E052
:10121000880F991F6A95E1F7BA01621B730B0E9450
:10122000FD3180E6EECF0895EF920F93CF93DF93D9
:10123000D72FC82FBA01C9010E190E94E108602FEB
:10124000681B7D2F8C2FDF91CF910F91EF90089528
:101250000F93CF93DF93D72FC82FBA01C9010E94F4
:10126000E108682F600F7D2F8C2FDF91CF910F91B8
:101270000895EF920F931F93CF93DF93D62FC72F2D
:10128000182FBA01C9010E19010F0E94E108081BAD
:10129000019F012D11246D2F7C2F802FDF91CF9185
:1012A0001F910F91EF900895EF920F931F93CF939B
:1012B000DF93D62F172FC82FBA01C9010E19010FBE
:1012C0000E94E108702F781B719F712D11246D2FE2
:1012D0008C2FDF91CF911F910F91EF9008950F9375
:1012E0001F93CF93DF93D62FC72F182FBA01C901B1
:1012F000212F201B022F0E94E108982F990F990F90
:10130000282F291B200F219F212D11246D2F7C2F89
:10131000822FDF91CF911F910F9108950F931F930B
:10132000CF93DF93D62F172FC82FBA01C901212FD2
:10133000201B022F0E94E108982F990F990F782FF8
:10134000791B700F719F712D11246D2F8C2FDF91E0
:10135000CF911F910F910895982FE82F96FDE0955A
:101360002E2F2F7096FD2F5FE695E695E695E67099
:10137000F0E0EE58FE4F8181829F802D212D1124B7
:1013800082958F702295207F822B2081820F97FD7E
:101390008195805808950F931F93CF93DF938B010E
:1013A000D82FC42F822F0E94AC09EC2FF0E0EE0F53
:1013B000FF1FE451FE4F90819058980F97FD919533
:1013C000990F692F2CE0629F612D1124600F712FFE
:1013D0008D2FDF91CF911F910F91089540911001B2
:1013E0005091110125E038E0429FC001439F900DCC
:1013F000529F900D1124875E994C90931101809318
:101400001001890F08959C018230910508F4089518
:101410009FEF213E8EE1380740F4C90145E09695E3
:1014200087954A95E1F798E0980F61E0E62FE90F7C
:10143000FF27FF1FAF0155954795842F449FF0016B
:10144000459FF00DF00D11242E173F0738F49FEF44
:10145000940F961758F78FEF860F08954F3FE9F3D3
:1014600061E0640FF6CF0F93CF93DF93D72FC82F90
:10147000F90147FD419528E330E0241B310947FD80
:101480003395229FA001239F500D500D1124EE9FF4
:10149000C001EF9F900D900D1124840F951F0E94A5
:1014A000030A982F990F692F680F600F7D2F8C2FDB
:1014B000DF91CF910F9108959C0190E080E0269FED
:1014C000812D369F800D911D11240895CF93DF93B8
:1014D00000D000D0CDB7DEB72091890730E1230FCF
:1014E00008F42FEF60E1822F90E00E945C0ABC01BB
:1014F00088EB9BE00E94E931B0E0A0E0CD010F90C5
:101500000F900F900F90DF91CF910895AF92BF92FF
:10151000CF92DF92EF92FF920F931F93CF93DF93BF
:10152000262F472FE82FF0E0EC58FD4F71110FC028
:101530006491862FE62F7E2FDF91CF911F910F911F
:10154000FF90EF90DF90CF90BF90AF900895E72E7F
:10155000F12CE49186E0689F80011124CFEFD0E068
:10156000C801BE010E94E931DB0130E0220F331FC8
:1015700055E5569FC001579F900D1124281B390B2C
:10158000622F660F260FCE018E199F09E89F60011A
:10159000E99FD00C11246D2D429FA0011124452FED
:1015A0005527CE01841B950BE89FA001E99F500DA4
:1015B0001124852F5E01A21AB108AE9C9001AF9C48
:1015C000300DBE9C300D1124232F3327C21BD30BAB
:1015D000EC9F9001ED9F300D1124A330B105B1F0C7
:1015E0000C3F93E0190760F4A130B10599F0129710
:1015F000A9F00F3F110508F09ECF8D2D632F9BCFD3
:10160000A430B10571F01697C1F395CF652F8E2FD9
:10161000ED2D91CF6E2FE52F8D2D8DCF832F6E2F3A
:10162000F7CF8E2FE32F87CF2F923F924F925F926B
:101630006F927F928F929F92AF92BF92CF92DF92E2
:10164000EF92FF920F931F93CF93DF93CDB7DEB747
:1016500029970FB6F894DEBF0FBECDBF282E6A8340
:101660007B832091160184E1289F802D11248E8395
:101670008C5E89838C83813610F030E63C838091C8
:101680008B078D83FE81EF2FF0E0F987E887CF018C
:10169000880F991F9C0124513E4F6901822D90E0D3
:1016A000FC013196FF83EE838C8198859817F0F0CA
:1016B00081E0E981E03608F080E029960FB6F894E1
:1016C000DEBF0FBECDBFDF91CF911F910F91FF9075
:1016D000EF90DF90CF90BF90AF909F908F907F90D2
:1016E0006F905F904F903F902F900895E885F98517
:1016F000E455FD4F8081909117018923F1F04090CE
:101700008607509087072E813F812557384F390132
:10171000322C10E0FD813F16D0F020918807129FF7
:10172000112D1124B201812F0E94860A462F672FA6
:10173000282F888599850E94DF08288539852F5FA5
:101740003F4F3987288732E0C30ED11CADCFF3015C
:1017500081913F01F601A080A81ABB088180F301A6
:101760008781881A9908AA9C9001AB9C300D300D96
:101770001124889CC001899C900D900D1124820F2A
:10178000931F0E94030A082F6091890721E0620FCE
:1017900008F46FEFF301EE0FFF1FEB58F740858958
:1017A00096890E945C0A7C019401A501B201812FF7
:1017B000EA81FB8109952B01182F3394ABCFCF928F
:1017C000DF92EF92FF920F931F93CF93DF938C01E1
:1017D000C091160184E1C89FC02D112424E1D22EAE
:1017E000DC0ECD2C20E62D1510F490E6C92E2091AC
:1017F000890731E0230F08F42FEF30E050E040E09C
:101800006FEF7FEF80E090E00E94FE327901D0E040
:101810002C2FCC1570F081E0FFE5FD1508F480E079
:10182000DF91CF911F910F91FF90EF90DF90CF90BC
:101830000895FE01E455FD4F8081909117018923A1
:1018400011F140918B074150042E000C550B47FFBE
:101850001CC0C7016091890721E0620F08F46FEF97
:101860000E945C0AAC0160918607709187078091A5
:101870008807F80109950E94860A462F672F282FAE
:10188000CE010E94DF082196C3CFFA01E557F84F39
:10189000818982130AC0FA01EE0FFF1FE557F84F46
:1018A000818D928D8E159F05A8F241505109CFCFA1
:1018B000DF92EF92FF920F931F93CF93DF937C0100
:1018C000C091160184E1C89FC02D112414E11C0FA2
:1018D000D12E113610F080E6D82E609189076695DA
:1018E000669521E0620F08F46FEF80918107909177
:1018F00082070E945C0A082FD0E0CD1560F081E0DD
:10190000103608F080E0DF91CF911F910F91FF908A
:10191000EF90DF900895FE01E455FD4F8081909196
:101920001701892391F06091860770918707809154
:101930008807202F4C2FF70109950E94860A462F11
:10194000672F282FCE010E94DF082196D6CFBF92A5
:10195000CF92DF92EF92FF920F931F93CF93DF937B
:1019600000D000D00F92CDB7DEB76C018091160188
:10197000898384E19981989F802D11248B8394E140
:10198000F92EF80EBF2CE0E6EF1510F480E6B82E25
:10199000609189076695669580918107909182078D
:1019A0000E945C0A182F80E4810F0E94AC098058C5
:1019B0008983812F0E94AC0980588A839B81892F5B
:1019C00090E09D838C839C819B15A0F081E0EFE5E6
:1019D000EF1508F480E00F900F900F900F900F908C
:1019E000DF91CF911F910F91FF90EF90DF90CF90FB
:1019F000BF900895EC81FD81E455FD4F8081909169
:101A000017018923A9F0609186077091870780915B
:101A10008807E12E0C812A814981F60109950E94EF
:101A2000860A462F672F282F8C819D810E94DF0810
:101A30008C819D810196C5CF7F928F929F92AF92AC
:101A4000BF92CF92DF92EF92FF920F931F93CF93AB
:101A5000DF934C01C091160184E1C89FC02D112471
:101A600014E11C0F712E113610F090E6792E609162
:101A70008907669580918107909182070E945C0A90
:101A8000F82ED0E0C71590F081E0103608F080E025
:101A9000DF91CF911F910F91FF90EF90DF90CF904A
:101AA000BF90AF909F908F907F900895FE01E45576
:101AB000FD4F8081909117018923B9F19E01220F7A
:101AC000331FF901E451FE4F8081482F4057550BD9
:101AD0006A0123513E4FF9018081282F2052330B98
:101AE0005901449F9001459F300D300D1124AA9C4F
:101AF000C001AB9C900D900D1124820F931F0E948A
:101B0000030A082F609186077091870780918807E4
:101B1000EF2C9501A601F40109950E94860A462F33
:101B2000672F282FCE010E94DF082196ABCFCF92DE
:101B3000DF92EF92FF920F931F93CF93DF937C017D
:101B4000C091160184E1C89FC02D112414E11C0F1F
:101B5000C12E113610F090E6C92E60918907669566
:101B600080918107909182070E945C0AD82ED0E074
:101B7000CC1568F081E0103608F080E0DF91CF915D
:101B80001F910F91FF90EF90DF90CF900895FE018D
:101B9000E455FD4F808190911701892301F1AE0139
:101BA000440F551FFA01E351FE4F20812052330BA1
:101BB00044515E4FFA0140814057550B60918607B2
:101BC00070918707809188070D2DF70109950E9474
:101BD000860A462F672F282FCE010E94DF08219604
:101BE000C7CF0E9483052091FA033091FB03232B7A
:101BF00021F08093F6039093F7032091FC0330913A
:101C0000FD03232B21F08093F4039093F503E091DF
:101C10004407F0914507309749F082E08093F8033C
:101C20000480F581E02D88EF93E0099408954091B8
:101C3000FA03803F59F48091FB0387FF0DC0109297
:101C4000FB0341110BC01092F20308C0813F81F4E5
:101C50008091FB0318169CF3442381F08091FC03D0
:101C60009091FD03892B09F05AC01092F103089559
:101C7000823F49F447FFF0CF1092FA038091FB03B3
:101C80008111ECCFE0CF833F19F41416ACF3E4CF0D
:101C90009091FC03893F29F41916F4F61092FC0385
:101CA000DBCF8A3F19F497FFD7CFF8CF9091FD0390
:101CB0008B3F29F497FFD0CF1092FD03CDCF8C3FFF
:101CC00019F41916CCF3C8CF9CE0980F953090F416
:101CD000845F990B21E030E0B90102C0660F771FE5
:101CE0008A95E2F7CB0180959091F903892380933F
:101CF000F903B2CF8D3F31F48091F3038E7F80934F
:101D0000F303AACF8E3F21F48091F3038D7FF7CFA9
:101D10008F3F09F0A1CF8091F3038B7FF0CF08951F
:101D20008091F30380FD16C081FD16C082FD16C0B0
:101D30008091F1038823A1F0883280F428E0829F0B
:101D4000C001112468E270E00E94FD31862F672BEC
:101D500039F0089582E0089584E0089588E00895B8
:101D600081E008958091F30380FD14C081FD14C0CB
:101D700082FD16C08091F203882381F08E3180F4B9
:101D800020E5829FC00111246EE170E00E94FD31C8
:101D9000862F089584E1089588E2089588E00895E3
:101DA00080E50895803F31F40E94B20E81958093C2
:101DB000FB030895813F19F40E94B20EF8CF823FD1
:101DC00031F40E94B20E81958093FA030895833F07
:101DD00019F40E94B20EF8CF893F29F40E94900EA8
:101DE0008093FC0308958A3F21F40E94900E819510
:101DF000F7CF8B3F31F40E94900E81958093FD03C5
:101E000008958C3F19F40E94900EF8CF9CE0980F33
:101E1000953070F4845F990B21E030E001C0220F0F
:101E20008A95EAF78091F903822B8093F90308954C
:101E30008D3F31F48091F30381608093F303089523
:101E40008E3F21F48091F3038260F7CF8F3FB9F783
:101E50008091F3038460F1CF80E00895F894E82F37
:101E6000E295EF70F0E041A18F7021E030E0B90120
:101E700002C0660F771F8A95E2F7CB01962F9095E7
:101E8000942391A392A1892B82A378940895909191
:101E90004D0792FF06C0282F28712830F9F4877F5C
:101EA000846093FF06C0282F28712831F1F4877EC3
:101EB000846120914E0720FF06C0382F38713830DA
:101EC000D9F4877F816021FF06C0282F287128312F
:101ED000D1F4877E816194FD877E0895282F247137
:101EE0002430F9F68B7F8860DCCF282F24712431D1
:101EF00001F78B7E8861DDCF382F3171313019F7D2
:101F00008E7F8860E0CF282F2171213121F78E7ECE
:101F10008861E1CFCF93DF93EC01803E910509F416
:101F200060C050F58133910509F4A6C090F4893260
:101F3000910509F49AC08A9709F4A5C0C130D1056A
:101F400009F462C0CE010497813A910508F055C0AA
:101F50005BC089339105F1F182389105D9F1C597BC
:101F600009F47CC0C83AD10508F094C0C53AD1053F
:101F700028F3A497D06448C0843E910509F453C067
:101F800068F4823E9105E1F1833E910509F440C079
:101F9000CE01805E9109089780F536C0863E910596
:101FA00009F44CC0873E910509F44DC0811522E526
:101FB000920708F0AAC0811531E5930708F0FAC02E
:101FC0008F3F910511F008F074C0803F910550F2E9
:101FD000D0651AC080914D078370B1F0C0EED0E09B
:101FE00013C080914D0780FD12C190914E0790FF64
:101FF0000BC0C3EED0E084FF07C0D0E0C0E004C057
:1020000080914D0782FDF5CFCE01DF91CF910895EC
:1020100080914D0782FDFEC090914E0790FDDECF6E
:1020200084FFF2CFEACF80914E0781FFEDCF809100
:102030004D07C7EED0E084FDE0CFE6CF80914D079D
:1020400083FDF7CFE1CF80914D0783FDE6C09091EE
:102050004E0791FFE5CFC4EED0E0D6CF80914D077B
:1020600085FFD2CFC9E2D0E0CFCF80914D0785FF69
:10207000CBCFC5E3D0E0C8CF80914D0786FFC4CF5A
:10208000CAE2D0E0C1CF80914D0786FFBDCFC1E34A
:10209000D0E0BACFCF3BD10508F07ACFC85AD0E014
:1020A000CC0FDD1FC05EDE4F0990D881C02DD464F7
:1020B000ABCF811540E5940760F4C11580E4D807E3
:1020C00008F075C0CE019A9581159F4108F49CCF08
:1020D00094CFF4E096958795FA95E1F783702C2FCD
:1020E00026952695237040E2249F90011124382BD9
:1020F0008C2F8370C1E0D0E002C0CC0FDD1F8A9529
:10210000E2F7C22BD32BDC687FCFC11586E5D80759
:1021100030F5C11595E5D90708F060C0C11524E573
:10212000D207C0F49C2F969596959E012370332775
:10213000C115D34508F043C0C1E0D0E002C0CC0FC8
:10214000DD1F2A95E2F720E2929FC0011124C82BDF
:10215000D92BD9CFDC2FCC27C46FD06A55CFC1156E
:102160003AE5D30788F4C11549E5D40708F041C022
:10217000CE0198558F3F910511F008F03ECFDC2F2E
:10218000CC27C06FD06A40CFCE01905681159042C7
:1021900008F033CF8D2F8F710E94470F90E0982F5A
:1021A000882788279F719C012C2BE90120C0DF70B4
:1021B000D06A2ACFD82FCC27C16FD06A25CFC1E0F3
:1021C000D0E002C0CC0FDD1F2A95E2F730E2939FEA
:1021D000C0011124C82BD92BDA6816CF8C2F0E948E
:1021E000470FC82FD0E0DC2FCC27CC27DF71D0627F
:1021F0000BCF8C2F8F700E94470F34E0D695C79578
:102200003A95E1F7CF70DC2FC82FD069FDCEC9E336
:10221000D0E0FACEC2EED0E0F7CEC6EED0E0F4CEFB
:102220008091B10381111092B1030895982F909578
:102230008091B00389238093B003089580918D032A
:1022400090915C03981301C008958F5F8770FACF57
:10225000E82F2BE0929FE00D11249E2F9770E695BA
:10226000E695E69583E0E89FF0011124E15DFC4FDF
:1022700050E040E080E0219130E0092E02C0369528
:1022800027950A94E2F721703327042E01C0220F0C
:102290000A94EAF7822B4F5F5F4F4330510559F79D
:1022A0000895E82F2BE0929FE00D11248E2F877068
:1022B00041E001C0440F8A95EAF7E695E695E69578
:1022C00083E0E89FF0011124E15DFC4F30E020E065
:1022D00070E05191DF011197CB01022E02C096955B
:1022E00087950A94E2F78170819585278423852755
:1022F0008C932F5F3F4F2330310559F7089580931A
:102300004F0770935107609350078091770784308F
:10231000F9F48093E9008FEF9091E800815095FDEA
:1023200006C095ED9A95F1F700008111F5CF8091E7
:10233000E80085FF0DC050E040E063E070E08FE40E
:1023400097E00E941A048091E8008E778093E8005D
:102350000895BC0184E00C947F11BC0183E00C94CF
:102360007F1124E02093E9002FEF3091E800215005
:1023700035FD06C035ED3A95F1F700002111F5CF96
:102380002091E80025FF0BC050E040E066E070E0DF
:102390000E941A048091E8008E778093E8000895E7
:1023A000CF93DF93D82FC92F809115018823C1F1D6
:1023B00080914D0787FF34C060E284E08093E9009C
:1023C0008FEF9091E800815095FD06C095ED9A95AC
:1023D000F1F700008111F5CF8091E80085FF1DC065
:1023E0008091150170E050E040E0811104C050E0A0
:1023F00040E068E070E08D2F9C2F0E941A048091CD
:10240000E8008E778093E80080E2ED2FFC2FA5E5B1
:10241000B7E001900D928A95E1F7DF91CF91089591
:1024200068E081E0CBCF81E08093E00080E28093A0
:10243000D8001092C9008FE19EE40197F1F700C027
:10244000000087E090EBDC018093B8079093B90718
:10245000A093BA07B093BB0788E19CE00FB6F8944D
:10246000A895809360000FBE90936000FFCF269ADE
:1024700035B13F7B25B120644FB7F89482E296E0F6
:10248000FC010196508168E025B9000000C057FFAB
:1024900035B9550F000000C000C000C035B900C0FC
:1024A0006A9591F757E08234950751F74FBF8FE552
:1024B00094E00197F1F700C000000895CF93DF93F7
:1024C000CFE3D3E060E0CE010E94DA322196C1155D
:1024D00084E0D807B9F7DF91CF9108956F927F928A
:1024E0008F929F92AF92BF92CF92DF92EF92FF9224
:1024F0000F931F93CF93DF93D12CC12C33E0A32EE6
:10250000BB24B394E501C65CD10936011BC0F701B9
:1025100085909490692DC8010E94DA32682DC80117
:1025200001960E94DA3222E0E20EF11C0E5F1F4F8C
:10253000C017D10761F73BE0630E711C6696CA15A0
:10254000DB0559F0C301880F991F9C012C583C4FA3
:1025500079018E0106511109DACFCE018A539F4FBE
:102560005C0193E6C90ED11CC535D34059F6DF9105
:10257000CF911F910F91FF90EF90DF90CF90BF9080
:10258000AF909F908F907F906F900895CF93C82FBA
:102590006FEF811162E283E290E00E94DA326FEF26
:1025A000C11165E084E290E00E94DA326FEFC11160
:1025B00067E085E290E0CF910C94DA3280E00E94EF
:1025C000C61260E086E290E00E94DA320E946E124B
:1025D0000E945E1281E00C94C6120F931F93CF935A
:1025E000DF93C42FD0E0CC0FDD1F26E1629FC00D2A
:1025F000D11D112436EC839FC00DD11D1124CE01B5
:1026000087960E94BC32082F10E0102F0027CE01C1
:1026100088960E94BC329801282BC901DF91CF9186
:102620001F910F910895462F672F843030F4793031
:1026300020F44B3010F40C94ED1290E080E00895FB
:10264000DF92EF92FF920F931F93CF93DF937C0162
:102650000091B7078091B203082BC7E0D0E010E0EB
:10266000DC2EC8010C2E02C0959587950A94E2F7DE
:1026700080FD0CC02197A0F7D12C8D2DDF91CF913B
:102680001F910F91FF90EF90DF900895B7018C2F6D
:102690000E9413130E948A0F019761F3EECFCF932C
:1026A000DF93D82FC92F0E9420136D2F7C2F0E94FB
:1026B0001313DF91CF910C948A0FFC0180819181DB
:1026C0000E944F13282F92959F70963091F060F4DE
:1026D000925F9F70923030F481E0203F81F030F4BF
:1026E000283E30F080E008959A5FF3CF243FD1F781
:1026F000089581E0283EE0F3213FA1F7F9CF089546
:1027000083E290E00E94BC32823289F484E290E05D
:102710000E94BC32853059F485E290E00E94BC32C0
:1027200091E0873009F090E0892F8170089580E072
:10273000FCCFCF9384E090E00E94BC32C82F82E2AD
:1027400090E00E94BC32982F8C2FCF9108951F9358
:10275000CF93DF93EC01FC01E455FD4F80816823AA
:10276000C9F00E948632182F0E948632782F7F7718
:1027700020E8720F08F47FEF612F809188070E9494
:10278000860A462F672F282FCE01DF91CF911F9108
:102790000C94DF08DF91CF911F910895DF92EF92A3
:1027A000FF920F931F93CF93DF93EC01FC01E4554D
:1027B000FD4F8081682381F1D090870700918807C1
:1027C00010918607E12EF12C0E948632282FC70136
:1027D0008C549F4F68E671E00E94FD318E199F096D
:1027E00097FD039695958795959587952370612F0D
:1027F000289F600D11247D2D802F0E94860A462F70
:10280000672F282FCE01DF91CF911F910F91FF905D
:10281000EF90DF900C94DF08DF91CF911F910F9123
:10282000FF90EF90DF90089546E050E06CE170E09B
:1028300085E897E00E94CA32109221060895E5E8E3
:10284000F7E085E380838091190190911A01A091AE
:102850001B0181839283A3838FE784838FEF85831A
:102860000C9414143F924F925F926F927F928F92CA
:102870009F92AF92BF92CF92DF92EF92FF920F930F
:102880001F93CF93DF9300D000D00F92CDB7DEB768
:10289000C0902704D0902804E0902904F0902A04E6
:1028A0008FB7F8944090490750904A0760904B07C3
:1028B00070904C078FBF530142018C189D08AE08E1
:1028C000BF080E94630560932704709328048093D7
:1028D000290490932A04A091FE03EEEFF3E04A2F1F
:1028E00050E02FEFC20ED21EE11CF11CC418D50817
:1028F000E608F708A5132AC04093FE032091850738
:10290000322F3370732E19F0722E769476943091A4
:102910001401323009F410C760F5311144C010922F
:1029200016016093810770938207809383079093C9
:10293000840789E2EEEFF3E0ABE8B7E001900D9297
:102940008A95E1F781E08093140116C0218D328DC4
:102950002901712C612CC414D504E604F70420F479
:1029600041505F5F3296C6CF280D391D328F218FBF
:10297000F8CF333009F4E8C60F900F900F900F9006
:102980000F90DF91CF911F910F91FF90EF90DF900B
:10299000CF90BF90AF909F908F907F906F905F90FF
:1029A0004F903F90089580911301781222C02370B8
:1029B0004091120150E081E02417150609F480E0EF
:1029C00081708093180180918A0790911701981760
:1029D00039F08093170140E060E080E00E94DD085C
:1029E0004CE2471560F0E72DF0E0ED59FC4C0C94FB
:1029F000113281E0E5CF80911801811114C01D8250
:102A0000809116018F5F809316019D819111B4CF43
:102A100082E080931401809118018111ADCF711073
:102A2000ABCF83E090CF40E060E080E00E94DD0823
:102A3000E6CF5091160184E1589F802D112489839F
:102A4000182F1C5ED12E113610F060E6D62E609144
:102A5000860770918707809188070E94860A062F53
:102A6000F72EE82E9981892F90E09A838983B98186
:102A7000BD1518F0E1E0ED8386C0E981FA81E455E7
:102A8000FD4F808190911701892339F02E2D402F21
:102A90006F2D89819A810E94DF08A981BA811196E0
:102AA000BA83A983E4CFF091160184E1F89F802DC9
:102AB00011248983182F1C5EA12E113610F050E6C8
:102AC000A52EC0908707D0908807209186072D8378
:102AD000622F7C2D8D2D0E94860A062FF72EE82E60
:102AE000609189073D81630F7C2D8D2D0E94860AA0
:102AF000D62EC72EB82E5981452F50E05A834983D0
:102B000099819A1518F0A1E0AD833DC0E981FA8161
:102B1000E455FD4F908180911701892361F02B2DA1
:102B20004D2D6C2D90FD03C02E2D402F6F2D8981D2
:102B30009A810E94DF0889819A8101969A8389830C
:102B4000DFCFB091160184E1B89F802D11248983D5
:102B5000182F1C5EF12E113610F040E6F42EE09096
:102B60008707D09088072091890700E4029F012DF4
:102B70001124F981EF2FF0E0FA83E98339813F15C1
:102B800030F041E04D83103608F43ACF38CFE98178
:102B9000FA81E455FD4F8081909117018923C9F096
:102BA000E981FA81EE0FFF1FE351FE4F808182958C
:102BB0008F7060918607809F600D11247E2D8D2D72
:102BC0000E94860A462F672F282F89819A810E94AA
:102BD000DF0829813A812F5F3F4F3A832983CECF87
:102BE0005091160184E1589F802D11248983182F5C
:102BF0001C5EF12E113610F020E6F22EE0908707D1
:102C0000D09088072091890700E4029F012D1124AC
:102C10009981892F90E09A838983B981BF1508F043
:102C200029CFE981FA81E455FD4F80819091170108
:102C30008923E9F0E981FA81EE0FFF1FE451FE4F8D
:102C40006081069FB001112495E0759567959A956E
:102C5000E1F780918607680F7E2D8D2D0E94860AF0
:102C6000462F672F282F89819A810E94DF08A9812A
:102C7000BA811196BA83A983D0CFF091160184E16D
:102C8000F89F802D11248983182F1C5ED12E1136B8
:102C900010F000E6D02E00918607209187072D8343
:102CA000F090880760918907669566956695809192
:102CB0008107909182070E945C0A0E94AC098058AB
:102CC00087FD8195880F282F3F2D239F212D1124CB
:102CD000602F7D81822F0E94860A062FF72EE82E14
:102CE0005981452F50E05A83498399819D1508F0F9
:102CF0000ACFE981FA81E455FD4F80819091170157
:102D0000892339F02E2D402F6F2D89819A810E94C1
:102D1000DF0889819A8101969A838983E6CF84EBC3
:102D200098E00E94580C07C08DE898E0FACF8EE832
:102D300099E00E94970D8D8363CE8FE699E0F9CFDD
:102D400084E599E00E941C0DF6CF89E399E0FACF63
:102D50008BE898E0E6CF82E898E0E3CF89E798E057
:102D6000E0CF80E698E0DDCF82E598E0EBCF83E32B
:102D70009AE0DFCF88E299E0DCCF84E199E0E2CF0E
:102D800085E298E00E94A70CD6CF87EF97E0FACFB4
:102D90008FEB97E0F7CFB0911801BD83B1111EC042
:102DA0006091890720E1620F08F46FEF809181073D
:102DB000909182070E945C0A6AE070E00E94E9310B
:102DC000892B09F01CCE0E94863260E670E00E94DA
:102DD000FD31609117010E94CE1312CEE0911601D1
:102DE00084E1E89F802D11248983B4E1FB2EF80E45
:102DF0000F2DF0E6FF1508F400E63981232F30E0AF
:102E00003A83298310E089819A81801791073CF0E9
:102E100091E09D83AFE5AF1508F0F2CDF0CD609164
:102E2000170189819A810E94CE1349815A814F5F8F
:102E30005F4F5A834983E7CFB0911801BD83B11129
:102E40001EC06091890720E1620F08F46FEF809146
:102E50008107909182070E945C0A65E070E00E9401
:102E6000E931892B09F0CBCD0E94863260E670E013
:102E70000E94FD31609117010E94A713C1CDE0911E
:102E8000160184E1E89F802D11248983A4E1FA2EA4
:102E9000F80E0F2DF0E6FF1508F400E63981232F18
:102EA00030E03A83298310E089819A818017910765
:102EB0000CF0AECF6091170189819A810E94A7130F
:102EC00049815A814F5F5F4F5A834983EDCFB0915B
:102ED000160184E1B89F802D11248983182F1C5E70
:102EE000D12E113610F0F0E6DF2EF090870700911A
:102EF0008807E0918607ED8360918907669566955E
:102F0000669580918107909182070E945C0A0E94D9
:102F1000AC09805887FD8195880F682F2CE0629F4F
:102F2000612D1124FD816F0F7F2D802F0E94860A55
:102F3000062FF72EE82E3981232F30E03A8329839C
:102F400059815D1518F061E06D831DCEE981FA812C
:102F5000E455FD4F808190911701892339F02E2D82
:102F6000402F6F2D89819A810E94DF0849815A8103
:102F70004F5F5F4F5A834983E3CF8BEC99E0D1CE0B
:102F80008EEA97E0CECE40912B0450912C046091B4
:102F90002D0470912E048091810790918207A09159
:102FA0008307B091840784179507A607B70708F42D
:102FB00026CD0E94EE09182F0E94EE0990E6891B8B
:102FC000F0F7890FA82FB0E0BA83A983FD01E4557B
:102FD000FD4F809117019081892309F4ABC311FF44
:102FE0002BC020E040E060E0CD010E94DF0820918E
:102FF000890730E1230F08F42FEF60E1822F90E082
:103000000E945C0ABC0184EF91E00E94E93180914A
:10301000810790918207A0918307B0918407860F62
:10302000971FA11DB11D80932B0490932C04A09396
:103030002D04B0932E04E3CC0E94EE09182F0E94B9
:10304000EE09782F76952FE7720F08F47FEF612F46
:10305000809188070E94860A462F672F282F898132
:103060009A81C3CF40914F05509150056091510511
:10307000709152058091810790918207A0918307FA
:10308000B091840784179507A607B70708F4B7CC53
:1030900080911801811127C0B091160184E1B89F79
:1030A000802D11248983182F1C5E012F113608F002
:1030B00000E6E981EE2EF12C43E0E49F900111241B
:1030C000215D3B4F3A832983E01608F44CC041E070
:1030D0004D83103608F01D82103608F491CC20E0A4
:1030E0000150110B70C040E060E080E00E94DD08FC
:1030F0007FE2E72E74E0F72E10E000E0EFE7CE2E3F
:103100000E94EE0981FF10C0D7011C9211961C92FB
:10311000119712961C920F5F1F4FB3E0EB0EF11C3C
:103120000036110569F7B8CF0E94EE09D82E0E942B
:10313000EE09782F76952C2D720F08F47FEFA801F9
:10314000440F551F400F511F415D5B4F5A83498308
:103150006D2D809188070E94860AA981BA816D939E
:103160007D938C93D8CFF701E455FD4F80819091EA
:103170001701892341F0E981FA812281408161812F
:10318000C7010E94DF0829813A812D5F3F4F3A83B2
:1031900029833FEFE31AF30A97CFDC01AA0FBB1F85
:1031A000A80FB91FA15DBB4F0196FC01EE0FFF1FD9
:1031B000E80FF91FE15DFB4FC080D180E280CD9226
:1031C000DD92EC922F5F822F90E0801791072CF315
:1031D0000E94EE097801EE0CFF1C81FF27C00E0D46
:1031E0001F1DF801E15DFB4F1082118212820E94C7
:1031F000660A69837A838B839C838091810790918F
:103200008207A0918307B091840729813A814B817D
:103210005C81820F931FA41FB51F80934F0590936D
:103220005005A0935105B0935205EACB0E94EE09D8
:1032300089830E94EE09782F76952FE7720F08F4A4
:103240007FEF0E0D1F1D015D1B4F69818091880767
:103250000E94860AD8016D937D938C93C8CF4091CC
:10326000B6055091B7056091B8057091B905809188
:10327000810790918207A0918307B09184078417FA
:103280009507A607B70708F4BACB809118018823E1
:1032900029F040E060E080E00E94DD086091860750
:1032A00070918707809188070E94860A962E872E44
:1032B000682E43E555E05A83498309E811E0EAE0C6
:1032C000CE2ED12C5801E980FA80512CD7012D91B6
:1032D0007D01F50181915F0190E0222309F488C00E
:1032E000262D492D682D0E94DF08D7018C91F7010A
:1032F000319780835394B4E05B12E8CF76017AE093
:10330000572EF701ED5AFA4F5F01F701E757FE4FCD
:10331000808190E0D5012C91222309F46DC0262DE7
:10332000492D682D0E94DF08F50131978081F50154
:1033300080835A94F1E0EF1AF10825E05212E1CFB0
:10334000D80115968C9190E0E981FA81258122239C
:1033500009F456C0262D492D682D0E94DF08D8019A
:1033600014968C9190E0E981FA812481222309F45A
:103370004BC0262D492D682D0E94DF080E94EE09C2
:10338000837091E009F090E0A981BA8114969C9332
:10339000149715969C9315971B96BA83A983055F7E
:1033A0001F4FBBE0CB0ED11CEDE6CE16D10409F0C9
:1033B00089CF0E94660A69837A838B839C8380917C
:1033C000810790918207A0918307B091840729819A
:1033D0003A814B815C81820F931FA41FB51F80939C
:1033E000B6059093B705A093B805B093B90507CB80
:1033F00020E040E060E077CF20E040E060E092CF66
:1034000020E040E060E0A9CF20E040E060E0B4CF01
:103410003091160184E1389F802D1124898364E165
:10342000562E580E152D43E6451508F413E68091E7
:103430001801882361F040E060E080E00E94DD0830
:10344000EEEBF5E083E6DF011D928A95E9F78091C6
:103450001601811117C08091BB059091BC050E9497
:1034600054059C0181E02931310508F480E0809306
:10347000BA052931310530F00E9483059093BC05CF
:103480008093BB05F981EF2FF0E0FA83E983E12E09
:10349000F12C39E0832E912C4BE0442E5AEA352E44
:1034A00029813A812E153F053CF031E03D8342E60B
:1034B000451508F0A5CAA3CA89819A81B4010E9462
:1034C000FD316B015C014A9CC0014B9C900D1124A5
:1034D000FC01E254FA4FE60FF71F608087579E4FBA
:1034E000FC01E60FF71F00810F3F49F110E0F801E2
:1034F000E455FD4F808190911701892301F1462DFC
:1035000025E5421B08F440E070918707332D562DC6
:10351000350F08F43FEF50918807232F220F230F18
:103520002E5F259F212D1124632D641B822F0E9465
:10353000860A462F672F282FC8010E94DF08809136
:10354000BA05882381F0662D21E0621B08F460E053
:103550004A9CC0014B9C900D112482549A4FC80E76
:10356000D91ED6016C93E981FA813196FA83E983F9
:1035700097CF80911801882371F040E060E080E0EF
:103580000E94DD08EEEBF5E083E6DF011D928A95EF
:10359000E9F71092BD051A82198288248A9480ED79
:1035A000C82ED12C90EC692E2FE2A22EB12C0981CD
:1035B0001A81912CA80142545A4F7A018091BD057D
:1035C0008929D1F50E94863285359540ACF5F70101
:1035D0008082F801E757FE4FE081EF3FB1F0D8015C
:1035E000A254BA4F2C91F0E0213D78F1205D330BCD
:1035F000629EC001639E900D1124B5010E94E931C5
:10360000262F4FEFCF010E94DF089394055F1F4FD5
:10361000F9E09F12D3CF29813A812F5F3F4F3A8340
:1036200029832B30310519F68091BD058F5F8D31CF
:10363000B0F48093BD05E3C9F801E254FA4F8081EC
:1036400081508E3F30F68083C4CF289DC001112465
:10365000B6010E94E931462F20E060E0D3CF1092FE
:10366000BD054BE056E028E03EEF8EEB95E0FA0119
:10367000283039F4DC01A85ABF4F6C916F3F09F430
:103680003C9360816F3F11F43083638701963196DC
:1036900065E0893C960761F721504B505109211193
:1036A000E4CFADC987EA97E00E94DF0B44CB81EA03
:1036B00097E0FACF20918B0731E0231B08F420E03C
:1036C00067E877E0822F0E94140B35CB67E877E03C
:1036D00080E0F9CF20918B0731E0231B08F420E034
:1036E0006EE477E0EFCF6EE477E0F2CF20918B07C6
:1036F00031E0231B08F420E06CE177E0E3CF6CE1DC
:1037000077E0E6CF20918B0731E0231B08F420E01F
:1037100064E077E0D7CF64E077E0DACF20918B07E1
:1037200031E0231B08F420E06DEE76E0CBCF6DEEA8
:1037300076E0CECF81E0FFCA709213012370209310
:1037400012010E9437126DC98091210681110E94D9
:103750001414409181075091820760918307709102
:1037600084072FB7F8948091490790914A07A09158
:103770004B07B0914C072FBF841B950BA60BB70BC3
:103780004097A105B10508F4F7C810921401F4C8D8
:103790006F927F928F929F92AF92BF92CF92DF9261
:1037A000EF92FF920F931F93CF93DF93CDB7DEB7C6
:1037B00062970FB6F894DEBF0FBECDBF8E010F5FCC
:1037C0001F4F82E1F80111928A95E9F79EE4E92EF4
:1037D00091E0F92E680166246394712C32E6832E01
:1037E00031E0932EF70181917F018F3F09F445C0AD
:1037F000F894E82FE295EF70F0E021A18F70A3011B
:1038000002C0440F551F8A95E2F7CA01922F982BE8
:1038100091A392A18095892382A3789400C0E7E5C3
:10382000F1E021E030E0B12CA12C41914F3F09F4AF
:1038300064C0A42FA295AF70B0E090968C9190E0F8
:103840004F7002C0959587954A95E2F780FD55C067
:10385000C901A82AB92A220F331F8E169F0629F7FD
:10386000F701319780818F3F11F00E942E0F50EAAF
:103870005A95F1F7F601B182A082F2E0CF0ED11C89
:1038800047E5E41641E0F40609F0ACCF42E150E030
:10389000B80186EB93E00E9496329C01FF24F394DA
:1038A000892B09F4F12C232B59F182E1F801A6EBC5
:1038B000B3E001900D928A95E1F781E08093B50322
:1038C0000E9483059093B4038093B3038091B30364
:1038D0009091B4030E9454050597B0F0E6EBF3E035
:1038E000AFEDB3E0819191918D939D9353E0E83CCE
:1038F000F507C1F71092B50307C090E080E0A9CFAB
:103900008091B5038111E2CF8F2D62960FB6F894A6
:10391000DEBF0FBECDBFDF91CF911F910F91FF9002
:10392000EF90DF90CF90BF90AF909F908F907F905F
:103930006F9008958091B0039091AF03892B80938D
:103940000E039091B1039923A1F0892B80930E036C
:10395000809115018823D9F180914D0787FF37C0E9
:103960008EE1E0E1F3E090E0815098F591110E9442
:10397000101140E250E06FE873E08EE093E00E94A7
:103980009632892B59F180E2EEE0F3E0AFE8B3E044
:1039900001900D928A95E1F7E0914407F091450777
:1039A0003097E1F080911501882359F080914D07FF
:1039B00087FF07C080910E0380930F0386E08093FA
:1039C0000E030280F381E02D8EE093E0099486E0FF
:1039D000C8CF2191222341F29F5FC6CF089590E086
:1039E00080E00E94070690E080E00E94F1051092BE
:1039F000AF030E949A1C86E0E8EFF3E0DF011D921E
:103A00008A95E9F71092F2031092F1031092F303F2
:103A10000C94F10D8093B7070C94EF1C8091B707BD
:103A2000982F9670963019F488600C940A1D877F41
:103A3000FCCF21E030E001C0220F8A95EAF7209503
:103A40008091B70782230C940A1D90918E03809574
:103A5000892380938E03282F277091F4282F082E16
:103A6000000C330B9217130659F090914E0792FDFC
:103A700007C08595859585950E94191D10928E0326
:103A80000895CF93C0914E07C2FB992790F99817DC
:103A900099F080FBC2F9C0934E0760914D0784E016
:103AA00090E00E94DA326C2F82E290E00E94DA32DB
:103AB00082E0CF910C94251DCF91089521E030E054
:103AC00001C0220F8A95EAF78091B707822B0C94E8
:103AD0000A1D8093B2030C94EF1C1092B0038091E6
:103AE0001501E0E1F3E0882359F080914D0787FF4D
:103AF00007C08EE1DF011D928A95E9F70C94EF1C57
:103B000086E0F8CF1F93CF93DF93CDB7DEB7AA97A8
:103B10000FB6F894DEBF0FBECDBF89E797E0FC017A
:103B200001962091F100208327E081389207B9F7B0
:103B300080917A07893009F456C0C8F4823009F4BC
:103B4000B3C0833009F482C0813071F18091E80004
:103B500083FF85C28091790790917A079A3008F0A7
:103B60007EC2E92FF0E0E057FC4C0C9411328A3011
:103B700009F489C08B3051F780917907813231F790
:103B800080917D0790917E07892B01F78091E80055
:103B9000877F8093E8000E94440480917B07809394
:103BA00015010E946D1DD2CF80917907813A71F67F
:103BB0008091E800877F8093E80080917D07909155
:103BC0007E07892B61F460E285E597E070E00E9452
:103BD000F6048091E8008B778093E800B7CF60E02F
:103BE00090E080E0F3CF80917907813209F0AECF89
:103BF00080917D0790917E078D7F892B09F0A6CF5C
:103C00008091E800877F8093E8008091E80082FF40
:103C100018C09091F3008091F200029731F48091E6
:103C2000F100813011F0863021F48091F100809311
:103C300054078091E8008B778093E8000E94440449
:103C400085CF809177078111E0CF80CF8091790770
:103C5000813A09F07BCF80917D0790917E07892B77
:103C600009F074CF8091E800877F8093E80080910D
:103C7000E80080FFFCCF809115018093F1008091D6
:103C8000E8008E77D9CF80917907813209F05ECF35
:103C90008091E800877F8093E8000E94440480912F
:103CA0007C078093530752CF80917907813A09F0BE
:103CB0004DCF8091E800877F8093E8008091E800F5
:103CC00080FFFCCF80915307D8CF803899F082389D
:103CD00009F0C5C180917D078F70873008F0BFC1A2
:103CE0008093E9008091EB0085FB882780F9109292
:103CF000E90006C080917507909176079111826066
:103D00009091E800977F9093E8008093F1001092E3
:103D1000F1008091E8008E779EC1882309F48CC160
:103D2000823009F09CC180917B0781118FC1809105
:103D30007D078F702FEF280F263008F090C18093F9
:103D4000E9002091EB0020FF81C1933031F4809194
:103D5000EB0080628093EB0079C19091EB00906161
:103D60009093EB0021E030E001C0220F8A95EAF742
:103D70002093EA001092EA008091EB008860EACF7D
:103D800081116DC110917B071F778091E3008078CE
:103D9000812B8093E3008091E800877F8093E80087
:103DA0000E9444048091E80080FFFCCF8091E300F2
:103DB00080688093E30082E0111183E080937707AD
:103DC0004EC18058823008F04AC140917B07509123
:103DD0007C074C3D83E05807A1F583E08A838AE2A3
:103DE00089834FB7F894DE01139620E03EE051E25C
:103DF000E32FF0E050935700E49120FF03C0E295D9
:103E0000EF703F5FEF708E2F90E0EA30C0F0C79602
:103E10008D939D932F5F243159F74FBF8091E80018
:103E2000877F8093E8006AE270E0CE0101960E94ED
:103E3000F6048091E8008B778093E80010C1C0966B
:103E4000E7CF80917D0790917E07252F3327233080
:103E5000310509F44AC078F52130310509F479C0FB
:103E60008BE590E0ECE8F6E02230310509F0F7C090
:103E70002091E800277F2093E80020917F07309170
:103E800080078217930708F49C0140E02115310553
:103E900009F064C0411162C08091E80082FDC9CF81
:103EA00080917707882329F2853019F28091E80004
:103EB00083FFF2CFBECF2132310509F43BC022325D
:103EC000310509F0CCC08330910508F0C8C0FC0171
:103ED000EE0FFF1FE358FE4F0190F081E02D865852
:103EE0009E4FDC018C9190E011C0CA0199274130AE
:103EF00089F082309105B1F0892B09F0B0C0EBE177
:103F0000F7E0E4918E2F90E0EBE1F7E0009709F401
:103F1000A6C0AECFEBE0F7E0E4918E2F90E0EBE0AF
:103F2000F7E0F4CFE9EFF6E0E4918E2F90E0E9EFCF
:103F3000F6E0ECCF8330910508F091C0880F991F0F
:103F4000FC01ED57FE4F0190F081E02D89E090E0FB
:103F50008FCF82E190E0E7EEF6E08ACF809177079D
:103F6000882309F466CF853009F463CF8091E80097
:103F700083FD5FCF8091E80082FD8ECF8091E800C5
:103F800080FF84CF9091F3008091F20021153105DC
:103F900019F08830910550F041E0089709F040E0B1
:103FA0008091E8008E778093E80070CF4491409331
:103FB000F1003196215031090196E8CF803809F09F
:103FC0004EC08091E800877F8093E8008091780759
:103FD0008093F1009ECE811142C010917B07123078
:103FE000F0F58091E800877F8093E80010937807D0
:103FF0000E944404112311F084E005C08091E30085
:1040000087FDFACF81E08093770742E061EC81E0A1
:104010000E94630442E261EC84E00E94630442E295
:1040200061EC82E00E94630442E260EC83E00E9463
:1040300063048091770713C080917B07813079F406
:1040400081E0933009F080E0809376071092E900D8
:104050008091E800877F8093E8000E94440480916B
:10406000E80083FF0AC08091E800877F8093E80022
:104070008091EB0080628093EB00AA960FB6F894D3
:10408000DEBF0FBECDBFDF91CF911F910895882372
:1040900021F00E9416110C949A1C0895882339F07F
:1040A0009091B003892B8093B0030C949A1C0895CF
:1040B000882379F19CEF980F913A38F4682F8EE0BD
:1040C00093E00E948F050C949A1C90E2980F983010
:1040D00050F4877091E001C0990F8A95EAF7892F13
:1040E0000E941611F0CF9BE5980F933020F490E0DA
:1040F00080E00C94070698E5980F973120F490E043
:1041000080E00C94F105803F20F00E94170E0C9483
:10411000F10D0895CF93C82F882309F46DC08CEF5B
:104120008C0F813AB8F580911501882311F18091A7
:104130004D0787FF1EC0EC2FE695E695E695F0E06B
:10414000E25FFC4F828190E04C2F477021E030E02D
:1041500002C0220F331F4A95E2F782239323892B53
:1041600089F06C2F8EE093E00E948F050E949A1CCC
:1041700009C0E0E1F3E08191C81799F323E0E6314B
:10418000F207C9F76C2F8EE093E00E94BB05CF9138
:104190000C949A1C80E28C0F883068F4C77021E080
:1041A00030E001C0220FCA95EAF78091B003822B5C
:1041B0008093B003ECCF8BE58C0F833038F42C2F39
:1041C0002452330BC901CF910C940706E8E5EC0F9C
:1041D000E73150F4F0E0EE0FFF1FE05EFE4F80810C
:1041E0009181CF910C94F105C03F30F08C2F0E944B
:1041F000D20ECF910C94F10DCF9108951F93CF93D0
:10420000DF93182FEB010E948A20209731F4812F31
:10421000DF91CF911F910C9458208FE99FE0019777
:10422000F1F700C000002197F0CF70E060E0893323
:1042300011F460E570E00C94FE20FF920F931F9341
:10424000CF93DF93C62FD42F122FFC0182818823B6
:10425000A9F06093B6070E9483059093B5078093F9
:10426000B407C77081E001C0880FCA95EAF7DF91F3
:10427000CF911F910F91FF900C944E208091B60723
:10428000681334C08091B4079091B5070E9454051B
:10429000883C910558F500E20D0FCD17A9F0C770C5
:1042A000FF24F3948F2D01C0880FCA95EAF70E946E
:1042B0004720083048F48D2F877001C0FF0C8A9585
:1042C000EAF78F2D0E944E20812F0E941521083081
:1042D000A0F4D77081E001C0880FDA95EAF7DF918A
:1042E000CF911F910F91FF900C944720C77081E0F0
:1042F00001C0880FCA95EAF7F2CFDF91CF911F91E5
:104300000F91FF90089590E080E00E94C432893EB2
:104310009E4F11F40C94801380E0089569EE7EEFB7
:1043200090E080E00E94F83260E082E090E00E943D
:10433000DA3260E083E090E00E94DA321092B20359
:1043400060E084E090E00E94DA3260E082E290E097
:104350000E94DA3260E085E090E00E94DA3260E0AC
:1043600086E090E00E94DA326FEF87E090E00E94F2
:10437000DA3240E050E0BA0188E090E00E94EC328E
:1043800060E08DE090E00E94DA3240E050E0BA0157
:1043900088E190E00E94EC3260E087E190E00E94CA
:1043A000DA3240E050E0BA018CE190E00E94EC3259
:1043B00070E060E080E290E00E94F83240E050E07F
:1043C000BA0188E190E00E94EC3280E00E94C612BF
:1043D0000E94DE1240E050E0BA018FE090E00E94BF
:1043E000EC3240E050E0BA0183E190E00C94EC3212
:1043F0003F924F925F926F927F928F929F92AF9275
:10440000BF92CF92DF92EF92FF920F931F93CF93C1
:10441000DF9300D000D00F92CDB7DEB78C01FC0146
:1044200083819481892B31F08081918189238F3F11
:1044300009F08CC50F900F900F900F900F90DF91A7
:10444000CF911F910F91FF90EF90DF90CF90BF9091
:10445000AF909F908F907F906F905F904F903F9024
:1044600008950E942013F82E682F89819A810E9456
:10447000511169817A818F2D0E9413137C01F801FB
:104480008281882309F454C5970122513F45203188
:10449000310508F0EAC48FEF93E00E94BC32FEEED3
:1044A000EF0E4FE3842E43E0942E8823A1F18091F8
:1044B0008E03877009F4BECFF8018281882309F446
:1044C000B9CF80914E0782FDB5CF82E00F900F905B
:1044D0000F900F900F90DF91CF911F910F91FF9050
:1044E000EF90DF90CF90BF90AF909F908F907F9094
:1044F0006F905F904F903F900C94251D811424E0A5
:104500009206A9F2C4010E94BC32811101C0EA9452
:104510003FEF831A930AE110F1CF80911C01909133
:104520001D01A0911E01B0911F0189839A83AB8365
:10453000BC83442443943AE0332E74018FEFE81A8D
:10454000F80AC4010E94BC3289831A82882309F4C4
:10455000AECF9FEF980F933000F58A83498292E0A7
:10456000890E911CC7010E94BC328B83882309F4F9
:104570009ECFFE0131967F01F70120812223E9F2CF
:10458000213009F049C091818281913041F4F2E0FB
:10459000EF0EF11C0E94152109C04701EACF9230AD
:1045A00049F422E0E20EF11C0E948A203FEFE31A58
:1045B000F30AE2CF933031F432E0E30EF11C0E94B3
:1045C0005820F4CF943021F08FEFE81AF80AEECF9C
:1045D00092E0E90EF11C30E020E0B7016F5F7F4F01
:1045E000F70141818053990B8A30910550F0215099
:1045F0003109E0F28FE99FE00197F1F700C0000078
:10460000F6CF329EF001339EF00D11249C012E0F47
:104610003F1F842F7B01E1CFE22FF0E0EC50FE4FF3
:104620005490822F86958695869590E0FC01EC51FA
:10463000FE4F64902770712C022E02C0759467940F
:104640000A94E2F7E1E06E227724FC01EC52FE4F7F
:10465000A490B12C022E02C0B594A7940A94E2F75C
:10466000F1E0AF22BB24FC01EC53FE4FC490D12CEF
:1046700002C0D594C7942A95E2F721E0C222DD2436
:104680006114710419F081EE0E948A20A114B10412
:1046900019F086EE0E948A20852D0E941521AB28F4
:1046A00019F086EE0E945820672819F081EE0E94CA
:1046B0005820CD2809F47ACF8CE26CCF81E00E949B
:1046C0005E1D0E940E1DF3CE81E00E94191DF9CFE0
:1046D00082E0F5CF95EFE9169CE5F906E9F027E2CF
:1046E00045EE66EEE6EFEE16ECE5FE0649F027E253
:1046F00045EE64EEF4EFEF16FCE5FF0609F0DEC3CD
:10470000C8010E941D21D3CE27E245EE65EEF8CF09
:1047100026E241EE60EEF4CF26E241EE62EEF0CF0B
:1047200028E241E0F3CFC7018A5F9C45099708F46E
:10473000DDC326E1E2162CE5F206C1F48091B00358
:104740008A7A91E009F490E090932E0369E2811156
:1047500065E38EE093E00E94BB050E949A1CA7CE01
:10476000E5EAEE16EDE5FE0609F4C0C3FAE5EF163C
:10477000FDE5FF0609F033C181E055C1F701E350C3
:10478000FC4580914D078160E331F10558F5E6560F
:10479000FC4C0C94113233E0E3163DE5F30680F453
:1047A0008AEFE8168CE5F80608F4B2C3F701EB5F70
:1047B000FC45E830F10528F5E355FC4C0C9411322A
:1047C00091E6E9169DE5F90609F498C090914D0728
:1047D000892F8E7F90FF8160E5EAEE16EDE5FE06FB
:1047E00009F096C380934D0793C380914D07826073
:1047F000F9CF80914D078460F5CF80914D07886097
:10480000F1CF80914E07816080934E0781C38091E4
:104810004E078260F9CF80914D078061E3CF809190
:104820004D078062DFCF80914D078064DBCF0E940F
:104830006D1D80914D078068D5CF80914D078C60AC
:10484000D1CF80914E078360DFCF80914D078E7F5F
:10485000C9CF80914D078D7FC5CF80914D078B7F4C
:10486000C1CF80914D07877FBDCF80914E078E7F4E
:10487000CBCF80914E078D7FC7CF80914D078F7E24
:10488000B1CF80914D078F7DADCF80914D078F7B4C
:10489000A9CF0E946D1D80914D078F77A3CF809186
:1048A0004D07837F9FCF80914E078C7FADCF809146
:1048B0004D0782FB992790F921E0922790FB82F91E
:1048C00090FB83F98FCF80914E07982F9095917030
:1048D0008E7F892B90FB81F997CF0E946D1D90915F
:1048E0004D07892F97FB87F980587CCF61E08EE0D8
:1048F00090E00E94DA320CC360E0F9CF90914D074E
:10490000892F8F7E94FF80616DCF80912E0369E2A5
:10491000811165E38EE093E00E948F051ECFF2ECDB
:10492000EF16FCE5FF0608F436C3F701E35CFC452F
:10493000E331F10520F4EB54FC4C0C9411328091DE
:10494000850791E089278093850710921401809153
:104950002106816080932106AACD46ED56E062EEE5
:1049600076E00E942906A3CD42EE56E066ED76E0A1
:10497000F8CF48EA56E062EB76E0F3CF42EB56E040
:1049800068EA76E0EECF4EE856E06BE976E0E9CFF4
:104990004BE956E06EE876E0E4CF44E756E061E8A4
:1049A00076E0DFCF41E856E064E776E0DACF44E432
:1049B00056E062E576E0D5CF42E556E064E476E085
:1049C000D0CF61E081E00E94BC0671CD61E085E05E
:1049D000FACF61E08DE0F7CF61E082E1F4CF3BE513
:1049E000E3163DE5F30668F4E1148CE5F806F1F012
:1049F0009EEDE9169CE5F90609F0CDC20E948E21D4
:104A000056CDEBE5EE16EDE5FE06E9F0FCE5EF161A
:104A1000FDE5FF0609F0BFC280914E0782FB8827A3
:104A200080F991E089270E94411DB5C20E946D1D49
:104A30002FEF34E38CE0215030408040E1F700C09C
:104A400000000E94131280E0EECFC6010E942811E0
:104A5000F82EB0C2FF2DFF70AF2E8F2D807F19F082
:104A6000A29490EFA9228E2D9920B9F0AA2069F086
:104A700090E29E0D983010F0E11009C08091B003D3
:104A8000A82AA092B0030E949A1C8E2D4DC080913E
:104A9000AF03A82AA092AF03F6CF0E945820AA2005
:104AA00009F444C080E28E0D883010F0711004C00B
:104AB0008A2D0E94161106C0A0948091AF03A822EF
:104AC000A092AF030E949A1C31C02F2D2F70A22EEE
:104AD0008F2D807F803219F0A29480EFA8228E2D36
:104AE000772089F031E0731609F480C0992009F429
:104AF0008AC0882009F480C0F801958190FFC5CF55
:104B00009F70958379C020914E0722FF4CC0992059
:104B100009F443C0AA2039F08091B0038A29809318
:104B2000B0030E949A1C80E00E948A20E8E0CE1A1E
:104B3000D108F4E0CF16D10410F40E941D06BB206A
:104B400009F478CC80918E0380FD74CCF801128238
:104B50008595859585950E945E1DC8010E94F82166
:104B600080918E038595859585950F900F900F9078
:104B70000F900F90DF91CF911F910F91FF90EF90C9
:104B8000DF90CF90BF90AF909F908F907F906F906D
:104B90005F904F903F900C94191D80E00E94582028
:104BA000AA2021F285CF9920A1F09091B1038A2DFE
:104BB000892B811003C00E944E20B8CFE1E08E12F5
:104BC000FACF22FDB3CF981709F4B0CF8093B10389
:104BD000ADCF811006C00E9410118A2D0E9447207F
:104BE000A5CFF1E08F1609F4A1CFF5CF992031F0D0
:104BF00025E0281508F49ACF8A2DDDCF34E038154A
:104C000008F494CFEACF882041F3893349F4FFEFC9
:104C100027EE33E0F15020403040E1F700C00000C3
:104C20008E2D0E94582082CF8F2D86958695837079
:104C300061F0813009F07ACFC7019370911002C002
:104C400090E080E00E94F10571CFC7019370911050
:104C500002C090E080E00E94070668CF8E2D992068
:104C600029F00E94D20E0E94F10D60CF0E94170E13
:104C7000FACF8F2D837099F5911058CF4E2D429514
:104C800046954770440F440F8E2D8F70042E01C03F
:104C9000880F0A94EAF72E2D2071E4FE07C02FE05A
:104CA00030E001C0220F4A95EAF720953F2D369556
:104CB00036953370323071F0333051F04091B20399
:104CC000313029F0822B84230E94691D2FCF842B41
:104CD000822BFACF282B8091B2038227F5CF8695BD
:104CE000992011F08F2D8170882309F41FCF4E2D4C
:104CF000429546954770440F440F8E2D8F70042EB9
:104D000001C0880F0A94EAF72E2D2071E4FE07C037
:104D10002FE030E001C0220F4A95EAF720953F2DA1
:104D2000369536953370323071F0333051F0409112
:104D3000B707313029F0822B84230E940A1DF6CE5A
:104D4000842B822BFACF282B8091B7078227F5CFAF
:104D50008F2D8F70F82E992021F00E945E1D8E2DD0
:104D60002ACF8E2D0E9447208F2D0E94191DDECE46
:104D70008E2D92EF7916B1F1971570F0E0EF7E1657
:104D8000D1F0F1EF7F1691F0992009F45EC0811007
:104D90007CCE8F2D8F712AC023EF721651F134EF24
:104DA0007312F2CF80914E0782FF2FC08F2D8F712B
:104DB0009920D9F21BC0992081F084E0881508F46D
:104DC000B5CE2F2D2F7181E090E001C0880F2A957C
:104DD000EAF79091B7078927B0CF95E0981508F4C6
:104DE000A5CEEFCF8F2D8F719110BFCF0E945E1D8A
:104DF0009DCE80E0992009F4A0CF9F2D9F7181E086
:104E000001C0880F9A95EAF798CF992099F0EF2D75
:104E1000EF71FE2E8E2F0E945E1D80914E0782FD47
:104E200007C0F8E0FF9EC0011124836080938E03C9
:104E30008F2DDCCF81E00E94251D21E0281508F090
:104E400075CE82E00E94251D71CE882059F08933ED
:104E500009F0E6CE3FEF87EE93E03150804090407E
:104E6000E1F7DCCE8F2D8F7180CFF0E1EF16FFE5FB
:104E7000FF0609F423CC21E1E2162FE5F20609F43E
:104E800027CC93EFE9169CE5F90609F441CC08F02C
:104E900021CCF8EDEF16FCE5FF0609F435CC29ED41
:104EA000E2162CE5F20609F43BCC26E241EE61EE77
:104EB00037EDE3163CE5F30609F422CC882309F428
:104EC00056C01092B60721E6E2162DE5F20671F003
:104ED00008F046CC86E1E8168CE5F80608F023CC0D
:104EE00092E0E9169CE5F90608F440CC0E9499137B
:104EF00090934E0780934D07F6E1EF16FCE5FF0611
:104F000008F049CC22E0E2162CE5F20608F036CC97
:104F100060914D07F0904E0784E090E00E94DA32F5
:104F20006F2D82E290E00E94DA320E946D1DBFCAAE
:104F300030E1E3163FE5F30609F4C6CB91E1E9164B
:104F40009FE5F90609F09DCF82E0BFCB85E0DE0149
:104F5000119601900D928A95E1F7F80122818981DD
:104F60009A8121117ECA0E942811F82E82CA36E148
:104F7000E3163CE5F30609F4C8CC8091B0038272D5
:104F800096EDE9169CE5F90608F4C9CC2DE5E21684
:104F9000F20609F48CCAF8018281C080D18088238E
:104FA00009F453CDC6010E942013F82E682FC601C4
:104FB0000E945111B6018F2D0E9413130E948A0F77
:104FC0007C01782EF8019280858082942FE08222E5
:104FD00080918E038770C1F0B92C9920B1F08F2D8C
:104FE000807F803421F080E28E0D883068F08091DF
:104FF0004E0782FD09C082E00E94251D80918E032C
:105000008770BB24B3948111B12C8F2D82958F7042
:10501000C82ED12C8C3008F089CDF601E853FC4C19
:105020000C9411321F93CF93DF9380915B03807FA9
:10503000A9F480915803882389F080918D03D09141
:105040005C036091560370915703A0915903B0918E
:105050005A03C62FC72316E0D81304C0DF91CF919F
:105060001F91089590E0109711F0CF3F19F4019629
:105070008770F2CF189F9001199F300D1124F9010C
:10508000E35AFC4F41814713F2CF40814613EFCFE3
:1050900042814111ECCF438154814A1B5B0B483C58
:1050A000510528F780915B038F70806180935B03CB
:1050B000F901EE59FC4F80818F708061808386E515
:1050C00093E00E94F821DF91CF911F910C941E1163
:1050D000AF92BF92CF92DF92EF92FF920F931F9306
:1050E000CF93DF93CDB7DEB72B970FB6F894DEBF23
:1050F0000FBECDBF8C0185E0F801DE01179601904F
:105100000D928A95E1F7F801E28086E5A82E83E00A
:10511000B82E6091590370915A036115710509F415
:105120001AC19091560340915703842F89238F3FD2
:1051300009F411C120813181C380D480F0905803DB
:10514000F601E61BF70BFF2009F4D0C080915B034A
:10515000582F507FE83CF10508F0ABC0511177C0E3
:10516000FE2C431321C092131FC0E1101DC08F708D
:10517000806180935B03C5010E94F82180915B03ED
:10518000F80185838F2D2B960FB6F894DEBF0FBEE6
:10519000CDBFDF91CF911F910F91FF90EF90DF90E6
:1051A000CF90BF90AF900895CD2829F0822F832310
:1051B0008F3F09F0EBC080E0F82FF170DF2EE09117
:1051C0008D0340915C0356E080FD1CC0EE20D1F2BF
:1051D00080915B03816080935B03F12CD3CF8E2F92
:1051E00090E05E9FF0011124E35AFC4F6181361379
:1051F00006C06081261303C06281E612E7CFFC017E
:105200003196E770E413EBCF2F8338878F81988531
:105210000E944F13292F22952F70903260F0225F49
:105220002F70223078F49F7051F0F8019581907FB3
:1052300031F4D12C0AC09F7011F08823D1F3805E25
:105240008830B8F3C8010E94F821FD2C9BCF43138E
:1052500006C0921304C0F801EE2009F461C0C80131
:105260000E945D13882309F1EE20F9F080915B0321
:10527000803270F020915603309157033A8329838E
:105280001B82DD82CC828E83CE0101960E94F821A2
:1052900086E0F801A6E5B3E001900D928A95E1F76A
:1052A0000E941228FF24F3946DCFC8010E94F821B8
:1052B000F9CF51110AC086E593E00E94F82186E0FB
:1052C000F50111928A95E9F788CF4313C8CF92135D
:1052D000C6CFE110C4CFF8018583C8010E94F82130
:1052E00086E0F50111928A95E9F74CCFE83CF1058B
:1052F000B8F7FE2CEE20C9F243131FC092131DC055
:1053000080915B0380FD10C0982F907F69F0F801B9
:105310008583903F31F0982F907F905F8F70892B1D
:105320008583C8010E94F82186E0F801A6E5B3E074
:1053300001900D928A95E1F725CFC8010E945D1377
:105340008111A6CF80915B03816080935B03C801CC
:105350000E94F82117CFEE2009F4A7CFC8010E94C0
:105360005D13F82E882309F4A0CF86E0F801A6E5A6
:10537000B3E001900D928A95E1F7809156039091E8
:1053800057030E944F130E941228FCCE81E08E2505
:1053900013CF1F93CF93DF93CDB7DEB767970FB6C9
:1053A000F894DEBF0FBECDBF4B8B5C8B6D8B7E8BBD
:1053B0008F8B61111092AF031A8A2C898E899F8975
:1053C0003B893D872E876F87998B888B86E0FE010E
:1053D0003D96DE01179601900D928A95E1F7CE0178
:1053E00007960E946828882389F016E080918D0333
:1053F00090915C0389134FC067960FB6F894DEBF97
:105400000FBECDBFDF91CF911F91089586E0FE01C1
:105410003796DE01119601900D928A95E1F74A8543
:105420005B854115510509F37F816885862F8723A8
:105430008F3FD9F220915C0330E0C901019687705B
:105440009927E0918D03E817190671F40E946D1DEC
:1054500010925C0310928D0386E0E6E5F3E0DF0135
:105460001D928A95E9F7C1CF79836A835D834C8366
:1054700096E0929FD001939FB00D1124A35ABC4F88
:10548000FE01319601900D929A95E1F780935C03AD
:105490000E941E11AACF819FC0011124835A9C4FE4
:1054A0000E946828882309F4A7CF80918D0390E09B
:1054B00001968770992780938D0398CF1F920F9242
:1054C0000FB60F9211242F933F934F935F936F93D7
:1054D0007F938F939F93AF93BF93CF93DF93EF937C
:1054E000FF93D091E900DF708091EC00C82FC1706C
:1054F00080FDC0E81092E9008091F000877F8093E2
:10550000F00078940E94821D1092E9008091F000D2
:1055100088608093F000CD2BCF70C093E900FF919D
:10552000EF91DF91CF91BF91AF919F918F917F913B
:105530006F915F914F913F912F910F900FBE0F9000
:105540001F9018951F920F920FB60F9211242F9350
:105550003F934F935F936F937F938F939F93AF93FB
:10556000BF93EF93FF938091E10082FF09C0809188
:10557000E20082FF05C08091E1008B7F8093E10013
:105580008091DA0080FF24C08091D80080FF20C085
:105590008091DA008E7F8093DA008091D90080FFBD
:1055A0009BC080E189BD82E189BD09B400FEFDCFC9
:1055B00081E08093770780915207811109C00E9492
:1055C000CA030E9495048091E20084608093E20007
:1055D0008091E10080FF17C08091E20080FF13C03E
:1055E0008091E2008E7F8093E2008091E2008061F2
:1055F0008093E2008091D80080628093D80019BC2B
:1056000085E0809377078091E10084FF29C0809135
:10561000E20084FF25C080E189BD82E189BD09B433
:1056200000FEFDCF8091D8008F7D8093D8008091BF
:10563000E1008F7E8093E1008091E2008F7E809375
:10564000E2008091E20081608093E200809178071F
:10565000882309F447C084E0809377078091770717
:105660008091E10083FF27C08091E20083FF23C087
:105670008091E100877F8093E10082E0809377074B
:10568000109278078091E1008E7F8093E1008091F5
:10569000E2008E7F8093E2008091E200806180933F
:1056A000E20042E060E080E00E9463048091F0004C
:1056B00088608093F000FF91EF91BF91AF919F912F
:1056C0008F917F916F915F914F913F912F910F90AB
:1056D0000FBE0F901F90189519BC1092770710926B
:1056E000520776CF8091E30087FD02C081E0B4CFFE
:1056F00083E0B2CF78941F921FB61F9211248F932C
:105700009F93AF93BF938091490790914A07A091CF
:105710004B07B0914C070196A11DB11D809349071D
:1057200090934A07A0934B07B0934C07BF91AF915A
:105730009F918F911F901FBE1F9018951F921FB6AB
:105740001F9211248F939F93AF93BF93809148072B
:10575000811113C08091490790914A07A0914B078E
:10576000B0914C074196A11DB11D809349079093BC
:105770004A07A0934B07B0934C07BF91AF919F91FD
:105780008F911F901FBE1F901895CDB7DEB7A497BD
:105790000FB6F894DEBF0FBECDBF84B7877F84BF3E
:1057A0000FB6F894A895809160008861809360009E
:1057B000109260000FBE80E890E00FB6F8948093DE
:1057C0006100909361000FBE85B7806885BF85B783
:1057D000806885BF8CE29FE090930D0380930C035B
:1057E0000E94CA030E9495048091E2008460809325
:1057F000E2007894809177078823A1F01091E90066
:105800001F709091EC00892F817090FD80E8182B1B
:105810001092E9008091E80083FD0E94821D1F70B4
:105820001093E90082E084BD93E095BD9AEF97BDA7
:1058300080936E000E948013811102C00E94DE12CC
:105840000EE411E0D8018D918D018F3F11F00E947F
:105850002E0FB1E007351B07A9F707E511E052E667
:10586000E52E51E0F52EF80181918F018F3F11F067
:105870000E942E0FE016F106B1F782E1EFEDF3E0A2
:10588000DF01282F1D922A95E9F7E6EBF3E0DF010F
:105890001D928A95E9F70E948321811102C00E941E
:1058A0008E2182E090E00E94BC328093C8030E9467
:1058B000991390934E0780934D070E94C81BBFEF2A
:1058C000E6E7F1E0B150E040F040E1F700C0000051
:1058D0000E94C81B8091DF0385FF08C06FEF7FEF38
:1058E00090E080E00E94F8320E94131283E090E082
:1058F0000E94BC320E94691D10928B078FEF9FEFB0
:105900009093A5078093A4079093A7078093A60779
:105910009093A9078093A8079093AB078093AA0759
:105920009093AD078093AC079093AF078093AE0739
:105930009093B1078093B0079093B3078093B20719
:105940001092FE03909318048093170490931A0406
:105950008093190490931C0480931B0490931E045D
:1059600080931D049093200480931F04909322043D
:10597000809321049093240480932304909326041D
:10598000809325040E948321811104C00E948E21EE
:105990000E941F1446E050E06CE170E085E897E05B
:1059A0000E94AC3210922106809185078C7F11F401
:1059B0000E941F143F98479A3E98469A8FE891E0BC
:1059C0000197F1F700C0000086B190E0880F892FA1
:1059D000881F990B36992FC120E0822B8093DD031D
:1059E00084E091E0909345078093440728E1422E9C
:1059F000512C30E1732E40E1342E809177078530B1
:105A000049F480917707853009F417C10E946D1D14
:105A10000E941D060E94C81B81110E9463059FED14
:105A2000A92E93E0B92EA9ECB3E0F501F12CE12CFD
:105A30000E2DC190D1902D913D912C153D0509F46D
:105A4000CAC22C253D2510E088248394912CA40102
:105A500042235323452B09F4B8C219830A83C82073
:105A6000D92081E0C114D10409F480E08B830E9425
:105A700083058160782F9D838C8349815A816B8156
:105A80008D810E94C929F701EE0FFF1FE753FC4FDC
:105A9000808191818826992691828082CD2871F01B
:105AA0008BE08E9DF0018F9DF00D1124E757FE4F86
:105AB000E10FF11D80818F3F09F0FAC0212CC22C2B
:105AC000D12C8091FE038C0D9D2D911D09976CF1B9
:105AD00088E090E04C018C189D08B60161507C4F25
