:100000000C9461020C9499020C9499020C9499023C
:100010000C9499020C9499020C9499020C949902F4
:100020000C9499020C9499020C943A250C94F624A1
:100030000C9436260C9499020C9499020C94990213
:100040000C9499020C9499020C9499020C949902C4
:100050000C9499020C9412260C9499020C94990217
:100060000C9499020C9499020C9499020C949902A4
:100070000C9499020C9499020C9499020C94990294
:100080000C9499020C9499020C9499020C94990284
:100090000C9499020C9499020C9499020C94990274
:1000A0000C9499020C9499020C949902050109028E
:1000B000A10185020901A1000509190129081500FE
:1000C0002501950875018102050109300931158165
:1000D000257F95027508810609381581257F9501D0
:1000E00075088106050C0A38021581257F95017572
:1000F000088106C0C005010980A101850319012AF4
:10010000B700150126B700950175108100C0050CD8
:100110000901A101850419012AA002150126A002E6
:10012000950175108100C00660FF0961A101096297
:10013000150026FF00952075088102096315002629
:10014000FF00952075089102C005010906A101056F
:100150000719E029E7150025019508750181029529
:1001600001750881010507190029FF150026FF0008
:100170009506750881000508190129059505750181
:100180009102950175039101C0000000000000007C
:10019000000000000000000000000000000000005F
:1001A000000000000000000000000000007E0F00C2
:1001B000D4FFFFFFC700000078000000000000002F
:1001C000002A2B28000000000000000000000000B2
:1001D0000000000029000000002C1E3420212224F1
:1001E000342627252E362D3738271E1F202122237F
:1001F0002425263333362E37381F04050607080911
:100200000A0B0C0D0E0F10111213141516171819D6
:100210001A1B1C1D2F3130232D3504050607080934
:100220000A0B0C0D0E0F10111213141516171819B6
:100230001A1B1C1D2F3130354C0001010101010139
:10024000010101020202020202020202030303038D
:10025000030303030404040404040405050505055D
:10026000060606060607070707070808080809091B
:1002700009090A0A0A0B0B0B0C0C0C0D0D0D0E0EC6
:100280000E0F0F0F10101111111212131314141559
:100290001516161717181819191A1A1B1B1C1D1DCD
:1002A0001E1E1F2020212222232424252626272823
:1002B00029292A2B2C2D2D2E2F3031323233343553
:1002C000363738393A3B3C3D3E3F40414243444556
:1002D000464748494A4C4D4E4F5051535455565835
:1002E000595A5B5D5E5F616264656668696B6C6DDF
:1002F0006F7072737577787A7B7D7E808283858755
:10030000888A8C8E8F91939596989A9C9EA0A2A392
:10031000A5A7A9ABADAFB1B3B5B7BABCBEC0C2C497
:10032000C6C9CBCDCFD1D4D6D8DBDDDFE2E4E7E957
:10033000EBEEF0F3F5F8FAFDFF350029002B000194
:10034000512A0036005300540055005600E3005F68
:1003500000600061005700E2005C005D005E00008C
:1003600000E10059005A005B000000E000620063F9
:100370000058000000005CC25CC35C010001000189
:10038000000100010001000100CB5CC55CC75CC935
:100390005C0100CC5CC65CC85CCA5C00000100016A
:1003A0000001000100000001000100010001000047
:1003B0000001000100010001000100010001000135
:1003C0000001000100010001000100010001000125
:1003D0000001000100010000000100010001000116
:1003E0000000000100010001000100000001000107
:1003F00000010001000100010001000100010001F5
:1004000000010001000100010001000100010001E4
:1004100000010000000100010001000100000001D6
:1004200000010001000100000009025B000301005F
:10043000A0FA0904000001030101000921110100D3
:1004400001224000070581030800010904010002A0
:10045000030000000921110100012222000705828A
:100460000320000107050303200001090402000125
:1004700003000000092111010001227B000705840F
:100480000320000112010002000000086469270136
:1004900001000102000116034D006F006E007400A0
:1004A00065007800200052004700420000000E0363
:1004B000490044004F00420041004F000000040387
:1004C000090411241FBECFEFDAE0DEBFCDBF04B6B2
:1004D00003FE18C08091DC039091DD03A091DE0340
:1004E000B091DF038730904BA740B04B59F4109286
:1004F000DC031092DD031092DE031092DF03E0E0D4
:10050000F8E3099523E0ACEEB1E001C01D92AC3DEB
:10051000B207E1F711E0A0E0B1E0E4EDFAE502C0D6
:1005200005900D92AC3EB107D9F70E945D260C9460
:10053000F72C0C940000E8EDF0E080818E7F808342
:100540001092E2001092DA001092E100A0EEB0E00A
:100550008C9181608C9380818F77808319BCA7ED0B
:10056000B0E08C918E7F8C9380818F7E80831092FF
:100570008E0308952091E4003091E50095E6A901ED
:100580002091EC00822F817020FF06C08091E8004E
:1005900080FF06C080E008952091E80022FD1AC087
:1005A00080919B03882389F0853089F08091EB004E
:1005B00085FD0FC02091E4003091E50042175307FC
:1005C000F9F29150E1F684E0089582E0089583E025
:1005D000089581E00895EF92FF920F931F93CF93B8
:1005E0007C018B010E94BA02C82F811117C0809133
:1005F000E80085FD0BC08091E8008E778093E800CD
:100600000E94BA02882399F3C82F08C0F70181918C
:100610007F018093F1000150110949F78C2FCF9190
:100620001F910F91FF90EF90089580919D0387FF98
:1006300013C08091E80082FF06C08091E8008B77AC
:100640008093E80004C080919B038111F2CF08954C
:1006500080919B038823D9F38091E80080FFF8CF35
:100660008091E8008E77ECCF982F9093E900242FAB
:10067000762F50E0891731F07091EC002091ED0059
:100680005091F00021FD07C09F5F973071F7809374
:10069000E90081E008953091EB003E7F3093EB005C
:1006A0003091ED003D7F3093ED003091EB003160F3
:1006B0003093EB007093EC002093ED005093F0002A
:1006C0002091EE0027FDE0CF80E00895CF92DF92E9
:1006D000EF92FF920F931F93CF93DF93C8EDD0E07B
:1006E00088818F7E8883E7EDF0E080818160808360
:1006F00084E082BF81E080938E0388818E7F88832F
:1007000002EE10E0F80110821092DA0081EEC82E9D
:10071000D12CF601108288818F7788838881806848
:10072000888388818F7D888319BC10929B031092E7
:100730009C0310929A031092990390EEE92EF12CEB
:10074000F70180818B7F808388818160888342E08C
:1007500060E080E00E943403F60180818E7F808318
:10076000F801808181608083808188608083F701C7
:1007700080818E7F8083888180618883DF91CF91A3
:100780001F910F91FF90EF90DF90CF900895FC01A3
:10079000CB012091A3033091A4032617370790F0D3
:1007A000009729F42091E8002E772093E80040E09C
:1007B000009751F4411108C08091E80082FF31C0D8
:1007C00080E00895C901F3CF20919B032223A9F172
:1007D0002530A9F12091E80023FD2DC02091E800EB
:1007E00022FDEACF2091E80020FFE2CF3091F30014
:1007F0002091F200009719F02830310558F041E0BF
:100800002830310509F040E02091E8002E77209350
:10081000E800CECF41914093F10001972F5F3F4F09
:10082000E9CF80919B03882341F0853041F080918E
:10083000E80083FFC1CF81E0089582E0089583E05E
:10084000089508958091900308959C014FB7F894FE
:100850008091870390918803A0918903B0918A03C6
:100860004FBF821B930B08952FB7F8948091870395
:1008700090918803A0918903B0918A032FBF0895B6
:100880009C01FC0132968FEF90E04191461751F0A8
:100890008F3F19F4411101C0892F9F5F9630A9F74E
:1008A0008F3F09F40895280F311D87FD3A95F9010E
:1008B00062830895209184033091850328173907B6
:1008C00071F09093850380938403E0918203F0910B
:1008D0008303309721F00084F185E02D0994089579
:1008E00020918003309181032817390771F090938C
:1008F000810380938003E0918203F091830330971A
:1009000021F00680F781E02D09940895E09182039B
:10091000F0918303309721F00190F081E02D09944C
:1009200080E00895FA0181110994FB01FDCFE3E213
:10093000F3E0818360834283339693E0E038F907E4
:10094000C1F70895FC01EE0FFF1FE80FF91FED5DE1
:10095000FC4F6183408322830895FC019B01AC011D
:1009600097FF04C044275527481B590BBA01620F53
:10097000731F37FD0FC0241B350BC901A5E0880F7D
:10098000991FAA95E1F70E94932B80E2861BF7FD41
:1009900081950895CB0165E0880F991F6A95E1F76D
:1009A000BA01621B730B0E94932B80E6EFCFE9EA3A
:1009B000F3E0248130E1231B08F420E024838091BC
:1009C00022038160809322030895E9EAF3E0248101
:1009D00030E1230F08F42FEF2483809122038160FC
:1009E000809322030895922F2091A903237071F020
:1009F0008093AA036093AB03453B08F044EB40931C
:100A0000AC0320912203292B209322030895E9EAC5
:100A1000F3E0438120E1421B08F440E0818121E0C2
:100A2000628190E00C94F304E9EAF3E0438120E171
:100A3000420F08F44FEF818121E0628190E00C9435
:100A4000F304E9EAF3E0628120E1621B08F460E06C
:100A5000818121E0438190E00C94F304E9EAF3E022
:100A6000628120E1620F08F46FEF818121E0438110
:100A700090E00C94F304E9EAF3E0818121E0438102
:100A800062818850990B0C94F304E9EAF3E08181C8
:100A900090E021E04381628108960C94F304262FB4
:100AA0009091A903937061F081110BC094609093B1
:100AB000A9031092140160912203622B6093220318
:100AC00008958A3110F09466F2CF880F880F982B22
:100AD000EECF9091A903969596958FEF890F91305F
:100AE00009F489E161E00C944F058091A903869592
:100AF00086958F5F8A3108F081E061E00C944F05A4
:100B0000EF92FF920F93282FC701801B91098F3F0F
:100B1000910519F010F08FEF90E08095382F230F9A
:100B200008F42FEF822F0F91FF90EF900895EF922E
:100B3000FF920F93282FC701801B91098F3F9105CA
:100B400019F010F08FEF90E0382F3095230F08F454
:100B50002FEF680F822F0F91FF90EF900895EF9283
:100B6000FF920F93282FC70135E0039F800D911D41
:100B700011248F3F910519F010F08FEF90E08095D0
:100B8000382F230F08F42FEF822F0F91FF90EF9053
:100B90000895E42FF0E0EE0FFF1FE257FE4F908123
:100BA000921B97FD9195292F38E1239F212D112428
:100BB000620F0895EF920F93972F23E0029FB001E9
:100BC0001124759567956E0D792F0F91EF9008950B
:100BD000E42FF0E0EE0FFF1FE059FE4F678D621B20
:100BE0000895E42FF0E0EE0FFF1FE257FE4F608103
:100BF000621B0895622F08950C9497040C94A2042C
:100C000022E8241B08F420E0620F08950F931F933D
:100C1000522F10E0F801EE0FFF1FE059FE4FA78D95
:100C2000A052BB0B9D015203F001539FF00D112404
:100C3000000F111FD801A257BE4F0C910057110B86
:100C400040039001419F300D11242E0F3F1F37FFAD
:100C500002C0215C3F4F96E0359527959A95E1F7C4
:100C6000620F1F910F910895EF920F93CF93DF932F
:100C7000D72FC82FBA01C9010E19009729F480E8AF
:100C800057FD04C080E002C00E94AD04602F681BC5
:100C90007D2F8C2FDF91CF910F91EF9008950F93BF
:100CA000CF93DF93D72FC82FBA01C901009751F412
:100CB00057FF0CC060E8600F7D2F8C2FDF91CF9124
:100CC0000F9108950E94AD04682FF5CF60E0F3CF37
:100CD000982FE82F96FDE0952E2F2F7096FD2F5F11
:100CE000E695E695E695E670F0E0E75AFE4F8181DD
:100CF000829F802D212D112482958F702295207F37
:100D0000822B2081820F97FD8195805808950F9343
:100D10001F93CF93DF938B01D82FC42F822F0E9474
:100D20006806EC2FF0E0EE0FFF1FE257FE4F9081B8
:100D30009058980F97FD9195990F692F2CE0629F1D
:100D4000612D1124600F712F8D2FDF91CF911F9195
:100D50000F910895409110015091110125E038E064
:100D6000429FC001439F900D529F900D1124875EBA
:100D7000994C9093110180931001890F08959C0163
:100D80008230910508F408959FEF213E8EE13807E7
:100D900040F4C90145E0969587954A95E1F798E0BA
:100DA000980F61E0E62FE90FFF27FF1FAF01559570
:100DB0004795842F449FF001459FF00DF00D1124BD
:100DC0002E173F0738F49FEF940F961758F78FEFC1
:100DD000860F08954F3FE9F361E0640FF6CF9C0161
:100DE00090E080E0269F812D369F800D911D11247B
:100DF0000895CF93DF9300D000D0CDB7DEB7209118
:100E0000AD0330E1230F08F42FEF60E1822F90E073
:100E10000E94EF06BC0188EB9BE00E947F2BB0E0B4
:100E2000A0E0CD010F900F900F900F90DF91CF9128
:100E30000895AF92BF92CF92DF92EF92FF920F93FD
:100E40001F93CF93DF93262F472FE82FF0E0E75C27
:100E5000FD4F71110FC06491862FE62F7E2FDF9119
:100E6000CF911F910F91FF90EF90DF90CF90BF90A7
:100E7000AF900895E72EF12CE49186E0689F800101
:100E80001124CFEFD0E0C801BE010E947F2BDB010F
:100E900030E0220F331F55E5569FC001579F900D3C
:100EA0001124281B390B622F660F260FCE018E19D5
:100EB0009F09E89F6001E99FD00C11246D2D429F8E
:100EC000A0011124452F5527CE01841B950BE89FC7
:100ED000A001E99F500D1124852F5E01A21AB108CF
:100EE000AE9C9001AF9C300DBE9C300D1124232F81
:100EF0003327C21BD30BEC9F9001ED9F300D1124C3
:100F0000A330B105B1F00C3F93E0190760F4A130B4
:100F1000B10599F01297A9F00F3F110508F09ECF87
:100F20008D2D632F9BCFA430B10571F01697C1F3BF
:100F300095CF652F8E2FED2D91CF6E2FE52F8D2D17
:100F40008DCF832F6E2FF7CF8E2FE32F87CF2F924A
:100F50003F924F925F926F927F928F929F92AF9249
:100F6000BF92CF92DF92EF92FF920F931F93CF9396
:100F7000DF93CDB7DEB729970FB6F894DEBF0FBE6B
:100F8000CDBF282E6A837B832091160187E0289F9E
:100F9000802D11248E83895F89838C83803210F0A9
:100FA0003FE13C838091AF038D83FE81EF2FF0E022
:100FB000F987E887CF01880F991F9C0120593E4F80
:100FC0006901822D90E0FC013196FF83EE838C81D4
:100FD00098859817F0F081E0E981EF3108F080E022
:100FE00029960FB6F894DEBF0FBECDBFDF91CF912B
:100FF0001F910F91FF90EF90DF90CF90BF90AF9037
:101000009F908F907F906F905F904F903F902F9028
:101010000895E885F985E453FE4F8081909117018A
:101020008923F1F04090AA035090AB032E813F81B9
:1010300021553C4F3901322C10E0FD813F16D0F094
:101040002091AC03129F112D1124B201812F0E9417
:101050001907462F672F282F888599850E94FE053E
:10106000288539852F5F3F4F3987288732E0C30EA7
:10107000D11CADCFF30181913F01F601A68CA81AD6
:10108000BB08878CF3018781881A9908AA9C900174
:10109000AB9C300D300D1124889CC001899C900DB3
:1010A000900D1124820F931F0E94BF06082F60919C
:1010B000AD0321E0620F08F46FEFF301EE0FFF1FA5
:1010C000EF5AF340858996890E94EF067C019401CE
:1010D000A501B201812FEA81FB8109952B01182F0F
:1010E0003394ABCFDF92EF92FF920F931F93CF9386
:1010F000DF937C01C091160187E0C89FC02D1124A9
:1011000017E01C0FD12E103210F08FE1D82E609115
:10111000AD036695669521E0620F08F46FEF80914C
:10112000A5039091A6030E94EF06082FD0E0CD15ED
:1011300060F081E01F3108F080E0DF91CF911F91D6
:101140000F91FF90EF90DF900895FE01E453FE4F62
:10115000808190911701892391F06091AA03709189
:10116000AB038091AC03202F4C2FF70109950E940F
:101170001907462F672F282FCE010E94FE052196C2
:10118000D6CF5F926F927F928F929F92AF92BF92D3
:10119000CF92DF92EF92FF920F931F93CF93DF9343
:1011A0004C01C091160187E0C89FC02D112417E0A3
:1011B0001C0F512E103210F03FE1532E6091AD0301
:1011C00066958091A5039091A6030E94EF06F82EE4
:1011D000D0E0CE01880F991F9C0120593E4F690134
:1011E000C515A0F081E01F3108F080E0DF91CF91BC
:1011F0001F910F91FF90EF90DF90CF90BF90AF9035
:101200009F908F907F906F905F900895FE01E453C0
:10121000FE4F808190911701892379F1F601868D27
:10122000282F2057330B5901878DE82FE052FF0BF1
:101230003F01AA9C9001AB9C300D300D1124EE9F14
:10124000C001EF9F900D900D1124820F931F0E94FB
:10125000BF06082F6091AA037091AB038091AC0385
:10126000EF2C9301A501F40109950E941907462F5F
:10127000672F282FCE010E94FE05F2E0CF0ED11C71
:101280002196AECF0E94340420916A0230916B0205
:10129000232B21F0809366029093670220916C02C9
:1012A00030916D02232B21F08093640290936502AC
:1012B000E0918203F0918303309749F082E08093BC
:1012C00068020480F581E02D88E692E00994089593
:1012D00040916A02803F59F480916B0287FF0DC0F4
:1012E00010926B0241110BC01092620208C0813F44
:1012F00081F480916B0218169CF3442381F0809155
:101300006C0290916D02892B09F05AC01092610213
:101310000895823F49F447FFF0CF10926A0280910E
:101320006B028111ECCFE0CF833F19F41416ACF3BC
:10133000E4CF90916C02893F29F41916F4F61092CB
:101340006C02DBCF8A3F19F497FFD7CFF8CF90918B
:101350006D028B3F29F497FFD0CF10926D02CDCF55
:101360008C3F19F41916CCF3C8CF9CE0980F953038
:1013700090F4845F990B21E030E0B90102C0660F60
:10138000771F8A95E2F7CB018095909169028923B6
:1013900080936902B2CF8D3F31F4809163028E7FDA
:1013A00080936302AACF8E3F21F4809163028D7FE8
:1013B000F7CF8F3F09F0A1CF809163028B7FF0CFF1
:1013C00008958091630280FD16C081FD16C082FDE4
:1013D00016C0809161028823A1F0883280F428E051
:1013E000829FC001112468E270E00E94932B862F37
:1013F000672B39F0089582E0089584E0089588E02D
:10140000089581E008958091630280FD14C081FDFC
:1014100014C082FD16C080916202882381F08E3153
:1014200080F420E5829FC00111246EE170E00E94EB
:10143000932B862F089584E1089588E2089588E02B
:10144000089580E50895803F31F40E94030A819554
:1014500080936B020895813F19F40E94030AF8CF2C
:10146000823F31F40E94030A819580936A020895B5
:10147000833F19F40E94030AF8CF893F29F40E94A0
:10148000E10980936C0208958A3F21F40E94E109EA
:101490008195F7CF8B3F31F40E94E10981958093CC
:1014A0006D0208958C3F19F40E94E109F8CF9CE089
:1014B000980F953070F4845F990B21E030E001C003
:1014C000220F8A95EAF780916902822B8093690244
:1014D00008958D3F31F480916302816080936302AF
:1014E00008958E3F21F4809163028260F7CF8F3F91
:1014F000B9F7809163028460F1CF80E00895F89499
:10150000E82FE295EF70F0E041A18F7021E030E02C
:10151000B90102C0660F771F8A95E2F7CB01962FBB
:101520009095942391A392A1892B82A378940895F6
:101530009091510292FF06C0282F28712830F9F4AB
:10154000877F846093FF06C0282F28712831F1F42B
:10155000877E84612091520220FF06C0382F3871A7
:101560003830D9F4877F816021FF06C0282F287189
:101570002831D1F4877E816194FD877E0895282FDC
:1015800024712430F9F68B7F8860DCCF282F2471FA
:10159000243101F78B7E8861DDCF382F31713130F6
:1015A00019F78E7F8860E0CF282F2171213121F734
:1015B0008E7E8861E1CFCF93DF93EC01803E910571
:1015C00009F460C050F58133910509F4A6C090F488
:1015D0008932910509F49AC08A9709F4A5C0C130EF
:1015E000D10509F462C0CE010497813A910508F053
:1015F00055C05BC089339105F1F182389105D9F16D
:10160000C59709F47CC0C83AD10508F094C0C53A22
:10161000D10528F3A497D06448C0843E910509F40D
:1016200053C068F4823E9105E1F1833E910509F4CF
:1016300040C0CE01805E9109089780F536C0863E95
:10164000910509F44CC0873E910509F44DC0811500
:1016500022E5920708F0AAC0811531E5930708F04A
:10166000FAC08F3F910511F008F074C0803F9105DA
:1016700050F2D0651AC0809151028370B1F0C0EE73
:10168000D0E013C08091510280FD12C190915202AE
:1016900090FF0BC0C3EED0E084FF07C0D0E0C0E0F5
:1016A00004C08091510282FDF5CFCE01DF91CF9130
:1016B00008958091510282FDFEC09091520290FDEA
:1016C000DECF84FFF2CFEACF8091520281FFEDCFCF
:1016D00080915102C7EED0E084FDE0CFE6CF80914B
:1016E000510283FDF7CFE1CF8091510283FDE6C027
:1016F0009091520291FFE5CFC4EED0E0D6CF809119
:10170000510285FFD2CFC9E2D0E0CFCF8091510204
:1017100085FFCBCFC5E3D0E0C8CF8091510286FFD3
:10172000C4CFCAE2D0E0C1CF8091510286FFBDCFC5
:10173000C1E3D0E0BACFCF3BD10508F07ACFC85A89
:10174000D0E0CC0FDD1FC05EDE4F0990D881C02DE8
:10175000D464ABCF811540E5940760F4C11580E4F3
:10176000D80708F075C0CE019A9581159F4108F4FD
:101770009CCF94CFF4E096958795FA95E1F7837026
:101780002C2F26952695237040E2249F900111244A
:10179000382B8C2F8370C1E0D0E002C0CC0FDD1F4E
:1017A0008A95E2F7C22BD32BDC687FCFC11586E583
:1017B000D80730F5C11595E5D90708F060C0C11507
:1017C00024E5D207C0F49C2F969596959E01237030
:1017D0003327C115D34508F043C0C1E0D0E002C0B3
:1017E000CC0FDD1F2A95E2F720E2929FC001112461
:1017F000C82BD92BD9CFDC2FCC27C46FD06A55CFBB
:10180000C1153AE5D30788F4C11549E5D40708F0B6
:1018100041C0CE0198558F3F910511F008F03ECFA1
:10182000DC2FCC27C06FD06A40CFCE0190568115F7
:10183000904208F033CF8D2F8F710E94980A90E06C
:10184000982F882788279F719C012C2BE90120C0A5
:10185000DF70D06A2ACFD82FCC27C16FD06A25CFAE
:10186000C1E0D0E002C0CC0FDD1F2A95E2F730E2E4
:10187000939FC0011124C82BD92BDA6816CF8C2F67
:101880000E94980AC82FD0E0DC2FCC27CC27DF712C
:10189000D0620BCF8C2F8F700E94980A34E0D695BF
:1018A000C7953A95E1F7CF70DC2FC82FD069FDCEF0
:1018B000C9E3D0E0FACEC2EED0E0F7CEC6EED0E07B
:1018C000F4CE809146028111109246020895982F1D
:1018D00090958091450289238093450208958091D7
:1018E0003A0290910902981301C008958F5F8770A2
:1018F000FACF292F220F220FE22FE90FE80F9E2F98
:101900009770E695E695E69583E0E89FF00111244F
:10191000E950FE4F50E040E080E0219130E0092E98
:1019200002C0369527950A94E2F721703327042EDA
:1019300001C0220F0A94EAF7822B4F5F5F4F4330BA
:10194000510559F70895292F220F220FE22FE90F91
:10195000E80F8E2F877041E001C0440F8A95EAF7A7
:10196000E695E695E69583E0E89FF0011124E950BD
:10197000FE4F30E020E070E05191DF011197CB0184
:10198000022E02C0969587950A94E2F781708195A0
:101990008527842385278C932F5F3F4F2330310584
:1019A00059F7089580938B0370938D0360938C0394
:1019B00080919B038430F9F48093E9008FEF90913C
:1019C000E800815095FD06C095ED9A95F1F700006D
:1019D0008111F5CF8091E80085FF0DC050E040E017
:1019E00063E070E08BE893E00E94EB028091E800F6
:1019F0008E778093E8000895BC0184E00C94D20CAB
:101A0000BC0183E00C94D20C24E02093E9002FEF7A
:101A10003091E800215035FD06C035ED3A95F1F7DB
:101A200000002111F5CF2091E80025FF0BC050E008
:101A300040E066E070E00E94EB028091E8008E7763
:101A40008093E8000895CF93DF93D82FC92F81E0CA
:101A50008093E9008FEF9091E800815095FD06C0DA
:101A600095ED9A95F1F700008111F5CF8091E8008E
:101A700085FF16C050E040E068E070E08D2F9C2F9D
:101A80000E94EB028091E8008E778093E80088E066
:101A9000ED2FFC2FA1E9B3E001900D928A95E1F7BB
:101AA000DF91CF91089581E08093E00080E2809300
:101AB000D8001092C9008FE19EE40197F1F700C0B1
:101AC000000087E090EBDC018093DC039093DD0362
:101AD000A093DE03B093DF0388E19CE00FB6F89497
:101AE000A895809360000FBE90936000FFCF219A6D
:101AF00035B13D7F25B122604FB7F89483E293E082
:101B0000FC010196508168E025B9000000C057FF34
:101B100035B9550F000000C000C000C035B900C085
:101B20006A9591F753E08038950751F74FBF8FE5DD
:101B300094E00197F1F700C000000895CF93DF9380
:101B4000C7E1D1E060E0CE010E94702C2196C11562
:101B500084E0D807B9F7DF91CF9108956F927F9213
:101B60008F929F92AF92BF92CF92DF92EF92FF92AD
:101B70000F931F93CF93DF93D12CC12C3DE6A32E5F
:101B8000B12CE501EC9736011BC0F70185909490CC
:101B9000692DC8010E94702C682DC80101960E9411
:101BA000702C22E0E20EF11C0E5F1F4FC017D10710
:101BB00061F735E0630E711C2A96CA15DB0559F0F2
:101BC000C301880F991F9C01275C3C4F79018E014E
:101BD0000A501109DACFCE01CC965C019EE1C90E04
:101BE000D11CC132D14069F6DF91CF911F910F9185
:101BF000FF90EF90DF90CF90BF90AF909F908F902D
:101C00007F906F900895CF93C82F6FEF811162E29C
:101C100083E290E00E94702C6FEFC11164E084E2D7
:101C200090E00E94702C6FEFC11169E285E290E0B4
:101C3000CF910C94702C80E00E94030E60E086E24D
:101C400090E00E94702C0E94AE0D0E949E0D81E0DB
:101C50000C94030E0F931F93CF93DF93C42FD0E008
:101C6000CC0FDD1F2AE0629FC00DD11D11243CE383
:101C7000839FC00DD11D1124CE0187960E94522C46
:101C8000082F10E0102F0027CE0188960E94522CBA
:101C90009801282BC901DF91CF911F910F910895D1
:101CA000462F672F843030F4763020F4453010F41E
:101CB0000C942A0E90E080E00895DF92EF92FF925C
:101CC0000F931F93CF93DF937C010091DB038091EF
:101CD0004702082BC7E0D0E010E0DC2EC8010C2E34
:101CE00002C0959587950A94E2F780FD0CC0219774
:101CF000A0F7D12C8D2DDF91CF911F910F91FF90E7
:101D0000EF90DF900895B7018C2F0E94500E0E9433
:101D1000DB0A019761F3EECFCF93DF93D82FC92F62
:101D20000E945D0E6D2F7C2F0E94500EDF91CF918F
:101D30000C94DB0AFC01808191810E948C0E282F7B
:101D400092959F70963091F060F4925F9F70923000
:101D500030F481E0203F81F030F4283E30F080E024
:101D600008959A5FF3CF243FD1F7089581E0283E8C
:101D7000E0F3213FA1F7F9CF089583E290E00E94BC
:101D8000522C823289F484E290E00E94522C8430FA
:101D900059F485E290E00E94522C91E0893209F0DA
:101DA00090E0892F8170089580E0FCCFCF9384E08C
:101DB00090E00E94522CC82F82E290E00E94522CA8
:101DC000982F8C2FCF9108951F93CF93DF93EC0121
:101DD000FC01E453FE4F80816823C9F00E941C2C53
:101DE000182F0E941C2C782F7F7720E8720F08F4A0
:101DF0007FEF612F8091AC030E941907462F672F58
:101E0000282FCE01DF91CF911F910C94FE05DF9119
:101E1000CF911F910895DF92EF92FF920F931F933E
:101E2000CF93DF93EC01FC01E453FE4F80816823E4
:101E300081F1D090AB030091AC031091AA03E12E85
:101E4000F12C0E941C2C282FC7018C549F4F68E650
:101E500071E00E94932B8E199F0997FD039695952B
:101E60008795959587952370612F289F600D112484
:101E70007D2D802F0E941907462F672F282FCE0116
:101E8000DF91CF911F910F91FF90EF90DF900C9415
:101E9000FE05DF91CF911F910F91FF90EF90DF90A2
:101EA000089546E050E06CE170E089EA93E00E941A
:101EB000602C1092220308956F927F928F929F92CE
:101EC000AF92BF92CF92DF92EF92FF920F931F9348
:101ED000CF93DF9300D000D000D00F92CDB7DEB704
:101EE0008091970290919802A0919902B0919A02E4
:101EF0002FB7F8948090870390908803A09089036F
:101F0000B0908A032FBF75016401C81AD90AEA0A82
:101F1000FB0A2FB7F8944091870350918803609192
:101F2000890370918A032FBF4093970250939802C0
:101F30006093990270939A0210916E02EEE6F2E0BD
:101F400019831D820197AF4FBF4F88199909AA09BC
:101F5000BB092D8112132AC0398130936E02809102
:101F6000A903182F137019F0182F16951695909134
:101F70001401923009F488C680F5911146C0109280
:101F800016014093A5035093A6036093A703709393
:101F9000A80389E2EEE6F2E0AFEAB3E001900D9229
:101FA0008A95E1F781E0809314011AC0218D328D6A
:101FB0004901B12CA12C88159905AA05BB0540F44F
:101FC0002981215029833D813F5F3D833296C1CFD6
:101FD0002C0D3D1D328F218FF6CF933009F45CC656
:101FE00027960FB6F894DEBF0FBECDBFDF91CF911D
:101FF0001F910F91FF90EF90DF90CF90BF90AF9027
:102000009F908F907F906F90089590911301191376
:1020100022C083702091120130E091E082171306F4
:1020200009F490E0892F8170809318018091AE03AC
:1020300090911701981739F08093170140E060E004
:1020400080E00E94FC051A3160F4E12FF0E0E750D7
:10205000F34D0C94A72B81E0E6CF809118018111FC
:1020600002C01D82BCC140E060E080E00E94FC052F
:10207000F8CF4091160187E0489F802D1124898375
:10208000082F095FC02E003210F03FE1C32E60918F
:10209000AA037091AB038091AC030E941907F62E3E
:1020A000E72ED82E9981892F90E09A838983F98130
:1020B000FC1530F021E02D830F3108F490C1D1CF11
:1020C000E981FA81E453FE4F8081909117018923C1
:1020D00039F02D2D4F2D6E2D89819A810E94FE059C
:1020E000E981FA813196FA83E983E1CF30911601D3
:1020F00087E0389F802D11248983082F095F902E57
:10210000003210F02FE1922EB090AB03C090AC03E0
:102110004091AA034D83642F7B2D8C2D0E941907BB
:10212000F62EE72ED82E6091AD035D81650F7B2DD5
:102130008C2D0E941907C62EB72EA82E9981892FA3
:1021400090E09A838983F981F91508F0B3CFE9818A
:10215000FA81E453FE4F908180911701892361F049
:102160002A2D4C2D6B2D90FD03C02D2D4F2D6E2D46
:1021700089819A810E94FE05E981FA813196FA836C
:10218000E983E1CF3091160187E0389F802D11243B
:102190008983082F095FE02E003210F09FE1E92EBD
:1021A000D090AB03C090AC032091AD0380E4F82E37
:1021B0004F2D429F412D1124F42E9981892F90E0BB
:1021C0009A838983F981FE1508F074CFE981FA8139
:1021D000E453FE4F8081909117018923C9F0E98172
:1021E000FA81EE0FFF1FE059FE4F878D82958F70A9
:1021F0006091AA038F9D600D11247D2D8C2D0E946E
:102200001907462F672F282F89819A810E94FE0582
:10221000E981FA813196FA83E983D4CF30911601AE
:1022200087E0389F802D11248983082F095FE02ED5
:10223000003210F0AFE1EA2ED090AB03C090AC03B7
:102240002091AD03F0E4FF2E4F2D429F412D11242C
:10225000F42E9981892F90E09A838983F981FE1564
:1022600008F028CFE981FA81E453FE4F80819091F4
:1022700017018923E9F0E981FA81EE0FFF1FE05988
:10228000FE4F668DF69EB0011124E5E075956795C9
:10229000EA95E1F78091AA03680F7D2D8C2D0E94AD
:1022A0001907462F672F282F89819A810E94FE05E2
:1022B000E981FA813196FA83E983D0CF3091160112
:1022C00087E0389F802D11248983082F095FC02E55
:1022D000003210F05FE1C52EF090AA034091AB03ED
:1022E0004D83E090AC036091AD036695669566956D
:1022F0008091A5039091A6030E94EF060E946806B4
:10230000805887FD8195880F282F5E2D259F212DD0
:1023100011246F2D7D81822F0E941907F62EE72E42
:10232000D82E9981892F90E09A838983F981FC15B1
:1023300008F0C0CEE981FA81E453FE4F808190918C
:102340001701892339F02D2D4F2D6E2D89819A810A
:102350000E94FE05E981FA813196FA83E983E6CF8E
:102360008AEF95E00E9472088D8339C081EF95E075
:10237000F9CF88EE95E0F6CF8AED95E00E94C1088E
:10238000F3CF3091160187E0389F802D1124898387
:1023900047E0D42ED80EBD2C4FE14D1510F43FE18F
:1023A000B32E6091AD0366958091A5039091A6032D
:1023B0000E94EF06C82E9981892F90E09A83898325
:1023C000880F991FFC01E059FE4F7F0139813B15B1
:1023D000C8F041E04D835EE15D1508F442CE809186
:1023E00016018F5F809316019D819111F9CD82E0D6
:1023F00080931401809118018111F2CD1111F0CD5B
:1024000083E0D1CDE981FA81E453FE4F8081909140
:1024100017018923C9F0F701278D2052330B468D10
:102420004057550B6091AA037091AB038091AC03A8
:102430000C2D0E944F060E941907462F672F282F48
:1024400089819A810E94FE05F2E0EF0EF11C29813C
:102450003A812F5F3F4F3A832983B8CF84E396E0D8
:102460008DCF80911601898387E09981989F802D77
:1024700011248D8397E0D92ED80EBD2CEFE1ED15F8
:1024800010F40FE1B02E6091AD03669566958091D2
:10249000A5039091A6030E94EF06F82E80E48F0D0D
:1024A0000E946806B0E8CB2EC80E8F2D0E946806E9
:1024B000805889833D81232F30E03F832E835E81C6
:1024C0005B1538F081E08D839EE19D1508F087CF84
:1024D000C8CDEE81FF81E453FE4F808190911701BA
:1024E0008923A9F06091AA037091AB038091AC039A
:1024F000EF2C0E8129814C2D0E9406060E9419079F
:10250000462F672F282F8E819F810E94FE054E81C6
:102510005F814F5F5F4F5F834E83D1CFE0911801A2
:10252000ED83E1111EC06091AD0320E1620F08F45C
:102530006FEF8091A5039091A6030E94EF066AE0D9
:1025400070E00E947F2B892B09F08BCD0E941C2C00
:102550006FE170E00E94932B609117010E940B0FB6
:102560003ECFF091160187E0F89F802D11248983DA
:10257000082F095F802F003208F08FE13981232F67
:1025800030E03A832983E82EF12C89819A818E15D7
:102590009F051CF091E09D838FCD6091170189818B
:1025A0009A810E940B0F49815A814F5F5F4F5A8376
:1025B0004983EBCFE0911801ED83E1111EC06091DA
:1025C000AD0320E1620F08F46FEF8091A5039091B5
:1025D000A6030E94EF0665E070E00E947F2B892B26
:1025E00009F03FCD0E941C2C6FE170E00E94932BFC
:1025F000609117010E94E40EF2CEF091160187E07F
:10260000F89F802D11248983082F095F802F0032C5
:1026100008F08FE13981232F30E03A832983E82EB7
:10262000F12C89819A818E159F050CF0B3CF6091B2
:10263000170189819A810E94E40E49815A814F5F76
:102640005F4F5A834983EDCFE091160187E0E89F01
:10265000802D11248983082F095FC02E003210F0CD
:10266000AFE1CA2EE090AB03F090AC03F091AA0367
:10267000FD836091AD036695669566958091A5038F
:102680009091A6030E94EF060E946806805887FD7D
:102690008195880F682F2CE0629F612D11242D8178
:1026A000620F7E2D8F2D0E941907F62EE72ED82E51
:1026B0005981452F50E05A83498399819C1518F020
:1026C000E1E0ED83F9CCE981FA81E453FE4F8081AA
:1026D00090911701892339F02D2D4F2D6E2D898171
:1026E0009A810E94FE0589819A8101969A83898345
:1026F000E4CF87E896E036CE89EC95E033CE409182
:102700009B0250919C0260919D0270919E0280916B
:10271000A5039091A603A091A703B091A8038417E5
:102720009507A607B70708F49CCC0E94AA06082FB5
:102730000E94AA069FE1891BF0F7890F282F30E03D
:102740003A832983F901E453FE4F80911701908168
:10275000892309F497C220E040E060E001FD13C046
:102760000E94AA06082F0E94AA06782F76952FE7C6
:10277000720F08F47FEF602F8091AC030E9419075D
:10278000462F672F282F89819A810E94FE0520916C
:10279000AD0330E1230F08F42FEF60E1822F90E0CA
:1027A0000E94EF06BC0184EF91E00E947F2B809194
:1027B000A5039091A603A091A703B091A803860F4B
:1027C000971FA11DB11D80939B0290939C02A09323
:1027D0009D02B0939E0245CC4091FC025091FD02B7
:1027E0006091FE027091FF028091A5039091A60373
:1027F000A091A703B091A80384179507A607B70770
:1028000008F42FCC8091180181112AC03091160153
:1028100087E0389F802D11248983082F095FE02EDF
:10282000003210F0FFE1EF2E4981C42ED12CE3E0FD
:102830004E9FC001112481569D4F9A838983CE14E7
:1028400008F44DC041E04D830F3108F01D820F3177
:1028500008F4C5CD20E08E2D8150990B7C016FC00E
:1028600040E060E080E00E94FC057FE9C72E72E056
:10287000D72EF12CE12CEFE7BE2E0E94AA0681FF95
:102880000FC0F601108211821282FFEFEF1AFF0AC9
:1028900023E0C20ED11C3FE1E316F10471F7B6CF7D
:1028A0000E94AA06082F0E94AA06782F76952B2D43
:1028B000720F08F47FEFA701440F551F4E0D5F1DE7
:1028C00041565D4F5A834983602F8091AC030E942B
:1028D0001907E981FA81608371838283D6CFF6017B
:1028E000E453FE4F808190911701892341F0E981E3
:1028F000FA81228140816181C6010E94FE05298101
:102900003A812D5F3F4F3A8329833FEFC31AD30AA1
:1029100096CFDC01AA0FBB1FA80FB91FA156BD4F50
:102920000196FC01EE0FFF1FE80FF91FE156FD4F66
:102930006080718082806D927D928C922F5F822F59
:1029400090E08E159F052CF30E94AA066701CC0C1F
:10295000DD1C81FF27C0F601EE0DFF1DE156FD4F86
:102960001082118212820E94F90669837A838B8316
:102970009C838091A5039091A603A091A703B09199
:10298000A80329813A814B815C81820F931FA41F88
:10299000B51F8093FC029093FD02A093FE02B093BA
:1029A000FF021DCD0E94AA0689830E94AA06782FE5
:1029B00076952FE7720F08F47FEFEC0CFD1CF70102
:1029C000E156FD4F7F0169818091AC030E94190798
:1029D000F701608371838283C6CF40911E035091BB
:1029E0001F0360912003709121038091A5039091B2
:1029F000A603A091A703B091A80384179507A60783
:102A0000B70708F42ECB80911801882329F040E005
:102A100060E080E00E94FC056091AA037091AB0326
:102A20008091AC030E941907D62EC72E082F40E0D4
:102A300053E05A83498320E7E22E21E0F22EF7018A
:102A4000808190E0E981FA812081211104C020E099
:102A500040E060E003C0202F4D2D6C2D0E94FE054C
:102A6000E981FA8181818083F701848190E0E981A5
:102A7000FA81248140E060E0222319F0202F4D2DBF
:102A80006C2D0E94FE05E981FA8123812483F701E0
:102A9000838190E0211104C020E040E060E003C0A9
:102AA000202F4D2D6C2D0E94FE05E981FA81228197
:102AB0002383F701828190E0222309F448C0202F6C
:102AC0004D2D6C2D0E94FE05F701818190E0E9817A
:102AD000FA812181222309F43EC0202F4D2D6C2D37
:102AE0000E94FE050E94AA06837091E009F090E022
:102AF000E981FA81918392833596FA83E983F5E03F
:102B0000EF0EF11C29813A812E51334009F097CF05
:102B10000E94F90669837A838B839C838091A50345
:102B20009091A603A091A703B091A80329813A81AF
:102B30004B815C81820F931FA41FB51F80931E03DE
:102B400090931F03A0932003B09321038ACA20E02F
:102B500040E060E0B7CF20E040E060E0C1CF3091DE
:102B6000160187E0389F802D11248983082F095F83
:102B7000D02E003210F09FE1D92E2091AD0331E02C
:102B8000230F08F42FEF30E050E040E06FEF7FEFCD
:102B900080E090E00E94942C79015981452F50E00B
:102BA0005A834983CC24C39429812D1518F051E010
:102BB0005D8382CAE981FA81E453FE4F808190915E
:102BC0001701892319F14091AF034150042E000CE5
:102BD000550B47FF22C0C7016091AD032C2D620F3A
:102BE00008F46FEF0E94EF06AC016091AA037091A8
:102BF000AB038091AC030E9400060E941907462F88
:102C0000672F282F89819A810E94FE0549815A8168
:102C10004F5F5F4F5A834983C7CFFA01E155FC4F9D
:102C2000818982130AC0FA01EE0FFF1FE155FC4FA4
:102C3000818D928D8E159F0578F241505109C9CF33
:102C40002091AF0331E0231B08F420E06FEA75E028
:102C5000822F03C06FEA75E080E00E94A70784CB53
:102C60002091AF0331E0231B08F420E067E975E011
:102C7000EFCF2091AF0331E0231B08F420E060E8A0
:102C800075E0E6CF81E070CB1093130183708093E1
:102C900012010E94770DB4CB8091220381110E9412
:102CA000510F4091A5035091A6036091A703709125
:102CB000A8032FB7F8948091870390918803A0917F
:102CC0008903B0918A032FBF841B950BA60BB70B0A
:102CD0004097A105B10508F483C91092140180C979
:102CE000E9EAF3E08DE180838091190190911A0166
:102CF000A0911B0181839283A3838FE784838FEF4D
:102D000085830C94510F8F929F92BF92CF92DF9246
:102D1000EF92FF920F931F93CF93DF9300D000D0D9
:102D200000D0CDB7DEB71A821982FE01339684E057
:102D3000DF011D928A95E9F70EE411E093E5E92E93
:102D400091E0F92EBB24B394CC24C394D12CF80188
:102D500081918F018F3F09F44AC0F894E82FE295E2
:102D6000EF70F0E021A18F70A60102C0440F551F43
:102D70008A95E2F7CA01922F982B91A392A1809590
:102D8000892382A3789400C083E5882E81E0982E61
:102D9000DE0111966B2D6095F40191914F018D919B
:102DA0009D01215031099F3F09F46BC0492F429585
:102DB0004F7050E0FA0140A150E09F7002C055955D
:102DC00047959A95E2F740FD5CC08B29F901808315
:102DD000F9E58F16F1E09F06F9F6F8013197808149
:102DE0008F3F11F00E947F0A40EA4A95F1F7BB0C31
:102DF000E016F10609F0ABCF46E050E0BE016F5F90
:102E00007F4F8BE492E00E942C2C9C0111E0892BD7
:102E100009F410E0232BB9F186E0FE013196ABE412
:102E2000B2E001900D928A95E1F781E080934A0229
:102E30000E94340490934902809348028091480292
:102E4000909149020E942504059708F180914B0258
:102E500080935B0280914C0280935C0280914D02D2
:102E600080935D0280914E0280935E0280914F02BA
:102E700080935F02809150028093600210924A0218
:102E800006C08623A3CF80914A028111D7CF812F1C
:102E900026960FB6F894DEBF0FBECDBFDF91CF915F
:102EA0001F910F91FF90EF90DF90CF90BF909F9078
:102EB0008F9008958091450290914402892B8093D0
:102EC000EE0190914602992391F0892B8093EE01B7
:102ED00020E080EF91E0FC013081019631112F5FFD
:102EE00031E0863F9307B9F721110E94610C48E059
:102EF00050E06CE372E08EEE91E00E942C2C892B66
:102F0000A9F088E0EEEEF1E0ACE3B2E001900D92C2
:102F10008A95E1F7E0918203F0918303309731F0D5
:102F20000280F381E02D8EEE91E00994089590E007
:102F300080E00E94700490E080E00E945A041092A9
:102F400044020E945A1786E0E8E6F2E0DF011D9293
:102F50008A95E9F710926202109261021092630260
:102F60000C9442098093DB030C9497178091DB0348
:102F7000982F9670963019F488600C94B217877F5A
:102F8000FCCF21E030E001C0220F8A95EAF72095BE
:102F90008091DB0382230C94B21790913B028095C1
:102FA000892380933B02282F277091F4282F082E25
:102FB000000C330B9217130659F09091520292FDB8
:102FC00007C08595859585950E94C11710923B0293
:102FD0000895CF93C0915202C2FB992790F9981798
:102FE00099F080FBC2F9C09352026091510284E0D3
:102FF00090E00E94702C6C2F82E290E00E94702C76
:1030000082E0CF910C94CD17CF91089521E030E06C
:1030100001C0220F8A95EAF78091DB03822B0C9482
:10302000B217809347020C94971710924502E0EF75
:10303000F1E086E0DF011D928A95E9F70C9497177D
:103040001F93CF93DF93CDB7DEB7AA970FB6F8944F
:10305000DEBF0FBECDBF8DE993E0FC01019620914C
:10306000F100208323E0853A9207B9F780919E030F
:10307000893009F456C0C8F4823009F4B3C08330F3
:1030800009F482C0813071F18091E80083FF85C22C
:1030900080919D0390919E039A3008F07EC2E92FA3
:1030A000F0E0ED5EF24D0C94A72B8A3009F489C054
:1030B0008B3051F780919D03813231F78091A103CC
:1030C0009091A203892B01F78091E800877F80937C
:1030D000E8000E94150380919F03809315010E94D0
:1030E0001518D2CF80919D03813A71F68091E80046
:1030F000877F8093E8008091A1039091A203892BA0
:1031000061F468E081E993E070E00E94C703809178
:10311000E8008B778093E800B7CF60E090E080E034
:10312000F3CF80919D03813209F0AECF8091A1034E
:103130009091A2038D7F892B09F0A6CF8091E800A2
:10314000877F8093E8008091E80082FF18C090910B
:10315000F3008091F200029731F48091F100813008
:1031600011F0863021F48091F100809390038091DA
:10317000E8008B778093E8000E94150385CF80914B
:103180009B038111E0CF80CF80919D03813A09F0AC
:103190007BCF8091A1039091A203892B09F074CF7A
:1031A0008091E800877F8093E8008091E80080FFAD
:1031B000FCCF809115018093F1008091E8008E771B
:1031C000D9CF80919D03813209F05ECF8091E800D4
:1031D000877F8093E8000E9415038091A00380936D
:1031E0008F0352CF80919D03813A09F04DCF80919A
:1031F000E800877F8093E8008091E80080FFFCCFA3
:1032000080918F03D8CF803899F0823809F0C5C1FA
:103210008091A1038F70873008F0BFC18093E900CF
:103220008091EB0085FB882780F91092E90006C0A9
:103230008091990390919A03911182609091E80096
:10324000977F9093E8008093F1001092F1008091B5
:10325000E8008E779EC1882309F48CC1823009F082
:103260009CC180919F0381118FC18091A1038F70B8
:103270002FEF280F263008F090C18093E9002091AD
:10328000EB0020FF81C1933031F48091EB0080622C
:103290008093EB0079C19091EB0090619093EB00EB
:1032A00021E030E001C0220F8A95EAF72093EA007E
:1032B0001092EA008091EB008860EACF81116DC125
:1032C00010919F031F778091E3008078812B80937A
:1032D000E3008091E800877F8093E8000E94150357
:1032E0008091E80080FFFCCF8091E30080688093AC
:1032F000E30082E0111183E080939B034EC180586C
:10330000823008F04AC140919F035091A0034C3D88
:1033100083E05807A1F583E08A838AE289834FB767
:10332000F894DE01139620E03EE051E2E32FF0E056
:1033300050935700E49120FF03C0E295EF703F5F88
:10334000EF708E2F90E0EA30C0F0C7968D939D937A
:103350002F5F243159F74FBF8091E800877F80931A
:10336000E8006AE270E0CE0101960E94C7038091F6
:10337000E8008B778093E80010C1C096E7CF80917A
:10338000A1039091A203252F33272330310509F49F
:103390004AC078F52130310509F479C08BE590E019
:1033A000E9E2F4E02230310509F0F7C02091E800AD
:1033B000277F2093E8002091A3033091A403821774
:1033C000930708F49C0140E02115310509F064C021
:1033D000411162C08091E80082FDC9CF80919B03BA
:1033E000882329F2853019F28091E80083FFF2CF1B
:1033F000BECF2132310509F43BC02232310509F03C
:10340000CCC08330910508F0C8C0FC01EE0FFF1F4F
:10341000EC59FE4F0190F081E02D8F599E4FDC0159
:103420008C9190E011C0CA019927413089F0823017
:103430009105B1F0892B09F0B0C0EEEBF4E0E49116
:103440008E2F90E0EEEBF4E0009709F4A6C0AECF2B
:10345000EEEAF4E0E4918E2F90E0EEEAF4E0F4CFAF
:10346000E6E9F4E0E4918E2F90E0E6E9F4E0ECCFB9
:103470008330910508F091C0880F991FFC01E6592F
:10348000FE4F0190F081E02D89E090E08FCF82E146
:1034900090E0E4E8F4E08ACF80919B03882309F46C
:1034A00066CF853009F463CF8091E80083FD5FCF5C
:1034B0008091E80082FD8ECF8091E80080FF84CF6C
:1034C0009091F3008091F2002115310519F08830B8
:1034D000910550F041E0089709F040E08091E80044
:1034E0008E778093E80070CF44914093F10031963D
:1034F000215031090196E8CF803809F04EC0809103
:10350000E800877F8093E80080919C038093F1001E
:103510009ECE811142C010919F031230F0F5809130
:10352000E800877F8093E80010939C030E941503B6
:10353000112311F084E005C08091E30087FDFACFEC
:1035400081E080939B0342E061EC81E00E943403C0
:1035500042E261EC84E00E94340342E261EC82E0EA
:103560000E94340342E260EC83E00E9434038091C5
:103570009B0313C080919F03813079F481E09330E5
:1035800009F080E080939A031092E9008091E800AE
:10359000877F8093E8000E9415038091E80083FFF5
:1035A0000AC08091E800877F8093E8008091EB005B
:1035B00080628093EB00AA960FB6F894DEBF0FBE30
:1035C000CDBFDF91CF911F910895882321F00E94F4
:1035D000670C0C945A170895882339F0909145028E
:1035E000892B809345020C945A1708958823B1F1D2
:1035F0009CEF980F913A70F4E0EFF1E0919189130C
:1036000003C0DF0111971C9291E0E63FF907B1F783
:103610000C945A1790E2980F983050F4877091E00C
:1036200001C0990F8A95EAF7892F0E94670CF0CFA5
:103630009BE5980F933020F490E080E00C947004A8
:1036400098E5980F973120F490E080E00C945A04AC
:10365000803F20F00E9468090C9442090895CF939E
:10366000C82F882309F455C08CEF8C0F813AF8F4E9
:10367000E0EFF1E0DF018D91C81761F021E0A63F96
:10368000B207C9F76C2F8EEE91E00E944004CF91F3
:103690000C945A178191C81303C0DF0111971C9233
:1036A00031E0E63FF307B1F70E945A17EBCF80E213
:1036B0008C0F883068F4C77021E030E001C0220F21
:1036C000CA95EAF780914502822B80934502DFCFAD
:1036D0008BE58C0F833038F42C2F2452330BC90127
:1036E000CF910C947004E8E5EC0FE73150F4F0E072
:1036F000EE0FFF1FE05EFE4F80819181CF910C9411
:103700005A04C03F30F08C2F0E94230ACF910C94B2
:103710004209CF9108950F931F93CF93C82F10E0C4
:1037200000E0893311F400E510E08C2F0E942F1B7C
:103730000115110531F48C2FCF911F910F910C942D
:10374000F61A8FE99FE00197F1F700C000000150E1
:103750001109EECFFF920F931F93CF93DF93C62FE4
:10376000D42F122FFC0182818823A9F06093DA0301
:103770000E9434049093D9038093D803C77081E0EA
:1037800001C0880FCA95EAF7DF91CF911F910F9181
:10379000FF900C94EC1A8091DA03681334C0809186
:1037A000D8039091D9030E942504883C910558F5CF
:1037B00000E20D0FCD17A9F0C770FF24F3948F2DF1
:1037C00001C0880FCA95EAF70E94E51A083048F44C
:1037D0008D2F877001C0FF0C8A95EAF78F2D0E940C
:1037E000EC1A812F0E948B1B0830A0F4D77081E067
:1037F00001C0880FDA95EAF7DF91CF911F910F9101
:10380000FF900C94E51AC77081E001C0880FCA953B
:10381000EAF7F2CFDF91CF911F910F91FF900895BA
:1038200090E080E00E945A2C893E9E4F11F40C9447
:10383000BD0E80E0089569EE7EEF90E080E00E948A
:103840008E2C60E082E090E00E94702C60E083E0CB
:1038500090E00E94702C1092470260E084E090E0BB
:103860000E94702C60E082E290E00E94702C60E088
:1038700085E090E00E94702C60E086E090E00E947D
:10388000702C6FEF87E090E00E94702C40E050E0D9
:10389000BA0188E090E00E94822C60E08DE090E028
:1038A0000E94702C40E050E0BA0188E190E00E9454
:1038B000822C60E087E190E00E94702C40E050E0B4
:1038C000BA018CE190E00E94822C70E060E080E21E
:1038D00090E00E948E2C40E050E0BA0188E190E038
:1038E0000E94822C80E00E94030E0E941B0E40E08A
:1038F00050E0BA018FE090E00E94822C40E050E05E
:10390000BA0183E190E00C94822C3F924F925F9237
:103910006F927F928F929F92AF92BF92CF92DF92DF
:10392000EF92FF920F931F93CF93DF9300D000D0BD
:103930000F92CDB7DEB78C01FC0183819481892B76
:1039400031F08081918189238F3F09F097C50F90D5
:103950000F900F900F900F90DF91CF911F910F91CB
:10396000FF90EF90DF90CF90BF90AF909F908F909F
:103970007F906F905F904F903F9008950E945D0EF2
:10398000F82E682F89819A810E94A30C69817A811F
:103990008F2D0E94500E7C01F8018281882309F44A
:1039A0005FC5970122513F452031310508F0F5C42C
:1039B0008FEF93E00E94522CFEEEEF0E47E1842E33
:1039C000992493948823A1F180913B02877009F494
:1039D000BECFF8018281882309F4B9CF80915202C9
:1039E00082FDB5CF82E00F900F900F900F900F9057
:1039F000DF91CF911F910F91FF90EF90DF90CF90CB
:103A0000BF90AF909F908F907F906F905F904F90FE
:103A10003F900C94CD17811424E09206A9F2C401C2
:103A20000E94522C811101C0EA943FEF831A930A3D
:103A3000E110F1CF80911C0190911D01A0911E0118
:103A4000B0911F0189839A83AB83BC834424439440
:103A50003AE0332E74018FEFE81AF80AC4010E948D
:103A6000522C89831A82882309F4AECF9FEF980FD6
:103A7000933000F58A83498292E0890E911CC70138
:103A80000E94522C8B83882309F49ECFFE0131962D
:103A90007F01F70120812223E9F2213009F049C09A
:103AA00091818281913041F4F2E0EF0EF11C0E948D
:103AB0008B1B09C04701EACF923049F422E0E20EA5
:103AC000F11C0E942F1B3FEFE31AF30AE2CF933061
:103AD00031F432E0E30EF11C0E94F61AF4CF943078
:103AE00021F08FEFE81AF80AEECF92E0E90EF11C10
:103AF00030E020E0B7016F5F7F4FF70141818053D5
:103B0000990B8A30910550F021503109E0F28FE98C
:103B10009FE00197F1F700C00000F6CF329EF00160
:103B2000339EF00D11249C012E0F3F1F842F7B012B
:103B3000E1CFE22FF0E0E754FE4F5490822F8695BC
:103B40008695869590E0FC01E755FE4F64902770BE
:103B5000712C022E02C0759467940A94E2F7E1E09A
:103B60006E227724FC01E756FE4FA490B12C022E62
:103B700002C0B594A7940A94E2F7F1E0AF22BB2407
:103B8000FC01E757FE4FC490D12C02C0D594C794D6
:103B90002A95E2F721E0C222DD246114710419F0B4
:103BA00081EE0E942F1BA114B10419F086EE0E9431
:103BB0002F1B852D0E948B1BAB2819F086EE0E94CF
:103BC000F61A672819F081EE0E94F61ACD2809F43A
:103BD0007ACF8CE26CCF81E00E9406180E94B61763
:103BE000F3CE81E00E94C117F9CF82E0F5CF95EFC7
:103BF000E9169CE5F906E9F027E245EE66EEE6EF08
:103C0000EE16ECE5FE0649F027E245EE64EEF4EF31
:103C1000EF16FCE5FF0609F0E9C3C8010E94AA1BE4
:103C2000D3CE27E245EE65EEF8CF26E241EE60EE18
:103C3000F4CF26E241EE62EEF0CF28E241E0F3CF8E
:103C4000C7018A5F9C45099708F4E8C326E1E2169C
:103C50002CE5F206C1F4809145028A7A91E009F4DC
:103C600090E09093F60169E2811165E38EEE91E0B8
:103C70000E9440040E945A17A7CEE5EAEE16EDE531
:103C8000FE0609F4CBC3FAE5EF16FDE5FF0609F0E1
:103C90003EC181E060C1F701E350FC4580915102D3
:103CA0008160E331F10558F5E35EF24D0C94A72BEA
:103CB00033E0E3163DE5F30680F48AEFE8168CE581
:103CC000F80608F4BDC3F701EB5FFC45E830F105E9
:103CD00028F5E05DF24D0C94A72B91E6E9169DE5E1
:103CE000F90609F498C090915102892F8E7F90FFB8
:103CF0008160E5EAEE16EDE5FE0609F0A1C38093CA
:103D000051029EC3809151028260F9CF809151028D
:103D10008460F5CF809151028860F1CF809152028A
:103D20008160809352028CC3809152028260F9CFED
:103D3000809151028061E3CF809151028062DFCF98
:103D4000809151028064DBCF0E941518809151024E
:103D50008068D5CF809151028C60D1CF8091520282
:103D60008360DFCF809151028E7FC9CF8091510255
:103D70008D7FC5CF809151028B7FC1CF8091510241
:103D8000877FBDCF809152028E7FCBCF8091520230
:103D90008D7FC7CF809151028F7EB1CF809151022C
:103DA0008F7DADCF809151028F7BA9CF0E941518D6
:103DB000809151028F77A3CF80915102837F9FCF53
:103DC000809152028C7FADCF8091510282FB992766
:103DD00090F921E0922790FB82F990FB83F98FCF35
:103DE00080915202982F909591708E7F892B90FB35
:103DF00081F997CF0E94151890915102892F97FB56
:103E000087F980587CCF61E08EE090E00E94702CB2
:103E100017C360E0F9CF90915102892F8F7E94FFF4
:103E200080616DCF8091F60181110FC089E2E0EFD2
:103E3000F1E026EF31E09191891303C0DF01119782
:103E40001C922E173F07B9F715CF85E3F0CFF2ECA0
:103E5000EF16FCE5FF0608F436C3F701E35CFC450A
:103E6000E331F10520F4E85CF24D0C94A72B80912E
:103E7000A90391E089278093A903109214018091EE
:103E800022038160809322039FCD49E655E065E7D8
:103E900075E00E94920498CD45E755E069E675E02B
:103EA000F8CF4BE355E065E475E0F3CF45E455E02A
:103EB0006BE375E0EECF41E255E06EE275E0E9CFED
:103EC0004EE255E061E275E0E4CF47E055E064E1A1
:103ED00075E0DFCF44E155E067E075E0DACF47ED0C
:103EE00054E065EE74E0D5CF45EE54E067ED74E044
:103EF000D0CF61E081E00E944F0566CD61E085E0B2
:103F0000FACF61E087E0F7CF61E08AE0F4CF3BE5EC
:103F1000E3163DE5F30668F4E1148CE5F806F1F0EC
:103F20009EEDE9169CE5F90609F0CDC20E941B1C26
:103F30004BCDEBE5EE16EDE5FE06E9F0FCE5EF1600
:103F4000FDE5FF0609F0BFC28091520282FB88277F
:103F500080F991E089270E94E917B5C20E941518DF
:103F60002FEF34E38CE0215030408040E1F700C077
:103F700000000E94530D80E0EECFC6010E94790C34
:103F8000F82EB0C2FF2DFF70AF2E8F2D807F19F05D
:103F9000A29490EFA9228E2D9920B9F0AA2069F061
:103FA00090E29E0D983010F0E11009C0809145021A
:103FB000A82AA09245020E945A178E2D4DC08091CA
:103FC0004402A82AA0924402F6CF0E94F61AAA2020
:103FD00009F444C080E28E0D883010F0711004C0E6
:103FE0008A2D0E94670C06C0A09480914402A822EA
:103FF000A09244020E945A1731C02F2D2F70A22E7A
:104000008F2D807F803219F0A29480EFA8228E2D10
:10401000772089F031E0731609F480C0992009F403
:104020008AC0882009F480C0F801958190FFC5CF2F
:104030009F70958379C02091520222FF4CC0992035
:1040400009F443C0AA2039F0809145028A2980935F
:1040500045020E945A1780E00E942F1BE8E0CE1A0A
:10406000D108F4E0CF16D10410F40E948604BB20DE
:1040700009F46DCC80913B0280FD69CCF80112827D
:104080008595859585950E940618C8010E94851C16
:1040900080913B028595859585950F900F900F90A7
:1040A0000F900F90DF91CF911F910F91FF90EF90A4
:1040B000DF90CF90BF90AF909F908F907F906F9048
:1040C0005F904F903F900C94C11780E00E94F61AC9
:1040D000AA2021F285CF9920A1F0909146028A2D45
:1040E000892B811003C00E94EC1AB8CFE1E08E1238
:1040F000FACF22FDB3CF981709F4B0CF80934602D0
:10410000ADCF811006C00E94610C8A2D0E94E51A75
:10411000A5CFF1E08F1609F4A1CFF5CF992031F0AA
:1041200025E0281508F49ACF8A2DDDCF34E0381524
:1041300008F494CFEACF882041F3893349F4FFEFA4
:1041400027EE33E0F15020403040E1F700C000009E
:104150008E2D0E94F61A82CF8F2D869586958370BC
:1041600061F0813009F07ACFC7019370911002C0DD
:1041700090E080E00E945A0471CFC70193709110C3
:1041800002C090E080E00E94700468CF8E2D9920DC
:1041900029F00E94230A0E94420960CF0E94680908
:1041A000FACF8F2D837099F5911058CF4E2D4295EF
:1041B00046954770440F440F8E2D8F70042E01C01A
:1041C000880F0A94EAF72E2D2071E4FE07C02FE035
:1041D00030E001C0220F4A95EAF720953F2D369531
:1041E00036953370323071F0333051F040914702E0
:1041F000313029F0822B84230E9411182FCF842B79
:10420000822BFACF282B809147028227F5CF869503
:10421000992011F08F2D8170882309F41FCF4E2D26
:10422000429546954770440F440F8E2D8F70042E93
:1042300001C0880F0A94EAF72E2D2071E4FE07C012
:104240002FE030E001C0220F4A95EAF720953F2D7C
:10425000369536953370323071F0333051F04091ED
:10426000DB03313029F0822B84230E94B217F6CE73
:10427000842B822BFACF282B8091DB038227F5CF6A
:104280008F2D8F70F82E992021F00E9406188E2D08
:104290002ACF8E2D0E94E51A8F2D0E94C117DECEE7
:1042A0008E2D92EF7916B1F1971570F0E0EF7E1632
:1042B000D1F0F1EF7F1691F0992009F45EC08110E2
:1042C0007CCE8F2D8F712AC023EF721651F134EFFF
:1042D0007312F2CF8091520282FF2FC08F2D8F7107
:1042E0009920D9F21BC0992081F084E0881508F448
:1042F000B5CE2F2D2F7181E090E001C0880F2A9557
:10430000EAF79091DB038927B0CF95E0981508F480
:10431000A5CEEFCF8F2D8F719110BFCF0E940618C1
:104320009DCE80E0992009F4A0CF9F2D9F7181E060
:1043300001C0880F9A95EAF798CF992099F0EF2D50
:10434000EF71FE2E8E2F0E9406188091520282FD80
:1043500007C0F8E0FF9EC0011124836080933B02F8
:104360008F2DDCCF81E00E94CD1721E0281508F0C9
:1043700075CE82E00E94CD1771CE882059F0893326
:1043800009F0E6CE3FEF87EE93E031508040904059
:10439000E1F7DCCE8F2D8F7180CFF0E1EF16FFE5D6
:1043A000FF0609F418CC21E1E2162FE5F20609F424
:1043B0001CCC93EFE9169CE5F90609F436CC08F01D
:1043C00016CCF8EDEF16FCE5FF0609F42ACC29ED32
:1043D000E2162CE5F20609F430CC26E241EE61EE5D
:1043E00037EDE3163CE5F30609F417CC882309F40E
:1043F00056C01092DA0321E6E2162DE5F20671F0BE
:1044000008F03BCC86E1E8168CE5F80608F018CCFD
:1044100092E0E9169CE5F90608F435CC0E94D60E28
:104420009093520280935102F6E1EF16FCE5FF06ED
:1044300008F03ECC22E0E2162CE5F20608F02BCC88
:1044400060915102F090520284E090E00E94702C42
:104450006F2D82E290E00E94702C0E941518B4CA61
:1044600030E1E3163FE5F30609F4BBCB91E1E91631
:104470009FE5F90609F09DCF82E0B4CB85E0DE012F
:10448000119601900D928A95E1F7F80122818981B8
:104490009A81211173CA0E94790CF82E77CA36E1ED
:1044A000E3163CE5F30609F4BDCC80914502827227
:1044B00096EDE9169CE5F90608F4C9CC2DE5E2165F
:1044C000F20609F481CAF8018281C080D180882374
:1044D00009F453CDC6010E945D0EF82E682FC60167
:1044E0000E94A30CB6018F2D0E94500E0E94DB0A81
:1044F0007C01782EF8019280858082942FE08222C0
:1045000080913B028770C1F0B92C9920B1F08F2DBA
:10451000807F803421F080E28E0D883068F08091B9
:10452000520282FD09C082E00E94CD1780913B02B9
:104530008770BB24B3948111B12C8F2D82958F701D
:10454000C82ED12C8C3008F089CDF601E55BF24DF8
:104550000C94A72B1F93CF93DF9380910802807F49
:10456000A9F480910502882389F080913A02D091C4
:1045700009026091030270910402A0910602B091B9
:104580000702C62FC72316E0D81304C0DF91CF91CE
:104590001F91089590E0109711F0CF3F19F4019604
:1045A0008770F2CF189F9001199F300D1124F901E7
:1045B000E65FFD4F41814713F2CF40814613EFCFB5
:1045C00042814111ECCF438154814A1B5B0B483C33
:1045D000510528F7809108028F708061809308024E
:1045E000F901E15FFD4F80818F708061808383E0FE
:1045F00092E00E94851CDF91CF911F910C946F0C6B
:10460000AF92BF92CF92DF92EF92FF920F931F93E0
:10461000CF93DF93CDB7DEB72B970FB6F894DEBFFD
:104620000FBECDBF8C0185E0F801DE011796019029
:104630000D928A95E1F7F801E28083E0A82E82E0EE
:10464000B82E60910602709107026115710509F498
:104650001AC19091030240910402842F89238F3F55
:1046600009F411C120813181C380D480F09005020A
:10467000F601E61BF70BFF2009F4D0C08091080279
:10468000582F507FE83CF10508F0ABC0511177C0BE
:10469000FE2C431321C092131FC0E1101DC08F7068
:1046A000806180930802C5010E94851C80910802E8
:1046B000F80185838F2D2B960FB6F894DEBF0FBEC1
:1046C000CDBFDF91CF911F910F91FF90EF90DF90C1
:1046D000CF90BF90AF900895CD2829F0822F8323EB
:1046E0008F3F09F0EBC080E0F82FF170DF2EE091F2
:1046F0003A024091090256E080FD1CC0EE20D1F242
:1047000080910802816080930802F12CD3CF8E2F14
:1047100090E05E9FF0011124E65FFD4F618136134A
:1047200006C06081261303C06281E612E7CFFC0158
:104730003196E770E413EBCF2F8338878F8198850C
:104740000E948C0E292F22952F70903260F0225FEC
:104750002F70223078F49F7051F0F8019581907F8E
:1047600031F4D12C0AC09F7011F08823D1F3805E00
:104770008830B8F3C8010E94851CFD2C9BCF4313E1
:1047800006C0921304C0F801EE2009F461C0C8010C
:104790000E949A0E882309F1EE20F9F08091080218
:1047A000803270F020910302309104023A83298311
:1047B0001B82DD82CC828E83CE0101960E94851CF5
:1047C00086E0F801A3E0B2E001900D928A95E1F74E
:1047D0000E94AA22FF24F3946DCFC8010E94851C79
:1047E000F9CF51110AC083E092E00E94851C86E057
:1047F000F50111928A95E9F788CF4313C8CF921338
:10480000C6CFE110C4CFF8018583C8010E94851C82
:1048100086E0F50111928A95E9F74CCFE83CF10565
:10482000B8F7FE2CEE20C9F243131FC092131DC02F
:104830008091080280FD10C0982F907F69F0F801E8
:104840008583903F31F0982F907F905F8F70892BF8
:104850008583C8010E94851C86E0F801A3E0B2E0D0
:1048600001900D928A95E1F725CFC8010E949A0E1A
:104870008111A6CF80910802816080930802C8014F
:104880000E94851C17CFEE2009F4A7CFC8010E9413
:104890009A0EF82E882309F4A0CF86E0F801A3E051
:1048A000B2E001900D928A95E1F780910302909118
:1048B00004020E948C0E0E94AA22FCCE81E08E256A
:1048C00013CF1F93CF93DF93CDB7DEB767970FB6A4
:1048D000F894DEBF0FBECDBF4B8B5C8B6D8B7E8B98
:1048E0008F8B6111109244021A8A2C898E899F89BC
:1048F0003B893D872E876F87998B888B86E0FE01E9
:104900003D96DE01179601900D928A95E1F7CE0152
:1049100007960E940023882389F016E080913A02CE
:104920009091090289134FC067960FB6F894DEBFC5
:104930000FBECDBFDF91CF911F91089586E0FE019C
:104940003796DE01119601900D928A95E1F74A851E
:104950005B854115510509F37F816885862F872383
:104960008F3FD9F22091090230E0C901019687708A
:104970009927E0913A02E817190671F40E94151878
:104980001092090210923A0286E0E3E0F2E0DF01C1
:104990001D928A95E9F7C1CF79836A835D834C8341
:1049A00096E0929FD001939FB00D1124A65FBD4F5A
:1049B000FE01319601900D929A95E1F780930902DC
:1049C0000E946F0CAACF819FC0011124865F9D4F6A
:1049D0000E940023882309F4A7CF80913A0290E037
:1049E00001968770992780933A0298CF1F920F9271
:1049F0000FB60F9211242F933F934F935F936F93B2
:104A00007F938F939F93AF93BF93CF93DF93EF9356
:104A1000FF93D091E900DF708091EC00C82FC17046
:104A200080FDC0E81092E9008091F000877F8093BC
:104A3000F00078940E9420181092E9008091F00014
:104A400088608093F000CD2BCF70C093E900FF9178
:104A5000EF91DF91CF91BF91AF919F918F917F9116
:104A60006F915F914F913F912F910F900FBE0F90DB
:104A70001F9018951F920F920FB60F9211242F932B
:104A80003F934F935F936F937F938F939F93AF93D6
:104A9000BF93EF93FF938091E10082FF09C0809163
:104AA000E20082FF05C08091E1008B7F8093E100EE
:104AB0008091DA0080FF24C08091D80080FF20C060
:104AC0008091DA008E7F8093DA008091D90080FF98
:104AD0009BC080E189BD82E189BD09B400FEFDCFA4
:104AE00081E080939B0380918E03811109C00E9415
:104AF0009B020E9466038091E20084608093E20042
:104B00008091E10080FF17C08091E20080FF13C018
:104B10008091E2008E7F8093E2008091E2008061CC
:104B20008093E2008091D80080628093D80019BC05
:104B300085E080939B038091E10084FF29C08091F0
:104B4000E20084FF25C080E189BD82E189BD09B40E
:104B500000FEFDCF8091D8008F7D8093D80080919A
:104B6000E1008F7E8093E1008091E2008F7E809350
:104B7000E2008091E20081608093E20080919C03DA
:104B8000882309F447C084E080939B0380919B03B2
:104B90008091E10083FF27C08091E20083FF23C062
:104BA0008091E100877F8093E10082E080939B0306
:104BB00010929C038091E1008E7F8093E1008091B0
:104BC000E2008E7F8093E2008091E200806180931A
:104BD000E20042E060E080E00E9434038091F00057
:104BE00088608093F000FF91EF91BF91AF919F910A
:104BF0008F917F916F915F914F913F912F910F9086
:104C00000FBE0F901F90189519BC10929B03109225
:104C10008E0376CF8091E30087FD02C081E0B4CFA0
:104C200083E0B2CF78941F921FB61F9211248F9306
:104C30009F93AF93BF938091870390918803A09136
:104C40008903B0918A030196A11DB11D809387034A
:104C500090938803A0938903B0938A03BF91AF9187
:104C60009F918F911F901FBE1F9018951F921FB686
:104C70001F9211248F939F93AF93BF9380918603CC
:104C8000811113C08091870390918803A0918903BB
:104C9000B0918A034196A11DB11D80938703909323
:104CA0008803A0938903B0938A03BF91AF919F912A
:104CB0008F911F901FBE1F901895CDB7DEB7A49798
:104CC0000FB6F894DEBF0FBECDBF84B7877F84BF19
:104CD0000FB6F894A8958091600088618093600079
:104CE000109260000FBE80E890E00FB6F8948093B9
:104CF0006100909361000FBE85B7806885BF85B75E
:104D0000806885BF8DE79AE09093ED018093EC0178
:104D10000E949B020E9466038091E200846080935F
:104D2000E200789480919B038823A1F01091E90020
:104D30001F709091EC00892F817090FD80E8182BF6
:104D40001092E9008091E80083FD0E9420181F70F6
:104D50001093E90082E084BD93E095BD9AEF97BD82
:104D600080936E000E94BD0E811102C00E941B0E36
:104D70000EE411E0D8018D918D018F3F11F00E945A
:104D80007F0AB1E003351B07A9F703E511E089E5C8
:104D9000E82E81E0F82EF80181918F018F3F11F00C
:104DA0000E947F0AE016F106B1F786E0EBE5F2E03B
:104DB000DF01282F1D922A95E9F7EBE4F2E0DF01ED
:104DC0001D928A95E9F70E94101C811102C00E9471
:104DD0001B1C82E090E00E94522C809353020E94A0
:104DE000D60E90935202809351020E948316BFEF19
:104DF000E6E7F1E0B150E040F040E1F700C000002C
:104E00000E94831680915B0280FF08C06FEF7FEFE6
:104E100090E080E00E948E2C0E94530D83E090E091
:104E20000E94522C0E9411181092AF038FEF9FEF37
:104E30009093C9038093C8039093CB038093CA03D4
:104E40009093CD038093CC039093CF038093CE03B4
:104E50009093D1038093D0039093D3038093D20394
:104E60009093D5038093D4039093D7038093D60374
:104E700010926E02909388028093870290938A0228
:104E80008093890290938C0280938B0290938E0280
:104E900080938D029093900280938F029093920260
:104EA0008093910290939402809393029093960240
:104EB000809395020E94101C811104C00E941B1C4B
:104EC0000E94701646E050E06CE170E089EA93E0E1
:104ED0000E94422C109222038091A9038C7F11F42E
:104EE0000E94701684E091E0909383038093820384
:104EF000A8E1EA2EF12C8BE592E0B6E08B2E880E2D
:104F000018E0C12ED12C80919B03F0E4BF2E00E16C
:104F100012E1853009F4CAC10E948316882359F032
:104F20008FB7F8944091870350918803609189036B
:104F300070918A038FBFEBE5F2E0A4E5B2E010E0E8
:104F400000E0902F71908D91871509F4D3C18725CA
:104F5000B12CAA24A394282F2A2109F4C6C1B9820E
:104F60009A837A2081E009F480E08B830E943404E4
:104F70008160782F9D838C8349815A816B818D81DB
:104F80000E946124F801EC5AFD4F8081A826A0827E
:104F9000772089F085E0809FF001819FF00D11243A
:104FA000E059FE4FEB0DF11D8081712C8F3F19F000
:104FB000982E77247394072D10E080916E02800F55
:104FC000912F911D09975CF15601A01AB10AB80101
:104FD00061597D4FA5018FE692E00E94392CB801FE
:104FE00069587D4FA50187E792E00E94392CA50101
:104FF000440F551FB801660F771F69577D4F87E82B
:1050000092E00E94392CB80161587D4FA5018FE7CD
:1050100092E00E94392C88E0871980936E0280917B
:105020006E0290E0292D30E0D901AA0FBB1FBD010F
:1050300062577E4F9D0121573E4F41E0480F971523
:1050400008F43EC180936E020E945C0F86E0E8E6A1
:10505000F2E0DE01119601900D928A95E1F7009140
:105060006A02B0906B02A0906C0210916D021092D7
:105070006A0210926B0210926C0210926D02802FE5
:105080008B2909F448C080916602909167020E94C2
:1050900025049C0180916202882309F42BC32531E9
:1050A0003105C8F18F3F19F08F5F809362020023B2
:1050B00059F00E94030A9FEF10160CF491E0899FAB
:1050C000802D112480936A02BB2059F00E94030AAC
:1050D0009FEF1B140CF491E0899F802D1124809385
:1050E0006B0230916A023323B1F020916B022223CC
:1050F00091F045EB3403C0011124992309F411C147
:1051000090936A0255EB250390011124332309F48F
:105110000CC130936B02812F8A2909F448C0809119
:105120006402909165020E9425049C0180916102B5
:10513000882309F4DAC221353105C8F18F3F19F00F
:105140008F5F80936102AA2059F00E94E1099FEFCE
:105150001A140CF491E0899F802D112480936C0225
:10516000112359F00E94E1099FEF11160CF491E010
:10517000899F802D112480936D0230916C0233231E
:10518000B1F020916D02222391F045EB3403C00170
:105190001124992309F4CDC090936C0255EB25039B
:1051A00090011124332309F4C8C030936D0280911B
:1051B0006A0290916B02892B90916C02892B9091DD
:1051C0006D02892B11F00E9442090B83BC82AD82D3
:1051D0001E8386E0FE013196A8E6B2E001900D92B2
:1051E0008A95E1F70E94860490915A028913809370
:1051F0005A0280919B03843009F085CE83E080932E
:10520000E9008091E80082FF7ECE8091E80090E086
:1052100085FF06C00E94BA02882309F492C091E07B
:105220008091E8008B778093E800992309F46BCE96
:10523000E981E150E33108F014C1F0E0E95AF24DA0
:105240000C94A72B80919B03843019F10E945C0F72
:10525000109286030FB6F894A895E09260000FBEF6
:10526000B092600083B7817F846083BF83B7816021
:1052700083BF7894889583B78E7F83BF0FB6F894E9
:10528000A895809160008861809360001092600012
:105290000FBE80919A03882349F00E948316EBE5A4
:1052A000F2E08191811102C28E12FBCF80919B03AB
:1052B000853009F4C7CF0E9415180E9486042CCEB1
:1052C00090E0FC01E259FD4FDB015C915183D90173
:1052D0005C915187918A880F991FFC01E259FD4F1B
:1052E000128E118E842F91E0A8CEB394AA0C25E0E3
:1052F000B21231CE0F5F1F4F0630110509F021CEDB
:105300008FEF89838A831B820E9434048160782F07
:105310009D838C8349815A816B818D810E94612498
:1053200093CE81E080936A02EDCE81E080936B02A0
:10533000F2CE81E080936C0231CF81E080936D02E8
:1053400036CF00E210E0CE0101965C018091E800CA
:1053500085FD0AC08091E8008B778093E8000E9469
:10536000BA02882399F35BCF8091F100D5018D9328
:105370005D010150110951F752CF1A8289E08B83E8
:1053800035C08A81823009F4A7C18330E9F08130C9
:1053900009F067C08FB7F894209187033091880394
:1053A0004091890350918A0329A33AA34BA35CA39C
:1053B0008FBF69A17AA18BA19CA10E94AD2B6B83A9
:1053C0007C838D839E8312C080915B028B8380914E
:1053D0005C028C8380915D028D8380915E028E835E
:1053E00080915F028F8380916002888780919B0308
:1053F000843009F088CD1091E9001F709091EC0085
:10540000892F817090FD80E8182B82E08093E9005D
:105410008091E80080FF0DC050E040E060E270E065
:10542000CE0101960E94EB028091E8008E77809376
:10543000E8001F701093E90066CD8A81823089F4FC
:105440008B819C81AD81BE8189A39AA3ABA3BCA3B0
:10545000BC01CD010E94AD2B86E290E00E94702C31
:10546000C5CF8FEF8983C2CF4C816B818A810E9427
:105470002A0E9827892798279E838D83B7CFAD80E2
:10548000BE80BA24AB24BA248A810B819AE0099F9A
:1054900080011124ACE38A9F000D111D11248C8121
:1054A00090E0880F991F080F191F6B2DC801879670
:1054B0000E94702C6A2DC8018896D0CF0E94AE0D34
:1054C00095CF8A81823899F1B8F48038F1F081382B
:1054D00009F08CCF60E08B810E944F059B81809109
:1054E000A90391111CC0982F937011F01092140110
:1054F0008C7F8093A9037ACF833809F077CF8B8193
:1055000020E04091AC036C8106C08091AA0320E0AA
:105510004B816091AB0390E00E94F30467CF982F1A
:10552000937011F4109214018C7F8160E2CF8B8113
:105530008093AD035BCF8A818238C1F050F480380C
:1055400091F0813809F052CF8091A9038695869514
:1055500016CF833809F04ACF8091AA038B838091BC
:10556000AB038C8343CF8091AC0309CF8091AD0313
:1055700006CF0E94510F3ACF80E18A8337CF82E075
:105580008A8389EEFCCE0A811B8110270127102710
:10559000FE0131963F01AC809F012A0D311D59015A
:1055A000C801895E9E4F6A147B0409F41FCF093E2F
:1055B00032E0130758F40E94522CD30114968C93B6
:1055C0000F5F1F4FFFEF6F1A7F0AEACFF3011482BC
:1055D000F7CF0A811B811027012710279E012F5F1B
:1055E0003F4F3901AC80A00EB12EB11CC801895EBD
:1055F0009E4FA016B10609F4F9CE093E32E013071A
:1056000028F4D30114966C910E94702CBFEF6B1A92
:105610007B0A0F5F1F4FEACF0E949E0DE7CE84E00A
:10562000ACCF0A811B81102701271027FE0131967C
:105630003F01AC809F012A0D311D5901C801879699
:10564000A614B70409F4D2CE003F110558F40E9405
:10565000522CD30114968C930F5F1F4FFFEF6F1ADC
:105660007F0AECCFF3011482F7CF0A811B81102748
:10567000012710279E012F5F3F4F3901AC80A00EFC
:10568000B12EB11CC80187960A151B0509F4AECED0
:10569000003F110528F4D30114966C910E94702CE0
:1056A000BFEF6B1A7B0A0F5F1F4FECCF09BD19BD0F
:1056B00009B400FEFDCF8091D8008F7D8093D80083
:1056C0008091E00082608093E0008091E00081FDA5
:1056D000FCCF0E941518EACD86E290E00E94522C81
:1056E0001B821C821D828E8381CE2B30310508F0F7
:1056F00027CD5DCD2B30310508F0D6CC0CCDAA1BC3
:10570000BB1B51E107C0AA1FBB1FA617B70710F0AC
:10571000A61BB70B881F991F5A95A9F780959095DE
:10572000BC01CD01089597FB072E16F4009407D015
:1057300077FD09D00E947F2B07FC05D03EF49095A1
:1057400081959F4F0895709561957F4F0895EE0F55
:10575000FF1F0590F491E02D09946927962769278A
:105760007827872778270895CF92DF92EF92FF92CC
:10577000CF93DF93CDB7DEB72A970FB6F894DEBF8D
:105780000FBECDBF89879A87A985BA852D913D9196
:105790004D915C9129833A834B835C83232B242B8B
:1057A000252B41F424E239ED4BE557E029833A8378
:1057B0004B835C8369817A818B819C812DE133EFFE
:1057C00041E050E00E94942C69017A01A7EAB1E41B
:1057D0009B01AC010E94B32C69837A838B839C83E9
:1057E000ACEEB4EFA70196010E94C12C9B01AC0165
:1057F00089819A81AB81BC81820F931FA41FB51F41
:10580000B7FF03C00197A109B048E985FA858083F5
:105810009183A283B3839F772A960FB6F894DEBF55
:105820000FBECDBFDF91CF91FF90EF90DF90CF9073
:1058300008950E94B42B089580E091E00E94B42B5B
:105840000895B0E0A0E08093000190930101A0933F
:105850000201B09303010895FB01DC0104C08D91A6
:105860000190801921F441505040C8F7881B990BD2
:105870000895FB01DC0102C001900D92415050409F
:10588000D8F70895DC01CB01FC01F999FECF06C0E1
:10589000F2BDE1BDF89A319600B40D9241505040EE
:1058A000B8F70895F999FECF92BD81BDF89A99276E
:1058B00080B50895A8E1B0E042E050E00C94442C9B
:1058C000DC01A40FB51F4150504048F0CB01840FBC
:1058D000951F2E910E94712C41505040D0F7089591
:1058E000262FF999FECF92BD81BDF89A019700B499
:1058F000021639F01FBA20BD0FB6F894FA9AF99A39
:105900000FBE08950396272F0E94712C0E94702CC1
:10591000252F0E94712C242F0C94712C0196272F77
:105920000E94712C0C94702C052E97FB1EF4009491
:105930000E94AB2C57FD07D00E94C62C07FC03D059
:105940004EF40C94AB2C50954095309521953F4FDB
:105950004F4F5F4F089590958095709561957F4F5B
:105960008F4F9F4F08950E94E82CA59F900DB49FE4
:10597000900DA49F800D911D11240895B7FF0C94E4
:10598000B32C0E94B32C821B930B0895A1E21A2E14
:10599000AA1BBB1BFD010DC0AA1FBB1FEE1FFF1FD3
:1059A000A217B307E407F50720F0A21BB30BE40B23
:1059B000F50B661F771F881F991F1A9469F760956A
:1059C0007095809590959B01AC01BD01CF01089524
:1059D000A29FB001B39FC001A39F700D811D112430
:1059E000911DB29F700D811D1124911D0895F89491
:1059F000FFCF2D1039107610C2100E115E11B011AC
:105A0000B611B911BC11C1112E1231128E12DA1257
:105A1000241379137C137F13EC13ED14AF152016A8
:105A20002A163016391603192B19CD1A2B19CD1A2F
:105A30005E197F19CD1A7C1A891A821E861E8A1E4B
:105A4000981E9C1EA01EA41EAA1EB21EB61EBA1E22
:105A5000BE1ECA1ECE1ED21ED61EDC1EFA1EE41E9E
:105A6000941EC21EC61EAE1EE01EF01E031F091F9E
:105A7000451F4C1F511F561F5B1F601F651F6A1F6C
:105A80006F1F741F791F7E1F811F841FE41CE41C7D
:105A9000E41CE41CE41CC21FC21FFD1FFD1FAC2040
:105AA000C6202E202E20D120402150215021BD295A
:105AB000C1291D2A342A3F2A5E2A612A9B2AB92A33
:105AC000312A312ABC2ABF2AC32AE92A0C2B0F2BE0
:045AD000112B352B36
:105AD400010000002204230D040D000DFC0C210420
