:100000000C9441030C9479030C9479030C947903B8
:100010000C9479030C9479030C9479030C94790370
:100020000C9479030C9479030C941A270C94D6261B
:100030000C9416280C9479030C9479030C9479038E
:100040000C9479030C9479030C9479030C94790340
:100050000C9479030C94F2270C9479030C94790393
:100060000C9479030C9479030C9479030C94790320
:100070000C9479030C9479030C9479030C94790310
:100080000C9479030C9479030C9479030C94790300
:100090000C9479030C9479030C9479030C947903F0
:1000A0000C9479030C9479030C94790305010902EB
:1000B000A10185020901A1000509190129081500FE
:1000C0002501950875018102050109300931158165
:1000D000257F95027508810609381581257F9501D0
:1000E00075088106050C0A38021581257F95017572
:1000F000088106C0C005010980A101850319012AF4
:10010000B700150126B700950175108100C0050CD8
:100110000901A101850419012AA002150126A002E6
:10012000950175108100C005010906A1018506052C
:100130000719E029E71500250195087501810205D9
:1001400007190029EF1500250195F07501810205B9
:10015000081901290595057501910295017503910D
:1001600001C00660FF0961A1010962150026FF00B8
:100170009520750881020963150026FF00952075FA
:10018000089102C005010906A101050719E029E748
:1001900015002501950875018102950175088101F9
:1001A0000507190029FF150026FF0095067508812F
:1001B000000508190129059505750191029501753C
:1001C000039101C069646F62616F2F696438372FD2
:1001D00076323A69646F62616F202876302E31384A
:1001E0002E342D342D6735643933326529000001F2
:1001F00001010101010101010202020202020202E7
:1002000002030303030303030304040404040404B8
:10021000050505050506060606060707070707087C
:10022000080808090909090A0A0A0B0B0B0C0C0C2F
:100230000D0D0D0E0E0E0F0F0F10101111111212C9
:1002400013131414151516161717181819191A1A46
:100250001B1B1C1D1D1E1E1F2020212222232424A7
:10026000252626272829292A2B2C2D2D2E2F3031E3
:100270003232333435363738393A3B3C3D3E3F40F5
:100280004142434445464748494A4C4D4E4F5051E0
:100290005354555658595A5B5D5E5F61626465669A
:1002A00068696B6C6D6F7072737577787A7B7D7E21
:1002B0008082838587888A8C8E8F91939596989A71
:1002C0009C9EA0A2A3A5A7A9ABADAFB1B3B5B7BA89
:1002D000BCBEC0C2C4C6C9CBCDCFD1D4D6D8DBDD5D
:1002E000DFE2E4E7E9EBEEF0F3F5F8FAFDFF0000FA
:1002F00000000000000000000000000000000000FE
:1003000000000000000000000000000000000000ED
:1003100000007E0F00D4FFFFFFC700000078000040
:100320000000000000002A2B280000000000000050
:1003300000000000000000000029000000002C1E4A
:100340003420212224342627252E362D3738271E07
:100350001F202122232425263333362E37381F042D
:1003600005060708090A0B0C0D0E0F1011121314C5
:1003700015161718191A1B1C1D2F3130232D350483
:1003800005060708090A0B0C0D0E0F1011121314A5
:1003900015161718191A1B1C1D2F3130354C290042
:1003A00000003A003B003C003D003E003F004000A2
:1003B00035001E001F002000210022002300240021
:1003C00025002B0014001A000800150017001C005F
:1003D00018000C00390004001600070009000A008C
:1003E0000B000D000E00E10000001D001B000600C8
:1003F0001900050011001000E000E300E200E40035
:10040000015100002C00E700E60000004800470012
:1004100045004400430046004200410027004B00D5
:100420004A002A0000002E0049002D00260000008E
:100430004E004D00310030002F004C001300120020
:1004400000000000520028000000340000003300CB
:100450000F0000004F0051000000E5003800500080
:1004600037003600005C0000BE00BD00805F815F89
:10047000CA5CC95CAC000100010001000100010080
:1004800001000100010001000100C25CC35C010029
:100490000100010001000100010001000100C45C35
:1004A0000100010001000100010001000100000045
:1004B000010001000100895F0100145C01000100DE
:1004C0000100010001000100000001000100010025
:1004D000000001000100A900AA00A8000100AB0073
:1004E000AE0001000100C55C010000000100010038
:1004F000010001000000C75CC65C010001000100B2
:10050000C85C0100010000000000C95C010000009F
:1005100001000000010001000000CB5CCA5C00008B
:1005200002510100CC5C010001000100000001004B
:10053000010001000100010001000100125F135FD2
:10054000145F155F165F175F185F195F1A5F010070
:100550001D5F1E5F1F5F205F215F01000100010022
:100560000100010001000100010001000100010083
:100570000100010000000100010001000100010074
:100580000100010001000100010001000100000064
:100590000100010001000000010001000100010054
:1005A00001000100010001001C5F010001000100C9
:1005B00000000100010001001B5F000001000100BC
:1005C0000100010001000100010001000000000025
:1005D0000100010000000100000001000100000016
:1005E0000100010000000100010001000100010004
:1005F00009025B00030100A0FA09040000010301E5
:1006000001000921110100012240000705810308B2
:10061000000109040100020300000009211101008A
:1006200001222200070582032000010705030320A1
:10063000000109040200010300000009211101006A
:100640000122B60007058403200001120100020008
:10065000000008646987020002010200010E0349DC
:10066000004400380037007600320000000E0349D5
:100670000044004F00420041004F00000004030905
:10068000040011241FBECFEFDAE0DEBFCDBF04B6F9
:1006900003FE18C08091F1059091F205A091F30539
:1006A000B091F4058730904BA740B04B59F41092AD
:1006B000F1051092F2051092F3051092F405E0E0B6
:1006C000F8E3099525E0A6E1B3E001C01D92A13F42
:1006D000B207E1F713E0A0E0B1E0E4EEFFE502C00D
:1006E00005900D92A631B107D9F70E943D280C94D0
:1006F000712F0C940000E8EDF0E080818E7F808304
:100700001092E2001092DA001092E100A0EEB0E048
:100710008C9181608C9380818F77808319BCA7ED49
:10072000B0E08C918E7F8C9380818F7E808310923D
:100730008B0508952091E4003091E50095E6A9012C
:100740002091EC00822F817020FF06C08091E8008C
:1007500080FF06C080E008952091E80022FD1AC0C5
:100760008091B005882389F0853089F08091EB0075
:1007700085FD0FC02091E4003091E500421753073A
:10078000F9F29150E1F684E0089582E0089583E063
:10079000089581E00895EF92FF920F931F93CF93F6
:1007A0007C018B010E949A03C82F811117C0809190
:1007B000E80085FD0BC08091E8008E778093E8000B
:1007C0000E949A03882399F3C82F08C0F7018191EA
:1007D0007F018093F1000150110949F78C2FCF91CF
:1007E0001F910F91FF90EF9008958091B20587FFC0
:1007F00013C08091E80082FF06C08091E8008B77EB
:100800008093E80004C08091B0058111F2CF089573
:100810008091B0058823D9F38091E80080FFF8CF5C
:100820008091E8008E77ECCF982F9093E900242FE9
:10083000762F50E0891731F07091EC002091ED0097
:100840005091F00021FD07C09F5F973071F78093B2
:10085000E90081E008953091EB003E7F3093EB009A
:100860003091ED003D7F3093ED003091EB00316031
:100870003093EB007093EC002093ED005093F00068
:100880002091EE0027FDE0CF80E00895B0E0A0E0E9
:10089000ECE4F4E00C94FB2DC8EDD0E088818F7E71
:1008A0008883E7EDF0E080818160808384E082BF0F
:1008B00081E080938B0588818E7F888302EE10E033
:1008C000F80110821092DA0081EEC82ED12CF601C8
:1008D000108288818F778883888180688883888167
:1008E0008F7D888319BC1092B0051092B1051092CB
:1008F000AF051092AE0590EEE92EF12CF701808144
:100900008B7F808388818160888342E060E080E023
:100910000E941404F60180818E7F8083F80180811B
:1009200081608083808188608083F70180818E7FF1
:100930008083888180618883CDB7DEB7E8E00C943E
:10094000172EFC01CB012091B8053091B90526176F
:10095000370790F0009729F42091E8002E77209334
:10096000E80040E0009751F4411108C08091E80090
:1009700082FF31C080E00895C901F3CF2091B00516
:100980002223A9F12530A9F12091E80023FD2DC0F3
:100990002091E80022FDEACF2091E80020FFE2CF7D
:1009A0003091F3002091F200009719F028303105C2
:1009B00058F041E02830310509F040E02091E8008E
:1009C0002E772093E800CECF41914093F10001971C
:1009D0002F5F3F4FE9CF8091B005882341F08530EC
:1009E00041F08091E80083FFC1CF81E0089582E06B
:1009F000089583E00895089580918D0508959C01E0
:100A00004FB7F8948091820590918305A091840559
:100A1000B09185054FBF821B930B0895A4E0B0E011
:100A2000E4E1F5E00C94012E8FB7F8942091820553
:100A300030918305409184055091850529833A833F
:100A40004B835C838FBF69817A818B819C812496E3
:100A5000E2E00C941D2E2FB7F894809182059091BE
:100A60008305A0918405B09185052FBF08959C0151
:100A7000809115018823C9F08091860587FF15C0F4
:100A8000E62FE695E695E695603FE0F4E20FF32F5A
:100A9000F11D677081E090E001C0880F6A95EAF768
:100AA00080959281892382830895F9013296285F87
:100AB0003F4F8191681303C0DF0111971C92E21729
:100AC000F307B9F708959C01809115018823C1F0BF
:100AD0008091860587FF14C0E62FE695E695E6959A
:100AE000603FF8F4E20FF32FF11D677021E030E072
:100AF00001C0220F6A95EAF78281822B82830895D2
:100B0000F90132968FEF90E04191641751F08F3FD9
:100B100019F4411101C0892F9F5F9630A9F78F3FCB
:100B200009F40895280F311D87FD3A95F901628374
:100B3000089520917F05309180052817390771F0BD
:100B40009093800580937F05E0917D05F0917E056F
:100B5000309721F00084F185E02D099508952091CA
:100B60007B0530917C052817390771F090937C053F
:100B700080937B05E0917D05F0917E05309721F013
:100B80000680F781E02D09950895E0917D05F091AB
:100B90007E05309729F00190F081E02D09950895A8
:100BA00080E00895FA01882311F009950895FB016A
:100BB000FCCFE6E4F4E0818360834283339695E0E2
:100BC000EB37F907C1F70895FC01EE0FFF1FE80F9F
:100BD000F91FEA5BFB4F6183408322830895EEEBAC
:100BE000F5E0248130E1231B08F420E02483809188
:100BF00045048160809345040895EEEBF5E024817F
:100C000030E1230F08F42FEF2483809145048160A5
:100C1000809345040895922F2091BE05237071F0B2
:100C20008093BF056093C005453B08F044EB4093BB
:100C3000C10520914504292B209345040895EEEB2E
:100C4000F5E0438120E1421B08F440E0818121E08E
:100C5000628190E00E940B060895EEEBF5E043817F
:100C600020E1420F08F44FEF818121E0628190E0A2
:100C70000E940B060895EEEBF5E0628120E1621B15
:100C800008F460E0818121E0438190E00E940B063E
:100C90000895EEEBF5E0628120E1620F08F46FEF5A
:100CA000818121E0438190E00E940B060895EEEBE4
:100CB000F5E0818121E0438162818850990B0E9497
:100CC0000B060895EEEBF5E0818190E021E0438191
:100CD000628108960E940B060895262F9091BE050A
:100CE000937061F081110BC094609093BE051092D7
:100CF000120160914504622B609345040895883287
:100D000010F09C69F2CF880F880F982BEECF90914E
:100D1000BE05969596958FEF890F913009F487E27D
:100D200061E00E946D0608958091BE0586958695C6
:100D30008F5F883208F081E061E00E946D060895BF
:100D40008091BE05837011F4109212018091BE054E
:100D50008C7F81608093BE050895EF92FF920F9380
:100D6000282FC701801B91098F3F910519F010F0C2
:100D70008FEF90E08095382F230F08F42FEF822F0C
:100D80000F91FF90EF900895EF92FF920F93282F0D
:100D9000C701801B91098F3F910519F010F08FEF6B
:100DA00090E0382F3095230F08F42FEF680F822F33
:100DB0000F91FF90EF900895EF92FF920F93972F6E
:100DC000FA01B9019701093430F4201B31092F3F92
:100DD000310519F010F02FEF30E03896719740F0A0
:100DE000AB01485F5F4F4131510510F02FEF30E00C
:100DF0002095382F320F08F43FEF77FF02C06D5F68
:100E00007F4F75956795759567958091BF05680FBC
:100E1000792F832F0F91FF90EF900895EF92FF921B
:100E20000F931F93E00EF11C890137FF03C011954A
:100E30000195110924E0000F111F2A95E1F70F3FDA
:100E4000110519F014F00FEF10E09A0157FF03C0DD
:100E500031952195310994E0220F331F9A95E1F7DE
:100E6000201731070CF489010E0D1F1D0F3F1105CE
:100E700019F010F00FEF10E00095282F200F08F464
:100E80002FEF822F1F910F91FF90EF900895EF9217
:100E9000FF920F93282FC70135E0039F800D911D0E
:100EA00011248F3F910519F010F08FEF90E080959D
:100EB000382F230F08F42FEF822F0F91FF90EF9020
:100EC000089522E8241B08F420E0620F089540955D
:100ED000282F429F412D1124842F0895E42FF0E004
:100EE000EE0FFF1FE052FE4F9081921B97FD9195F0
:100EF000292F38E1239F212D1124620F08950F938C
:100F00001F93522F10E0F801EE0FFF1FE052FE4F2B
:100F10009081905797FD9195000F111FF801EF51A7
:100F2000FE4F00810052110B50039001519F300D74
:100F3000112408E310E0091B110997FD13954003E4
:100F4000F001419FF00D1124E20FF31F9F01220FCA
:100F5000331F2E0F3F1F37FF02C021583F4F220F74
:100F6000232F221F330B620F1F910F9108950F93B0
:100F70001F93522F10E0F801EE0FFF1FEF51FE4FAD
:100F8000A081A052BB0B9D015203F001539FF00DB5
:100F90001124000F111FD801A052BE4F0C91005711
:100FA000110B40039001419F300D11242E0F3F1F64
:100FB00037FF02C0215C3F4F96E0359527959A9503
:100FC000E1F7620F1F910F9108950F931F93522F16
:100FD00010E0F801EE0FFF1FEF51FE4FA081A0526D
:100FE000BB0B9D015203F001539FF00D1124000F24
:100FF000111FD801A052BE4F0C910057110B400396
:101000009001419F300D11242E0F3F1F37FF02C06A
:1010100021583F4F220F232F221F330B620F1F91A6
:101020000F910895EF920F93972F23E0029FB00145
:101030001124759567956E0D792F0F91EF90089596
:10104000322F50E0FA01EE0FFF1FEF51FE4F90815B
:10105000905297FD9195440F551FFA01E052FE4FB3
:101060002081231B330B290F311D97FD3A95620F09
:101070000895E42FF0E0EE0FFF1FEF51FE4F608167
:10108000621B0895E42FF0E0EE0FFF1FE052FE4FC9
:101090006081621B0895622F0895582FA22FE42FBC
:1010A000F0E0EE0FFF1FE052FE4F208134EE239F51
:1010B000212D112490E030E0245E3F4F2A1B31099E
:1010C00037FF03C031952195310943E0220F331FCB
:1010D0004A95E1F7821B930B97FD80E0282F259F0F
:1010E000212D1124822F08951F93172F922FE42F63
:1010F000F0E0EE0FFF1FE052FE4F208134EE239F01
:10110000212D1124472F50E030E0245E3F4F291B52
:10111000310937FF03C031952195310993E0220F42
:10112000331F9A95E1F7421B530B57FD40E0742F94
:10113000719F712D11241F9108950E94D905089562
:101140000E94E4050895FC019B01009729F480E0CA
:1011500077FF2BC080E80895AC0197FF04C04427B7
:101160005527481B590BB901640F751F37FD10C077
:10117000241B350BC901A5E0880F991FAA95E1F73B
:101180000E94D02D80E2861BF7FF0FC08195089545
:10119000CB0165E0880F991F6A95E1F7BA01621BE0
:1011A000730B0E94D02D80E6EECF0895EF920F933F
:1011B000CF93DF93D72FC82FBA01C9010E190E9410
:1011C000A308602F681B7D2F8C2FDF91CF910F918B
:1011D000EF9008950F93CF93DF93D72FC82FBA01C5
:1011E000C9010E94A308682F600F7D2F8C2FDF910B
:1011F000CF910F910895EF920F931F93CF93DF93A9
:10120000D62FC72F182FBA01C9010E19010F0E943E
:10121000A308081B019F012D11246D2F7C2F802F07
:10122000DF91CF911F910F91EF900895EF920F935F
:101230001F93CF93DF93D62F172FC82FBA01C90161
:101240000E19010F0E94A308702F781B719F712D3A
:1012500011246D2F8C2FDF91CF911F910F91EF9063
:1012600008950F931F93CF93DF93D62FC72F182F77
:10127000BA01C901212F201B022F0E94A308982F19
:10128000990F990F282F291B200F219F212D112401
:101290006D2F7C2F822FDF91CF911F910F91089599
:1012A0000F931F93CF93DF93D62F172FC82FBA0119
:1012B000C901212F201B022F0E94A308982F990FEC
:1012C000990F782F791B700F719F712D11246D2F3D
:1012D0008C2FDF91CF911F910F910895982FE82FB8
:1012E00096FDE0952E2F2F7096FD2F5FE695E695E3
:1012F000E695E670F0E0EA59FE4F8181829F802DED
:10130000212D112482958F702295207F822B2081A0
:10131000820F97FD8195805808950F931F93CF9367
:10132000DF938B01D82FC42F822F0E946E09EC2FE0
:10133000F0E0EE0FFF1FE052FE4F90819058980FA3
:1013400097FD9195990F692F2CE0629F612D1124D3
:10135000600F712F8D2FDF91CF911F910F91089505
:101360009C018230910508F408959FEF213E8EE1A3
:10137000380740F4C90145E0969587954A95E1F70D
:1013800098E0980F61E0E62FE90FFF27FF1FAF01FC
:1013900055954795842F449FF001459FF00DF00D22
:1013A00011242E173F0738F49FEF940F961758F724
:1013B0008FEF860F08954F3FE9F361E0640FF6CF9A
:1013C0000F93CF93DF93D72FC82FF90147FD419596
:1013D00028E330E0241B310947FD3395229FA0010B
:1013E000239F500D500D1124EE9FC001EF9F900DD3
:1013F000900D1124840F951F0E94B009982F990F0A
:10140000692F680F600F7D2F8C2FDF91CF910F9187
:1014100008959C0190E080E0269F812D369F800DED
:10142000911D11240895B0E0A0E0E9E1FAE00C94E8
:10143000F92D262F472FE82FF0E0E251FE4F7111D2
:1014400009C06491862FE62F7E2FCDB7DEB7EAE084
:101450000C94152EE72EF12CE49186E0689F800114
:101460001124CFEFD0E0C801BE010E94BC2DDB01EA
:1014700030E0220F331F55E5569FC001579F900D56
:101480001124281B390B622F660F260FCE018E19EF
:101490009F09E89F6001E99FD00C11246D2D429FA8
:1014A000A0011124452F5527CE01841B950BE89FE1
:1014B000A001E99F500D1124852F5E01A21AB108E9
:1014C000AE9C9001AF9C300DBE9C300D1124232F9B
:1014D0003327C21BD30BEC9F9001ED9F300D1124DD
:1014E000A330B105B1F00C3F93E0190760F4A130CF
:1014F000B10599F01297A9F00F3F110508F0A4CF9C
:101500008D2D632FA1CFA430B10571F01697C1F3D3
:101510009BCF652F8E2FED2D97CF6E2FE52F8D2D25
:1015200093CF832F6E2FF7CF8E2FE32F8DCF0F9377
:101530001F93CF93DF93EC01FC01E255FD4F8081B7
:101540006823D1F10091C0051091C1054091BF05FC
:10155000E42FF0E0609113017091140185E098E0B0
:10156000689F9001699F300D789F300D1124275E90
:10157000394C3093140120931301CF018C549F4FA9
:1015800068E671E00E94D02D8E1B9F0B97FD03969D
:101590009595879595958795230F2370642F289FA0
:1015A000600D1124702F812F0E94130A462F672F80
:1015B000282FCE010E94A008DF91CF911F910F919B
:1015C0000895A9E0B0E0E7EEFAE00C94F12D282EA2
:1015D0006A837B832091160185E1289F802D112449
:1015E0008E838B5E89838C83883610F037E63C834C
:1015F0008091C4058D83FE81EF2FF0E0F987E887A5
:10160000CF01880F991F9C0120523E4F6901822D06
:1016100090E0FC013196FF83EE838C8198859817CA
:1016200048F081E0E981E73608F080E02996E2E1C0
:101630000C940D2EE885F985E255FD4F808190913F
:1016400017018923F1F04090BF055090C0052E810D
:101650003F812C533A4F3901322C10E0FD813F1667
:10166000D0F02091C105129F112D1124B201812FBC
:101670000E94130A462F672F282F888599850E947C
:10168000A008288539852F5F3F4F3987288732E0AA
:10169000C30ED11CC2CFF30181913F01F601A0809E
:1016A000A81ABB088180F3018781881A9908AA9C2F
:1016B0009001AB9C300D300D1124889CC001899C99
:1016C000900D900D1124820F931F0E94B009082FD6
:1016D0006091C20521E0620F08F46FEFF301EE0F95
:1016E000FF1FE45CF540858996890E94090A7C0108
:1016F0009401A501B201812FEA81FB8109952B019B
:10170000182F3394ABCFB0E0A0E0E9E8FBE00C94F5
:10171000FB2D8C01C091160185E1C89FC02D1124BD
:1017200025E1D22EDC0ECD2C27E62D1510F497E600
:10173000C92E2091C20531E0230F08F42FEF30E0CD
:1017400050E040E06FEF7FEF80E090E00E940E2FCE
:101750007901D0E02C2FCC1550F081E0F6E6FD1594
:1017600008F480E0CDB7DEB7E8E00C94172EFE0158
:10177000E255FD4F808190911701892311F140912D
:10178000C4054150042E000C550B47FF1CC0C70177
:101790006091C20521E0620F08F46FEF0E94090A10
:1017A000AC016091BF057091C0058091C105F80141
:1017B00009950E94130A462F672F282FCE010E94F9
:1017C000A0082196C7CFFA01EC53FA4F8189821302
:1017D0000AC0FA01EE0FFF1FEC53FA4F818D928D74
:1017E0008E159F05A8F241505109CFCFB0E0A0E07F
:1017F000ECEFFBE00C94FC2D7C01C091160185E11F
:10180000C89FC02D112415E11C0FD12E183610F0E1
:1018100087E6D82E6091C2056695669521E0620F35
:1018200008F46FEF8091BA059091BB050E94090AF8
:10183000082FD0E0CD1548F081E0173608F080E0A1
:10184000CDB7DEB7E7E00C94182EFE01E255FD4F50
:10185000808190911701892391F06091BF0570916B
:10186000C0058091C105202F4C2FF70109950E94DA
:10187000130A462F672F282FCE010E94A008219619
:10188000D9CFA5E0B0E0E7E4FCE00C94FA2D6C01C0
:1018900080911601898385E19981989F802D11247B
:1018A0008B8395E1F92EF80EBF2CE7E6EF1510F4C7
:1018B00087E6B82E6091C205669566958091BA0557
:1018C0009091BB050E94090A182F80E4810F0E94A5
:1018D0006E0980588983812F0E946E0980588A83FF
:1018E0009B81892F90E09D838C839C819B1548F080
:1018F00081E0E6E6EF1508F480E02596E9E00C9437
:10190000162EEC81FD81E255FD4F808190911701EB
:101910008923A9F06091BF057091C0058091C10530
:10192000E12E0C812A814981F60109950E94130A52
:10193000462F672F282F8C819D810E94A0088C81C3
:101940009D810196D0CFB0E0A0E0E9EAFCE00C94E4
:10195000F62D4C01C091160185E1C89FC02D1124C0
:1019600015E11C0F712E183610F097E6792E609154
:10197000C20566958091BA059091BB050E94090A3F
:10198000F82ED0E0C71548F081E0173608F080E067
:10199000CDB7DEB7EDE00C94122EFE01E255FD4FFF
:1019A0008081909117018923B9F19E01220F331F85
:1019B000F901E052FE4F8081482F4057550B6A01D4
:1019C0002F513E4FF9018081282F2052330B5901AE
:1019D000449F9001459F300D300D1124AA9CC001F9
:1019E000AB9C900D900D1124820F931F0E94B009A3
:1019F000082F6091BF057091C0058091C105EF2C43
:101A00009501A601F40109950E94130A462F672F3C
:101A1000282FCE010E94A0082196B4CFB0E0A0E00C
:101A2000E4E1FDE00C94FB2D7C01C091160185E101
:101A3000C89FC02D112415E11C0FC12E183610F0BF
:101A400097E6C92E6091C20566958091BA0590917E
:101A5000BB050E94090AD82ED0E0CC1548F081E0E1
:101A6000173608F080E0CDB7DEB7E8E00C94172E0B
:101A7000FE01E255FD4F808190911701892301F10C
:101A8000AE01440F551FFA01EF51FE4F2081205245
:101A9000330B40525E4FFA0140814057550B609125
:101AA000BF057091C0058091C1050D2DF701099505
:101AB0000E94130A462F672F282FCE010E94A008EC
:101AC0002196CBCF0E942B0520910F04309110045A
:101AD000232B21F080930B0490930C04209111048C
:101AE00030911204232B21F08093090490930A046F
:101AF000E0917D05F0917E05309749F082E080937A
:101B00000D040480F581E02D8DE094E009950895A1
:101B100040910F04803F59F48091100487FF0DC05D
:101B20001092100441110BC01092070408C0813FAD
:101B300081F48091100418169CF3442381F0809165
:101B4000110490911204892B09F05AC010920604D6
:101B50000895823F49F447FFF0CF10920F0480911F
:101B600010048111ECCFE0CF833F19F41416ACF3CD
:101B7000E4CF90911104893F29F41916F4F61092DC
:101B80001104DBCF8A3F19F497FFD7CFF8CF90919C
:101B900012048B3F29F497FFD0CF10921204CDCFBF
:101BA0008C3F19F41916CCF3C8CF9CE0980F9530F0
:101BB00090F4845F990B21E030E0B90102C0660F18
:101BC000771F8A95E2F7CB01809590910E048923C7
:101BD00080930E04B2CF8D3F31F4809108048E7F44
:101BE00080930804AACF8E3F21F4809108048D7F52
:101BF000F7CF8F3F09F0A1CF809108048B7FF0CF02
:101C000008958091080480FD16C081FD16C082FDF4
:101C100016C0809106048823A1F0883280F428E061
:101C2000829FC001112468E270E00E94D02D862FAF
:101C3000672B39F0089582E0089584E0089588E0E4
:101C4000089581E008958091080480FD14C081FD0D
:101C500014C082FD16C080910704882381F08E3164
:101C600080F420E5829FC00111246EE170E00E94A3
:101C7000D02D862F089584E1089588E2089588E0A4
:101C8000089580E50895803F31F40E94230E8195E8
:101C9000809310040895813F19F40E94230EF8CF19
:101CA000823F31F40E94230E819580930F040895A2
:101CB000833F19F40E94230EF8CF893F29F40E9434
:101CC000010E8093110408958A3F21F40E94010EB1
:101CD0008195F7CF8B3F31F40E94010E819580935F
:101CE000120408958C3F19F40E94010EF8CF9CE075
:101CF000980F953070F4845F990B21E030E001C0BB
:101D0000220F8A95EAF780910E04822B80930E04AD
:101D100008958D3F31F48091080481608093080418
:101D200008958E3F21F4809108048260F7CF8F3FA1
:101D3000B9F7809108048460F1CF80E00895F894A9
:101D4000E82FE295EF70F0E041A18F7021E030E0E4
:101D5000B90102C0660F771F8A95E2F7CB01962F73
:101D60009095942391A392A1892B82A378940895AE
:101D70009091860592FF06C0282F28712830F9F42B
:101D8000877F846093FF06C0282F28712831F1F4E3
:101D9000877E84612091870520FF06C0382F387127
:101DA0003830D9F4877F816021FF06C0282F287141
:101DB0002831D1F4877E816194FD877E0895282F94
:101DC00024712430F9F68B7F8860DCCF282F2471B2
:101DD000243101F78B7E8861DDCF382F31713130AE
:101DE00019F78E7F8860E0CF282F2171213121F7EC
:101DF0008E7E8861E1CFCF93DF93EC01803E910529
:101E000009F467C058F58133910509F4AFC090F427
:101E10008932910509F49FC08A9709F4AEC0C13098
:101E2000D10509F469C0CE010497813A910508F003
:101E30005CC062C08933910509F43FC082389105C6
:101E4000E1F1C59709F482C0C83AD10508F09CC0F9
:101E5000C53AD10520F3A497D0644EC0843E9105C5
:101E600009F459C070F4823E910509F441C0833EE3
:101E7000910509F445C0CE01805E91090897A8F547
:101E80003BC0863E910509F451C0873E910509F497
:101E900052C0811522E5920708F0A8C0811531E5EE
:101EA000930708F0F9C08F3F910511F008F07BC04F
:101EB000803F910548F2D0651FC0809186058370F0
:101EC00009F01AC18091870583FF16C0C9E2D0E0EE
:101ED00013C08091860580FD46C09091870590FFD4
:101EE0000BC0C3EED0E084FF07C0D0E0C0E004C068
:101EF0008091860582FDF5CFCE01DF91CF910895C7
:101F00008091860582FDF5C09091870590FDF4C013
:101F100084FFF2CFEACF8091870581FFEDCF8091DA
:101F20008605C7EED0E084FDE0CFE6CF8091860540
:101F300083FDF7CFE1CF8091860583FDE0C09091CE
:101F4000870591FFE5CFC4EED0E0D6CF809186051E
:101F500085FFD2CFBBCF8091860585FDD3C0809110
:101F6000870583FFC9CFC9E3D0E0C6CF809186053E
:101F700086FFC2CFCAE2D0E0BFCF8091860586FF40
:101F8000BBCFC1E3D0E0B8CFCF3BD10508F073CFD2
:101F9000C85AD0E0CC0FDD1FC05EDE4F0990D8815B
:101FA000C02DD464A9CF811540E5940760F4C11514
:101FB00080E4D80708F06DC0CE019A9581159F4145
:101FC00008F49ACF92CF8370992721E030E002C0C5
:101FD000220F331F8A95E2F7C695C69540E2C49F4B
:101FE000E0011124C22BD32BDD6886CFC11586E515
:101FF000D80738F5C11525E5D20708F061C0C1152D
:1020000034E5D307C8F49E01237033279C2F96959F
:102010009695C115D34508F044C0C1E0D0E002C098
:10202000CC0FDD1F2A95E2F720E2929FC001112418
:10203000C82BD92BDC6860CFDC2FCC27C46FD06ACB
:102040005BCFC1153AE5D30788F4C11549E5D4073C
:1020500008F041C0CE0198558F3F910511F008F06E
:1020600044CFDC2FCC27C06FD06A46CFCE0190562C
:102070008115904208F039CF8D2F8F710E94B80ED4
:1020800090E0982F882788279F719C012C2BE901CD
:1020900020C0DF70D06A30CFD82FCC27C16FD06A74
:1020A0002BCFC1E0D0E002C0CC0FDD1F2A95E2F7B4
:1020B00030E2939FC0011124C82BD92BDA681CCFC2
:1020C0008C2F0E94B80EC82FD0E0DC2FCC27CC2755
:1020D000DF71D06211CF8C2F8F700E94B80E34E068
:1020E000D695C7953A95E1F7CF70DC2FC82FD06908
:1020F00003CFC2EED0E000CFC0EED0E0FDCEC6EE02
:10210000D0E0FACEC5E3D0E0F7CE8091BB038111D9
:102110001092BB030895982F90958091BA0389235C
:102120008093BA0308958091970390916603981362
:1021300001C008958F5F8770FACF292F9B3078F503
:10214000893068F590E039E0239F800D911D1124BE
:10215000682F677023E0969587952A95E1F7FC0133
:10216000EE0FFF1FE80FF91FE75CFC4F50E040E067
:1021700080E0219130E0062E02C0369527950A9422
:10218000E2F721703327042E01C0220F0A94EAF7E8
:10219000822B4F5F5F4F4330510559F7089580E020
:1021A0000895292F9B3090F5893080F590E039E033
:1021B000239F800D911D1124282F277041E001C01D
:1021C000440F2A95EAF723E0969587952A95E1F73B
:1021D000FC01EE0FFF1FE80FF91FE75CFC4F90E0DA
:1021E00080E070E05191DF0111979B01082E02C041
:1021F000369527950A94E2F7217021952527242307
:1022000025272C9301968330910561F708958093DB
:10221000880570938A05609389058091B0058430A4
:10222000F9F48093E9008FEF9091E800815095FDDB
:1022300006C095ED9A95F1F700008111F5CF8091D8
:10224000E80085FF0DC050E040E063E070E088E802
:1022500095E00E94CB038091E8008E778093E800A0
:102260000895BC0184E00E9407110895BC0183E039
:102270000E940711089524E02093E9002FEF309188
:10228000E800215035FD06C035ED3A95F1F7000024
:102290002111F5CF2091E80025FF0BC050E040E070
:1022A00066E070E00E94CB038091E8008E77809317
:1022B000E8000895CF93DF93D82FC92F809115019F
:1022C0008823C1F18091860587FF34C060E284E0F5
:1022D0008093E9008FEF9091E800815095FD06C052
:1022E00095ED9A95F1F700008111F5CF8091E80006
:1022F00085FF1DC08091150170E050E040E0811124
:1023000004C050E040E068E070E08D2F9C2F0E94F8
:10231000CB038091E8008E778093E80080E2ED2F78
:10232000FC2FAEE8B5E001900D928A95E1F7DF91C0
:10233000CF91089568E081E0CBCF81E08093E00009
:1023400080E28093D8001092C9008FE19EE401974B
:10235000F1F700C0000087E090EBDC018093F1050D
:102360009093F205A093F305B093F40588E19CE007
:102370000FB6F894A895809360000FBE909360000C
:10238000FFCF6A9A3EB13B7F2EB124604FB7F894DD
:1023900086E494E0FC010196508168E02EB90000CB
:1023A00000C057FF3EB9550F000000C000C000C07C
:1023B0003EB900C06A9591F755E08B37950751F704
:1023C0004FBF8FE594E00197F1F700C0000008953A
:1023D000CF93DF93C9E7D2E060E0CE010E94EA2EFE
:1023E0002196C11584E0D807B9F7DF91CF91089500
:1023F0001F93CF93DF93962F122F632F8330D8F440
:102400009B30C8F44930B8F4C42FD0E0CC0FDD1FA6
:1024100022E1929FC00DD11D112496EC899FC00D21
:10242000D11D1124CE0187960E94EA2E612FCE0184
:1024300088960E94EA2EDF91CF911F910895AF9266
:10244000BF92CF92DF92FF920F931F93CF93DF93B0
:10245000B12CA12C00E0650110E013C0FE01259114
:1024600034914F2D612F802F0E94F8112296F39402
:1024700089E0F812F3CF89E0C80ED11C1F5F1B3032
:1024800039F0E601CC0FDD1FC256DC4FF12CE6CF50
:102490000F5F83E6A80EB11C0330E9F6DF91CF9100
:1024A0001F910F91FF90DF90CF90BF90AF90089554
:1024B000CF93C82F6FEF811162E283E290E00E9418
:1024C000EA2E6FEFC11169E084E290E00E94EA2EEB
:1024D0006FEFC11163E085E290E00E94EA2ECF9198
:1024E000089580E00E94581260E086E290E00E9429
:1024F000EA2E0E941F120E94E81181E00E945812E9
:1025000008950F931F93CF93DF93833030F56B3093
:1025100020F5493010F5C42FD0E0CC0FDD1F22E1AB
:10252000629FC00DD11D112436EC839FC00DD11DBB
:102530001124CE0187960E94C62E082F10E0102F7E
:102540000027CE0188960E94C62E9801282BC9012B
:10255000DF91CF911F910F91089590E080E0F8CF27
:10256000462F672F833038F47B3028F4493018F435
:102570000E948112089580E090E00895B0E0A0E00C
:10258000E4ECF2E10C94FC2D7C010091F0058091CB
:10259000BC03082BC7E0D0E010E0DC2EC8010C2EF5
:1025A00002C0959587950A94E2F780FD09C02197AE
:1025B000A0F7D12C8D2DCDB7DEB7E7E00C94182E07
:1025C000B7018C2F0E94B0120E94FB0E019779F385
:1025D000F1CFCF93DF93D82FC92F0E94BE126D2F5A
:1025E0007C2F0E94B0120E94FB0EDF91CF910895C4
:1025F000FC0183819481892B29F080819181892339
:102600008F3F69F480E00895243FE1F71CC081E02A
:10261000283E20F0213FB1F716C00895089580812B
:1026200091810E94E912282F92959F70963079F33C
:1026300058F4925F9F70923028F781E0203F69F351
:1026400018F7283EF8F608959A5FF4CF83E290E0F9
:102650000E94C62E823289F484E290E00E94C62E47
:10266000893059F485E290E00E94C62E91E08330D3
:1026700009F090E0892F8170089580E0FCCFCF931E
:1026800084E090E00E94C62EC82F82E290E00E9473
:10269000C62E982F8C2FCF9108951F93CF93DF9341
:1026A000EC01FC01E255FD4F80816823B1F00E94EE
:1026B000902E182F0E94902E782F7F7720E8720F8F
:1026C00008F47FEF612F8091C1050E94130A462F05
:1026D000672F282FCE010E94A008DF91CF911F9174
:1026E0000895B0E0A0E0E7E7F3E10C94F82D182F8F
:1026F00080911101811323C09091BE0593702091A8
:10270000100130E081E09217130609F480E0817037
:10271000809318018091C30590911701981739F0A3
:102720008093170140E060E080E00E949D0818322D
:1027300060F4E12FF0E0ED58F04D0C94E42D81E0D1
:10274000E6CF80911801811102C0C0E0E7C140E0EE
:1027500060E080E00E949D08F8CFC091160185E1FD
:10276000C89FC02D112405E10C0FC02E083610F0B3
:10277000A7E6CA2E6091BF057091C0058091C10582
:102780000E94130AF62EE72ED82ED0E0CC1528F0A2
:10279000C1E0073608F4C2C1D8CFFE01E255FD4FB3
:1027A000808190911701892331F02D2D4F2D6E2DB1
:1027B000CE010E94A0082196E9CFC091160185E1C3
:1027C000C89FC02D112405E10C0F902E083610F083
:1027D000F7E69F2EB090C005C090C105D091BF050F
:1027E0006D2F7B2D8C2D0E94130AF62EE72ED82EEE
:1027F0006091C2056D0F7B2D8C2D0E94130AC62E91
:10280000B72EA82ED0E0C91518F6FE01E255FD4FEF
:10281000908180911701892359F02A2D4C2D6B2D21
:1028200090FD03C02D2D4F2D6E2DCE010E94A008CE
:102830002196E9CFC091160185E1C89FC02D1124D2
:1028400005E10C0FE02E083610F0E7E6EE2ED090F2
:10285000C005C090C1052091C20570E4F72E3F2D40
:10286000329F312D1124F32ED0E0CE1508F090CFF9
:10287000FE01E255FD4F8081909117018923B9F047
:10288000FE01EE0FFF1FEF51FE4F808182958F708A
:102890006091BF058F9D600D11247D2D8C2D0E94B0
:1028A000130A462F672F282FCE010E94A0082196D9
:1028B000DCCFC091160185E1C89FC02D112405E130
:1028C0000C0FE02E083610F057E6E52ED090C0052C
:1028D000C090C1052091C20540E4F42E3F2D329FE7
:1028E000312D1124F32ED0E0CE1508F051CFFE018A
:1028F000E255FD4F8081909117018923D9F0FE01A7
:10290000EE0FFF1FE052FE4F6081F69EB0011124D2
:1029100035E0759567953A95E1F78091BF05680FA9
:102920007D2D8C2D0E94130A462F672F282FCE0154
:102930000E94A0082196D8CFC091160185E1C89FBA
:10294000C02D112405E10C0FC02E083610F097E6BB
:10295000C92EF090BF05D091C005E090C1056091EF
:10296000C2056695669566958091BA059091BB05FE
:102970000E94090A0E946E0990E8980F97FD9195B0
:10298000990F292F3E2D239F212D11246F2D7D2F4F
:10299000822F0E94130AF62EE72ED82ED0E0CC15F7
:1029A00008F0F6CEFE01E255FD4F808190911701AF
:1029B000892331F02D2D4F2D6E2DCE010E94A008C0
:1029C0002196EDCF84E798E00E94F60B07C08DE4D6
:1029D00098E0FACF80E599E00E940E0DC82F9EC0C6
:1029E00081E399E0F9CF86E199E00E94A30CF6CF4C
:1029F0008BEF98E0FACF8BE498E0E6CF82E498E0A2
:102A0000E3CF89E398E0E0CF80E298E0DDCF82E198
:102A100098E0EBCF80EE99E0DFCF8AEE98E0DCCF54
:102A200086ED98E0E2CF85EE97E00E94410CD6CF8C
:102A300087EB97E0FACF8FE797E0F7CFC0911601C9
:102A400085E1C89FC02D112405E10C0F809118016C
:102A5000811131C06091C20520E1620F08F46FEF6F
:102A60008091BA059091BB050E94090A6AE070E066
:102A70000E94BC2D892B09F08BCE409113015091FF
:102A8000140125E038E0429FC001439F900D529F02
:102A9000900D1124875E994C90931401809313013B
:102AA000890F67E60E94B02D60911701892F90E091
:102AB0000E94970A6DCE802F083608F087E6D0E096
:102AC000E82EF12CCE15DF050CF062CE60911701D7
:102AD000CE010E94970A2196F5CFC0911801C1112D
:102AE00035C06091C20520E1620F08F46FEF80915C
:102AF000BA059091BB050E94090A65E070E00E944A
:102B0000BC2D892B09F021CE0E94902E67E670E043
:102B10000E94D02D609117010E944D1380911601E3
:102B20008F5F80931601C1110CC082E08093120167
:102B300080911801811105C0111103C083E08093B9
:102B40001201CDB7DEB7EBE00C94142EC091160144
:102B500085E1C89FC02D112405E10C0F802F083698
:102B600008F087E6D0E0E82EF12CCE15DF050CF05A
:102B70000FCE60911701CE010E944D132196F5CF23
:102B8000C091160185E1C89FC02D1124D5E1DC0F4D
:102B9000DD2ED83610F087E6D82EE090C005F090F4
:102BA000C1050091BF056091C20566956695669561
:102BB0008091BA059091BB050E94090A0E946E0996
:102BC00090E8980F97FD9195990F692F2CE0629FDF
:102BD000612D1124600F7E2D8F2D0E94130AF62E79
:102BE000E72E082FAC2EB12CAD1428F0C1E0D7365B
:102BF00008F494CFAACDF501E255FD4F8081909164
:102C00001701892331F0202F4F2D6E2DC5010E9411
:102C1000A0083FEFA31AB30AE7CF8DE899E0D4CE1E
:102C20008EE697E0D1CE87E697E00E94830BD6CE62
:102C300081E697E0FACF2091C40531E0231B08F428
:102C400020E067E477E0822F0E94E10AC7CE67E4C4
:102C500077E080E0F9CF2091C40531E0231B08F430
:102C600020E06EE077E0EFCF6EE077E0F2CF2091EA
:102C7000C40531E0231B08F420E06CED76E0E3CFDF
:102C80006CED76E0E6CF2091C40531E0231B08F41B
:102C900020E064EC76E0D7CF64EC76E0DACF2091E8
:102CA000C40531E0231B08F420E06DEA76E0CBCFC9
:102CB0006DEA76E0CECF46E050E06CE170E08EEB5E
:102CC00095E00E94DA2E1092450408954F925F928B
:102CD0006F927F928F929F92AF92BF92CF92DF922C
:102CE000EF92FF92CF93C0903C04D0903D04E090CF
:102CF0003E04F0903F048FB7F894409082055090C6
:102D0000830560908405709085058FBF5301420153
:102D10008C189D08AE08BF080E940E0560933C0405
:102D200070933D0480933E0490933F04A09113045C
:102D3000E3E1F4E04A2F50E02FEFC20ED21EE11C77
:102D4000F11CC418D508E608F708A5132EC0409357
:102D5000130420914404C0E0211108C02091BE0555
:102D6000C22FC37019F0C22FC695C69520911201CB
:102D7000223009F464C060F521113BC010921601A5
:102D80006093BA057093BB058093BC059093BD0515
:102D900089E2E3E1F4E0A4ECB5E001900D928A95BC
:102DA000E1F781E08093120116C0218D328D290157
:102DB000712C612CC414D504E604F70420F44150AE
:102DC0005F5F3296C2CF280D391D328F218FF8CF29
:102DD000233009F43FC0CF91FF90EF90DF90CF9068
:102DE000BF90AF909F908F907F906F905F904F902B
:102DF00008958C2F0E947113CC2369F30E94C5059E
:102E000081FF15C06091C105683068F06C3A68F4C4
:102E10008091400480FF685F262F462F88E290E073
:102E20000E94A008D8CF68E0F7CF64EBF5CF80917F
:102E3000400480FFD0CF20E040E060E0EFCFC093BF
:102E400011018091BE058370809310010E94C11111
:102E500083E0A8CF8091450481110E945B164091C8
:102E6000BA055091BB056091BC057091BD052FB7A7
:102E7000F8948091820590918305A0918405B0918A
:102E800085052FBF841B950BA60BB70B4097A1059B
:102E9000B10508F4A0CF109212019DCFEEEBF5E042
:102EA00085E380838091190190911A01A0911B0103
:102EB00081839283A3838FE784838FEF85830E942E
:102EC0005B1608958091BA039091B903892B809382
:102ED00018039091BB039923A1F0892B80931803C9
:102EE000809115018823E1F18091860587FF38C024
:102EF0008EE1EAE1F3E090E08150A0F591110E94AB
:102F0000851040E250E069E973E088E193E00E94B7
:102F1000A02E892B21F180E2E8E1F3E0A9E9B3E0FA
:102F200001900D928A95E1F7E0917D05F0917E0583
:102F30003097A9F080911501882359F0809186057A
:102F400087FF07C0809118038093190386E0809360
:102F500018030280F381E02D88E193E0099508953C
:102F600086E0C7CF2191222339F29F5FC5CF90E041
:102F700080E00E94AF0590E080E00E9499051092E9
:102F8000B9030E94621786E0EDE0F4E0DF011D92D4
:102F90008A95E9F71092070410920604109208042B
:102FA0000E94620D08958093F0050E94B71708955E
:102FB0008091F005982F9670963021F488600E94D9
:102FC000D3170895877FFBCF21E030E001C0220FA7
:102FD0008A95EAF720958091F00582230E94D31705
:102FE0000895909198038095892380939803282FC2
:102FF000277091F4282F082E000C330B921713061C
:1030000059F09091870592FF07C085958595859524
:103010000E94E417109298030895CF93C0918705FA
:10302000C2FB992790F9981791F080FBC2F9C093E1
:1030300087056091860584E090E00E94EA2E6C2F5F
:1030400082E290E00E94EA2E82E00E94F117CF9186
:10305000089521E030E001C0220F8A95EAF78091BF
:10306000F005822B0E94D31708958093BC030E9421
:10307000B7170895882321F00E948B100E946217D1
:103080000895882339F09091BA03892B8093BA036D
:103090000E9462170895882391F19CEF980F913A4E
:1030A00040F4682F88E193E00E9437050E94621780
:1030B000089590E2980F983050F4877091E001C025
:1030C000990F8A95EAF7892F0E948B10EFCF9BE525
:1030D000980F933028F490E080E00E94AF050895A7
:1030E00098E5980F973128F490E080E00E949905C8
:1030F0000895803F20F00E94880D0E94620D08957F
:10310000CF93C82F8823D1F18CEF8C0F813AC0F573
:1031100080911501882311F18091860587FF1EC0DB
:10312000EC2FE695E695E695F0E0E85EFC4F8281AF
:1031300090E04C2F477021E030E002C0220F331F97
:103140004A95E2F782239323892B89F06C2F88E13B
:1031500093E00E9437050E94621709C0EAE1F3E09C
:103160008191C81799F323E0E032F207C9F76C2F79
:1031700088E193E00E9463050E946217CF91089551
:1031800080E28C0F883068F4C77021E030E001C025
:10319000220FCA95EAF78091BA03822B8093BA0373
:1031A000EBCF8BE58C0F833038F42C2F2452330B6C
:1031B000C9010E94AF05E2CFE8E5EC0FE73150F41A
:1031C000F0E0EE0FFF1FE05EFE4F808191810E94D4
:1031D0009905D4CFC03F90F28C2F0E94430E0E94DD
:1031E000620DCCCF0F931F93CF93C82F10E000E058
:1031F000893311F400E510E08C2F0E94801801152E
:10320000110539F48C2F0E944B18CF911F910F910B
:1032100008958FE99FE00197F1F700C00000015089
:103220001109EDCFFF920F931F93CF93DF93C62F1A
:10323000D42F122FFC0182818823A9F06093EF051F
:103240000E942B059093EE058093ED05C77081E0F9
:1032500001C0880FCA95EAF70E944118CDB7DEB7C2
:10326000E5E00C941A2E8091EF05681330C0809130
:10327000ED059091EE050E94FF04883C910538F51C
:1032800000E20D0FCD17A9F0C770FF24F3948F2D26
:1032900001C0880FCA95EAF70E943A18083048F42E
:1032A0008D2F877001C0FF0C8A95EAF78F2D0E9441
:1032B0004118812F0E94F218083080F6D77081E003
:1032C00001C0880FDA95EAF70E943A18C7CFC77095
:1032D00081E001C0880FCA95EAF7F6CFB0E0A0E020
:1032E000E4E7F9E10C94FC2DE82FF0E0E25EFC4FFE
:1032F000D490282F26952695269530E0F901E25F97
:10330000FC4F0491877010E0082E02C015950795B8
:103310000A94E2F701701127F901E250FD4FE490A1
:10332000F12C082E02C0F594E7940A94E2F791E09C
:10333000E922FF24F901E251FD4FC491D0E002C01F
:10334000D595C7958A95E2F7C170DD27011511055E
:1033500019F081EE0E948018E114F10419F086EE54
:103360000E9480188D2D0E94F218E114F10419F0CA
:1033700086EE0E944B180115110519F081EE0E948E
:103380004B18CD2B19F08CE20E94F218CDB7DEB7A6
:10339000E7E00C94182E4F925F927F928F929F924B
:1033A000AF92BF92CF92DF92EF92FF920F931F9353
:1033B000CF93DF93CDB7DEB766970FB6F894DEBF35
:1033C0000FBECDBF8E010F5F1F4F86E1F801119236
:1033D0008A95E9F72EE4E22E21E0F22ECC24C39464
:1033E000D12C88248394912C52E6A52E51E0B52E41
:1033F000F70181917F018F3F09F44DC0F894E82FC8
:10340000E295EF70F0E021A18F70A40102C0440F9B
:10341000551F8A95E2F7CA01922F982B91A392A18A
:103420008095892382A3789400C097E5492E91E086
:10343000592ED801B60160957095F20171902F0157
:103440008D919D91AD0142505109FFEF7F1609F416
:1034500063C0272D22952F7030E0F90120A130E0C4
:10346000F72DFF7002C035952795FA95E2F720FDFC
:1034700053C08C299D29FA0191838083A414B5043B
:10348000E1F6F701319780818F3F11F00E949F0E86
:10349000F0EAFA95F1F7CC0CDD1C27E5E21621E005
:1034A000F20609F0A5CF46E150E0B80180EC93E0C8
:1034B0000E94A02E892B99F186E1F801A0ECB3E0DF
:1034C00001900D928A95E1F781E08093BF030E94FD
:1034D0002B059093BE038093BD038091BD03909113
:1034E000BE030E94FF040597F0F046E150E060EC57
:1034F00073E080EF93E00E94A02E892B59F186E1C2
:10350000E0ECF3E0A0EFB3E001900D928A95E1F7D3
:1035100081E01092BF0308C086239723ACCF80912F
:10352000BF038111DACF80E066960FB6F894DEBF54
:103530000FBECDBFDF91CF911F910F91FF90EF9004
:10354000DF90CF90BF90AF909F908F907F905F90D3
:103550004F90089580E0DDCF1092BA03809115015D
:10356000EAE1F3E0882361F08091860587FF08C0D7
:103570008EE1DF011D928A95E9F70E94B717089541
:1035800086E0F7CFAAE2B0E0E8ECFAE10C94002E76
:1035900082EB95E0FC0101962091F100208325E06B
:1035A0008A3B9207B9F78091B305893009F456C078
:1035B000C8F4823009F4B3C0833009F482C081308A
:1035C00071F18091E80083FF85C28091B2059091EE
:1035D000B3059A3008F07EC2E92FF0E0E556F04DD1
:1035E0000C94E42D8A3009F489C08B3051F7809116
:1035F000B205813231F78091B6059091B705892BDC
:1036000001F78091E800877F8093E8000E94F5032E
:103610008091B405809315010E94AC1AD2CF80919D
:10362000B205813A71F68091E800877F8093E800C7
:103630008091B6059091B705892B61F460E28EE820
:1036400095E070E00E94A1048091E8008B77809360
:10365000E800B7CF60E090E080E0F3CF8091B20562
:10366000813209F0AECF8091B6059091B7058D7F7C
:10367000892B09F0A6CF8091E800877F8093E8002E
:103680008091E80082FF18C09091F3008091F200D1
:10369000029731F48091F100813011F0863021F4ED
:1036A0008091F10080938D058091E8008B77809365
:1036B000E8000E94F50385CF8091B0058111E0CF2D
:1036C00080CF8091B205813A09F07BCF8091B60519
:1036D0009091B705892B09F074CF8091E800877F1E
:1036E0008093E8008091E80080FFFCCF8091150175
:1036F0008093F1008091E8008E77D9CF8091B20558
:10370000813209F05ECF8091E800877F8093E800E6
:103710000E94F5038091B50580938C0552CF80916E
:10372000B205813A09F04DCF8091E800877F809300
:10373000E8008091E80080FFFCCF80918C05D8CF15
:10374000803899F0823809F0C5C18091B6058F7034
:10375000873008F0BFC18093E9008091EB0085FBC2
:10376000882780F91092E90006C08091AE059091FB
:10377000AF05911182609091E800977F9093E800E7
:103780008093F1001092F1008091E8008E779EC145
:10379000882309F48CC1823009F09CC18091B40562
:1037A00081118FC18091B6058F702FEF280F2630C1
:1037B00008F090C18093E9002091EB0020FF81C1C7
:1037C000933031F48091EB0080628093EB0079C1FB
:1037D0009091EB0090619093EB0021E030E001C00C
:1037E000220F8A95EAF72093EA001092EA0080916E
:1037F000EB008860EACF81116DC11091B4051F778D
:103800008091E3008078812B8093E3008091E80031
:10381000877F8093E8000E94F5038091E80080FF95
:10382000FCCF8091E30080688093E30082E0111177
:1038300083E08093B0054EC18058823008F04AC1C1
:103840004091B4055091B5054C3D83E05807A1F572
:1038500083E08A838AE289834FB7F894DE01139666
:1038600020E03EE051E2E32FF0E050935700E49176
:1038700020FF03C0E295EF703F5FEF708E2F90E066
:10388000EA30C0F0C7968D939D932F5F243159F78E
:103890004FBF8091E800877F8093E8006AE270E084
:1038A000CE0101960E94A1048091E8008B7780935D
:1038B000E80010C1C096E7CF8091B6059091B7059A
:1038C000252F33272330310509F44AC078F52130FC
:1038D000310509F479C08BE590E0E0EFF5E02230A6
:1038E000310509F0F7C02091E800277F2093E80018
:1038F0002091B8053091B9058217930708F49C010F
:1039000040E02115310509F064C0411162C0809189
:10391000E80082FDC9CF8091B005882329F2853067
:1039200019F28091E80083FFF2CFBECF213231053A
:1039300009F43BC02232310509F0CCC08330910537
:1039400008F0C8C0FC01EE0FFF1FEF58FE4F0190BA
:10395000F081E02D82599E4FDC018C9190E011C0E6
:10396000CA019927413089F082309105B1F0892B45
:1039700009F0B0C0EDE7F6E0E4918E2F90E0EDE7BE
:10398000F6E0009709F4A6C0AECFEDE6F6E0E491CC
:103990008E2F90E0EDE6F6E0F4CFEDE5F6E0E49171
:1039A0008E2F90E0EDE5F6E0ECCF8330910508F046
:1039B00091C0880F991FFC01E958FE4F0190F081DA
:1039C000E02D89E090E08FCF82E190E0EBE4F6E03B
:1039D0008ACF8091B005882309F466CF853009F439
:1039E00063CF8091E80083FD5FCF8091E80082FD86
:1039F0008ECF8091E80080FF84CF9091F30080917A
:103A0000F2002115310519F08830910550F041E0A0
:103A1000089709F040E08091E8008E778093E800F5
:103A200070CF44914093F1003196215031090196B5
:103A3000E8CF803809F04EC08091E800877F8093FE
:103A4000E8008091B1058093F1009ECE811142C0C3
:103A50001091B4051230F0F58091E800877F8093D3
:103A6000E8001093B1050E94F503112311F084E0E2
:103A700005C08091E30087FDFACF81E08093B00517
:103A800042E061EC81E00E94140442E261EC84E0D7
:103A90000E94140442E261EC82E00E94140442E2BB
:103AA00060EC83E00E9414048091B00513C0809103
:103AB000B405813079F481E0933009F080E080939F
:103AC000AF051092E9008091E800877F8093E800BD
:103AD0000E94F5038091E80083FF0AC08091E8000E
:103AE000877F8093E8008091EB0080628093EB00F9
:103AF000AA96E3E00C941C2E0E94AC1A2FEF84E3EC
:103B00009CE0215080409040E1F700C0000088E137
:103B10009CE00FB6F894A895809360000FBE909338
:103B20006000FFCF90E080E00E94D42E883E9E4F40
:103B300019F40E942613089580E00895209140040E
:103B4000809145048160922F9370933061F09FEFD4
:103B500020FD92EF21FD1DC09093C3058093450485
:103B60000E94A00609C01092C3058093450440E05E
:103B700060E080E00E949D08409140045091410423
:103B800060914204709143048FE090E00E94FC2E0B
:103B900008959DEFE1CF68EE7EEF90E080E00E9417
:103BA000082F60E082E090E00E94EA2E60E083E06F
:103BB00090E00E94EA2E1092BC0360E084E090E066
:103BC0000E94EA2E64E082E290E00E94EA2E60E029
:103BD00085E090E00E94EA2E60E086E090E00E949E
:103BE000EA2E6FEF87E090E00E94EA2E40E050E07E
:103BF000BA0188E090E00E94FC2E60E08DE090E049
:103C00000E94EA2E40E050E0BA0188E190E00E9474
:103C1000FC2E60E087E190E00E94EA2E40E050E058
:103C2000BA018CE190E00E94FC2E70E060E080E23E
:103C300090E00E94082F40E050E0BA0188E190E057
:103C40000E94FC2E80E00E9458120E94711240E0F7
:103C500050E0BA018FE090E00E94FC2E10924004E8
:103C60001092410410924204109243040E949E1D3F
:103C700008958FE090E00E94CE2E609340047093F0
:103C8000410480934204909343040E949E1D089532
:103C9000A5E0B0E0EEE4FEE10C94F62D7C01FC0121
:103CA00083819481892B31F08081918189238F3F99
:103CB00009F034C62596EDE00C94122E0E94BE1237
:103CC000182F682F89819A810E94D11069817A8189
:103CD000812F0E94B0128C01F7018281882309F4A0
:103CE0000BC6980122513F452031310508F0F2C53D
:103CF0008FEF93E00E94C62E811130C05EEED52E6C
:103D0000D00E09E712E0D1103BC080911C019091C8
:103D10001D01A0911E01B0911F0189839A83AB837D
:103D2000BC83BB24B3944AE0A42E68012FEFC21ACF
:103D3000D20AC8010E94C62E89831A82882371F094
:103D40009FEF980F933048F58A83B9820E5F1F4F1B
:103D5000C6010E94C62E8B83811120C080919803DA
:103D6000877009F4A7CFF7018281882309F4A2CFD5
:103D70008091870582FF9ECF82E00E94F1179ACF43
:103D80000115F4E01F0751F3C8010E94C62E8111EE
:103D900001C0DA940F5F1F4FB6CF8601CE010196A6
:103DA0006C01F6018081882309F4BFCF813009F0CE
:103DB00047C091818281913049F4F2E0CF0ED11C4D
:103DC0000E94F218EFEFCE1ADE0AEBCF923031F4F8
:103DD00022E0C20ED11C0E948018F4CF933031F43F
:103DE00032E0C30ED11C0E944B18ECCF943021F06E
:103DF0008FEFC81AD80AE6CF92E0C90ED11C30E086
:103E000020E0B6016F5F7F4FF60141818053990B2F
:103E10008A30910550F021503109A0F28FE99FE0DE
:103E20000197F1F700C00000F6CFA29EF001A39E1B
:103E3000F00D11249C012E0F3F1F842F6B01E1CF49
:103E40000E946E19BFCF81E00E9429180E94D817E6
:103E500085CF81E00E94E417F9CF82E0F5CF82E0C0
:103E6000F9CF0238FFE51F0708F044C00E3D2CE5EE
:103E7000120709F4C7C008F501159CE5190709F4F4
:103E80007FC0023CECE51E0709F484C0083D8CE5C8
:103E9000180709F429C128E241E0093D9CE519070A
:103EA00009F424C126E241EE61EE073DECE51E0770
:103EB00081F5C7010E94121951CF0038FFE51F0795
:103EC00009F40AC1033F2CE5120709F411C1F0F20D
:103ED000053FFCE51F0709F40FC1063F2CE512075B
:103EE00009F40EC127E245EE64EE043F3CE51307FA
:103EF00001F30FC003382FE5120709F479C0093820
:103F00003FE5130709F483C002389FE5190709F458
:103F100065C0F7018281882309F411C51092EF056D
:103F20000136FDE51F0761F008F00AC106313CE5E6
:103F3000130708F0E9C002308CE5180708F40BC13C
:103F40000E943F1390938705809386050631ECE528
:103F50001E0708F030C10230FCE51F0708F01EC143
:103F6000609186051091870584E090E00E94EA2E1A
:103F7000612F82E290E00E94EA2E0E94AC1AEECEFF
:103F8000882339F240E060E084EB0E949D080E94A3
:103F9000C111BFCF882309F4E1CE80914004982F4E
:103FA000917080FD0AC081FD08C08091400481604D
:103FB000809340040E949E1DD1CE8091400480FFDA
:103FC00005C081FD03C08C7F8260F2CF911102C0D9
:103FD00081FDEBCF809140048C7FEACF882309F4E8
:103FE000BDCE90914004892F8E7F90FF8160E0CFFD
:103FF000882309F4B3CE90914004892F8D7F91FFDF
:104000008260D6CF811185CF0E94391E82CF9091D8
:10401000BA039111A3CE8111A1CE04EC11E03AE0D4
:10402000B32EF8018491882309F498CE813009F0E9
:104030004FC06801FFEFCF1ADF0AF601849181308B
:1040400061F46801F2E0CF0ED11CF60184910E9468
:10405000F21886010F5F1F4FE4CF823049F46801E8
:10406000F2E0CF0ED11CF60184910E948018F1CFAE
:10407000833049F46801F2E0CF0ED11CF60184913F
:104080000E944B18E6CF843021F76801F2E0CF0E92
:10409000D11CF601249190E080E0F6013196205386
:1040A000330B2A30310548F0019798F2EFE9FFE031
:1040B0003197F1F700C00000F7CFB89EA001B99E7C
:1040C000500D1124C901840F951F24916F01E5CF74
:1040D0000E946E196801BDCF882309F41CC48FE9C2
:1040E00092E00E9499053ACE27E245EE65EEE1CED8
:1040F00026E241EE60EEDDCE26E241EE62EED9CE62
:1041000027E245EE66EED5CEC8018A5F9C45099749
:1041100008F416CF0631FCE51F07E9F48091BA03D5
:104120008A7A91E009F490E09093380369E2811172
:1041300065E388E193E00E9463050E9462170ECE5A
:10414000053A9DE5190709F4FBCEC8018D5A9D4536
:10415000039708F4F5CE0B352DE5120709F4C8C115
:1041600008F0AFC10E3D8CE5180709F4B4C181E039
:104170000A359DE5190709F4B8C101151C4509F078
:1041800009C10E94AC1A3FEF84E39CE031508040AB
:104190009040E1F700C000000E949D11F801E3503B
:1041A000FC45809186058160E331F10568F5EB55AA
:1041B000F04D0C94E42D03302DE5120780F40A3FF6
:1041C0003CE5130708F4CCCEF801EB5FFC45E83082
:1041D000F10508F03FC0E854F04D0C94E42D0D3A81
:1041E0008DE5180729F198F40136EDE51E0709F46D
:1041F000B0C090918605892F8E7F90FF8160053A2F
:10420000FDE51F0709F0ACCE80938605A9CE0E3AD6
:104210002DE5120709F444C00F3A3DE5130709F0F4
:104220009FCE90918705892F877F93FF886003C079
:104230008091870588608093870592CE809186055E
:104240008260E2CF809186058460DECF8091860512
:104250008860DACF809187058160EDCF80918705F6
:104260008260E9CF809186058061CECF80918605FE
:104270008062CACF809186058064C6CF0E94AC1A46
:10428000809186058068C0CF809186058C60BCCF08
:10429000809187058360CFCF809186058E7FB4CFD4
:1042A00080918705877FC7CF809186058D7FACCFB2
:1042B000809186058B7FA8CF80918605877FA4CFCC
:1042C000809187058E7FB7CF809187058D7FB3CF93
:1042D000809186058F7E98CF809186058F7D94CFC3
:1042E000809186058F7B90CF0E94AC1A80918605C5
:1042F0008F778ACF80918605837F86CF80918705CF
:104300008C7F99CF8091860582FB992790F921E0D7
:10431000922790FB82F990FB83F976CF80918705F5
:10432000982F909591708E7F892B90FB81F983CF88
:104330000E94AC1A90918605892F97FB87F98058C7
:1043400063CF61E08EE090E00E94EA2E09CE60E04B
:10435000F9CF90918605892F8F7E94FF806154CF8D
:104360008091BA038272063D9CE5190778F4023CFD
:10437000ECE51E0778F0F801E35CFC45E331F1055C
:1043800008F04FC0E054F04D0C94E42D0D351007AB
:1043900009F4E4CCF7018281C080D180882309F43C
:1043A000A9C0C6010E94BE12182F682FC6010E9424
:1043B000D110B601812F0E94B0120E94FB0E8C0119
:1043C000782EF7019280858082942FE0822280915E
:1043D00098038770C1F0B92C9920B1F0812F807FAC
:1043E000803421F080E2800F883068F0809187056A
:1043F00082FF09C082E00E94F117809198038770C4
:10440000BB24B3948111B12C812F82958F70C82E5B
:10441000D12C8C3008F0DAC0F601ED52F04D0C943E
:10442000E42D8091BE0591E089278093BE0510920E
:104430001201809145048160809345048FCC47E848
:1044400056E064E976E00E94D20588CC44E956E063
:1044500067E876E0F8CF47E556E062E676E0F3CF2E
:1044600042E656E067E576E0EECF4BE356E069E4DE
:1044700076E0E9CF49E456E06BE376E0E4CF4FE144
:1044800056E06DE276E0DFCF4DE256E06FE176E098
:10449000DACF4FEE55E06DEF75E0D5CF4DEF55E03B
:1044A0006FEE75E0D0CF61E081E00E946D0656CCE2
:1044B00061E085E0FACF61E08DE0F7CF61E082E175
:1044C000F4CF0C35FDE51F0749F0073A1D4509F00B
:1044D00061CF0E947C1D0E94CB1DFBCF8091870580
:1044E00082FB882780F991E089270E940D1852CF1E
:1044F00080E0FBCFC6010E949D10182F5ACFF12FEC
:10450000FF70AF2E107F19F0A29490EFA922802F98
:104510009920B9F0AA2069F090E2900F983010F03D
:10452000011109C08091BA03A82AA092BA030E947F
:104530006217802F49C08091B903A82AA092B903BD
:10454000F6CF0E944B18AA2009F440C0005E083044
:1045500010F0711004C08A2D0E948B1006C0A09428
:104560008091B903A822A092B9030E9462172EC0BD
:10457000212F2F70A22E107F103219F0A29480EFFD
:10458000A822772089F031E0731609F469C09920D8
:1045900009F473C0882009F469C0F701958190FF80
:1045A000C8CF9F70958362C02091870522FD36C0D9
:1045B000992071F1AA2039F08091BA038A29809359
:1045C000BA030E94621780E00E94801898E0C91A1E
:1045D000D108E4E0CE16D10410F40E94C505BB203A
:1045E00009F468CB8091980380FD64CBF7011282B7
:1045F0008595859585950E942918C7010E94481EBA
:10460000809198038595859585950E94E41752CBF6
:1046100080E00E944B18AA20C9F29DCF992099F002
:104620009091BB03892F8A29811003C00E944118F1
:10463000CDCFE1E08E12FACF22FFC8CF981731F22A
:104640008093BB03C3CF811006C00E9485108A2DC2
:104650000E943A18BBCFF1E08F1609F4B7CFF5CF1F
:10466000992031F025E0281508F4B0CF8A2DDECF4F
:1046700034E0381508F4AACFEACF882041F3093393
:1046800049F4FFEF27EE33E0F15020403040E1F7EE
:1046900000C00000802F0E944B1898CF812F869574
:1046A0008695837061F0813009F090CFC8019370D6
:1046B000911002C090E080E00E94990587CFC80168
:1046C0009370911002C090E080E00E94AF057ECF11
:1046D000802F992029F00E94430E0E94620D76CF10
:1046E0000E94880DFACF812F837091F591106ECFC3
:1046F000402F429546954770440F440F802F8F708E
:10470000042E01C0880F0A94EAF7202F207104FFBD
:1047100007C02FE030E001C0220F4A95EAF720954C
:10472000169516951370123071F0133051F03091C8
:10473000BC03113029F0822B83230E94351846CF09
:10474000832B822BFACF282B8091BC038227F5CFB5
:104750008695992011F0812F8170882309F436CF36
:10476000402F429546954770440F440F802F8F701D
:10477000042E01C0880F0A94EAF7202F207104FF4D
:1047800007C02FE030E001C0220F4A95EAF72095DC
:10479000169516951370123071F0133051F0309158
:1047A000F005113029F0822B83230E94D3170ECFFE
:1047B000832B822BFACF282B8091F0058227F5CF0F
:1047C0001F70992029F0812F0E942918802F2ECF49
:1047D000802F0E943A18812F0E94E417F7CE802F75
:1047E00092EF7916B1F1971570F0E0EF7E16D1F0E7
:1047F000F1EF7F1691F0992009F45CC0811099CEF9
:10480000812F8F712AC023EF721651F134EF73128A
:10481000F2CF8091870582FD2FC0812F8F71992063
:10482000D9F21BC0992081F084E0881508F4CECE1F
:104830001F7181E090E0012E01C0880F0A94EAF711
:104840009091F0058927B1CF95E0981508F4BECE78
:10485000EFCF812F8F719110BFCF0E942918B6CE54
:1048600080E0992009F4A1CF1F7181E0012E01C0E1
:10487000880F0A94EAF799CF992089F01F71812F48
:104880000E9429188091870582FF07C0E8E01E9FDB
:10489000C0011124836080939803812FDECF81E0D3
:1048A0000E94F117F1E0F81508F090CE82E00E9426
:1048B000F1178CCE882059F0893309F0EBCE2FEF19
:1048C00037EE83E0215030408040E1F7E1CE812F88
:1048D0008F7182CF0031FFE51F0709F4B4CA01319F
:1048E0002FE5120709F4B9CA01389FE5190709F045
:1048F000B8CA80EA92E0F5CB00313FE5130709F42E
:10490000A8CA01319FE5190709F4A9CA01383FE592
:10491000130709F0A6CA90E080E0E3CB85E0DE0152
:10492000119601900D928A95E1F7F7012281898114
:104930009A812111C3C90E949D10182FC7C9063141
:104940002CE5120709F00CCD8091380369E2811142
:1049500065E388E193E00E943705EFCB1F93CF9387
:10496000DF9380916503807F09F049C080916203E5
:10497000882309F444C080919703D0916603609125
:10498000600370916103A0916303B0916403C62F2B
:10499000C72316E0D81799F190E0109711F0CF3F98
:1049A00019F401968770F6CF189F9001199F300D6A
:1049B0001124F901E959FC4F41814713F2CF40819D
:1049C0004613EFCF42814111ECCF438154814A1B02
:1049D0005B0B483C510528F7809165038F7080611F
:1049E00080936503F901E459FC4F80818F708061E9
:1049F000808380E693E00E94481E0E949310DF911E
:104A0000CF911F910895ABE0B0E0E9E0F5E20C949E
:104A1000F92D8C0185E0F801DE01179601900D92C9
:104A20008A95E1F7F801E28080E6A82E83E0B82EAF
:104A300060916303709164036115710509F40EC1FF
:104A40009091600340916103842F89238F3F09F483
:104A500005C120813181C380D480F0906203F601CA
:104A6000E61BF70BFF2009F4C4C080916503582FA3
:104A7000507FE83CF10508F09FC051116BC0FE2C3F
:104A8000431314C0921312C0E11010C08F708061E4
:104A900080936503C5010E94481E80916503F8015B
:104AA00085838F2D2B96EAE00C94152EC114D1042A
:104AB00029F0822F83238F3F09F0EBC080E0F82F8D
:104AC000F170DF2EE09197034091660356E080FD80
:104AD0001CC0EE2031F380916503816080936503F3
:104AE000F12CDFCF8E2F90E05E9FF0011124E95969
:104AF000FC4F6181361306C06081261303C06281BA
:104B0000E612E7CFFC013196E770E413EBCF2F8379
:104B100038878F8198850E94E912292F22952F705E
:104B2000903260F0225F2F70223078F49F7051F045
:104B3000F8019581907F31F4D12C0AC09F7011F05B
:104B40008823D1F3805E8830B8F3C8010E94481EE4
:104B5000FD2CA7CF431306C0921304C0F801EE202A
:104B600009F461C0C8010E94F812882309F1EE20FF
:104B7000F9F080916503803270F0209160033091EC
:104B800061033A8329831B82DD82CC828E83CE012E
:104B900001960E94481E86E0F801A0E6B3E001906D
:104BA0000D928A95E1F70E94AE24FF24F39479CF09
:104BB000C8010E94481EF9CF51110AC080E693E057
:104BC0000E94481E86E0F50111928A95E9F788CF88
:104BD0004313C8CF9213C6CFE110C4CFF801858329
:104BE000C8010E94481E86E0F50111928A95E9F7F6
:104BF00058CFE83CF105B8F7FE2CEE20C9F243137C
:104C00001FC092131DC08091650380FD10C0982FB6
:104C1000907F69F0F8018583903F31F0982F907F65
:104C2000905F8F70892B8583C8010E94481E86E0A3
:104C3000F801A0E6B3E001900D928A95E1F731CF3B
:104C4000C8010E94F8128111A6CF8091650381608E
:104C500080936503C8010E94481E23CFEE2009F40B
:104C6000A7CFC8010E94F812F82E882309F4A0CF1C
:104C700086E0F801A0E6B3E001900D928A95E1F795
:104C800080916003909161030E94E9120E94AE241A
:104C900008CF81E08E2513CFA7E1B0E0E2E5F6E290
:104CA0000C94002E4B8B5C8B6D8B7E8B8F8B6111EC
:104CB0001092B9031A8A2C898E899F893B893D8776
:104CC0002E876F87998B888B86E0FE013D96DE01EB
:104CD000179601900D928A95E1F7CE0107960E94F2
:104CE0000325882359F016E080919703909166037D
:104CF000891349C06796E3E00C941C2E86E0FE0100
:104D00003796DE01119601900D928A95E1F74A855A
:104D10005B854115510539F37F816885862F87238F
:104D20008F3F09F32091660330E0C9010196877037
:104D30009927E0919703E817190671F40E94AC1ABD
:104D4000109266031092970386E0E0E6F3E0DF013D
:104D50001D928A95E9F7C7CF79836A835D834C8377
:104D600096E0929FD001939FB00D1124A959BC4F9A
:104D7000FE01319601900D929A95E1F780936603BA
:104D80000E949310B0CF819FC001112489599C4F7C
:104D90000E940325882309F4ADCF8091970390E00A
:104DA000019687709927809397039ECF1F920F9249
:104DB0000FB60F9211242F933F934F935F936F93EE
:104DC0007F938F939F93AF93BF93CF93DF93EF9393
:104DD000FF93D091E900DF708091EC00C82FC17083
:104DE00080FDC0E81092E9008091F000877F8093F9
:104DF000F00078940E94C21A1092E9008091F000AD
:104E000088608093F000CD2BCF70C093E900FF91B4
:104E1000EF91DF91CF91BF91AF919F918F917F9152
:104E20006F915F914F913F912F910F900FBE0F9017
:104E30001F9018951F920F920FB60F9211242F9367
:104E40003F934F935F936F937F938F939F93AF9312
:104E5000BF93EF93FF938091E10082FF09C080919F
:104E6000E20082FF05C08091E1008B7F8093E1002A
:104E70008091DA0080FF24C08091D80080FF20C09C
:104E80008091DA008E7F8093DA008091D90080FFD4
:104E90009BC080E189BD82E189BD09B400FEFDCFE0
:104EA00081E08093B00580918B05811109C00E943B
:104EB0007B030E9446048091E20084608093E200BC
:104EC0008091E10080FF17C08091E20080FF13C055
:104ED0008091E2008E7F8093E2008091E200806109
:104EE0008093E2008091D80080628093D80019BC42
:104EF00085E08093B0058091E10084FF29C0809116
:104F0000E20084FF25C080E189BD82E189BD09B44A
:104F100000FEFDCF8091D8008F7D8093D8008091D6
:104F2000E1008F7E8093E1008091E2008F7E80938C
:104F3000E2008091E20081608093E2008091B105FF
:104F4000882309F447C084E08093B0058091B005C0
:104F50008091E10083FF27C08091E20083FF23C09E
:104F60008091E100877F8093E10082E08093B0052B
:104F70001092B1058091E1008E7F8093E1008091D5
:104F8000E2008E7F8093E2008091E2008061809356
:104F9000E20042E060E080E00E9414048091F000B2
:104FA00088608093F000FF91EF91BF91AF919F9146
:104FB0008F917F916F915F914F913F912F910F90C2
:104FC0000FBE0F901F90189519BC1092B00510924B
:104FD0008B0576CF8091E30087FD02C081E0B4CFDE
:104FE00083E0B2CF78941F921FB61F9211248F9343
:104FF0009F93AF93BF938091820590918305A09179
:105000008405B09185050196A11DB11D809382058F
:1050100090938305A0938405B0938505BF91AF91CC
:105020009F918F911F901FBE1F9018951F921FB6C2
:105030001F9211248F939F93AF93BF93809181050B
:10504000811113C08091820590918305A091840500
:10505000B09185054196A11DB11D80938205909365
:105060008305A0938405B0938505BF91AF919F916F
:105070008F911F901FBE1F901895CDB7DEB7AB97CD
:105080000FB6F894DEBF0FBECDBF85B7806885BF71
:1050900085B7806885BF84B7877F84BF0FB6F894D3
:1050A000A8958091600088618093600010926000F4
:1050B0000FBE80E890E00FB6F89480936100909363
:1050C00061000FBE8DE99EE0909317038093160355
:1050D0000E947B030E9446048091E20084608093DA
:1050E000E20078948091B0058823A1F01091E90046
:1050F0001F709091EC00892F817090FD80E8182B33
:105100001092E9008091E80083FD0E94C21A1F708E
:105110001093E90082E084BD93E095BD9AEF97BDBE
:1051200080936E000E942613811102C00E947112AA
:105130000EE411E037E5E32E31E0F32ED8018D9136
:105140008D018F3F11F00E949F0EE016F106B1F71E
:1051500007E511E022E6E22E21E0F22EF80181912E
:105160008F018F3F11F00E949F0EE016F106B1F7FC
:1051700086E1E0EFF3E0DF01282F1D922A95E9F7A1
:10518000E0ECF3E0DF011D928A95E9F70E94921DA1
:10519000811102C00E94CB1D82E090E00E94C62EC9
:1051A0008093D8030E943F139093870580938605D0
:1051B0000E94CB19EFE3FCE93197F1F700C0000042
:1051C0000E94CB198091F00380FF08C06FEF7FEF42
:1051D00090E080E00E94082F0E949D1183E090E003
:1051E0000E94C62E0E9435181092C4058FEF9FEFC3
:1051F0009093DE058093DD059093E0058093DF05B5
:105200009093E2058093E1059093E4058093E30594
:105210009093E6058093E5059093E8058093E70574
:105220009093EA058093E9059093EC058093EB0554
:105230001092130490932D0480932C0490932F04C8
:1052400080932E0490933104809330049093330420
:105250008093320490933504809334049093370400
:1052600080933604909339048093380490933B04E0
:1052700080933A040E94921D811104C00E94CB1DAC
:105280000E944E1746E050E06CE170E08EEB95E036
:105290000E94B62E109245048091BE058C7F11F4B9
:1052A0000E944E170E94391E84E091E090937E0583
:1052B00080937D05772473948091B005853089F4BF
:1052C00080E4F82E93E0E92E00E112E18091B00530
:1052D000853009F4D1C00E94AC1A0E94C505109215
:1052E00044040E94CB1949ED53E05AA349A300EFAF
:1052F000E02E03E0F02ED701FA01219131918D913A
:105300009D914FEE53E04E175F0709F406C1281731
:10531000390799F31DE7212E11E0312E80EF93E03C
:1053200098A78FA3612CAFA1B8A5CD90DD90B8A7A9
:10533000AFA3E9A1FAA181919191FAA3E9A38C15F8
:105340009D0509F48FC09C012C253D253BA72AA76C
:105350003EA22DA2512CAA24A394B12C8AA59BA5D0
:105360008A219B21892B09F46DC086010A211B210A
:1053700059826A8281E00115110509F480E08B836E
:105380000E942B058160782F9D838C8349815A81EF
:105390006B818D810E944C26012B31F0ADA1BEA105
:1053A0008C918F3F09F0E0C1412C042D10E08091D9
:1053B0001304800F912F911D09976CF1E8E08E2E58
:1053C000912C801A910AB8016C5E7B4FA40184E194
:1053D00094E00E94AD2EB801645E7B4FA4018CE185
:1053E00094E00E94AD2EA401440F551FB801660F32
:1053F000771F645D7B4F8CE294E00E94AD2EB80174
:105400006C5D7B4FA40184E294E00E94AD2E88E0A5
:105410008419809313048091130490E0E9A5AE2FC2
:10542000B0E09D01220F331F20523E4FAA0FBB1F39
:10543000BD016F517E4F41E0480F941508F498C1AB
:10544000809313045394AA0CBB1CEDA1FEA13196CA
:10545000FEA3EDA3F9E05F1281CFE9A1FAA1329793
:10546000D182C082639429E0220E311C3BE063129A
:105470005ACF0E940E0573C08091B005843009F4A4
:1054800039C00E9466168091440481110DC00E94AB
:105490007113109211018091BE05837080931001E9
:1054A0000E94C111E0921201F1E0F09344041092C5
:1054B000810528E130E00FB6F894A89520936000AC
:1054C0000FBEF092600083B7817F846083BF83B793
:1054D000816083BF7894889583B78E7F83BF0FB632
:1054E000F894A89580916000886180936000109284
:1054F00060000FBE8091AF05882309F4E7CE0E94BB
:10550000CB19E0EFF3E081919191892B09F0FFC273
:1055100034E0E630F307B9F7D9CE2817390709F098
:10552000F9CE0E942B058C018091D6039091D70370
:1055300008171907A1F08FEF89838A831B820E94C5
:105540002B058160782F9D838C8349815A816B81E3
:105550008D810E944C261093D7030093D6030E949E
:10556000661686E0EDE0F4E0DE01119601900D9202
:105570008A95E1F710920F04109210041092110412
:10558000109212048B819C81892B09F44AC080916E
:105590000B0490910C040E94FF049C01809107046D
:1055A000882309F4D8C225313105D8F18F3F19F08D
:1055B0008F5F809307041B81112359F00E94230EF3
:1055C0009FEF11160CF491E0899F802D1124809398
:1055D0000F041C81112359F00E94230E9FEF111616
:1055E0000CF491E0899F802D112480931004309158
:1055F0000F043323B1F020911004222391F045EBE6
:105600003403C0011124992309F4C8C090930F04F6
:1056100055EB250390011124332309F4C2C03093C4
:1056200010048D819E81892B09F44AC08091090460
:1056300090910A040E94FF049C0180910604882333
:1056400009F484C221353105D8F18F3F19F08F5FFD
:10565000809306041D81112359F00E94010E9FEFD3
:1056600011160CF491E0899F802D11248093110470
:105670001E81112359F00E94010E9FEF11160CF4A8
:1056800091E0899F802D11248093120430911104A0
:105690003323B1F020911204222391F045EB34031F
:1056A000C0011124992309F47FC09093110455EB94
:1056B000250390011124332309F479C03093120497
:1056C00046E050E0BE016F5F7F4F8DE094E00E94A6
:1056D000A02E892B61F480910F0490911004892BE6
:1056E00090911104892B90911204892B11F00E9442
:1056F000620D86E0FE013196ADE0B4E001900D92BE
:105700008A95E1F70E94C5059091EF03891721F072
:105710008093EF030E940E058091B005843009F05C
:10572000CBCD83E08093E9008091E80082FFC4CD77
:105730008091E80090E085FF05C00E949A038823CD
:10574000C9F191E08091E8008B778093E80099237C
:1057500009F4B2CDE981E150E33108F0A9C0F0E0ED
:10576000E152F04D0C94E42D89A7442443941DCEBE
:1057700090E0FC01ED5EFB4FD9015C915183DB01B0
:105780005C915187B9A5B18B880F991FFC01ED5E23
:10579000FB4F128E118E842F91E04DCE70920F042C
:1057A00037CF709210043DCF7092110480CF709269
:1057B000120486CF00E210E0CE0101966C018091C8
:1057C000E80085FD0AC08091E8008B778093E800AF
:1057D0000E949A03882399F3B4CF8091F100D601F7
:1057E0008D936D010150110951F7ABCF1A828AE0F8
:1057F0008B8311C08A81823009F49FC1833091F17B
:10580000813009F055C00E940E050E94EA2D6B837D
:105810007C838D839E838091B005843009F04CCDCC
:105820001091E9001F709091EC00892F817090FD1C
:1058300080E8182B82E08093E9008091E80080FFE7
:105840000DC050E040E060E270E0CE0101960E94A1
:10585000CB038091E8008E778093E8001F7010934F
:10586000E9002ACDFE013196D7018C9111969C91C9
:10587000B2E0EB0EF11C92838383329626E0E216AF
:1058800024E0F20689F7C7CF8A81823089F48B81C0
:105890009C81AD81BE8189A39AA3ABA3BCA3BC01AB
:1058A000CD010E94EA2D86E290E00E94EA2EB3CF5D
:1058B0008FEF8983B0CF4C816B818A810E948112E6
:1058C0009827892798279E838D83A5CF2D813E8198
:1058D0003227232732274C816B818A810E94F8115D
:1058E0009ACF0E941F1297CF8A81823899F1C0F413
:1058F0008038F9F0813809F08ECF60E08B810E940A
:105900006D068B81811123C08091BE05837011F0DB
:10591000109212018091BE058C7F8093BE057BCFD3
:10592000833809F078CF8B8120E04091C1056C81EC
:105930000AC04B8124EB429F412D11248091BF0569
:1059400020E06091C00590E00E940B0664CF0E94A9
:10595000A00661CFEB818FE7E43020F4F0E0EE5950
:10596000FE4F80818093C20556CF8A81823809F12B
:1059700050F4803891F0813809F04DCF8091BE0508
:105980008695869535CF833809F045CF8091BF0540
:105990008B838091C0058C833ECF8091C105AFEF92
:1059A0008A9FC001112464EB70E00E94BC2D6B83C0
:1059B00032CF8091C205873230F08F3530F08E398A
:1059C00030F083E015CF80E013CF81E011CF82E08B
:1059D0000FCF0E945B161FCF80E18A831CCF7A8293
:1059E00087E806CF0A811B81102701271027FE01B7
:1059F00031967F01CC809F012C0D311D6901C801BA
:105A000087589D4FCE14DF0409F405CF073831E0E5
:105A1000130758F40E94C62ED70114968C930F5F7B
:105A20001F4FFFEFEF1AFF0AEACFF7011482F7CFFB
:105A30000A811B811027012710279E012F5F3F4FEE
:105A40006901EC80E00EF12EF11CC80187589D4FD2
:105A50000E151F0509F4DFCE073831E0130728F4CF
:105A6000D60114966C910E94EA2EBFEFCB1ADB0A86
:105A70000F5F1F4FEACF0E94E811CDCE83E0ADCF7C
:105A80000A811B81102701271027FE0131967F0113
:105A9000CC809F012C0D311D6901C8018796EC1443
:105AA000FD0409F4B8CE023532E0130758F40E9421
:105AB000C62ED70114968C930F5F1F4FFFEFEF1A7E
:105AC000FF0AEBCFF7011482F7CF0A811B81102761
:105AD000012710279E012F5F3F4F6901EC80E00EE8
