:100000000C940F030C9447030C9447030C94470380
:100010000C9447030C9447030C9447030C94470338
:100020000C9447030C9447030C9437280C94F32743
:100030000C9433290C9447030C9447030C94470306
:100040000C9447030C9447030C9447030C94470308
:100050000C9447030C940F290C9447030C9447030A
:100060000C9447030C9447030C9447030C944703E8
:100070000C9447030C9447030C9447030C944703D8
:100080000C9447030C9447030C9447030C944703C8
:100090000C9447030C9447030C9447030C944703B8
:1000A0000C9447030C9447030C9447030501090281
:1000B000A10185020901A1000509190129081500FE
:1000C0002501950875018102050109300931158165
:1000D000257F95027508810609381581257F9501D0
:1000E00075088106050C0A38021581257F95017572
:1000F000088106C0C005010980A101850319012AF4
:10010000B700150126B700950175108100C0050CD8
:100110000901A101850419012AA002150126A002E6
:10012000950175108100C00660FF0961A101096297
:10013000150026FF00952075088102096315002629
:10014000FF00952075089102C005010906A101056F
:100150000719E029E7150025019508750181029529
:1001600001750881010507190029FF150026FF0008
:100170009506750881000508190129059505750181
:100180009102950175039101C0000000000000007C
:10019000000000000000000000000000000000005F
:1001A000000000000000000000000000007E0F00C2
:1001B000D4FFFFFFC700000078000000000000002F
:1001C000002A2B28000000000000000000000000B2
:1001D0000000000029000000002C1E3420212224F1
:1001E000342627252E362D3738271E1F202122237F
:1001F0002425263333362E37381F04050607080911
:100200000A0B0C0D0E0F10111213141516171819D6
:100210001A1B1C1D2F3130232D3504050607080934
:100220000A0B0C0D0E0F10111213141516171819B6
:100230001A1B1C1D2F3130354C0001010101010139
:10024000010101020202020202020202030303038D
:10025000030303030404040404040405050505055D
:10026000060606060607070707070808080809091B
:1002700009090A0A0A0B0B0B0C0C0C0D0D0D0E0EC6
:100280000E0F0F0F10101111111212131314141559
:100290001516161717181819191A1A1B1B1C1D1DCD
:1002A0001E1E1F2020212222232424252626272823
:1002B00029292A2B2C2D2D2E2F3031323233343553
:1002C000363738393A3B3C3D3E3F40414243444556
:1002D000464748494A4C4D4E4F5051535455565835
:1002E000595A5B5D5E5F616264656668696B6C6DDF
:1002F0006F7072737577787A7B7D7E808283858755
:10030000888A8C8E8F91939596989A9C9EA0A2A392
:10031000A5A7A9ABADAFB1B3B5B7BABCBEC0C2C497
:10032000C6C9CBCDCFD1D4D6D8DBDDDFE2E4E7E957
:10033000EBEEF0F3F5F8FAFDFF29001E001F002098
:100340000021002200230024002500260027002D84
:10035000002E002A0035022B0014001A0008001598
:100360000017001C0018000C00120013002F0030B2
:100370000031004C00390004001600070009000A93
:10038000000B000D000E000F0033003400000028A9
:10039000004B00E10000001D001B000600190005D5
:1003A0000011001000360037003800E50052004E02
:1003B00000E000E3000000E200000000002C00006C
:1003C00000000000000151E400500051004F0035D2
:1003D000003A003B003C003D003E003F0040004131
:1003E000004200430044004500010001000100C23A
:1003F0005C5200C35CC55CC65CC75CC85CC95CCAB7
:100400005C010001000100010001000100500051E9
:10041000004F000100010001000100010049004AF5
:10042000004B0000000100010001000000005CBD65
:100430005CBF5CBE5CAA00A800A90001004C004D96
:10044000004E000100010001000100000001000059
:100450000000000100000000000000010001000198
:100460000001000100010001000100010001000184
:100470000001000100010001000100010001000174
:100480000001000100010001000100010001000164
:100490000001000100010001000100010001000154
:1004A0000001000100010001000100010001000144
:1004B0000001000100010001000000010001000135
:1004C0000000000100010001000100010001000125
:1004D0000001000100010001000100010001000114
:1004E000000000010000000000010000000000000A
:1004F00000010001000100010001000100010001F4
:1005000000010001000100010001000100010001E3
:1005100000010001000100010001000100010001D3
:1005200000010001000100010001000100010001C3
:1005300000010001000100010001000100010001B3
:1005400000010001000100010001000100010000A4
:100550000001000100010000000100010001000194
:100560000001000100010001000100010001000183
:100570000001000100010000000100000000000176
:100580000000000000000001000100010001000166
:100590000009025B00030100A0FA09040000010346
:1005A000010100092111010001224000070581031A
:1005B00008000109040100020300000009211101E3
:1005C0000001222200070582032000010705030322
:1005D00020000109040200010300000009211101AB
:1005E0000001227B000705840320000112010002A4
:1005F00000000008646967000200010200010A03AC
:10060000490044003600370000000E034900440052
:100610004F00420041004F00000004030904112470
:100620001FBECFEFDAE0DEBFCDBF04B603FE18C0B9
:100630008091DD049091DE04A091DF04B091E0048C
:100640008730904BA740B04B59F41092DD041092C4
:10065000DE041092DF041092E004E0E0F8E3099574
:1006600024E0AAEAB2E001C01D92AD3DB207E1F775
:1006700012E0A0E0B1E0E4ECF1E602C005900D92DA
:10068000AA3AB107D9F70E945A290C9461300C9408
:100690000000E8EDF0E080818E7F80831092E20020
:1006A0001092DA001092E100A0EEB0E08C9181602F
:1006B0008C9380818F77808319BCA7EDB0E08C91FB
:1006C0008E7F8C9380818F7E808310928F0408951B
:1006D0002091E4003091E50095E6A9012091EC001D
:1006E000822F817020FF06C08091E80080FF06C045
:1006F00080E008952091E80022FD1AC080919C04BA
:10070000882389F0853089F08091EB0085FD0FC04A
:100710002091E4003091E50042175307F9F291501F
:10072000E1F684E0089582E0089583E0089581E091
:100730000895EF92FF920F931F93CF937C018B014B
:100740000E946803C82F811117C08091E80085FDC1
:100750000BC08091E8008E778093E8000E946803C8
:10076000882399F3C82F08C0F70181917F018093F6
:10077000F1000150110949F78C2FCF911F910F9172
:10078000FF90EF90089580919E0487FF13C08091A1
:10079000E80082FF06C08091E8008B778093E80034
:1007A00004C080919C048111F2CF089580919C0433
:1007B0008823D9F38091E80080FFF8CF8091E8008A
:1007C0008E77ECCF982F9093E900242F762F50E06E
:1007D000891731F07091EC002091ED005091F000FC
:1007E00021FD07C09F5F973071F78093E90081E09A
:1007F00008953091EB003E7F3093EB003091ED0097
:100800003D7F3093ED003091EB0031603093EB0091
:100810007093EC002093ED005093F0002091EE00D7
:1008200027FDE0CF80E00895CF92DF92EF92FF9214
:100830000F931F93CF93DF93C8EDD0E088818F7E15
:100840008883E7EDF0E080818160808384E082BF6F
:1008500081E080938F0488818E7F888302EE10E090
:10086000F80110821092DA0081EEC82ED12CF60128
:10087000108288818F7788838881806888838881C7
:100880008F7D888319BC10929C0410929D04109255
:100890009B0410929A0490EEE92EF12CF7018081CE
:1008A0008B7F808388818160888342E060E080E084
:1008B0000E94E203F60180818E7F8083F8018081AF
:1008C00081608083808188608083F70180818E7F52
:1008D0008083888180618883DF91CF911F910F9100
:1008E000FF90EF90DF90CF900895FC01CB01209115
:1008F000A4043091A5042617370790F0009729F437
:100900002091E8002E772093E80040E0009751F412
:10091000411108C08091E80082FF31C080E0089555
:10092000C901F3CF20919C042223A9F12530A9F11C
:100930002091E80023FD2DC02091E80022FDEACFA0
:100940002091E80020FFE2CF3091F3002091F200E7
:10095000009719F02830310558F041E02830310572
:1009600009F040E02091E8002E772093E800CECFF8
:1009700041914093F10001972F5F3F4FE9CF809164
:100980009C04882341F0853041F08091E80083FF8A
:10099000C1CF81E0089582E0089583E0089508952D
:1009A0008091910408959C014FB7F8948091880438
:1009B00090918904A0918A04B0918B044FBF821B4F
:1009C000930B08952FB7F89480918804909189042F
:1009D000A0918A04B0918B042FBF08959C01FC0163
:1009E00032968FEF90E04191461751F08F3F19F406
:1009F000411101C0892F9F5F9630A9F78F3F09F4FD
:100A00000895280F311D87FD3A95F90162830895F5
:100A100020918504309186042817390771F090934E
:100A2000860480938504E0918304F09184043097D8
:100A300021F00084F185E02D09940895209181042E
:100A4000309182042817390771F0909382048093C3
:100A50008104E0918304F0918404309721F00680B2
:100A6000F781E02D09940895E0918304F0918404C6
:100A7000309721F00190F081E02D099480E00895F5
:100A8000FA0181110994FB01FDCFEAE9F3E08183CA
:100A900060834283339694E0E138F907C1F7089503
:100AA000FC01EE0FFF1FE80FF91FE656FC4F6183B4
:100AB000408322830895EAEAF4E0248130E1231B95
:100AC00008F420E024838091990381608093990346
:100AD0000895EAEAF4E0248130E1230F08F42FEFCF
:100AE0002483809199038160809399030895922FC4
:100AF0002091AA04237071F08093AB046093AC043E
:100B0000473908F046E94093AD0420919903292B19
:100B1000209399030895EAEAF4E0438120E1421B1F
:100B200008F440E0818121E0628190E00C94770537
:100B3000EAEAF4E0438120E1420F08F44FEF8181BB
:100B400021E0628190E00C947705EAEAF4E06281AA
:100B500020E1621B08F460E0818121E0438190E0A4
:100B60000C947705EAEAF4E0628120E1620F08F470
:100B70006FEF818121E0438190E00C947705EAEAF0
:100B8000F4E0818121E0438162818850990B0C94CB
:100B90007705EAEAF4E0818190E021E04381628117
:100BA00008960C947705262F9091AA04937061F013
:100BB00081110BC094609093AA041092120160916D
:100BC0009903622B609399030895883210F09C6911
:100BD000F2CF880F880F982BEECF9091AA049695AC
:100BE00096958FEF890F913009F487E261E00C94BC
:100BF000D3058091AA04869586958F5F883208F088
:100C000081E061E00C94D305EF92FF920F93282FBF
:100C1000C701801B91098F3F910519F010F08FEFEC
:100C200090E08095382F230F08F42FEF822F0F913B
:100C3000FF90EF900895EF92FF920F93282FC70136
:100C4000801B91098F3F910519F010F08FEF90E014
:100C5000382F3095230F08F42FEF680F822F0F9154
:100C6000FF90EF900895EF92FF920F93972FFA0164
:100C7000B9019701093430F4201B31092F3F3105A8
:100C800019F010F02FEF30E03896719740F0AB017B
:100C9000485F5F4F4131510510F02FEF30E0209554
:100CA000382F320F08F43FEF77FF02C06D5F7F4FA0
:100CB00075956795759567958091AB04680F792F49
:100CC000832F0F91FF90EF900895EF92FF920F9373
:100CD0001F93E00EF11C890137FF03C011950195A8
:100CE000110924E0000F111F2A95E1F70F3F1105AC
:100CF00019F014F00FEF10E09A0157FF03C031957F
:100D00002195310994E0220F331F9A95E1F72017BE
:100D100031070CF489010E0D1F1D0F3F110519F04D
:100D200010F00FEF10E00095282F200F08F42FEFA0
:100D3000822F1F910F91FF90EF900895EF92FF92F5
:100D40000F93282FC70135E0039F800D911D1124BB
:100D50008F3F910519F010F08FEF90E08095382FBC
:100D6000230F08F42FEF822F0F91FF90EF9008953B
:100D700022E8241B08F420E0620F08954095282FF4
:100D8000429F412D1124842F0895E42FF0E0EE0FAF
:100D9000FF1FEE53FE4F9081921B97FD9195292FD7
:100DA00038E1239F212D1124620F08950F931F9383
:100DB000522F10E0F801EE0FFF1FEE53FE4F90810F
:100DC000905797FD9195000F111FF801ED53FE4FBD
:100DD00000810052110B50039001519F300D1124DE
:100DE00008E310E0091B110997FD13954003F0017A
:100DF000419FF00D1124E20FF31F9F01220F331FBB
:100E00002E0F3F1F37FF02C021583F4F220F232FC5
:100E1000221F330B620F1F910F9108950F931F93A1
:100E2000522F10E0F801EE0FFF1FED53FE4FA0818F
:100E3000A052BB0B9D015203F001539FF00D1124F2
:100E4000000F111FD801AE53BE4F0C910057110B6C
:100E500040039001419F300D11242E0F3F1F37FF9B
:100E600002C0215C3F4F96E0359527959A95E1F7B2
:100E7000620F1F910F9108950F931F93522F10E04F
:100E8000F801EE0FFF1FED53FE4FA081A052BB0BE8
:100E90009D015203F001539FF00D1124000F111F0B
:100EA000D801AE53BE4F0C910057110B4003900177
:100EB000419F300D11242E0F3F1F37FF02C02158D4
:100EC0003F4F220F232F221F330B620F1F910F91D1
:100ED0000895EF920F93972F23E0029FB001112402
:100EE000759567956E0D792F0F91EF900895322FBC
:100EF00050E0FA01EE0FFF1FED53FE4F908190522C
:100F000097FD9195440F551FFA01EE53FE4F208136
:100F1000231B330B290F311D97FD3A95620F08955E
:100F2000E42FF0E0EE0FFF1FED53FE4F6081621BD8
:100F30000895E42FF0E0EE0FFF1FEE53FE4F6081A7
:100F4000621B0895622F0895582FA22FE42FF0E01E
:100F5000EE0FFF1FEE53FE4F208134EE239F212D15
:100F6000112490E030E0245E3F4F2A1B310937FF07
:100F700003C031952195310943E0220F331F4A9573
:100F8000E1F7821B930B97FD80E0282F259F212DF1
:100F90001124822F08951F93172F922FE42FF0E032
:100FA000EE0FFF1FEE53FE4F208134EE239F212DC5
:100FB0001124472F50E030E0245E3F4F291B3109B8
:100FC00037FF03C031952195310993E0220F331F7C
:100FD0009A95E1F7421B530B57FD40E0742F719F28
:100FE000712D11241F9108950C9445050C94500502
:100FF000FC019B01009729F480E077FF2BC080E87B
:101000000895AC0197FF04C044275527481B590B8E
:10101000B901640F751F37FD10C0241B350BC901C2
:10102000A5E0880F991FAA95E1F70E94DB2E80E2C8
:10103000861BF7FF0FC081950895CB0165E0880FEF
:10104000991F6A95E1F7BA01621B730B0E94DB2EB0
:1010500080E6EECF0895EF920F93CF93DF93D72FD3
:10106000C82FBA01C9010E190E94F807602F681B2A
:101070007D2F8C2FDF91CF910F91EF9008950F93DB
:10108000CF93DF93D72FC82FBA01C9010E94F80769
:10109000682F600F7D2F8C2FDF91CF910F910895D6
:1010A000EF920F931F93CF93DF93D62FC72F182F55
:1010B000BA01C9010E19010F0E94F807081B019F10
:1010C000012D11246D2F7C2F802FDF91CF911F9147
:1010D0000F91EF900895EF920F931F93CF93DF93AB
:1010E000D62F172FC82FBA01C9010E19010F0E9460
:1010F000F807702F781B719F712D11246D2F8C2F85
:10110000DF91CF911F910F91EF9008950F931F934F
:10111000CF93DF93D62FC72F182FBA01C901212FE4
:10112000201B022F0E94F807982F990F990F282F44
:10113000291B200F219F212D11246D2F7C2F822F01
:10114000DF91CF911F910F9108950F931F93CF932C
:10115000DF93D62F172FC82FBA01C901212F201BCB
:10116000022F0E94F807982F990F990F782F791B5B
:10117000700F719F712D11246D2F8C2FDF91CF91E6
:101180001F910F910895982FE82F96FDE0952E2F2F
:101190002F7096FD2F5FE695E695E695E670F0E0F8
:1011A000E05AFE4F8181829F802D212D112482954E
:1011B0008F702295207F822B2081820F97FD819551
:1011C000805808950F931F93CF93DF938B01D82FEF
:1011D000C42F822F0E94C308EC2FF0E0EE0FFF1FF8
:1011E000EE53FE4F90819058980F97FD9195990F6F
:1011F000692F2CE0629F612D1124600F712F8D2FBC
:10120000DF91CF911F910F9108959C01823091053C
:1012100008F408959FEF213E8EE1380740F4C9019C
:1012200045E0969587954A95E1F798E0980F61E03B
:10123000E62FE90FFF27FF1FAF0155954795842F34
:10124000449FF001459FF00DF00D11242E173F072C
:1012500038F49FEF940F961758F78FEF860F089585
:101260004F3FE9F361E0640FF6CF0F93CF93DF9325
:10127000D72FC82FF90147FD419528E330E0241B03
:10128000310947FD3395229FA001239F500D500D3A
:101290001124EE9FC001EF9F900D900D1124840F3B
:1012A000951F0E940509982F990F692F680F600FED
:1012B0007D2F8C2FDF91CF910F9108959C0190E0AD
:1012C00080E0269F812D369F800D911D1124089569
:1012D000AF92BF92CF92DF92EF92FF920F931F9344
:1012E000CF93DF93262F472FE82FF0E0E75CFD4FE9
:1012F00071110FC06491862FE62F7E2FDF91CF9161
:101300001F910F91FF90EF90DF90CF90BF90AF9023
:101310000895E72EF12CE49186E0689F8001112466
:10132000CFEFD0E0C801BE010E94C72EDB0130E044
:10133000220F331F55E5569FC001579F900D112472
:10134000281B390B622F660F260FCE018E199F09BD
:10135000E89F6001E99FD00C11246D2D429FA001F0
:101360001124452F5527CE01841B950BE89FA00122
:10137000E99F500D1124852F5E01A21AB108AE9C81
:101380009001AF9C300DBE9C300D1124232F3327CC
:10139000C21BD30BEC9F9001ED9F300D1124A330A5
:1013A000B105B1F00C3F93E0190760F4A130B1052D
:1013B00099F01297A9F00F3F110508F09ECF8D2DDF
:1013C000632F9BCFA430B10571F01697C1F395CF71
:1013D000652F8E2FED2D91CF6E2FE52F8D2D8DCF7B
:1013E000832F6E2FF7CF8E2FE32F87CF2F923F9231
:1013F0004F925F926F927F928F929F92AF92BF9225
:10140000CF92DF92EF92FF920F931F93CF93DF93D0
:10141000CDB7DEB729970FB6F894DEBF0FBECDBFAC
:10142000282E6A837B83209114012295207F2E83AE
:10143000205F29832C832E3410F03DE43C8380917F
:10144000B0048D83FE81EF2FF0E0F987E887CF01AC
:10145000880F991F9C012E533E4F6901822D90E009
:10146000FC013196FF83EE838C8198859817F0F00C
:1014700081E0E981ED3408F080E029960FB6F89418
:10148000DEBF0FBECDBFDF91CF911F910F91FF90B7
:10149000EF90DF90CF90BF90AF909F908F907F9014
:1014A0006F905F904F903F902F900895E885F98559
:1014B000E45AFD4F8081909115018923F1F040900D
:1014C000AB045090AC042E813F8120553B4F390135
:1014D000322C10E0FD813F16D0F02091AD04129F18
:1014E000112D1124B201812F0E946809462F672F08
:1014F000282F888599850E94F607288539852F5FD2
:101500003F4F3987288732E0C30ED11CADCFF3019E
:1015100081913F01F601A080A81ABB088180F301E8
:101520008781881A9908AA9C9001AB9C300D300DD8
:101530001124889CC001899C900D900D1124820F6C
:10154000931F0E940509082F6091AE0421E0620FED
:1015500008F46FEFF301EE0FFF1FE05BF4408589A5
:1015600096890E945E097C019401A501B201812F38
:10157000EA81FB8109952B01182F3394ABCFCF92D1
:10158000DF92EF92FF920F931F93CF93DF938C0123
:10159000C0911401C295C07F20E1D22EDC0ECD2C6B
:1015A0002DE42D1510F49DE4C92E2091AE0431E0F8
:1015B000230F08F42FEF30E050E040E06FEF7FEFB3
:1015C00080E090E00E94FE2F7901D0E02C2FCC1516
:1015D00070F081E0FCE4FD1508F480E0DF91CF912C
:1015E0001F910F91FF90EF90DF90CF900895FE0133
:1015F000E45AFD4F808190911501892311F14091AA
:10160000B0044150042E000C550B47FF1CC0C7010D
:101610006091AE0421E0620F08F46FEF0E945E0952
:10162000AC016091AB047091AC048091AD04F80101
:1016300009950E946809462F672F282FCE010E9426
:10164000F6072196C3CFFA01E055FB4F818982133B
:101650000AC0FA01EE0FFF1FE055FB4F818D928DFE
:101660008E159F05A8F241505109CFCFDF92EF921E
:10167000FF920F931F93CF93DF937C01C0911401CE
:10168000C295C07F10E11C0FD12E1E3410F08DE4E6
:10169000D82E6091AE046695669521E0620F08F43D
:1016A0006FEF8091A6049091A7040E945E09082F15
:1016B000D0E0CD1560F081E01D3408F080E0DF91CE
:1016C000CF911F910F91FF90EF90DF900895FE0151
:1016D000E45AFD4F808190911501892391F060912A
:1016E000AB047091AC048091AD04202F4C2FF70116
:1016F00009950E946809462F672F282FCE010E9466
:10170000F6072196D6CFBF92CF92DF92EF92FF924B
:101710000F931F93CF93DF9300D000D00F92CDB7DC
:10172000DEB76C01809114018295807F8B8390E1FC
:10173000F92EF80EBF2C9DE49F1510F48DE4B82E01
:101740006091AE04669566958091A6049091A70479
:101750000E945E09182F80E4810F0E94C308805800
:101760008983812F0E94C30880588A83FB81EF2FD1
:10177000F0E0FD83EC839C819B15A0F081E0ECE41C
:10178000EF1508F480E00F900F900F900F900F90DE
:10179000DF91CF911F910F91FF90EF90DF90CF904D
:1017A000BF900895EC81FD81E45AFD4F80819091B6
:1017B00015018923A9F06091AB047091AC0480916C
:1017C000AD04E12E0C812A814981F60109950E9420
:1017D0006809462F672F282F8C819D810E94F6076C
:1017E0008C819D8101969D838C83C5CF7F928F9242
:1017F0009F92AF92BF92CF92DF92EF92FF920F93A0
:101800001F93CF93DF934C01C0911401C295C07F09
:1018100010E11C0F712E1E3410F09DE4792E6091A2
:10182000AE0466958091A6049091A7040E945E097B
:10183000F82ED0E0C71590F081E01D3408F080E06C
:10184000DF91CF911F910F91FF90EF90DF90CF909C
:10185000BF90AF909F908F907F900895FE01E45AC3
:10186000FD4F8081909115018923B9F19E01220FCE
:10187000331FF901EE53FE4F8081482F4057550B1F
:101880006A012D533E4FF9018081282F2052330BDE
:101890005901449F9001459F300D300D1124AA9CA1
:1018A000C001AB9C900D900D1124820F931F0E94DC
:1018B0000509082F6091AB047091AC048091AD04D0
:1018C000EF2C9501A601F40109950E946809462FA5
:1018D000672F282FCE010E94F6072196ABCFCF921B
:1018E000DF92EF92FF920F931F93CF93DF937C01D0
:1018F000C0911401C295C07F10E11C0FC12E1E348F
:1019000010F09DE4C92E6091AE0466958091A60406
:101910009091A7040E945E09D82ED0E0CC1568F003
:1019200081E01D3408F080E0DF91CF911F910F918D
:10193000FF90EF90DF90CF900895FE01E45AFD4FA5
:10194000808190911501892301F1AE01440F551F4B
:10195000FA01ED53FE4F20812052330B4E535E4F60
:10196000FA0140814057550B6091AB047091AC0473
:101970008091AD040D2DF70109950E946809462F4D
:10198000672F282FCE010E94F6072196C7CF0E940D
:10199000E2042091670330916803232B21F08093A8
:1019A0006303909364032091690330916A03232BAE
:1019B00021F08093610390936203E0918304F0919E
:1019C0008404309749F082E0809365030480F581B8
:1019D000E02D85E693E00994089540916703803FE8
:1019E00059F48091680387FF0DC01092680341117C
:1019F0000BC010925F0308C0813F81F4809168039F
:101A000018169CF3442381F08091690390916A0336
:101A1000892B09F05AC010925E030895823F49F461
:101A200047FFF0CF10926703809168038111ECCFDC
:101A3000E0CF833F19F41416ACF3E4CF909169031F
:101A4000893F29F41916F4F610926903DBCF8A3F17
:101A500019F497FFD7CFF8CF90916A038B3F29F401
:101A600097FFD0CF10926A03CDCF8C3F19F419168F
:101A7000CCF3C8CF9CE0980F953090F4845F990B1D
:101A800021E030E0B90102C0660F771F8A95E2F7C6
:101A9000CB01809590916603892380936603B2CF32
:101AA0008D3F31F4809160038E7F80936003AACFD5
:101AB0008E3F21F4809160038D7FF7CF8F3F09F037
:101AC000A1CF809160038B7FF0CF08958091600358
:101AD00080FD16C081FD16C082FD16C080915E0398
:101AE0008823A1F0883280F428E0829FC00111246D
:101AF00068E270E00E94DB2E862F672B39F0089594
:101B000082E0089584E0089588E0089581E00895D2
:101B10008091600380FD14C081FD14C082FD16C059
:101B200080915F03882381F08E3180F420E5829FCD
:101B3000C00111246EE170E00E94DB2E862F089513
:101B400084E1089588E2089588E0089580E5089585
:101B5000803F31F40E94880D819580936803089539
:101B6000813F19F40E94880DF8CF823F31F40E9422
:101B7000880D8195809367030895833F19F40E942F
:101B8000880DF8CF893F29F40E94660D8093690380
:101B900008958A3F21F40E94660D8195F7CF8B3F0F
:101BA00031F40E94660D819580936A0308958C3FFD
:101BB00019F40E94660DF8CF9CE0980F953070F4F0
:101BC000845F990B21E030E001C0220F8A95EAF78B
:101BD00080916603822B8093660308958D3F31F4D4
:101BE0008091600381608093600308958E3F21F4AB
:101BF000809160038260F7CF8F3FB9F780916003D7
:101C00008460F1CF80E00895F894E82FE295EF70BA
:101C1000F0E041A18F7021E030E0B90102C0660F11
:101C2000771F8A95E2F7CB01962F9095942391A385
:101C300092A1892B82A3789408959091460392FFF4
:101C400006C0282F28712830F9F4877F846093FF1D
:101C500006C0282F28712831F1F4877E84612091F5
:101C6000470320FF06C0382F38713830D9F4877FFA
:101C7000816021FF06C0282F28712831D1F4877E8A
:101C8000816194FD877E0895282F24712430F9F610
:101C90008B7F8860DCCF282F2471243101F78B7E65
:101CA0008861DDCF382F3171313019F78E7F886030
:101CB000E0CF282F2171213121F78E7E8861E1CF7D
:101CC000CF93DF93EC01803E910509F460C050F59D
:101CD0008133910509F4A6C090F48932910509F485
:101CE0009AC08A9709F4A5C0C130D10509F462C031
:101CF000CE010497813A910508F055C05BC0893345
:101D00009105F1F182389105D9F1C59709F47CC0AC
:101D1000C83AD10508F094C0C53AD10528F3A49774
:101D2000D06448C0843E910509F453C068F4823EF3
:101D30009105E1F1833E910509F440C0CE01805E3A
:101D40009109089780F536C0863E910509F44CC08C
:101D5000873E910509F44DC0811522E5920708F0F0
:101D6000AAC0811531E5930708F0FAC08F3F9105AD
:101D700011F008F074C0803F910550F2D0651AC090
:101D8000809146038370B1F0C0EED0E013C0809123
:101D9000460380FD12C19091470390FF0BC0C3EE34
:101DA000D0E084FF07C0D0E0C0E004C080914603CB
:101DB00082FDF5CFCE01DF91CF910895809146034A
:101DC00082FDFEC09091470390FDDECF84FFF2CFED
:101DD000EACF8091470381FFEDCF80914603C7EEA4
:101DE000D0E084FDE0CFE6CF8091460383FDF7CFBE
:101DF000E1CF8091460383FDE6C09091470391FFB8
:101E0000E5CFC4EED0E0D6CF8091460385FFD2CF98
:101E1000C9E2D0E0CFCF8091460385FFCBCFC5E3A9
:101E2000D0E0C8CF8091460386FFC4CFCAE2D0E09D
:101E3000C1CF8091460386FFBDCFC1E3D0E0BACFCA
:101E4000CF3BD10508F07ACFC85AD0E0CC0FDD1FC8
:101E5000C25EDE4F0990D881C02DD464ABCF81150E
:101E600040E5940760F4C11580E4D80708F075C018
:101E7000CE019A9581159F4108F49CCF94CFF4E050
:101E800096958795FA95E1F783702C2F26952695E0
:101E9000237040E2249F90011124382B8C2F8370F3
:101EA000C1E0D0E002C0CC0FDD1F8A95E2F7C22B63
:101EB000D32BDC687FCFC11586E5D80730F5C11577
:101EC00095E5D90708F060C0C11524E5D207C0F434
:101ED0009C2F969596959E0123703327C115D34567
:101EE00008F043C0C1E0D0E002C0CC0FDD1F2A954E
:101EF000E2F720E2929FC0011124C82BD92BD9CF41
:101F0000DC2FCC27C46FD06A55CFC1153AE5D30773
:101F100088F4C11549E5D40708F041C0CE019855B1
:101F20008F3F910511F008F03ECFDC2FCC27C06F1A
:101F3000D06A40CFCE0190568115904208F033CF41
:101F40008D2F8F710E941D0E90E0982F8827882773
:101F50009F719C012C2BE90120C0DF70D06A2ACF31
:101F6000D82FCC27C16FD06A25CFC1E0D0E002C006
:101F7000CC0FDD1F2A95E2F730E2939FC0011124B8
:101F8000C82BD92BDA6816CF8C2F0E941D0EC82FB4
:101F9000D0E0DC2FCC27CC27DF71D0620BCF8C2F89
:101FA0008F700E941D0E34E0D695C7953A95E1F7E3
:101FB000CF70DC2FC82FD069FDCEC9E3D0E0FACEB8
:101FC000C2EED0E0F7CEC6EED0E0F4CE809137037B
:101FD0008111109237030895982F909580913603C0
:101FE000892380933603089580912B039091FA0200
:101FF000981301C008958F5F8770FACFE82F2FE004
:10200000929FE00D11249E2F9770E695E695E69538
:1020100083E0E89FF0011124EA52FD4F50E040E0D8
:1020200080E0219130E0092E02C0369527950A9470
:10203000E2F721703327042E01C0220F0A94EAF739
:10204000822B4F5F5F4F4330510559F70895E82FBA
:102050002FE0929FE00D11248E2F877041E001C088
:10206000440F8A95EAF7E695E695E69583E0E89FC2
:10207000F0011124EA52FD4F30E020E070E0519170
:10208000DF011197CB01022E02C0969587950A9425
:10209000E2F7817081958527842385278C932F5FB4
:1020A0003F4F2330310559F7089580938C04709386
:1020B0008E0460938D0480919C048430F9F48093A5
:1020C000E9008FEF9091E800815095FD06C095EDF5
:1020D0009A95F1F700008111F5CF8091E80085FF16
:1020E0000DC050E040E063E070E08CE894E00E94B6
:1020F00099038091E8008E778093E8000895BC01F1
:1021000084E00C945510BC0183E00C94551024E03D
:102110002093E9002FEF3091E800215035FD06C0F3
:1021200035ED3A95F1F700002111F5CF2091E80047
:1021300025FF0BC050E040E066E070E00E9499038C
:102140008091E8008E778093E8000895CF93DF9325
:10215000D82FC92F81E08093E9008FEF9091E8009C
:10216000815095FD06C095ED9A95F1F7000081111B
:10217000F5CF8091E80085FF16C050E040E068E0B0
:1021800070E08D2F9C2F0E9499038091E8008E773C
:102190008093E80088E0ED2FFC2FA2E9B4E00190E5
:1021A0000D928A95E1F7DF91CF91089581E08093B8
:1021B000E00080E28093D8001092C9008FE19EE495
:1021C0000197F1F700C0000087E090EBDC018093FD
:1021D000DD049093DE04A093DF04B093E00488E173
:1021E0009CE00FB6F894A895809360000FBE909382
:1021F0006000FFCF809A31B33E7F21B321604FB79B
:10220000F8948AE993E0FC010196508168E021BBD3
:10221000000000C057FF31BB550F000000C000C0D8
:1022200000C031BB00C06A9591F754E08138950732
:1022300051F74FBF8FE594E00197F1F700C0000020
:102240000895CF93DF93CFE7D2E060E0CE010E9404
:10225000DA2F2196C11584E0D807B9F7DF91CF9125
:1022600008956F927F928F929F92AF92BF92CF927A
:10227000DF92EF92FF920F931F93CF93DF93D12CB6
:10228000C12C3BEDA32EB12CE501C659D109360175
:102290001BC0F70185909490692DC8010E94DA2F28
:1022A000682DC80101960E94DA2F22E0E20EF11C8F
:1022B0000E5F1F4FC017D10761F73FE0630E711C1F
:1022C0006E96CA15DB0559F0C301880F991F9C0152
:1022D000275C3C4F79018E010E511109DACFCE01F6
:1022E0008A569F4F5C019BE4C90ED11CCD39D24068
:1022F00059F6DF91CF911F910F91FF90EF90DF90F2
:10230000CF90BF90AF909F908F907F906F900895E7
:10231000CF93DF93C82FDFEF8111D2E26D2F83E2DD
:1023200090E00E94DA2F6FEFC11164E084E290E048
:102330000E94DA2F6D2F85E290E0DF91CF910C940F
:10234000DA2F80E00E94881160E086E290E00E942F
:10235000DA2F0E9431110E94211181E00C94881122
:102360000F931F93CF93DF93C42FD0E0CC0FDD1FCB
:102370002EE1629FC00DD11D112436E9839FC00D4F
:10238000D11D1124CE0187960E94BC2F082F10E08A
:10239000102F0027CE0188960E94BC2F9801282B71
:1023A000C901DF91CF911F910F910895462F672F9B
:1023B000843030F4753020F44F3010F40C94B011A8
:1023C00090E080E00895DF92EF92FF920F931F93C9
:1023D000CF93DF937C010091DC0480913803082BBC
:1023E000C7E0D0E010E0DC2EC8010C2E02C09595AD
:1023F00087950A94E2F780FD0CC02197A0F7D12CB5
:102400008D2DDF91CF911F910F91FF90EF90DF9075
:102410000895B7018C2F0E94D6110E94600E01977B
:1024200061F3EECFCF93DF93D82FC92F0E94E31132
:102430006D2F7C2F0E94D611DF91CF910C94600EEE
:10244000FC01808191810E941212282F92959F7029
:10245000963091F060F4925F9F70923030F481E09A
:10246000203F81F030F4283E30F080E008959A5FFC
:10247000F3CF243FD1F7089581E0283EE0F3213FD8
:10248000A1F7F9CF089583E290E00E94BC2F823239
:1024900089F484E290E00E94BC2F843059F485E2F4
:1024A00090E00E94BC2F91E0823209F090E0892FE9
:1024B0008170089580E0FCCFCF9384E090E00E948B
:1024C000BC2FC82F82E290E00E94BC2F982F8C2F47
:1024D000CF9108951F93CF93DF93EC01FC01E45A51
:1024E000FD4F80816823C9F00E94862F182F0E941B
:1024F000862F782F7F7720E8720F08F47FEF612F07
:102500008091AD040E946809462F672F282FCE01C5
:10251000DF91CF911F910C94F607DF91CF911F911E
:102520000895DF92EF92FF920F931F93CF93DF9363
:10253000EC01FC01E45AFD4F8081682381F1D090C9
:10254000AC040091AD041091AB04E12EF12C0E947B
:10255000862F282FC7018C549F4F68E671E00E9498
:10256000DB2E8E199F0997FD039695958795959576
:1025700087952370612F289F600D11247D2D802F5A
:102580000E946809462F672F282FCE01DF91CF9137
:102590001F910F91FF90EF90DF900C94F607DF9161
:1025A000CF911F910F91FF90EF90DF9008959F9230
:1025B000AF92BF92CF92DF92EF92FF920F931F9351
:1025C000CF93DF93182F80911101811323C0909135
:1025D000AA0493702091100130E081E09217130655
:1025E00009F480E08170809316018091AF0490918E
:1025F0001501981739F08093150140E060E080E004
:102600000E94F407183260F4E12FF0E0ED59FF4C1E
:102610000C94EF2E81E0E6CF80911601811102C06B
:10262000C0E08EC140E060E080E00E94F407F8CF97
:10263000C0911401C295C07F00E10C0FC02E0E3472
:1026400010F0ADE4CA2E6091AB047091AC0480919F
:10265000AD040E946809F62EE72ED82ED0E0CC15E6
:1026600028F0C1E00D3408F46BC1DACFFE01E45A62
:10267000FD4F808190911501892331F02D2D4F2D33
:102680006E2DCE010E94F6072196E9CFC09114016C
:10269000C295C07F00E10C0F902E0E3410F0FDE4C7
:1026A0009F2EB090AC04C090AD04D091AB046D2FC0
:1026B0007B2D8C2D0E946809F62EE72ED82E609176
:1026C000AE046D0F7B2D8C2D0E946809C62EB72E8F
:1026D000A82ED0E0C91528F6FE01E45AFD4F9081DE
:1026E00080911501892359F02A2D4C2D6B2D90FDD9
:1026F00003C02D2D4F2D6E2DCE010E94F607219681
:10270000E9CFC0911401C295C07F00E10C0FE02E0B
:102710000E3410F0EDE4EE2ED090AC04C090AD0479
:102720002091AE0470E4F72E3F2D329F312D1124FD
:10273000F32ED0E0CE1508F094CFFE01E45AFD4F01
:102740008081909115018923B9F0FE01EE0FFF1FE2
:10275000ED53FE4F808182958F706091AB048F9D09
:10276000600D11247D2D8C2D0E946809462F672F46
:10277000282FCE010E94F6072196DCCFC0911401CC
:10278000C295C07F00E10C0FE02E0E3410F05DE426
:10279000E52ED090AC04C090AD042091AE0440E48E
:1027A000F42E3F2D329F312D1124F32ED0E0CE1583
:1027B00008F057CFFE01E45AFD4F8081909115013A
:1027C0008923D9F0FE01EE0FFF1FEE53FE4F60810B
:1027D000F69EB001112435E0759567953A95E1F7BD
:1027E0008091AB04680F7D2D8C2D0E946809462FC7
:1027F000672F282FCE010E94F6072196D8CFC091CF
:102800001401C295C07F00E10C0FC02E0E3410F0F1
:102810009DE4C92EF090AB04D091AC04E090AD04DF
:102820006091AE046695669566958091A604909138
:10283000A7040E945E090E94C30890E8980F97FDC4
:102840009195990F292F3E2D239F212D11246F2D16
:102850007D2F822F0E946809F62EE72ED82ED0E019
:10286000CC1508F0FECEFE01E45AFD4F8081909118
:102870001501892331F02D2D4F2D6E2DCE010E9493
:10288000F6072196EDCF8BEC97E00E94360B07C040
:1028900084EA97E0FACF85EA98E00E946F0CC82F8F
:1028A0004FC086E898E0F9CF8BE698E00E94F60BDF
:1028B000F6CF80E598E0FACF82EA97E0E6CF89E9A3
:1028C00097E0E3CF80E997E0E0CF87E797E0DDCFBF
:1028D00089E697E0EBCF85E399E0DFCF8FE398E0DF
:1028E000DCCF8BE298E0E2CF8CE397E00E94830B91
:1028F000D6CF8EE097E0FACF86ED96E0F7CFC09185
:102900001601C1113CC06091AE0420E1620F08F4D1
:102910006FEF8091A6049091A7040E945E096AE07F
:1029200070E00E94C72E892B09F07ACE0E94862F74
:102930006DE470E00E94DB2E609115010E949112FF
:10294000809114018F5F80931401C1110CC082E04B
:102950008093120180911601811105C0111103C0ED
:1029600083E080931201DF91CF911F910F91FF902F
:10297000EF90DF90CF90BF90AF909F900895C0915F
:102980001401C295C07F00E10C0F802F0E3408F0B7
:102990008DE4D0E0E82EF12CCE15DF050CF061CEF1
:1029A00060911501CE010E9491122196F5CFC09140
:1029B0001601C1111EC06091AE0420E1620F08F43F
:1029C0006FEF8091A6049091A7040E945E0965E0D4
:1029D00070E00E94C72E892B09F022CE0E94862F1C
:1029E0006DE470E00E94DB2E609115010E946A1276
:1029F000A7CFC0911401C295C07F00E10C0F802FBA
:102A00000E3408F08DE4D0E0E82EF12CCE15DF0571
:102A10000CF027CE60911501CE010E946A1221961A
:102A2000F5CFC0911401C295C07FD0E1DC0FDD2E3F
:102A3000DE3410F08DE4D82EE090AC04F090AD04BC
:102A40000091AB046091AE046695669566958091A1
:102A5000A6049091A7040E945E090E94C30890E812
:102A6000980F97FD9195990F692F2CE0629F612D2A
:102A70001124600F7E2D8F2D0E946809F62EE72EFF
:102A8000082FAC2EB12CAD1428F0C1E0DD3408F4D1
:102A900057CFC6CDF501E45AFD4F808190911501C5
:102AA000892331F0202F4F2D6E2DC5010E94F6078E
:102AB0003FEFA31AB30AE7CF82EE98E0E6CE85ECAB
:102AC00096E0E3CE8EEB96E00E94BF0AE8CE88EB5C
:102AD00096E0FACF2091B00431E0231B08F420E007
:102AE0006EE976E0822F0E94F609D9CE6EE976E093
:102AF00080E0F9CF2091B00431E0231B08F420E0FE
:102B000065E676E0EFCF65E676E0F2CF2091B0049F
:102B100031E0231B08F420E063E376E0E3CF63E3D6
:102B200076E0E6CF2091B00431E0231B08F420E0EA
:102B30006BE176E0D7CF6BE176E0DACF2091B0049D
:102B400031E0231B08F420E064E076E0CBCF64E0C2
:102B500076E0CECF46E050E06CE170E08AEA94E0A7
:102B60000E94CA2F1092990308958F929F92AF925C
:102B7000BF92CF92DF92EF92FF921F93CF93DF939A
:102B80008091940390919503A0919603B09197033F
:102B90002FB7F8948090880490908904A0908A04BC
:102BA000B0908B042FBF75016401C81AD90AEA0AD4
:102BB000FB0A2FB7F89440918804509189046091E2
:102BC0008A0470918B042FBF409394035093950314
:102BD000609396037093970310916B03EBE6F3E019
:102BE000C12FD0E00197AF4FBF4F88199909AA09AB
:102BF000BB091D132DC0C0936B03809198038111F5
:102C00003AC09091AA04892F837019F0892F869574
:102C1000869590911201923009F44AC070F5911195
:102C20003AC0109214014093A6045093A7046093F5
:102C3000A8047093A90489E2EBE6F3E0A0EBB4E00A
:102C400001900D928A95E1F781E08093120117C0FF
:102C5000218D328D4901B12CA12C88159905AA0529
:102C6000BB0520F4C150DF5F3296C3CF2C0D3D1D54
:102C7000328F218FF8CF80E0CCCF933021F1DF91DC
:102C8000CF911F91FF90EF90DF90CF90BF90AF90CA
:102C90009F908F900895DF91CF911F91FF90EF90BB
:102CA000DF90CF90BF90AF909F908F900C94D712F1
:102CB000809311018091AA048370809310010E9477
:102CC000FA1083E0C2CF8091990381110E94AA1566
:102CD0004091A6045091A7046091A8047091A904A2
:102CE0002FB7F8948091880490918904A0918A0468
:102CF000B0918B042FBF841B950BA60BB70B40978D
:102D0000A105B10508F4BBCF10921201B8CFEAEAD1
:102D1000F4E085E380838091170190911801A091E0
:102D2000190181839283A3838FE784838FEF858347
:102D30000C94AA156F927F928F929F92AF92BF923E
:102D4000CF92DF92EF92FF920F931F93CF93DF9377
:102D5000CDB7DEB72A970FB6F894DEBF0FBECDBF52
:102D60008E010F5F1F4F8AE0F80111928A95E9F7F3
:102D70009CE4E92E91E0F92E680121E5622E21E024
:102D8000722E88248394912CF70181917F018F3FCB
:102D900009F446C0F894E82FE295EF70F0E021A125
:102DA0008F70A40102C0440F551F8A95E2F7CA0133
:102DB000922F982B91A392A18095892382A3789436
:102DC00000C0E1E5F1E021E030E0B12CA12C41911F
:102DD0004F3F09F480C0A42FA295AF70B0E0909649
:102DE0008C9190E04F7002C0959587954A95E2F7D7
:102DF00080FD71C0C901A82AB92A220F331F51E0F2
:102E0000E036F50721F7F701319780818F3F11F008
:102E10000E94040E80EA8A95F1F7F601B182A08241
:102E2000F2E0CF0ED11C6E147F0409F0ADCF4AE062
:102E300050E0B8018CE393E00E94962F9C01FF24A0
:102E4000F394892B09F4F12C232B09F447C08AE071
:102E5000F801ACE3B3E001900D928A95E1F781E0CF
:102E600080933B030E94E20490933A0380933903DA
:102E70008091390390913A030E94D304059790F111
:102E800080913C0390913D039093550380935403AC
:102E900080913E0390913F03909357038093560394
:102EA000809140039091410390935903809358037C
:102EB000809142039091430390935B0380935A0364
:102EC000809144039091450390935D0380935C034C
:102ED00010923B0307C090E080E08DCF80913B03D0
:102EE0008111C6CF8F2D2A960FB6F894DEBF0FBE84
:102EF000CDBFDF91CF911F910F91FF90EF90DF90A9
:102F0000CF90BF90AF909F908F907F906F900895DB
:102F10008091360390913503892B8093AC02909178
:102F20003703992391F0892B8093AC0220E08EEA3D
:102F300092E0FC013081019631112F5F32E0843B39
:102F40009307B9F721110E94E60F48E050E06DE2C7
:102F500073E08CEA92E00E94962F892BA9F088E01A
:102F6000ECEAF2E0ADE2B3E001900D928A95E1F770
:102F7000E0918304F0918404309731F00280F38172
:102F8000E02D8CEA92E00994089590E080E00E94A0
:102F90001E0590E080E00E940805109235030E9413
:102FA000881786E0E5E6F3E0DF011D928A95E9F7F0
:102FB00010925F0310925E03109260030C94C70C92
:102FC0008093DC040C94C5178091DC04982F9670D4
:102FD000963019F488600C94E017877FFCCF21E0CD
:102FE00030E001C0220F8A95EAF720958091DC0439
:102FF00082230C94E01790912C0380958923809371
:103000002C03282F277091F4282F082E000C330B47
:103010009217130659F09091470392FD07C08595CA
:10302000859585950E94EF1710922C030895CF93F4
:10303000C0914703C2FB992790F9981799F080FB3C
:10304000C2F9C09347036091460384E090E00E9478
:10305000DA2F6C2F82E290E00E94DA2F82E0CF918B
:103060000C94FB17CF91089521E030E001C0220FAE
:103070008A95EAF78091DC04822B0C94E017809308
:1030800038030C94C51710923603EEEAF2E086E09E
:10309000DF011D928A95E9F70C94C5171F93CF9312
:1030A000DF93CDB7DEB7AA970FB6F894DEBF0FBE99
:1030B000CDBF8EE994E0FC0101962091F1002083C0
:1030C00024E0863A9207B9F780919F04893009F489
:1030D00056C0C8F4823009F4B3C0833009F482C00A
:1030E000813071F18091E80083FF85C280919E0458
:1030F00090919F049A3008F07EC2E92FF0E0E557E6
:10310000FF4C0C94EF2E8A3009F489C08B3051F7B4
:1031100080919E04813231F78091A2049091A304A2
:10312000892B01F78091E800877F8093E8000E9457
:10313000C3038091A004809313010E944318D2CF4F
:1031400080919E04813A71F68091E800877F809398
:10315000E8008091A2049091A304892B61F468E0B7
:1031600082E994E070E00E9475048091E8008B771A
:103170008093E800B7CF60E090E080E0F3CF8091EB
:103180009E04813209F0AECF8091A2049091A304F5
:103190008D7F892B09F0A6CF8091E800877F8093EF
:1031A000E8008091E80082FF18C09091F3008091C0
:1031B000F200029731F48091F100813011F08630F5
:1031C00021F48091F100809391048091E8008B7745
:1031D0008093E8000E94C30385CF80919C048111F5
:1031E000E0CF80CF80919E04813A09F07BCF80911F
:1031F000A2049091A304892B09F074CF8091E80078
:10320000877F8093E8008091E80080FFFCCF809169
:1032100013018093F1008091E8008E77D9CF8091DF
:103220009E04813209F05ECF8091E800877F809311
:10323000E8000E94C3038091A1048093900452CFC0
:1032400080919E04813A09F04DCF8091E800877FFC
:103250008093E8008091E80080FFFCCF809190048B
:10326000D8CF803899F0823809F0C5C18091A20486
:103270008F70873008F0BFC18093E9008091EB0028
:1032800085FB882780F91092E90006C080919A0496
:1032900090919B04911182609091E800977F9093A8
:1032A000E8008093F1001092F1008091E8008E77A1
:1032B0009EC1882309F48CC1823009F09CC18091A1
:1032C000A00481118FC18091A2048F702FEF280F6D
:1032D000263008F090C18093E9002091EB0020FF98
:1032E00081C1933031F48091EB0080628093EB00D8
:1032F00079C19091EB0090619093EB0021E030E078
:1033000001C0220F8A95EAF72093EA001092EA00A2
:103310008091EB008860EACF81116DC11091A0040B
:103320001F778091E3008078812B8093E300809168
:10333000E800877F8093E8000E94C3038091E80043
:1033400080FFFCCF8091E30080688093E30082E0FF
:10335000111183E080939C044EC18058823008F0A4
:103360004AC14091A0045091A1044C3D83E058070C
:10337000A1F583E08A838AE289834FB7F894DE015E
:10338000139620E03EE051E2E32FF0E05093570027
:10339000E49120FF03C0E295EF703F5FEF708E2F46
:1033A00090E0EA30C0F0C7968D939D932F5F243153
:1033B00059F74FBF8091E800877F8093E8006AE269
:1033C00070E0CE0101960E9475048091E8008B7731
:1033D0008093E80010C1C096E7CF8091A20490913D
:1033E000A304252F33272330310509F44AC078F58B
:1033F0002130310509F479C08BE590E0E1E9F5E091
:103400002230310509F0F7C02091E800277F209392
:10341000E8002091A4043091A5048217930708F4D2
:103420009C0140E02115310509F064C0411162C0E2
:103430008091E80082FDC9CF80919C04882329F205
:10344000853019F28091E80083FFF2CFBECF2132A0
:10345000310509F43BC02232310509F0CCC083307C
:10346000910508F0C8C0FC01EE0FFF1FE559FE4FA3
:103470000190F081E02D88599E4FDC018C9190E005
:1034800011C0CA019927413089F082309105B1F00D
:10349000892B09F0B0C0EAE1F6E0E4918E2F90E0CC
:1034A000EAE1F6E0009709F4A6C0AECFEAE0F6E064
:1034B000E4918E2F90E0EAE0F6E0F4CFEEEFF5E055
:1034C000E4918E2F90E0EEEFF5E0ECCF83309105A4
:1034D00008F091C0880F991FFC01EF58FE4F019032
:1034E000F081E02D89E090E08FCF82E190E0ECEE7A
:1034F000F5E08ACF80919C04882309F466CF85305B
:1035000009F463CF8091E80083FD5FCF8091E800EC
:1035100082FD8ECF8091E80080FF84CF9091F300F0
:103520008091F2002115310519F08830910550F095
:1035300041E0089709F040E08091E8008E778093A1
:10354000E80070CF44914093F10031962150310949
:103550000196E8CF803809F04EC08091E800877F5F
:103560008093E80080919D048093F1009ECE8111AC
:1035700042C01091A0041230F0F58091E800877FDE
:103580008093E80010939D040E94C303112311F05F
:1035900084E005C08091E30087FDFACF81E080934D
:1035A0009C0442E061EC81E00E94E20342E261ECB3
:1035B00084E00E94E20342E261EC82E00E94E203C6
:1035C00042E260EC83E00E94E20380919C0413C01D
:1035D0008091A004813079F481E0933009F080E09B
:1035E00080939B041092E9008091E800877F80938C
:1035F000E8000E94C3038091E80083FF0AC0809125
:10360000E800877F8093E8008091EB0080628093E0
:10361000EB00AA960FB6F894DEBF0FBECDBFDF91C8
:10362000CF911F910895882321F00E94EC0F0C94F4
:1036300088170895882339F090913603892B809359
:1036400036030C94881708958823B1F19CEF980FE6
:10365000913A70F4EEEAF2E09191891303C0DF0130
:1036600011971C9292E0E43BF907B1F70C9488178C
:1036700090E2980F983050F4877091E001C0990F54
:103680008A95EAF7892F0E94EC0FF0CF9BE5980FFF
:10369000933020F490E080E00C941E0598E5980F9C
:1036A000973120F490E080E00C940805803F20F0F2
:1036B0000E94ED0C0C94C70C0895CF93C82F88235B
:1036C00009F455C08CEF8C0F813AF8F4EEEAF2E081
:1036D000DF018D91C81761F022E0A43BB207C9F762
:1036E0006C2F8CEA92E00E94EE04CF910C94881724
:1036F0008191C81303C0DF0111971C9232E0E43BB3
:10370000F307B1F70E948817EBCF80E28C0F883067
:1037100068F4C77021E030E001C0220FCA95EAF7D3
:1037200080913603822B80933603DFCF8BE58C0F9D
:10373000833038F42C2F2452330BC901CF910C94D1
:103740001E05E8E5EC0FE73150F4F0E0EE0FFF1F47
:10375000E25EFE4F80819181CF910C940805C03FBD
:1037600030F08C2F0E94A80DCF910C94C70CCF91F4
:1037700008950F931F93CF93C82F10E000E0893373
:1037800011F400E510E08C2F0E945D1B011511055E
:1037900031F48C2FCF911F910F910C94241B8FE942
:1037A0009FE00197F1F700C0000001501109EECF32
:1037B000FF920F931F93CF93DF93C62FD42F122F17
:1037C000FC0182818823A9F06093DB040E94E2045B
:1037D0009093DA048093D904C77081E001C0880F08
:1037E000CA95EAF7DF91CF911F910F91FF900C944A
:1037F0001A1B8091DB04681334C08091D904909126
:10380000DA040E94D304883C910558F500E20D0FBC
:10381000CD17A9F0C770FF24F3948F2D01C0880F36
:10382000CA95EAF70E94131B083048F48D2F877061
:1038300001C0FF0C8A95EAF78F2D0E941A1B812F79
:103840000E94B91B0830A0F4D77081E001C0880F36
:10385000DA95EAF7DF91CF911F910F91FF900C94C9
:10386000131BC77081E001C0880FCA95EAF7F2CF39
:10387000DF91CF911F910F91FF90089590E080E02C
:103880000E94C42F893E9E4F11F40C94431280E095
:10389000089569EE7EEF90E080E00E94F82F60E0EE
:1038A00082E090E00E94DA2F60E083E090E00E94E6
:1038B000DA2F1092380360E084E090E00E94DA2F63
:1038C00060E082E290E00E94DA2F60E085E090E024
:1038D0000E94DA2F60E086E090E00E94DA2F6FEF1E
:1038E00087E090E00E94DA2F40E050E0BA0188E0E3
:1038F00090E00E94EC2F60E08DE090E00E94DA2FD3
:1039000040E050E0BA0188E190E00E94EC2F60E0D6
:1039100087E190E00E94DA2F40E050E0BA018CE1AC
:1039200090E00E94EC2F70E060E080E290E00E9466
:10393000F82F40E050E0BA0188E190E00E94EC2FBF
:1039400080E00E9488110E94A11140E050E0BA017D
:103950008FE090E00E94EC2F40E050E0BA0183E15C
:1039600090E00C94EC2F2F923F924F925F926F92C7
:103970007F928F929F92AF92BF92CF92DF92EF92FF
:10398000FF920F931F93CF93DF93CDB7DEB72897A6
:103990000FB6F894DEBF0FBECDBF3C01FC018381A2
:1039A0009481892B39F08081918189238F3F11F097
:1039B0000C947B2528960FB6F894DEBF0FBECDBFC2
:1039C000DF91CF911F910F91FF90EF90DF90CF90FB
:1039D000BF90AF909F908F907F906F905F904F902F
:1039E0003F902F9008950E94E311182F682F89812E
:1039F0009A810E94271069817A81812F0E94D611B5
:103A00008E839F838E819F81815095458E809F807C
:103A10008F3F910510F4F5E59F26F301F281F887B9
:103A2000FF2309F4CEC22FEF82169104D1F1C8F121
:103A30003AE283163DE5930629F01092D4028E8077
:103A40009F80B0C08091D40291E089278093D402F6
:103A500080912C03877009F4ADCFF3018281882314
:103A600009F4A8CF8091470382FDA4CF82E0289675
:103A70000FB6F894DEBF0FBECDBFDF91CF911F917F
:103A80000F91FF90EF90DF90CF90BF90AF909F90FD
:103A90008F907F906F905F904F903F902F900C94FD
:103AA000FB178091D402882309F439C11092D40203
:103AB00080EC8816910408F040C090E889169104C3
:103AC00008F0F7C08401005411090034110508F40E
:103AD000BDC021E030E040E050E060E070E080E018
:103AE00090E0082D0E94FC2EE090B402E22AF090B3
:103AF000B502F32A0091B602042B1091B702152BE0
:103B0000B091B802B62BA091B902A72BF091BA02DE
:103B1000F82BE091BB02E92BE092B402F092B502DF
:103B20000093B6021093B702B093B802A093B90203
:103B3000F093BA02E093BB0235C021E030E040E0F0
:103B400050E060E070E080E090E08401005C1109EA
:103B50000E94FC2EE090CC02E22AF090CD02F32AE3
:103B60000091CE02042B1091CF02152BB091D00200
:103B7000B62BA091D102A72BF091D202F82BE091A5
:103B8000D302E92BE092CC02F092CD020093CE0258
:103B90001093CF02B093D002A093D102F093D2023F
:103BA000E093D302C40182519F45409708F03CC77F
:103BB0008FEF93E00E94BC2F0EEE080D4FE7842E8E
:103BC00042E0942E811144CF01117EC280911A01EE
:103BD00090911B01A0911C01B0911D0189839A83D2
:103BE000AB83BC83442443943AE0332E84010F5FBB
:103BF0001F4FC4010E94BC2F89831A82882309F4B5
:103C000027CF9FEF980F933008F06DC28A834982C7
:103C100022E0820E911CC8010E94BC2F8B83882356
:103C200009F416CF8E010F5F1F4FF8012081222368
:103C3000E9F2213009F091C291818281913009F03D
:103C400054C20E5F1F4F0E94B91B55C221E030E0E5
:103C500040E050E060E070E080E090E00E94FC2EE8
:103C6000E090BC02E22AF090BD02F32A0091BE026D
:103C7000042B1091BF02152BB091C002B62BA0915E
:103C8000C102A72BF091C202F82BE091C302E92BED
:103C9000E092BC02F092BD020093BE021093BF02FC
:103CA000B093C002A093C102F093C202E093C3029A
:103CB00079CF21E030E040E050E060E070E080E06B
:103CC00090E08401005811090E94FC2EE090C4028B
:103CD000E22AF090C502F32A0091C602042B10914B
:103CE000C702152BB091C802B62BA091C902A72B11
:103CF000F091CA02F82BE091CB02E92BE092C402CA
:103D0000F092C5020093C6021093C702B093C80296
:103D1000A093C902F093CA02E093CB0243CFE0E440
:103D20008E16910408F06CC03090B4024090B50239
:103D30005090B602B091B702A091B802F091B902CA
:103D40002090BA02E091BB0221E030E040E050E078
:103D500060E070E080E090E0082D0E94FC2EA22E32
:103D6000A320B32EB420C42EC520D52EDB22E62EF0
:103D7000EA22F72EFF22082F0221192F1E230E946C
:103D8000152F09F05CCE840130EC8316910408F005
:103D900093C080E88816910408F0E6C00054110929
:103DA0000034110508F4B5C021E030E040E050E0F7
:103DB00060E070E080E090E0082D0E94FC2E2095ED
:103DC00030954095509560957095809590952321FC
:103DD000342145215B236A237F238221E923209319
:103DE000B4023093B5024093B6025093B702609389
:103DF000B8027093B9028093BA02E093BB0228CE56
:103E0000F0E88F169104E0F43090BC024090BD02BF
:103E10005090BE02B091BF02A091C002F091C102C9
:103E20002090C202E091C30221E030E040E050E087
:103E300060E070E080E090E08401005411098DCFD3
:103E400020EC82169104E0F43090C4024090C50248
:103E50005090C602B091C702A091C802F091C90269
:103E60002090CA02E091CB0221E030E040E050E037
:103E700060E070E080E090E08401005811096DCFAF
:103E80003090CC024090CD025090CE02B091CF0243
:103E9000A091D002F091D1022090D202E091D30201
:103EA00021E030E040E050E060E070E080E090E051
:103EB0008401005C110951CF005C110921E030E060
:103EC00040E050E060E070E080E090E00E94FC2E76
:103ED000209530954095509560957095809590957A
:103EE0002321342145215B236A237F238221E92377
:103EF0002093CC023093CD024093CE025093CF0258
:103F00006093D0027093D1028093D202E093D302E7
:103F10009FCD21E030E040E050E060E070E080E0E4
:103F200090E00E94FC2E209530954095509560952C
:103F30007095809590952321342145215B236A2338
:103F40007F238221E9232093BC023093BD0240935A
:103F5000BE025093BF026093C0027093C10280936F
:103F6000C202E093C30274CD0058110921E030E091
:103F700040E050E060E070E080E090E00E94FC2EC5
:103F800020953095409550956095709580959095C9
:103F90002321342145215B236A237F238221E923C6
:103FA0002093C4023093C5024093C6025093C702C7
:103FB0006093C8027093C9028093CA02E093CB0257
:103FC00047CD9FEF8916910409F060F5E0E48E1665
:103FD0009104B0F5A090B402B090B502C090B602C2
:103FE000D090B702E090B802F090B902F091BA0216
:103FF0001091BB0221E030E040E050E060E070E072
:1040000080E090E0082D0E94FC2EA222B322C42260
:10401000D522E622F722082F0F2319230E94152FFD
:1040200009F416CDEE81FF81E0312FE5F20709F4A6
:10403000EAC04F01E131FF4509F002C582E0E4C06A
:10404000F0E88F169104A0F4A090BC02B090BD02DD
:10405000C090BE02D090BF02E090C002F090C102BA
:10406000F091C2021091C30220E4821A9108C2CFDB
:1040700030EC83169104A0F4A090C402B090C50265
:10408000C090C602D090C702E090C802F090C9026A
:10409000F091CA021091CB0280E8881A9108AACF49
:1040A000A090CC02B090CD02C090CE02D090CF02B2
:1040B000E090D002F090D102F091D2021091D302A0
:1040C00090EC891A910896CF8114E4E09E0609F4D9
:1040D000BFCCC4010E94BC2F811101C00150FFEF71
:1040E0008F1A9F0A71CD48019DCD923039F40E5F31
:1040F0001F4F0E945D1B0F5F1F4F97CD933029F418
:104100000E5F1F4F0E94241BF6CF943019F00F5FF3
:104110001F4FF1CF0E5F1F4F30E020E0B8016F5FFF
:104120007F4FF80141818053990B8A30910550F0FF
:104130002150310900F38FE99FE00197F1F700C0AA
:104140000000F6CF329EF001339EF00D11249C0149
:104150002E0F3F1F842F8B01E1CFE22FF0E0E754B9
:10416000FE4F5490822F86958695869590E0FC01AF
:10417000E755FE4FC4902770D12C022E02C0D59473
:10418000C7940A94E2F7E1E0CE22DD24FC01E75671
:10419000FE4FA490B12C022E02C0B594A7940A94AD
:1041A000E2F7F1E0AF22BB24FC01E757FE4FE490B9
:1041B000F12C02C0F594E7942A95E2F721E0E2227F
:1041C000FF24C114D10419F081EE0E945D1BA114DB
:1041D000B10419F086EE0E945D1B852D0E94B91B6B
:1041E000AB2819F086EE0E94241BCD2819F081EE31
:1041F0000E94241BEF2809F47ECF8CE224CD81E0BD
:104200000E94341803C081E00E94EF170E94E41757
:104210001FCC82E0F5CF25EF82162CE59206E9F05F
:1042200027E245EE66EE36EF83163CE5930649F04D
:1042300027E245EE64EE84EF88168CE5980609F0D7
:104240001EC4C3010E94D81B03CC27E245EE65EED5
:10425000F8CF26E241EE60EEF4CF26E241EE62EEC8
:10426000F0CFC4018A5F9C45099708F421C486E118
:1042700088168CE59806C1F4809136038A7A91E01D
:1042800009F490E09093D50269E2811165E38CEA2C
:1042900092E00E94EE040E948817DACB95EA891614
:1042A0009DE5990609F404C43AE583163DE59306B5
:1042B00009F4AFC108F08BC181149CE5990609F49B
:1042C0009BC1EEED8E16ECE59E0609F0E9C00E945A
:1042D000491CBECBF401E350FC458091460381604C
:1042E000E331F10558F5EB56FF4C0C94EF2E23E02B
:1042F00082162DE5920680F43AEF83163CE593068C
:1043000008F4E8C3F401EB5FFC45E830F10528F55B
:10431000E855FF4C0C94EF2E81E688168DE5980643
:1043200009F498C090914603892F8E7F90FF816099
:1043300095EA89169DE5990609F0CCC3809346035A
:10434000C9C3809146038260F9CF8091460384609F
:10435000F5CF809146038860F1CF8091470381605B
:1043600080934703B7C3809147038260F9CF809160
:1043700046038061E3CF809146038062DFCF809166
:1043800046038064DBCF0E94431880914603806817
:10439000D5CF809146038C60D1CF80914703836055
:1043A000DFCF809146038E7FC9CF809146038D7FFA
:1043B000C5CF809146038B7FC1CF80914603877F15
:1043C000BDCF809147038E7FCBCF809147038D7FF8
:1043D000C7CF809146038F7EB1CF809146038F7DFA
:1043E000ADCF809146038F7BA9CF0E944318809167
:1043F00046038F77A3CF80914603837F9FCF809121
:1044000047038C7FADCF8091460382FB992790F9BB
:1044100021E0922790FB82F990FB83F98FCF809166
:104420004703982F909591708E7F892B90FB81F98F
:1044300097CF0E94431890914603892F97FB87F9E5
:1044400080587CCF61E08EE090E00E94DA2F42C37A
:1044500060E0F9CF90914603892F8F7E94FF8061B1
:104460006DCF85E366C3809136038272E6ED8E16CA
:10447000ECE59E0680F4F2EC8F16FCE59F0680F0DA
:10448000F401E35CFC45E331F10508F050C0E05570
:10449000FF4C0C94EF2E2DE58216920609F4D8CA33
:1044A000F3018281E080F180882309F4B6C0C7015E
:1044B0000E94E311182F682FC7010E942710B7012F
:1044C000812F0E94D6110E94600E8C01982EF3015C
:1044D000F280A580A2942FE0A22280912C03877005
:1044E000C1F0BF2CFF20B1F0812F807F803421F0FC
:1044F00080E2800F883068F08091470382FD09C018
:1045000082E00E94FB1780912C038770BB24B39438
:104510008111B12C812F82958F70C82ED12C8C30B7
:1045200008F0E8C0F601ED53FF4C0C94EF2E80919B
:10453000AA0491E089278093AA0410921201809125
:10454000990381608093990383CA4DEE55E069EF2A
:1045500075E00E9440057CCA49EF55E06DEE75E0BC
:10456000F8CF4FEB55E069EC75E0F3CF49EC55E03F
:104570006FEB75E0EECF45EA55E062EB75E0E9CF11
:1045800042EB55E065EA75E0E4CF4BE855E068E9B9
:1045900075E0DFCF48E955E06BE875E0DACF4BE531
:1045A00055E069E675E0D5CF49E655E06BE575E085
:1045B000D0CF61E081E00E94D3054ACA61E085E086
:1045C000FACF61E08DE0F7CF61E082E1F4CFFBE567
:1045D0008F16FDE59F06F9F02CE582162DE5920673
:1045E00009F05ECF8091470382FB882780F991E034
:1045F00089270E94171854CF0E9443183FEF84E385
:104600009CE0315080409040E1F700C000000E94E3
:10461000D61081E0EECF80E0ECCFC7010E94FE0F04
:10462000182F4DCFF12FFF70EF2E107F19F0E2946D
:1046300090EFE922802FFF20B9F0EE2069F090E2A0
:10464000900F983010F0011109C080913603E82ACC
:10465000E09236030E948817802F4AC0809135036C
:10466000E82AE0923503F6CF0E94241BEE2009F4DD
:1046700041C0005E083010F0911004C08E2D0E94E1
:10468000EC0F06C0E09480913503E822E0923503F8
:104690000E9488172FC0212F2F70E22E107F10321A
:1046A00019F0E29480EFE822992089F031E0931626
:1046B00009F482C0FF2009F48CC0AA2009F482C04A
:1046C000F301858180FFC8CF8F7085837BC02091E7
:1046D000470322FF4EC0FF2009F445C0EE2039F009
:1046E00080913603E82AE09236030E94881780E022
:1046F0000E945D1B98E0C91AD108E4E0CE16D104EF
:1047000010F40E943405BB2009F454C980912C0395
:1047100080FD50C9F30112828595859585950E948B
:104720003418C3010E94B31C80912C038595859594
:10473000859528960FB6F894DEBF0FBECDBFDF91EA
:10474000CF911F910F91FF90EF90DF90CF90BF908E
:10475000AF909F908F907F906F905F904F903F9021
:104760002F900C94EF1780E00E94241BEE2011F292
:1047700085CFFF20A1F0909137038E2D892BA110BA
:1047800003C00E941A1BB6CFE1E0AE12FACF22FDA1
:10479000B1CF891709F4AECF80933703ABCFA11007
:1047A00006C00E94E60F8E2D0E94131BA3CFF1E0DE
:1047B000AF1609F49FCFF5CFFF2031F025E02A1581
:1047C00008F498CF8E2DDDCF34E03A1508F492CF5F
:1047D000EACFAA2041F3093349F4FFEF27EE33E093
:1047E000F15020403040E1F700C00000802F0E94CF
:1047F000241B80CF812F86958695837061F0813050
:1048000009F078CFC8019370F11002C090E080E009
:104810000E9408056FCFC8019370F11002C090E0AC
:1048200080E00E941E0566CF802FFF2029F00E94A5
:10483000A80D0E94C70C5ECF0E94ED0CFACF812F0D
:10484000837091F5F11056CF402F429546954770F1
:10485000440F440F802F8F70042E01C0880F0A94DC
:10486000EAF7202F207104FF07C02FE030E001C0DD
:10487000220F4A95EAF72095169516951370123077
:1048800071F0133051F030913803113029F0822B40
:1048900083230E943F182ECF832B822BFACF282B05
:1048A000809138038227F5CF8695FF2011F0812F64
:1048B0008170882309F41ECF402F4295469547709A
:1048C000440F440F802F8F70042E01C0880F0A946C
:1048D000EAF7202F207104FF07C02FE030E001C06D
:1048E000220F4A95EAF72095169516951370123007
:1048F00071F0133051F03091DC04113029F0822B2B
:1049000083230E94E017F6CE832B822BFACF282B2D
:104910008091DC048227F5CF1F70FF2029F0812FC2
:104920000E943418802F2DCF802F0E94131B812FBF
:104930000E94EF17DFCE802F92EF9916A9F19915FB
:1049400070F0E0EF9E16D1F0F1EF9F1691F0FF208E
:1049500009F45AC0A11080CE812F8F7129C023EF96
:10496000921649F134EF9312F2CF8091470382FF00
:104970002DC0812F8F71FF20D9F21AC0FF2079F04E
:1049800084E08A1508F4B6CE1F7181E090E001C082
:10499000880F1A95EAF79091DC048927B2CF95E049
:1049A0009A1508F4A7CEF0CF812F8F71F110C0CFE8
:1049B0000E9434189FCE80E0FF2009F4A2CF1F711F
:1049C00081E001C0880F1A95EAF79BCFFF2089F09C
:1049D0001F71812F0E9434188091470382FD07C008
:1049E000E8E01E9FC0011124836080932C03812F77
:1049F000DFCF81E00E94FB17F1E0FA1508F07ACED4
:104A000082E00E94FB1776CEAA2059F0893309F084
:104A1000EDCE2FEF37EE83E0215030408040E1F7BC
:104A2000E3CE812F8F7184CFF0E18F16FFE59F06D3
:104A300009F4E5CB21E182162FE5920609F4E9CBD2
:104A400033EF83163CE5930609F403CC08F0E3CB7F
:104A500098ED89169CE5990609F4F7CB28E241E028
:104A6000E9ED8E16ECE59E0609F4F1CB26E241EE67
:104A700061EEF7ED8F16FCE59F0609F4E2CBE885C1
:104A8000EE2309F44BC01092DB04F1E68F16FDE52E
:104A90009F0671F008F002CC36E183163CE59306E0
:104AA00008F0DFCB82E088168CE5980608F4FCCB92
:104AB0000E945C129093470380934603E6E18E16B2
:104AC000ECE59E0608F013CCF2E08F16FCE59F069D
:104AD00008F000CC609146031091470384E090E019
:104AE0000E94DA2F612F82E290E00E94DA2F0E946A
:104AF00043180C94281D85E0DE01119601900D925B
:104B00008A95E1F7F301228189819A8121110C9420
:104B1000F31C0E94FE0F182F0C94FB1C96E18916C3
:104B20009CE5990609F09FCC8091D502811199CC22
:104B300089E2EEEAF2E024EB32E09191891303C0BE
:104B4000DF0111971C922E173F07B9F7A4CB1F93D3
:104B5000CF93DF938091F902807FA9F48091F602D0
:104B6000882389F080912B03D091FA026091F4029E
:104B70007091F502A091F702B091F802C62FC723F9
:104B800016E0D81304C0DF91CF911F91089590E0F3
:104B9000109711F0CF3F19F401968770F2CF189F4C
:104BA0009001199F300D1124F901E550FD4F41810D
:104BB0004713F2CF40814613EFCF42814111ECCF32
:104BC000438154814A1B5B0B483C510528F7809177
:104BD000F9028F7080618093F902F901E050FD4F76
:104BE00080818F708061808384EF92E00E94B31C8B
:104BF000DF91CF911F910C94F40FAF92BF92CF929F
:104C0000DF92EF92FF920F931F93CF93DF93CDB775
:104C1000DEB72B970FB6F894DEBF0FBECDBF8C0169
:104C200085E0F801DE01179601900D928A95E1F773
:104C3000F801E28084EFA82E82E0B82E6091F7029E
:104C40007091F8026115710509F41AC19091F4028E
:104C50004091F502842F89238F3F09F411C12081EF
:104C60003181C380D480F090F602F601E61BF70B89
:104C7000FF2009F4D0C08091F902582F507FE83C02
:104C8000F10508F0ABC0511177C0FE2C431321C0D1
:104C900092131FC0E1101DC08F7080618093F902D4
:104CA000C5010E94B31C8091F902F80185838F2D04
:104CB0002B960FB6F894DEBF0FBECDBFDF91CF911C
:104CC0001F910F91FF90EF90DF90CF90BF90AF902A
:104CD0000895CD2829F0822F83238F3F09F0EBC060
:104CE00080E0F82FF170DF2EE0912B034091FA0263
:104CF00056E080FD1CC0EE20D1F28091F902816067
:104D00008093F902F12CD3CF8E2F90E05E9FF001BB
:104D10001124E550FD4F6181361306C060812613D2
:104D200003C06281E612E7CFFC013196E770E4131D
:104D3000EBCF2F8338878F8198850E941212292FFD
:104D400022952F70903260F0225F2F70223078F41D
:104D50009F7051F0F8019581907F31F4D12C0AC0F9
:104D60009F7011F08823D1F3805E8830B8F3C801BA
:104D70000E94B31CFD2C9BCF431306C0921304C0AA
:104D8000F801EE2009F461C0C8010E9420128823B6
:104D900009F1EE20F9F08091F902803270F0209153
:104DA000F4023091F5023A8329831B82DD82CC82A2
:104DB0008E83CE0101960E94B31C86E0F801A4EF19
:104DC000B2E001900D928A95E1F70E94A725FF2499
:104DD000F3946DCFC8010E94B31CF9CF51110AC0E2
:104DE00084EF92E00E94B31C86E0F50111928A954F
:104DF000E9F788CF4313C8CF9213C6CFE110C4CFD1
:104E0000F8018583C8010E94B31C86E0F501119268
:104E10008A95E9F74CCFE83CF105B8F7FE2CEE2077
:104E2000C9F243131FC092131DC08091F90280FD87
:104E300010C0982F907F69F0F8018583903F31F082
:104E4000982F907F905F8F70892B8583C8010E9477
:104E5000B31C86E0F801A4EFB2E001900D928A95B0
:104E6000E1F725CFC8010E9420128111A6CF8091C1
:104E7000F90281608093F902C8010E94B31C17CF28
:104E8000EE2009F4A7CFC8010E942012F82E882333
:104E900009F4A0CF86E0F801A4EFB2E001900D92F2
:104EA0008A95E1F78091F4029091F5020E94121226
:104EB0000E94A725FCCE81E08E2513CF1F93CF93B0
:104EC000DF93CDB7DEB767970FB6F894DEBF0FBE9E
:104ED000CDBF4B8B5C8B6D8B7E8B8F8B611110925A
:104EE00035031A8A2C898E899F893B893D872E87B5
:104EF0006F87998B888B86E0FE013D96DE011796C1
:104F000001900D928A95E1F7CE0107960E94FD254A
:104F1000882389F016E080912B039091FA0289137F
:104F20004FC067960FB6F894DEBF0FBECDBFDF91BE
:104F3000CF911F91089586E0FE013796DE0111960C
:104F400001900D928A95E1F74A855B8541155105DF
:104F500009F37F816885862F87238F3FD9F22091BF
:104F6000FA0230E0C901019687709927E0912B037E
:104F7000E817190671F40E9443181092FA02109271
:104F80002B0386E0E4EFF2E0DF011D928A95E9F75A
:104F9000C1CF79836A835D834C8396E0929FD00171
:104FA000939FB00D1124A550BD4FFE013196019085
:104FB0000D929A95E1F78093FA020E94F40FAACF1E
:104FC000819FC001112485509D4F0E94FD2588239B
:104FD00009F4A7CF80912B0390E001968770992761
:104FE00080932B0398CF1F920F920FB60F9211242C
:104FF0002F933F934F935F936F937F938F939F93E1
:10500000AF93BF93CF93DF93EF93FF93D091E900DA
:10501000DF708091EC00C82FC17080FDC0E8109255
:10502000E9008091F000877F8093F00078940E94DF
:105030004E181092E9008091F00088608093F00093
:10504000CD2BCF70C093E900FF91EF91DF91CF910D
:10505000BF91AF919F918F917F916F915F914F9190
:105060003F912F910F900FBE0F901F9018951F9298
:105070000F920FB60F9211242F933F934F935F938C
:105080006F937F938F939F93AF93BF93EF93FF9310
:105090008091E10082FF09C08091E20082FF05C09B
:1050A0008091E1008B7F8093E1008091DA0080FFA6
:1050B00024C08091D80080FF20C08091DA008E7FCC
:1050C0008093DA008091D90080FF9BC080E189BD88
:1050D00082E189BD09B400FEFDCF81E080939C048C
:1050E00080918F04811109C00E9449030E94140419
:1050F0008091E20084608093E2008091E10080FF73
:1051000017C08091E20080FF13C08091E2008E7F83
:105110008093E2008091E20080618093E2008091C0
:10512000D80080628093D80019BC85E080939C04ED
:105130008091E10084FF29C08091E20084FF25C0B6
:1051400080E189BD82E189BD09B400FEFDCF809177
:10515000D8008F7D8093D8008091E1008F7E80936E
:10516000E1008091E2008F7E8093E2008091E20076
:1051700081608093E20080919D04882309F447C0F8
:1051800084E080939C0480919C048091E10083FFE3
:1051900027C08091E20083FF23C08091E100877FD8
:1051A0008093E10082E080939C0410929D048091A2
:1051B000E1008E7F8093E1008091E2008E7F8093FA
:1051C000E2008091E20080618093E20042E060E0D2
:1051D00080E00E94E2038091F00088608093F000FC
:1051E000FF91EF91BF91AF919F918F917F916F91BF
:1051F0005F914F913F912F910F900FBE0F901F9095
:10520000189519BC10929C0410928F0476CF80914F
:10521000E30087FD02C081E0B4CF83E0B2CF789491
:105220001F921FB61F9211248F939F93AF93BF932A
:105230008091880490918904A0918A04B0918B0494
:105240000196A11DB11D8093880490938904A093B9
:105250008A04B0938B04BF91AF919F918F911F905F
:105260001FBE1F9018951F921FB61F9211248F9377
:105270009F93AF93BF9380918704811113C0809156
:10528000880490918904A0918A04B0918B0441967E
:10529000A11DB11D8093880490938904A0938A0472
:1052A000B0938B04BF91AF919F918F911F901FBEC0
:1052B0001F901895CDB7DEB7A4970FB6F894DEBF50
:1052C0000FBECDBF84B7877F84BF0FB6F894A89573
:1052D00080916000886180936000109260000FBE32
:1052E00080E890E00FB6F89480936100909361009D
:1052F0000FBE85B7806885BF85B7806885BF82E0AF
:105300009EE09093AB028093AA020E9449030E9400
:1053100014048091E20084608093E200789480918C
:105320009C048823A1F01091E9001F709091EC007B
:10533000892F817090FD80E8182B1092E9008091F0
:10534000E80083FD0E944E181F701093E90082E070
:1053500084BD93E095BD9AEF97BD80936E000E9447
:105360004312811102C00E94A1110CE411E051E529
:10537000E52E51E0F52ED8018D918D018F3F11F072
:105380000E94040EE016F106B1F701E511E040E6D7
:10539000E42E41E0F42EF80181918F018F3F11F04E
:1053A0000E94040EE016F106B1F78AE0E4E5F3E0AE
:1053B000DF01282F1D922A95E9F7ECE3F3E0DF01E6
:1053C0001D928A95E9F70E943E1C811102C00E943D
:1053D000491C82E090E00E94BC2F809348030E9409
:1053E0005C1290934703809346030E949A16BFEF86
:1053F000E6E7F1E0B150E040F040E1F700C0000026
:105400000E949A168091540380FF08C06FEF7FEFCF
:1054100090E080E00E94F82F0E94D61083E090E098
:105420000E94BC2F0E943F181092B0048FEF9FEF94
:105430009093CA048093C9049093CC048093CB04C6
:105440009093CE048093CD049093D0048093CF04A6
:105450009093D2048093D1049093D4048093D30486
:105460009093D6048093D5049093D8048093D70466
:1054700010926B039093850380938403909387032A
:1054800080938603909389038093880390938B0382
:1054900080938A0390938D0380938C0390938F0362
:1054A00080938E0390939103809390039093930342
:1054B000809392030E943E1C811104C00E94491CEB
:1054C0000E94871646E050E06CE170E08AEA94E0C2
:1054D0000E94AC2F109299038091AA048C7F11F442
:1054E0000E94871684E091E0909384048093830463
:1054F00028E1822E912C30E4532EDD24D3946624AF
:10550000639480919C0493E0F92E00E112E18530D0
:1055100009F4F8C10E949A16882359F08FB7F894BD
:10552000409188045091890460918A0470918B04A1
:105530008FBFE4E5F3E0A9E4B3E010E000E0602F02
:10554000E190F1902D913D912E153F0509F405C292
:105550002E253F25C12CAA24A394B12CA9014A21B0
:105560005B21452B09F4F3C1C9826A83EA20FB2041
:1055700081E0E114F10409F480E08B830E94E204ED
:105580008160782F9D838C8349815A816B818D81C5
:105590000E945E27F801EE0FFF1FE75BFC4F808142
:1055A0009181A826B926B182A082EF2871F08FE000
:1055B000809FF001819FF00D1124E958FE4FEC0D02
:1055C000F11D80818F3F09F0A9C1C12C0C2D10E085
:1055D00080916B03800F912F911D09976CF188E0EA
:1055E00090E07C01E01AF10AB80164597C4FA701F0
:1055F0008CE693E00E94A32FB8016C587C4FA70162
:1056000084E793E00E94A32FA701440F551FB80120
:10561000660F771F6C577C4F84E893E00E94A32F9E
:10562000B80164587C4FA7018CE793E00E94A32F38
:1056300088E08C1980936B0380916B0390E0A72D19
:10564000B0E09D01220F331F2E533E4FAA0FBB1F08
:10565000BD016D537E4F41E0480F9C1508F462C1B7
:1056600080936B030E94B51586E0E5E6F3E0DE016A
:10567000119601900D928A95E1F710916703E090E1
:10568000680300916903F0906A0310926703109217
:1056900068031092690310926A03812F8E2909F41E
:1056A00048C080916303909164030E94D3049C01DD
:1056B00080915F03882309F465C325313105C8F162
:1056C0008F3F19F08F5F80935F03112359F00E9481
:1056D000880D9FEF11160CF491E0899F802D112405
:1056E00080936703EE2059F00E94880D9FEF1E14EF
:1056F0000CF491E0899F802D1124809368033091F0
:1057000067033323B1F020916803222391F055EB16
:105710003503C0011124992309F436C1909367031E
:1057200045EB240390011124332309F430C1309355
:105730006803802F8F2909F448C0809161039091FC
:1057400062030E94D3049C0180915E03882309F4C4
:1057500014C321353105C8F18F3F19F08F5F809355
:105760005E03002359F00E94660D9FEF10160CF4A3
:1057700091E0899F802D112480936903FF2059F0C7
:105780000E94660D9FEF1F140CF491E0899F802DFD
:10579000112480936A03309169033323B1F020917F
:1057A0006A03222391F055EB3503C001112499239C
:1057B00009F4F0C09093690345EB24039001112490
:1057C000332309F4EAC030936A0380916703909110
:1057D0006803892B90916903892B90916A03892B27
:1057E00011F00E94C70C1B83EC820D83FE8286E0C1
:1057F000FE013196A5E6B3E001900D928A95E1F79E
:105800000E94340590915303891380935303809130
:105810009C04843009F075CE83E08093E900809188
:10582000E80082FF6ECE8091E80090E085FF0CC01A
:105830000E94680330E2E32EF12C8E010F5F1F4FB0
:10584000882309F4B7C091E08091E8008B778093BA
:10585000E800992309F455CEE981E150E33108F0DD
:1058600047C1F0E0E153FF4C0C94EF2E80919C0473
:10587000843009F436C00E94B515809198038111D7
:105880000DC00E94D712109211018091AA0483705A
:10589000809310010E94FA10F09212016092980316
:1058A000109287040FB6F894A895809260000FBEFE
:1058B0005092600083B7817F846083BF83B781602B
:1058C00083BF7894889583B78E7F83BF0FB6F89493
:1058D000A8958091600088618093600010926000BC
:1058E0000FBE80919B04882369F00E949A16E4E51C
:1058F000F3E081919191892B09F020C223E0EE35EC
:10590000F207B9F780919C04853009F4AFCF0E946B
:1059100043180E94340510929803FCCD782ECC24B5
:10592000C39454CE90E0FC01E559FC4FD9015C9141
:105930005183DB015C915187718A880F991FFC01AB
:10594000E559FC4F128E118E842F91E084CEC394C2
:10595000AA0CBB1C4FE0C41201CE0F5F1F4F0530D5
:10596000110509F0ECCD8FEF89838A831B820E9499
:10597000E2048160782F9D838C8349815A816B81F9
:105980008D810E945E276ECED0926703C9CED092E1
:105990006803CFCED09269030FCFD0926A0315CFA0
:1059A0008091F100D8018D938D01B1E0EB1AF108DF
:1059B00009F449CF8091E80085FDF2CF8091E8009D
:1059C0008B778093E8000E946803882399F33BCF8C
:1059D0001A8289E08B8323C08A81823009F4C4C192
:1059E000833009F443C0813009F082C08FB7F89446
:1059F000209188043091890440918A0450918B044D
:105A000029A33AA34BA35CA38FBF69A17AA18BA161
:105A10009CA10E94F52E6B837C838D839E83809155
:105A20009C04843009F06DCD1091E9001F709091B5
:105A3000EC00892F817090FD80E8182B82E0809324
:105A4000E9008091E80080FF0DC050E040E060E296
:105A500070E0CE0101960E9499038091E8008E7754
:105A60008093E8001F701093E9004BCD80915403A0
:105A7000909155039827892798279C838B83809141
:105A80005603909157039827892798279E838D83E3
:105A900080915803909159039827892798279887D0
:105AA0008F8380915A0390915B03982789279827C9
:105AB0009A87898780915C0390915D039827892755
:105AC00098279C878B87ABCF8A81823089F48B8122
:105AD0009C81AD81BE8189A39AA3ABA3BCA3BC0169
