:100000000C94D4020C940C030C940C030C940C036D
:100010000C940C030C940C030C940C030C940C0324
:100020000C940C030C940C030C9412260C94CE2507
:100030000C940F270C940C030C940C030C940C03DD
:100040000C940C030C940C030C940C030C940C03F4
:100050000C940C030C94EB260C940C030C940C03E2
:100060000C940C030C940C030C940C030C940C03D4
:100070000C940C030C940C030C940C030C940C03C4
:100080000C940C030C940C030C940C030C940C03B4
:100090000C940C030C940C030C940C030C940C03A4
:1000A0000C940C030C940C030C940C030501090232
:1000B000A10185020901A1000509190129081500FE
:1000C0002501950875018102050109300931158165
:1000D000257F95027508810609381581257F9501D0
:1000E00075088106050C0A38021581257F95017572
:1000F000088106C0C005010980A101850319012AF4
:10010000B700150126B700950175108100C0050CD8
:100110000901A101850419012AA002150126A002E6
:10012000950175108100C005010906A1018506052C
:100130000719E029E71500250195087501810205D9
:1001400007190029EF1500250195F07501810205B9
:10015000081901290595057501910295017503910D
:1001600001C00660FF0961A1010962150026FF00B8
:100170009520750881020963150026FF00952075FA
:10018000089102C005010906A101050719E029E748
:1001900015002501950875018102950175088101F9
:1001A0000507190029FF150026FF0095067508812F
:1001B000000508190129059505750191029501753C
:1001C000039101C0000000000000000000000000DA
:1001D000000000000000000000000000000000001F
:1001E00000000000000000007E0F00D4FFFFFFC7EA
:1001F0000000007800000000000000002A2B28000A
:1002000000000000000000000000000000000029C5
:10021000000000002C1E3420212224342627252E05
:10022000362D3738271E1F2021222324252633333D
:10023000362E37381F0405060708090A0B0C0D0E69
:100240000F101112131415161718191A1B1C1D2F35
:100250003130232D350405060708090A0B0C0D0E55
:100260000F101112131415161718191A1B1C1D2F15
:100270003130354C69646F62616F2F6D6F6E7465DC
:10028000782F76323A69646F62616F202876302E5B
:1002900031362E392D352D673334653033612900E1
:1002A0000001010101010101010102020202020239
:1002B000020202030303030303030304040404040C
:1002C00004040505050505060606060607070707D3
:1002D0000708080808090909090A0A0A0B0B0B0C88
:1002E0000C0C0D0D0D0E0E0E0F0F0F101011111125
:1002F00012121313141415151616171718181919A6
:100300001A1A1B1B1C1D1D1E1E1F2020212222230A
:100310002424252626272829292A2B2C2D2D2E2F4B
:1003200030313232333435363738393A3B3C3D3E62
:100330003F404142434445464748494A4C4D4E4F51
:1003400050515354555658595A5B5D5E5F61626413
:10035000656668696B6C6D6F7072737577787A7BA0
:100360007D7E8082838587888A8C8E8F91939596F7
:10037000989A9C9EA0A2A3A5A7A9ABADAFB1B3B517
:10038000B7BABCBEC0C2C4C6C9CBCDCFD1D4D6D8F3
:10039000DBDDDFE2E4E7E9EBEEF0F3F5F8FAFDFF91
:1003A000165CA800AA00A9002A00E000530054002F
:1003B00055005600E3005F00600061005700E20056
:1003C0005C005D005E000000E10059005A005B0027
:1003D000000001516200630058000000005CC25C34
:1003E000C35C825F835FC55C885FCC5CCB5CCA5CAE
:1003F000C65C4A0052004B00C95CC75C500000005C
:100400004F000000C85C4D0051004E00000001008C
:1004100049004C002800000001000100010001001B
:1004200001000100010001000100010001000100C4
:1004300001000100010001000100010001000000B5
:1004400001000100010001000000010001000100A5
:100450000100000001000100010001000100010095
:100460000100010001000100010001000100010084
:100470000100010001000100010000000100010075
:100480000100010000000100010001000100000066
:100490000100010001000100010001000100010054
:1004A0000100010001000100010001000100010044
:1004B0000100010001000000010001000100010035
:1004C0000000010001000100010000000100010026
:1004D0000100010001000100010001000100010014
:1004E0000100010001000100010001000100010004
:1004F00001000000010001000100010000000100F6
:10050000010001000100000009025B00030100A0DE
:10051000FA09040000010301010009211101000191
:1005200022400007058103080001090401000203BD
:1005300000000009211101000122220007058203A9
:100540002000010705030320000109040200010344
:1005500000000009211101000122B60007058403F3
:100560002000011201000200000008646927020057
:1005700002010200011C034D006F006E0074006553
:100580000078002000490044003200370076003235
:100590000000000E03490044004F00420041004F9C
:1005A000000000040309040011241FBECFEFDAE0AD
:1005B000DEBFCDBF04B603FE18C080910504909144
:1005C0000604A0910704B09108048730904BA7401F
:1005D000B04B59F4109205041092060410920704CF
:1005E00010920804E0E0F8E3099524E0AAEEB1E0F7
:1005F00001C01D92A530B207E1F711E0A0E0B1E023
:10060000E2E5FBE502C005900D92AA3EB107D9F7DD
:100610000E9436270C94652D0C9400009091FB03EA
:10062000937061F081110BC094609093FB03109262
:1006300018018091F90381608093F903089589314D
:1006400010F09066F2CF880F880F982BEECF909124
:10065000FB03937071F08093FC036093FD03453BB3
:1006600008F044EB4093FE038091F903816080938E
:10067000F9030895E8EDF0E080818E7F8083109289
:10068000E2001092DA001092E100A0EEB0E08C914E
:1006900081608C9380818F77808319BCA7EDB0E057
:1006A0008C918E7F8C9380818F7E808310929A03B1
:1006B00008952091E4003091E50095E6A90120918C
:1006C000EC00822F817020FF06C08091E80080FF3F
:1006D00006C080E008952091E80022FD1AC08091B4
:1006E000BF03882389F0853089F08091EB0085FD78
:1006F0000FC02091E4003091E50042175307F9F252
:100700009150E1F684E0089582E0089583E0089531
:1007100081E00895EF92FF920F931F93CF937C0196
:100720008B010E945903C82F811117C08091E800E6
:1007300085FD0BC08091E8008E778093E8000E94D1
:100740005903882399F3C82F08C0F70181917F01CD
:100750008093F1000150110949F78C2FCF911F911F
:100760000F91FF90EF9008958091C10387FF13C010
:100770008091E80082FF06C08091E8008B7780932B
:10078000E80004C08091BF038111F2CF08958091E9
:10079000BF038823D9F38091E80080FFF8CF8091D0
:1007A000E8008E77ECCF982F9093E900242F762FD6
:1007B00050E0891731F07091EC002091ED005091DC
:1007C000F00021FD07C09F5F973071F78093E9002B
:1007D00081E008953091EB003E7F3093EB00309143
:1007E000ED003D7F3093ED003091EB0031603093B0
:1007F000EB007093EC002093ED005093F0002091FB
:10080000EE0027FDE0CF80E00895CF92DF92EF92D7
:10081000FF920F931F93CF93DF93C8EDD0E08881B1
:100820008F7E8883E7EDF0E080818160808384E0C3
:1008300082BF81E080939A0388818E7F888302EE55
:1008400010E0F80110821092DA0081EEC82ED12C4F
:10085000F601108288818F778883888180688883F9
:1008600088818F7D888319BC1092BF031092C003CA
:100870001092BE031092BD0390EEE92EF12CF70109
:1008800080818B7F808388818160888342E060E003
:1008900080E00E94D303F60180818E7F8083F8017F
:1008A000808181608083808188608083F70180817E
:1008B0008E7F8083888180618883DF91CF911F91B3
:1008C0000F91FF90EF90DF90CF900895FC01809101
:1008D000C7039091C80386179707A0F061157105AB
:1008E00029F49091E8009E779093E80090E06115DC
:1008F000710551F4911108C08091E80082FF34C065
:1009000080E00895BC01F2CF8091BF038823C1F13C
:100910008530C1F18091E80083FD30C08091E8000E
:1009200082FDEACF8091E80080FFE1CF8091F30063
:100930002091F200382F6115710519F0283031052A
:1009400058F091E02830310509F090E02091E8005E
:100950002E772093E800CBCF81918093F1006150F6
:1009600071092F5F3F4FE7CF8091BF03882341F08C
:10097000853041F08091E80083FFBECF81E008958B
:1009800082E0089583E00895089580919C0308957E
:100990009C014FB7F8948091910390919203A0919C
:1009A0009303B09194034FBF821B930B08952FB70D
:1009B000F8948091910390919203A0919303B09148
:1009C00094032FBF0895209114012223C9F0209190
:1009D000950327FF15C0E62FE695E695E695EE31DF
:1009E000D8F4E80FF92FF11D677021E030E001C065
:1009F000220F6A95EAF720958281282322830895A1
:100A0000FC01329608962191621303C0DF01119711
:100A10001C92E817F907B9F70895209114012223D1
:100A2000C1F02091950327FF14C0E62FE695E695C7
:100A3000E695EE31F8F4E80FF92FF11D677021E02B
:100A400030E001C0220F6A95EAF78281822B82830F
:100A50000895FC0132962FEF30E04191641751F078
:100A60002F3F19F4411101C0232F3F5F3630A9F702
:100A70002F3F09F40895820F911D27FD9A95FC01DF
:100A80006283089520918E0330918F0328173907D0
:100A900071F090938F0380938E03E0918C03F0911B
:100AA0008D03309721F00084F185E02D099408959D
:100AB00020918A0330918B032817390771F09093A6
:100AC0008B0380938A03E0918C03F0918D03309720
:100AD00021F00680F781E02D09940895E0918C03C0
:100AE000F0918D03309721F00190F081E02D099471
:100AF00080E00895FA01811101C0FB010994EDE243
:100B0000F3E0818360834283339693E0EA38F90708
:100B1000C1F70895FC01EE0FFF1FE80FF91FE35D19
:100B2000FC4F6183408322830895FC019B01AC014B
:100B300097FF04C044275527481B590BBA01620F81
:100B4000731F37FD0FC0241B350BC901A5E0880FAB
:100B5000991FAA95E1F70E94172C80E2861BF7FDEA
:100B600081950895CB0165E0880F991F6A95E1F79B
:100B7000BA01621B730B0E94172C80E6EFCFEBEFDC
:100B8000F3E0248130E1231B08F420E024838091EA
:100B9000F90381608093F9030895EBEFF3E024817A
:100BA00030E1230F08F42FEF24838091F903816053
:100BB0008093F9030895EBEFF3E0438120E1421BBA
:100BC00008F440E08181628190E00C942703EBEF10
:100BD000F3E0438120E1420F08F44FEF818162810D
:100BE00090E00C942703EBEFF3E0628120E1621BBD
:100BF00008F460E08181438190E00C942703EBEFDF
:100C0000F3E0628120E1620F08F46FEF818143819C
:100C100090E00C942703EBEFF3E081814381628144
:100C20008850990B0C942703EBEFF3E0818190E05F
:100C30004381628108960C9427038091FB0386957B
:100C40008695815009F488E10C940E038091FB0392
:100C5000869586958F5F893108F081E00C940E03AC
:100C6000EF92FF920F939701201B31092F3F31051F
:100C700019F010F02FEF30E02095382F320F08F4E4
:100C80003FEF832F0F91FF90EF900895EF92FF9227
:100C90000F939701201B31092F3F310519F010F0F8
:100CA0002FEF30E0322F3095482F430F08F44FEFED
:100CB000842F620F0F91FF90EF900895EF92FF92B3
:100CC0000F93970195E0099F200D311D11242F3FAF
:100CD000310519F010F02FEF30E02095382F320F4A
:100CE00008F43FEF832F0F91FF90EF900895E42FCA
:100CF000F0E0EE0FFF1FE357FE4F9081921B97FD30
:100D00009195292F38E1239F212D1124620F0895F9
:100D1000EF920F93972F23E0029FB0011124759556
:100D200067956E0D792F0F91EF900895E42FF0E005
:100D3000EE0FFF1FE159FE4F678D621B0895E42FF0
:100D4000F0E0EE0FFF1FE357FE4F6081621B089536
:100D5000622F08950C947F050C948A0580910104FC
:100D600080FD20C00E946E0580FF14C06091FE03CC
:100D7000683060F06C3A60F48091010481FF685F34
:100D8000262F462F86E090E00C94AC0668E0F8CF62
:100D900064EBF6CF8091010481FF04C020E040E0C5
:100DA00060E0F0CF089522E8241B08F420E0620FF1
:100DB00008950F931F93522F10E0F801EE0FFF1FBD
:100DC000E159FE4FA78DA052BB0B9D015203F001CC
:100DD000539FF00D1124000F111FD801A357BE4FD0
:100DE0000C910057110B40039001419F300D1124CD
:100DF0002E0F3F1F37FF02C0215C3F4F96E0359515
:100E000027959A95E1F7620F1F910F910895EF9240
:100E10000F93CF93DF93D72FC82FC9010E190097D7
:100E200029F480E857FD05C080E003C0BA010E94A4
:100E30009505602F681B7D2F8C2FDF91CF910F912F
:100E4000EF9008950F93CF93DF93D72FC82FC90149
:100E5000009729F480E857FD05C080E003C0BA017F
:100E60000E949505602F680F7D2F8C2FDF91CF9109
:100E70000F910895E82F86FDE0952E2F2F7086FDA7
:100E80002F5FE695E695E695E670F0E0E85AFE4FAE
:100E90009181929F902D212D112492959F702295E2
:100EA000207F922B2081920F87FD919580E8890FFA
:100EB00008950F931F93CF93DF938B01D82FC42FE7
:100EC000822F0E943A07EC2FF0E0EE0FFF1FE3574E
:100ED000FE4F90819058890F87FD8195880F682F6C
:100EE0002CE0629F612D1124600F712F8D2FDF91F7
:100EF000CF911F910F9108954091100150911101D0
:100F000025E038E0429FC001439F900D529F900D15
:100F10001124875E994C9093110180931001890FE1
:100F20000895AC018230910508F408959FEF413E89
:100F30008EE1580740F49A0195E0369527959A95E9
:100F4000E1F798E0920F61E0E62FE90FFF27FF1F1E
:100F50009F0135952795822F229FF001239FF00D49
:100F6000F00D11244E175F0738F49FEF920F96177C
:100F700058F78FEF860F08952F3FE9F361E0620F76
:100F8000F6CF30E020E0869F212D969F200D311D69
:100F90001124C9010895AF92BF92CF92DF92FF92C0
:100FA0000F931F93CF93DF93362F472FE82FF0E057
:100FB000E056FD4F71110FC0E4918E2F2E2F6E2F32
:100FC000722FDF91CF911F910F91FF90DF90CF9003
:100FD000BF90AF900895C72FD0E02491F22E022F3A
:100FE00010E056E0659FC0011124EFEFF0E0BF0173
:100FF0000E94032C832F90E0880F991F35E5369FC0
:10100000D001379FB00D11248A1B9B0B982F990F8D
:10101000980F6F01CC1ADD0AC09ED001C19EB00DA1
:10102000D09EB00D11248B2F499FA0011124452F74
:1010300055276F01C41AD50AC09EA001C19E500D4C
:10104000D09E500D11245F01A91AB108AC9E600119
:10105000AD9ED00CBC9ED00C1124CD2CDD24EC19FF
:10106000FD09E09FE001E19FD00DF09FD00D11241C
:10107000ED2F62307105A1F050F46115710509F48E
:101080009ECF6130710581F0EB2F852F98CF6430B2
:10109000710569F080F06630710509F490CFF4CFE6
:1010A000E22F2B2F8D2F8BCFE22F252F88CFEB2FE9
:1010B000822F2D2F84CF2B2F8F2DE52F80CF2F9296
:1010C0003F925F926F927F928F929F92AF92BF9268
:1010D000CF92DF92EF92FF920F931F93CF93DF9304
:1010E000CDB7DEB72A970FB6F894DEBF0FBECDBFDF
:1010F0008B837E836D832091150187E0289F802D4F
:1011000011248F83895F89838A83803210F03FE1C5
:101110003A838091CD038C83FF81EF2FF0E0FA8733
:10112000E987CF01880F991F9C0121593E4F690122
:101130003B81832F90E0FC013196F887EF838A8111
:1011400099859817E8F081E0E981EF3108F080E0B7
:101150002A960FB6F894DEBF0FBECDBFDF91CF91B8
:101160001F910F91FF90EF90DF90CF90BF90AF90C5
:101170009F908F907F906F905F903F902F900895F9
:10118000E985FA85E553FE4F808190911601892308
:10119000F1F02090FC033090FD032F81388523531C
:1011A0003C4F39015B8010E0FC815F16D0F020914C
:1011B000FE03129F112D1124B101812F0E94CB0734
:1011C000462F282F672F89859A850E94AC0629858E
:1011D0003A852F5F3F4F3A87298732E0C30ED11CF3
:1011E000AECFF30181913F01F601A68CA81ABB088E
:1011F000878CF3018781881A9908AA9C9001AB9C7F
:10120000300D300D1124889CC001899C900D900DEB
:101210001124820F931F0E949107082F6091FF03F2
:1012200021E0620F08F46FEFF301EE0FFF1FED5C9A
:10123000F340858996890E94C1077C019401A5012C
:10124000B101812FED81FE8109951B015394182F67
:10125000ABCFDF92EF92FF920F931F93CF93DF9369
:101260007C01C091150187E0C89FC02D112417E0B3
:101270001C0F012F103208F00FE16091FF036695FB
:10128000669521E0620F08F46FEF8091C903909199
:10129000CA030E94C107D82ED0E0C01760F081E0D9
:1012A0001F3108F080E0DF91CF911F910F91FF90E7
:1012B000EF90DF900895FE01E553FE4F80819091FD
:1012C0001601892391F06091FC037091FD038091D8
:1012D000FE032D2D4C2FF70109950E94CB07462FB9
:1012E000282F672FCE010E94AC062196D6CF5F92A1
:1012F0006F927F928F929F92AF92BF92CF92DF9226
:10130000EF92FF920F931F93CF93DF933C01C09115
:10131000150187E0C89FC02D112417E01C0FF12E86
:10132000103210F03FE1F32E6091FF03669580913B
:10133000C9039091CA030E94C107582ED0E0CE0184
:10134000880F991F9C0121593E4F6901CF15A0F0CC
:1013500081E01F3108F080E0DF91CF911F910F9164
:10136000FF90EF90DF90CF90BF90AF909F908F90C5
:101370007F906F905F900895FE01E553FE4F80814E
:1013800090911601892379F1F601868D282F205737
:10139000330B5901878DE82FE052FF0B4F01AA9CB8
:1013A0009001AB9C300D300D1124EE9FC001EF9FDA
:1013B000900D900D1124820F931F0E949107082F0A
:1013C0006091FC037091FD038091FE03E52C940174
:1013D000A501F30109950E94CB07462F282F672FFF
:1013E000CE010E94AC06F2E0CF0ED11C2196AECF0A
:1013F0000E94D7049C019091960280919702982BAD
:1014000021F0309393022093920290919802809160
:101410009902982B21F03093910220939002E09151
:101420008C03F0918D03309749F082E08093940211
:101430000480F581E02D84E992E0099408954091BB
:101440009602803F59F48091970287FF0DC0109259
:10145000970241110BC010928E0208C0813F81F4A7
:101460008091970218169CF3442381F08091980292
:1014700090919902892B09F05AC010928D0208951B
:10148000823F49F447FFF0CF109296028091970275
:101490008111ECCFE0CF833F19F41416ACF3E4CF05
:1014A00090919802893F29F41916F4F61092980247
:1014B000DBCF8A3F19F497FFD7CFF8CF90919902ED
:1014C0008B3F29F497FFD0CF10929902CDCF8C3F5C
:1014D00019F41916CCF3C8CF9CE0980F953090F40E
:1014E000845F990B21E030E0B90102C0660F771FDD
:1014F0008A95E2F7CB01809590919502892380939C
:101500009502B2CF8D3F31F480918F028E7F809310
:101510008F02AACF8E3F21F480918F028D7FF7CF6B
:101520008F3F09F0A1CF80918F028B7FF0CF08957C
:1015300080918F0280FD16C081FD16C082FD16C00D
:1015400080918D028823A1F0883280F428E0829F68
:10155000C001112468E270E00E94172C862F672BCF
:1015600039F0089582E0089584E0089588E00895B0
:1015700081E0089580918F0280FD14C081FD14C028
:1015800082FD16C080918E02882381F08E3180F416
:1015900020E5829FC00111246EE170E00E94172CAB
:1015A000862F089584E1089588E2089588E00895DB
:1015B00080E50895803F31F40E94BA0A81958093B6
:1015C00097020895813F19F40E94BA0AF8CF823F2A
:1015D00031F40E94BA0A8195809396020895833F60
:1015E00019F40E94BA0AF8CF893F29F40E94980A98
:1015F0008093980208958A3F21F40E94980A819569
:10160000F7CF8B3F31F40E94980A8195809399021D
:1016100008958C3F19F40E94980AF8CF9CE0980F27
:10162000953070F4845F990B21E030E001C0220F07
:101630008A95EAF780919502822B8093950208950E
:101640008D3F31F480918F02816080938F020895E5
:101650008E3F21F480918F028260F7CF8F3FB9F7E0
:1016600080918F028460F1CF80E00895F894E82F94
:10167000E295EF70F0E031A1282F2F7081E090E02B
:1016800001C0880F2A95EAF7982F9095932391A38C
:1016900092A1892B82A3789408959091950392FF4B
:1016A00006C0282F28712830F9F4877F846093FFC3
:1016B00006C0282F28712831F1F4877E846120919B
:1016C000960320FF06C0382F38713830D9F4877F51
:1016D000816021FF06C0282F28712831D1F4877E30
:1016E000816194FD877E0895282F24712430F9F6B6
:1016F0008B7F8860DCCF282F2471243101F78B7E0B
:101700008861DDCF382F3171313019F78E7F8860D5
:10171000E0CF282F2171213121F78E7E8861E1CF22
:10172000CF93DF93EC0182389105A9F1D8F581338D
:10173000910509F496C048F58932910509F48AC0EB
:101740008A9709F495C0C11521E5D20708F0BCC0FD
:10175000C11530E5D30708F014C1C83ED10508F023
:101760009CC0C13ED10560F5C83AD10508F087C0DC
:10177000C53AD10508F0FDC0C130D10509F1209767
:10178000F9F0C430D105E0F440C08533910509F487
:101790005AC0C997C1F680919503837089F0C0EE55
:1017A000D0E00EC0833E910599F170F4803E910522
:1017B00001F1823E910539F68091950382FD21C0A9
:1017C000CE01DF91CF910895863E910561F1873E6C
:1017D000910571F1843E910509F0B5CF8091960392
:1017E00081FFEECF80919503C7EED0E084FD0DC060
:1017F000E7CF8091950380FD12C19091960390FFF1
:10180000DFCFC3EED0E084FFDBCFD0E0C0E0D8CFA5
:101810008091950382FD06C19091960390FDBFCF04
:1018200084FFCECFF2CF8091950383FDDDCFC8CF6B
:101830008091950383FDF9C09091960391FFF0CFBD
:10184000C4EED0E0BDCF8091950385FFB9CFC9E24A
:10185000D0E0B6CF8091950385FFB2CFC5E3D0E04D
:10186000AFCF8091950386FFABCFCAE2D0E0A8CF7F
:101870008091950386FFA4CFC1E3D0E0A1CFCF3BF9
:10188000D10518F6C85AD0E0CC0FDD1FC15EDE4F7F
:101890000990D881C02DD46493CFC11540E2D407FC
:1018A00058F4C11581E0D80708F08ACFC03FD105B0
:1018B00008F4ABCFD06584CFC11590E4D90708F404
:1018C000A4CFDF70D06A7CCFC11525E5D20700F523
:1018D000C11534E5D30708F08AC0C11543E5D40724
:1018E00008F071C0C11582E5D80708F467C0CE01C1
:1018F0008370992721E030E002C0220F331F8A95C0
:10190000E2F7C695C69580E2C89FE001112452C057
:10191000C11599E5D907A8F4C11528E5D20708F043
:101920006BC0C11536E5D30708F06FCF8C2F0E942E
:101930004D0BC82FD0E0DC2FCC27CC27DF71D06235
:101940003FCFC1154AE5D40708F45BC0CE019056DD
:101950008115904208F059CF8D2F8F710E944D0B49
:1019600090E0982F882788279F719C012C2BE901F4
:10197000E6CFC55AD0E0C45EDE4FC881D0E0D06467
:101980001FCFCE01E4E096958795EA95E1F7837045
:101990002C2F26952695237040E2249F9001112438
:1019A000382B8C2F8370C1E0D0E002C0CC0FDD1F3C
:1019B0008A95E2F7C22BD32BDC6802CFDC2FCC2731
:1019C000C16FD06AFDCECE018370992721E030E04F
:1019D00002C0220F331F8A95E2F7C695C69590E2A2
:1019E000C99FE0011124C22BD32BDA68E9CEDC2F8A
:1019F000CC27C46FD06AE4CEDC2FCC27C06FD06A6E
:101A0000DFCE8C2F8F700E944D0B34E0D695C7959A
:101A10003A95E1F7CF709C2FEC01D069D1CEC9E3A4
:101A2000D0E0CECEC2EED0E0CBCEC6EED0E0C8CE77
:101A300080917402811110927402089580959091A2
:101A400073029823909373020895809150029091AD
:101A50001F02981301C008958F5F8770FACFE92F96
:101A6000EE0FEE0F9E0F890F982F97708695869533
:101A7000869523E0829FF0011124E35FFD4F50E043
:101A800040E080E0219130E0092E02C03695279594
:101A90000A94E2F721703327042E01C0220F0A9422
:101AA000EAF7822B4F5F5F4F4330510559F7089596
:101AB000E92FEE0FEE0F9E0F890F982F977041E0E0
:101AC00001C0440F9A95EAF786958695869593E02E
:101AD000899FF0011124E35FFD4F30E020E070E0CA
:101AE0005191DF011197CB01022E02C09695879587
:101AF0000A94E2F7817081958527842385278C934A
:101B00002F5F3F4F2330310559F708958093970396
:101B100070939903609398038091BF038430F9F424
:101B20008093E9008FEF9091E800815095FD06C009
:101B300095ED9A95F1F700008111F5CF8091E800BD
:101B400085FF0DC050E040E063E070E087E993E07E
:101B50000E948A038091E8008E778093E8000895C0
:101B6000BC0184E00C94860DBC0183E00C94860DCE
:101B70009C0184E08093E9009FEF8091E800915000
:101B800085FD06C085ED8A95F1F700009111F5CF2E
:101B90008091E80085FF0CC050E040E066E070E016
:101BA000C9010E948A038091E8008E778093E80043
:101BB0000895CF93DF93EC01809114018823B1F154
:101BC0008091950387FF32C060E284E08093E90052
:101BD0008FEF9091E800815095FD06C095ED9A95A4
:101BE000F1F700008111F5CF8091E80085FF1BC05F
:101BF0008091140170E050E040E0811104C050E099
:101C000040E068E070E0CE010E948A038091E80025
:101C10008E778093E80080E2FE01ADE9B3E00190A9
:101C20000D928A95E1F7DF91CF91089568E081E008
:101C3000CDCF81E08093E00080E28093D8001092C5
:101C4000C9008FE19EE40197F1F700C0000087E032
:101C500090EBDC018093050490930604A0930704A5
:101C6000B093080488E19CE00FB6F894A89580939F
:101C700060000FBE90936000FFCF219A35B13D7F89
:101C800025B122604FB7F8948DE293E0FC015191A9
:101C9000CF0168E025B9000000C057FF35B9550FE6
:101CA000000000C000C000C035B900C06A9591F7BF
:101CB000F3E08A389F0751F74FBF8FE594E0019713
:101CC000F1F700C000000895CF93DF93CFE8D1E093
:101CD00060E0CE010E94DE2C2196C11584E0D80779
:101CE000B9F7DF91CF9108956F927F928F929F9273
:101CF000AF92BF92CF92DF92EF92FF920F931F931A
:101D0000CF93DF9380EAC82E83E0D82E9DE6E92E9C
:101D1000F12CE701EC9736011BC0F50185909490FA
:101D2000692DC8010E94DE2C682DC80101960E9411
:101D3000DE2C82E0A80EB11C0E5F1F4FC017D1072A
:101D400061F78AE0680E711C2A96CE15DF0529F02E
:101D50008E010A5011095301E0CF7E018CE3E80E99
:101D6000F11C8CE3C80ED11C85EDE81681E0F80665
:101D700081F6DF91CF911F910F91FF90EF90DF904F
:101D8000CF90BF90AF909F908F907F906F9008956D
:101D9000CF93C82F6FEF811163E283E290E00E943E
:101DA000DE2C6FEFC11164E084E290E00E94DE2C33
:101DB0006FEFC11169E185E290E0CF910C94DE2CC8
:101DC00080E00E94C80E60E086E290E00E94DE2C77
:101DD0000E94740E0E94640E81E00C94C80E0F9352
:101DE0001F93CF93DF93C42FD0E0CC0FDD1F2AE0E9
:101DF000629FC00DD11D11243CE3839FC00DD11DF6
:101E00001124CE0187960E94BA2C082F10E0102FC3
:101E10000027CE0188960E94BA2C9801282BC90170
:101E2000DF91CF911F910F910895462F863038F49E
:101E3000763028F4653018F4672F0C94EF0E90E09C
:101E400080E00895CF92DF92FF920F931F93CF937C
:101E5000DF936C010091FA0380917502082BC7E0B3
:101E6000D0E010E0FC2EC8010C2E02C0959587959D
:101E70000A94E2F780FD0CC02197A0F7F12C8F2D7A
:101E8000DF91CF911F910F91FF90DF90CF90089538
:101E9000B6018C2F0E94150F0E94900B019761F3E1
:101EA000EECFCF93DF93EC010E94220FBE010E9480
:101EB000150FDF91CF910C94900BFC0180819181E3
:101EC0000E94510F92959F70963091F058F4925F56
:101ED0009F70923058F4803F19F030F4883E30F40F
:101EE00081E008959A5FF4CF843FD1F380E00895B4
:101EF000883EB0F3813FD1F7F3CF83E290E00E94B8
:101F0000BA2C833289F484E290E00E94BA2C8430A7
:101F100059F485E290E00E94BA2C91E0893109F0F1
:101F200090E0892F8170089580E0FCCFCF9384E00A
:101F300090E00E94BA2CC82F82E290E00E94BA2C56
:101F4000982F8C2FCF9108951F93CF93DF93EC019F
:101F5000FC01E553FE4F80816823C9F00E94842C68
:101F6000182F0E94842C8F77782F20E8720F08F4A6
:101F70007FEF612F8091FE030E94CB07462F282F11
:101F8000672FCE01DF91CF911F910C94AC06DF91AA
:101F9000CF911F910895DF92EF92FF920F931F93BD
:101FA000CF93DF938C01FC01E553FE4F80816823C2
:101FB00081F1D090FD03D091FE03C091FC03EC2E83
:101FC000F12C0E94842C282FC7018C549F4F68E667
:101FD00071E00E94172C8E199F0997FD0396959525
:101FE00087959595879523706C2F289F600D1124F8
:101FF0007D2D8D2F0E94CB07462F282F672FC801DC
:10200000DF91CF911F910F91FF90EF90DF900C9493
:10201000AC06DF91CF911F910F91FF90EF90DF9071
:1020200008959F92AF92BF92CF92DF92EF92FF926C
:102030000F931F93CF93DF93182F80911301811378
:1020400023C09091FB0393702091120130E081E056
:102050009217130609F480E0817080931701809134
:10206000000490911601981739F08093160140E012
:1020700060E080E00E94AA06193160F4E12FF0E0F0
:10208000E959F24D0C942B2C81E0E6CF8091170199
:10209000811120C0C0E0809115018F5F80931501F0
:1020A000C1110CC082E08093180180911701811149
:1020B00005C0111103C083E080931801DF91CF9117
:1020C0001F910F91FF90EF90DF90CF90BF90AF9056
:1020D0009F90089540E060E080E00E94AA06DACF79
:1020E000C091150187E0C89FC02D112407E00C0F97
:1020F000F02E003210F0FFE1FF2E6091FC03709192
:10210000FD038091FE030E94CB07E62ED72EC82E3A
:10211000D0E0CF1528F0C1E00F3108F4BCCFBACF22
:10212000FE01E553FE4F808190911601892331F025
:102130002C2D4E2D6D2DCE010E94AC062196E9CF9F
:10214000C091150187E0C89FC02D112407E00C0F36
:10215000F02E003210F0EFE1FE2ED090FD03E09063
:10216000FE03D091FC036D2F7D2D8E2D0E94CB0799
:10217000C62EB72EA82E6091FF036D0F7D2D8E2DDC
:102180000E94CB07E62ED72E982ED0E0CF1518F65A
:10219000FE01E553FE4F908180911601892359F08D
:1021A000292D4E2D6D2D90FD03C02A2D4C2D6B2D0C
:1021B000CE010E94AC062196E9CFC091150187E0BF
:1021C000C89FC02D112407E00C0FE02E003210F044
:1021D0007FE1E72ED090FD03C090FE032091FF0326
:1021E00060E4F62E3F2D329F312D1124F32ED0E0E6
:1021F000CE1508F090CFFE01E553FE4F80819091FF
:1022000016018923B9F0FE01EE0FFF1FE159FE4FC1
:10221000878D82958F706091FC038F9D600D1124D6
:102220007D2D8C2D0E94CB07462F282F672FCE01A6
:102230000E94AC062196DCCFC091150187E0C89FB3
:10224000C02D112407E00C0FE02E003210F04FE1FA
:10225000E42ED090FD03C090FE032091FF0330E4F4
:10226000F32E3F2D329F312D1124F32ED0E0CE15C9
:1022700008F051CFFE01E553FE4F80819091160189
:102280008923D9F0FE01EE0FFF1FE159FE4F668D45
:10229000F69EB001112425E0759567952A95E1F722
:1022A0008091FC03680F7D2D8C2D0E94CB07462F5B
:1022B000282F672FCE010E94AC062196D8CFC0915F
:1022C000150187E0C89FC02D112407E00C0FF02EE8
:1022D000003210F08FE1F82EE090FC03D091FD0366
:1022E000D090FE036091FF03669566956695809198
:1022F000C9039091CA030E94C1070E943A078058FF
:1023000087FD8195880F282F3D2D239F212D112496
:10231000822F6E2D7D2F0E94CB07E62ED72EC82E42
:10232000D0E0CF1508F0F7CEFE01E553FE4F8081D7
:1023300090911601892331F02C2D4E2D6D2DCE015B
:102340000E94AC062196EDCF88EA96E00E9429090A
:10235000C82FA1CE8FE996E0F9CF86E996E0F6CFB7
:1023600088E896E00E947709F3CFC091150187E0D5
:10237000C89FC02D1124D7E0DD2EDC0ECD2CEFE15F
:10238000ED1510F4BFE1CB2E6091FF0366958091AF
:10239000C9039091CA030E94C107B82ED0E0CE01B4
:1023A000880F991F9C0121593E4F7901CC1530F0BF
:1023B000C1E03EE13D1508F06ECE6CCEFE01E55366
:1023C000FE4F8081909116018923C1F0F701278D7E
:1023D0002052330B468D4057550B6091FC03709192
:1023E000FD038091FE030B2D0E9422070E94CB0764
:1023F000462F282F672FCE010E94AC06F2E0EF0E89
:10240000F11C2196D3CF87E097E0ACCFC0911501A6
:1024100087E0C89FC02D1124F7E0FF2EFC0ECF2CC3
:102420008FE18F1510F4EFE1CE2E6091FF036695DA
:1024300066958091C9039091CA030E94C107D82E66
:1024400080E48D0D0E943A0760E8B62EB80E8D2DFF
:102450000E943A0770E8A72EA80ED0E0CC1530F005
:10246000C1E0FEE1FF1508F016CE14CEFE01E553E3
:10247000FE4F8081909116018923A1F06091FC03A9
:102480007091FD038091FE03ED2C0C2F2A2D4B2D16
:102490000E94D9060E94CB07462F282F672FCE0116
:1024A0000E94AC062196DACFC0911701C1111EC05F
:1024B0006091FF0320E1620F08F46FEF8091C90380
:1024C0009091CA030E94C1076AE070E00E94032C49
:1024D000892B09F0DFCD0E94842C6FE170E00E940F
:1024E000172C609116010E94CB0FD5CDC09115011C
:1024F00087E0C89FC02D112407E00C0F802F003209
:1025000008F08FE1D0E0E82EF12CCE15DF050CF0BD
:1025100002CE60911601CE010E94CB0F2196F5CF1D
:10252000C0911701C1111EC06091FF0320E1620F2D
:1025300008F46FEF8091C9039091CA030E94C1070C
:1025400065E070E00E94032C892B09F0A3CD0E9466
:10255000842C6FE170E00E94172C609116010E949C
:10256000A40F99CDC091150187E0C89FC02D1124FB
:1025700007E00C0F802F003208F08FE1D0E0E82E4A
:10258000F12CCE15DF050CF0C6CD60911601CE0101
:102590000E94A40F2196F5CFC091150187E0C89F36
:1025A000C02D112407E00C0FF02E003210F05FE177
:1025B000F52ED090FD03E090FE03D091FC036091D6
:1025C000FF036695669566958091C9039091CA034D
:1025D0000E94C1070E943A07805887FD8195880FA5
:1025E000682F2CE0629F612D11246D0F7D2D8E2DA3
:1025F0000E94CB07E62ED72EC82ED0E0CF1508F0CC
:102600008ACDFE01E553FE4F80819091160189230A
:1026100031F02C2D4E2D6D2DCE010E94AC06219651
:10262000EDCF89E597E092CE87E796E08FCE409197
:102630009A0250919B0260919C0270919D02809140
:10264000C9039091CA03A091CB03B091CC03841726
:102650009507A607B70708F41DCD0E947C07082F31
:102660000E947C079FE1891BF0F7890FC82FD0E0FB
:10267000FE01E553FE4F809116019081892309F4F4
:1026800090C020E040E060E001FD13C00E947C07A4
:10269000082F0E947C07782F76952FE7720F08F499
:1026A0007FEF602F8091FE030E94CB07462F282FDB
:1026B000672FCE010E94AC062091FF0330E1230F6B
:1026C00008F42FEF60E1822F90E00E94C107BC0167
:1026D00084EF91E00E94032C8091C9039091CA037A
:1026E000A091CB03B091CC03860F971FA11DB11D04
:1026F00080939A0290939B02A0939C02B0939D02B8
:10270000C9CC4091FB025091FC026091FD02709196
:10271000FE028091C9039091CA03A091CB03B091AE
:10272000CC0384179507A607B70708F4B3CC8091AC
:1027300017018823D9F040E060E080E00E94AA06FB
:102740004EE9E42E42E0F42ED0E0C0E00FE70E9414
:102750007C0781FF28C0F701108211821282219626
:10276000F3E0EF0EF11CCF31D10589F7C0911501CF
:1027700087E0C89FC02D112407E00C0FD02E003237
:1027800010F02FE1D22EEC2EF12C23E0C29FE001BD
:102790001124C256DD4FED1418F1EEE9F2E00F31CD
:1027A000C0F5C1E078CC0E947C07B82E0E947C075F
:1027B0008695782F700F08F47FEFCE01880F991F50
:1027C0008C0F9D1F9C0122563D4F69016B2D8091FE
:1027D000FE030E94CB07F601608371838283BFCF23
:1027E000F701E553FE4F808190911601892331F066
:1027F0002A8148816981C7010E94AC0623963FEF78
:10280000E31AF30AC8CF83819481A58181939193C0
:10281000A19382E0E83FF807B1F70E947C0781FFAF
:102820002BC01092F8021092F9021092FA02209135
:10283000FF0330E1230F08F42FEF60E1822F90E0D7
:102840000E94C107BC0188EB9BE00E94032C809191
:10285000C9039091CA03A091CB03B091CC03860F1A
:10286000971FA11DB11D8093FB029093FC02A093C2
:10287000FD02B093FE020ECC0E947C07C82F0E947E
:102880007C078695782F2FE7720F08F47FEF6C2F67
:102890008091FE030E94CB076093F8027093F902C7
:1028A0008093FA02C4CFC091150187E0C89FC02D64
:1028B000112407E00C0FD02E003210F09FE1D92E2A
:1028C0002091FF0331E0230F08F42FEF30E050E0B8
:1028D00040E06FEF7FEF80E090E00E94022D7901F1
:1028E000D0E02C2FCD1508F016CCFE01E553FE4F9D
:1028F000808190911601892311F14091CD034150BF
:10290000042E000C550B47FF1CC0C7016091FF034C
:1029100021E0620F08F46FEF0E94C107AC016091E3
:10292000FC037091FD038091FE030E94D3060E9478
:10293000CB07462F282F672FCE010E94AC06219689
:10294000D0CFFA01E353FC4F818982130AC0FA0108
:10295000EE0FFF1FE353FC4F818D928D8E159F0567
:10296000A8F241505109CFCF8091CD0321E0382FFB
:10297000321B08F430E0832F6EE576E00E945F089A
:10298000E7CC6EE576E080E0F9CF8091CD0321E0E1
:10299000382F321B08F430E0832F66E476E0EECF68
:1029A0008091CD0321E0382F321B08F430E0832FD3
:1029B00060E376E0E3CF8F929F92AF92BF92CF9287
:1029C000DF92EF92FF921F93CF93DF9380912803C2
:1029D00090912903A0912A03B0912B032FB7F8946B
:1029E0008090910390909203A0909303B0909403F1
:1029F0002FBF75016401C81AD90AEA0AFB0A2FB76A
:102A0000F8944091910350919203609193037091D7
:102A100094032FBF409328035093290360932A0304
:102A200070932B031091FF02EFEFF2E0C12FD0E083
:102A30000197AF4FBF4F88199909AA09BB091D1308
:102A400027C0C093FF0280912C03C0E0811108C011
:102A50008091FB03C82FC37019F0C82FC695C69587
:102A6000809118018130F1F1882329F1823009F435
:102A70004BC0833009F453C0DF91CF911F91FF9079
:102A8000EF90DF90CF90BF90AF909F908F90089580
:102A9000218D328D4901B12CA12C88159905AA05EB
:102AA000BB0520F4C150DF5F3296C9CF2C0D3D1D10
:102AB000328F218FF8CF109215014093C9035093A4
:102AC000CA036093CB037093CC0389E2EFEFF2E08B
:102AD000ADECB3E001900D928A95E1F781E080932F
:102AE0001801CACF8C2F0E941110CC2329F2DF913C
:102AF000CF911F91FF90EF90DF90CF90BF90AF905C
:102B00009F908F900C94AE06C09313018091FB03AD
:102B10008370809312010E943D0E83E0E0CF80918C
:102B2000F903882351F046E050E06CE170E08BEF50
:102B300093E00E94CE2C1092F9034091C90350916A
:102B4000CA036091CB037091CC032FB7F8948091A6
:102B5000910390919203A0919303B09194032FBF9E
:102B6000841B950BA60BB70B4097A105B10508F484
:102B700083CF1092180180CFEBEFF3E08DE18083DB
:102B80008091190190911A01A0911B018183928378
:102B9000A3838FE784838FEF858346E050E06CE169
:102BA00070E0CF010E94CE2C1092F90308956F922D
:102BB0007F929F92AF92BF92CF92DF92EF92FF925D
:102BC0000F931F93CF93DF9300D000D000D0CDB7E9
:102BD000DEB78E010F5F1F4F86E0F80111928A95D4
:102BE000E9F79DE4E92E91E0F92E22E5C22E21E0DD
:102BF000D22E99249394AA24A394B12CF701819105
:102C00007F018F3F09F449C0F894E82FE295EF70F7
:102C1000F0E021A18F70A50102C0440F551F8A95D5
:102C2000E2F7CA01922F982B91A392A18095892354
:102C300082A3789400C082E5682E81E0782ED801C6
:102C4000692D6095F30191913F018D919D01215076
:102C500031099F3F09F468C0492F42954F7050E0F9
:102C6000FA0140A150E09F7002C0559547959A9592
:102C7000E2F740FD59C08929F9018083F8E56F1614
:102C8000F1E07F06F9F6F701319780818F3F11F06F
:102C90000E94360B40EA4A95F1F7990CCE14DF04F6
:102CA00009F0ACCF46E050E0B80189E792E00E941D
:102CB000942CFF24F394009709F4F12C892BB1F1A3
:102CC00086E0F801A9E7B2E001900D928A95E1F75C
:102CD00081E0809378020E94D704909377028093DA
:102CE000760280917602909177020E94C80405973F
:102CF00008F1809179028093870280917A02809313
:102D0000880280917B028093890280917C0280936B
:102D10008A0280917D0280938B0280917E02809353
:102D20008C021092780206C08623A6CF809178028A
:102D30008111D7CF8F2D26960FB6F894DEBF0FBE28
:102D4000CDBFDF91CF911F910F91FF90EF90DF905A
:102D5000CF90BF90AF909F907F906F90089580919B
:102D6000730290917202892B8093EC01909174020E
:102D70009923A1F0892B8093EC0180911401882381
:102D8000D9F18091950387FF37C08EE1EEEEF1E037
:102D900090E0815098F591110E94180D40E250E0AA
:102DA00062E572E08CEE91E00E94942C892B59F13F
:102DB00080E2ECEEF1E0A2E5B2E001900D928A959E
:102DC000E1F7E0918C03F0918D033097E1F0809171
:102DD0001401882359F08091950387FF07C08091E3
:102DE000EC018093ED0186E08093EC010280F38199
:102DF000E02D8CEE91E0099486E0C8CF219122234A
:102E000041F29F5FC6CF089590E080E00E94580590
:102E100090E080E00E944205109272020E94AF167C
:102E200086E0E4E9F2E0DF011D928A95E9F710926D
:102E30008E0210928D0210928F020C94F8098093EA
:102E4000FA030C9404178091FA03982F9670963029
:102E500019F488600C941F17877FFCCF21E030E0C5
:102E600001C0220F8A95EAF720958091FA03822308
:102E70000C941F17909151028095892380935102E1
:102E8000282F277091F4282F082E000C330B92174F
:102E9000130659F09091960392FD07C0859585958C
:102EA00085950E942E17109251020895CF93C091DC
:102EB0009603C2FB992790F9981799F080FBC2F905
:102EC000C09396036091950384E090E00E94DE2C0D
:102ED0006C2F82E290E00E94DE2C82E0CF910C9475
:102EE0003A17CF91089521E030E001C0220F8A9572
:102EF000EAF78091FA03822B0C941F1780937502D6
:102F00000C9404171092730280911401EEEEF1E01C
:102F1000882359F08091950387FF07C08EE1DF0178
:102F20001D928A95E9F70C94041786E0F8CF1F9359
:102F3000CF93DF93CDB7DEB7AA970FB6F894DEBF75
:102F40000FBECDBF81EC93E02091F100DC012D9309
:102F5000CD01B3E0893C9B07B9F78091C203833070
:102F600009F472C0B8F4813009F449C0823009F420
:102F7000B3C08091E80083FF8BC28091C103909120
:102F8000C2039A3008F084C2E92FF0E0E058F24D15
:102F90000C942B2C8A3009F48EC08B3009F471C04C
:102FA000893039F78091C103813219F78091C503C7
:102FB0009091C603009711F00297D9F68091E8002E
:102FC000877F8093E8008091E80082FF38C090916D
:102FD000F3008091F200029731F48091F10081308A
:102FE00011F0863021F48091F10080939C03809150
:102FF000E8008B778093E8000E94B403BACF8091F9
:10300000C103813A09F0B5CF8091E800877F8093B2
:10301000E8008091C5039091C603892B61F460E2BA
:103020008DE993E070E00E9466048091E8008B7760
:103030008093E8009ECF60E090E080E0F3CF809145
:10304000BF038111C0CF95CF8091C103813A09F0B0
:1030500090CF8091C5039091C603892B09F089CF49
:103060008091E800877F8093E8008091E80080FFEE
:10307000FCCF809114018093F1008091E8008E775D
:10308000B9CF8091C103813209F073CF8091C5031C
:103090009091C603892B09F06CCF8091E800877F5F
:1030A0008093E8000E94B4038091C30380931401CD
:1030B0000E9482175ECF8091C103813209F059CFFF
:1030C0008091E800877F8093E8000E94B40380919C
:1030D000C40380939B034DCF8091C103813A09F0D3
:1030E00048CF8091E800877F8093E8008091E800D6
:1030F00080FFFCCF80919B03BECF803899F082384F
:1031000009F0C6C18091C5038F70873008F0C0C137
:103110008093E9008091EB0085FB882780F910926D
:10312000E90006C08091BD039091BE0391118260B9
:103130009091E800977F9093E8008093F1001092BF
:10314000F1008091E8008E779FC1882309F48DC13A
:10315000823009F09DC18091C303811190C180919B
:10316000C5038F702FEF280F263008F091C1809390
:10317000E9002091EB0020FF82C1933031F480916F
:10318000EB0080628093EB007AC19091EB0090613C
:103190009093EB0021E030E001C0220F8A95EAF71E
:1031A0002093EA001092EA008091EB008860EACF59
:1031B00081116EC11091C3031F778091E300807865
:1031C000812B8093E3008091E800877F8093E80063
:1031D0000E94B4038091E80080FFFCCF8091E3005F
:1031E00080688093E30082E0111183E08093BF0345
:1031F0004FC18058823008F04BC12091C3033091F9
:10320000C4032C3DE3E03E07A1F583E08A838AE214
:1032100089834FB7F894DE01139620E03EE051E237
:10322000E32FF0E050935700E49120FF03C0E295B4
:10323000EF703F5FEF708E2F90E0EA30C0F0C796DE
:103240008D939D932F5F243159F74FBF8091E800F4
:10325000877F8093E8006AE270E0CE0101960E94C9
:1032600066048091E8008B778093E80011C1C096D6
:10327000E7CF8091C5039091C603432F5527433074
:10328000510509F44AC078F54130510509F47AC076
:103290008BE590E0E8E0F5E04230510509F0F8C038
:1032A0002091E800277F2093E8002091C703309108
:1032B000C8038217930708F49C0140E021153105EB
:1032C00009F065C0411163C08091E80082FDC9CF5B
:1032D0008091BF03882329F2853019F28091E8009C
:1032E00083FFF2CFBECF4132510509F43CC04232D8
:1032F000510509F0CDC08330910508F0C9C0FC012B
:10330000EE0FFF1FED59FE4F0190F081E02D805A26
:103310009E4FDC018C9190E01AC03327213031059B
:10332000D1F02115310561F02230310509F0B0C02E
:10333000E5E7F5E0E4918E2F90E0E5E7F5E007C0E2
:10334000E3EAF5E0E4918E2F90E0E3EAF5E0009700
:1033500009F49EC0A5CFE3E9F5E0E4918E2F90E05B
:10336000E3E9F5E0F4CF8330910508F091C0880FD0
:10337000991FFC01E759FE4F0190F081E02D89E093
:1033800090E08ECF82E190E0E3E6F5E089CF809196
:10339000BF03882309F465CF853009F462CF80919B
:1033A000E80083FD5ECF8091E80082FD8DCF8091A3
:1033B000E80080FF83CF9091F3008091F200211507
:1033C000310519F08830910550F041E0089709F077
:1033D00040E08091E8008E778093E8006FCF4491C1
:1033E0004093F1003196215031090196E8CF8038A1
:1033F00009F04EC08091E800877F8093E8008091BB
:10340000C0038093F1009DCE811142C01091C3038F
:103410001230F0F58091E800877F8093E8001093E8
:10342000C0030E94B403112311F084E005C0809111
:10343000E30087FDFACF81E08093BF0342E061ECB7
:1034400081E00E94D30342E261EC84E00E94D30356
:1034500042E261EC82E00E94D30342E260EC83E04E
:103460000E94D3038091BF0313C08091C3038130B6
:1034700079F481E0933009F080E08093BE031092EC
:10348000E9008091E800877F8093E8000E94B40300
:103490008091E80083FF0AC08091E800877F8093D5
:1034A000E8008091EB0080628093EB00AA960FB653
:1034B000F894DEBF0FBECDBFDF91CF911F9108956D
:1034C000882321F00E941E0D0C94AF1608958823C6
:1034D00039F090917302982B909373020C94AF166D
:1034E0000895882379F19CEF980F913A38F4682F6A
:1034F0008CEE91E00E94E3040C94AF1690E2980FDA
:10350000983050F4877091E001C0990F8A95EAF7DE
:10351000892F0E941E0DF0CF9BE5980F933020F469
:1035200090E080E00C94580598E5980F973120F4CE
:1035300090E080E00C944205803F20F00E941F0A3A
:103540000C94F8090895CF93C82F882309F46FC00D
:103550008CEF8C0F813AC0F580911401882311F112
:103560008091950387FF1EC0EC2FE695E695E695C2
:10357000F0E0E451FE4F828190E04C2F477021E053
:1035800030E002C0220F331F4A95E2F782239323D3
:10359000892B91F06C2F8CEE91E00E94E3040E9445
:1035A000AF160AC0EEEEF1E084EF91E02191C21770
:1035B00089F38E179F07D1F76C2F8CEE91E00E9454
:1035C0000D05CF910C94AF1680E28C0F883068F413
:1035D000C77021E030E001C0220FCA95EAF7809160
:1035E0007302822B80937302ECCFEBE5EC0FE33098
:1035F00040F4F0E0E45EFE4F808190E0CF910C94C7
:103600005805E8E5EC0FE73150F4F0E0EE0FFF1F4E
:10361000E15EFE4F80819181CF910C944205C03FC5
:1036200030F08C2F0E94DA0ACF910C94F809CF91D8
:1036300008951F93CF93DF93182FD0E0C0E0893314
:1036400011F4C0E5D0E0812F0E94A31A209731F435
:10365000812FDF91CF911F910C94711A8FE99FE018
:103660000197F1F700C000002197F0CF0F931F934F
:10367000CF93DF93C62FD42F022FFC0182818823A2
:10368000A1F06093F8030E94D7049093F70380930E
:10369000F603C77081E001C0880FCA95EAF7DF9191
:1036A000CF911F910F910C94671A8091F8036813C2
:1036B00035C08091F6039091F7030E94C804883CBE
:1036C000910560F510E21D0FCD17B9F080E28C0F67
:1036D000883040F4C77081E001C0880FCA95EAF7CE
:1036E0000E94601A183048F481E09D2F977001C045
:1036F000880F9A95EAF70E94671A802F0E94191B7B
:10370000183098F4D77081E001C0880FDA95EAF795
:10371000DF91CF911F910F910C94601AC77081E0D7
:1037200001C0880FCA95EAF7F3CFDF91CF911F91BF
:103730000F910895DF92EF92FF920F931F93CF9313
:10374000DF93E82FF0E0EC50FE4FD490282F269521
:103750002695269530E0F901EC51FE4F04918770D3
:1037600010E0082E02C0159507950A94E2F7017043
:103770001127F901EC52FE4FE490F12C082E02C003
:10378000F594E7940A94E2F791E0E922FF24F90125
:10379000EC53FE4FC491D0E002C0D595C7958A95F1
:1037A000E2F7C170DD270115110519F081EE0E94C5
:1037B000A31AE114F10419F086EE0E94A31A8D2DCC
:1037C0000E94191BEF2819F086EE0E94711A012B36
:1037D00019F081EE0E94711ACD2B51F08CE2DF912D
:1037E000CF911F910F91FF90EF90DF900C94191BD8
:1037F000DF91CF911F910F91FF90EF90DF9008958F
:1038000090E080E00E94C82C893E9E4F11F40C94F9
:103810007D0F80E0089590910104892F8670863095
:10382000A1F08FEF91FD82EF92FD22C08093000402
:103830008091FB03837011F4109218018091FB03B7
:103840008C7F81608093FB0307C01092000440E0EE
:1038500060E080E00E94AA064091010450910204B9
:1038600060910304709104048FE090E00C94F02CBC
:103870008DEFDCCF69EE7EEF90E080E00E94FC2CC3
:1038800060E082E090E00E94DE2C60E083E090E067
:103890000E94DE2C1092750260E084E090E00E94AD
:1038A000DE2C60E082E290E00E94DE2C60E085E0A9
:1038B00090E00E94DE2C60E086E090E00E94DE2C2A
:1038C0006FEF87E090E00E94DE2C40E050E0BA010C
:1038D00088E090E00E94F02C60E08DE090E00E9493
:1038E000DE2C40E050E0BA0188E190E00E94F02C2C
:1038F00060E087E190E00E94DE2C40E050E0BA01F9
:103900008CE190E00E94F02C70E060E080E290E0BA
:103910000E94FC2C40E050E0BA0188E190E00E9457
:10392000F02C80E00E94C80E0E94E00E40E050E0C3
:10393000BA018FE090E00E94F02C109201041092E6
:10394000020410920304109204040C940B1C8FE0E8
:1039500090E00E94C22C6093010470930204809353
:103960000304909304040C940B1C8F929F92AF92CB
:10397000BF92CF92DF92EF92FF920F931F93CF935C
:10398000DF9300D000D00F92CDB7DEB77C01FC01F1
:1039900083819481892B31F08081918189238F3FAC
:1039A00009F0B9C50F900F900F900F900F90DF9115
:1039B000CF911F910F91FF90EF90DF90CF90BF902C
:1039C000AF909F908F9008950E94220F182F682F1C
:1039D00089819A810E94580D69817A81812F0E9484
:1039E000150F8C01F7018281882309F488C598019D
:1039F00022513F452031310508F009C58FEF93E092
:103A00000E94BA2C02517FE8C72EDD24D39488236C
:103A100071F180915102877029F2F7018281882328
:103A200009F4C0CF8091960382FDBCCF82E00F9055
:103A30000F900F900F900F90DF91CF911F910F91EA
:103A4000FF90EF90DF90CF90BF90AF909F908F90BE
:103A50000C943A17C114F4E0DF06D9F2C6010E94B3
:103A6000BA2C811101C001502FEFC21AD20A0111E4
:103A7000F1CF1C821B82BB24B3946AE0A62E860180
:103A80000F5F1F4FC6010E94BA2C89831A828823B8
:103A900009F4BFCF9FEF980F933008F58A83B9825E
:103AA00032E0C30ED11CC8010E94BA2C8B8388233C
:103AB00009F4AFCF8E010F5F1F4FF801808188237B
:103AC000F1F2813009F043C091818281913049F453
:103AD0000E5F1F4F0E94191B0F5F1F4FEECF680133
:103AE000E9CF923029F40E5F1F4F0E94A31AF4CF42
:103AF000933029F40E5F1F4F0E94711AEDCF94305E
:103B000019F00F5F1F4FE8CF0E5F1F4F30E020E02E
:103B1000B8016F5F7F4FF80141818053990B8A3064
:103B2000910550F021503109B8F28FE99FE00197DB
:103B3000F1F700C00000F6CFA29EF001A39EF00DA9
:103B400011249C012E0F3F1F842F8B01E1CF0E9477
:103B50009A1BC2CF81E00E9473170E94231759CF8E
:103B600081E00E942E17F9CF82E0F5CF0838EFE50B
:103B70001E0709F441C00938FFE51F0709F45CC0BE
:103B800003382FE5120709F0B9C0882309F441CFA3
:103B900090910104892F8B7F92FF84600FC088234E
:103BA00009F437CF8091010481FB992790F981FDB9
:103BB0000AC082FD08C080910104826080930104E4
:103BC0000E940B1C26CF81FF05C082FD03C0897FA8
:103BD0008460F4CF911102C082FDEDCF8091010489
:103BE000897FECCF882309F414CF90910104892FA9
:103BF0008D7F91FF8260E2CF882309F40ACF809104
:103C00000104982F9095917090FB80F980930104A6
:103C1000911103C00E94AE06FCCE81FFFACE20E0D7
:103C200040E060E086E090E00E94AC06F2CE8111B8
:103C300017C40E94A71C14C4909173029111E9CE7D
:103C40008111E7CE44E7C42E42E0D42E5AE0B52ECF
:103C5000F6018491882309F4DCCE813009F04AC052
:103C600086010F5F1F4FF8018491813059F40F5F77
:103C70001F4FF80184910E94191B68012FEFC21A8F
:103C8000D20AE6CF823041F486010E5F1F4FF80161
:103C900084910E94A31AF1CF833041F486010E5F14
:103CA0001F4FF80184910E94711AE7CF843029F7E1
:103CB00086010E5F1F4FF801249190E080E0F8012B
:103CC00031962053330B2A30310548F00197A8F282
:103CD000EFE9FFE03197F1F700C00000F7CFB89EA1
:103CE000A001B99E500D1124C901840F951F249184
:103CF0008F01E5CF0E949A1B8601BFCF033F3CE5B1
:103D0000130739F188F4083D9CE51907F1F0093DE6
:103D1000ECE51E0751F1073DFCE51F0709F0A0C3C4
:103D200026E241EE61EE0DC0053F2CE51207C9F019
:103D3000A0F027E245EE66EE063F8CE5180709F095
:103D40008FC3C7010E94361B64CE27E245EE65EEA5
:103D5000F8CF26E241EE60EEF4CF27E245EE64EEC6
:103D6000F0CF26E241EE62EEECCF28E241E0EFCF69
:103D700001363DE5130709F489C3053A8DE51807B7
:103D800009F484C306312CE5120709F03EC4809182
:103D900073028A7A91E009F490E090930C0269E250
:103DA000811165E38CEE91E00E940D050E94AF1633
:103DB00030CE80919503806207302CE5120709F41C
:103DC00092C080919503806108301C4508F48BC037
:103DD00080919503806487C00D308CE5180709F445
:103DE0009BC098F4809195038E7F0B30ECE51E0705
:103DF00009F479C0809195038C600C301C4508F45F
:103E000072C0809195038D7F6EC0809195038F7EE7
:103E10000F302CE5120709F466C080919503877F67
:103E200000311C4508F45FC0809195038F7D5BC015
:103E30000D3F8CE5180709F477C050F50531ECE526
:103E40001E0709F47FC098F480919503837F0331A6
:103E50002CE5120709F447C008F46EC00E948217CF
:103E600090919503892F97FB87F980583CC00B3FB1
:103E70008CE5180709F442C008F052C080919603FF
:103E800081600A3F1C4509F02AC38093960327C32B
:103E90000130FDE51F0709F461C090F4809196039D
:103EA0008C7F0F3F3CE5130781F390F180919603DF
:103EB000982F909591708E7F892B90FB81F9E5CF9B
:103EC00001369DE5190709F44FC0053AEDE51E07D7
:103ED00009F451C002301D4509F001C360E03FC044
:103EE00080919503826080939503F9C28091950338
:103EF0008460F9CF809195038860F5CF8091960317
:103F00008260C3CF0E948217809195038068EBCFB7
:103F1000809196038360B9CF809195038B7FE3CF27
:103F2000809196038E7FB1CF809196038D7FADCF28
:103F3000809195038F7BD7CF0E9482178091950344
:103F40008F77D1CF8091950382FB992790F921E05B
:103F5000922790FB82F990FB83F9C5CF61E08EE058
:103F600090E00E94DE2CBBC290919503892F8F7E3A
:103F700094FF8061B8CF90919503892F8E7F90FF39
:103F80008160B1CF80910C0269E2811165E38CEE12
:103F900091E00E94E3040ACF4DE156E066E276E04C
:103FA0000E947A0536CD46E256E06DE176E0F8CF24
:103FB0004BE056E064E176E0F3CF44E156E06BE09D
:103FC00076E0EECF43EF55E06FEF75E0E9CF4FEFCE
:103FD00055E063EF75E0E4CF47EE55E06BED75E03B
:103FE000DFCF4FEB55E06DEC75E0DACF4DEC55E0EF
:103FF0006FEB75E0D5CF81E00E940E030ACD87E01C
:10400000FBCF0E9482173FEF84E39CE03150804059
:104010009040E1F700C000000E94190E81E015C336
:1040200080E013C3C8010E942F0DD82E1FC3212F7B
:104030002F70C22E107F19F0C29490EFC922DD209C
:10404000B9F0CC2069F080E2800F883010F0811048
:1040500009C080917302C82AC09273020E94AF16F1
:10406000802F4AC080917202C82AC0927202F6CF95
:10407000802F0E94711ACC2009F440C0005E0830E5
:1040800010F0811004C08C2D0E941E0D06C0C0943B
:1040900080917202C822C09272020E94AF162EC096
:1040A000312F3F70C32E107F103219F0C29480EF71
:1040B000C822882089F081E0881609F478C0DD20C4
:1040C00009F482C0BB2009F478C0F701858180FF24
:1040D000C7CF8F70858371C02091960322FF44C0A3
:1040E000DD20E1F1CC2039F080917302C82AC09222
:1040F00073020E94AF1680E00E94A31AE92DE850D7
:10410000FF0B349710F40E946E05AA2009F44ACCE4
:104110008091510280FD46CCF701128285958595EC
:1041200085950E947317C7010E94B51C80915102AA
:104130008595859585950F900F900F900F900F9016
:10414000DF91CF911F910F91FF90EF90DF90CF9073
:10415000BF90AF909F908F900C942E1780E00E949C
:10416000711ACC2059F28FCFDD20A1F0909174020A
:104170008C2D892BB11003C00E94671ABFCFE1E0DC
:10418000BE12FACF22FDBACF981709F4B7CF8093A9
:104190007402B4CFB11006C00E94180D8C2D0E947D
:1041A000601AACCFF1E0BF1609F4A8CFF5CFDD203F
:1041B00031F025E02B1508F4A1CF8C2DDDCF34E0B4
:1041C0003B1508F49BCFEACFBB2041F3F9E38F12F4
:1041D00017C12FEF37EE83E0215030408040E1F7E8
:1041E00000C000000DC1812F86958695837061F017
:1041F000813009F083CFC8019370D11002C090E0E4
:1042000080E00E9442057ACFC8019370D11002C0AD
:1042100090E080E00E94580571CF802FDD2029F0CA
:104220000E94DA0A0E94F80969CF0E941F0AFACF99
:10423000812F837089F5D11061CF402F429546952B
:104240004770440F440F802F8F70042E01C0880FD9
:104250000A94EAF7202F207104FF07C02FE030E016
:1042600001C0220F4A95EAF720951695169513700E
:10427000123069F050F430917502113029F0822B20
:1042800083230E947E173ACF832B822BFACF282BD1
:10429000809175028227F5CF8695DD2011F0812F60
:1042A0008170882309F42ACF402F429546954770A4
:1042B000440F440F802F8F70042E01C0880F0A9482
:1042C000EAF7202F207104FF07C02FE030E001C083
:1042D000220F4A95EAF7209516951695137012301D
:1042E00069F050F43091FA03113029F0822B8323C6
:1042F0000E941F1703CF832B822BFACF282B80918C
:10430000FA038227F5CF1F70DD2029F0812F0E944C
:104310007317802F31CF802F0E94601A812F0E9447
:104320002E17ECCE802F92EF8916A9F1981570F018
:10433000E0EF8E16D1F0F1EF8F1691F0DD2009F449
:104340005AC0B1108DCE812F8F7129C023EF8216F4
:1043500049F134EF8312F2CF8091960382FF2DC092
:10436000812F8F71DD20D9F21AC0DD2079F084E031
:104370008B1508F4C3CE1F7181E090E001C0880F57
:104380001A95EAF79091FA038927B2CF95E09B1529
:1043900008F4B4CEF0CF812F8F71D110C0CF0E941E
:1043A0007317ACCE80E0DD2009F4A2CF1F7181E04D
:1043B00001C0880F1A95EAF79BCFDD2089F01F71A5
:1043C000812F0E9473178091960382FD07C0E8E059
:1043D0001E9FC0011124836080935102812FDFCF83
:1043E00081E00E943A17F1E0FB1508F087CE82E0E9
:1043F0000E943A1783CEBB2039F0893309F4E9CE05
:10440000802F0E94711A7ACE812F8F7188CF003150
:10441000FFE51F0709F49ECB01312FE5120709F4D0
:10442000A3CB0238EFE51E0709F4DCCB08F09ECBE6
:10443000023C2CE5120709F4B2CB0E3D3CE5130714
:1044400009F4F5CB01159CE5190709F057CC882331
:1044500039F040E060E084EB0E94AA060E943D0E25
:10446000F7018281882309F467C01092F8030330B2
:10447000FDE51F0708F07CCC0A3F2CE5120730F45D
:10448000C80182509C45449708F07CCC0E94960F4E
:10449000909396038093950301319CE5190709F4E5
:1044A00047CD08F0C5CC0930FCE51F0709F42ACD3B
:1044B00008F092CC05303CE5130709F41BCD08F059
:1044C00078CC03309CE5190709F40ACD08F00ECD2D
:1044D00080919503816002301C4509F404CD609100
:1044E00095031091960384E090E00E94DE2C612FEA
:1044F00082E290E00E94DE2C0E9482178ACA00317C
:104500003FE5130709F42CCB01319FE5190709F0AA
:1045100088CF82E026CB85E0DE01119601900D92D6
:104520008A95E1F7F701228189819A8121114CCA8C
:104530000E942F0D182F50CA0631FCE51F0709F401
:1045400021CD8091730282720A3C2CE5120709F496
:1045500043CDA0F5053C9CE5190709F429CDC8F425
:10456000033CFCE51F0709F417CD08F01CCD023C05
:104570001C4509F06CC08091FB0391E08927809372
:10458000FB03109218018091F90381608093F90375
:1045900040CA073C9CE5190709F414CD08F40DCD79
:1045A000083CFCE51F0709F412CD4BED55E067EE22
:1045B00075E0093C1C4509F4F3CC49C00F3C3CE5CF
:1045C000130709F41CCD90F40C3CECE51E0709F42C
:1045D0000DCD08F406CD0D3C2CE5120709F40BCDEA
:1045E00085E00E3C1C4509F407CD31C0063D8CE545
:1045F000180730F48AE0013D1C4508F4FDCC09CAD7
:104600000D351D4509F405CA22C00A35FDE51F0711
:1046100009F404CD58F401153CE5130709F4F1CC75
:104620000E3D1C45A1F40E943A1CF3C90B359DE5D3
:10463000190709F4F5CC0C351D4549F48091960312
:1046400082FB882780F991E089270E945617F7019D
:10465000828100811181882309F4E4CCC8010E9481
:10466000220FD82E682FC8010E94580DB8018D2D39
:104670000E94150F0E94900B8C01882EF701D280AA
:10468000B580B2943FE0B322809151028770C1F0AF
:10469000AD2CDD20B1F0812F807F803421F080E2CD
:1046A000800F883068F08091960382FD09C082E017
:1046B0000E943A17809151028770AA24A394811115
:1046C000A12C912E92942FE09222FBE0F91508F490
:1046D00015CDE92DF0E0E657F24D0C942B2C1F93ED
:1046E000CF93DF9380911E02807FA9F480911B02FB
:1046F000882389F080915002D0911F0260911902A5
:1047000070911A02A0911C02B0911D02C62FC723FE
:1047100016E0D81304C0DF91CF911F91089590E067
:10472000109711F0CF3F19F401968770F2CF189FC0
:104730009001199F300D1124F901E05EFD4F418178
:104740004713F2CF40814613EFCF42814111ECCFA6
:10475000438154814A1B5B0B483C510528F78091EB
:104760001E028F70806180931E02F901EB5DFD4F88
:1047700080818F708061808389E192E00E94B51C06
:10478000DF91CF911F910C94250DAF92BF92CF92E4
:10479000DF92EF92FF920F931F93CF93DF93CDB7EA
:1047A000DEB761970FB6F894DEBF0FBECDBF8C01A8
:1047B00085E0F801DE011D9601900D928A95E1F7E2
:1047C000F801E28089E1A82E82E0B82E60911C02F7
:1047D00070911D026115710509F432C190911902A1
:1047E00040911A02892F84238F3F09F429C1208127
:1047F0003181C380D480F0901B02F601E61BF70BD9
:10480000FF2009F4E8C080911E02582F507FE83C39
:10481000F10508F0ABC0511177C0FE2C431321C045
:1048200092131FC0E1101DC08F70806180931E0223
:10483000C5010E94B51C80911E02F80185838F2D51
:1048400061960FB6F894DEBF0FBECDBFDF91CF915A
:104850001F910F91FF90EF90DF90CF90BF90AF909E
:104860000895CD2829F0822F83238F3F09F003C1BB
:1048700080E0F82FF170DF2E80FF3CC08091500265
:1048800040911F0256E0841315C02D873E878D8509
:104890009E850E94510F292F22952F702230F0F013
:1048A000243018F59F70F1F0F8019581907FD1F4D4
:1048B000D12C1EC090E0589FF001599FF00D11249B
:1048C000E05EFD4F6181361306C06081261303C090
:1048D0006281E6120FC001968770D5CF9F7011F0EC
:1048E000882331F3805E883018F3C8010E94B51C1C
:1048F000FD2CA5CFEE2009F4A2CF80911E0281608D
:1049000080931E02F12C9BCF431306C0921304C068
:10491000F801EE2009F479C0C8010E945D0F8823D8
:1049200009F1EE20F9F080911E02803270F02091A2
:10493000190230911A0238872F831986DB86CA86BE
:104940008C87CE0107960E94B51C86E0F801A9E18C
:10495000B2E001900D928A95E1F70E946F23FF2447
:10496000F3946DCFC8010E94B51CF9CF51110AC054
:1049700089E192E00E94B51C86E0F50111928A95CA
:10498000E9F7C0CF43130FC092130DC0E1100BC065
:10499000F8018583C8010E94B51C86E0F5011192DB
:1049A0008A95E9F74CCFC8010E945D0F8823D1F2A8
:1049B000EE20C1F280911E02803238F2209119025D
:1049C00030911A023A8329831B82DD82CC828E8346
:1049D000CE010196B8CFE83CF105F8F6FE2CEE20AA
:1049E00009F243131FC092131DC080911E0280FD67
:1049F00010C0982F907F69F0F8018583903F31F0C7
:104A0000982F907F905F8F70892B8583C8010E94BB
:104A1000B51C86E0F801A9E1B2E001900D928A95FB
:104A2000E1F70DCFC8010E945D0F81118ECF8091FB
:104A30001E02816080931E02C8010E94B51CFFCE39
:104A4000EE2009F48FCFC8010E945D0FF82E882355
:104A500009F488CF86E0F801A9E1B2E001900D9257
:104A60008A95E1F78091190290911A020E94510FE4
:104A70000E946F23E4CE81E08E25FBCE1F93CF935F
:104A8000DF93CDB7DEB767970FB6F894DEBF0FBEE2
:104A9000CDBF4B8B5C8B6D8B7E8B8F8B611110929E
:104AA00072021A8A198A85E0FE017396DE011D964C
:104AB00001900D928A95E1F786E0FE013D96DE01B8
:104AC000179601900D928A95E1F7CE0107960E9404
:104AD000C523882389F016E08091500290911F022F
:104AE000891349C067960FB6F894DEBF0FBECDBFDD
:104AF000DF91CF911F91089586E0FE013796DE0188
:104B0000119601900D928A95E1F78A859B85892BF4
:104B100011F38F81988589238F3FE9F220911F023D
:104B200030E0C901019687709927409150024817DB
:104B3000190671F40E94821710921F0210925002FF
:104B400086E0E9E1F2E0DF011D928A95E9F7C3CF43
:104B500096E0929FD001939FB00D1124A05EBD4FAF
:104B6000FE01319601900D929A95E1F780931F0214
:104B70000E94250DB0CF819FC0011124805E9D4F02
:104B80000E94C523882309F4ADCF8091500290E0A4
:104B9000019687709927809350029ECF1F920F92A3
:104BA0000FB60F9211242F933F934F935F936F9300
:104BB0007F938F939F93AF93BF93CF93DF93EF93A5
:104BC000FF93D091E900DF708091EC00C82FC17095
:104BD00080FDC0E81092E9008091F000877F80930B
:104BE000F00078940E9497171092E9008091F000ED
:104BF00088608093F000CD2BCF70C093E900FF91C7
:104C0000EF91DF91CF91BF91AF919F918F917F9164
:104C10006F915F914F913F912F910F900FBE0F9029
:104C20001F9018951F920F920FB60F9211242F9379
:104C30003F934F935F936F937F938F939F93AF9324
:104C4000BF93EF93FF938091E10082FF09C08091B1
:104C5000E20082FF05C08091E1008B7F8093E1003C
:104C60008091DA0080FF24C08091D80080FF20C0AE
:104C70008091DA008E7F8093DA008091D90080FFE6
:104C80009DC080E189BD82E189BD09B400FEFDCFF0
:104C900081E08093BF0380919A03811109C00E9433
:104CA0003A030E9405048091E20084608093E20050
:104CB0008091E10080FF17C08091E20080FF13C067
:104CC0008091E2008E7F8093E2008091E20080611B
:104CD0008093E2008091D80080628093D80019BC54
:104CE00085E08093BF038091E10084FF2BC0809119
:104CF000E20084FF27C080E189BD82E189BD89B5DA
:104D0000982F917080FFFBCF8091D8008F7D80938A
:104D1000D8008091E1008F7E8093E1008091E200D5
:104D20008F7E8093E2008091E20081608093E200B8
:104D30008091C003882309F447C084E08093BF03B7
:104D40008091BF038091E10083FF27C08091E20042
:104D500083FF23C08091E100877F8093E10082E0A0
:104D60008093BF031092C0038091E1008E7F8093F7
:104D7000E1008091E2008E7F8093E2008091E2006A
:104D800080618093E20042E060E080E00E94D30313
:104D90008091F00088608093F000FF91EF91BF91C7
:104DA000AF919F918F917F916F915F914F913F91C3
:104DB0002F910F900FBE0F901F90189519BC109255
:104DC000BF0310929A0374CF8091E30087FD93E0B4
:104DD0009093BF03B5CF78941F921FB61F921124F2
:104DE0008F939F93AF93BF93809191039091920380
:104DF000A0919303B09194030196A11DB11D8093DE
:104E0000910390939203A0939303B0939403BF9163
:104E1000AF919F918F911F901FBE1F9018951F9269
:104E20001FB61F9211248F939F93AF93BF938091CE
:104E30009003811113C08091910390919203A091EE
:104E40009303B09194034196A11DB11D80939103EA
:104E500090939203A0939303B0939403BF91AF9167
:104E60009F918F911F901FBE1F901895CDB7DEB7F1
:104E7000AA970FB6F894DEBF0FBECDBF84B7877F69
:104E800084BF0FB6F894A8958091600088618093E4
:104E90006000109260000FBE80E890E00FB6F894BA
:104EA00080936100909361000FBE85B7806885BFD5
:104EB00085B7806885BF84E39BE09093EB01809386
:104EC000EA010E943A030E9405048091E200846096
:104ED0008093E20078948091BF038823A1F0109121
:104EE000E9001F709091EC00892F817090FD80E89F
:104EF000182B1092E9008091E80083FD0E9497171B
:104F00001F701093E90082E084BD93E095BD9AEF95
:104F100097BD80936E000E947D0F811102C00E9498
:104F2000E00E0DE411E082E5E82E81E0F82ED801D4
:104F30008D918D018F3F11F00E94360BE016F10626
:104F4000B1F702E511E0F80181918F018F3F11F077
:104F50000E94360BF1E008351F07A9F786E0E7E865
:104F6000F2E0DF01282F1D922A95E9F7E9E7F2E048
:104F7000DF011D928A95E9F70E94001C811102C091
:104F80000E943A1C82E090E00E94BA2C80937F023B
:104F90000E94960F90939603809395030E94D715D5
:104FA000EFE3FCE93197F1F700C000000E94D7154C
:104FB0008091870280FF08C06FEF7FEF90E080E074
:104FC0000E94FC2C0E94190E83E090E00E94BA2CF3
:104FD0000E947E171092CD038FEF9FEF9093E7030F
:104FE0008093E6039093E9038093E8039093EB03A7
:104FF0008093EA039093ED038093EC039093EF0387
:105000008093EE039093F1038093F0039093F30366
:105010008093F2039093F5038093F4031092FF02C0
:10502000909319038093180390931B0380931A03A2
:1050300090931D0380931C0390931F0380931E0382
:105040009093210380932003909323038093220362
:105050009093250380932403909327038093260342
:105060000E94001C811104C00E943A1C0E94BC15C1
:1050700046E050E06CE170E08BEF93E00E94AA2CD8
:105080001092F9038091FB038C7F11F40E94BC15F0
:105090000E94A71C84E091E090938D0380938C0381
:1050A000A8E1EA2EF12C87E892E0B6E08B2E880E7C
:1050B00018E0C12ED12C8091BF03853089F400E423
:1050C000BB24B394F3E0AF2E10E18091BF03853091
:1050D00009F498C10E9482170E946E0510922C0359
:1050E0000E94D715882359F08FB7F8944091910307
:1050F0005091920360919303709194038FBFA7E83E
:10510000B2E0E0E8F2E010E000E0902F7D908191C5
:10511000871509F4DBC18725B12CAA24A3942A2D75
:10512000282309F4CEC1B9A29AA37A2081E009F418
:1051300080E08BA30E94D7048160782F9DA38CA36D
:1051400049A15AA16BA18DA10E943E25F801E0580A
:10515000FD4F8081A826A082772089F085E0809F7E
:10516000F001819FF00D1124E159FE4FEB0DF11D6F
:105170008081712C8F3F19F0982E77247394072D1E
:1051800010E08091FF02800F912F911D09975CF133
:105190005601A01AB10AB80160507D4FA50180E008
:1051A00093E00E94A12CB801685F7C4FA50188E0C4
:1051B00093E00E94A12CA501440F551FB801660F72
:1051C000771F685E7C4F88E193E00E94A12CB801B4
:1051D000605F7C4FA50180E193E00E94A12C88E0F4
:1051E00087198093FF028091FF0290E0292D30E023
:1051F000D901AA0FBB1FBD0163577E4F9D012257E6
:105200003E4F41E0480F971508F446C18093FF02D6
:105210000E94DB1486E0E4E9F2E0DE0111960190E1
:105220000D928A95E1F7B0909602A09097021091A6
:105230009802009199021092960210929702109291
:105240009802109299028B2D8A2909F448C0809106
:105250009202909193020E94C8049C0190918E0248
:10526000992309F4CBC225313105C8F19F3F19F0CC
:105270009F5F90938E02BB2059F00E94BA0A9FEF65
:105280001B140CF491E0899F802D112480939602C9
:10529000AA2059F00E94BA0A9FEF1A140CF491E068
:1052A000899F802D11248093970230919602332399
:1052B000B1F020919702222391F045EB3403C00115
:1052C0001124992309F419C19093960245EB240304
:1052D00090011124332309F414C130939702812FD4
:1052E000802B09F448C080919002909191020E9415
:1052F000C8049C0190918D02992309F47AC221354A
:105300003105C8F19F3F19F09F5F90938D021123E3
:1053100059F00E94980A9FEF11160CF491E0899FB2
:10532000802D112480939802002359F00E94980A3E
:105330009FEF10160CF491E0899F802D112480932B
:105340009902309198023323B1F0209199022223DF
:1053500091F045EB3403C0011124992309F4D5C021
:105360009093980245EB240390011124332309F410
:10537000D0C0309399028091960290919702892B28
:1053800090919802892B90919902892B11F00E949B
:10539000F80986E0FE013196A4E9B2E001900D9291
:1053A0008A95E1F70E946E05909186028913809399
:1053B00086028091BF03843009F07DCE83E0809324
:1053C000E9008091E80082FF76CE8091E80090E0CD
:1053D00085FF06C00E945903882309F49EC091E00E
:1053E0008091E8008B778093E800992309F463CEDD
:1053F000E981E150E33108F012C1F0E0EA56F24DE4
:105400000C942B2C8091BF03843009F436C00E9489
:10541000DB1480912C0381110DC00E941110109299
:1054200013018091FB038370809312010E943D0E53
:10543000A0921801B0922C03109290030FB6F8942A
:10544000A895E09260000FBE0093600083B7817F53
:10545000846083BF83B7816083BF7894889583B766
:105460008E7F83BF0FB6F894A89580916000886105
:1054700080936000109260000FBE8091BE0388236D
:1054800009F423CE0E94D715E7E8F2E0819181115B
:1054900090C18E12FBCF19CE90E0FC01E150FD4F80
:1054A000DB015C915183D9015C915187918A880F0E
:1054B000991FFC01E150FD4F128E118E91E0842F57
:1054C000A0CEB394AA0C25E0B21229CE0F5F1F4FD5
:1054D0000630110509F019CE8FEF8EA38FA318A601
:1054E0000E94D7048160782F9AA789A74EA15FA157
:1054F00068A58AA50E943E258BCE81E08093960206
:10550000E5CE81E080939702EACE81E08093980215
:1055100029CF81E0809399022ECF00E210E0CE01E6
:1055200001965C018091E80085FD0AC08091E80049
:105530008B778093E8000E945903882399F34FCF1B
:105540008091F100D5018D935D010150110951F752
:1055500046CF1A8289E08B832DC08A81823009F47C
:105560003FC18330A9F0813009F059C02FB7F894BA
:1055700060919103709192038091930390919403B1
:105580002FBF0E94312C6B837C838D839E8312C03E
:10559000809187028B83809188028C83809189021D
:1055A0008D8380918A028E8380918B028F8380917C
:1055B0008C0288878091BF03843009F07CCD1091E4
:1055C000E9001F709091EC00892F817090FD80E8B8
:1055D000182B82E08093E9008091E80080FF0DC0E5
:1055E00050E040E060E270E0CE0101960E948A0344
:1055F0008091E8008E778093E8001F701093E90097
:105600005ACD8A81823059F46B817C818D819E8153
:105610000E94312C86E290E00E94DE2CCBCF8FEFEF
:105620008983C8CF4C816B818A810E94EF0E9827B5
:10563000892798279E838D83BDCFAD80BE80BA24F5
:10564000AB24BA248A810B81BAE00B9F800111241C
:10565000ECE38E9F000D111D11248C8190E0880FCA
:10566000991F080F191F6B2DC80187960E94DE2C09
:105670006A2DC8018896D0CF0E94740E9BCF80E11E
:105680008A8398CF82E08A8381E765CF0A811B8174
:10569000102701271027CE0101963C01AC80DC01C8
:1056A000AA0DB11D5D01C80181579E4FA614B70414
:1056B00009F480CF0137B2E01B0750F40E94BA2CE6
:1056C000F30184830F5F1F4FBFEF6B1A7B0AEBCF91
:1056D000D30114961C92F6CF0A811B811027012753
:1056E0001027FE0131963F01AC80A00EB12EB11CF7
:1056F000C80181579E4F0A151B0509F45BCF01377E
:10570000F2E01F0728F4D30114966C910E94DE2C5E
:10571000BFEF6B1A7B0A0F5F1F4FEACF0E94640E28
:1057200049CF86E0ADCF0A811B81102701271027C2
:10573000FE0131963F01AC80CF018A0D911D5C01C5
:10574000C8018796A614B70409F434CF0836A1E03F
:105750001A0750F40E94BA2CF30184830F5F1F4F85
:10576000BFEF6B1A7B0AECCFD30114961C92F6CFD5
:105770000A811B81102701271027FE0131963F0166
:10578000AC80A00EB12EB11CC80187960A151B056E
:1057900009F410CF0836F1E01F0728F4D30114965E
:1057A0006C910E94DE2CBFEF6B1A7B0A0F5F1F4FBC
:1057B000EBCF19BD82E189BD09B400FEFDCF809118
:1057C000D8008F7D8093D8008091E0008260809324
:1057D000E0008091E00081FDFCCF0E94821775CC33
:1057E00086E290E00E94BA2C1B821C821D828E836E
:1057F000E1CE2B30310508F087CDBDCD2B30310502
:1058000008F036CD6CCDAA1BBB1B51E107C0AA1F07
:10581000BB1FA617B70710F0A61BB70B881F991F51
:105820005A95A9F780959095BC01CD01089597FBF5
:10583000072E16F4009407D077FD09D00E94032CA0
:1058400007FC05D03EF4909581959F4F0895709583
:1058500061957F4F0895EE0FFF1F0590F491E02DA5
:105860000994692796276927782787277827089535
:105870008F929F92AF92BF92CF92DF92EF92FF9260
:10588000CF93DF93EC01688179818A819B816115D7
:1058900071058105910521F464E279ED8BE597E0CE
:1058A0002DE133EF41E050E00E94022D49015A0101
:1058B0009B01AC01A7EAB1E40E94212D6B017C01A0
:1058C000ACEEB4EFA50194010E942F2DDC01CB01B9
:1058D0008C0D9D1DAE1DBF1DB7FF03C00197A10913
:1058E000B04888839983AA83BB839F77DF91CF9148
:1058F000FF90EF90DF90CF90BF90AF909F908F90F0
:1059000008950E94382C089580E091E00E94382C80
:105910000895B0E0A0E08093000190930101A0936E
:105920000201B09303010895FB01DC0104C08D91D5
:105930000190801921F441505040C8F7881B990B01
:105940000895FB01DC0102C001900D9241505040CE
:10595000D8F70895DC01CB01FC01F999FECF06C010
:10596000F2BDE1BDF89A319600B40D92415050401D
:10597000B8F70895F999FECF92BD81BDF89A99279D
:1059800080B50895A6E1B0E044E050E00C94AC2C62
:10599000A8E1B0E042E050E00C94AC2CDC01A40F94
:1059A000B51F4150504048F0CB01840F951F2E91F8
:1059B0000E94DF2C41505040D0F70895262FF999CE
:1059C000FECF92BD81BDF89A019700B4021639F05E
:1059D0001FBA20BD0FB6F894FA9AF99A0FBE08952F
:1059E0000396272F0E94DF2C0E94DE2C252F0E9479
:1059F000DF2C242F0C94DF2C0196272F0E94DF2C04
:105A00000C94DE2C052E97FB1EF400940E94192D99
:105A100057FD07D00E94342D07FC03D04EF40C94A0
:105A2000192D50954095309521953F4F4F4F5F4F21
:105A3000089590958095709561957F4F8F4F9F4FFA
:105A400008950E94562DA59F900DB49F900DA49F80
:105A5000800D911D11240895B7FF0C94212D0E94F3
:105A6000212D821B930B0895A1E21A2EAA1BBB1BAA
:105A7000FD010DC0AA1FBB1FEE1FFF1FA217B3071A
:105A8000E407F50720F0A21BB30BE40BF50B661F30
:105A9000771F881F991F1A9469F7609570958095F4
:105AA00090959B01AC01BD01CF010895A29FB0016B
:105AB000B39FC001A39F700D811D1124911DB29F42
:105AC000700D811D1124911D0895F894FFCF46108B
:105AD0007010A010DD101C115F11A411AA11AD11DE
