:100000000C9490030C94D7030C94D7030C94D7034F
:100010000C94D7030C94D7030C94D7030C94D703F8
:100020000C94D7030C94D7030C9453290C940F29E8
:100030000C94502A0C94D7030C94D7030C94D70338
:100040000C94D7030C94D7030C94D7030C94D703C8
:100050000C94D7030C942C2A0C94D7030C94D7033C
:100060000C94D7030C94D7030C94D7030C94D703A8
:100070000C94D7030C94D7030C94D7030C94D70398
:100080000C94D7030C94D7030C94D7030C94D70388
:100090000C94D7030C94D7030C94D7030C94D70378
:1000A0000C94D7030C94D7030C94D70305010902D1
:1000B000A10185020901A1000509190129081500FE
:1000C0002501950875018102050109300931158165
:1000D000257F95027508810609381581257F9501D0
:1000E00075088106050C0A38021581257F95017572
:1000F000088106C0C005010980A101850319012AF4
:10010000B700150126B700950175108100C0050CD8
:100110000901A101850419012AA002150126A002E6
:10012000950175108100C005010906A1018506052C
:100130000719E029E71500250195087501810205D9
:1001400007190029EF1500250195F07501810205B9
:10015000081901290595057501910295017503910D
:1001600001C00660FF0961A1010962150026FF00B8
:100170009520750881020963150026FF00952075FA
:10018000089102C005010906A101050719E029E748
:1001900015002501950875018102950175088101F9
:1001A0000507190029FF150026FF0095067508812F
:1001B000000508190129059505750191029501753C
:1001C000039101C0000000000000000000000000DA
:1001D000000000000000000000000000000000001F
:1001E00000000000000000007E0F00D4FFFFFFC7EA
:1001F0000000007800000000000000002A2B28000A
:1002000000000000000000000000000000000029C5
:10021000000000002C1E3420212224342627252E05
:10022000362D3738271E1F2021222324252633333D
:10023000362E37381F0405060708090A0B0C0D0E69
:100240000F101112131415161718191A1B1C1D2F35
:100250003130232D350405060708090A0B0C0D0E55
:100260000F101112131415161718191A1B1C1D2F15
:100270003130354C0001010101010101010102028F
:100280000202020202020203030303030303030444
:10029000040404040404050505050506060606060F
:1002A000070707070708080808090909090A0A0AC9
:1002B0000B0B0B0C0C0C0D0D0D0E0E0E0F0F0F106B
:1002C00010111111121213131414151516161717F5
:1002D000181819191A1A1B1B1C1D1D1E1E1F202061
:1002E000212222232424252626272829292A2B2CAB
:1002F0002D2D2E2F30313232333435363738393ACE
:100300003B3C3D3E3F404142434445464748494AC5
:100310004C4D4E4F50515354555658595A5B5D5E93
:100320005F616264656668696B6C6D6F707273752E
:1003300077787A7B7D7E8082838587888A8C8E8F92
:1003400091939596989A9C9EA0A2A3A5A7A9ABADC0
:10035000AFB1B3B5B7BABCBEC0C2C4C6C9CBCDCFAE
:10036000D1D4D6D8DBDDDFE2E4E7E9EBEEF0F3F55C
:10037000F8FAFDFFE000E10039002B00350029000C
:1003800000000000000000000000E3000000040086
:1003900014001E003A0000000000000000000000F1
:1003A000E2001D0016001A001F003B0000000000C4
:1003B0004C004A0049004F001B00070008002000C5
:1003C0003C005200000031000000450051000600D2
:1003D0000900150021003D00E500280030002E0036
:1003E0004400500019000A00170022003E003800A7
:1003F00034002F002D0043002C0005000B001C00D2
:1004000023003F000000000000002A000151E4002A
:1004100011000D00180024004000370033001300C5
:1004200027004200E60010000E000C0025004100ED
:1004300036000F001200260000000100010001003C
:1004400001000100005C000000000000000000004E
:10045000010000000100C25C01000100000000007A
:100460000000000000000100010001000100010087
:1004700001000000000001000100A800C05C0100B4
:100480000100C35C01000100BE5C0000010000002F
:100490000100BD5CBD5C0100C55C01000100010004
:1004A0000100010001000100BF5CBF5C0100C65CEF
:1004B0000100010001000100010001000100010034
:1004C000BE5C0100C75C01000100000000000000EC
:1004D000010001000100145C0100C85C0100010082
:1004E0000100010001000100010001000100010004
:1004F000C95C0100010001000100CA5C01000000AC
:1005000001000100010001000100010000000000E5
:1005100000000000000001000000010001000100D7
:1005200001000000000000000000000001000100C8
:1005300001000100010001000000000001000100B5
:1005400001000100010001000100010001000100A3
:100550000000010000000100010001000100010095
:100560000100010001000100010001000100010083
:100570000100010001000100010001000100010073
:100580000100010001000100010001000100010063
:100590000000000000000100010001000100010056
:1005A0000100010001000100010001000100010043
:1005B0000100010001000100010001000100010033
:1005C0000100010000000100010001000100010024
:1005D0000100000000000000000000000100000019
:1005E0000100010001000100000000000000000007
:1005F00000000100010001000100010001000000F5
:1006000000000100010001000100010001000100E3
:1006100001000100010000000100000001000100D4
:1006200001000100010001000100010001000100C2
:1006300001000100010001000100010001000100B2
:1006400001000100010001000100010001000100A2
:100650000100010001000000000000000100010095
:100660000100010001000100010001000100010082
:100670000100010001000100010001000100010072
:1006800001000100010001000100000009025B00FF
:10069000030100A0FA09040000010301010009217F
:1006A000110100012240000705810308000A090426
:1006B00001000203000000092111010001222200B3
:1006C0000705820320000107050303200001090438
:1006D0000200010300000009211101000122B600FF
:1006E0000705840320000A120100020000000864CC
:1006F0006980000300010200011003490044003832
:1007000000300020007600330000000E0349004452
:10071000004F00420041004F0000000403090400A4
:1007200011241FBECFEFDAE0DEBFCDBF04B603FE5B
:1007300027C08091750690917606A0917706B091BA
:1007400078068730904BA740B04BD1F410927506D5
:1007500010927606109277061092780614BE84B72F
:10076000877F84BF0FB6F894A89580916000886158
:1007700080936000109260000FBEE0E0F8E30995FE
:1007800026E0ACE0B3E001C01D92A537B207E1F767
:1007900013E0A0E0B1E0EAEAF4E602C005900D92B1
:1007A000AC30B107D9F70E94772A0C94F0310C9441
:1007B0000000E8EDF0E080818E7F80831092E200FF
:1007C0001092DA001092E100A0EEB0E08C9181600E
:1007D0008C9380818F77808319BCA7EDB0E08C91DA
:1007E0008E7F8C9380818F7E808310920F06089578
:1007F0002091E4003091E50095E6A9012091EC00FC
:10080000822F817020FF06C08091E80080FF06C023
:1008100080E008952091E80022FD1AC080913406FE
:10082000882389F0853089F08091EB0085FD0FC029
:100830002091E4003091E50042175307F9F29150FE
:10084000E1F684E0089582E0089583E0089581E070
:100850000895EF92FF920F931F93CF937C018B012A
:100860000E94F803C82F811117C08091E80085FD10
:100870000BC08091E8008E778093E8000E94F80317
:10088000882399F3C82F08C0F70181917F018093D5
:10089000F1000150110949F78C2FCF911F910F9151
:1008A000FF90EF9008958091360687FF13C08091E6
:1008B000E80082FF06C08091E8008B778093E80013
:1008C00004C0809134068111F2CF089580913406DE
:1008D0008823D9F38091E80080FFF8CF8091E80069
:1008E0008E77ECCF982F9093E900242F762F50E04D
:1008F000891731F07091EC002091ED005091F000DB
:1009000021FD07C09F5F973071F78093E90081E078
:1009100008953091EB003E7F3093EB003091ED0075
:100920003D7F3093ED003091EB0031603093EB0070
:100930007093EC002093ED005093F0002091EE00B6
:1009400027FDE0CF80E00895CF92DF92EF92FF92F3
:100950000F931F93CF93DF93C8EDD0E088818F7EF4
:100960008883E7EDF0E080818160808384E082BF4E
:1009700081E080930F0688818E7F888302EE10E0ED
:10098000F80110821092DA0081EEC82ED12CF60107
:10099000108288818F7788838881806888838881A6
:1009A0008F7D888319BC1092340610923506109200
:1009B00033061092320690EEE92EF12CF701808179
:1009C0008B7F808388818160888342E060E080E063
:1009D0000E947204F60180818E7F8083F8018081FD
:1009E00081608083808188608083F70180818E7F31
:1009F0008083888180618883DF91CF911F910F91DF
:100A0000FF90EF90DF90CF900895FC0180913C061D
:100A100090913D0686179707A0F06115710529F49E
:100A20009091E8009E779093E80090E06115710541
:100A300051F4911108C08091E80082FF34C080E039
:100A40000895BC01F2CF809134068823C1F185302E
:100A5000C1F18091E80083FD30C08091E80082FD03
:100A6000EACF8091E80080FFE1CF8091F3002091F0
:100A7000F200382F6115710519F02830310558F052
:100A800091E02830310509F090E02091E8002E77C0
:100A90002093E800CBCF81918093F10061507109E0
:100AA0002F5F3F4FE7CF80913406882341F0853098
:100AB00041F08091E80083FFBECF81E0089582E09D
:100AC000089583E0089508958091110608959C018A
:100AD0004FB7F8948091060690910706A0910806FA
:100AE000B09109064FBF821B930B08952FB7F8945E
:100AF000609106067091070680910806909109069C
:100B00002FBF08952FB7F89480910606909107069D
:100B1000A0910806B09109062FBF089520911501F4
:100B20002223C9F020910A0627FF15C0E62FE6957B
:100B3000E695E695EE31D8F4E80FF92FF11D6770D0
:100B400021E030E001C0220F6A95EAF7209582810A
:100B5000282322830895FC0132960896219162137E
:100B600003C0DF0111971C92E817F907B9F7089540
:100B7000209115012223C1F020910A0627FF14C0FD
:100B8000E62FE695E695E695EE31F8F4E80FF92FB5
:100B9000F11D677021E030E001C0220F6A95EAF78D
:100BA0008281822B82830895FC0132962FEF30E000
:100BB0004191641751F02F3F19F4411101C0232FC7
:100BC0003F5F3630A9F72F3F09F40895820F911D3A
:100BD00027FD9A95FC0162830895209103063091C8
:100BE00004062817390771F09093040680930306D2
:100BF000E0910106F0910206309721F00084F18522
:100C0000E02D099408952091FF05309100062817E2
:100C1000390771F0909300068093FF05E09101067B
:100C2000F0910206309721F00680F781E02D0994BB
:100C30000895E0910106F0910206309721F00190AD
:100C4000F081E02D099480E00895FA01811101C03E
:100C5000FB010994EFEDF4E08183608342833396D6
:100C600095E0EF3FF907C1F70895FC01EE0FFF1F74
:100C7000E80FF91FE152FB4F6183408322830895FF
:100C8000E2E4F6E0248130E1231B08F420E0248331
:100C90008091DE0481608093DE040895E2E4F6E052
:100CA000248130E1230F08F42FEF24838091DE04A8
:100CB00081608093DE04089590914206937071F0F4
:100CC0008093430660934406453B08F044EB409311
:100CD00045068091DE04822B8093DE040895E2E4D1
:100CE000F6E0438120E1421B08F440E0818121E0ED
:100CF000628190E00C945C06E2E4F6E0438120E13E
:100D0000420F08F44FEF818121E0628190E00C9462
:100D10005C06E2E4F6E0628120E1621B08F460E038
:100D2000818121E0438190E00C945C06E2E4F6E0EE
:100D3000628120E1620F08F46FEF818121E043813D
:100D400090E00C945C06E2E4F6E0818121E04381CE
:100D500062818850990B0C945C06E2E4F6E0818194
:100D600090E021E04381628108960C945C069091AA
:100D70004206937061F081110BC09460909342061B
:100D8000109214018091DE04862B8093DE04089576
:100D90008C3210F09C6AF2CF880F880F982BEECF20
:100DA0008091420686958695815009F48BE261E038
:100DB0000C94B70680914206869586958F5F8C329B
:100DC00008F081E061E00C94B706EF92FF920F9378
:100DD0009701201B31092F3F310519F010F02FEF3B
:100DE00030E02095382F320F08F43FEF832F0F911A
:100DF000FF90EF900895EF92FF920F939701201BC1
:100E000031092F3F310519F010F02FEF30E0322F6C
:100E10003095482F430F08F44FEF842F620F0F9146
:100E2000FF90EF900895EF92FF920F93972F093460
:100E300038F4B701601B71096F3F710519F010F0AC
:100E40006FEF70E0485F5F4F4131510540F0A901FD
:100E5000485F5F4F4131510510F06FEF70E06095D2
:100E6000482F460F08F44FEF842F37FF02C02D5F45
:100E70003F4F359527953595279560914306620F2D
:100E8000792F0F91FF90EF900895EF92FF920F93BB
:100E90001F930E0D1F2D111DF90137FF03C0F19592
:100EA000E195F10924E0EE0FFF1F2A95E1F7EF3FEE
:100EB000F10519F014F0EFEFF0E09A0157FF03C0CD
:100EC00031952195310994E0220F331F9A95E1F76E
:100ED0002E173F070CF4F901E00FF11FEF3FF1056A
:100EE00019F010F0EFEFF0E0E095282F3E2F230FE0
:100EF00008F42FEF822F1F910F91FF90EF9008952C
:100F0000EF92FF920F93970195E0099F200D311DFD
:100F100011242F3F310519F010F02FEF30E020950C
:100F2000382F320F08F43FEF832F0F91FF90EF908F
:100F3000089522E8241B08F420E0620F08954095EC
:100F4000282F429F412D1124842F0895E42FF0E093
:100F5000EE0FFF1FE551FE4F9081921B97FD91957B
:100F6000292F38E1239F212D1124620F08950F931B
:100F70001F9310E0F801EE0FFF1FE551FE4F908127
:100F8000905797FD9195000F111FF801E451FE4F06
:100F900000810052110B2003F001219FF00D11245C
:100FA00008E310E0091B110997FD13954003900118
:100FB000419F300D1124E20FF31F9F01220F331FB9
:100FC0002E0F3F1F37FF02C021583F4F220F232F04
:100FD000221F330B620F1F910F9108950F931F93E0
:100FE000522F10E0F801EE0FFF1FE451FE4FA081D9
:100FF000A052BB0B9D015203F001539FF00D112431
:10100000000F111FD801A551BE4F0C910057110BB5
:1010100040039001419F300D11242E0F3F1F37FFD9
:1010200002C0215C3F4F96E0359527959A95E1F7F0
:10103000620F1F910F9108950F931F93522F10E08D
:10104000F801EE0FFF1FE451FE4FA081A052BB0B31
:101050009D015203F001539FF00D1124000F111F49
:10106000D801A551BE4F0C910057110B40039001C0
:10107000419F300D11242E0F3F1F37FF02C0215812
:101080003F4F220F232F221F330B620F1F910F910F
:101090000895EF920F93972F23E0029FB001112440
:1010A000759567956E0D792F0F91EF900895322FFA
:1010B00050E0FA01EE0FFF1FE451FE4F9081905275
:1010C00097FD9195440F551FFA01E551FE4F208180
:1010D000231B330B290F311D97FD3A95620F08959D
:1010E000E42FF0E0EE0FFF1FE451FE4F6081621B22
:1010F0000895E42FF0E0EE0FFF1FE551FE4F6081F1
:10110000621B0895622F0895E42FF0E0EE0FFF1F99
:10111000E551FE4F408134EE439F412D1124E82FCD
:10112000F0E050E0445E5F4FDA01A21BB1099D017F
:10113000B7FF03C031952195310993E0220F331F8A
:101140009A95E1F7AF01421B530B9A0157FD20E03E
:10115000582F259F212D1124822F0895E42FF0E090
:10116000EE0FFF1FE551FE4F408134EE439F412DAE
:101170001124E72FF0E050E0445E5F4FDA01A21B3C
:10118000B1099D01B7FF03C031952195310993E065
:10119000220F331F9A95E1F7AF01421B530B9A01BF
:1011A00057FD20E0279F212D1124722F08950C94C4
:1011B0002A060C943506FC019B01009729F480E077
:1011C00077FF2BC080E80895AC0197FF04C0442747
:1011D0005527481B590BB901640F751F37FD10C007
:1011E000241B350BC901A5E0880F991FAA95E1F7CB
:1011F0000E94A83080E2861BF7FF0FC081950895FA
:10120000CB0165E0880F991F6A95E1F7BA01621B6F
:10121000730B0E94A83080E6EECF0895EF920F93F3
:10122000CF93DF93D72FC82FC9010E19BA010E949F
:10123000DB08602F681B7D2F8C2FDF91CF910F91E2
:10124000EF9008950F93CF93DF93D72FC82FC90145
:10125000BA010E94DB08682F600F7D2F8C2FDF9171
:10126000CF910F910895EF920F931F93CF93DF9338
:10127000D62FC72F182FC9010E19010FBA010E94CE
:10128000DB08081B202F219F212D1124822F6D2F79
:101290007C2FDF91CF911F910F91EF900895EF92E6
:1012A0000F931F93CF93DF93D62F172FC82FC9010A
:1012B0000E19070FBA010E94DB08702F781B719F6F
:1012C000712D11246D2F8C2FDF91CF911F910F91D4
:1012D000EF9008950F931F93CF93DF93D62FC72FCF
:1012E000182FC901212F201B022FBA010E94DB08F1
:1012F000982F990F990F891B800F282F219F212D3F
:101300001124822F6D2F7C2FDF91CF911F910F9190
:1013100008950F931F93CF93DF93D62F172FC82FC6
:10132000C901272F201B022FBA010E94DB08982F2A
:10133000990F990F782F791B700F719F712D1124C0
:101340006D2F8C2FDF91CF911F910F910895E82F72
:1013500086FDE0952E2F2F7086FD2F5FE695E69592
:10136000E695E670F0E0EF58FE4F9181929F902D48
:10137000212D112492959F702295207F922B208100
:10138000920F87FD919580E8890F08950F931F9321
:10139000CF93DF938B01D82FC42F822F0E94A709F0
:1013A000EC2FF0E0EE0FFF1FE551FE4F90819058BB
:1013B000890F87FD8195880F682F2CE0629F612D32
:1013C0001124600F712F8D2FDF91CF911F910F91FD
:1013D0000895409110015091110125E038E0429F9D
:1013E000C001439F900D529F900D1124875E994C30
:1013F0009093110180931001890F0895AC01823000
:10140000910508F408959FEF413E8EE1580740F49E
:101410009A0195E0369527959A95E1F798E0920F15
:1014200061E0E62FE90FFF27FF1F9F013595279504
:10143000822F229FF001239FF00DF00D11244E17F3
:101440005F0738F49FEF920F961758F78FEF860FCC
:1014500008952F3FE9F361E0620FF6CF0F93CF932A
:10146000DF93D72FC82F47FD419588E390E0841B79
:10147000910947FD9395889FB001899F700D700D6C
:101480001124229FC001239F900D900D1124860FDF
:10149000971F0E94FE09982F990F890F682F600FE0
:1014A0007D2F8C2FDF91CF910F91089530E020E0B8
:1014B000869F212D969F200D311D1124C90108956D
:1014C000AF92BF92CF92DF92FF920F931F93CF9371
:1014D000DF93362F472FE82FF0E0EC58FD4F7111C6
:1014E0000FC0E4918E2F2E2F6E2F722FDF91CF9190
:1014F0001F910F91FF90DF90CF90BF90AF90089514
:10150000C72FD0E02491F22E022F10E056E0659F05
:10151000C0011124EFEFF0E0BF010E949430832F4F
:1015200090E0880F991F35E5369FD001379FB00DA9
:1015300011248A1B9B0B982F990F980F6F01CC1ABF
:10154000DD0AC09ED001C19EB00DD09EB00D112409
:101550008B2F499FA0011124452F55276F01C41AD5
:10156000D50AC09EA001C19E500DD09E500D1124E1
:101570005F01A91AB108AC9E6001AD9ED00CBC9E63
:10158000D00C1124CD2CDD24EC19FD09E09FE001E5
:10159000E19FD00DF09FD00D1124ED2F6230710529
:1015A000A1F050F46115710509F49ECF6130710509
:1015B00081F0EB2F852F98CF6430710569F080F0B2
:1015C0006630710509F490CFF4CFE22F2B2F8D2FC9
:1015D0008BCFE22F252F88CFEB2F822F2D2F84CF7B
:1015E0002B2F8F2DE52F80CF2F923F925F926F92FE
:1015F0007F928F929F92AF92BF92CF92DF92EF92A3
:10160000FF920F931F93CF93DF93CDB7DEB72A9747
:101610000FB6F894DEBF0FBECDBF8B837E836D8384
:101620002091160184E1289F802D11248F838C5EE8
:1016300089838A83813610F030E63A8380914806A8
:101640008C83FF81EF2FF0E0FA87E987CF01880FC5
:10165000991F9C0125513E4F69013B81832F90E0EA
:10166000FC013196F887EF838A8199859817E8F015
:1016700081E0E981E03608F080E02A960FB6F89420
:10168000DEBF0FBECDBFDF91CF911F910F91FF90B5
:10169000EF90DF90CF90BF90AF909F908F907F9012
:1016A0006F905F903F902F900895E985FA85E555FA
:1016B000FD4F8081909117018923F1F0209043061E
:1016C000309044062F813885285B394F39015B8083
:1016D00010E0FC815F16D0F020914506129F112D7D
:1016E0001124B101812F0E94600A462F282F672FF5
:1016F00089859A850E94D90829853A852F5F3F4FB1
:101700003A87298732E0C30ED11CAECFF301819115
:101710003F01F601A080A81ABB088180F3018781F0
:10172000881A9908AA9C9001AB9C300D300D1124A9
:10173000889CC001899C900D900D1124820F931FED
:101740000E94FE09082F6091460621E0620F08F40E
:101750006FEFF301EE0FFF1FE854F640858996897D
:101760000E94560A7C019401A501B101812FED81EF
:10177000FE8109951B015394182FABCFCF92DF92B6
:10178000EF92FF920F931F93CF93DF938C01C09141
:10179000160184E1C89FC02D112424E1D22EDC0E55
:1017A000CD2C20E62D1510F490E6C92E209146068A
:1017B00031E0230F08F42FEF30E050E040E06FEF0E
:1017C0007FEF80E090E00E948D317901D0E02C2FF6
:1017D000CC1570F081E0FFE5FD1508F480E0DF91A5
:1017E000CF911F910F91FF90EF90DF90CF900895D0
:1017F000FE01E555FD4F808190911701892311F17C
:10180000409148064150042E000C550B47FF1CC068
:10181000C7016091460621E0620F08F46FEF0E9455
:10182000560AAC01609143067091440680914506CA
:10183000F80109950E94600A462F282F672FCE01D4
:101840000E94D9082196C3CFFA01E85BF94F81893C
:1018500082130AC0FA01EE0FFF1FE85BF94F818D7A
:10186000928D8E159F05A8F241505109CFCFDF927E
:10187000EF92FF920F931F93CF93DF937C01C09160
:10188000160184E1C89FC02D112414E11C0F012F03
:10189000113608F000E6609146066695669521E0EF
:1018A000620F08F46FEF80913E0690913F060E9410
:1018B000560AD82ED0E0C01760F081E0103608F04C
:1018C00080E0DF91CF911F910F91FF90EF90DF901B
:1018D0000895FE01E555FD4F808190911701892300
:1018E00091F06091430670914406809145062D2D3C
:1018F0004C2FF70109950E94600A462F282F672F69
:10190000CE010E94D9082196D6CF9F92AF92BF9266
:10191000CF92DF92EF92FF920F931F93CF93DF93BB
:101920006C01C091160184E1C89FC02D112414E1FF
:101930001C0FB12E113610F030E6B32E6091460622
:101940006695669580913E0690913F060E94560AE4
:10195000F82E80E48F0D0E94A70990E8A92EA80E0A
:101960008F2D0E94A70920E8922E980ED0E0CB156B
:1019700080F081E0103608F080E0DF91CF911F9178
:101980000F91FF90EF90DF90CF90BF90AF909F901E
:101990000895FE01E555FD4F80819091170189233F
:1019A000A1F0609143067091440680914506EF2CAA
:1019B0000C2F292D4A2DF60109950E94600A462F09
:1019C000282F672FCE010E94D9082196D0CF7F9271
:1019D0008F929F92AF92BF92CF92DF92EF92FF923F
:1019E0000F931F93CF93DF935C01C091160184E1A5
:1019F000C89FC02D112414E11C0FF12E113610F0D8
:101A000030E6F32E60914606669580913E069091F1
:101A10003F060E94560A782ED0E0CF1590F081E064
:101A2000103608F080E0DF91CF911F910F91FF9069
:101A3000EF90DF90CF90BF90AF909F908F907F906E
:101A40000895FE01E555FD4F80819091170189238E
:101A5000C9F1CE01880F991F88579E4FFC01ED599F
:101A6000FF4F2081422F4057550B6A018C599F4FE1
:101A7000FC018081282F2052330B4901449F9001A3
:101A8000459F300D300D1124889CC001899C900D1C
:101A9000900D1124820F931F0E94FE09082F609160
:101AA00043067091440680914506E72C9401A601F7
:101AB000F50109950E94600A462F282F672FCE0155
:101AC0000E94D9082196A9CFCF92DF92EF92FF9280
:101AD0000F931F93CF93DF937C01C091160184E194
:101AE000C89FC02D112414E11C0FD12E113610F007
:101AF00030E6D32E60914606669580913E06909121
:101B00003F060E94560AC82ED0E0CD1568F081E04D
:101B1000103608F080E0DF91CF911F910F91FF9078
:101B2000EF90DF90CF900895FE01E555FD4F808145
:101B300090911701892311F1CE01880F991F8857C1
:101B40009E4FFC01EC59FF4F20812052330B8D59E1
:101B50009F4FFC0140814057550B609143067091A7
:101B60004406809145060C2DF70109950E94600AF4
:101B7000462F282F672FCE010E94D9082196C5CF66
:101B80000E9482059C019091DB038091DC03982BDD
:101B900021F03093D8032093D7039091DD038091F7
:101BA000DE03982B21F03093D6032093D503E091E8
:101BB0000106F0910206309749F082E08093D90344
:101BC0000480F581E02D89ED93E00994089540911A
:101BD000DB03803F59F48091DC0387FF0DC0109236
:101BE000DC0341110BC01092D30308C0813F81F484
:101BF0008091DC0318169CF3442381F08091DD036F
:101C00009091DE03892B09F05AC01092D2030895F7
:101C1000823F49F447FFF0CF1092DB038091DC0351
:101C20008111ECCFE0CF833F19F41416ACF3E4CF6D
:101C30009091DD03893F29F41916F4F61092DD0323
:101C4000DBCF8A3F19F497FFD7CFF8CF9091DE030F
:101C50008B3F29F497FFD0CF1092DE03CDCF8C3F7E
:101C600019F41916CCF3C8CF9CE0980F953090F476
:101C7000845F990B21E030E0B90102C0660F771F45
:101C80008A95E2F7CB0180959091DA0389238093BE
:101C9000DA03B2CF8D3F31F48091D4038E7F8093ED
:101CA000D403AACF8E3F21F48091D4038D7FF7CF48
:101CB0008F3F09F0A1CF8091D4038B7FF0CF08959F
:101CC0008091D40380FD16C081FD16C082FD16C030
:101CD0008091D2038823A1F0883280F428E0829F8B
:101CE000C001112468E270E00E94A830862F672BA3
:101CF00039F0089582E0089584E0089588E0089519
:101D000081E008958091D40380FD14C081FD14C04A
:101D100082FD16C08091D303882381F0843180F442
:101D200022E3829FC001112464E170E00E94A83088
:101D3000862F08958CE0089589E1089585E008953F
:101D400082E30895803F31F40E94820E8195809352
:101D5000DC030895813F19F40E94820EF8CF823F80
:101D600031F40E94820E81958093DB030895833FB6
:101D700019F40E94820EF8CF893F29F40E94600E68
:101D80008093DD0308958A3F21F40E94600E8195BF
:101D9000F7CF8B3F31F40E94600E81958093DE0374
:101DA00008958C3F19F40E94600EF8CF9CE0980FC4
:101DB000953070F4845F990B21E030E001C0220F70
:101DC0008A95EAF78091DA03822B8093DA030895EB
:101DD0008D3F31F48091D40381608093D4030895C2
:101DE0008E3F21F48091D4038260F7CF8F3FB9F703
:101DF0008091D4038460F1CF80E00895F894E82FB7
:101E0000E295EF70F0E031A1282F2F7081E090E093
:101E100001C0880F2A95EAF7982F9095932391A3F4
:101E200092A1892B82A37894089590910A0692FF3B
:101E300006C0282F28712830F9F4877F846093FF2B
:101E400006C0282F28712831F1F4877E8461209103
:101E50000B0620FF06C0382F38713830D9F4877F41
:101E6000816021FF06C0282F28712831D1F4877E98
:101E7000816194FD877E0895282F24712430F9F61E
:101E80008B7F8860DCCF282F2471243101F78B7E73
:101E90008861DDCF382F3171313019F78E7F88603E
:101EA000E0CF282F2171213121F78E7E8861E1CF8B
:101EB000CF93DF93EC0182389105A9F1D8F58133F6
:101EC000910509F496C048F58932910509F48AC054
:101ED0008A9709F495C0C11521E5D20708F0BCC066
:101EE000C11530E5D30708F014C1C83ED10508F08C
:101EF0009CC0C03ED10560F5C83AD10508F087C046
:101F0000C53AD10508F0FDC0C130D10509F12097CF
:101F1000F9F0C430D105E0F440C08533910509F4EF
:101F20005AC0C997C1F680910A06837089F0C0EE45
:101F3000D0E00EC0833E910599F170F4803E91058A
:101F400001F1823E910539F680910A0682FD21C099
:101F5000CE01DF91CF910895863E910561F1873ED4
:101F6000910571F1843E910509F0B5CF80910B0682
:101F700081FFEECF80910A06C7EED0E084FD0DC050
:101F8000E7CF80910A0680FD12C190910B0690FF69
:101F9000DFCFC3EED0E084FFDBCFD0E0C0E0D8CF0E
:101FA00080910A0682FD06C190910B0690FDBFCF7D
:101FB00084FFCECFF2CF80910A0683FDDDCFC8CF5C
:101FC00080910A0683FDF9C090910B0691FFF0CF36
:101FD000C4EED0E0BDCF80910A0685FFB9CFC9E23B
:101FE000D0E0B6CF80910A0685FFB2CFC5E3D0E03E
:101FF000AFCF80910A0686FFABCFCAE2D0E0A8CF70
:1020000080910A0686FFA4CFC1E3D0E0A1CFCF3BE9
:10201000D10518F6C85AD0E0CC0FDD1FC15EDE4FE7
:102020000990D881C02DD46493CFC11540E2D40764
:1020300058F4C11581E0D80708F08ACFC03FD10518
:1020400008F4ABCFD06584CFC11590E4D90708F46C
:10205000A4CFDF70D06A7CCFC11525E5D20700F58B
:10206000C11534E5D30708F08AC0C11543E5D4078C
:1020700008F071C0C11582E5D80708F467C0CE0129
:102080008370992721E030E002C0220F331F8A9528
:10209000E2F7C695C69580E2C89FE001112452C0C0
:1020A000C11599E5D907A8F4C11528E5D20708F0AC
:1020B0006BC0C11536E5D30708F06FCF8C2F0E9497
:1020C000150FC82FD0E0DC2FCC27CC27DF71D062D2
:1020D0003FCFC1154AE5D40708F45BC0CE01905646
:1020E0008115904208F059CF8D2F8F710E94150FE6
:1020F00090E0982F882788279F719C012C2BE9015D
:10210000E6CFC55AD0E0C45EDE4FC881D0E0D064CF
:102110001FCFCE01E4E096958795EA95E1F78370AD
:102120002C2F26952695237040E2249F90011124A0
:10213000382B8C2F8370C1E0D0E002C0CC0FDD1FA4
:102140008A95E2F7C22BD32BDC6802CFDC2FCC2799
:10215000C16FD06AFDCECE018370992721E030E0B7
:1021600002C0220F331F8A95E2F7C695C69590E20A
:10217000C99FE0011124C22BD32BDA68E9CEDC2FF2
:10218000CC27C46FD06AE4CEDC2FCC27C06FD06AD6
:10219000DFCE8C2F8F700E94150F34E0D695C79537
:1021A0003A95E1F7CF709C2FEC01D069D1CEC9E30D
:1021B000D0E0CECEC2EED0E0CBCEC6EED0E0C8CEE0
:1021C00080919203811110929203089580959091CD
:1021D0009103982390939103089580919103909196
:1021E0009003892B90918F03892B80930E039091FC
:1021F00092039923A1F0892B80930E0380911501FE
:10220000882341F180910A0687FF24C08EE1E0E136
:10221000F3E090E0815000F591110E94E010E09110
:102220000106F09102063097E1F0809115018823B4
:1022300059F080910A0687FF07C080910E038093B2
:102240000F0386E080930E030280F381E02D8EE081
:1022500093E0099486E0DBCF21912223D9F29F5F9E
:10226000D9CF089580918D0390915C03981301C09C
:1022700008958F5F8770FACF2BE0929F800D112415
:10228000982F977086958695869523E0829FF0011A
:102290001124E15DFC4F50E040E080E0219130E00E
:1022A000092E02C0369527950A94E2F7217033274C
:1022B000042E01C0220F0A94EAF7822B4F5F5F4F72
:1022C0004330510559F708952BE0929F800D11245A
:1022D000982F977041E001C0440F9A95EAF78695D0
:1022E0008695869593E0899FF0011124E15DFC4F6E
:1022F00090E080E070E05191DF0111979B01082E82
:1023000002C0369527950A94E2F72170219525277A
:10231000242325272C9301968330910561F7089596
:1023200090E080E00E94030690E080E00E94ED05CE
:102330001092900310928F030E94ED1086E0E9ED59
:10234000F3E0DF011D928A95E9F71092D303109212
:10235000D2031092D4030C94C00D809374060C9495
:10236000901180917406982F9670963019F48860B9
:102370000C94AD11877FFCCF21E030E001C0220F2B
:102380008A95EAF720958091740682230C94AD110A
:1023900090918E038095892380938E03282F277038
:1023A00091F4282F082E000C330B9217130659F0C6
:1023B00090910B0692FD07C08595859585950E94A5
:1023C000BC1110928E03089521E030E001C0220F6D
:1023D0008A95EAF780917406822B0C94AD11809354
:1023E00093030C949011882321F00E94E6100C9422
:1023F000ED100895882339F090919103982B9093D4
:1024000091030C94ED100895882379F19CEF980FB7
:10241000913A38F4682F8EE093E00E948E050C9478
:10242000ED1090E2980F983050F4877091E001C061
:10243000990F8A95EAF7892F0E94E610F0CF9BE565
:10244000980F933020F490E080E00C94030698E518
:10245000980F973120F490E080E00C94ED05803FD8
:1024600020F00E94E70D0C94C00D0895CF93C82F63
:10247000882309F46FC08CEF8C0F813AC0F58091EE
:102480001501882311F180910A0687FF1EC0EC2FE9
:10249000E695E695E695F0E0E25FFC4F828190E0FC
:1024A0004C2F477021E030E002C0220F331F4A95C5
:1024B000E2F782239323892B91F06C2F8EE093E037
:1024C0000E948E050E94ED100AC0E0E1F3E086E173
:1024D00093E02191C21789F38E179F07D1F76C2FD4
:1024E0008EE093E00E94B805CF910C94ED1080E24D
:1024F0008C0F883068F4C77021E030E001C0220FF3
:10250000CA95EAF780919103822B80939103ECCFD7
:10251000EBE5EC0FE33040F4F0E0E45EFE4F808149
:1025200090E0CF910C940306E8E5EC0FE73150F40E
:10253000F0E0EE0FFF1FE15EFE4F80819181CF91B1
:102540000C94ED05C03F30F08C2F0E94A20ECF916D
:102550000C94C00DCF91089580930C0670930E06D5
:1025600060930D06809134068430F9F48093E9007D
:102570008FEF9091E800815095FD06C095ED9A95FA
:10258000F1F700008111F5CF8091E80085FF0DC0C3
:1025900050E040E063E070E08CE096E00E942904A7
:1025A0008091E8008E778093E8000895BC0184E074
:1025B0000C94AC12BC0183E00C94AC129C0184E03E
:1025C0008093E9009FEF8091E800915085FD06C05F
:1025D00085ED8A95F1F700009111F5CF8091E80023
:1025E00085FF0CC050E040E066E070E0C9010E9449
:1025F00029048091E8008E778093E8000895CF93B6
:10260000DF93EC01809115018823B1F180910A06D6
:1026100087FF32C060E284E08093E9008FEF909101
:10262000E800815095FD06C095ED9A95F1F7000000
:102630008111F5CF8091E80085FF1BC080911501C5
:1026400070E050E040E0811104C050E040E068E0FC
:1026500070E0CE010E9429048091E8008E7780937B
:10266000E80080E2FE01A2E1B6E001900D928A95B9
:10267000E1F7DF91CF91089568E081E0CDCF81E06F
:102680008093E00080E28093D8001092C9008FE12F
:102690009EE40197F1F700C0000087E090EBDC01B9
:1026A0008093750690937606A0937706B09378068C
:1026B00088E19CE00FB6F894A895809360000FBE67
:1026C00090936000FFCF6A9A3EB13B7F2EB12460A9
:1026D0004FB7F8948FED94E0FC015191CF0168E081
:1026E0002EB9000000C057FF3EB9550F000000C0D2
:1026F00000C000C03EB900C06A9591F7F5E08F3F79
:102700009F0751F74FBF8FE594E00197F1F700C0A5
:10271000000008951F93CF93DF93182FEB010E94C1
:102720003612209731F4812FDF91CF911F910C94B5
:1027300004128FE99FE00197F1F700C00000219794
:10274000F0CF70E060E0893311F460E570E00C9444
:102750008A130F931F93CF93DF93C62FD42F022F8B
:10276000FC0182818823A1F0609373060E94820598
:102770009093720680937106C77081E001C0880F44
:10278000CA95EAF7DF91CF911F910F910C94FA113E
:1027900080917306681335C080917106909172061E
:1027A0000E946705883C910560F510E21D0FCD176A
:1027B000B9F080E28C0F883040F4C77081E001C02E
:1027C000880FCA95EAF70E94F311183048F481E0A7
:1027D0009D2F977001C0880F9A95EAF70E94FA1111
:1027E000802F0E94A113183098F4D77081E001C0A7
:1027F000880FDA95EAF7DF91CF911F910F910C9432
:10280000F311C77081E001C0880FCA95EAF7F3CFD2
:10281000DF91CF911F910F910895CF93DF93CFE375
:10282000D3E060E0CE010E9469312196C11584E0B9
:10283000D807B9F7DF91CF9108956F927F928F9269
:102840009F92AF92BF92CF92DF92EF92FF920F933F
:102850001F93CF93DF9384E7C82E83E0D82E93E0B5
:10286000E92EFF24F394E701C65CD10936011BC0B1
:10287000F50185909490692DC8010E946931682DF9
:10288000C80101960E94693182E0A80EB11C0E5F5A
:102890001F4FC017D10761F786E1680E711C66965D
:1028A000CE15DF0529F08E01065111095301E0CF45
:1028B0007E0186ECE80EF11C86ECC80ED11C8BE183
:1028C000E81684E0F80679F6DF91CF911F910F9119
:1028D000FF90EF90DF90CF90BF90AF909F908F9040
:1028E0007F906F900895CF93C82F6FEF811162E2B0
:1028F00083E290E00E9469316FEFC11165E084E2EC
:1029000090E00E9469316FEFC11163E085E290E0D1
:10291000CF910C94693180E00E94731460E086E2EC
:1029200090E00E9469310E941D140E940D1481E004
:102930000C947314CF93C0910B06C2FB992790F9A6
:10294000981799F080FBC2F9C0930B0660910A06B4
:1029500084E090E00E9469316C2F82E290E00E9456
:10296000693182E0CF910C94C811CF9108950F93F3
:102970001F93CF93DF93C42FD0E0CC0FDD1F26E150
:10298000629FC00DD11D112436EC839FC00DD11D57
:102990001124CE0187960E944B31082F10E0102F92
:1029A0000027CE0188960E944B319801282BC9013F
:1029B000DF91CF911F910F910895462F843038F405
:1029C000793028F46B3018F4672F0C94B71490E02A
:1029D00080E00895CF92DF92FF920F931F93CF93E1
:1029E000DF936C010091740680919303082BC7E07C
:1029F000D0E010E0FC2EC8010C2E02C09595879502
:102A00000A94E2F780FD0CC02197A0F7F12C8F2DDE
:102A1000DF91CF911F910F91FF90DF90CF9008959C
:102A2000B6018C2F0E94DD140E94580F019761F3AC
:102A3000EECFCF93DF93EC010E94EA14BE010E9417
:102A4000DD14DF91CF910C94580FFC0180819181AE
:102A50000E941915292F2F7092959F7092509E30C9
:102A600078F4E92FF0E0EE50FE4C0C94BC30803F3F
:102A700019F020F4883E20F481E00895843FE1F3CA
:102A800080E00895883EC0F3813FD1F7F5CF822FD3
:102A9000869586958695089583E290E00E944B3155
:102AA000823289F484E290E00E944B31853059F4FF
:102AB00085E290E00E944B3191E0833009F090E094
:102AC000892F8170089580E0FCCFCF9384E090E05F
:102AD0000E944B31C82F82E290E00E944B31982F28
:102AE0008C2FCF9108951F93CF93DF93EC01FC01BE
:102AF000E555FD4F80816823C9F00E941531182FDC
:102B00000E9415318F77782F20E8720F08F47FEF3D
:102B1000612F809145060E94600A462F282F672F5B
:102B2000CE01DF91CF911F910C94D908DF91CF9105
:102B30001F910895DF92EF92FF920F931F93CF930F
:102B4000DF938C01FC01E555FD4F8081682381F105
:102B5000D0904406D0914506C0914306EC2EF12C4E
:102B60000E941531282FC7018C549F4F68E671E0F1
:102B70000E94A8308E199F0997FD03969595879519
:102B80009595879523706C2F289F600D11247D2DBE
:102B90008D2F0E94600A462F282F672FC801DF91D2
:102BA000CF911F910F91FF90EF90DF900C94D90877
:102BB000DF91CF911F910F91FF90EF90DF900895DB
:102BC00046E050E06CE170E082E496E00E9459310A
:102BD0001092DE040895E2E4F6E085E380838091BC
:102BE000190190911A01A0911B0181839283A38303
:102BF0008FE784838FEF85830C94E0153F924F928B
:102C00005F926F927F928F929F92AF92BF92CF927C
:102C1000DF92EF92FF920F931F93CF93DF93C090B9
:102C20000804D0900904E0900A04F0900B048FB7D8
:102C3000F894409006065090070660900806709041
:102C400009068FBF530142018C189D08AE08BF08CA
:102C50000E947605609308047093090480930A0427
:102C600090930B04A091DF03EFEDF3E02A2F30E007
:102C70004FEFC40ED41EE11CF11CC418D508E608A1
:102C8000F708A3132AC02093DF0330914206A32F35
:102C9000A3707A2E19F0732E7694769420911401F5
:102CA000213009F444C0222359F1223009F479C5B6
:102CB000233009F47FC5DF91CF911F910F91FF90D1
:102CC000EF90DF90CF90BF90AF909F908F907F90CC
:102CD0006F905F904F903F900895418D528D2A01E3
:102CE000712C612CC414D504E604F70420F421509F
:102CF0003F5F3296C6CF480D591D528F418FF8CF96
:102D00001092160160933E0670933F068093400632
:102D10009093410689E2EFEDF3E0A8E4B6E001907C
:102D20000D928A95E1F781E080931401C4CF9091D0
:102D3000130181E079120BC0832F8370209112015F
:102D400030E091E08217130609F490E0892F81703A
:102D5000809318018091470690911701981739F0D8
:102D60008093170140E060E080E00E94D708BBE25A
:102D7000B71550F0E72DF0E0E050FE4C0C94BC305D
:102D800080911801811102C0C0E08EC140E060E076
:102D900080E00E94D708F8CFC091160184E1C89F57
:102DA000C02D112414E11C0F012F113608F000E68C
:102DB0006091430670914406809145060E94600A26
:102DC000F62EE72ED82ED0E0C01728F0C1E010363E
:102DD00008F46AC1D9CFFE01E555FD4F808190917D
:102DE0001701892331F02D2D4F2D6E2DCE010E941C
:102DF000D9082196E9CFC091160184E1C89FC02D62
:102E0000112414E11C0F012F113608F000E6E090A8
:102E10004406F0904506D09143066D2F7E2D8F2DF0
:102E20000E94600AD62EC72EB82E609146066D0FFE
:102E30007E2D8F2D0E94600AF62EE72EA82ED0E060
:102E4000C01720F6FE01E555FD4F908180911701D6
:102E5000892359F02A2D4F2D6E2D90FD03C02B2D67
:102E60004D2D6C2DCE010E94D9082196E9CFC0913D
:102E7000160184E1C89FC02D112414E11C0FF12E0E
:102E8000113610F030E6F32EE0904406D09045065F
:102E90002091460600E4029F012D1124D0E0CF15B9
:102EA00008F094CFFE01E555FD4F80819091170108
:102EB0008923B9F0FE01EE0FFF1FE451FE4F808120
:102EC00082958F7060914306809F600D11247E2D46
:102ED0008D2D0E94600A462F282F672FCE010E9459
:102EE000D9082196DCCFC091160184E1C89FC02D7E
:102EF000112414E11C0FF12E113610F090E6F92E7A
:102F0000E0904406D09045062091460600E4029FDA
:102F1000012D1124D0E0CF1508F058CFFE01E55562
:102F2000FD4F8081909117018923D9F0FE01EE0FAA
:102F3000FF1FE551FE4F6081069FB001112485E01F
:102F4000759567958A95E1F780914306680F7E2D08
:102F50008D2D0E94600A462F282F672FCE010E94D8
:102F6000D9082196D8CFC091160184E1C89FC02D01
:102F7000112414E11C0F012F113608F000E6F09027
:102F80004306D0914406E09045066091460666955A
:102F90006695669580913E0690913F060E94560A7E
:102FA0000E94A709805887FD8195880F482F6E2DB4
:102FB000469F412D1124842F6F2D7D2F0E94600A82
:102FC000F62EE72ED82ED0E0C01708F0FFCEFE0177
:102FD000E555FD4F808190911701892331F02D2D0A
:102FE0004F2D6E2DCE010E94D9082196EDCF8EEA8D
:102FF00098E00E94370C07C084E898E0FACF89E88F
:1030000099E00E94640DC82F4FC08AE699E0F9CF7D
:103010008FE499E00E94E70CF6CF83E399E0FACFC2
:1030200082E898E0E6CF89E798E0E3CF80E798E090
:10303000E0CF87E598E0DDCF89E498E0EBCF8EE242
:103040009AE0DFCF82E299E0DCCF8EE099E0E2CF38
:103050008CE198E00E94850CD6CF8EEE97E0FACFF7
:1030600087EB97E0F7CFC0911801C1112FC0609195
:10307000460620E1620F08F46FEF80913E069091C2
:103080003F060E94560A6AE070E00E949430892B45
:1030900009F07ACE0E94153160E670E00E94A830F7
:1030A000609117010E949A15809116018F5F80939D
:1030B0001601C11100CE82E08093140180911801A5
:1030C0008111F9CD7110F7CD83E02ECEC09116019C
:1030D00084E1C89FC02D1124A4E1FA2EFC0E0F2D0F
:1030E00090E69F1508F400E6D0E010E0C017D10785
:1030F0002CF0C1E0AFE5AF15B8F646CE60911701F0
:10310000CE010E949A152196F1CFC0911801C111EC
:103110001EC06091460620E1620F08F46FEF8091B7
:103120003E0690913F060E94560A65E070E00E94BC
:103130009430892B09F028CE0E94153160E670E0AA
:103140000E94A830609117010E947315ADCFC09105
:10315000160184E1C89FC02D1124F4E1FF2EFC0E5E
:103160000F2DB0E6BF1508F400E6D0E010E0C01760
:10317000D10734F0C1E0EFE5EF1508F095CF04CEAC
:1031800060911701CE010E9473152196F0CFC09176
:10319000160184E1C89FC02D112414E11C0F012FDA
:1031A000113608F000E6E0904406F0904506D09114
:1031B00043066091460666956695669580913E0643
:1031C00090913F060E94560A0E94A709805887FDE9
:1031D0008195880F682F2CE0629F612D11246D0F5F
:1031E0007E2D8F2D0E94600AF62EE72ED82ED0E07D
:1031F000C01708F0EBCDFE01E555FD4F80819091A1
:103200001701892331F02D2D4F2D6E2DCE010E94F7
:10321000D9082196EDCF86EC99E0EBCE86EA97E0CF
:10322000E8CE40910C0450910D0460910E04709111
:103230000F0480913E0690913F06A0914006B09108
:10324000410684179507A607B70708F49DCD0E948D
:10325000E909182F0E94E90990E6891BF0F7890F08
:10326000C82FD0E0FE01E555FD4F809117019081F8
:10327000892309F494C220E040E060E011FD13C00E
:103280000E94E909182F0E94E909782F76952FE707
:10329000720F08F47FEF612F809145060E94600A4B
:1032A000462F282F672FCE010E94D908209146066D
:1032B00030E1230F08F42FEF60E1822F90E00E94AD
:1032C000560ABC0184EF91E00E94943080913E0642
:1032D00090913F06A0914006B0914106860F971F3E
:1032E000A11DB11D80930C0490930D04A0930E04B6
:1032F000B0930F0449CD40917304509174046091D0
:1033000075047091760480913E0690913F06A091DD
:103310004006B091410684179507A607B70708F441
:1033200033CD6091430670914406809145060E941A
:10333000600A962E872E682EC0E1D4E0E8E8CE2EF3
:10334000E1E0DE2E0AE010E078012AE0E21AF1085E
:10335000512C9701205F3B4F5901F701E857FE4F71
:10336000808190E0D9012C91222309F480C0262D80
:10337000492D682D0E94D908F501818180835394DD
:10338000FFEFEF1AFF0A24E05212E3CF780175E055
:10339000572EC701805F9B4F5C01F701E857FE4F36
:1033A000808190E0D5012C91222309F464C0262D60
:1033B000492D682D0E94D908F50131978081F501CA
:1033C00080835A94F1E0EF1AF1085110E2CFD60150
:1033D00015968C9190E02D81222309F450C0262D62
:1033E000492D682D0E94D908F601848190E02C8136
:1033F000222309F448C0262D492D682D0E94D908A2
:103400000E94E909837091E009F090E09C839D831C
:103410002B96FBE0CF0ED11C055F1F4F0D3611051B
:1034200009F092CF2091460630E1230F08F42FEFE8
:1034300060E1822F90E00E94560ABC0188EB9BE07D
:103440000E94943080913E0690913F06A0914006E4
:10345000B0914106860F971FA11DB11D8093730483
:1034600090937404A0937504B09376048DCC20E0FF
:1034700040E060E07FCF20E040E060E09BCF20E0D4
:1034800040E060E0AFCF20E040E060E0B7CFC09127
:10349000160184E1C89FC02D112464E1562E5C0EF4
:1034A000152D33E6351508F413E6809118018823AD
:1034B00061F040E060E080E00E94D708EBE7F4E0D4
:1034C00083E6DF011D928A95E9F78091160181114B
:1034D00015C080917804909179040E94670521E0DD
:1034E0008931910508F420E020937704499730F062
:1034F0000E9482059093790480937804D0E0E12EB5
:10350000F12C39E0832E912C4BE0442E5AEA352ED3
:10351000CE15DF0534F0C1E0B2E6B51508F0C4CD34
:1035200033CCCE01B4010E94A8306B015C014A9CEF
:10353000C0014B9C900D1124FC01E558FB4FE60F98
:10354000F71F608088579E4FFC01E60FF71F008130
:103550000F3F51F110E0F801E555FD4F808190914A
:103560001701892309F1362D25E5321B08F430E0D7
:1035700070914406232D462D240F08F42FEF40911F
:103580004506822F880F820F8E5F682F649F612D02
:103590001124862F632D631B0E94600A462F282F5B
:1035A000672FC8010E94D90880917704882381F091
:1035B000262D31E0231B08F420E04A9CC0014B9CDF
:1035C000900D112485589B4FC80ED91ED6012C93FF
:1035D00021969ECF80911801882371F040E060E031
:1035E00080E00E94D708EBE7F4E083E6DF011D925C
:1035F0008A95E9F710927A04D0E0C0E088248A9492
:1036000080EDC82ED12C90EC692E2FE2A22EB12C89
:103610008E01912C9E0125583B4F790180917A04AF
:103620008929A9F50E9415318535954084F5F70162
:103630008082F801E857FE4FE081EF3FB1F0D801FA
:10364000A558BB4F2C91F0E0213D50F1205D330B8C
:10365000629EC001639E900D1124B5010E949430BA
:10366000262F4FEFCF010E94D9089394055F1F4F7B
:10367000F9E09F12D3CF2196CB30D10549F6809146
:103680007A048F5F8D31B0F480937A047DCBF8019A
:10369000E558FB4F808181508E3F58F68083C9CF1B
:1036A000289DC0011124B6010E949430462F20E0CD
:1036B00060E0D8CF10927A0448EC54E028E03EEF66
:1036C0008BE794E0FA01283039F4DC01A85ABF4FA7
:1036D0006C916F3F09F43C9361916F3F21F4DF01DE
:1036E00011973C936287019664E08638960759F7F4
:1036F00021504B5051092111E3CF46CB8FE997E080
:103700000E94BE0B80CC89E997E0FACF80914806F1
:1037100021E0382F321B08F430E0832F60E877E097
:103720000E94F40A70CC60E877E080E0F9CF8091E5
:10373000480621E0482F421B08F440E0842F65E44E
:1037400077E0EECF65E477E0F0CF8091480621E0A6
:10375000682F621B08F460E0862F63E177E0E0CF1A
:1037600063E177E0E2CF8091480621E0382F321BF9
:1037700008F430E0832F6BEF76E0D2CF6BEF76E08A
:10378000D4CF8091480621E0482F421B08F440E046
:10379000842F65EE76E0C4CF65EE76E0C6CFC1E05B
:1037A00083CC70921301832F8370809312010E9447
:1037B00063138ACC8091DE0481110E94E015409150
:1037C0003E0650913F0660914006709141062FB72A
:1037D000F8948091060690910706A0910806B09192
:1037E00009062FBF841B950BA60BB70B4097A105AD
:1037F000B10508F460CA109214015DCA10929103D9
:1038000080911501E0E1F3E0882359F080910A06E8
:1038100087FF07C08EE1DF011D928A95E9F70C94BE
:10382000901186E0F8CF1F93CF93DF93CDB7DEB72B
:10383000AA970FB6F894DEBF0FBECDBF86E396E021
:103840002091F100DC012D93CD01B6E08E339B0772
:10385000B9F780913706833009F472C0B8F481302B
:1038600009F449C0823009F4B3C08091E80083FFB5
:103870008BC280913606909137069A3008F084C248
:10388000E92FF0E0E45DFD4C0C94BC308A3009F483
:103890008EC08B3009F471C0893039F780913606BB
:1038A000813219F780913A0690913B06009711F00A
:1038B0000297D9F68091E800877F8093E800809195
:1038C000E80082FF38C09091F3008091F2000297E7
:1038D00031F48091F100813011F0863021F4809133
:1038E000F100809311068091E8008B778093E800C7
:1038F0000E945304BACF80913606813A09F0B5CFC1
:103900008091E800877F8093E80080913A0690914B
:103910003B06892B61F460E282E196E070E00E9450
:1039200005058091E8008B778093E8009ECF60E0EA
:1039300090E080E0F3CF809134068111C0CF95CF25
:1039400080913606813A09F090CF80913A069091A5
:103950003B06892B09F089CF8091E800877F80930F
:10396000E8008091E80080FFFCCF809115018093F2
:10397000F1008091E8008E77B9CF809136068132D0
:1039800009F073CF80913A0690913B06892B09F09C
:103990006CCF8091E800877F8093E8000E945304F9
:1039A00080913806809315010E94FE1B5ECF8091A6
:1039B0003606813209F059CF8091E800877F8093E5
:1039C000E8000E94530480913906809310064DCF81
:1039D00080913606813A09F048CF8091E800877FD0
:1039E0008093E8008091E80080FFFCCF8091100672
:1039F000BECF803899F0823809F0C6C180913A066E
:103A00008F70873008F0C0C18093E9008091EB008F
:103A100085FB882780F91092E90006C08091320664
:103A200090913306911182609091E800977F909376
:103A3000E8008093F1001092F1008091E8008E7709
:103A40009FC1882309F48DC1823009F09DC1809106
:103A50003806811190C180913A068F702FEF280FA0
:103A6000263008F091C18093E9002091EB0020FFFF
:103A700082C1933031F48091EB0080628093EB003F
:103A80007AC19091EB0090619093EB0021E030E0DF
:103A900001C0220F8A95EAF72093EA001092EA000B
:103AA0008091EB008860EACF81116EC110913806D9
:103AB0001F778091E3008078812B8093E3008091D1
:103AC000E800877F8093E8000E9453048091E8001B
:103AD00080FFFCCF8091E30080688093E30082E068
:103AE000111183E0809334064FC18058823008F072
:103AF0004BC120913806309139062C3DE3E03E075A
:103B0000A1F583E08A838AE289834FB7F894DE01C6
:103B1000139620E03EE051E2E32FF0E0509357008F
:103B2000E49120FF03C0E295EF703F5FEF708E2FAE
:103B300090E0EA30C0F0C7968D939D932F5F2431BB
:103B400059F74FBF8091E800877F8093E8006AE2D1
:103B500070E0CE0101960E9405058091E8008B7708
:103B60008093E80011C1C096E7CF80913A0690910A
:103B70003B06432F55274330510509F44AC078F5D9
:103B80004130510509F47AC08BE590E0ECE8F6E0AD
:103B90004230510509F0F8C02091E800277F2093BA
:103BA000E80020913C0630913D068217930708F407
:103BB0009C0140E02115310509F065C0411163C049
:103BC0008091E80082FDC9CF80913406882329F2D4
:103BD000853019F28091E80083FFF2CFBECF4132E9
:103BE000510509F43CC04232510509F0CDC0833083
:103BF000910508F0C9C0FC01EE0FFF1FE458FE4F0D
:103C00000190F081E02D87589E4FDC018C9190E06F
:103C10001AC0332721303105D1F02115310561F06B
:103C20002230310509F0B0C0E9EFF6E0E4918E2FC3
:103C300090E0E9EFF6E007C0EBE1F7E0E4918E2FCA
:103C400090E0EBE1F7E0009709F49EC0A5CFEBE030
:103C5000F7E0E4918E2F90E0EBE0F7E0F4CF8330D3
:103C6000910508F091C0880F991FFC01EE57FE4F97
:103C70000190F081E02D89E090E08ECF82E190E02C
:103C8000E7EEF6E089CF80913406882309F465CF0A
:103C9000853009F462CF8091E80083FD5ECF80918A
:103CA000E80082FD8DCF8091E80080FF83CF909166
:103CB000F3008091F2002115310519F0883091054B
:103CC00050F041E0089709F040E08091E8008E77DD
:103CD0008093E8006FCF44914093F10031962150DA
:103CE00031090196E8CF803809F04EC08091E80094
:103CF000877F8093E800809135068093F1009DCE08
:103D0000811142C0109138061230F0F58091E80020
:103D1000877F8093E800109335060E945304112397
:103D200011F084E005C08091E30087FDFACF81E0C7
:103D30008093340642E061EC81E00E94720442E22A
:103D400061EC84E00E94720442E261EC82E00E9435
:103D5000720442E260EC83E00E94720480913406B7
:103D600013C080913806813079F481E0933009F0F6
:103D700080E0809333061092E9008091E800877F0D
:103D80008093E8000E9453048091E80083FF0AC0FA
:103D90008091E800877F8093E8008091EB0080624B
:103DA0008093EB00AA960FB6F894DEBF0FBECDBF8E
:103DB000DF91CF911F9108956F927F928F929F9282
:103DC000AF92BF92CF92DF92EF92FF920F931F9329
:103DD000CF93DF93CDB7DEB762970FB6F894DEBF0F
:103DE0000FBECDBF8E010F5F1F4F82E1F801119210
:103DF0008A95E9F79DE4E92E91E0F92E68016624A1
:103E00006394712C31E6832E31E0932EF70181917A
:103E10007F018F3F09F445C0F894E82FE295EF70D9
:103E2000F0E021A18F70A30102C0440F551F8A95B5
:103E3000E2F7CA01922F982B91A392A18095892332
:103E400082A3789400C0E6E5F1E021E030E0B12CF7
:103E5000A12C41914F3F09F463C0A42FA295AF70EC
:103E6000B0E090968C9190E04F7002C09595879548
:103E70004A95E2F780FD54C0C901A82AB92A220F49
:103E8000331F8E169F0629F7F701319780818F3FE8
:103E900011F00E94FE0E50EA5A95F1F7F601B18238
:103EA000A082F2E0CF0ED11C46E5E41641E0F40614
:103EB00009F0ACCF42E150E0B80187E993E00E94FD
:103EC0002531FF24F394009709F4F12C892B59F143
:103ED00082E1F801A7E9B3E001900D928A95E1F73C
:103EE00081E0809396030E948205909395038093CE
:103EF000940380919403909195030E946705059720
:103F0000B0F0E7E9F3E0A0ECB3E0819191918D93FB
:103F10009D9353E0E93AF507C1F71092960307C065
:103F200090E080E0AACF809196038111E2CF8F2D9F
:103F300062960FB6F894DEBF0FBECDBFDF91CF9172
:103F40001F910F91FF90EF90DF90CF90BF90AF90B7
:103F50009F908F907F906F90089590E080E00E94F6
:103F60005331893E9E4F11F40C944C1580E0089516
:103F700069EE7EEF90E080E00E94873160E082E0B1
:103F800090E00E94693160E083E090E00E94693136
:103F90001092930360E084E090E00E94693160E059
:103FA00082E290E00E94693160E085E090E00E944A
:103FB000693160E086E090E00E9469316FEF87E050
:103FC00090E00E94693140E050E0BA0188E090E062
:103FD0000E947B3160E08DE090E00E94693140E01A
:103FE00050E0BA0188E190E00E947B3160E087E117
:103FF00090E00E94693140E050E0BA018CE190E02D
:104000000E947B3170E060E080E290E00E948731A6
:1040100040E050E0BA0188E190E00E947B3180E00E
:104020000E9473140E948B1440E050E0BA018FE0AC
:1040300090E00E947B3140E050E0BA0183E190E0E3
:104040000C947B313F924F925F926F927F928F924E
:104050009F92AF92BF92CF92DF92EF92FF920F9317
:104060001F93CF93DF9300D000D00F92CDB7DEB770
:104070008C01FC0183819481892B31F080819181B5
:1040800089238F3F09F087C50F900F900F900F90F5
:104090000F90DF91CF911F910F91FF90EF90DF90E4
:1040A000CF90BF90AF909F908F907F906F905F90D8
:1040B0004F903F9008950E94EA14F82E682F89814E
:1040C0009A810E94641169817A818F2D0E94DD148A
:1040D0007C01F8018281882309F450C5970122519F
:1040E0003F452031310508F01CC58FEF93E00E9459
:1040F0004B31FEEEEF0E5FE3852E53E0952E8823C5
:10410000A1F180918E03877009F4BECFF8018281FE
:10411000882309F4B9CF80910B0682FDB5CF82E0E8
:104120000F900F900F900F900F90DF91CF911F91F4
:104130000F91FF90EF90DF90CF90BF90AF909F9046
:104140008F907F906F905F904F903F900C94C8112C
:10415000811424E09206A9F2C4010E944B3181111E
:1041600001C0EA943FEF831A930AE110F1CF1C8259
:104170001B82442443944AE0342E74018FEFE81AE2
:10418000F80AC4010E944B3189831A82882309F4FA
:10419000B8CF9FEF980F933000F58A83498292E061
:1041A000890E911CC7010E944B318B83882309F42F
:1041B000A8CFFE0131967F01F70120812223E9F289
:1041C000213009F049C091818281913041F4F2E0BF
:1041D000EF0EF11C0E94A11309C04701EACF9230F3
:1041E00049F422E0E20EF11C0E9436123FEFE31A7E
:1041F000F30AE2CF933031F432E0E30EF11C0E9477
:104200000412F4CF943021F08FEFE81AF80AEECFC1
:1042100092E0E90EF11C30E020E0B7016F5F7F4FC4
:10422000F70141818053990B8A30910550F021505C
:104230003109E0F28FE99FE00197F1F700C000003B
:10424000F6CF329EF001339EF00D11249C012E0F0B
:104250003F1F842F7B01E1CFE22FF0E0EC50FE4FB7
:104260005490822F86958695869590E0FC01EC51BE
:10427000FE4F64902770712C022E02C075946794D3
:104280000A94E2F7E1E06E227724FC01EC52FE4F43
:10429000A490B12C022E02C0B594A7940A94E2F720
:1042A000F1E0AF22BB24FC01EC53FE4FC490D12CB3
:1042B00002C0D594C7942A95E2F721E0C222DD24FA
:1042C0006114710419F081EE0E943612A114B10438
:1042D00019F086EE0E943612852D0E94A113AB289C
:1042E00019F086EE0E940412672819F081EE0E94F0
:1042F0000412CD2809F47ACF8CE26CCF81E00E94C1
:10430000E4110E94B111FDCE81E00E94BC11F9CFF1
:1043100082E0F5CF95EFE9169CE5F90609F46AC04D
:1043200008F464C027E245EE66EEF6EFEF16FCE512
:10433000FF0609F41FC4882309F43EC410927306D3
:1043400023E0E2162DE5F20608F05BC03AEFE31633
:104350003CE5F30630F4C70182509C45449708F0D1
:1043600056C00E94651590930B0680930A0690E153
:10437000E9169CE5F90609F433C108F0A5C0F8E098
:10438000EF16FCE5FF0609F41DC108F06EC034E02D
:10439000E3163CE5F30609F407C108F050C092E0CB
:1043A000E9169CE5F90609F4F9C080910A068260D5
:1043B000E3E0EE16ECE5FE0609F4F3C060910A06B0
:1043C000F0900B0684E090E00E9469316F2D82E24C
:1043D00090E00E9469310E94FE1B93CE27E245EED9
:1043E00065EEC8C326E241EE60EEC4C327E245EEA7
:1043F00064EEC0C326E241EE62EEBCC328E241E0B7
:10440000EFCF81E6E8168DE5F80609F4AACF809192
:104410009103F6E1EF16FCE5FF0609F0DCC38A7AAA
:1044200091E009F490E090932E0369E2811165E335
:104430008EE093E00E94B8050E94ED1062CE80915C
:104440000A068061F6E0EF16FCE5FF0609F4A9C054
:1044500080910A06886027E0E2162CE5F20608F44F
:10446000A0C080910A0680629CC080910A068D7F60
:104470003CE0E3163CE5F30609F493C078F4809140
:104480000A068C609AE0E9169CE5F90609F489C0F1
:1044900008F49CC080910A068E7F83C080910A0632
:1044A000877FFEE0EF16FCE5FF0609F47AC08091F5
:1044B0000A068B7F2FE0E2162CE5F20608F471C0A5
:1044C00080910A068F7E6DC03CEFE3163CE5F30653
:1044D00009F482C0A0F594E1E9169CE5F90609F417
:1044E00093C098F4F2E1EF16FCE5FF0609F47CC0F6
:1044F00080910A068F7B23E1E2162CE5F20608F490
:1045000050C080910A06837F4CC03AEFE3163CE529
:10451000F30609F44DC008F051C095E1E9169CE599
:10452000F90609F04BCF80910A0682FB992790F992
:1045300021E0922790FB82F990FB83F932C0E114CD
:10454000EDE5FE0609F456C0A0F480910B068360E9
:104550002EEFE2162CE5F20671F180910B068D7FAD
:104560003FEFE3163CE5F30630F180910B068C7FBC
:1045700022C082E0E8168DE5F80609F454C008F47C
:104580004CC0E1E6EE16EDE5FE0609F017CF90917E
:104590000A06892F8F7E94FF806103C080910A06EE
:1045A000816080930A060ACF80910A068460F9CF61
:1045B00080910B06816080930B0600CF80910B06E3
:1045C0008260F9CF80910A068064EBCF0E94FE1BC7
:1045D00080910A068068E5CF80910B068E7FEBCF35
:1045E00080910A068F7DDDCF0E94FE1B80910A0616
:1045F0008F77D7CF80910B06982F909591708E7FF3
:10460000892B90FB81F9D7CF0E94FE1B90910A065F
:10461000892F97FB87F98058C4CF61E08EE090E046
:104620000E946931CBCE60E0F9CF8091420691E0E3
:10463000892780934206109214018091DE048160E4
:104640008093DE045ECD40ED56E06AED76E00E9498
:10465000250657CD4AED56E060ED76E0F8CF43EA07
:1046600056E06DEA76E0F3CF4DEA56E063EA76E095
:10467000EECF49E856E066E976E0E9CF46E956E054
:1046800069E876E0E4CF4CE756E06FE676E0DFCF0E
:1046900040E456E06EE476E0DACF4EE456E060E4C3
:1046A00076E0D5CF61E081E00E94B7062ACD61E0D7
:1046B0008DE0FACFEBE5EE16EDE5FE0611F1FCE537
:1046C000EF16FDE5FF0609F0B8C280910B0682FBEC
:1046D000882780F991E089270E949A14AEC20E942F
:1046E000FE1B2FEF34E38CE0215030408040E1F797
:1046F00000C000000E943F130E94B81F02CD81E05D
:10470000EBCF80E0E9CFC7010E943C11D82EA4C2B4
:104710002F2D2F70C22E8F2D807F19F0C29490EF15
:10472000C922DD20B9F0CC2069F080E28E0D8830FE
:1047300010F0811009C080919103C82AC0929103A2
:104740000E94ED108E2D4DC080919003C82AC0921A
:104750009003F6CF8E2D0E940412CC2009F443C0A2
:1047600080E28E0D883010F0811004C08C2D0E94E4
:10477000E61006C0C09480919003C822C0929003B6
:104780000E94ED1030C03F2D3F70C32E8F2D807FD3
:10479000803219F0C29480EFC822882089F081E02D
:1047A000881609F47FC0DD2009F489C0BB2009F414
:1047B0007FC0F801858180FFC5CF8F70858378C069
:1047C00020910B0622FF4BC0DD2009F442C0CC2013
:1047D00039F080919103C82AC09291030E94ED1094
:1047E00080E00E943612292D2850330B24303105E9
:1047F00010F40E941906AA2009F446CC80918E0379
:1048000080FD42CCF80112828595859585950E94A0
:10481000E411C8010E94222080918E038595859520
:1048200085950F900F900F900F900F90DF91CF9183
:104830001F910F91FF90EF90DF90CF90BF90AF90BE
:104840009F908F907F906F905F904F903F900C94CF
:10485000BC1180E00E940412CC2029F287CFDD2019
:10486000A1F0909192038C2D892BB11003C00E946E
:10487000FA11B9CFE1E0BE12FACF22FDB4CF9817FA
:1048800009F4B1CF80939203AECFB11006C00E945D
:10489000E0108C2D0E94F311A6CFF1E0BF1609F4B1
:1048A000A2CFF5CFDD2031F025E02B1508F49BCF0A
:1048B0008C2DDDCF34E03B1508F495CFEACFBB203B
:1048C00041F3F9E38F1209C02FEF37EE83E0215057
:1048D00030408040E1F700C000008E2D0E9404129D
:1048E00082CF8F2D86958695837061F0813009F097
:1048F0007ACFC7019370D11002C090E080E00E948F
:10490000ED0571CFC7019370D11002C090E080E037
:104910000E94030668CF8E2DDD2029F00E94A20E92
:104920000E94C00D60CF0E94E70DFACF8F2D8370DB
:1049300091F5D11058CF4E2D429546954770440FB2
:10494000440F8E2D8F70042E01C0880F0A94EAF751
:104950002E2D2071E4FE07C02FE030E001C0220FB1
:104960004A95EAF720953F2D3695369533703230CB
:1049700069F050F440919303313029F0822B842365
:104980000E94EF1130CF842B822BFACF282B8091FD
:1049900093038227F5CF8695DD2011F08F2D81704E
:1049A000882309F420CF4E2D429546954770440F39
:1049B000440F8E2D8F70042E01C0880F0A94EAF7E1
:1049C0002E2D2071E4FE07C02FE030E001C0220F41
:1049D0004A95EAF720953F2D36953695337032305B
:1049E00069F050F440917406313029F0822B842311
:1049F0000E94AD11F8CE842B822BFACF282B809108
:104A000074068227F5CF9F2D9F70F92EDD2029F0A7
:104A1000892F0E94E4118E2D2ACF8E2D0E94F31132
:104A20008F2D0E94BC11DFCE8E2DE2EF8E16B1F1DC
:104A3000E81570F0F0EF8F16D1F021EF821691F0AB
:104A4000DD2009F45EC0B1107DCE8F2D8F712AC09C
:104A500033EF831651F194EF8912F2CF80910B0658
:104A600082FF2FC08F2D8F71DD20D9F21BC0DD207A
:104A700081F0E4E0EB1508F4B6CE2F2D2F7181E024
:104A800090E001C0880F2A95EAF790917406892773
:104A9000AFCFF5E0FB1508F4A6CEEFCF8F2D8F71C9
:104AA000D110BFCF0E94E4119ECE80E0DD2009F43A
:104AB0009FCF9F2D9F7181E001C0880F9A95EAF7E3
:104AC00097CFDD2099F02F2D2F71F22E822F0E948B
:104AD000E41180910B0682FD07C038E0F39EC0010F
:104AE0001124836080938E038F2DDCCF81E00E94A0
:104AF000C81181E08B1508F076CE82E00E94C811C3
:104B000072CEBB2059F0893309F0E7CE9FEFE7EE74
:104B1000F3E09150E040F040E1F7DDCE8F2D8F7152
:104B200080CFF0E1EF16FFE5FF0609F4E7CB21E1C6
:104B3000E2162FE5F20609F4EBCB93EFE9169CE5BC
:104B4000F90609F44FCC08F0E5CBF8EDEF16FCE5DB
:104B5000FF0609F443CC29EDE2162CE5F20609F430
:104B60004DCC37EDE3163CE5F30609F0E4CB26E245
:104B700041EE61EEC8010E94A913C3CA30E1E316F9
:104B80003FE5F30609F4C0CB91E1E9169FE5F9068C
:104B9000A1F682E0BACB85E0DE01119601900D927C
:104BA0008A95E1F7F801228189819A81211183CACE
:104BB0000E943C11F82E87CAF6E1EF16FCE5FF06CD
:104BC000E1F580912E0369E2811165E38EE093E0C7
:104BD0000E948E0531CC82722AECE2162CE5F20698
:104BE00009F451CD08F08AC095ECE9169CE5F90668
:104BF00009F435CD08F069C0F3ECEF16FCE5FF06CB
:104C000009F421CD08F026CD32ECE3163CE5F3069D
:104C100009F40BCD2AE5E2162DE5F20609F46FCD75
:104C200008F048CDE1148CE5F80609F458CD9EED66
:104C3000E9169CE5F90609F45FCDF8018281E08070
:104C4000F180882309F45FCDC7010E94EA14D82EB1
:104C5000682FC7010E946411B7018D2D0E94DD14D9
:104C60000E94580F7C01882EF801D280B580B29442
:104C70003FE0B32280918E038770C1F0AD2CDD2020
:104C8000B1F08F2D807F803421F080E28E0D88304E
:104C900068F080910B0682FD09C082E00E94C81175
:104CA00080918E038770AA24A3948111A12C9F2C3C
:104CB00092942FE09222FBE0F91508F494CDE92DAF
:104CC000F0E0EA5CFD4C0C94BC3097ECE9169CE5F6
:104CD000F90609F4CECC08F4C7CCF8ECEF16FCE5E5
:104CE000FF0609F4CBCC4FE656E06CE776E029EC02
:104CF000E2162CE5F20609F4AACC8CCF3FECE316C1
:104D00003CE5F30609F4D3CCB8F4ECECEE16ECE594
:104D1000FE0609F4C2CC08F4BBCC2DECE2162CE55F
:104D2000F20609F4BFCC61E085E03EECE3163CE519
:104D3000F30609F4B9CC6ECF86EDE8168CE5F806DB
:104D400048F461E082E191EDE9169CE5F90608F48A
:104D5000ABCCD7C9EDE5EE16FE0609F4D2C95ACFA1
:104D60001F93CF93DF9380915B03807FA9F48091A1
:104D70005803882389F080918D03D0915C03609162
:104D8000560370915703A0915903B0915A03C62F4F
:104D9000C72316E0D81304C0DF91CF911F91089567
:104DA00090E0109711F0CF3F19F401968770F2CF81
:104DB000189F9001199F300D1124F901E35AFC4FFF
:104DC00041814713F2CF40814613EFCF4281411119
:104DD000ECCF438154814A1B5B0B483C510528F7BB
:104DE00080915B038F70806180935B03F901EE59C2
:104DF000FC4F80818F708061808386E593E00E9404
:104E00002220DF91CF911F910C943211AF92BF926B
:104E1000CF92DF92EF92FF920F931F93CF93DF9386
:104E2000CDB7DEB761970FB6F894DEBF0FBECDBF2A
:104E30008C0185E0F801DE011D9601900D928A95A6
:104E4000E1F7F801E28086E5A82E83E0B82E6091B4
:104E5000590370915A036115710509F432C190919B
:104E6000560340915703892F84238F3F09F429C1AA
:104E700020813181C380D480F0905803F601E61B75
:104E8000F70BFF2009F4E8C080915B03582F507F97
:104E9000E83CF10508F0ABC0511177C0FE2C43137C
:104EA00021C092131FC0E1101DC08F7080618093DC
:104EB0005B03C5010E94222080915B03F80185837A
:104EC0008F2D61960FB6F894DEBF0FBECDBFDF9178
:104ED000CF911F910F91FF90EF90DF90CF90BF90F7
:104EE000AF900895CD2829F0822F83238F3F09F0BA
:104EF00003C180E0F82FF170DF2E80FF3CC080916D
:104F00008D0340915C0356E0841315C02D873E87C6
:104F10008D859E850E941915292F22952F7022308C
:104F2000F0F0243018F59F70F1F0F8019581907F32
:104F3000D1F4D12C1EC090E0589FF001599FF00D84
:104F40001124E35AFC4F6181361306C06081261399
:104F500003C06281E6120FC001968770D5CF9F70A3
:104F600011F0882331F3805E883018F3C8010E9465
:104F70002220FD2CA5CFEE2009F4A2CF80915B0367
:104F8000816080935B03F12C9BCF431306C0921387
:104F900004C0F801EE2009F479C0C8010E9425156B
:104FA000882309F1EE20F9F080915B03803270F0E4
:104FB000209156033091570338872F831986DB865B
:104FC000CA868C87CE0107960E94222086E0F801CF
:104FD000A6E5B3E001900D928A95E1F70E94B02614
:104FE000FF24F3946DCFC8010E942220F9CF511104
:104FF0000AC086E593E00E94222086E0F501119226
:105000008A95E9F7C0CF43130FC092130DC0E1108A
:105010000BC0F8018583C8010E94222086E0F501BB
:1050200011928A95E9F74CCFC8010E942515882373
:10503000D1F2EE20C1F280915B03803238F22091F0
:105040005603309157033A8329831B82DD82CC8239
:105050008E83CE010196B8CFE83CF105F8F6FE2C20
:10506000EE2009F243131FC092131DC080915B0311
:1050700080FD10C0982F907F69F0F8018583903FE4
:1050800031F0982F907F905F8F70892B8583C801B6
:105090000E94222086E0F801A6E5B3E001900D927F
:1050A0008A95E1F70DCFC8010E94251581118ECF99
:1050B00080915B03816080935B03C8010E94222082
:1050C000FFCEEE2009F48FCFC8010E942515F82EDF
:1050D000882309F488CF86E0F801A6E5B3E00190C3
:1050E0000D928A95E1F780915603909157030E94A3
:1050F00019150E94B026E4CE81E08E25FBCE1F93C9
:10510000CF93DF93CDB7DEB767970FB6F894DEBFC6
:105110000FBECDBF4B8B5C8B6D8B7E8B8F8B6111EC
:10512000109290031A8A198A85E0FE017396DE01B7
:105130001D9601900D928A95E1F786E0FE013D965D
:10514000DE01179601900D928A95E1F7CE01079640
:105150000E940627882389F016E080918D039091A4
:105160005C03891349C067960FB6F894DEBF0FBE83
:10517000CDBFDF91CF911F91089586E0FE01379654
:10518000DE01119601900D928A95E1F78A859B8543
:10519000892B11F38F81988589238F3FE9F2209124
:1051A0005C0330E0C90101968770992740918D0317
:1051B0004817190671F40E94FE1B10925C031092AE
:1051C0008D0386E0E6E5F3E0DF011D928A95E9F7BD
:1051D000C3CF96E0929FD001939FB00D1124A35AA4
:1051E000BC4FFE01319601900D929A95E1F78093A4
:1051F0005C030E943211B0CF819FC0011124835AF9
:105200009C4F0E940627882309F4ADCF80918D031F
:1052100090E001968770992780938D039ECF1F920F
:105220000F920FB60F9211242F933F934F935F93DA
:105230006F937F938F939F93AF93BF93CF93DF939E
:10524000EF93FF93D091E900DF708091EC00C82FBD
:10525000C17080FDC0E81092E9008091F000877F66
:105260008093F00078940E94131C1092E9008091C2
:10527000F00088608093F000CD2BCF70C093E900E0
:10528000FF91EF91DF91CF91BF91AF919F918F915E
:105290007F916F915F914F913F912F910F900FBE32
:1052A0000F901F9018951F920F920FB60F92112416
:1052B0002F933F934F935F936F937F938F939F931E
:1052C000AF93BF93EF93FF938091E10082FF09C0FA
:1052D0008091E20082FF05C08091E1008B7F809386
:1052E000E1008091DA0080FF24C08091D80080FF27
:1052F00020C08091DA008E7F8093DA008091D900FF
:1053000080FF9DC080E189BD82E189BD09B400FEB6
:10531000FDCF81E08093340680910F06811109C092
:105320000E94D9030E94A4048091E20084608093CB
:10533000E2008091E10080FF17C08091E20080FFD1
:1053400013C08091E2008E7F8093E2008091E200A2
:1053500080618093E2008091D80080628093D800C1
:1053600019BC85E0809334068091E10084FF2BC056
:105370008091E20084FF27C080E189BD82E189BD80
:1053800089B5982F917080FFFBCF8091D8008F7DD9
:105390008093D8008091E1008F7E8093E10080911E
:1053A000E2008F7E8093E2008091E2008160809332
:1053B000E20080913506882309F447C084E0809399
:1053C0003406809134068091E10083FF27C08091EC
:1053D000E20083FF23C08091E100877F8093E1009A
:1053E00082E080933406109235068091E1008E7F32
:1053F0008093E1008091E2008E7F8093E2008091B3
:10540000E20080618093E20042E060E080E00E9480
:1054100072048091F00088608093F000FF91EF911A
:10542000BF91AF919F918F917F916F915F914F91BC
:105430003F912F910F900FBE0F901F90189519BCA0
:105440001092340610920F0674CF8091E30087FD0E
:1054500093E090933406B5CF78941F921FB61F92B5
:1054600011248F939F93AF93BF93809106069091E1
:105470000706A0910806B09109060196A11DB11D6D
:105480008093060690930706A0930806B09309063A
:10549000BF91AF919F918F911F901FBE1F90189544
:1054A0001F921FB61F9211248F939F93AF93BF93A8
:1054B00080910506811113C0809106069091070620
:1054C000A0910806B09109064196A11DB11D8093D7
:1054D000060690930706A0930806B0930906BF91AD
:1054E000AF919F918F911F901FBE1F901895CDB7C0
:1054F000DEB7AA970FB6F894DEBF0FBECDBF84B754
:10550000877F84BF0FB6F894A8958091600088616A
:1055100080936000109260000FBE80E890E00FB6AC
:10552000F89480936100909361000FBE85B7806806
:1055300085BF85B7806885BF8CEF9EE090930D0393
:1055400080930C030E94D9030E94A4048091E2007E
:1055500084608093E2007894809134068823A1F0DF
:105560001091E9001F709091EC00892F817090FDDF
:1055700080E8182B1092E9008091E80083FD0E94DA
:10558000131C1F701093E90082E084BD93E095BD69
:105590009AEF97BD80936E000E944C15811102C056
:1055A0000E948B140DE411E066E5E62E61E0F62E14
:1055B000D8018D918D018F3F11F00E94FE0EE016F3
:1055C000F106B1F706E511E051E6E52E51E0F52EC2
:1055D000F80181918F018F3F11F00E94FE0EE016BD
:1055E000F106B1F782E1E0ECF3E0DF01282F1D9234
:1055F0002A95E9F7E7E9F3E0DF011D928A95E9F7DB
:105600000E94AD1F811102C00E94B81F82E090E08D
:105610000E944B318093AD030E94651590930B0659
:1056200080930A060E94DC1EBFEFE6E7F1E0B1506E
:10563000E040F040E1F700C000000E94DC1E8091D5
:10564000C00385FF08C06FEF7FEF90E080E00E940D
:1056500087310E943F1383E090E00E944B310E940B
:10566000EF11109248068FEF9FEF909362068093A0
:105670006106909364068093630690936606809318
:105680006506909368068093670690936A068093F8
:10569000690690936C0680936B0690936E068093D8
:1056A0006D069093700680936F061092DF039093BF
:1056B000F9038093F8039093FB038093FA0390938C
:1056C000FD038093FC039093FF038093FE0390936C
:1056D0000104809300049093030480930204909348
:1056E00005048093040490930704809306040E94A9
:1056F000AD1F811104C00E94B81F0E94EB1546E047
:1057000050E06CE170E082E496E00E943B31109240
:10571000DE04809142068C7F11F40E94EB153F98C5
:10572000479A3E98469A86B190E0880F892F881F45
:10573000990B36992FC120E0822B8093AB0384E034
:1057400091E0909302068093010628E1422E512CAD
:1057500030E1732E40E1342E80913406853049F4D7
:1057600080913406853009F417C10E94FE1B0E9407
:1057700019060E94DC1E81110E94760590ECA92E6C
:1057800093E0B92EEEEAF3E0D501F12CE12C0E2DD9
:10579000CD90DD90219131912C153D0509F4C9C2C0
:1057A0002C253D2510E088248394912CA9014821C3
:1057B0005921452B09F4B7C219A30AA3C820D9203F
:1057C00081E0C114D10409F480E08BA30E9482051A
:1057D0008160782F9DA38CA349A15AA16BA18DA1B3
:1057E0000E947F28F701EE0FFF1FE255FC4F8081DA
:1057F00091818826992691828082CD2871F08BE054
:105800008E9DF0018F9DF00D1124E857FE4FE10FA2
:10581000F11D80818F3F09F0FAC0212CC22CD12CC0
:105820008091DF038C0D9D2D911D09976CF188E00F
:1058300090E04C018C189D08B60160527C4FA40189
:1058400080EE93E00E943231B60168517C4FA40192
:1058500088EE93E00E943231A401440F551FB60137
:10586000660F771F68507C4F88EF93E00E943231BB
:10587000B60160517C4FA40180EF93E00E94323169
:1058800088E082198093DF038091DF0390E0A62DEA
:10589000B0E09D01220F331F25513E4FAA0FBB1FC1
:1058A000BD0164517E4F41E0480F921508F4B3C02A
:1058B0008093DF03809142068C7F883709F0EEC029
:1058C0008FEF800FDD24D394D00E9FEF910FA1E0D6
:1058D000A10F911780F43BE03E9DF0013F9DF00D3C
:1058E0001124E558FB4FE90FF11D3081272D320FB0
:1058F00008F43FEF3083412F50E03BE03E9DB00184
:105900003F9D700D112465587B4FFB01E40FF51F7F
:105910003081B0E22B2F320F08F43FEF3083AB30F1
:1059200009F4FEC3FB01EA0FF11D3081672D360F2C
:1059300008F43FEF308379E0D71282C0911770F4FA
:10594000BBE08B9FF0011124E558FB4FE90FF11DDF
:1059500020813DE0230F08F42FEF2083EBE08E9FA2
:10596000C001112485589B4FFC01E40FF51F2081D5
:10597000372D230F08F42FEF2083AB3009F48EC0AE
:10598000A80FB92FB11D2C913DE0230F08F42FEF84
:105990002C9384C022E0D0CE80913406843021F153
:1059A0000E94FE151092050620E40FB6F894A89503
:1059B000409260000FBE2093600083B7817F8460B7
:1059C00083BF83B7816083BF7894889583B78E7FC8
:1059D00083BF0FB6F894A89580916000886180938A
:1059E0006000109260000FBE80913306882309F496
:1059F000B7CE0E94DC1EE0ECF3E081919191892BFF
:105A000009F060C333E0E23DF307B9F7A9CE682E91
:105A10002224239403CF90E0FC01E152FC4FD901F2
:105A20005C915183DB015C915187618A880F991FDA
:105A3000FC01E152FC4F128E118E91E0842F33CF86
:105A4000911770F4BBE0DB9EF0011124E558FB4F89
:105A5000E90FF11D30816DE0360F08F43FEF308320
:105A6000EBE0DE9E9001112425583B4FF901E40F35
:105A7000F51F6081772D670F08F46FEF6083AB30FF
:105A800009F44AC3F901EA0FF11D20813DE0230F1B
:105A900008F42FEF2083801708F450CF0E94FE15E2
:105AA000E091AB03EE0FEE0FE093AB0386B190E015
:105AB000880F892F881F990B369954C120E0822BBB
:105AC000E82BE093AB03EF70F0E0EF59FE4F8081DD
:105AD0009091AA03890F8093AA0320E084305CF0A0
