:100000000C94F2050C9439060C9439060C943906BC
:100010000C9439060C9439060C9439060C94390664
:100020000C9439060C9439060C9415250C94D124A3
:100030000C9468260C9439060C9439060C943906F5
:100040000C9439060C9439060C9439060C94390634
:100050000C9439060C9444260C9439060C943906F9
:100060000C9439060C9439060C9439060C94390614
:100070000C9439060C9439060C9439060C94390604
:100080000C9439060C9439060C9439060C943906F4
:100090000C9439060C9439060C9439060C943906E4
:1000A0000C9439060C9439060C9439060631FF0974
:1000B00074A1010975150026FF00952075088102BD
:1000C0000976150026FF00952075089102C00501EC
:1000D0000902A10185020901A100050919012908E8
:1000E00015002501950875018102050109300931C6
:1000F0001581257F95027508810609381581257FB0
:10010000950175088106050C0A38021581257F9531
:100110000175088106C0C005010980A10185031988
:10012000012AB700150126B700950175108100C09E
:10013000050C0901A101850419012AA00215012657
:10014000A002950175108100C00660FF0961A10140
:100150000962150026FF00952075088102096315C4
:100160000026FF00952075089102C005010906A12F
:1001700001050719E029E71500250195087501819A
:10018000029501750881010507190029FF15002650
:10019000FF009506750881000508190129059505D8
:1001A00075019102950175039101C00000000000E6
:1001B000000000000000000000000000000000003F
:1001C0000000000000000000000000000000007EB1
:1001D0000F00D4FFFFFFC700000078000000000000
:1001E0000000002A2B280000000000000000000092
:1001F00000000000000029000000002C1E34202117
:100200002224342627252E362D3738271E1F20215D
:1002100022232425263333362E37381F04050607BC
:1002200008090A0B0C0D0E0F1011121314151617D6
:1002300018191A1B1C1D2F3130232D3504050607F4
:1002400008090A0B0C0D0E0F1011121314151617B6
:1002500018191A1B1C1D2F3130354C7267626C69DE
:100260006768742064697361626C65205B45455002
:10027000524F4D5D3A207267626C696768745F63C4
:100280006F6E6669672E656E61626C65203D202524
:10029000750A007267626C6967687420656E6162D6
:1002A0006C65205B454550524F4D5D3A2072676248
:1002B0006C696768745F636F6E6669672E656E61EF
:1002C000626C65203D2025750A007267626C696763
:1002D000687420746F67676C65205B454550524FAA
:1002E0004D5D3A207267626C696768745F636F6E18
:1002F0006669672E656E61626C65203D2025750A12
:100300000044454255473A2064697361626C6564F4
:100310002E0A0044454255473A20656E61626C657D
:10032000642E0A004F6E6573686F743A20616374BF
:100330006976653A2025640A000A00253032582083
:10034000006B6579626F6172645F7265706F727461
:100350003A20007267626C696768745F636F6E66EB
:1003600069672E7370656564203D2025640A0072FC
:1003700067626C696768745F636F6E6669672E7623
:10038000616C203D2025640A007267626C696768B1
:10039000745F636F6E6669672E736174203D2025FC
:1003A000640A007267626C696768745F636F6E6687
:1003B00069672E687565203D2025640A00726768AC
:1003C0006C696768745F636F6E6669672E6D6F64D2
:1003D00065203D2025640A007267626C6967687455
:1003E0005F636F6E6669672E656E61626C65203D46
:1003F0002025640A007267626C696768745F636FC6
:100400006E66696720454550524F4D3A0A00726743
:10041000626C696768745F696E6974207267626C88
:10042000696768745F636F6E6669672E6D6F646578
:10043000203D20302E205772697465206465666106
:10044000756C742076616C75657320746F204545FA
:1004500050524F4D2E0A007267626C696768745F74
:10046000696E6974206565636F6E6669672069737C
:10047000206E6F7420656E61626C65642E0A007276
:1004800067626C696768745F696E69742073746110
:100490007274210A007267626C696768745F696EC2
:1004A00069742063616C6C65642E0A005B735D0087
:1004B0000A002530313662003A20002530325800DB
:1004C0000A722F63203031323334353637383941B0
:1004D00042434445460A0000047F3F1F64321464CF
:1004E0003214783C1E1E140A050A002530325800CA
:1004F0006B6579626F6172645F7365745F6C65646C
:100500003A20007267626C6967687420646973617D
:10051000626C65205B4E4F454550524F4D5D3A2011
:100520007267626C696768745F636F6E6669672E75
:10053000656E61626C65203D2025750A00726762F8
:100540006C6967687420656E61626C65205B4E4FF4
:10055000454550524F4D5D3A207267626C6967683D
:10056000745F636F6E6669672E656E61626C65208D
:100570003D2025750A007267626C69676874207394
:100580006574207370656564205B4E4F454550521D
:100590004F4D5D3A2025750A00290A002575002F68
:1005A000002575005D2800256400200025640020DA
:1005B0000025640020002564007C002530325800AE
:1005C0006D6F7573656B6579205B62746E7C7820E6
:1005D00079207620685D287265702F61636C293AF6
:1005E000205B000001010101010101010102020281
:1005F00002020202020203030303030303030404CF
:100600000404040404050505050506060606060798
:100610000707070708080808090909090A0A0A0B51
:100620000B0B0C0C0C0D0D0D0E0E0E0F0F0F1010F2
:100630001111111212131314141515161617171879
:100640001819191A1A1B1B1C1D1D1E1E1F202021E4
:100650002222232424252626272829292A2B2C2D2B
:100660002D2E2F30313232333435363738393A3B4C
:100670003C3D3E3F404142434445464748494A4C41
:100680004D4E4F50515354555658595A5B5D5E5F0D
:10069000616264656668696B6C6D6F7072737577A3
:1006A000787A7B7D7E8082838587888A8C8E8F9105
:1006B000939596989A9C9EA0A2A3A5A7A9ABADAF2F
:1006C000B1B3B5B7BABCBEC0C2C4C6C9CBCDCFD119
:1006D000D4D6D8DBDDDFE2E4E7E9EBEEF0F3F5F8C2
:1006E000FAFDFF7267626C696768742074696D65F2
:1006F0007220656E61626C65642E0A007267626CBE
:1007000069676874206D6F6465205B4E4F45455086
:10071000524F4D5D3A2025750A007267626C696719
:100720006874206D6F6465205B454550524F4D5D88
:100730003A2025750A007267626C696768742073D5
:10074000657420687376205B4E4F454550524F4D7F
:100750005D3A2025752C25752C25750A0072676277
:100760006C696768742073657420687376205B45D4
:100770004550524F4D5D3A2025752C25752C257519
:100780000A007267626C69676874207261696E62E0
:100790006F7720736574206873763A2025642C2562
:1007A000642C25642C25750A00FFAA7F55407267CA
:1007B000626C696768742074696D6572206469731E
:1007C00061626C652E0A002223252628292A2C2DF9
:1007D0002F3032333536383A3B3D3E404243454771
:1007E000494A4C4E5051535557595A5C5E606264A9
:1007F0006668696B6D6F71737577797B7D7F8183B7
:100800008587898A8C8E90929496989A9C9E9FA1B7
:10081000A3A5A7A8AAACAEAFB1B3B4B6B8B9BBBCD8
:10082000BEBFC1C2C3C5C6C7C9CACBCCCDCED0D14D
:10083000D2D2D3D4D5D6D7D7D8D9D9DADADBDBDB45
:10084000DCDCDCDCDCDDDDDDDDDCDCDCDCDCDBDBE6
:10085000DBDADAD9D9D8D7D7D6D5D4D3D2D2D1D03A
:10086000CECDCCCBCAC9C7C6C5C3C2C1BFBEBCBB37
:10087000B9B8B6B4B3B1AFAEACAAA8A7A5A3A19FAF
:100880009E9C9A98969492908E8C8A898785838173
:100890007F7D7B79777573716F6D6B696866646254
:1008A000605E5C5A5957555351504E4C4A49474522
:1008B0004342403E3D3B3A3836353332302F2D2CC3
:1008C0002A29282625232229001E001F0020002176
:1008D000002200230024002500260027002D002EE2
:1008E000004C004B002B0014001A000800150017E4
:1008F000001C0018000C00120013002F0030002A0A
:10090000004E00390004001600070009000A000B21
:10091000000D000E000F0033003400280028004AAC
:1009200000E1001D001B0006001900050011001069
:10093000003600370038003100E50052004D00E07D
:1009400000E300E200C25CC35C2C002C002C00E63B
:1009500000E7000151E400500051004F0001003A4F
:10096000003B003C003D003E003F00400041004293
:1009700000430044004500010001000100010001A6
:10098000000100010001000100010001000100015F
:1009900000010001000100010001000100C25CC370
:1009A0005CCF5CD55CCD5CCE5CC95CCA5C010001EF
:1009B000000100CF5CD55C010001000100010001D5
:1009C000000100010001000100010001000100011F
:1009D00000010001000100010001000100C25C00F3
:1009E0005C010001000100010001000100010001A3
:1009F00000010001000100010001000100010001EF
:100A000000010001000100010001000100010001DE
:100A100000010001000100010001000100010001CE
:100A200000010001000100010001000100010001BE
:100A300000010001000100010001000100010001AE
:100A4000000100010001000100010001000100019E
:100A5000000100010001000100010001000100018E
:100A6000000100010001000100010001000100017E
:100A7000000100010001000100010001000100016E
:100A8000000100010001000100010001000100015E
:100A9000000100010001000100010001000100014E
:100AA000000100010001000100010001000100013E
:100AB000000100010001000100010001000100012E
:100AC000000100010001000100010001000100011E
:100AD000000100010001000100010001000100010E
:100AE00000010001000100010001000100010001FE
:100AF00000010001000100010001000100010001EE
:100B000000010001000100010001000100010001DD
:100B10000001000100010001000100010001005B73
:100B2000435D005B445D005B535D005B575D005BB4
:100B3000525D0009027B00040100A0FA09040000D4
:100B400001030101000921110100012240000705F4
:100B5000810308000A0904010002030000000921C2
:100B60001101000122220007058203200001070570
:100B70000303200001090402000103000000092111
:100B800011010001227B000705840320000A0904EB
:100B900003000203000000092111010001222200CC
:100BA0000705850320000107050503200001120148
:100BB00000020000000864697500010001020001E4
:100BC0000C03490064006F0062006F000000100316
:100BD000470065006E006500720069006300000058
:100BE0000403090411241FBECFEFDAE0DEBFCDBF3E
:100BF00004B603FE27C080916F0390917003A0910B
:100C00007103B09172038730904BA740B04BD1F481
:100C100010926F031092700310927103109272037E
:100C200014BE84B7877F84BF0FB6F894A8958091CF
:100C30006000886180936000109260000FBEE0E069
:100C4000F8E3099511E0A0E0B1E0E6ECFCE502C0B4
:100C500005900D92AA39B107D9F723E0AAE9B1E0CE
:100C600001C01D92AF36B207E1F70E948F260C94A7
:100C70002A2E0C940000FF93EF93E0919A01F091DB
:100C80009B01309709F00995EF91FF910895FC01C0
:100C90008591803011F0EFDFFBCF0895FF27E0E270
:100CA00030E247FF0CC0419597FF09C0EDE2609527
:100CB000709580959095611D711D811D911D27FF77
:100CC00002C0219530E350E2AA27660F771F881FE4
:100CD000991FAA1FA41710F0A41B63955A95A9F792
:100CE000AA3008F0A95FA05DAF93F3956115710577
:100CF0008105910541F7ED3211F4EF93F395F21769
:100D000018F43F93F395FBCF8F91B5DFFA95E1F798
:100D10000895E991F9918591803021F0853219F09B
:100D2000AADFF9CF089520E0E89455915532C1F338
:100D3000503311F4689455915A3348F4505390F35A
:100D4000220F022E220F220F200D250FF4CF0EF4BA
:100D5000219589919991533619F3533729F15335D8
:100D600059F1BC0188279927E8945C3621F48991D0
:100D7000999168945591543639F446EF7EF077FF97
:100D80000DC08FEF9FEF0AC055374AE039F0583554
:100D900040E121F0523642E009F00895FF93EF93CD
:100DA0007DDFEF91FF91B7CFFF93EF93FC0181912E
:100DB0008030B9F360DFFBCFFF93EF9368DFF1CFB3
:100DC000DF93CF93CDB7DEB72596A3DFCF91DF9129
:100DD0000895E8EDF0E080818E7F80831092E2003C
:100DE0001092DA001092E100A0EEB0E08C918160E8
:100DF0008C9380818F77808319BCA7EDB0E08C91B4
:100E00008E7F8C9380818F7E80831092540308950F
:100E10002091E4003091E50095E6A9012091EC00D5
:100E2000822F817020FF06C08091E80080FF06C0FD
:100E300080E008952091E80022FD1AC080916103AE
:100E4000882389F0853089F08091EB0085FD0FC003
:100E50002091E4003091E50042175307F9F29150D8
:100E6000E1F684E0089582E0089583E0089581E04A
:100E70000895EF92FF920F931F93CF937C018B0104
:100E80000E940807C82F811117C08091E80085FDD6
:100E90000BC08091E8008E778093E8000E940807DD
:100EA000882399F3C82F08C0F70181917F018093AF
:100EB000F1000150110949F78C2FCF911F910F912B
:100EC000FF90EF9008958091630387FF13C0809196
:100ED000E80082FF06C08091E8008B778093E800ED
:100EE00004C0809161038111F2CF08958091610364
:100EF0008823D9F38091E80080FFF8CF8091E80043
:100F00008E77ECCF982F9093E900242F762F50E026
:100F1000891731F07091EC002091ED005091F000B4
:100F200021FD07C09F5F973071F78093E90081E052
:100F300008953091EB003E7F3093EB003091ED004F
:100F40003D7F3093ED003091EB0031603093EB004A
:100F50007093EC002093ED005093F0002091EE0090
:100F600027FDE0CF80E00895CF92DF92EF92FF92CD
:100F70000F931F93CF93DF93C8EDD0E088818F7ECE
:100F80008883E7EDF0E080818160808384E082BF28
:100F900081E08093540388818E7F888302EE10E085
:100FA000F80110821092DA0081EEC82ED12CF601E1
:100FB000108288818F778883888180688883888180
:100FC0008F7D888319BC1092610310926203109286
:100FD000600310925F0390EEE92EF12CF7018081FF
:100FE0008B7F808388818160888342E060E080E03D
:100FF0000E948207F60180818E7F8083F8018081C4
:1010000081608083808188608083F70180818E7F0A
:101010008083888180618883DF91CF911F910F91B8
:10102000FF90EF90DF90CF900895FC0180916903CD
:1010300090916A0386179707A0F06115710529F44E
:101040009091E8009E779093E80090E0611571051B
:1010500051F4911108C08091E80082FF34C080E013
:101060000895BC01F2CF809161038823C1F18530DE
:10107000C1F18091E80083FD30C08091E80082FDDD
:10108000EACF8091E80080FFE1CF8091F3002091CA
:10109000F200382F6115710519F02830310558F02C
:1010A00091E02830310509F090E02091E8002E779A
:1010B0002093E800CBCF81918093F10061507109BA
:1010C0002F5F3F4FE7CF80916103882341F0853048
:1010D00041F08091E80083FFBECF81E0089582E077
:1010E000089583E0089508958091560308959C0122
:1010F0004FB7F89480914A0390914B03A0914C0311
:10110000B0914D034FBF821B930B08952FB7F894F6
:1011100080914A0390914B03A0914C03B0914D03F1
:101120002FBF0895209147033091480328173907AE
:1011300071F09093480380934703E0914503F09149
:101140004603309721F00084F185E02D099408953D
:1011500020914303309144032817390771F090938D
:10116000440380934303E0914503F0914603309795
:1011700021F00680F781E02D09940895E091450360
:10118000F0914603309721F00190F081E02D099411
:1011900080E00895FA01811101C0FB0109940895CE
:1011A00080913E03982F9E7F29F481708260809306
:1011B0003E0308958A34E8F381708864F8CFAF92D3
:1011C000BF92DF92EF92FF920F931F93CF93DF9323
:1011D000082F162FE901E42FF0E0ED51FA4F6111CD
:1011E00010C0E4915E2F4E2F4983E8835A83DF912C
:1011F000CF911F910F91FF90EF90DF90BF90AF9034
:101200000895E62EF12C4491D42EE42FF0E026E050
:10121000829FC00111242FEF30E0B9010E94402DC0
:10122000802F90E0880F991F55E5569FD001579F5A
:10123000B00D11248A1B9B0B982F990F890F590110
:10124000AE18BF08AE9ED001AF9EB00DBE9EB00DD1
:1012500011245B2F189F80011124012F11275901A0
:10126000A01AB10AAE9E8001AF9E100DBE9E100D59
:1012700011245901A81AB108AE9CC001AF9C900D71
:10128000BE9C900D1124892F9927281B390B2E9F66
:10129000C0012F9F900D3E9F900D1124E92F6230C9
:1012A0007105A1F050F46115710509F49DCF61300D
:1012B000710581F0EB2F512F97CF6430710569F0E4
:1012C00080F06630710509F48FCFF4CFE42F4B2FF7
:1012D000592F8ACFE42F412F87CFEB2F542F492F3F
:1012E00083CF4B2F5D2DE12F7FCF40912F02803F89
:1012F00059F48091300287FF0DC0109230024111E5
:101300000BC01092280208C0813F81F48091300206
:1013100018169CF3442381F080913102909132029F
:10132000892B09F05AC0109226020895823F49F491
:1013300047FFF0CF10922F02809130028111ECCF45
:10134000E0CF833F19F41416ACF3E4CF909131024F
:10135000893F29F41916F4F610923102DBCF8A3F47
:1013600019F497FFD7CFF8CF909132028B3F29F431
:1013700097FFD0CF10923202CDCF8C3F19F41916BF
:10138000CCF3C8CF9CE0980F953090F4845F990B14
:1013900021E030E0B90102C0660F771F8A95E2F7BD
:1013A000CB01809590912E02892380932E02B2CF9B
:1013B0008D3F31F4809127028E7F80932702AACF40
:1013C0008E3F21F4809127028D7FF7CF8F3F09F068
:1013D000A1CF809127028B7FF0CF089580912702C3
:1013E00080FD16C081FD16C082FD16C080912602C8
:1013F0008823A1F0883280F428E0829FC001112464
:1014000068E270E00E94542D862F672B39F0089512
:1014100082E0089584E0089588E0089581E00895C9
:101420008091270280FD14C081FD14C082FD16C08A
:1014300080912802882381F0843180F422E3829F06
:10144000C001112464E170E00E94542D862F08959C
:101450008CE0089589E1089585E0089582E3089578
:10146000803F31F40E94100A8195809330020895E4
:10147000813F19F40E94100AF8CF823F31F40E9494
:10148000100A819580932F020895833F19F40E94DA
:10149000100AF8CF893F29F40E94EE0980933102A7
:1014A00008958A3F21F40E94EE098195F7CF8B3F82
:1014B00031F40E94EE0981958093320208958C3FA9
:1014C00019F40E94EE09F8CF9CE0980F953070F463
:1014D000845F990B21E030E001C0220F8A95EAF782
:1014E00080912E02822B80932E0208958D3F31F43D
:1014F0008091270281608093270208958E3F21F416
:10150000809127028260F7CF8F3FB9F78091270241
:101510008460F1CFF894E82FE295EF70F0E031A10C
:10152000282F2F7081E090E001C0880F2A95EAF7FC
:10153000982F9095932391A392A1892B82A37894BD
:1015400008959091040292FF06C0282F2871283038
:10155000F9F4877F846093FF06C0282F2871283113
:10156000F1F4877E84612091050220FF06C0382FA8
:1015700038713830D9F4877F816021FF06C0282F69
:1015800028712831D1F4877E816194FD877E08958A
:10159000282F24712430F9F68B7F8860DCCF282F28
:1015A0002471243101F78B7E8861DDCF382F3171B2
:1015B000313019F78E7F8860E0CF282F21712131DB
:1015C00021F78E7E8861E1CFCF93DF93EC018238E3
:1015D0009105A9F1D8F58133910509F496C048F534
:1015E0008932910509F48AC08A9709F495C0C1151A
:1015F00021E5D20708F0BCC0C11530E5D30708F0DB
:1016000014C1C83ED10508F09CC0C03ED10560F5AC
:10161000C83AD10508F087C0C53AD10508F0FDC029
:10162000C130D10509F12097F9F0C430D105E0F4BB
:1016300040C08533910509F45AC0C997C1F680911D
:101640000402837089F0C0EED0E00EC0833E9105A5
:1016500099F170F4803E910501F1823E910539F6D1
:101660008091040282FD21C0CE01DF91CF910895C7
:10167000863E910561F1873E910571F1843E9105A9
:1016800009F0B5CF8091050281FFEECF8091040271
:10169000C7EED0E084FD0DC0E7CF8091040280FD4D
:1016A00012C19091050290FFDFCFC3EED0E084FF1E
:1016B000DBCFD0E0C0E0D8CF8091040282FD06C12C
:1016C0009091050290FDBFCF84FFCECFF2CF8091E5
:1016D000040283FDDDCFC8CF8091040283FDF9C0F1
:1016E0009091050291FFF0CFC4EED0E0BDCF809184
:1016F000040285FFB9CFC9E2D0E0B6CF80910402E1
:1017000085FFB2CFC5E3D0E0AFCF8091040286FF62
:10171000ABCFCAE2D0E0A8CF8091040286FFA4CF6D
:10172000C1E3D0E0A1CFCF3BD10518F6C85AD0E035
:10173000CC0FDD1FC25EDE4F0990D881C02DD4646E
:1017400093CFC11540E2D40758F4C11581E0D80702
:1017500008F08ACFC03FD10508F4ABCFD06584CF65
:10176000C11590E4D90708F4A4CFDF70D06A7CCF0C
:10177000C11525E5D20700F5C11534E5D30708F0FA
:101780008AC0C11543E5D40708F071C0C11582E5D0
:10179000D80708F467C0CE018370992721E030E0B4
:1017A00002C0220F331F8A95E2F7C695C69580E2E4
:1017B000C89FE001112452C0C11599E5D907A8F4CA
:1017C000C11528E5D20708F06BC0C11536E5D3076F
:1017D00008F06FCF8C2F0E94A10AC82FD0E0DC2F19
:1017E000CC27CC27DF71D0623FCFC1154AE5D407A3
:1017F00008F45BC0CE0190568115904208F059CF95
:101800008D2F8F710E94A10A90E0982F882788273A
:101810009F719C012C2BE901E6CFC55AD0E0C55E33
:10182000DE4FC881D0E0D0641FCFCE01E4E09695B2
:101830008795EA95E1F783702C2F269526952370DE
:1018400040E2249F90011124382B8C2F8370C1E03B
:10185000D0E002C0CC0FDD1F8A95E2F7C22BD32B5C
:10186000DC6802CFDC2FCC27C16FD06AFDCECE0161
:101870008370992721E030E002C0220F331F8A9540
:10188000E2F7C695C69590E2C99FE0011124C22BEC
:10189000D32BDA68E9CEDC2FCC27C46FD06AE4CE34
:1018A000DC2FCC27C06FD06ADFCE8C2F8F700E94C8
:1018B000A10A34E0D695C7953A95E1F7CF709C2FF1
:1018C000EC01D069D1CEC9E3D0E0CECEC2EED0E0FB
:1018D000CBCEC6EED0E0C8CE8091FF018111109230
:1018E000FF01089580959091FE0198239093FE0149
:1018F0000895EEE9F1E09191891303C0DF0111979A
:101900001C9291E0E43AF907B1F70895AEE9B1E02D
:10191000EFEF90E02D91821751F0EF3F19F4211174
:1019200001C0E92F9F5F9630A9F7EF3F09F40895B2
:101930000E2E000CFF0BE456FE4F8283089580911B
:10194000FA019091C901981301C008958F5F8770C3
:10195000FACF2FE0929F800D1124982F97708695D3
:101960008695869523E0829FF0011124EB55FE4F6A
:1019700050E040E080E0219130E0092E02C0369531
:1019800027950A94E2F721703327042E01C0220F15
:101990000A94EAF7822B4F5F5F4F4330510559F7A6
:1019A00008952FE0929F800D1124982F977041E0A9
:1019B00001C0440F9A95EAF786958695869593E03F
:1019C000899FF0011124EB55FE4F90E080E070E01C
:1019D0005191DF0111979B01082E02C03695279582
:1019E0000A94E2F7217021952527242325272C939B
:1019F00001968330910561F70895829590E09C01EE
:101A0000220F331F220F331F2C7C959587959595B8
:101A100087958373282B30E0C901880F991F8A7A34
:101A2000359527952575822B08959FB7F8941092C8
:101A300052039FBF90916103943009F048C02091F8
:101A4000E9002F703091EC00932F917030FD90E8F9
:101A5000922B25E02093E9002091EB0020FF34C079
:101A60002091EE0027FF30C020915103222321F066
:101A70002091E80025FF28C01092510326E0309104
:101A8000E80035FF14C08093F1008091E80085FDE7
:101A900027C08091E80080FFFCCF8091E8008E771E
:101AA0008093E8009F709093E90080E00895309162
:101AB0006103343049F43091EB0035FD05C021500D
:101AC00041F481E0809351039F709093E9008FEF80
:101AD0000895EFE9FFE03197F1F700C00000CFCFA4
:101AE0008FB7F89421E0209352038FBFDBCF809310
:101AF0004E037093500360934F03809161038430D1
:101B0000F9F48093E9008FEF9091E800815095FD02
:101B100006C095ED9A95F1F700008111F5CF8091FF
:101B2000E80085FF0DC050E040E063E070E08EE427
:101B300093E00E9439078091E8008E778093E80057
:101B40000895BC0184E00C94770DBC0183E00C94F3
:101B5000770D9C0184E08093E9009FEF8091E8007D
:101B6000915085FD06C085ED8A95F1F70000911131
:101B7000F5CF8091E80085FF0CC050E040E066E0C2
:101B800070E0C9010E9439078091E8008E77809348
:101B9000E8000895CF93DF93EC0181E08093E900A2
:101BA0008FEF9091E800815095FD06C095ED9A95D4
:101BB000F1F700008111F5CF8091E80085FF14C096
:101BC00050E040E068E070E0CE010E94390780916B
:101BD000E8008E778093E80088E0FE01A7E5B3E097
:101BE00001900D928A95E1F7DF91CF91089581E000
:101BF0008093E00080E28093D8001092C9008FE1CA
:101C00009EE40197F1F700C0000087E090EBDC0153
:101C100080936F0390937003A0937103B09372034A
:101C200088E19CE00FB6F894A895809360000FBE01
:101C300090936000FFCF80913E0380FD0AC0EFE3E8
:101C4000F2E0118210821282339653E0EE33F507F0
:101C5000C1F7809A31B33E7F21B321604FB7F8942A
:101C60008FE392E0FC015191CF0168E021BB0000BD
:101C700000C057FF31BB550F000000C000C000C0BE
:101C800031BB00C06A9591F7F3E08E339F0751F79F
:101C90004FBF8FE594E00197F1F700C00000089571
:101CA000EF92FF920F931F93CF93DF938C01CFE3BB
:101CB000D2E0F12CE12CF8019481609140038091F5
:101CC0003F03FAE2EF16F104FCF49923F9F09E01C8
:101CD000409141030E94DF082FEFE21AF20A239697
:101CE00085E5E816F10439F70E941B0EF80184819E
:101CF00090E00196817099278483DF91CF911F91A5
:101D00000F91FF90EF900895992309F39E0140E011
:101D1000E1CF8F929F92AF92BF92CF92DF92EF92DC
:101D2000FF920F931F93CF93DF93EC014C81042F0D
:101D300010E09801D8010E949F2D9B01AC010E94E8
:101D4000B52D4B015C01E0E2F0E0E01BF10BA5E5F5
:101D5000B0E0AC019B010E94B52D6B017C019F019D
:101D6000DF010E94972D9B01AC010E94C02D9B01B9
:101D7000AC01280D391D4A1D5B1DC701B6010E942B
:101D8000682DF22E822F90E039E23F15D8F143E022
:101D9000249F9001112435952795122F10959FE3CC
:101DA000C92E92E0D92E00E085E5E82EEF188E2DA1
:101DB00001FD8F2D9601412F609140030E94DF08A5
:101DC0000F5F53E0C50ED11C053589F70E941B0E2D
:101DD0009C8181E0992319F0903219F48FEF809360
:101DE000190180911901890F8C83DF91CF911F9187
:101DF0000F91FF90EF90DF90CF90BF90AF909F90AA
:101E00008F90089525E530E0A901481B590BCA01C0
:101E10009A01220F331F280F391F37FFBCCF2F5FC6
:101E20003F4FB9CF0F931F93CF93DF93CFE3D2E010
:101E3000FE01118210821282339683E0EE33F8079E
:101E4000C1F710E000E080913D02082E000C990BD4
:101E5000081719078CF180911801082E000C990BB6
:101E6000801791074CF19E0140914103609140031E
:101E700080913F030E94DF080F5F1F4F23960535B7
:101E8000110509F70E941B0E8091170190913D02E8
:101E9000980F90933D0220911801280F209318016C
:101EA000121614F494351CF0819580931701DF917C
:101EB000CF911F910F910895198218821A82DCCF59
:101EC000BF92CF92DF92EF92FF920F931F93CF9327
:101ED000DF93FC018281DD24DA9480FD02C0DD24E1
:101EE000D3940FE312E0D0E0C0E025E5B22EF80174
:101EF00011821082128294E0E92EF12CC12C809183
:101F00003C028C0D86350CF43DC06B2D0E94322DA9
:101F1000892F082E000C990B8C179D0791F4809146
:101F200041038E9DA0018F9D500D1124559547951D
:101F30005595479598016091400380913F030E9419
:101F4000DF08CD0CF1E0EF1AF108C9F621960D5F1C
:101F50001F4FC535D10559F60E941B0E80913C02DA
:101F600091E0D91215C0811111C084E580933C0223
:101F7000DF91CF911F910F91FF90EF90DF90CF9065
:101F8000BF90089587FFC5CF8B5AC3CF8150EECF46
:101F900090E00196BE010E94542DE8CFEF92FF928F
:101FA0001F93CF93DF93EC018FE3E82E82E0F82EAE
:101FB00010E08C8197014091410360914003810FB3
:101FC0000E94DF081D5F83E0E80EF11C1F3F89F7C8
:101FD0000E941B0E9A818C8190FF08C08F5F8C83BA
:101FE000DF91CF911F91FF90EF9008958150F7CF2F
:101FF00090913E0390FF0CC0EFE3F2E08183608399
:102000004283339693E0EE33F907C1F70C941B0E2D
:1020100008950F931F93CF93DF9300D00F92CDB706
:10202000DEB78C0180913E0281110AC09E012F5FB4
:102030003F4F4FEF6FEF0E94DF088A8180933E028F
:10204000F8016481613069F080913E0240E06623CE
:1020500061F040E0623011F440913E0280E060E0C7
:1020600004C060913E0240E080E00E94F80FF80159
:10207000848190E0019663E070E00E94542D848397
:102080000F900F900F90DF91CF911F910F910895B6
:10209000CF93DF9300D00F92CDB7DEB790913E0380
:1020A00090FF0AC09E012F5F3F4F0E94DF084B81C7
:1020B00069818A810E94F80F0F900F900F90DF9135
:1020C000CF910895CF93DF93EC01EEE3F3E04381EA
:1020D00062818C810E9448108C818F5F8C83DF919C
:1020E000CF910895CF93DF93EC01EC81F0E0E953B9
:1020F000F84F4491EEE3F3E0628181810E94481041
:102100008C818F5F8C83DF91CF910895CF93DF9384
:10211000CFE7D2E060E0CE010E94DC2D2196C11510
:1021200084E0D807B9F7DF91CF9108956F927F923D
:102130008F929F92AF92BF92CF92DF92EF92FF92D7
:102140000F931F93CF93DF9387ECC82E88E0D82E90
:102150009BEDE92EF12CE701C659D10936011BC0D0
:10216000F50185909490692DC8010E94DC2D682DA1
:10217000C80101960E94DC2D82E0A80EB11C0E5F02
:102180001F4FC017D10761F78EE1680E711C6E9664
:10219000CE15DF0529F08E010E5111095301E0CF54
:1021A0007E0186E9E80EF11C86E9C80ED11C83E3A6
:1021B000E81683E0F80679F6DF91CF911F910F9131
:1021C000FF90EF90DF90CF90BF90AF909F908F9057
:1021D0007F906F900895CF93C82F6FEF811162E2C7
:1021E00083E290E00E94DC2D6FEFC11161E084E298
:1021F00090E00E94DC2D6FEFC11167E185E290E075
:10220000CF910C94DC2D80E00E94EB1060E086E220
:1022100090E00E94DC2D0E9496100E94861081E0C2
:102220000C94EB100F931F93CF93DF93C42FD0E048
:10223000CC0FDD1F2EE1629FC00DD11D112436E9A8
:10224000839FC00DD11D1124CE0187960E94C82DF9
:10225000082F10E0102F0027CE0188960E94C82D6D
:102260009801282BC901DF91CF911F910F910895FB
:10227000462F843038F4753028F46F3018F4672F07
:102280000C94121190E080E00895CF92DF92FF92BB
:102290000F931F93CF93DF936C0100916E03809196
:1022A0000002082BC7E0D0E010E0FC2EC8010C2E85
:1022B00002C0959587950A94E2F780FD0CC021979E
:1022C000A0F7F12C8F2DDF91CF911F910F91FF90EF
:1022D000DF90CF900895B6018C2F0E9438110E9494
:1022E000E40A019761F3EECFCF93DF93EC010E94F4
:1022F0004511BE010E943811DF91CF910C94E40A80
:10230000FC01808191810E947411292F2F70929578
:102310009F7092509E3078F4E92FF0E0E45DF14D2B
:102320000C948A2D803F19F020F4883E20F481E03F
:102330000895843FE1F380E00895883EC0F3813F33
:10234000D1F7F5CF822F869586958695089583E2FD
:1023500090E00E94C82D823289F484E290E00E94CD
:10236000C82D813059F485E290E00E94C82D91E09B
:10237000873109F090E0892F8170089580E0FCCFCB
:10238000CF9384E090E00E94C82DC82F82E290E0B5
:102390000E94C82D982F8C2FCF91089510923B0248
:1023A0008091390280FF08C08EEA97E09F938F9357
:1023B0000E94E0060F900F9008958091390283FFEC
:1023C0007EC080EC95E00E94470680912E021F920D
:1023D0008F938BEB95E09F938F930E94E00689EBA0
:1023E00095E00E94470680912F02282F082E000CAE
:1023F000330B3F938F9386EB95E09F938F930E94CF
:10240000E00684EB95E00E94470680913002282F79
:10241000082E000C330B3F938F9381EB95E09F9335
:102420008F930E94E0068FEA95E00E944706809114
:102430003102282F082E000C330B3F938F938CEA28
:1024400095E09F938F930E94E0068AEA95E00E94B0
:10245000470680913202282F082E000C330B3F9341
:102460008F9387EA95E09F938F930E94E00684EA1A
:1024700095E00E944706809128021F928F9381EA7F
:1024800095E09F938F930E94E0068FE995E00E946C
:102490004706809127021F928F938CE995E09F93C6
:1024A0008F930E94E00689E995E00E9447068DB768
:1024B0009EB74C960FB6F8949EBF0FBE8DBF0E947C
:1024C00086089C0190912F0280913002982B21F078
:1024D00030932C0220932B02909131028091320292
:1024E000982B21F030932A0220932902E091450392
:1024F000F0914603309749F082E080932D020480EA
:10250000F581E02D8DE292E009940895EF92FF921B
:102510000F931F93CF93DF938091FE019091FD0164
:10252000892B9091FC01892B80939C019091FF0154
:10253000992391F0892B80939C0120E08EE991E012
:10254000FC013191CF0131112F5FF1E0843A9F07F7
:10255000B9F721110E946C0CE0914503F0914603FC
:102560003097C9F10280F381E02D8CE991E0099563
:102570008091390282FF2FC080FF04C081E493E084
:102580000E944706CCE9D1E084EAE82E81E0F82EEB
:102590000BE313E08091390280FF0BC088811F920A
:1025A0008F931F930F930E94E0060F900F900F9050
:1025B0000F902196EC16FD0669F78091390280FF95
:1025C0000AC089E393E0DF91CF911F910F91FF90B3
:1025D000EF900C944706DF91CF911F910F91FF90E0
:1025E000EF90089590E080E00E94A80890E080E0DD
:1025F0000E9492081092FD011092FC010E94861226
:1026000086E0EDE2F2E0DF011D928A95E9F7109293
:10261000280210922602109227020C94DD1180935A
:102620006E030C94F21280916E03982F9670963080
:1026300019F488600C940F13877FFCCF21E030E001
:1026400001C0220F8A95EAF7209580916E038223BC
:102650000C940F139091FB01809589238093FB01CB
:10266000282F277091F4282F082E000C330B921777
:10267000130659F09091050292FD07C08595859546
:1026800085950E941E131092FB01089521E030E011
:1026900001C0220F8A95EAF780916E03822B0C9479
:1026A0000F13809300020C94F212882321F00E94F1
:1026B000720C0C9486120895882339F09091FE01D3
:1026C000982B9093FE010C9486120895882309F4A8
:1026D00052C0823871F40E94BE0881FF4CC089E369
:1026E0000E94860C0E94861289E30E94790C0C9449
:1026F0008612833859F40E94BE0880FF3CC083E5EF
:102700000E94860C0E94861283E5EFCF843859F42C
:102710000E94BE0882FF2FC087E40E94860C0E94A0
:10272000861287E4E2CF9CEF980F913AF0F290E2A4
:10273000980F983050F4877091E001C0990F8A95F6
:10274000EAF7892F0E94720CD2CF9BE5980F933045
:1027500020F490E080E00C94A80898E5980F973159
:1027600020F490E080E00C949208803F20F00E94DA
:1027700075090C94DD110895CF93C82F882309F4AF
:1027800090C08238C1F40E94BE0881FD8AC089E3EE
:102790000E94860C0E9486122FEF81EE94E0215059
:1027A00080409040E1F700C0000089E30E94790C6E
:1027B000CF910C9486128338A1F40E94BE0880FD4C
:1027C00070C083E50E94860C0E9486122FEF81EE76
:1027D00094E0215080409040E1F700C0000083E584
:1027E000E5CF8438A1F40E94BE0882FD5AC087E478
:1027F0000E94860C0E9486122FEF81EE94E02150F9
:1028000080409040E1F700C0000087E4CFCF8CEF1C
:102810008C0F813A68F4EEE9F1E08191C817D9F1A3
:1028200021E0E43AF207C9F78C2F0E94860CC0CF52
:1028300080E28C0F883068F4C77021E030E001C07E
:10284000220FCA95EAF78091FE01822B8093FE0148
:10285000AFCFEBE5EC0FE33040F4F0E0E55EFE4F88
:10286000808190E0CF910C94A808E8E5EC0FE73167
:1028700050F4F0E0EE0FFF1FE25EFE4F8081918189
:10288000CF910C949208C03F60F08C2F0E94300AC8
:10289000CF910C94DD118C2F0E94790C0E9486122E
:1028A000C3CFCF9108951F93CF93DF93182FD0E01C
:1028B000C0E0893311F4C0E5D0E0812F0E94BC1341
:1028C000209731F4812FDF91CF911F910C946613E3
:1028D0008FE99FE00197F1F700C000002197F0CF4A
:1028E0000F931F93CF93DF93C62FD42F022FFC019A
:1028F00082818823A1F060936D030E9486089093E3
:102900006C0380936B03C77081E001C0880FCA9588
:10291000EAF7DF91CF911F910F910C945C13809196
:102920006D03681335C080916B0390916C030E9416
:102930007708883C910560F510E21D0FCD17B9F0BE
:1029400080E28C0F883040F4C77081E001C0880FAE
:10295000CA95EAF70E945513183048F481E09D2F7C
:10296000977001C0880F9A95EAF70E945C13802F38
:102970000E945314183098F4D77081E001C0880F7A
:10298000DA95EAF7DF91CF911F910F910C945513CF
:10299000C77081E001C0880FCA95EAF7F3CFDF91D5
:1029A000CF911F910F910895CF93DF93D82FC091AE
:1029B0000502C2FB882780F98D1711F1D0FBC2F9FF
:1029C000C09305026091040284E090E00E94DC2D37
:1029D0006C2F82E290E00E94DC2D82E00E942A139C
:1029E0008091390280FF0CC01F92DF9384E293E054
:1029F0009F938F930E94E0060F900F900F900F907F
:102A0000DF91CF910895CF92DF92EF92FF926B0109
:102A10007C010E94D008B701A60188E090E0FF90F9
:102A2000EF90DF90CF900C94EE2D2F923F924F922B
:102A30005F926F927F928F929F92AF92BF92CF924E
:102A4000DF92EF92FF920F931F93CF93DF9300D00B
:102A500000D000D0CDB7DEB7582E262E342E2E83D0
:102A600090913E0390FF47C0E92FE695AE2FB0E06E
:102A7000A05ABE4F8C9180933A029E7F923009F00B
:102A800053C09E012F5F3F4F852D0E94DF084B8171
:102A900069818A810E94F80F50923F03209240037F
:102AA000309241038E81882309F49FC060913E03D8
:102AB00070913F0380914003909141030E94031560
:102AC0008091390280FF17C0809141031F928F933C
:102AD000809140031F928F9380913F031F928F93A9
:102AE0008DE597E09F938F930E94E0060FB6F894D0
:102AF000DEBF0FBECDBF26960FB6F894DEBF0FBE69
:102B0000CDBFDF91CF911F910F91FF90EF90DF909C
:102B1000CF90BF90AF909F908F907F906F905F907D
:102B20004F903F902F900895823019F430904103D8
:102B3000B3CF863019F450903F03AECF8930D9F32C
:102B4000893109F0A9CFE9518E2F81708C838E2FA6
:102B5000809581708D83E695F0E0E755F84FE5901C
:102B6000F490FF248FE3C82E82E0D82EB12CA12C44
:102B700010E000E095E5692E712C22E8822E27E016
:102B8000922EC501B3010E94402D9C81452C9111CC
:102B90002AC0460E8091390280FF12C0FF92EF9248
:102BA0001F928D818F931F924F921F930F939F922D
:102BB0008F920E94E0060FB6F894DEBF0FBECDBF25
:102BC0009601432D622D842D0E94DF080F5F1F4F59
:102BD000AE0CBF1C93E0C90ED11C0535110589F65A
:102BE0000E941B0E59CF461AD5CF8091390280FF23
:102BF00082CF1F923F921F922F921F925F9286E385
:102C000097E070CFEEE3F3E0438128E0421B08F445
:102C100040E021E0628181810C941515EEE3F3E040
:102C2000438128E0420F08F44FEF21E06281818167
:102C30000C941515EEE3F3E0628128E0621B08F4C2
:102C400060E021E0438181810C941515EEE3F3E00F
:102C5000628128E0620F08F46FEF21E043818181F7
:102C60000C941515EEE3F3E0818121E0438162814C
:102C700088500C941515EEE3F3E0818121E0438147
:102C80006281885F0C94151580914203882319F0A6
:102C900081508093420360913E0370913F03809185
:102CA0004003909141030C940315809142038330BB
:102CB00018F48F5F8093420360913E0370913F034D
:102CC00080914003909141030C94031590913E0331
:102CD00090FF68C0917081113CC0926090933E0358
:102CE0006623F1F160913E0370913F0380914003B0
:102CF000909141030E9403158091390280FF0FC01B
:102D000080913E0386951F928F938AE197E09F936F
:102D10008F930E94E0060F900F900F900F9060919C
:102D20003E03669570E04BE050E08CE091E00E943D
:102D3000102E892B09F10E94CE1181E0809336027A
:102D400020E0409141036091400380913F030C9447
:102D50001515853210F09864C1CF880F982BBECF1F
:102D60008091390280FFDBCF80913E0386951F92D0
:102D70008F938CEF96E0CBCF81E080933B020E9453
:102D8000860890933402809333028091390280FF49
:102D9000D4CF83EE96E09F938F930E94E0060F902E
:102DA0000F90CBCF089580913E038695815009F412
:102DB00084E261E00C94661680913E0386958F5FF5
:102DC000853208F081E061E00C94661690913E0334
:102DD00090FF07C09695981720F0961710F40C9462
:102DE000DC1661E00C946616EEE3F3E083E080838A
:102DF00011828FEF8283838314826081718182814B
:102E000093810C9403151092FE01EEE9F1E086E047
:102E1000DF011D928A95E9F70C94F2121F93CF936C
:102E2000DF93CDB7DEB7AA970FB6F894DEBF0FBE1B
:102E3000CDBF83E693E02091F100DC012D93CD011D
:102E4000B3E08B369B07B9F780916403833009F4B4
:102E500072C0B8F4813009F449C0823009F4B3C0BB
:102E60008091E80083FF91C2809163039091640395
:102E70009A3008F08AC2E92FF0E0E65CF14D0C943C
:102E80008A2D8A3009F48EC08B3009F471C08930E4
:102E900039F780916303813219F78091670390912C
:102EA0006803009711F00297D9F68091E800877FB8
:102EB0008093E8008091E80082FF38C09091F30091
:102EC0008091F200029731F48091F100813011F08D
:102ED000863021F48091F100809356038091E800C0
:102EE0008B778093E8000E946307BACF80916303D9
:102EF000813A09F0B5CF8091E800877F8093E800A0
:102F00008091670390916803892B61F468E087E5FD
:102F100093E070E00E9415088091E8008B77809321
:102F2000E8009ECF60E090E080E0F3CF8091610305
:102F30008111C0CF95CF80916303813A09F090CF82
:102F40008091670390916803892B09F089CF809164
:102F5000E800877F8093E8008091E80080FFFCCF45
:102F600080911A018093F1008091E8008E77B9CFAB
:102F700080916303813209F073CF80916703909150
:102F80006803892B09F06CCF8091E800877F8093DC
:102F9000E8000E9463078091650380931A010E94F4
:102FA00003175ECF80916303813209F059CF80917E
:102FB000E800877F8093E8000E94630780916603A2
:102FC000809355034DCF80916303813A09F048CF38
:102FD0008091E800877F8093E8008091E80080FF7F
:102FE000FCCF80915503BECF803899F0823809F02C
:102FF000CCC1809167038F70873008F0C6C1809381
:10300000E9008091EB0085FB882780F91092E900A8
:1030100006C080915F03909160039111826090914E
:10302000E800977F9093E8008093F1001092F10000
:103030008091E8008E77A5C1882309F493C182307E
:1030400009F0A3C180916503811196C18091670346
:103050008F702FEF280F263008F097C18093E9007A
:103060002091EB0020FF88C1933031F48091EB0078
:1030700080628093EB0080C19091EB00906190930F
:10308000EB0021E030E001C0220F8A95EAF720939F
:10309000EA001092EA008091EB008860EACF81118B
:1030A00074C1109165031F778091E3008078812BB4
:1030B0008093E3008091E800877F8093E8000E947E
:1030C00063078091E80080FFFCCF8091E300806877
:1030D0008093E30082E0111183E08093610355C186
:1030E0008058823008F051C1209165033091660309
:1030F0002C3DE3E03E07A1F583E08A838AE28983E1
:103100004FB7F894DE01139620E03EE051E2E32F42
:10311000F0E050935700E49120FF03C0E295EF7078
:103120003F5FEF708E2F90E0EA30C0F0C7968D932E
:103130009D932F5F243159F74FBF8091E800877F1F
:103140008093E8006AE270E0CE0101960E941508C3
:103150008091E8008B778093E80017C1C096E7CF95
:103160008091670390916803432F552743305105A1
:1031700009F44AC078F54130510509F47AC08BE76B
:1031800090E0E3E3FBE04230510509F0FEC02091FE
:10319000E800277F2093E8002091690330916A03BB
:1031A0008217930708F49C0140E02115310509F0CE
:1031B00065C0411163C08091E80082FDC9CF809154
:1031C0006103882329F2853019F28091E80083FF9A
:1031D000F2CFBECF4132510509F43CC04232510515
:1031E00009F0D3C08430910508F0CFC0FC01EE0F88
:1031F000FF1FE757FE4F0190F081E02D8B579E4F48
:10320000DC018C9190E01AC0332721303105D1F0D8
:103210002115310561F02230310509F0B6C0E0EC2E
:10322000FBE0E4918E2F90E0E0ECFBE007C0E0EEE5
:10323000FBE0E4918E2F90E0E0EEFBE0009709F4D4
:10324000A4C0A5CFEEECFBE0E4918E2F90E0EEEC75
:10325000FBE0F4CF8430910508F097C0880F991FE8
:10326000FC01EF56FE4F0190F081E02D89E090E0E7
:103270008ECF82E190E0EEEAFBE089CF809161039E
:10328000882309F465CF853009F462CF8091E80086
:1032900083FD5ECF8091E80082FD8DCF8091E800B4
:1032A00080FF83CF9091F3008091F20021153105CA
:1032B00019F08830910550F041E0089709F040E09E
:1032C0008091E8008E778093E8006FCF449140931F
:1032D000F1003196215031090196E8CF803809F08C
:1032E00054C08091E800877F8093E800809162035A
:1032F0008093F1009DCE811148C01091650312307A
:1033000008F043C08091E800877F8093E800109325
:1033100062030E946307112311F084E005C08091CD
:10332000E30087FDFACF81E08093610342E061EC26
:1033300081E00E94820742E261EC84E00E94820701
:1033400042E261EC82E00E94820742E260EC83E0AC
:103350000E94820742E261EC85E00E948207809130
:10336000610313C080916503813079F481E093306B
:1033700009F080E0809360031092E9008091E800FA
:10338000877F8093E8000E9463078091E80083FFB5
:103390000AC08091E800877F8093E8008091EB006D
:1033A00080628093EB00AA960FB6F894DEBF0FBE42
:1033B000CDBFDF91CF911F91089569EE7EEF90E030
:1033C00080E00E94FA2D60E082E090E00E94DC2D17
:1033D00060E083E090E00E94DC2D1092000260E04B
:1033E00084E090E00E94DC2D60E082E290E00E94A8
:1033F000DC2D60E085E090E00E94DC2D60E086E05E
:1034000090E00E94DC2D6FEF87E090E00E94DC2DC1
:1034100040E050E0BA0188E090E00E94EE2D60E0CC
:103420008DE090E00E94DC2D40E050E0BA0188E1A0
:1034300090E00E94EE2D60E087E190E00E94DC2D9C
:1034400040E050E0BA018CE190E00E94EE2D70E087
:1034500060E080E290E00E94FA2D40E050E0BA0186
:1034600088E190E00E94EE2D80E00E94EB100E9427
:10347000031140E050E0BA018FE090E00E94EE2D91
:1034800040E050E0BA0183E190E00C94EE2D3F92D1
:103490004F925F926F927F928F929F92AF92BF9264
:1034A000CF92DF92EF92FF920F931F93CF93DF9310
:1034B00000D000D00F92CDB7DEB78C01FC01838124
:1034C0009481892B31F08081918189238F3F09F08C
:1034D000F8C50F900F900F900F900F90DF91CF9144
:1034E0001F910F91FF90EF90DF90CF90BF90AF9022
:1034F0009F908F907F906F905F904F903F90089536
:103500000E944511F82E682F89819A810E94D10C62
:1035100069817A818F2D0E9438117C01F8018281A6
:10352000882309F4C1C5970122513F452031310557
:1035300008F08DC58FEF93E00E94C82DFEEEEF0ED0
:103540005FE7852E52E0952E8823A1F18091FB0143
:10355000877009F4BECFF8018281882309F4B9CFBE
:103560008091050282FDB5CF82E00F900F900F9001
:103570000F900F90DF91CF911F910F91FF90EF90DF
:10358000DF90CF90BF90AF909F908F907F906F9083
:103590005F904F903F900C942A13811424E0920680
:1035A000A9F2C4010E94C82D811101C0EA943FEF25
:1035B000831A930AE110F1CF1C821B8244244394A6
:1035C0004AE0342E74018FEFE81AF80AC4010E9411
:1035D000C82D89831A82882309F4B8CF9FEF980FEA
:1035E000933000F58A83498292E0890E911CC701CD
:1035F0000E94C82D8B83882309F4A8CFFE01319641
:103600007F01F70120812223E9F2213009F049C02E
:1036100091818281913041F4F2E0EF0EF11C0E9421
:10362000531409C04701EACF923049F422E0E20E78
:10363000F11C0E94BC133FEFE31AF30AE2CF933070
:1036400031F432E0E30EF11C0E946613F4CF9430A3
:1036500021F08FEFE81AF80AEECF92E0E90EF11CA4
:1036600030E020E0B7016F5F7F4FF7014181805369
:10367000990B8A30910550F021503109E0F28FE921
:103680009FE00197F1F700C00000F6CF329EF001F5
:10369000339EF00D11249C012E0F3F1F842F7B01C0
:1036A000E1CFE22FF0E0E552FE4F5490822F869555
:1036B0008695869590E0FC01E553FE4F6490277057
:1036C000712C022E02C0759467940A94E2F7E1E02F
:1036D0006E227724FC01E554FE4FA490B12C022EFB
:1036E00002C0B594A7940A94E2F7F1E0AF22BB249C
:1036F000FC01E555FE4FC490D12C02C0D594C7946F
:103700002A95E2F721E0C222DD246114710419F048
:1037100081EE0E94BC13A114B10419F086EE0E9440
:10372000BC13852D0E945314AB2819F086EE0E941D
:103730006613672819F081EE0E946613CD2809F4FC
:103740007ACF8CE26CCF81E00E9446130E94131363
:10375000FDCE81E00E941E13F9CF82E0F5CF95EFF8
:10376000E9169CE5F90609F46AC008F464C027E28A
:1037700045EE66EEF6EFEF16FCE5FF0609F490C4A1
:10378000882309F4AFC410926D0323E0E2162DE5FF
:10379000F20608F05BC03AEFE3163CE5F30630F4BE
:1037A000C70182509C45449708F056C00E94C01142
:1037B000909305028093040290E1E9169CE5F906D6
:1037C00009F431C108F0A3C0F8E0EF16FCE5FF06EC
:1037D00009F41BC108F06CC034E0E3163CE5F306C5
:1037E00009F405C108F04EC092E0E9169CE5F9061F
:1037F00009F4F7C0809104028260E3E0EE16ECE584
:10380000FE0609F4F1C060910402F090050284E024
:1038100090E00E94DC2D6F2D82E290E00E94DC2D72
:103820000E94031793CE27E245EE65EE39C426E2E7
:1038300041EE60EE35C427E245EE64EE31C426E287
:1038400041EE62EE2DC428E241E0EFCF81E6E816BA
:103850008DE5F80609F4AACF8091FE01F6E1EF1696
:10386000FCE5FF0609F04BC48A7A91E009F490E088
:103870009093A4018111FCC089E20E94860C0E94F1
:10388000861264CE809104028061F6E0EF16FCE5BA
:10389000FF0609F4A9C080910402886027E0E216BF
:1038A0002CE5F20608F4A0C08091040280629CC05E
:1038B000809104028D7F3CE0E3163CE5F30609F4B9
:1038C00093C078F4809104028C609AE0E9169CE53C
:1038D000F90609F489C008F49CC0809104028E7F27
:1038E00083C080910402877FFEE0EF16FCE5FF06AF
:1038F00009F47AC0809104028B7F2FE0E2162CE558
:10390000F20608F471C0809104028F7E6DC03CEF16
:10391000E3163CE5F30609F482C0A0F594E1E9164C
:103920009CE5F90609F493C098F4F2E1EF16FCE582
:10393000FF0609F47CC0809104028F7B23E1E2162C
:103940002CE5F20608F450C080910402837F4CC03D
:103950003AEFE3163CE5F30609F44DC008F051C018
:1039600095E1E9169CE5F90609F04DCF8091040236
:1039700082FB992790F921E0922790FB82F990FB36
:1039800083F932C0E114EDE5FE0609F456C0A0F457
:103990008091050283602EEFE2162CE5F20671F1AC
:1039A000809105028D7F3FEFE3163CE5F30630F191
:1039B000809105028C7F22C082E0E8168DE5F80632
:1039C00009F454C008F44CC0E1E6EE16EDE5FE063D
:1039D00009F019CF90910402892F8F7E94FF8061A6
:1039E00003C0809104028160809304020CCF809117
:1039F00004028460F9CF8091050281608093050202
:103A000002CF809105028260F9CF80910402806428
:103A1000EBCF0E940317809104028068E5CF80916C
:103A200005028E7FEBCF809104028F7DDDCF0E9457
:103A30000317809104028F77D7CF80910502982FCA
:103A4000909591708E7F892B90FB81F9D7CF0E9442
:103A5000031790910402892F97FB87F98058C4CFF0
:103A600061E08EE090E00E94DC2DCDCE60E0F9CFE9
:103A700085E303CF85E340C38091390280FF10C006
:103A800080913E03809581701F928F938AEC92E023
:103A90009F938F930E94E0060F900F900F900F90CE
:103AA00080913E0380FF2EC08E7F80933E03609105
:103AB0003E0370913F0380914003909141030E9427
:103AC00003158091390280FF0FC080913E03817001
:103AD0001F928F938BE592E09F938F930E94E00655
:103AE0000F900F900F900F900E94CE112FEF30E7A4
:103AF00082E0215030408040E1F700C000000E9489
:103B00001B0E24CD816080933E038091390280FF9B
:103B10000DC01F9281E08F9383E992E09F938F9372
:103B20000E94E0060F900F900F900F9080913E033F
:103B300061E086950E94661609CD43ED56E16CED75
:103B400076E10E94CA0802CD4CED56E163ED76E1C4
:103B5000F8CF4BE356E162E376E1F3CF4AE156E179
:103B600066E276E1EECF42E056E16EE076E1E9CF43
:103B70004EE056E162E076E1E4CF45E556E164E4EB
:103B800076E1DFCF61E081E0D5CF65E082E00E94A1
:103B9000E616DCCC68E086E0FACF64E18FE0F7CF90
:103BA00067E185E1F4CF62E289E1F1CF61E083E290
:103BB000C1CF3BE5E3163DE5F306C9F18CE5E81618
:103BC0008DE5F80651F19AE5E9169DE5F90609F04B
:103BD000C8C281E029C00E940317EFEFF4E32CE094
:103BE000E150F0402040E1F700C000000E94F70DD6
:103BF00090913902892F8E7F90FF816080933902E6
:103C000080FF05C083E193E00E9447069FCC81E0DE
:103C100093E0FACF0E94DD1999CC8091050282FBD6
:103C2000882780F991E089270E94D4149AC280E005
:103C3000FBCFC7010E94A90CD82EA2C22F2D2F7036
:103C4000C22E8F2D807F19F0C29490EFC922DD2003
:103C5000B9F0CC2069F080E28E0D883010F0811030
:103C600009C08091FE01C82AC092FE010E948612FE
:103C70008E2D4DC08091FD01C82AC092FD01F6CF66
:103C80008E2D0E946613CC2009F443C080E28E0D75
:103C9000883010F0811004C08C2D0E94720C06C078
:103CA000C0948091FD01C822C092FD010E9486123D
:103CB00030C03F2D3F70C32E8F2D807F803219F092
:103CC000C29480EFC822882089F081E0881609F428
:103CD0007FC0DD2009F489C0BB2009F47FC0F80152
:103CE000858180FFC5CF8F70858378C020910502C4
:103CF00022FF4BC0DD2009F442C0CC2039F0809176
:103D0000FE01C82AC092FE010E94861280E00E9435
:103D1000BC13292D2850330B2430310510F40E9498
:103D2000BE08AA2009F4D5CB8091FB0180FDD1CB40
:103D3000F80112828595859585950E944613C801E4
:103D40000E94471A8091FB018595859585950F9076
:103D50000F900F900F900F90DF91CF911F910F91C7
:103D6000FF90EF90DF90CF90BF90AF909F908F909B
:103D70007F906F905F904F903F900C941E1380E067
:103D80000E946613CC2029F287CFDD20A1F090910C
:103D9000FF018C2D892BB11003C00E945C13B9CF99
:103DA000E1E0BE12FACF22FDB4CF981709F4B1CFEB
:103DB0008093FF01AECFB11006C00E946C0C8C2D19
:103DC0000E945513A6CFF1E0BF1609F4A2CFF5CF9C
:103DD000DD2031F025E02B1508F49BCF8C2DDDCFB5
:103DE00034E03B1508F495CFEACFBB2041F3F9E36B
:103DF0008F1209C02FEF37EE83E021503040804012
:103E0000E1F700C000008E2D0E94661382CF8F2D37
:103E100086958695837061F0813009F07ACFC7016D
:103E20009370D11002C090E080E00E94920871CFA0
:103E3000C7019370D11002C090E080E00E94A808F2
:103E400068CF8E2DDD2029F00E94300A0E94DD11FE
:103E500060CF0E947509FACF8F2D837091F5D11034
:103E600058CF4E2D429546954770440F440F8E2DE6
:103E70008F70042E01C0880F0A94EAF72E2D20714E
:103E8000E4FE07C02FE030E001C0220F4A95EAF7B8
:103E900020953F2D369536953370323069F050F4C9
:103EA00040910002313029F0822B84230E9451136B
:103EB00030CF842B822BFACF282B809100028227CF
:103EC000F5CF8695DD2011F08F2D8170882309F4C0
:103ED00020CF4E2D429546954770440F440F8E2DAE
:103EE0008F70042E01C0880F0A94EAF72E2D2071DE
:103EF000E4FE07C02FE030E001C0220F4A95EAF748
:103F000020953F2D369536953370323069F050F458
:103F100040916E03313029F0822B84230E940F13CD
:103F2000F8CE842B822BFACF282B80916E03822728
:103F3000F5CF9F2D9F70F92EDD2029F0892F0E944B
:103F400046138E2D2ACF8E2D0E9455138F2D0E9441
:103F50001E13DFCE8E2DE2EF8E16B1F1E81570F054
:103F6000F0EF8F16D1F021EF821691F0DD2009F4E9
:103F70005EC0B1107DCE8F2D8F712AC033EF8316B6
:103F800051F194EF8912F2CF8091050282FF2FC088
:103F90008F2D8F71DD20D9F21BC0DD2081F0E4E090
:103FA000EB1508F4B6CE2F2D2F7181E090E001C003
:103FB000880F2A95EAF790916E038927AFCFF5E035
:103FC000FB1508F4A6CEEFCF8F2D8F71D110BFCF88
:103FD0000E9446139ECE80E0DD2009F49FCF9F2DE6
:103FE0009F7181E001C0880F9A95EAF797CFDD2095
:103FF00099F02F2D2F71F22E822F0E94461380915F
:10400000050282FD07C038E0F39EC00111248360E1
:104010008093FB018F2DDCCF81E00E942A1381E089
:104020008B1508F076CE82E00E942A1372CEBB2058
:1040300059F0893309F0E7CE9FEFE7EEF3E09150B6
:10404000E040F040E1F7DDCE8F2D8F7180CFF0E1C1
:10405000EF16FFE5FF0609F476CB21E1E2162FE526
:10406000F20609F47ACB93EFE9169CE5F90609F418
:10407000DECB08F074CBF8EDEF16FCE5FF0609F493
:10408000D2CB29EDE2162CE5F20609F4DCCB37EDB4
:10409000E3163CE5F30609F073CB26E241EE61EE50
:1040A000C8010E94701452CA30E1E3163FE5F306DE
:1040B00009F44FCB91E1E9169FE5F906A1F682E0FC
:1040C00049CB85E0DE01119601900D928A95E1F7CA
:1040D000F801228189819A81211112CA0E94A90CBA
:1040E000F82E16CAF6E1EF16FCE5FF06D1F5809131
:1040F000A4018111BFCC89E20E94790CC0CB8272ED
:104100002CECE2162CE5F20609F437CD08F0ABC032
:1041100096ECE9169CE5F90609F41BCD08F07AC087
:10412000F3ECEF16FCE5FF0609F407CD08F061C0DB
:1041300032ECE3163CE5F30609F49ECC9EEDE9165D
:104140009CE5F90609F466CD08F033CDE114FCE5F1
:10415000FF0609F440CD21E0E2162CE5F20609F451
:1041600047CDF8018281E080F180882309F461CD98
:10417000C7010E944511D82E682FC7010E94D10C9B
:10418000B7018D2D0E9438110E94E40A7C01882E0F
:10419000F801D280B580B2943FE0B3228091FB0158
:1041A0008770C1F0AD2CDD20B1F08F2D807F803481
:1041B00021F080E28E0D883068F08091050282FD4A
:1041C00009C082E00E942A138091FB018770AA2413
:1041D000A3948111A12C9F2C92942FE09222FBE0BA
:1041E000F91508F496CDE92DF0E0EC5BF14D0C9457
:1041F0008A2D94ECE9169CE5F90609F4A5CC42E376
:1042000056E16BE376E1E5ECEE16ECE5FE0609F42B
:1042100098CC94CFF9ECEF16FCE5FF0609F4A3CC9B
:1042200088F437ECE3163CE5F30609F497CC46E254
:1042300056E16AE176E198ECE9169CE5F90609F4A5
:1042400080CC7CCFEAECEE16ECE5FE0609F490CCCF
:1042500044E456E165E576E1FBECEF16FCE5FF068C
:1042600009F46FCC6BCF21EDE2162CE5F20609F4D0
:1042700094CCB8F48EECE8168CE5F80609F485CCFD
:1042800008F480CCEFECEE16ECE5FE0609F482CCE7
:104290006EE089E0F0EDEF16FCE5FF0609F477CC5F
:1042A0004DCF24EDE2162CE5F20609F47CCC78F42F
:1042B00082EDE8168CE5F80609F472CC61E088E13D
:1042C00093EDE9169CE5F90609F434CC37CFE5ED1A
:1042D000EE16ECE5FE0609F469CCFDE5EF16FF06E7
:1042E00009F434C92BCF1F93CF93DF938091C8017A
:1042F000807FA9F48091C501882389F08091FA011B
:10430000D091C9016091C3017091C401A091C6010F
:10431000B091C701C62FC72316E0D81304C0DF91A0
:10432000CF911F91089590E0109711F0CF3F19F4AD
:1043300001968770F2CF189F9001199F300D1124BC
:10434000F901E653FE4F41814713F2CF40814613F6
:10435000EFCF42814111ECCF438154814A1B5B0B6B
:10436000483C510528F78091C8018F708061809387
:10437000C801F901E153FE4F80818F708061808315
:1043800083EC91E00E94471ADF91CF911F910C942A
:104390009F0CAF92BF92CF92DF92EF92FF920F935A
:1043A0001F93CF93DF93CDB7DEB761970FB6F89425
:1043B000DEBF0FBECDBF8C0185E0F801DE011D968A
:1043C00001900D928A95E1F7F801E28083ECA82E26
:1043D00081E0B82E6091C6017091C7016115710529
:1043E00009F432C19091C3014091C401892F842303
:1043F0008F3F09F429C120813181C380D480F0909E
:10440000C501F601E61BF70BFF2009F4E8C0809117
:10441000C801582F507FE83CF10508F0ABC051119E
:1044200077C0FE2C431321C092131FC0E1101DC0A2
:104430008F7080618093C801C5010E94471A8091E6
:10444000C801F80185838F2D61960FB6F894DEBF01
:104450000FBECDBFDF91CF911F910F91FF90EF90D5
:10446000DF90CF90BF90AF900895CD2829F0822F94
:1044700083238F3F09F003C180E0F82FF170DF2E16
:1044800080FF3CC08091FA014091C90156E084133D
:1044900015C02D873E878D859E850E947411292F1A
:1044A00022952F702230F0F0243018F59F70F1F033
:1044B000F8019581907FD1F4D12C1EC090E0589FD7
:1044C000F001599FF00D1124E653FE4F6181361320
:1044D00006C06081261303C06281E6120FC00196F8
:1044E0008770D5CF9F7011F0882331F3805E8830BC
:1044F00018F3C8010E94471AFD2CA5CFEE2009F43D
:10450000A2CF8091C80181608093C801F12C9BCF1C
:10451000431306C0921304C0F801EE2009F479C0D9
:10452000C8010E948011882309F1EE20F9F08091E2
:10453000C801803270F02091C3013091C4013887E6
:104540002F831986DB86CA868C87CE0107960E9448
:10455000471A86E0F801A3ECB1E001900D928A952C
:10456000E1F70E947321FF24F3946DCFC8010E94EC
:10457000471AF9CF51110AC083EC91E00E94471A03
:1045800086E0F50111928A95E9F7C0CF43130FC079
:1045900092130DC0E1100BC0F8018583C8010E9481
:1045A000471A86E0F50111928A95E9F74CCFC801C8
:1045B0000E9480118823D1F2EE20C1F28091C801BF
:1045C000803238F22091C3013091C4013A832983AB
:1045D0001B82DD82CC828E83CE010196B8CFE83C6F
:1045E000F105F8F6FE2CEE2009F243131FC09213DA
:1045F0001DC08091C80180FD10C0982F907F69F088
:10460000F8018583903F31F0982F907F905F8F70F5
:10461000892B8583C8010E94471A86E0F801A3EC24
:10462000B1E001900D928A95E1F70DCFC8010E948B
:10463000801181118ECF8091C80181608093C80163
:10464000C8010E94471AFFCEEE2009F48FCFC8019F
:104650000E948011F82E882309F488CF86E0F801A3
:10466000A3ECB1E001900D928A95E1F78091C3012E
:104670009091C4010E9474110E947321E4CE81E0E4
:104680008E25FBCE1F93CF93DF93CDB7DEB7679711
:104690000FB6F894DEBF0FBECDBF4B8B5C8B6D8B1E
:1046A0007E8B8F8B61111092FD011A8A198A85E029
:1046B000FE017396DE011D9601900D928A95E1F739
:1046C00086E0FE013D96DE01179601900D928A95D7
:1046D000E1F7CE0107960E94C921882389F016E0F0
:1046E0008091FA019091C901891349C067960FB66C
:1046F000F894DEBF0FBECDBFDF91CF911F9108951B
:1047000086E0FE013796DE01119601900D928A95A2
:10471000E1F78A859B85892B11F38F819885892301
:104720008F3FE9F22091C90130E0C90101968770FD
:1047300099274091FA014817190671F40E9403174E
:104740001092C9011092FA0186E0E3ECF1E0DF017A
:104750001D928A95E9F7C3CF96E0929FD001939F6F
:10476000B00D1124A653BE4FFE01319601900D925B
:104770009A95E1F78093C9010E949F0CB0CF819F69
:10478000C001112486539E4F0E94C921882309F439
:10479000ADCF8091FA0190E00196877099278093C0
:1047A000FA019ECF4F925F926F927F928F929F926B
:1047B000AF92BF92CF92DF92EF92FF920F931F932F
:1047C000CF93DF93CDB7DEB72A970FB6F894DEBF4D
:1047D0000FBECDBF8E010F5F1F4F8AE0F80111920F
:1047E0008A95E9F79CE4E92E91E0F92E680121E52C
:1047F000422E21E0522E66246394712C40E6842ED2
:1048000041E0942EF70181917F018F3F09F445C06B
:10481000F894E82FE295EF70F0E021A18F70A301EA
:1048200002C0440F551F8A95E2F7CA01922F982BB8
:1048300091A392A18095892382A3789400C0E1E599
:10484000F1E021E030E0B12CA12C41914F3F09F47F
:104850007EC0A42FA295AF70B0E090968C9190E0AE
:104860004F7002C0959587954A95E2F780FD6FC01D
:10487000C901A82AB92A220F331F8E169F0629F7CD
:10488000F701319780818F3F11F00E948A0A50EA28
:104890005A95F1F7F601B182A082F2E0CF0ED11C59
:1048A0004E145F0409F0AECF4AE050E0B80186E054
:1048B00092E00E941D2EFF24F394009709F4F12C3E
:1048C000892B09F447C08AE0F801A6E0B2E0019024
:1048D0000D928A95E1F781E0809303020E94860899
:1048E0009093020280930102809101029091020252
:1048F0000E947708059790F1809106029091070237
:1049000090931D0280931C028091080290910902ED
:1049100090931F0280931E0280910A0290910B02D5
:10492000909321028093200280910C0290910D02BD
:10493000909323028093220280910E0290910F02A5
:1049400090932502809324021092030207C090E006
:1049500080E08FCF809103028111C6CF8F2D2A96E0
:104960000FB6F894DEBF0FBECDBFDF91CF911F9180
:104970000F91FF90EF90DF90CF90BF90AF909F90FE
:104980008F907F906F905F904F90089590E080E0BF
:104990000E94D62D893E9E4F11F40C94A71180E001
:1049A00008951F920F920FB60F9211242F933F93E9
:1049B0004F935F936F937F938F939F93AF93BF9327
:1049C000CF93DF93EF93FF93D091E900DF70809155
:1049D000EC00C82FC17080FDC0E81092E900809102
:1049E000F000877F8093F00078940E940E17109259
:1049F000E9008091F00088608093F000CD2BCF70AB
:104A0000C093E900FF91EF91DF91CF91BF91AF91FA
:104A10009F918F917F916F915F914F913F912F91D6
:104A20000F900FBE0F901F9018951F920F920FB608
:104A30000F9211242F933F934F935F936F937F9324
:104A40008F939F93AF93BF93EF93FF938091E10078
:104A500082FF15C08091E20082FF11C08091E100C9
:104A60008B7F8093E100209153032F5F822F62E3BD
:104A70000E94262D992309F4C0C0209353038091EE
:104A8000DA0080FF28C08091D80080FF24C0809188
:104A9000DA008E7F8093DA008091D90080FFE3C036
:104AA00080E189BD82E189BD09B400FEFDCF81E0CE
:104AB000809361038FE19BE00E944706809154033D
:104AC000811109C00E94E9060E94B4078091E200AA
:104AD00084608093E2008091E10080FF1BC08091A0
:104AE000E20080FF17C08091E2008E7F8093E20099
:104AF0008091E20080618093E2008091D800806222
:104B00008093D80019BC85E08093610387E29BE025
:104B10000E9447068091E10084FF2FC08091E2004F
:104B200084FF2BC080E189BD82E189BD89B5982FC2
:104B3000917080FFFBCF8091D8008F7D8093D8004B
:104B40008091E1008F7E8093E1008091E2008F7E72
:104B50008093E2008091E20081608093E200809186
:104B60006203882309F489C084E0809361038BE2A7
:104B70009BE00E944706809161038091E10083FFE2
:104B80002BC08091E20083FF27C08091E100877FE6
:104B90008093E10082E08093610310926203809130
:104BA000E1008E7F8093E1008091E2008E7F809310
:104BB000E2008091E20080618093E20042E060E0E8
:104BC00080E00E9482078091F00088608093F0006E
:104BD0008FE29BE00E944706FF91EF91BF91AF915A
:104BE0009F918F917F916F915F914F913F912F9105
:104BF0000F900FBE0F901F90189510925303809145
:104C00005203882309F43BCF809161038430C1F4BF
:104C10009091E9009F702091EC00822F817020FD1F
:104C200080E8892B95E09093E9009091EB0090FF4C
:104C300004C09091EE0097FD08C08F708093E9004A
:104C4000109252031CCF1092F1009091E80095FD54
:104C5000FACF9091E80090FFF0CF9091E8009E7716
:104C60009093E800EACF19BC1092610383E29BE0C5
:104C70000E944706109254032ECF8091E30087FDD7
:104C800093E09093610373CF78941F921FB61F92A5
:104C900011248F939F93AF93BF9380914A03909178
:104CA0004B03A0914C03B0914D030196A11DB11D82
:104CB00080934A0390934B03A0934C03B0934D030E
:104CC000BF91AF919F918F911F901FBE1F9018951C
:104CD0001F921FB61F9211248F939F93AF93BF9380
:104CE00080914903811113C080914A0390914B0335
:104CF000A0914C03B0914D034196A11DB11D80932D
:104D00004A0390934B03A0934C03B0934D03BF9180
:104D1000AF919F918F911F901FBE1F901895CDB797
:104D2000DEB7AD970FB6F894DEBF0FBECDBF84B728
:104D3000877F84BF0FB6F894A89580916000886142
:104D400080936000109260000FBE80E890E00FB684
:104D5000F89480936100909361000FBE85B78068DE
:104D600085BF85B7806885BF85E19DE090939B01F5
:104D700080939A010E94E9060E94B4078091E200A4
:104D800084608093E2007894809161038823A1F08D
:104D90001091E9001F709091EC00892F817090FDB7
:104DA00080E8182B1092E9008091E80083FD0E94B2
:104DB0000E171F701093E90082E084BD93E095BD4B
:104DC0009AEF97BD80936E000E94A711811102C0D7
:104DD0000E9403110CE411E0E1E5EE2EE1E0FE2E6D
:104DE000D8018D918D018F3F11F00E948A0AE01643
:104DF000F106B1F701E511E070E6E72E71E0F72E5C
:104E0000F80181918F018F3F11F00E948A0AE0160C
:104E1000F106B1F78AE0ECE1F2E0DF01282F1D9204
:104E20002A95E9F7E6E0F2E0DF011D928A95E9F7BD
:104E30000E94C624811102C00E94DD1982E090E028
:104E40000E94C82D809339020E94C01190930502E0
:104E5000809304020E94D223EFE3FCE93197F1F73B
:104E600000C000000E94D22380911C0280FF08C075
:104E70006FEF7FEF90E080E00E94FA2D0E94F70D27
:104E800083E090E00E94C82D0E945113809110028F
:104E90008111DDC08091390280FF14C085E994E062
:104EA0009F938F930E94E006809139020F900F909C
:104EB00080FF08C08FE794E09F938F930E94E006E5
:104EC0000F900F900E94C624811110C0809139026A
:104ED00080FF08C087E594E09F938F930E94E006CF
:104EE0000F900F900E94DD190E94F41688E090E068
:104EF0000E94D02D60933E0370933F038093400344
:104F0000909341036E7FD1F48091390280FF08C0F5
:104F10008EE094E09F938F930E94E0060F900F9095
:104F20000E94F41688E090E00E94D02D60933E032A
:104F300070933F0380934003909341030E94D008F5
:104F40008091390280FF76C085EF93E09F938F9325
:104F50000E94E006809139020F900F9080FF6AC096
:104F600080913E0381701F928F9388ED93E09F9311
:104F70008F930E94E006809139020F900F900F905E
:104F80000F9080FF57C080913E0386951F928F93AC
:104F90008DEB93E09F938F930E94E00680913902FE
:104FA0000F900F900F900F9080FF44C080913F03AF
:104FB0001F928F9383EA93E09F938F930E94E00662
:104FC000809139020F900F900F900F9080FF32C0A8
:104FD000809140031F928F9389E893E09F938F9372
:104FE0000E94E006809139020F900F900F900F9071
:104FF00080FF20C0809141031F928F938FE693E042
:105000009F938F930E94E006809139020F900F903A
:105010000F900F9080FF0EC0809142031F928F93DC
:1050200083E593E09F938F930E94E0060F900F908B
:105030000F900F9010923B0280913E0380FF04C0BE
:1050400060E086950E94661681E08093100280E001
:1050500091E09093460380934503809161038530EE
:1050600079F48CEA94E00E94470600E112E1809115
:105070006103853009F446C00E9403170E94BE08F0
:105080000E94D223882359F08FB7F89440914A03A5
:1050900050914B0360914C0370914D038FBFA2E17F
:1050A000B2E0BCA7ABA75CE1452E52E0552E10E064
:1050B00000E062EB662E64E0762E0DA7F201E1902F
:1050C000F1902F01ABA5BCA5AD90BD90BCA7ABA73F
:1050D000AE14BF0409F052C00F5F1F4F0530110519
:1050E00061F78FEF8EA38FA318A60E9486088160B8
:1050F000782F9AA789A74EA15FA168A58AA50E94CB
:1051000042236DC080916103843021F110924903E4
:1051100088E190E0A0E40FB6F894A8958093600031
:105120000FBEA093600083B7817F846083BF83B785
:10513000816083BF7894889583B78E7F83BF0FB6D5
:10514000F894A89580916000886180936000109227
:1051500060000FBE80916003882309F488CF0E940D
:10516000D223ECE1F2E081919191892B09F045C4C1
:1051700086E292E08E179F07B1F779CF80913902CE
:1051800081FD8FC1AE24BF2480E0CC24C394D12CF8
:1051900095012C213D21232B09F4BDC189A3ADA587
:1051A000AAA3EC20FD2081E0EF2809F480E08BA386
:1051B0000E9486088160782F9DA38CA349A15AA1E3
:1051C0006BA18DA10E944223000F111FF801EE5E1A
:1051D000FD4F80819181C826D926D182C0828091DD
:1051E0003B028823D1F180913A02E0913E03E6959B
:1051F000E81BE0933502823009F094C1F0E0EB51F6
:10520000FB4FE4910E2F10E082E7E82E80E1F82EAC
:1052100080913602882361F0109236020E9486083F
:105220009093340280933302109238021092370226
:105230000E948608E0913302F09134028E1B9F0B8E
:105240008F3F9F4750F4E00FF11FF0933402E0933B
:10525000330283E392E0F701099586E0EDE2F2E0A4
:10526000DE01119601900D928A95E1F7F0902F02E0
:10527000E0903002109131020091320210922F0220
:105280001092300210923102109232028F2D8E292C
:1052900009F448C080912B0290912C020E9477085B
:1052A0009C0190912802992309F4CBC32333310543
:1052B000C8F19F3F19F09F5F90932802FF2059F09B
:1052C0000E94100A9FEF1F140CF491E0899F802D1B
:1052D000112480932F02EE2059F00E94100A9FEFB4
:1052E0001E140CF491E0899F802D112480933002CC
:1052F00030912F023323B1F020913002222391F01C
:1053000045EB3403C0011124992309F465C190933E
:105310002F0245EB240390011124332309F460C1CB
:1053200030933002812F802B09F448C080912902EC
:1053300090912A020E9477089C019091260299235D
:1053400009F47AC325363105C8F19F3F19F09F5FF4
:1053500090932602112359F00E94EE099FEF111637
:105360000CF491E0899F802D112480933102002359
:1053700059F00E94EE099FEF10160CF491E0899FFE
:10538000802D112480933202309131023323B1F009
:1053900020913202222391F045EB3403C001112405
:1053A000992309F421C19093310245EB2403900124
:1053B0001124332309F41CC13093320280912F024F
:1053C00090913002892B90913102892B9091320279
:1053D000892B11F00E94DD1186E0FE013196ADE2CD
:1053E000B2E001900D928A95E1F70E94BE0890917B
:1053F0001102891739F10E94BE08182F80931102FB
:105400008091390282FF1EC080FF1CC080EF94E0B3
:105410000E9447068091390280FF14C01F921F939B
:105420008BEE94E09F938F930E94E0068091390267
:105430000F900F900F900F9080FF04C089EE94E0C2
:105440000E94470680916103843009F006CE83E014
:105450008093E9008091E80082FFFFCD8091E80011
:1054600090E085FF0CC00E94080730E2E32EF12C8B
:105470008E010F5F1F4F882309F4C8C091E080910F
:10548000E8008B778093E800992309F4E6CDE98161
:10549000E150E33108F049C1F0E0E05BF14D0C94DC
:1054A0008A2D80EC94E00E9447063CE1832E32E096
:1054B000932ED12CC12CDF92CF92EBEBF4E0FF9333
:1054C000EF930E94E00688EB94E00E944706D40127
:1054D0008C9111962C90B2E08B0E911C0E94FD0CC9
:1054E000382E822D0E94FD0C3F928F937F926F92F7
:1054F0000E94E00680EB94E00E944706EFEFCE1A90
:10550000DE0A0FB6F894DEBF0FBECDBF95E0C91618
:10551000D10489F637CE8F5FCC0CDD1C8F3009F0BB
:1055200037CEDACD863059F4F0E0EE51FB4FE491FE
:105530000E2F10E0B2E6EB2EB0E1FB2E69CE8930E3
:1055400061F4E695F0E0E152FB4FE4910E2F10E09C
:10555000AEECEA2EAFE0FA2E5BCE8F3061F4E6952A
:10556000F0E0E452FB4FE4910E2F10E0F0E6EF2E56
:10557000FFE0FF2E4DCE853159F4F0E0E752FB4FAE
:10558000E4910E2F10E0E2E1EE2EEFE0FE2E40CE91
:1055900008E210E059E8E52E5EE0F52E883109F4C6
:1055A00037CE833249F4E7EDF4E00591149179E0C8
:1055B000E72E70E1F72E2CCE04EF11E060E5E62E29
:1055C0006EE0F62E843209F423CE00ED17E04FECA6
:1055D000E42E48E0F42E1CCE81E080932F0299CE79
:1055E00081E0809330029ECE81E080933102DDCE57
:1055F00081E080933202E2CE8091F100D8018D9358
:105600008D01B1E0EB1AF10809F438CF8091E80080
:1056100085FDF2CF8091E8008B778093E8000E94AF
:105620000807882399F32ACF1A8289E08B831AC04E
:105630008A81823009F4F7C18330D9F1813009F0D1
:1056400074C02FB7F89460914A0370914B03809116
:105650004C0390914D032FBF0E94902D6B837C8350
:105660008D839E8380916103843009F0F6CC109184
:10567000E9001F709091EC00892F817090FD80E807
:10568000182B82E08093E9008091E80080FF0DC034
:1056900050E040E060E270E0CE0101960E943907E0
:1056A0008091E8008E778093E8001F701093E900E6
:1056B000D4CC80911C0290911D02982789279827AD
:1056C0009C838B8380911E0290911F0298278927CB
:1056D00098279E838D8380912002909121029827A4
:1056E0008927982798878F8380912202909123029F
:1056F0009827892798279A878987809124029091F3
:1057000025029827892798279C878B87ABCF8A818A
:10571000823059F46B817C818D819E810E94902D15
:1057200086E290E00E94DC2D9DCF8FEF89839ACF97
:105730004C816B818A810E941211982789279827B2
:105740009E838D838FCF0D811E8110270127102707
:105750008A81EB80EEE1EE9E70011124F6E98F9FC5
:10576000E00CF11C11248C8190E0880F991FE80E49
:10577000F91E612FC70187960E94DC2D602FC7019B
:105780008896D0CF0E9496106DCF8A818138C9F05B
:1057900060F4803809F066CF20E04B8160914003CF
:1057A00080913F030E9415155DCF823809F44CC0EB
:1057B000833809F057CF20E0409141036C818B8101
:1057C000F1CF60E08B810E9466162B8190913902A7
:1057D00080913E0321111FC08E7F80933E0390FF76
:1057E0000CC01F921F9283E095E09F938F930E94BD
:1057F000E0060F900F900F900F900E94CE112FEFA8
:1058000040E782E0215040408040E1F700C00000C6
:105810000E941B0E27CF816080933E0390FF0DC036
:105820001F9281E08F938DE395E09F938F930E9469
:10583000E0060F900F900F900F9080913E0360E074
:1058400086950E9466160ECF8B81809342039091BD
:10585000390290FF07CF1F928F9386E795E09F93C1
:105860008F930E94E0060F900F900F900F90FACE4A
:105870008A81813899F030F4803809F0F3CE809134
:105880004103D4CE823891F0833809F0EBCE809179
:105890003F038B83809140038C83E4CE80913E0351
:1058A00080FF02C08695C2CE80E0C0CE80914203C8
:1058B000BDCE60913E0370913F0380914003909173
:1058C00041030E940315CECE80E18A83CBCE81E0D6
:1058D0008A8381E8ABCE0A811B811027012710271C
:1058E000DE0111967D01CC80FD01EC0DF11D6F01F3
:1058F000C80181589D4FCE14DF0409F4B3CE01389E
:10590000F1E01F0758F40E94C82DD70114968C931C
:105910000F5F1F4FFFEFEF1AFF0AEACFF701148264
:10592000F7CF0A811B81102701271027CE0101968E
:105930006C01EC80E00EF12EF11CC80181589D4FE6
:105940000E151F0509F48ECE0138A1E01A0720F4C8
:10595000F60164810E94DC2DFFEFCF1ADF0A0F5F92
:105960001F4FEBCF0E9486107DCE84E0AECF0A8120
:105970001B81102701271027CE0101967C01CC80C6
:10598000DC01AC0DB11D6D01C8018796EC14FD045E
:1059900009F468CE0835B2E01B0750F40E94C82D08
:1059A000F70184830F5F1F4FBFEFEB1AFB0AECCFA9
:1059B000D70114961C92F6CF0A811B81102701276C
:1059C0001027FE0131966F01EC80E00EF12EF11CE4
:1059D000C80187960E151F0509F444CE0835F2E07C
:1059E0001F0728F4D60114966C910E94DC2DBFEF9E
:1059F000CB1ADB0A0F5F1F4FEBCF09BD19BD09B4EE
:105A000000FEFDCF8091D8008F7D8093D8008091DB
:105A1000E00082608093E0008091E00081FDFCCF97
:105A20000E94031724CB86E290E00E94C82D1B82BF
:105A30001C821D828E8316CE2D32314008F087CC19
:105A4000BDCC2D32314008F036CC6CCC991B79E0BE
:105A500004C0991F961708F0961B881F7A95C9F7FE
:105A60008095089587FB082E062687FD819567FDA2
:105A700061950E94262D0EF4919507FC819508955D
:105A8000AA1BBB1B51E107C0AA1FBB1FA617B70764
:105A900010F0A61BB70B881F991F5A95A9F7809580
:105AA0009095BC01CD01089597FB072E16F4009444
:105AB00007D077FD09D00E94402D07FC05D03EF4A9
:105AC000909581959F4F0895709561957F4F0895AA
:105AD000A1E21A2EAA1BBB1BFD010DC0AA1FBB1FF2
